{
	"meta-mall/nft-loan.sol": {
		"NFTLoan": {
			"abi": [
				{
					"inputs": [
						{
							"internalType": "address",
							"name": "_owner",
							"type": "address"
						},
						{
							"internalType": "uint256",
							"name": "_interestRate",
							"type": "uint256"
						}
					],
					"stateMutability": "nonpayable",
					"type": "constructor"
				},
				{
					"inputs": [
						{
							"internalType": "uint256",
							"name": "_tokenId",
							"type": "uint256"
						},
						{
							"internalType": "uint256",
							"name": "_loanAmount",
							"type": "uint256"
						},
						{
							"internalType": "uint256",
							"name": "_loanDeadLine",
							"type": "uint256"
						},
						{
							"internalType": "address",
							"name": "_nftContract",
							"type": "address"
						}
					],
					"name": "depositNFT",
					"outputs": [],
					"stateMutability": "nonpayable",
					"type": "function"
				},
				{
					"inputs": [
						{
							"internalType": "address",
							"name": "",
							"type": "address"
						},
						{
							"internalType": "uint256",
							"name": "",
							"type": "uint256"
						}
					],
					"name": "loans",
					"outputs": [
						{
							"internalType": "uint256",
							"name": "loanAmount",
							"type": "uint256"
						},
						{
							"internalType": "uint256",
							"name": "loanDeadLine",
							"type": "uint256"
						}
					],
					"stateMutability": "view",
					"type": "function"
				},
				{
					"inputs": [],
					"name": "nftContract",
					"outputs": [
						{
							"internalType": "contract IERC721",
							"name": "",
							"type": "address"
						}
					],
					"stateMutability": "view",
					"type": "function"
				},
				{
					"inputs": [],
					"name": "owner",
					"outputs": [
						{
							"internalType": "address",
							"name": "",
							"type": "address"
						}
					],
					"stateMutability": "view",
					"type": "function"
				},
				{
					"inputs": [
						{
							"internalType": "uint256",
							"name": "_tokenId",
							"type": "uint256"
						},
						{
							"internalType": "address",
							"name": "_nftContract",
							"type": "address"
						}
					],
					"name": "withdrawNFT",
					"outputs": [],
					"stateMutability": "nonpayable",
					"type": "function"
				}
			],
			"devdoc": {
				"kind": "dev",
				"methods": {},
				"version": 1
			},
			"evm": {
				"assembly": "    /* \"meta-mall/nft-loan.sol\":58:1350  contract NFTLoan {... */\n  mstore(0x40, 0x80)\n    /* \"meta-mall/nft-loan.sol\":336:444  constructor(address _owner,uint256 _interestRate) {... */\n  callvalue\n  dup1\n  iszero\n  tag_1\n  jumpi\n  0x00\n  dup1\n  revert\ntag_1:\n  pop\n  mload(0x40)\n  sub(codesize, bytecodeSize)\n  dup1\n  bytecodeSize\n  dup4\n  codecopy\n  dup2\n  dup2\n  add\n  0x40\n  mstore\n  dup2\n  add\n  swap1\n  tag_2\n  swap2\n  swap1\n  tag_3\n  jump\t// in\ntag_2:\n    /* \"meta-mall/nft-loan.sol\":400:406  _owner */\n  dup2\n    /* \"meta-mall/nft-loan.sol\":392:397  owner */\n  0x00\n  dup1\n    /* \"meta-mall/nft-loan.sol\":392:406  owner = _owner */\n  0x0100\n  exp\n  dup2\n  sload\n  dup2\n  0xffffffffffffffffffffffffffffffffffffffff\n  mul\n  not\n  and\n  swap1\n  dup4\n  0xffffffffffffffffffffffffffffffffffffffff\n  and\n  mul\n  or\n  swap1\n  sstore\n  pop\n    /* \"meta-mall/nft-loan.sol\":428:441  _interestRate */\n  dup1\n    /* \"meta-mall/nft-loan.sol\":412:424  interestRate */\n  0x01\n    /* \"meta-mall/nft-loan.sol\":412:441  interestRate =  _interestRate */\n  dup2\n  swap1\n  sstore\n  pop\n    /* \"meta-mall/nft-loan.sol\":336:444  constructor(address _owner,uint256 _interestRate) {... */\n  pop\n  pop\n    /* \"meta-mall/nft-loan.sol\":58:1350  contract NFTLoan {... */\n  jump(tag_6)\n    /* \"#utility.yul\":7:150   */\ntag_8:\n    /* \"#utility.yul\":64:69   */\n  0x00\n    /* \"#utility.yul\":95:101   */\n  dup2\n    /* \"#utility.yul\":89:102   */\n  mload\n    /* \"#utility.yul\":80:102   */\n  swap1\n  pop\n    /* \"#utility.yul\":111:144   */\n  tag_10\n    /* \"#utility.yul\":138:143   */\n  dup2\n    /* \"#utility.yul\":111:144   */\n  tag_11\n  jump\t// in\ntag_10:\n    /* \"#utility.yul\":7:150   */\n  swap3\n  swap2\n  pop\n  pop\n  jump\t// out\n    /* \"#utility.yul\":156:299   */\ntag_12:\n    /* \"#utility.yul\":213:218   */\n  0x00\n    /* \"#utility.yul\":244:250   */\n  dup2\n    /* \"#utility.yul\":238:251   */\n  mload\n    /* \"#utility.yul\":229:251   */\n  swap1\n  pop\n    /* \"#utility.yul\":260:293   */\n  tag_14\n    /* \"#utility.yul\":287:292   */\n  dup2\n    /* \"#utility.yul\":260:293   */\n  tag_15\n  jump\t// in\ntag_14:\n    /* \"#utility.yul\":156:299   */\n  swap3\n  swap2\n  pop\n  pop\n  jump\t// out\n    /* \"#utility.yul\":305:812   */\ntag_3:\n    /* \"#utility.yul\":384:390   */\n  0x00\n    /* \"#utility.yul\":392:398   */\n  dup1\n    /* \"#utility.yul\":441:443   */\n  0x40\n    /* \"#utility.yul\":429:438   */\n  dup4\n    /* \"#utility.yul\":420:427   */\n  dup6\n    /* \"#utility.yul\":416:439   */\n  sub\n    /* \"#utility.yul\":412:444   */\n  slt\n    /* \"#utility.yul\":409:528   */\n  iszero\n  tag_17\n  jumpi\n    /* \"#utility.yul\":447:526   */\n  tag_18\n  tag_19\n  jump\t// in\ntag_18:\n    /* \"#utility.yul\":409:528   */\ntag_17:\n    /* \"#utility.yul\":567:568   */\n  0x00\n    /* \"#utility.yul\":592:656   */\n  tag_20\n    /* \"#utility.yul\":648:655   */\n  dup6\n    /* \"#utility.yul\":639:645   */\n  dup3\n    /* \"#utility.yul\":628:637   */\n  dup7\n    /* \"#utility.yul\":624:646   */\n  add\n    /* \"#utility.yul\":592:656   */\n  tag_8\n  jump\t// in\ntag_20:\n    /* \"#utility.yul\":582:656   */\n  swap3\n  pop\n    /* \"#utility.yul\":538:666   */\n  pop\n    /* \"#utility.yul\":705:707   */\n  0x20\n    /* \"#utility.yul\":731:795   */\n  tag_21\n    /* \"#utility.yul\":787:794   */\n  dup6\n    /* \"#utility.yul\":778:784   */\n  dup3\n    /* \"#utility.yul\":767:776   */\n  dup7\n    /* \"#utility.yul\":763:785   */\n  add\n    /* \"#utility.yul\":731:795   */\n  tag_12\n  jump\t// in\ntag_21:\n    /* \"#utility.yul\":721:795   */\n  swap2\n  pop\n    /* \"#utility.yul\":676:805   */\n  pop\n    /* \"#utility.yul\":305:812   */\n  swap3\n  pop\n  swap3\n  swap1\n  pop\n  jump\t// out\n    /* \"#utility.yul\":899:995   */\ntag_24:\n    /* \"#utility.yul\":936:943   */\n  0x00\n    /* \"#utility.yul\":965:989   */\n  tag_26\n    /* \"#utility.yul\":983:988   */\n  dup3\n    /* \"#utility.yul\":965:989   */\n  tag_27\n  jump\t// in\ntag_26:\n    /* \"#utility.yul\":954:989   */\n  swap1\n  pop\n    /* \"#utility.yul\":899:995   */\n  swap2\n  swap1\n  pop\n  jump\t// out\n    /* \"#utility.yul\":1001:1127   */\ntag_27:\n    /* \"#utility.yul\":1038:1045   */\n  0x00\n    /* \"#utility.yul\":1078:1120   */\n  0xffffffffffffffffffffffffffffffffffffffff\n    /* \"#utility.yul\":1071:1076   */\n  dup3\n    /* \"#utility.yul\":1067:1121   */\n  and\n    /* \"#utility.yul\":1056:1121   */\n  swap1\n  pop\n    /* \"#utility.yul\":1001:1127   */\n  swap2\n  swap1\n  pop\n  jump\t// out\n    /* \"#utility.yul\":1133:1210   */\ntag_29:\n    /* \"#utility.yul\":1170:1177   */\n  0x00\n    /* \"#utility.yul\":1199:1204   */\n  dup2\n    /* \"#utility.yul\":1188:1204   */\n  swap1\n  pop\n    /* \"#utility.yul\":1133:1210   */\n  swap2\n  swap1\n  pop\n  jump\t// out\n    /* \"#utility.yul\":1339:1456   */\ntag_19:\n    /* \"#utility.yul\":1448:1449   */\n  0x00\n    /* \"#utility.yul\":1445:1446   */\n  dup1\n    /* \"#utility.yul\":1438:1450   */\n  revert\n    /* \"#utility.yul\":1462:1584   */\ntag_11:\n    /* \"#utility.yul\":1535:1559   */\n  tag_35\n    /* \"#utility.yul\":1553:1558   */\n  dup2\n    /* \"#utility.yul\":1535:1559   */\n  tag_24\n  jump\t// in\ntag_35:\n    /* \"#utility.yul\":1528:1533   */\n  dup2\n    /* \"#utility.yul\":1525:1560   */\n  eq\n    /* \"#utility.yul\":1515:1578   */\n  tag_36\n  jumpi\n    /* \"#utility.yul\":1574:1575   */\n  0x00\n    /* \"#utility.yul\":1571:1572   */\n  dup1\n    /* \"#utility.yul\":1564:1576   */\n  revert\n    /* \"#utility.yul\":1515:1578   */\ntag_36:\n    /* \"#utility.yul\":1462:1584   */\n  pop\n  jump\t// out\n    /* \"#utility.yul\":1590:1712   */\ntag_15:\n    /* \"#utility.yul\":1663:1687   */\n  tag_38\n    /* \"#utility.yul\":1681:1686   */\n  dup2\n    /* \"#utility.yul\":1663:1687   */\n  tag_29\n  jump\t// in\ntag_38:\n    /* \"#utility.yul\":1656:1661   */\n  dup2\n    /* \"#utility.yul\":1653:1688   */\n  eq\n    /* \"#utility.yul\":1643:1706   */\n  tag_39\n  jumpi\n    /* \"#utility.yul\":1702:1703   */\n  0x00\n    /* \"#utility.yul\":1699:1700   */\n  dup1\n    /* \"#utility.yul\":1692:1704   */\n  revert\n    /* \"#utility.yul\":1643:1706   */\ntag_39:\n    /* \"#utility.yul\":1590:1712   */\n  pop\n  jump\t// out\n    /* \"meta-mall/nft-loan.sol\":58:1350  contract NFTLoan {... */\ntag_6:\n  dataSize(sub_0)\n  dup1\n  dataOffset(sub_0)\n  0x00\n  codecopy\n  0x00\n  return\nstop\n\nsub_0: assembly {\n        /* \"meta-mall/nft-loan.sol\":58:1350  contract NFTLoan {... */\n      mstore(0x40, 0x80)\n      callvalue\n      dup1\n      iszero\n      tag_1\n      jumpi\n      0x00\n      dup1\n      revert\n    tag_1:\n      pop\n      jumpi(tag_2, lt(calldatasize, 0x04))\n      shr(0xe0, calldataload(0x00))\n      dup1\n      0x2000109e\n      eq\n      tag_3\n      jumpi\n      dup1\n      0x8da5cb5b\n      eq\n      tag_4\n      jumpi\n      dup1\n      0x98c61c37\n      eq\n      tag_5\n      jumpi\n      dup1\n      0xc1d2d00d\n      eq\n      tag_6\n      jumpi\n      dup1\n      0xd56d229d\n      eq\n      tag_7\n      jumpi\n    tag_2:\n      0x00\n      dup1\n      revert\n        /* \"meta-mall/nft-loan.sol\":445:868  function depositNFT(uint256 _tokenId,uint256 _loanAmount,uint256 _loanDeadLine,address _nftContract) public {... */\n    tag_3:\n      tag_8\n      0x04\n      dup1\n      calldatasize\n      sub\n      dup2\n      add\n      swap1\n      tag_9\n      swap2\n      swap1\n      tag_10\n      jump\t// in\n    tag_9:\n      tag_11\n      jump\t// in\n    tag_8:\n      stop\n        /* \"meta-mall/nft-loan.sol\":81:101  address public owner */\n    tag_4:\n      tag_12\n      tag_13\n      jump\t// in\n    tag_12:\n      mload(0x40)\n      tag_14\n      swap2\n      swap1\n      tag_15\n      jump\t// in\n    tag_14:\n      mload(0x40)\n      dup1\n      swap2\n      sub\n      swap1\n      return\n        /* \"meta-mall/nft-loan.sol\":266:329  mapping (address => mapping(uint256=>NftLoasInfo)) public loans */\n    tag_5:\n      tag_16\n      0x04\n      dup1\n      calldatasize\n      sub\n      dup2\n      add\n      swap1\n      tag_17\n      swap2\n      swap1\n      tag_18\n      jump\t// in\n    tag_17:\n      tag_19\n      jump\t// in\n    tag_16:\n      mload(0x40)\n      tag_20\n      swap3\n      swap2\n      swap1\n      tag_21\n      jump\t// in\n    tag_20:\n      mload(0x40)\n      dup1\n      swap2\n      sub\n      swap1\n      return\n        /* \"meta-mall/nft-loan.sol\":869:1347  function withdrawNFT(uint256 _tokenId,address _nftContract) public {... */\n    tag_6:\n      tag_22\n      0x04\n      dup1\n      calldatasize\n      sub\n      dup2\n      add\n      swap1\n      tag_23\n      swap2\n      swap1\n      tag_24\n      jump\t// in\n    tag_23:\n      tag_25\n      jump\t// in\n    tag_22:\n      stop\n        /* \"meta-mall/nft-loan.sol\":234:260  IERC721 public nftContract */\n    tag_7:\n      tag_26\n      tag_27\n      jump\t// in\n    tag_26:\n      mload(0x40)\n      tag_28\n      swap2\n      swap1\n      tag_29\n      jump\t// in\n    tag_28:\n      mload(0x40)\n      dup1\n      swap2\n      sub\n      swap1\n      return\n        /* \"meta-mall/nft-loan.sol\":445:868  function depositNFT(uint256 _tokenId,uint256 _loanAmount,uint256 _loanDeadLine,address _nftContract) public {... */\n    tag_11:\n        /* \"meta-mall/nft-loan.sol\":600:610  msg.sender */\n      caller\n        /* \"meta-mall/nft-loan.sol\":567:610  nftContract.ownerOf(_tokenId) == msg.sender */\n      0xffffffffffffffffffffffffffffffffffffffff\n      and\n        /* \"meta-mall/nft-loan.sol\":567:578  nftContract */\n      0x02\n      0x00\n      swap1\n      sload\n      swap1\n      0x0100\n      exp\n      swap1\n      div\n      0xffffffffffffffffffffffffffffffffffffffff\n      and\n        /* \"meta-mall/nft-loan.sol\":567:586  nftContract.ownerOf */\n      0xffffffffffffffffffffffffffffffffffffffff\n      and\n      0x6352211e\n        /* \"meta-mall/nft-loan.sol\":587:595  _tokenId */\n      dup7\n        /* \"meta-mall/nft-loan.sol\":567:596  nftContract.ownerOf(_tokenId) */\n      mload(0x40)\n      dup3\n      0xffffffff\n      and\n      0xe0\n      shl\n      dup2\n      mstore\n      0x04\n      add\n      tag_31\n      swap2\n      swap1\n      tag_32\n      jump\t// in\n    tag_31:\n      0x20\n      mload(0x40)\n      dup1\n      dup4\n      sub\n      dup2\n      dup7\n      dup1\n      extcodesize\n      iszero\n      dup1\n      iszero\n      tag_33\n      jumpi\n      0x00\n      dup1\n      revert\n    tag_33:\n      pop\n      gas\n      staticcall\n      iszero\n      dup1\n      iszero\n      tag_35\n      jumpi\n      returndatasize\n      0x00\n      dup1\n      returndatacopy\n      revert(0x00, returndatasize)\n    tag_35:\n      pop\n      pop\n      pop\n      pop\n      mload(0x40)\n      returndatasize\n      not(0x1f)\n      0x1f\n      dup3\n      add\n      and\n      dup3\n      add\n      dup1\n      0x40\n      mstore\n      pop\n      dup2\n      add\n      swap1\n      tag_36\n      swap2\n      swap1\n      tag_37\n      jump\t// in\n    tag_36:\n        /* \"meta-mall/nft-loan.sol\":567:610  nftContract.ownerOf(_tokenId) == msg.sender */\n      0xffffffffffffffffffffffffffffffffffffffff\n      and\n      eq\n        /* \"meta-mall/nft-loan.sol\":559:637  require(nftContract.ownerOf(_tokenId) == msg.sender, \"You don't own this NFT\") */\n      tag_38\n      jumpi\n      mload(0x40)\n      0x08c379a000000000000000000000000000000000000000000000000000000000\n      dup2\n      mstore\n      0x04\n      add\n      tag_39\n      swap1\n      tag_40\n      jump\t// in\n    tag_39:\n      mload(0x40)\n      dup1\n      swap2\n      sub\n      swap1\n      revert\n    tag_38:\n        /* \"meta-mall/nft-loan.sol\":684:695  _loanAmount */\n      dup3\n        /* \"meta-mall/nft-loan.sol\":643:648  loans */\n      0x03\n        /* \"meta-mall/nft-loan.sol\":643:660  loans[msg.sender] */\n      0x00\n        /* \"meta-mall/nft-loan.sol\":649:659  msg.sender */\n      caller\n        /* \"meta-mall/nft-loan.sol\":643:660  loans[msg.sender] */\n      0xffffffffffffffffffffffffffffffffffffffff\n      and\n      0xffffffffffffffffffffffffffffffffffffffff\n      and\n      dup2\n      mstore\n      0x20\n      add\n      swap1\n      dup2\n      mstore\n      0x20\n      add\n      0x00\n      keccak256\n        /* \"meta-mall/nft-loan.sol\":643:670  loans[msg.sender][_tokenId] */\n      0x00\n        /* \"meta-mall/nft-loan.sol\":661:669  _tokenId */\n      dup7\n        /* \"meta-mall/nft-loan.sol\":643:670  loans[msg.sender][_tokenId] */\n      dup2\n      mstore\n      0x20\n      add\n      swap1\n      dup2\n      mstore\n      0x20\n      add\n      0x00\n      keccak256\n        /* \"meta-mall/nft-loan.sol\":643:681  loans[msg.sender][_tokenId].loanAmount */\n      0x00\n      add\n        /* \"meta-mall/nft-loan.sol\":643:695  loans[msg.sender][_tokenId].loanAmount = _loanAmount */\n      dup2\n      swap1\n      sstore\n      pop\n        /* \"meta-mall/nft-loan.sol\":744:757  _loanDeadLine */\n      dup2\n        /* \"meta-mall/nft-loan.sol\":701:706  loans */\n      0x03\n        /* \"meta-mall/nft-loan.sol\":701:718  loans[msg.sender] */\n      0x00\n        /* \"meta-mall/nft-loan.sol\":707:717  msg.sender */\n      caller\n        /* \"meta-mall/nft-loan.sol\":701:718  loans[msg.sender] */\n      0xffffffffffffffffffffffffffffffffffffffff\n      and\n      0xffffffffffffffffffffffffffffffffffffffff\n      and\n      dup2\n      mstore\n      0x20\n      add\n      swap1\n      dup2\n      mstore\n      0x20\n      add\n      0x00\n      keccak256\n        /* \"meta-mall/nft-loan.sol\":701:728  loans[msg.sender][_tokenId] */\n      0x00\n        /* \"meta-mall/nft-loan.sol\":719:727  _tokenId */\n      dup7\n        /* \"meta-mall/nft-loan.sol\":701:728  loans[msg.sender][_tokenId] */\n      dup2\n      mstore\n      0x20\n      add\n      swap1\n      dup2\n      mstore\n      0x20\n      add\n      0x00\n      keccak256\n        /* \"meta-mall/nft-loan.sol\":701:741  loans[msg.sender][_tokenId].loanDeadLine */\n      0x01\n      add\n        /* \"meta-mall/nft-loan.sol\":701:757  loans[msg.sender][_tokenId].loanDeadLine = _loanDeadLine */\n      dup2\n      swap1\n      sstore\n      pop\n        /* \"meta-mall/nft-loan.sol\":785:797  _nftContract */\n      dup1\n        /* \"meta-mall/nft-loan.sol\":763:774  nftContract */\n      0x02\n      0x00\n        /* \"meta-mall/nft-loan.sol\":763:798  nftContract = IERC721(_nftContract) */\n      0x0100\n      exp\n      dup2\n      sload\n      dup2\n      0xffffffffffffffffffffffffffffffffffffffff\n      mul\n      not\n      and\n      swap1\n      dup4\n      0xffffffffffffffffffffffffffffffffffffffff\n      and\n      mul\n      or\n      swap1\n      sstore\n      pop\n        /* \"meta-mall/nft-loan.sol\":804:815  nftContract */\n      0x02\n      0x00\n      swap1\n      sload\n      swap1\n      0x0100\n      exp\n      swap1\n      div\n      0xffffffffffffffffffffffffffffffffffffffff\n      and\n        /* \"meta-mall/nft-loan.sol\":804:828  nftContract.transferFrom */\n      0xffffffffffffffffffffffffffffffffffffffff\n      and\n      0x23b872dd\n        /* \"meta-mall/nft-loan.sol\":829:839  msg.sender */\n      caller\n        /* \"meta-mall/nft-loan.sol\":849:853  this */\n      address\n        /* \"meta-mall/nft-loan.sol\":856:864  _tokenId */\n      dup8\n        /* \"meta-mall/nft-loan.sol\":804:865  nftContract.transferFrom(msg.sender, address(this), _tokenId) */\n      mload(0x40)\n      dup5\n      0xffffffff\n      and\n      0xe0\n      shl\n      dup2\n      mstore\n      0x04\n      add\n      tag_41\n      swap4\n      swap3\n      swap2\n      swap1\n      tag_42\n      jump\t// in\n    tag_41:\n      0x00\n      mload(0x40)\n      dup1\n      dup4\n      sub\n      dup2\n      0x00\n      dup8\n      dup1\n      extcodesize\n      iszero\n      dup1\n      iszero\n      tag_43\n      jumpi\n      0x00\n      dup1\n      revert\n    tag_43:\n      pop\n      gas\n      call\n      iszero\n      dup1\n      iszero\n      tag_45\n      jumpi\n      returndatasize\n      0x00\n      dup1\n      returndatacopy\n      revert(0x00, returndatasize)\n    tag_45:\n      pop\n      pop\n      pop\n      pop\n        /* \"meta-mall/nft-loan.sol\":445:868  function depositNFT(uint256 _tokenId,uint256 _loanAmount,uint256 _loanDeadLine,address _nftContract) public {... */\n      pop\n      pop\n      pop\n      pop\n      jump\t// out\n        /* \"meta-mall/nft-loan.sol\":81:101  address public owner */\n    tag_13:\n      0x00\n      dup1\n      sload\n      swap1\n      0x0100\n      exp\n      swap1\n      div\n      0xffffffffffffffffffffffffffffffffffffffff\n      and\n      dup2\n      jump\t// out\n        /* \"meta-mall/nft-loan.sol\":266:329  mapping (address => mapping(uint256=>NftLoasInfo)) public loans */\n    tag_19:\n      mstore(0x20, 0x03)\n      dup2\n      0x00\n      mstore\n      mstore(0x20, keccak256(0x00, 0x40))\n      dup1\n      0x00\n      mstore\n      keccak256(0x00, 0x40)\n      0x00\n      swap2\n      pop\n      swap2\n      pop\n      pop\n      dup1\n      0x00\n      add\n      sload\n      swap1\n      dup1\n      0x01\n      add\n      sload\n      swap1\n      pop\n      dup3\n      jump\t// out\n        /* \"meta-mall/nft-loan.sol\":869:1347  function withdrawNFT(uint256 _tokenId,address _nftContract) public {... */\n    tag_25:\n        /* \"meta-mall/nft-loan.sol\":992:993  0 */\n      0x00\n        /* \"meta-mall/nft-loan.sol\":950:955  loans */\n      0x03\n        /* \"meta-mall/nft-loan.sol\":950:967  loans[msg.sender] */\n      0x00\n        /* \"meta-mall/nft-loan.sol\":956:966  msg.sender */\n      caller\n        /* \"meta-mall/nft-loan.sol\":950:967  loans[msg.sender] */\n      0xffffffffffffffffffffffffffffffffffffffff\n      and\n      0xffffffffffffffffffffffffffffffffffffffff\n      and\n      dup2\n      mstore\n      0x20\n      add\n      swap1\n      dup2\n      mstore\n      0x20\n      add\n      0x00\n      keccak256\n        /* \"meta-mall/nft-loan.sol\":950:977  loans[msg.sender][_tokenId] */\n      0x00\n        /* \"meta-mall/nft-loan.sol\":968:976  _tokenId */\n      dup5\n        /* \"meta-mall/nft-loan.sol\":950:977  loans[msg.sender][_tokenId] */\n      dup2\n      mstore\n      0x20\n      add\n      swap1\n      dup2\n      mstore\n      0x20\n      add\n      0x00\n      keccak256\n        /* \"meta-mall/nft-loan.sol\":950:988  loans[msg.sender][_tokenId].loanAmount */\n      0x00\n      add\n      sload\n        /* \"meta-mall/nft-loan.sol\":950:993  loans[msg.sender][_tokenId].loanAmount != 0 */\n      eq\n      iszero\n        /* \"meta-mall/nft-loan.sol\":942:1030  require(loans[msg.sender][_tokenId].loanAmount != 0, \"You don't have any NFT deposited\") */\n      tag_47\n      jumpi\n      mload(0x40)\n      0x08c379a000000000000000000000000000000000000000000000000000000000\n      dup2\n      mstore\n      0x04\n      add\n      tag_48\n      swap1\n      tag_49\n      jump\t// in\n    tag_48:\n      mload(0x40)\n      dup1\n      swap2\n      sub\n      swap1\n      revert\n    tag_47:\n        /* \"meta-mall/nft-loan.sol\":1087:1102  block.timestamp */\n      timestamp\n        /* \"meta-mall/nft-loan.sol\":1044:1049  loans */\n      0x03\n        /* \"meta-mall/nft-loan.sol\":1044:1061  loans[msg.sender] */\n      0x00\n        /* \"meta-mall/nft-loan.sol\":1050:1060  msg.sender */\n      caller\n        /* \"meta-mall/nft-loan.sol\":1044:1061  loans[msg.sender] */\n      0xffffffffffffffffffffffffffffffffffffffff\n      and\n      0xffffffffffffffffffffffffffffffffffffffff\n      and\n      dup2\n      mstore\n      0x20\n      add\n      swap1\n      dup2\n      mstore\n      0x20\n      add\n      0x00\n      keccak256\n        /* \"meta-mall/nft-loan.sol\":1044:1071  loans[msg.sender][_tokenId] */\n      0x00\n        /* \"meta-mall/nft-loan.sol\":1062:1070  _tokenId */\n      dup5\n        /* \"meta-mall/nft-loan.sol\":1044:1071  loans[msg.sender][_tokenId] */\n      dup2\n      mstore\n      0x20\n      add\n      swap1\n      dup2\n      mstore\n      0x20\n      add\n      0x00\n      keccak256\n        /* \"meta-mall/nft-loan.sol\":1044:1084  loans[msg.sender][_tokenId].loanDeadLine */\n      0x01\n      add\n      sload\n        /* \"meta-mall/nft-loan.sol\":1044:1102  loans[msg.sender][_tokenId].loanDeadLine < block.timestamp */\n      lt\n        /* \"meta-mall/nft-loan.sol\":1036:1136  require(loans[msg.sender][_tokenId].loanDeadLine < block.timestamp, \"Your NFT loan has out of date\") */\n      tag_50\n      jumpi\n      mload(0x40)\n      0x08c379a000000000000000000000000000000000000000000000000000000000\n      dup2\n      mstore\n      0x04\n      add\n      tag_51\n      swap1\n      tag_52\n      jump\t// in\n    tag_51:\n      mload(0x40)\n      dup1\n      swap2\n      sub\n      swap1\n      revert\n    tag_50:\n        /* \"meta-mall/nft-loan.sol\":1164:1176  _nftContract */\n      dup1\n        /* \"meta-mall/nft-loan.sol\":1142:1153  nftContract */\n      0x02\n      0x00\n        /* \"meta-mall/nft-loan.sol\":1142:1177  nftContract = IERC721(_nftContract) */\n      0x0100\n      exp\n      dup2\n      sload\n      dup2\n      0xffffffffffffffffffffffffffffffffffffffff\n      mul\n      not\n      and\n      swap1\n      dup4\n      0xffffffffffffffffffffffffffffffffffffffff\n      and\n      mul\n      or\n      swap1\n      sstore\n      pop\n        /* \"meta-mall/nft-loan.sol\":1225:1226  0 */\n      0x00\n        /* \"meta-mall/nft-loan.sol\":1183:1188  loans */\n      0x03\n        /* \"meta-mall/nft-loan.sol\":1183:1200  loans[msg.sender] */\n      0x00\n        /* \"meta-mall/nft-loan.sol\":1189:1199  msg.sender */\n      caller\n        /* \"meta-mall/nft-loan.sol\":1183:1200  loans[msg.sender] */\n      0xffffffffffffffffffffffffffffffffffffffff\n      and\n      0xffffffffffffffffffffffffffffffffffffffff\n      and\n      dup2\n      mstore\n      0x20\n      add\n      swap1\n      dup2\n      mstore\n      0x20\n      add\n      0x00\n      keccak256\n        /* \"meta-mall/nft-loan.sol\":1183:1210  loans[msg.sender][_tokenId] */\n      0x00\n        /* \"meta-mall/nft-loan.sol\":1201:1209  _tokenId */\n      dup5\n        /* \"meta-mall/nft-loan.sol\":1183:1210  loans[msg.sender][_tokenId] */\n      dup2\n      mstore\n      0x20\n      add\n      swap1\n      dup2\n      mstore\n      0x20\n      add\n      0x00\n      keccak256\n        /* \"meta-mall/nft-loan.sol\":1183:1221  loans[msg.sender][_tokenId].loanAmount */\n      0x00\n      add\n        /* \"meta-mall/nft-loan.sol\":1183:1226  loans[msg.sender][_tokenId].loanAmount  = 0 */\n      dup2\n      swap1\n      sstore\n      pop\n        /* \"meta-mall/nft-loan.sol\":1276:1277  0 */\n      0x00\n        /* \"meta-mall/nft-loan.sol\":1232:1237  loans */\n      0x03\n        /* \"meta-mall/nft-loan.sol\":1232:1249  loans[msg.sender] */\n      0x00\n        /* \"meta-mall/nft-loan.sol\":1238:1248  msg.sender */\n      caller\n        /* \"meta-mall/nft-loan.sol\":1232:1249  loans[msg.sender] */\n      0xffffffffffffffffffffffffffffffffffffffff\n      and\n      0xffffffffffffffffffffffffffffffffffffffff\n      and\n      dup2\n      mstore\n      0x20\n      add\n      swap1\n      dup2\n      mstore\n      0x20\n      add\n      0x00\n      keccak256\n        /* \"meta-mall/nft-loan.sol\":1232:1259  loans[msg.sender][_tokenId] */\n      0x00\n        /* \"meta-mall/nft-loan.sol\":1250:1258  _tokenId */\n      dup5\n        /* \"meta-mall/nft-loan.sol\":1232:1259  loans[msg.sender][_tokenId] */\n      dup2\n      mstore\n      0x20\n      add\n      swap1\n      dup2\n      mstore\n      0x20\n      add\n      0x00\n      keccak256\n        /* \"meta-mall/nft-loan.sol\":1232:1272  loans[msg.sender][_tokenId].loanDeadLine */\n      0x01\n      add\n        /* \"meta-mall/nft-loan.sol\":1232:1277  loans[msg.sender][_tokenId].loanDeadLine  = 0 */\n      dup2\n      swap1\n      sstore\n      pop\n        /* \"meta-mall/nft-loan.sol\":1283:1294  nftContract */\n      0x02\n      0x00\n      swap1\n      sload\n      swap1\n      0x0100\n      exp\n      swap1\n      div\n      0xffffffffffffffffffffffffffffffffffffffff\n      and\n        /* \"meta-mall/nft-loan.sol\":1283:1307  nftContract.transferFrom */\n      0xffffffffffffffffffffffffffffffffffffffff\n      and\n      0x23b872dd\n        /* \"meta-mall/nft-loan.sol\":1316:1320  this */\n      address\n        /* \"meta-mall/nft-loan.sol\":1323:1333  msg.sender */\n      caller\n        /* \"meta-mall/nft-loan.sol\":1335:1343  _tokenId */\n      dup6\n        /* \"meta-mall/nft-loan.sol\":1283:1344  nftContract.transferFrom(address(this), msg.sender, _tokenId) */\n      mload(0x40)\n      dup5\n      0xffffffff\n      and\n      0xe0\n      shl\n      dup2\n      mstore\n      0x04\n      add\n      tag_53\n      swap4\n      swap3\n      swap2\n      swap1\n      tag_42\n      jump\t// in\n    tag_53:\n      0x00\n      mload(0x40)\n      dup1\n      dup4\n      sub\n      dup2\n      0x00\n      dup8\n      dup1\n      extcodesize\n      iszero\n      dup1\n      iszero\n      tag_54\n      jumpi\n      0x00\n      dup1\n      revert\n    tag_54:\n      pop\n      gas\n      call\n      iszero\n      dup1\n      iszero\n      tag_56\n      jumpi\n      returndatasize\n      0x00\n      dup1\n      returndatacopy\n      revert(0x00, returndatasize)\n    tag_56:\n      pop\n      pop\n      pop\n      pop\n        /* \"meta-mall/nft-loan.sol\":869:1347  function withdrawNFT(uint256 _tokenId,address _nftContract) public {... */\n      pop\n      pop\n      jump\t// out\n        /* \"meta-mall/nft-loan.sol\":234:260  IERC721 public nftContract */\n    tag_27:\n      0x02\n      0x00\n      swap1\n      sload\n      swap1\n      0x0100\n      exp\n      swap1\n      div\n      0xffffffffffffffffffffffffffffffffffffffff\n      and\n      dup2\n      jump\t// out\n        /* \"#utility.yul\":7:146   */\n    tag_58:\n        /* \"#utility.yul\":53:58   */\n      0x00\n        /* \"#utility.yul\":91:97   */\n      dup2\n        /* \"#utility.yul\":78:98   */\n      calldataload\n        /* \"#utility.yul\":69:98   */\n      swap1\n      pop\n        /* \"#utility.yul\":107:140   */\n      tag_60\n        /* \"#utility.yul\":134:139   */\n      dup2\n        /* \"#utility.yul\":107:140   */\n      tag_61\n      jump\t// in\n    tag_60:\n        /* \"#utility.yul\":7:146   */\n      swap3\n      swap2\n      pop\n      pop\n      jump\t// out\n        /* \"#utility.yul\":152:295   */\n    tag_62:\n        /* \"#utility.yul\":209:214   */\n      0x00\n        /* \"#utility.yul\":240:246   */\n      dup2\n        /* \"#utility.yul\":234:247   */\n      mload\n        /* \"#utility.yul\":225:247   */\n      swap1\n      pop\n        /* \"#utility.yul\":256:289   */\n      tag_64\n        /* \"#utility.yul\":283:288   */\n      dup2\n        /* \"#utility.yul\":256:289   */\n      tag_61\n      jump\t// in\n    tag_64:\n        /* \"#utility.yul\":152:295   */\n      swap3\n      swap2\n      pop\n      pop\n      jump\t// out\n        /* \"#utility.yul\":301:440   */\n    tag_65:\n        /* \"#utility.yul\":347:352   */\n      0x00\n        /* \"#utility.yul\":385:391   */\n      dup2\n        /* \"#utility.yul\":372:392   */\n      calldataload\n        /* \"#utility.yul\":363:392   */\n      swap1\n      pop\n        /* \"#utility.yul\":401:434   */\n      tag_67\n        /* \"#utility.yul\":428:433   */\n      dup2\n        /* \"#utility.yul\":401:434   */\n      tag_68\n      jump\t// in\n    tag_67:\n        /* \"#utility.yul\":301:440   */\n      swap3\n      swap2\n      pop\n      pop\n      jump\t// out\n        /* \"#utility.yul\":446:797   */\n    tag_37:\n        /* \"#utility.yul\":516:522   */\n      0x00\n        /* \"#utility.yul\":565:567   */\n      0x20\n        /* \"#utility.yul\":553:562   */\n      dup3\n        /* \"#utility.yul\":544:551   */\n      dup5\n        /* \"#utility.yul\":540:563   */\n      sub\n        /* \"#utility.yul\":536:568   */\n      slt\n        /* \"#utility.yul\":533:652   */\n      iszero\n      tag_70\n      jumpi\n        /* \"#utility.yul\":571:650   */\n      tag_71\n      tag_72\n      jump\t// in\n    tag_71:\n        /* \"#utility.yul\":533:652   */\n    tag_70:\n        /* \"#utility.yul\":691:692   */\n      0x00\n        /* \"#utility.yul\":716:780   */\n      tag_73\n        /* \"#utility.yul\":772:779   */\n      dup5\n        /* \"#utility.yul\":763:769   */\n      dup3\n        /* \"#utility.yul\":752:761   */\n      dup6\n        /* \"#utility.yul\":748:770   */\n      add\n        /* \"#utility.yul\":716:780   */\n      tag_62\n      jump\t// in\n    tag_73:\n        /* \"#utility.yul\":706:780   */\n      swap2\n      pop\n        /* \"#utility.yul\":662:790   */\n      pop\n        /* \"#utility.yul\":446:797   */\n      swap3\n      swap2\n      pop\n      pop\n      jump\t// out\n        /* \"#utility.yul\":803:1277   */\n    tag_18:\n        /* \"#utility.yul\":871:877   */\n      0x00\n        /* \"#utility.yul\":879:885   */\n      dup1\n        /* \"#utility.yul\":928:930   */\n      0x40\n        /* \"#utility.yul\":916:925   */\n      dup4\n        /* \"#utility.yul\":907:914   */\n      dup6\n        /* \"#utility.yul\":903:926   */\n      sub\n        /* \"#utility.yul\":899:931   */\n      slt\n        /* \"#utility.yul\":896:1015   */\n      iszero\n      tag_75\n      jumpi\n        /* \"#utility.yul\":934:1013   */\n      tag_76\n      tag_72\n      jump\t// in\n    tag_76:\n        /* \"#utility.yul\":896:1015   */\n    tag_75:\n        /* \"#utility.yul\":1054:1055   */\n      0x00\n        /* \"#utility.yul\":1079:1132   */\n      tag_77\n        /* \"#utility.yul\":1124:1131   */\n      dup6\n        /* \"#utility.yul\":1115:1121   */\n      dup3\n        /* \"#utility.yul\":1104:1113   */\n      dup7\n        /* \"#utility.yul\":1100:1122   */\n      add\n        /* \"#utility.yul\":1079:1132   */\n      tag_58\n      jump\t// in\n    tag_77:\n        /* \"#utility.yul\":1069:1132   */\n      swap3\n      pop\n        /* \"#utility.yul\":1025:1142   */\n      pop\n        /* \"#utility.yul\":1181:1183   */\n      0x20\n        /* \"#utility.yul\":1207:1260   */\n      tag_78\n        /* \"#utility.yul\":1252:1259   */\n      dup6\n        /* \"#utility.yul\":1243:1249   */\n      dup3\n        /* \"#utility.yul\":1232:1241   */\n      dup7\n        /* \"#utility.yul\":1228:1250   */\n      add\n        /* \"#utility.yul\":1207:1260   */\n      tag_65\n      jump\t// in\n    tag_78:\n        /* \"#utility.yul\":1197:1260   */\n      swap2\n      pop\n        /* \"#utility.yul\":1152:1270   */\n      pop\n        /* \"#utility.yul\":803:1277   */\n      swap3\n      pop\n      swap3\n      swap1\n      pop\n      jump\t// out\n        /* \"#utility.yul\":1283:1757   */\n    tag_24:\n        /* \"#utility.yul\":1351:1357   */\n      0x00\n        /* \"#utility.yul\":1359:1365   */\n      dup1\n        /* \"#utility.yul\":1408:1410   */\n      0x40\n        /* \"#utility.yul\":1396:1405   */\n      dup4\n        /* \"#utility.yul\":1387:1394   */\n      dup6\n        /* \"#utility.yul\":1383:1406   */\n      sub\n        /* \"#utility.yul\":1379:1411   */\n      slt\n        /* \"#utility.yul\":1376:1495   */\n      iszero\n      tag_80\n      jumpi\n        /* \"#utility.yul\":1414:1493   */\n      tag_81\n      tag_72\n      jump\t// in\n    tag_81:\n        /* \"#utility.yul\":1376:1495   */\n    tag_80:\n        /* \"#utility.yul\":1534:1535   */\n      0x00\n        /* \"#utility.yul\":1559:1612   */\n      tag_82\n        /* \"#utility.yul\":1604:1611   */\n      dup6\n        /* \"#utility.yul\":1595:1601   */\n      dup3\n        /* \"#utility.yul\":1584:1593   */\n      dup7\n        /* \"#utility.yul\":1580:1602   */\n      add\n        /* \"#utility.yul\":1559:1612   */\n      tag_65\n      jump\t// in\n    tag_82:\n        /* \"#utility.yul\":1549:1612   */\n      swap3\n      pop\n        /* \"#utility.yul\":1505:1622   */\n      pop\n        /* \"#utility.yul\":1661:1663   */\n      0x20\n        /* \"#utility.yul\":1687:1740   */\n      tag_83\n        /* \"#utility.yul\":1732:1739   */\n      dup6\n        /* \"#utility.yul\":1723:1729   */\n      dup3\n        /* \"#utility.yul\":1712:1721   */\n      dup7\n        /* \"#utility.yul\":1708:1730   */\n      add\n        /* \"#utility.yul\":1687:1740   */\n      tag_58\n      jump\t// in\n    tag_83:\n        /* \"#utility.yul\":1677:1740   */\n      swap2\n      pop\n        /* \"#utility.yul\":1632:1750   */\n      pop\n        /* \"#utility.yul\":1283:1757   */\n      swap3\n      pop\n      swap3\n      swap1\n      pop\n      jump\t// out\n        /* \"#utility.yul\":1763:2528   */\n    tag_10:\n        /* \"#utility.yul\":1849:1855   */\n      0x00\n        /* \"#utility.yul\":1857:1863   */\n      dup1\n        /* \"#utility.yul\":1865:1871   */\n      0x00\n        /* \"#utility.yul\":1873:1879   */\n      dup1\n        /* \"#utility.yul\":1922:1925   */\n      0x80\n        /* \"#utility.yul\":1910:1919   */\n      dup6\n        /* \"#utility.yul\":1901:1908   */\n      dup8\n        /* \"#utility.yul\":1897:1920   */\n      sub\n        /* \"#utility.yul\":1893:1926   */\n      slt\n        /* \"#utility.yul\":1890:2010   */\n      iszero\n      tag_85\n      jumpi\n        /* \"#utility.yul\":1929:2008   */\n      tag_86\n      tag_72\n      jump\t// in\n    tag_86:\n        /* \"#utility.yul\":1890:2010   */\n    tag_85:\n        /* \"#utility.yul\":2049:2050   */\n      0x00\n        /* \"#utility.yul\":2074:2127   */\n      tag_87\n        /* \"#utility.yul\":2119:2126   */\n      dup8\n        /* \"#utility.yul\":2110:2116   */\n      dup3\n        /* \"#utility.yul\":2099:2108   */\n      dup9\n        /* \"#utility.yul\":2095:2117   */\n      add\n        /* \"#utility.yul\":2074:2127   */\n      tag_65\n      jump\t// in\n    tag_87:\n        /* \"#utility.yul\":2064:2127   */\n      swap5\n      pop\n        /* \"#utility.yul\":2020:2137   */\n      pop\n        /* \"#utility.yul\":2176:2178   */\n      0x20\n        /* \"#utility.yul\":2202:2255   */\n      tag_88\n        /* \"#utility.yul\":2247:2254   */\n      dup8\n        /* \"#utility.yul\":2238:2244   */\n      dup3\n        /* \"#utility.yul\":2227:2236   */\n      dup9\n        /* \"#utility.yul\":2223:2245   */\n      add\n        /* \"#utility.yul\":2202:2255   */\n      tag_65\n      jump\t// in\n    tag_88:\n        /* \"#utility.yul\":2192:2255   */\n      swap4\n      pop\n        /* \"#utility.yul\":2147:2265   */\n      pop\n        /* \"#utility.yul\":2304:2306   */\n      0x40\n        /* \"#utility.yul\":2330:2383   */\n      tag_89\n        /* \"#utility.yul\":2375:2382   */\n      dup8\n        /* \"#utility.yul\":2366:2372   */\n      dup3\n        /* \"#utility.yul\":2355:2364   */\n      dup9\n        /* \"#utility.yul\":2351:2373   */\n      add\n        /* \"#utility.yul\":2330:2383   */\n      tag_65\n      jump\t// in\n    tag_89:\n        /* \"#utility.yul\":2320:2383   */\n      swap3\n      pop\n        /* \"#utility.yul\":2275:2393   */\n      pop\n        /* \"#utility.yul\":2432:2434   */\n      0x60\n        /* \"#utility.yul\":2458:2511   */\n      tag_90\n        /* \"#utility.yul\":2503:2510   */\n      dup8\n        /* \"#utility.yul\":2494:2500   */\n      dup3\n        /* \"#utility.yul\":2483:2492   */\n      dup9\n        /* \"#utility.yul\":2479:2501   */\n      add\n        /* \"#utility.yul\":2458:2511   */\n      tag_58\n      jump\t// in\n    tag_90:\n        /* \"#utility.yul\":2448:2511   */\n      swap2\n      pop\n        /* \"#utility.yul\":2403:2521   */\n      pop\n        /* \"#utility.yul\":1763:2528   */\n      swap3\n      swap6\n      swap2\n      swap5\n      pop\n      swap3\n      pop\n      jump\t// out\n        /* \"#utility.yul\":2534:2652   */\n    tag_91:\n        /* \"#utility.yul\":2621:2645   */\n      tag_93\n        /* \"#utility.yul\":2639:2644   */\n      dup2\n        /* \"#utility.yul\":2621:2645   */\n      tag_94\n      jump\t// in\n    tag_93:\n        /* \"#utility.yul\":2616:2619   */\n      dup3\n        /* \"#utility.yul\":2609:2646   */\n      mstore\n        /* \"#utility.yul\":2534:2652   */\n      pop\n      pop\n      jump\t// out\n        /* \"#utility.yul\":2658:2819   */\n    tag_95:\n        /* \"#utility.yul\":2760:2812   */\n      tag_97\n        /* \"#utility.yul\":2806:2811   */\n      dup2\n        /* \"#utility.yul\":2760:2812   */\n      tag_98\n      jump\t// in\n    tag_97:\n        /* \"#utility.yul\":2755:2758   */\n      dup3\n        /* \"#utility.yul\":2748:2813   */\n      mstore\n        /* \"#utility.yul\":2658:2819   */\n      pop\n      pop\n      jump\t// out\n        /* \"#utility.yul\":2825:3191   */\n    tag_99:\n        /* \"#utility.yul\":2967:2970   */\n      0x00\n        /* \"#utility.yul\":2988:3055   */\n      tag_101\n        /* \"#utility.yul\":3052:3054   */\n      0x1d\n        /* \"#utility.yul\":3047:3050   */\n      dup4\n        /* \"#utility.yul\":2988:3055   */\n      tag_102\n      jump\t// in\n    tag_101:\n        /* \"#utility.yul\":2981:3055   */\n      swap2\n      pop\n        /* \"#utility.yul\":3064:3157   */\n      tag_103\n        /* \"#utility.yul\":3153:3156   */\n      dup3\n        /* \"#utility.yul\":3064:3157   */\n      tag_104\n      jump\t// in\n    tag_103:\n        /* \"#utility.yul\":3182:3184   */\n      0x20\n        /* \"#utility.yul\":3177:3180   */\n      dup3\n        /* \"#utility.yul\":3173:3185   */\n      add\n        /* \"#utility.yul\":3166:3185   */\n      swap1\n      pop\n        /* \"#utility.yul\":2825:3191   */\n      swap2\n      swap1\n      pop\n      jump\t// out\n        /* \"#utility.yul\":3197:3563   */\n    tag_105:\n        /* \"#utility.yul\":3339:3342   */\n      0x00\n        /* \"#utility.yul\":3360:3427   */\n      tag_107\n        /* \"#utility.yul\":3424:3426   */\n      0x16\n        /* \"#utility.yul\":3419:3422   */\n      dup4\n        /* \"#utility.yul\":3360:3427   */\n      tag_102\n      jump\t// in\n    tag_107:\n        /* \"#utility.yul\":3353:3427   */\n      swap2\n      pop\n        /* \"#utility.yul\":3436:3529   */\n      tag_108\n        /* \"#utility.yul\":3525:3528   */\n      dup3\n        /* \"#utility.yul\":3436:3529   */\n      tag_109\n      jump\t// in\n    tag_108:\n        /* \"#utility.yul\":3554:3556   */\n      0x20\n        /* \"#utility.yul\":3549:3552   */\n      dup3\n        /* \"#utility.yul\":3545:3557   */\n      add\n        /* \"#utility.yul\":3538:3557   */\n      swap1\n      pop\n        /* \"#utility.yul\":3197:3563   */\n      swap2\n      swap1\n      pop\n      jump\t// out\n        /* \"#utility.yul\":3569:3935   */\n    tag_110:\n        /* \"#utility.yul\":3711:3714   */\n      0x00\n        /* \"#utility.yul\":3732:3799   */\n      tag_112\n        /* \"#utility.yul\":3796:3798   */\n      0x20\n        /* \"#utility.yul\":3791:3794   */\n      dup4\n        /* \"#utility.yul\":3732:3799   */\n      tag_102\n      jump\t// in\n    tag_112:\n        /* \"#utility.yul\":3725:3799   */\n      swap2\n      pop\n        /* \"#utility.yul\":3808:3901   */\n      tag_113\n        /* \"#utility.yul\":3897:3900   */\n      dup3\n        /* \"#utility.yul\":3808:3901   */\n      tag_114\n      jump\t// in\n    tag_113:\n        /* \"#utility.yul\":3926:3928   */\n      0x20\n        /* \"#utility.yul\":3921:3924   */\n      dup3\n        /* \"#utility.yul\":3917:3929   */\n      add\n        /* \"#utility.yul\":3910:3929   */\n      swap1\n      pop\n        /* \"#utility.yul\":3569:3935   */\n      swap2\n      swap1\n      pop\n      jump\t// out\n        /* \"#utility.yul\":3941:4059   */\n    tag_115:\n        /* \"#utility.yul\":4028:4052   */\n      tag_117\n        /* \"#utility.yul\":4046:4051   */\n      dup2\n        /* \"#utility.yul\":4028:4052   */\n      tag_118\n      jump\t// in\n    tag_117:\n        /* \"#utility.yul\":4023:4026   */\n      dup3\n        /* \"#utility.yul\":4016:4053   */\n      mstore\n        /* \"#utility.yul\":3941:4059   */\n      pop\n      pop\n      jump\t// out\n        /* \"#utility.yul\":4065:4287   */\n    tag_15:\n        /* \"#utility.yul\":4158:4162   */\n      0x00\n        /* \"#utility.yul\":4196:4198   */\n      0x20\n        /* \"#utility.yul\":4185:4194   */\n      dup3\n        /* \"#utility.yul\":4181:4199   */\n      add\n        /* \"#utility.yul\":4173:4199   */\n      swap1\n      pop\n        /* \"#utility.yul\":4209:4280   */\n      tag_120\n        /* \"#utility.yul\":4277:4278   */\n      0x00\n        /* \"#utility.yul\":4266:4275   */\n      dup4\n        /* \"#utility.yul\":4262:4279   */\n      add\n        /* \"#utility.yul\":4253:4259   */\n      dup5\n        /* \"#utility.yul\":4209:4280   */\n      tag_91\n      jump\t// in\n    tag_120:\n        /* \"#utility.yul\":4065:4287   */\n      swap3\n      swap2\n      pop\n      pop\n      jump\t// out\n        /* \"#utility.yul\":4293:4735   */\n    tag_42:\n        /* \"#utility.yul\":4442:4446   */\n      0x00\n        /* \"#utility.yul\":4480:4482   */\n      0x60\n        /* \"#utility.yul\":4469:4478   */\n      dup3\n        /* \"#utility.yul\":4465:4483   */\n      add\n        /* \"#utility.yul\":4457:4483   */\n      swap1\n      pop\n        /* \"#utility.yul\":4493:4564   */\n      tag_122\n        /* \"#utility.yul\":4561:4562   */\n      0x00\n        /* \"#utility.yul\":4550:4559   */\n      dup4\n        /* \"#utility.yul\":4546:4563   */\n      add\n        /* \"#utility.yul\":4537:4543   */\n      dup7\n        /* \"#utility.yul\":4493:4564   */\n      tag_91\n      jump\t// in\n    tag_122:\n        /* \"#utility.yul\":4574:4646   */\n      tag_123\n        /* \"#utility.yul\":4642:4644   */\n      0x20\n        /* \"#utility.yul\":4631:4640   */\n      dup4\n        /* \"#utility.yul\":4627:4645   */\n      add\n        /* \"#utility.yul\":4618:4624   */\n      dup6\n        /* \"#utility.yul\":4574:4646   */\n      tag_91\n      jump\t// in\n    tag_123:\n        /* \"#utility.yul\":4656:4728   */\n      tag_124\n        /* \"#utility.yul\":4724:4726   */\n      0x40\n        /* \"#utility.yul\":4713:4722   */\n      dup4\n        /* \"#utility.yul\":4709:4727   */\n      add\n        /* \"#utility.yul\":4700:4706   */\n      dup5\n        /* \"#utility.yul\":4656:4728   */\n      tag_115\n      jump\t// in\n    tag_124:\n        /* \"#utility.yul\":4293:4735   */\n      swap5\n      swap4\n      pop\n      pop\n      pop\n      pop\n      jump\t// out\n        /* \"#utility.yul\":4741:4993   */\n    tag_29:\n        /* \"#utility.yul\":4849:4853   */\n      0x00\n        /* \"#utility.yul\":4887:4889   */\n      0x20\n        /* \"#utility.yul\":4876:4885   */\n      dup3\n        /* \"#utility.yul\":4872:4890   */\n      add\n        /* \"#utility.yul\":4864:4890   */\n      swap1\n      pop\n        /* \"#utility.yul\":4900:4986   */\n      tag_126\n        /* \"#utility.yul\":4983:4984   */\n      0x00\n        /* \"#utility.yul\":4972:4981   */\n      dup4\n        /* \"#utility.yul\":4968:4985   */\n      add\n        /* \"#utility.yul\":4959:4965   */\n      dup5\n        /* \"#utility.yul\":4900:4986   */\n      tag_95\n      jump\t// in\n    tag_126:\n        /* \"#utility.yul\":4741:4993   */\n      swap3\n      swap2\n      pop\n      pop\n      jump\t// out\n        /* \"#utility.yul\":4999:5418   */\n    tag_52:\n        /* \"#utility.yul\":5165:5169   */\n      0x00\n        /* \"#utility.yul\":5203:5205   */\n      0x20\n        /* \"#utility.yul\":5192:5201   */\n      dup3\n        /* \"#utility.yul\":5188:5206   */\n      add\n        /* \"#utility.yul\":5180:5206   */\n      swap1\n      pop\n        /* \"#utility.yul\":5252:5261   */\n      dup2\n        /* \"#utility.yul\":5246:5250   */\n      dup2\n        /* \"#utility.yul\":5242:5262   */\n      sub\n        /* \"#utility.yul\":5238:5239   */\n      0x00\n        /* \"#utility.yul\":5227:5236   */\n      dup4\n        /* \"#utility.yul\":5223:5240   */\n      add\n        /* \"#utility.yul\":5216:5263   */\n      mstore\n        /* \"#utility.yul\":5280:5411   */\n      tag_128\n        /* \"#utility.yul\":5406:5410   */\n      dup2\n        /* \"#utility.yul\":5280:5411   */\n      tag_99\n      jump\t// in\n    tag_128:\n        /* \"#utility.yul\":5272:5411   */\n      swap1\n      pop\n        /* \"#utility.yul\":4999:5418   */\n      swap2\n      swap1\n      pop\n      jump\t// out\n        /* \"#utility.yul\":5424:5843   */\n    tag_40:\n        /* \"#utility.yul\":5590:5594   */\n      0x00\n        /* \"#utility.yul\":5628:5630   */\n      0x20\n        /* \"#utility.yul\":5617:5626   */\n      dup3\n        /* \"#utility.yul\":5613:5631   */\n      add\n        /* \"#utility.yul\":5605:5631   */\n      swap1\n      pop\n        /* \"#utility.yul\":5677:5686   */\n      dup2\n        /* \"#utility.yul\":5671:5675   */\n      dup2\n        /* \"#utility.yul\":5667:5687   */\n      sub\n        /* \"#utility.yul\":5663:5664   */\n      0x00\n        /* \"#utility.yul\":5652:5661   */\n      dup4\n        /* \"#utility.yul\":5648:5665   */\n      add\n        /* \"#utility.yul\":5641:5688   */\n      mstore\n        /* \"#utility.yul\":5705:5836   */\n      tag_130\n        /* \"#utility.yul\":5831:5835   */\n      dup2\n        /* \"#utility.yul\":5705:5836   */\n      tag_105\n      jump\t// in\n    tag_130:\n        /* \"#utility.yul\":5697:5836   */\n      swap1\n      pop\n        /* \"#utility.yul\":5424:5843   */\n      swap2\n      swap1\n      pop\n      jump\t// out\n        /* \"#utility.yul\":5849:6268   */\n    tag_49:\n        /* \"#utility.yul\":6015:6019   */\n      0x00\n        /* \"#utility.yul\":6053:6055   */\n      0x20\n        /* \"#utility.yul\":6042:6051   */\n      dup3\n        /* \"#utility.yul\":6038:6056   */\n      add\n        /* \"#utility.yul\":6030:6056   */\n      swap1\n      pop\n        /* \"#utility.yul\":6102:6111   */\n      dup2\n        /* \"#utility.yul\":6096:6100   */\n      dup2\n        /* \"#utility.yul\":6092:6112   */\n      sub\n        /* \"#utility.yul\":6088:6089   */\n      0x00\n        /* \"#utility.yul\":6077:6086   */\n      dup4\n        /* \"#utility.yul\":6073:6090   */\n      add\n        /* \"#utility.yul\":6066:6113   */\n      mstore\n        /* \"#utility.yul\":6130:6261   */\n      tag_132\n        /* \"#utility.yul\":6256:6260   */\n      dup2\n        /* \"#utility.yul\":6130:6261   */\n      tag_110\n      jump\t// in\n    tag_132:\n        /* \"#utility.yul\":6122:6261   */\n      swap1\n      pop\n        /* \"#utility.yul\":5849:6268   */\n      swap2\n      swap1\n      pop\n      jump\t// out\n        /* \"#utility.yul\":6274:6496   */\n    tag_32:\n        /* \"#utility.yul\":6367:6371   */\n      0x00\n        /* \"#utility.yul\":6405:6407   */\n      0x20\n        /* \"#utility.yul\":6394:6403   */\n      dup3\n        /* \"#utility.yul\":6390:6408   */\n      add\n        /* \"#utility.yul\":6382:6408   */\n      swap1\n      pop\n        /* \"#utility.yul\":6418:6489   */\n      tag_134\n        /* \"#utility.yul\":6486:6487   */\n      0x00\n        /* \"#utility.yul\":6475:6484   */\n      dup4\n        /* \"#utility.yul\":6471:6488   */\n      add\n        /* \"#utility.yul\":6462:6468   */\n      dup5\n        /* \"#utility.yul\":6418:6489   */\n      tag_115\n      jump\t// in\n    tag_134:\n        /* \"#utility.yul\":6274:6496   */\n      swap3\n      swap2\n      pop\n      pop\n      jump\t// out\n        /* \"#utility.yul\":6502:6834   */\n    tag_21:\n        /* \"#utility.yul\":6623:6627   */\n      0x00\n        /* \"#utility.yul\":6661:6663   */\n      0x40\n        /* \"#utility.yul\":6650:6659   */\n      dup3\n        /* \"#utility.yul\":6646:6664   */\n      add\n        /* \"#utility.yul\":6638:6664   */\n      swap1\n      pop\n        /* \"#utility.yul\":6674:6745   */\n      tag_136\n        /* \"#utility.yul\":6742:6743   */\n      0x00\n        /* \"#utility.yul\":6731:6740   */\n      dup4\n        /* \"#utility.yul\":6727:6744   */\n      add\n        /* \"#utility.yul\":6718:6724   */\n      dup6\n        /* \"#utility.yul\":6674:6745   */\n      tag_115\n      jump\t// in\n    tag_136:\n        /* \"#utility.yul\":6755:6827   */\n      tag_137\n        /* \"#utility.yul\":6823:6825   */\n      0x20\n        /* \"#utility.yul\":6812:6821   */\n      dup4\n        /* \"#utility.yul\":6808:6826   */\n      add\n        /* \"#utility.yul\":6799:6805   */\n      dup5\n        /* \"#utility.yul\":6755:6827   */\n      tag_115\n      jump\t// in\n    tag_137:\n        /* \"#utility.yul\":6502:6834   */\n      swap4\n      swap3\n      pop\n      pop\n      pop\n      jump\t// out\n        /* \"#utility.yul\":6921:7090   */\n    tag_102:\n        /* \"#utility.yul\":7005:7016   */\n      0x00\n        /* \"#utility.yul\":7039:7045   */\n      dup3\n        /* \"#utility.yul\":7034:7037   */\n      dup3\n        /* \"#utility.yul\":7027:7046   */\n      mstore\n        /* \"#utility.yul\":7079:7083   */\n      0x20\n        /* \"#utility.yul\":7074:7077   */\n      dup3\n        /* \"#utility.yul\":7070:7084   */\n      add\n        /* \"#utility.yul\":7055:7084   */\n      swap1\n      pop\n        /* \"#utility.yul\":6921:7090   */\n      swap3\n      swap2\n      pop\n      pop\n      jump\t// out\n        /* \"#utility.yul\":7096:7192   */\n    tag_94:\n        /* \"#utility.yul\":7133:7140   */\n      0x00\n        /* \"#utility.yul\":7162:7186   */\n      tag_142\n        /* \"#utility.yul\":7180:7185   */\n      dup3\n        /* \"#utility.yul\":7162:7186   */\n      tag_143\n      jump\t// in\n    tag_142:\n        /* \"#utility.yul\":7151:7186   */\n      swap1\n      pop\n        /* \"#utility.yul\":7096:7192   */\n      swap2\n      swap1\n      pop\n      jump\t// out\n        /* \"#utility.yul\":7198:7324   */\n    tag_143:\n        /* \"#utility.yul\":7235:7242   */\n      0x00\n        /* \"#utility.yul\":7275:7317   */\n      0xffffffffffffffffffffffffffffffffffffffff\n        /* \"#utility.yul\":7268:7273   */\n      dup3\n        /* \"#utility.yul\":7264:7318   */\n      and\n        /* \"#utility.yul\":7253:7318   */\n      swap1\n      pop\n        /* \"#utility.yul\":7198:7324   */\n      swap2\n      swap1\n      pop\n      jump\t// out\n        /* \"#utility.yul\":7330:7407   */\n    tag_118:\n        /* \"#utility.yul\":7367:7374   */\n      0x00\n        /* \"#utility.yul\":7396:7401   */\n      dup2\n        /* \"#utility.yul\":7385:7401   */\n      swap1\n      pop\n        /* \"#utility.yul\":7330:7407   */\n      swap2\n      swap1\n      pop\n      jump\t// out\n        /* \"#utility.yul\":7413:7554   */\n    tag_98:\n        /* \"#utility.yul\":7478:7487   */\n      0x00\n        /* \"#utility.yul\":7511:7548   */\n      tag_147\n        /* \"#utility.yul\":7542:7547   */\n      dup3\n        /* \"#utility.yul\":7511:7548   */\n      tag_148\n      jump\t// in\n    tag_147:\n        /* \"#utility.yul\":7498:7548   */\n      swap1\n      pop\n        /* \"#utility.yul\":7413:7554   */\n      swap2\n      swap1\n      pop\n      jump\t// out\n        /* \"#utility.yul\":7560:7686   */\n    tag_148:\n        /* \"#utility.yul\":7610:7619   */\n      0x00\n        /* \"#utility.yul\":7643:7680   */\n      tag_150\n        /* \"#utility.yul\":7674:7679   */\n      dup3\n        /* \"#utility.yul\":7643:7680   */\n      tag_151\n      jump\t// in\n    tag_150:\n        /* \"#utility.yul\":7630:7680   */\n      swap1\n      pop\n        /* \"#utility.yul\":7560:7686   */\n      swap2\n      swap1\n      pop\n      jump\t// out\n        /* \"#utility.yul\":7692:7805   */\n    tag_151:\n        /* \"#utility.yul\":7742:7751   */\n      0x00\n        /* \"#utility.yul\":7775:7799   */\n      tag_153\n        /* \"#utility.yul\":7793:7798   */\n      dup3\n        /* \"#utility.yul\":7775:7799   */\n      tag_143\n      jump\t// in\n    tag_153:\n        /* \"#utility.yul\":7762:7799   */\n      swap1\n      pop\n        /* \"#utility.yul\":7692:7805   */\n      swap2\n      swap1\n      pop\n      jump\t// out\n        /* \"#utility.yul\":7934:8051   */\n    tag_72:\n        /* \"#utility.yul\":8043:8044   */\n      0x00\n        /* \"#utility.yul\":8040:8041   */\n      dup1\n        /* \"#utility.yul\":8033:8045   */\n      revert\n        /* \"#utility.yul\":8057:8236   */\n    tag_104:\n        /* \"#utility.yul\":8197:8228   */\n      0x596f7572204e4654206c6f616e20686173206f7574206f662064617465000000\n        /* \"#utility.yul\":8193:8194   */\n      0x00\n        /* \"#utility.yul\":8185:8191   */\n      dup3\n        /* \"#utility.yul\":8181:8195   */\n      add\n        /* \"#utility.yul\":8174:8229   */\n      mstore\n        /* \"#utility.yul\":8057:8236   */\n      pop\n      jump\t// out\n        /* \"#utility.yul\":8242:8414   */\n    tag_109:\n        /* \"#utility.yul\":8382:8406   */\n      0x596f7520646f6e2774206f776e2074686973204e465400000000000000000000\n        /* \"#utility.yul\":8378:8379   */\n      0x00\n        /* \"#utility.yul\":8370:8376   */\n      dup3\n        /* \"#utility.yul\":8366:8380   */\n      add\n        /* \"#utility.yul\":8359:8407   */\n      mstore\n        /* \"#utility.yul\":8242:8414   */\n      pop\n      jump\t// out\n        /* \"#utility.yul\":8420:8602   */\n    tag_114:\n        /* \"#utility.yul\":8560:8594   */\n      0x596f7520646f6e2774206861766520616e79204e4654206465706f7369746564\n        /* \"#utility.yul\":8556:8557   */\n      0x00\n        /* \"#utility.yul\":8548:8554   */\n      dup3\n        /* \"#utility.yul\":8544:8558   */\n      add\n        /* \"#utility.yul\":8537:8595   */\n      mstore\n        /* \"#utility.yul\":8420:8602   */\n      pop\n      jump\t// out\n        /* \"#utility.yul\":8608:8730   */\n    tag_61:\n        /* \"#utility.yul\":8681:8705   */\n      tag_161\n        /* \"#utility.yul\":8699:8704   */\n      dup2\n        /* \"#utility.yul\":8681:8705   */\n      tag_94\n      jump\t// in\n    tag_161:\n        /* \"#utility.yul\":8674:8679   */\n      dup2\n        /* \"#utility.yul\":8671:8706   */\n      eq\n        /* \"#utility.yul\":8661:8724   */\n      tag_162\n      jumpi\n        /* \"#utility.yul\":8720:8721   */\n      0x00\n        /* \"#utility.yul\":8717:8718   */\n      dup1\n        /* \"#utility.yul\":8710:8722   */\n      revert\n        /* \"#utility.yul\":8661:8724   */\n    tag_162:\n        /* \"#utility.yul\":8608:8730   */\n      pop\n      jump\t// out\n        /* \"#utility.yul\":8736:8858   */\n    tag_68:\n        /* \"#utility.yul\":8809:8833   */\n      tag_164\n        /* \"#utility.yul\":8827:8832   */\n      dup2\n        /* \"#utility.yul\":8809:8833   */\n      tag_118\n      jump\t// in\n    tag_164:\n        /* \"#utility.yul\":8802:8807   */\n      dup2\n        /* \"#utility.yul\":8799:8834   */\n      eq\n        /* \"#utility.yul\":8789:8852   */\n      tag_165\n      jumpi\n        /* \"#utility.yul\":8848:8849   */\n      0x00\n        /* \"#utility.yul\":8845:8846   */\n      dup1\n        /* \"#utility.yul\":8838:8850   */\n      revert\n        /* \"#utility.yul\":8789:8852   */\n    tag_165:\n        /* \"#utility.yul\":8736:8858   */\n      pop\n      jump\t// out\n\n    auxdata: 0xa26469706673582212207a8adee8e4b6ef072b5063e628394aed52a8cc873b0001e91630c61e4b304f6564736f6c63430008070033\n}\n",
				"bytecode": {
					"linkReferences": {},
					"object": "60806040523480156200001157600080fd5b5060405162000cb338038062000cb38339818101604052810190620000379190620000b4565b816000806101000a81548173ffffffffffffffffffffffffffffffffffffffff021916908373ffffffffffffffffffffffffffffffffffffffff16021790555080600181905550505062000172565b60008151905062000097816200013e565b92915050565b600081519050620000ae8162000158565b92915050565b60008060408385031215620000ce57620000cd62000139565b5b6000620000de8582860162000086565b9250506020620000f1858286016200009d565b9150509250929050565b600062000108826200010f565b9050919050565b600073ffffffffffffffffffffffffffffffffffffffff82169050919050565b6000819050919050565b600080fd5b6200014981620000fb565b81146200015557600080fd5b50565b62000163816200012f565b81146200016f57600080fd5b50565b610b3180620001826000396000f3fe608060405234801561001057600080fd5b50600436106100575760003560e01c80632000109e1461005c5780638da5cb5b1461007857806398c61c3714610096578063c1d2d00d146100c7578063d56d229d146100e3575b600080fd5b610076600480360381019061007191906107bc565b610101565b005b6100806103a1565b60405161008d91906108b9565b60405180910390f35b6100b060048036038101906100ab919061073c565b6103c5565b6040516100be9291906109a1565b60405180910390f35b6100e160048036038101906100dc919061077c565b6103f6565b005b6100eb6106aa565b6040516100f8919061090b565b60405180910390f35b3373ffffffffffffffffffffffffffffffffffffffff16600260009054906101000a900473ffffffffffffffffffffffffffffffffffffffff1673ffffffffffffffffffffffffffffffffffffffff16636352211e866040518263ffffffff1660e01b81526004016101739190610986565b60206040518083038186803b15801561018b57600080fd5b505afa15801561019f573d6000803e3d6000fd5b505050506040513d601f19601f820116820180604052508101906101c3919061070f565b73ffffffffffffffffffffffffffffffffffffffff1614610219576040517f08c379a000000000000000000000000000000000000000000000000000000000815260040161021090610946565b60405180910390fd5b82600360003373ffffffffffffffffffffffffffffffffffffffff1673ffffffffffffffffffffffffffffffffffffffff16815260200190815260200160002060008681526020019081526020016000206000018190555081600360003373ffffffffffffffffffffffffffffffffffffffff1673ffffffffffffffffffffffffffffffffffffffff16815260200190815260200160002060008681526020019081526020016000206001018190555080600260006101000a81548173ffffffffffffffffffffffffffffffffffffffff021916908373ffffffffffffffffffffffffffffffffffffffff160217905550600260009054906101000a900473ffffffffffffffffffffffffffffffffffffffff1673ffffffffffffffffffffffffffffffffffffffff166323b872dd3330876040518463ffffffff1660e01b8152600401610369939291906108d4565b600060405180830381600087803b15801561038357600080fd5b505af1158015610397573d6000803e3d6000fd5b5050505050505050565b60008054906101000a900473ffffffffffffffffffffffffffffffffffffffff1681565b6003602052816000526040600020602052806000526040600020600091509150508060000154908060010154905082565b6000600360003373ffffffffffffffffffffffffffffffffffffffff1673ffffffffffffffffffffffffffffffffffffffff168152602001908152602001600020600084815260200190815260200160002060000154141561048d576040517f08c379a000000000000000000000000000000000000000000000000000000000815260040161048490610966565b60405180910390fd5b42600360003373ffffffffffffffffffffffffffffffffffffffff1673ffffffffffffffffffffffffffffffffffffffff16815260200190815260200160002060008481526020019081526020016000206001015410610522576040517f08c379a000000000000000000000000000000000000000000000000000000000815260040161051990610926565b60405180910390fd5b80600260006101000a81548173ffffffffffffffffffffffffffffffffffffffff021916908373ffffffffffffffffffffffffffffffffffffffff1602179055506000600360003373ffffffffffffffffffffffffffffffffffffffff1673ffffffffffffffffffffffffffffffffffffffff1681526020019081526020016000206000848152602001908152602001600020600001819055506000600360003373ffffffffffffffffffffffffffffffffffffffff1673ffffffffffffffffffffffffffffffffffffffff168152602001908152602001600020600084815260200190815260200160002060010181905550600260009054906101000a900473ffffffffffffffffffffffffffffffffffffffff1673ffffffffffffffffffffffffffffffffffffffff166323b872dd3033856040518463ffffffff1660e01b8152600401610674939291906108d4565b600060405180830381600087803b15801561068e57600080fd5b505af11580156106a2573d6000803e3d6000fd5b505050505050565b600260009054906101000a900473ffffffffffffffffffffffffffffffffffffffff1681565b6000813590506106df81610acd565b92915050565b6000815190506106f481610acd565b92915050565b60008135905061070981610ae4565b92915050565b60006020828403121561072557610724610a4d565b5b6000610733848285016106e5565b91505092915050565b6000806040838503121561075357610752610a4d565b5b6000610761858286016106d0565b9250506020610772858286016106fa565b9150509250929050565b6000806040838503121561079357610792610a4d565b5b60006107a1858286016106fa565b92505060206107b2858286016106d0565b9150509250929050565b600080600080608085870312156107d6576107d5610a4d565b5b60006107e4878288016106fa565b94505060206107f5878288016106fa565b9350506040610806878288016106fa565b9250506060610817878288016106d0565b91505092959194509250565b61082c816109db565b82525050565b61083b81610a17565b82525050565b600061084e601d836109ca565b915061085982610a52565b602082019050919050565b60006108716016836109ca565b915061087c82610a7b565b602082019050919050565b60006108946020836109ca565b915061089f82610aa4565b602082019050919050565b6108b381610a0d565b82525050565b60006020820190506108ce6000830184610823565b92915050565b60006060820190506108e96000830186610823565b6108f66020830185610823565b61090360408301846108aa565b949350505050565b60006020820190506109206000830184610832565b92915050565b6000602082019050818103600083015261093f81610841565b9050919050565b6000602082019050818103600083015261095f81610864565b9050919050565b6000602082019050818103600083015261097f81610887565b9050919050565b600060208201905061099b60008301846108aa565b92915050565b60006040820190506109b660008301856108aa565b6109c360208301846108aa565b9392505050565b600082825260208201905092915050565b60006109e6826109ed565b9050919050565b600073ffffffffffffffffffffffffffffffffffffffff82169050919050565b6000819050919050565b6000610a2282610a29565b9050919050565b6000610a3482610a3b565b9050919050565b6000610a46826109ed565b9050919050565b600080fd5b7f596f7572204e4654206c6f616e20686173206f7574206f662064617465000000600082015250565b7f596f7520646f6e2774206f776e2074686973204e465400000000000000000000600082015250565b7f596f7520646f6e2774206861766520616e79204e4654206465706f7369746564600082015250565b610ad6816109db565b8114610ae157600080fd5b50565b610aed81610a0d565b8114610af857600080fd5b5056fea26469706673582212207a8adee8e4b6ef072b5063e628394aed52a8cc873b0001e91630c61e4b304f6564736f6c63430008070033",
					"opcodes": "PUSH1 0x80 PUSH1 0x40 MSTORE CALLVALUE DUP1 ISZERO PUSH3 0x11 JUMPI PUSH1 0x0 DUP1 REVERT JUMPDEST POP PUSH1 0x40 MLOAD PUSH3 0xCB3 CODESIZE SUB DUP1 PUSH3 0xCB3 DUP4 CODECOPY DUP2 DUP2 ADD PUSH1 0x40 MSTORE DUP2 ADD SWAP1 PUSH3 0x37 SWAP2 SWAP1 PUSH3 0xB4 JUMP JUMPDEST DUP2 PUSH1 0x0 DUP1 PUSH2 0x100 EXP DUP2 SLOAD DUP2 PUSH20 0xFFFFFFFFFFFFFFFFFFFFFFFFFFFFFFFFFFFFFFFF MUL NOT AND SWAP1 DUP4 PUSH20 0xFFFFFFFFFFFFFFFFFFFFFFFFFFFFFFFFFFFFFFFF AND MUL OR SWAP1 SSTORE POP DUP1 PUSH1 0x1 DUP2 SWAP1 SSTORE POP POP POP PUSH3 0x172 JUMP JUMPDEST PUSH1 0x0 DUP2 MLOAD SWAP1 POP PUSH3 0x97 DUP2 PUSH3 0x13E JUMP JUMPDEST SWAP3 SWAP2 POP POP JUMP JUMPDEST PUSH1 0x0 DUP2 MLOAD SWAP1 POP PUSH3 0xAE DUP2 PUSH3 0x158 JUMP JUMPDEST SWAP3 SWAP2 POP POP JUMP JUMPDEST PUSH1 0x0 DUP1 PUSH1 0x40 DUP4 DUP6 SUB SLT ISZERO PUSH3 0xCE JUMPI PUSH3 0xCD PUSH3 0x139 JUMP JUMPDEST JUMPDEST PUSH1 0x0 PUSH3 0xDE DUP6 DUP3 DUP7 ADD PUSH3 0x86 JUMP JUMPDEST SWAP3 POP POP PUSH1 0x20 PUSH3 0xF1 DUP6 DUP3 DUP7 ADD PUSH3 0x9D JUMP JUMPDEST SWAP2 POP POP SWAP3 POP SWAP3 SWAP1 POP JUMP JUMPDEST PUSH1 0x0 PUSH3 0x108 DUP3 PUSH3 0x10F JUMP JUMPDEST SWAP1 POP SWAP2 SWAP1 POP JUMP JUMPDEST PUSH1 0x0 PUSH20 0xFFFFFFFFFFFFFFFFFFFFFFFFFFFFFFFFFFFFFFFF DUP3 AND SWAP1 POP SWAP2 SWAP1 POP JUMP JUMPDEST PUSH1 0x0 DUP2 SWAP1 POP SWAP2 SWAP1 POP JUMP JUMPDEST PUSH1 0x0 DUP1 REVERT JUMPDEST PUSH3 0x149 DUP2 PUSH3 0xFB JUMP JUMPDEST DUP2 EQ PUSH3 0x155 JUMPI PUSH1 0x0 DUP1 REVERT JUMPDEST POP JUMP JUMPDEST PUSH3 0x163 DUP2 PUSH3 0x12F JUMP JUMPDEST DUP2 EQ PUSH3 0x16F JUMPI PUSH1 0x0 DUP1 REVERT JUMPDEST POP JUMP JUMPDEST PUSH2 0xB31 DUP1 PUSH3 0x182 PUSH1 0x0 CODECOPY PUSH1 0x0 RETURN INVALID PUSH1 0x80 PUSH1 0x40 MSTORE CALLVALUE DUP1 ISZERO PUSH2 0x10 JUMPI PUSH1 0x0 DUP1 REVERT JUMPDEST POP PUSH1 0x4 CALLDATASIZE LT PUSH2 0x57 JUMPI PUSH1 0x0 CALLDATALOAD PUSH1 0xE0 SHR DUP1 PUSH4 0x2000109E EQ PUSH2 0x5C JUMPI DUP1 PUSH4 0x8DA5CB5B EQ PUSH2 0x78 JUMPI DUP1 PUSH4 0x98C61C37 EQ PUSH2 0x96 JUMPI DUP1 PUSH4 0xC1D2D00D EQ PUSH2 0xC7 JUMPI DUP1 PUSH4 0xD56D229D EQ PUSH2 0xE3 JUMPI JUMPDEST PUSH1 0x0 DUP1 REVERT JUMPDEST PUSH2 0x76 PUSH1 0x4 DUP1 CALLDATASIZE SUB DUP2 ADD SWAP1 PUSH2 0x71 SWAP2 SWAP1 PUSH2 0x7BC JUMP JUMPDEST PUSH2 0x101 JUMP JUMPDEST STOP JUMPDEST PUSH2 0x80 PUSH2 0x3A1 JUMP JUMPDEST PUSH1 0x40 MLOAD PUSH2 0x8D SWAP2 SWAP1 PUSH2 0x8B9 JUMP JUMPDEST PUSH1 0x40 MLOAD DUP1 SWAP2 SUB SWAP1 RETURN JUMPDEST PUSH2 0xB0 PUSH1 0x4 DUP1 CALLDATASIZE SUB DUP2 ADD SWAP1 PUSH2 0xAB SWAP2 SWAP1 PUSH2 0x73C JUMP JUMPDEST PUSH2 0x3C5 JUMP JUMPDEST PUSH1 0x40 MLOAD PUSH2 0xBE SWAP3 SWAP2 SWAP1 PUSH2 0x9A1 JUMP JUMPDEST PUSH1 0x40 MLOAD DUP1 SWAP2 SUB SWAP1 RETURN JUMPDEST PUSH2 0xE1 PUSH1 0x4 DUP1 CALLDATASIZE SUB DUP2 ADD SWAP1 PUSH2 0xDC SWAP2 SWAP1 PUSH2 0x77C JUMP JUMPDEST PUSH2 0x3F6 JUMP JUMPDEST STOP JUMPDEST PUSH2 0xEB PUSH2 0x6AA JUMP JUMPDEST PUSH1 0x40 MLOAD PUSH2 0xF8 SWAP2 SWAP1 PUSH2 0x90B JUMP JUMPDEST PUSH1 0x40 MLOAD DUP1 SWAP2 SUB SWAP1 RETURN JUMPDEST CALLER PUSH20 0xFFFFFFFFFFFFFFFFFFFFFFFFFFFFFFFFFFFFFFFF AND PUSH1 0x2 PUSH1 0x0 SWAP1 SLOAD SWAP1 PUSH2 0x100 EXP SWAP1 DIV PUSH20 0xFFFFFFFFFFFFFFFFFFFFFFFFFFFFFFFFFFFFFFFF AND PUSH20 0xFFFFFFFFFFFFFFFFFFFFFFFFFFFFFFFFFFFFFFFF AND PUSH4 0x6352211E DUP7 PUSH1 0x40 MLOAD DUP3 PUSH4 0xFFFFFFFF AND PUSH1 0xE0 SHL DUP2 MSTORE PUSH1 0x4 ADD PUSH2 0x173 SWAP2 SWAP1 PUSH2 0x986 JUMP JUMPDEST PUSH1 0x20 PUSH1 0x40 MLOAD DUP1 DUP4 SUB DUP2 DUP7 DUP1 EXTCODESIZE ISZERO DUP1 ISZERO PUSH2 0x18B JUMPI PUSH1 0x0 DUP1 REVERT JUMPDEST POP GAS STATICCALL ISZERO DUP1 ISZERO PUSH2 0x19F JUMPI RETURNDATASIZE PUSH1 0x0 DUP1 RETURNDATACOPY RETURNDATASIZE PUSH1 0x0 REVERT JUMPDEST POP POP POP POP PUSH1 0x40 MLOAD RETURNDATASIZE PUSH1 0x1F NOT PUSH1 0x1F DUP3 ADD AND DUP3 ADD DUP1 PUSH1 0x40 MSTORE POP DUP2 ADD SWAP1 PUSH2 0x1C3 SWAP2 SWAP1 PUSH2 0x70F JUMP JUMPDEST PUSH20 0xFFFFFFFFFFFFFFFFFFFFFFFFFFFFFFFFFFFFFFFF AND EQ PUSH2 0x219 JUMPI PUSH1 0x40 MLOAD PUSH32 0x8C379A000000000000000000000000000000000000000000000000000000000 DUP2 MSTORE PUSH1 0x4 ADD PUSH2 0x210 SWAP1 PUSH2 0x946 JUMP JUMPDEST PUSH1 0x40 MLOAD DUP1 SWAP2 SUB SWAP1 REVERT JUMPDEST DUP3 PUSH1 0x3 PUSH1 0x0 CALLER PUSH20 0xFFFFFFFFFFFFFFFFFFFFFFFFFFFFFFFFFFFFFFFF AND PUSH20 0xFFFFFFFFFFFFFFFFFFFFFFFFFFFFFFFFFFFFFFFF AND DUP2 MSTORE PUSH1 0x20 ADD SWAP1 DUP2 MSTORE PUSH1 0x20 ADD PUSH1 0x0 KECCAK256 PUSH1 0x0 DUP7 DUP2 MSTORE PUSH1 0x20 ADD SWAP1 DUP2 MSTORE PUSH1 0x20 ADD PUSH1 0x0 KECCAK256 PUSH1 0x0 ADD DUP2 SWAP1 SSTORE POP DUP2 PUSH1 0x3 PUSH1 0x0 CALLER PUSH20 0xFFFFFFFFFFFFFFFFFFFFFFFFFFFFFFFFFFFFFFFF AND PUSH20 0xFFFFFFFFFFFFFFFFFFFFFFFFFFFFFFFFFFFFFFFF AND DUP2 MSTORE PUSH1 0x20 ADD SWAP1 DUP2 MSTORE PUSH1 0x20 ADD PUSH1 0x0 KECCAK256 PUSH1 0x0 DUP7 DUP2 MSTORE PUSH1 0x20 ADD SWAP1 DUP2 MSTORE PUSH1 0x20 ADD PUSH1 0x0 KECCAK256 PUSH1 0x1 ADD DUP2 SWAP1 SSTORE POP DUP1 PUSH1 0x2 PUSH1 0x0 PUSH2 0x100 EXP DUP2 SLOAD DUP2 PUSH20 0xFFFFFFFFFFFFFFFFFFFFFFFFFFFFFFFFFFFFFFFF MUL NOT AND SWAP1 DUP4 PUSH20 0xFFFFFFFFFFFFFFFFFFFFFFFFFFFFFFFFFFFFFFFF AND MUL OR SWAP1 SSTORE POP PUSH1 0x2 PUSH1 0x0 SWAP1 SLOAD SWAP1 PUSH2 0x100 EXP SWAP1 DIV PUSH20 0xFFFFFFFFFFFFFFFFFFFFFFFFFFFFFFFFFFFFFFFF AND PUSH20 0xFFFFFFFFFFFFFFFFFFFFFFFFFFFFFFFFFFFFFFFF AND PUSH4 0x23B872DD CALLER ADDRESS DUP8 PUSH1 0x40 MLOAD DUP5 PUSH4 0xFFFFFFFF AND PUSH1 0xE0 SHL DUP2 MSTORE PUSH1 0x4 ADD PUSH2 0x369 SWAP4 SWAP3 SWAP2 SWAP1 PUSH2 0x8D4 JUMP JUMPDEST PUSH1 0x0 PUSH1 0x40 MLOAD DUP1 DUP4 SUB DUP2 PUSH1 0x0 DUP8 DUP1 EXTCODESIZE ISZERO DUP1 ISZERO PUSH2 0x383 JUMPI PUSH1 0x0 DUP1 REVERT JUMPDEST POP GAS CALL ISZERO DUP1 ISZERO PUSH2 0x397 JUMPI RETURNDATASIZE PUSH1 0x0 DUP1 RETURNDATACOPY RETURNDATASIZE PUSH1 0x0 REVERT JUMPDEST POP POP POP POP POP POP POP POP JUMP JUMPDEST PUSH1 0x0 DUP1 SLOAD SWAP1 PUSH2 0x100 EXP SWAP1 DIV PUSH20 0xFFFFFFFFFFFFFFFFFFFFFFFFFFFFFFFFFFFFFFFF AND DUP2 JUMP JUMPDEST PUSH1 0x3 PUSH1 0x20 MSTORE DUP2 PUSH1 0x0 MSTORE PUSH1 0x40 PUSH1 0x0 KECCAK256 PUSH1 0x20 MSTORE DUP1 PUSH1 0x0 MSTORE PUSH1 0x40 PUSH1 0x0 KECCAK256 PUSH1 0x0 SWAP2 POP SWAP2 POP POP DUP1 PUSH1 0x0 ADD SLOAD SWAP1 DUP1 PUSH1 0x1 ADD SLOAD SWAP1 POP DUP3 JUMP JUMPDEST PUSH1 0x0 PUSH1 0x3 PUSH1 0x0 CALLER PUSH20 0xFFFFFFFFFFFFFFFFFFFFFFFFFFFFFFFFFFFFFFFF AND PUSH20 0xFFFFFFFFFFFFFFFFFFFFFFFFFFFFFFFFFFFFFFFF AND DUP2 MSTORE PUSH1 0x20 ADD SWAP1 DUP2 MSTORE PUSH1 0x20 ADD PUSH1 0x0 KECCAK256 PUSH1 0x0 DUP5 DUP2 MSTORE PUSH1 0x20 ADD SWAP1 DUP2 MSTORE PUSH1 0x20 ADD PUSH1 0x0 KECCAK256 PUSH1 0x0 ADD SLOAD EQ ISZERO PUSH2 0x48D JUMPI PUSH1 0x40 MLOAD PUSH32 0x8C379A000000000000000000000000000000000000000000000000000000000 DUP2 MSTORE PUSH1 0x4 ADD PUSH2 0x484 SWAP1 PUSH2 0x966 JUMP JUMPDEST PUSH1 0x40 MLOAD DUP1 SWAP2 SUB SWAP1 REVERT JUMPDEST TIMESTAMP PUSH1 0x3 PUSH1 0x0 CALLER PUSH20 0xFFFFFFFFFFFFFFFFFFFFFFFFFFFFFFFFFFFFFFFF AND PUSH20 0xFFFFFFFFFFFFFFFFFFFFFFFFFFFFFFFFFFFFFFFF AND DUP2 MSTORE PUSH1 0x20 ADD SWAP1 DUP2 MSTORE PUSH1 0x20 ADD PUSH1 0x0 KECCAK256 PUSH1 0x0 DUP5 DUP2 MSTORE PUSH1 0x20 ADD SWAP1 DUP2 MSTORE PUSH1 0x20 ADD PUSH1 0x0 KECCAK256 PUSH1 0x1 ADD SLOAD LT PUSH2 0x522 JUMPI PUSH1 0x40 MLOAD PUSH32 0x8C379A000000000000000000000000000000000000000000000000000000000 DUP2 MSTORE PUSH1 0x4 ADD PUSH2 0x519 SWAP1 PUSH2 0x926 JUMP JUMPDEST PUSH1 0x40 MLOAD DUP1 SWAP2 SUB SWAP1 REVERT JUMPDEST DUP1 PUSH1 0x2 PUSH1 0x0 PUSH2 0x100 EXP DUP2 SLOAD DUP2 PUSH20 0xFFFFFFFFFFFFFFFFFFFFFFFFFFFFFFFFFFFFFFFF MUL NOT AND SWAP1 DUP4 PUSH20 0xFFFFFFFFFFFFFFFFFFFFFFFFFFFFFFFFFFFFFFFF AND MUL OR SWAP1 SSTORE POP PUSH1 0x0 PUSH1 0x3 PUSH1 0x0 CALLER PUSH20 0xFFFFFFFFFFFFFFFFFFFFFFFFFFFFFFFFFFFFFFFF AND PUSH20 0xFFFFFFFFFFFFFFFFFFFFFFFFFFFFFFFFFFFFFFFF AND DUP2 MSTORE PUSH1 0x20 ADD SWAP1 DUP2 MSTORE PUSH1 0x20 ADD PUSH1 0x0 KECCAK256 PUSH1 0x0 DUP5 DUP2 MSTORE PUSH1 0x20 ADD SWAP1 DUP2 MSTORE PUSH1 0x20 ADD PUSH1 0x0 KECCAK256 PUSH1 0x0 ADD DUP2 SWAP1 SSTORE POP PUSH1 0x0 PUSH1 0x3 PUSH1 0x0 CALLER PUSH20 0xFFFFFFFFFFFFFFFFFFFFFFFFFFFFFFFFFFFFFFFF AND PUSH20 0xFFFFFFFFFFFFFFFFFFFFFFFFFFFFFFFFFFFFFFFF AND DUP2 MSTORE PUSH1 0x20 ADD SWAP1 DUP2 MSTORE PUSH1 0x20 ADD PUSH1 0x0 KECCAK256 PUSH1 0x0 DUP5 DUP2 MSTORE PUSH1 0x20 ADD SWAP1 DUP2 MSTORE PUSH1 0x20 ADD PUSH1 0x0 KECCAK256 PUSH1 0x1 ADD DUP2 SWAP1 SSTORE POP PUSH1 0x2 PUSH1 0x0 SWAP1 SLOAD SWAP1 PUSH2 0x100 EXP SWAP1 DIV PUSH20 0xFFFFFFFFFFFFFFFFFFFFFFFFFFFFFFFFFFFFFFFF AND PUSH20 0xFFFFFFFFFFFFFFFFFFFFFFFFFFFFFFFFFFFFFFFF AND PUSH4 0x23B872DD ADDRESS CALLER DUP6 PUSH1 0x40 MLOAD DUP5 PUSH4 0xFFFFFFFF AND PUSH1 0xE0 SHL DUP2 MSTORE PUSH1 0x4 ADD PUSH2 0x674 SWAP4 SWAP3 SWAP2 SWAP1 PUSH2 0x8D4 JUMP JUMPDEST PUSH1 0x0 PUSH1 0x40 MLOAD DUP1 DUP4 SUB DUP2 PUSH1 0x0 DUP8 DUP1 EXTCODESIZE ISZERO DUP1 ISZERO PUSH2 0x68E JUMPI PUSH1 0x0 DUP1 REVERT JUMPDEST POP GAS CALL ISZERO DUP1 ISZERO PUSH2 0x6A2 JUMPI RETURNDATASIZE PUSH1 0x0 DUP1 RETURNDATACOPY RETURNDATASIZE PUSH1 0x0 REVERT JUMPDEST POP POP POP POP POP POP JUMP JUMPDEST PUSH1 0x2 PUSH1 0x0 SWAP1 SLOAD SWAP1 PUSH2 0x100 EXP SWAP1 DIV PUSH20 0xFFFFFFFFFFFFFFFFFFFFFFFFFFFFFFFFFFFFFFFF AND DUP2 JUMP JUMPDEST PUSH1 0x0 DUP2 CALLDATALOAD SWAP1 POP PUSH2 0x6DF DUP2 PUSH2 0xACD JUMP JUMPDEST SWAP3 SWAP2 POP POP JUMP JUMPDEST PUSH1 0x0 DUP2 MLOAD SWAP1 POP PUSH2 0x6F4 DUP2 PUSH2 0xACD JUMP JUMPDEST SWAP3 SWAP2 POP POP JUMP JUMPDEST PUSH1 0x0 DUP2 CALLDATALOAD SWAP1 POP PUSH2 0x709 DUP2 PUSH2 0xAE4 JUMP JUMPDEST SWAP3 SWAP2 POP POP JUMP JUMPDEST PUSH1 0x0 PUSH1 0x20 DUP3 DUP5 SUB SLT ISZERO PUSH2 0x725 JUMPI PUSH2 0x724 PUSH2 0xA4D JUMP JUMPDEST JUMPDEST PUSH1 0x0 PUSH2 0x733 DUP5 DUP3 DUP6 ADD PUSH2 0x6E5 JUMP JUMPDEST SWAP2 POP POP SWAP3 SWAP2 POP POP JUMP JUMPDEST PUSH1 0x0 DUP1 PUSH1 0x40 DUP4 DUP6 SUB SLT ISZERO PUSH2 0x753 JUMPI PUSH2 0x752 PUSH2 0xA4D JUMP JUMPDEST JUMPDEST PUSH1 0x0 PUSH2 0x761 DUP6 DUP3 DUP7 ADD PUSH2 0x6D0 JUMP JUMPDEST SWAP3 POP POP PUSH1 0x20 PUSH2 0x772 DUP6 DUP3 DUP7 ADD PUSH2 0x6FA JUMP JUMPDEST SWAP2 POP POP SWAP3 POP SWAP3 SWAP1 POP JUMP JUMPDEST PUSH1 0x0 DUP1 PUSH1 0x40 DUP4 DUP6 SUB SLT ISZERO PUSH2 0x793 JUMPI PUSH2 0x792 PUSH2 0xA4D JUMP JUMPDEST JUMPDEST PUSH1 0x0 PUSH2 0x7A1 DUP6 DUP3 DUP7 ADD PUSH2 0x6FA JUMP JUMPDEST SWAP3 POP POP PUSH1 0x20 PUSH2 0x7B2 DUP6 DUP3 DUP7 ADD PUSH2 0x6D0 JUMP JUMPDEST SWAP2 POP POP SWAP3 POP SWAP3 SWAP1 POP JUMP JUMPDEST PUSH1 0x0 DUP1 PUSH1 0x0 DUP1 PUSH1 0x80 DUP6 DUP8 SUB SLT ISZERO PUSH2 0x7D6 JUMPI PUSH2 0x7D5 PUSH2 0xA4D JUMP JUMPDEST JUMPDEST PUSH1 0x0 PUSH2 0x7E4 DUP8 DUP3 DUP9 ADD PUSH2 0x6FA JUMP JUMPDEST SWAP5 POP POP PUSH1 0x20 PUSH2 0x7F5 DUP8 DUP3 DUP9 ADD PUSH2 0x6FA JUMP JUMPDEST SWAP4 POP POP PUSH1 0x40 PUSH2 0x806 DUP8 DUP3 DUP9 ADD PUSH2 0x6FA JUMP JUMPDEST SWAP3 POP POP PUSH1 0x60 PUSH2 0x817 DUP8 DUP3 DUP9 ADD PUSH2 0x6D0 JUMP JUMPDEST SWAP2 POP POP SWAP3 SWAP6 SWAP2 SWAP5 POP SWAP3 POP JUMP JUMPDEST PUSH2 0x82C DUP2 PUSH2 0x9DB JUMP JUMPDEST DUP3 MSTORE POP POP JUMP JUMPDEST PUSH2 0x83B DUP2 PUSH2 0xA17 JUMP JUMPDEST DUP3 MSTORE POP POP JUMP JUMPDEST PUSH1 0x0 PUSH2 0x84E PUSH1 0x1D DUP4 PUSH2 0x9CA JUMP JUMPDEST SWAP2 POP PUSH2 0x859 DUP3 PUSH2 0xA52 JUMP JUMPDEST PUSH1 0x20 DUP3 ADD SWAP1 POP SWAP2 SWAP1 POP JUMP JUMPDEST PUSH1 0x0 PUSH2 0x871 PUSH1 0x16 DUP4 PUSH2 0x9CA JUMP JUMPDEST SWAP2 POP PUSH2 0x87C DUP3 PUSH2 0xA7B JUMP JUMPDEST PUSH1 0x20 DUP3 ADD SWAP1 POP SWAP2 SWAP1 POP JUMP JUMPDEST PUSH1 0x0 PUSH2 0x894 PUSH1 0x20 DUP4 PUSH2 0x9CA JUMP JUMPDEST SWAP2 POP PUSH2 0x89F DUP3 PUSH2 0xAA4 JUMP JUMPDEST PUSH1 0x20 DUP3 ADD SWAP1 POP SWAP2 SWAP1 POP JUMP JUMPDEST PUSH2 0x8B3 DUP2 PUSH2 0xA0D JUMP JUMPDEST DUP3 MSTORE POP POP JUMP JUMPDEST PUSH1 0x0 PUSH1 0x20 DUP3 ADD SWAP1 POP PUSH2 0x8CE PUSH1 0x0 DUP4 ADD DUP5 PUSH2 0x823 JUMP JUMPDEST SWAP3 SWAP2 POP POP JUMP JUMPDEST PUSH1 0x0 PUSH1 0x60 DUP3 ADD SWAP1 POP PUSH2 0x8E9 PUSH1 0x0 DUP4 ADD DUP7 PUSH2 0x823 JUMP JUMPDEST PUSH2 0x8F6 PUSH1 0x20 DUP4 ADD DUP6 PUSH2 0x823 JUMP JUMPDEST PUSH2 0x903 PUSH1 0x40 DUP4 ADD DUP5 PUSH2 0x8AA JUMP JUMPDEST SWAP5 SWAP4 POP POP POP POP JUMP JUMPDEST PUSH1 0x0 PUSH1 0x20 DUP3 ADD SWAP1 POP PUSH2 0x920 PUSH1 0x0 DUP4 ADD DUP5 PUSH2 0x832 JUMP JUMPDEST SWAP3 SWAP2 POP POP JUMP JUMPDEST PUSH1 0x0 PUSH1 0x20 DUP3 ADD SWAP1 POP DUP2 DUP2 SUB PUSH1 0x0 DUP4 ADD MSTORE PUSH2 0x93F DUP2 PUSH2 0x841 JUMP JUMPDEST SWAP1 POP SWAP2 SWAP1 POP JUMP JUMPDEST PUSH1 0x0 PUSH1 0x20 DUP3 ADD SWAP1 POP DUP2 DUP2 SUB PUSH1 0x0 DUP4 ADD MSTORE PUSH2 0x95F DUP2 PUSH2 0x864 JUMP JUMPDEST SWAP1 POP SWAP2 SWAP1 POP JUMP JUMPDEST PUSH1 0x0 PUSH1 0x20 DUP3 ADD SWAP1 POP DUP2 DUP2 SUB PUSH1 0x0 DUP4 ADD MSTORE PUSH2 0x97F DUP2 PUSH2 0x887 JUMP JUMPDEST SWAP1 POP SWAP2 SWAP1 POP JUMP JUMPDEST PUSH1 0x0 PUSH1 0x20 DUP3 ADD SWAP1 POP PUSH2 0x99B PUSH1 0x0 DUP4 ADD DUP5 PUSH2 0x8AA JUMP JUMPDEST SWAP3 SWAP2 POP POP JUMP JUMPDEST PUSH1 0x0 PUSH1 0x40 DUP3 ADD SWAP1 POP PUSH2 0x9B6 PUSH1 0x0 DUP4 ADD DUP6 PUSH2 0x8AA JUMP JUMPDEST PUSH2 0x9C3 PUSH1 0x20 DUP4 ADD DUP5 PUSH2 0x8AA JUMP JUMPDEST SWAP4 SWAP3 POP POP POP JUMP JUMPDEST PUSH1 0x0 DUP3 DUP3 MSTORE PUSH1 0x20 DUP3 ADD SWAP1 POP SWAP3 SWAP2 POP POP JUMP JUMPDEST PUSH1 0x0 PUSH2 0x9E6 DUP3 PUSH2 0x9ED JUMP JUMPDEST SWAP1 POP SWAP2 SWAP1 POP JUMP JUMPDEST PUSH1 0x0 PUSH20 0xFFFFFFFFFFFFFFFFFFFFFFFFFFFFFFFFFFFFFFFF DUP3 AND SWAP1 POP SWAP2 SWAP1 POP JUMP JUMPDEST PUSH1 0x0 DUP2 SWAP1 POP SWAP2 SWAP1 POP JUMP JUMPDEST PUSH1 0x0 PUSH2 0xA22 DUP3 PUSH2 0xA29 JUMP JUMPDEST SWAP1 POP SWAP2 SWAP1 POP JUMP JUMPDEST PUSH1 0x0 PUSH2 0xA34 DUP3 PUSH2 0xA3B JUMP JUMPDEST SWAP1 POP SWAP2 SWAP1 POP JUMP JUMPDEST PUSH1 0x0 PUSH2 0xA46 DUP3 PUSH2 0x9ED JUMP JUMPDEST SWAP1 POP SWAP2 SWAP1 POP JUMP JUMPDEST PUSH1 0x0 DUP1 REVERT JUMPDEST PUSH32 0x596F7572204E4654206C6F616E20686173206F7574206F662064617465000000 PUSH1 0x0 DUP3 ADD MSTORE POP JUMP JUMPDEST PUSH32 0x596F7520646F6E2774206F776E2074686973204E465400000000000000000000 PUSH1 0x0 DUP3 ADD MSTORE POP JUMP JUMPDEST PUSH32 0x596F7520646F6E2774206861766520616E79204E4654206465706F7369746564 PUSH1 0x0 DUP3 ADD MSTORE POP JUMP JUMPDEST PUSH2 0xAD6 DUP2 PUSH2 0x9DB JUMP JUMPDEST DUP2 EQ PUSH2 0xAE1 JUMPI PUSH1 0x0 DUP1 REVERT JUMPDEST POP JUMP JUMPDEST PUSH2 0xAED DUP2 PUSH2 0xA0D JUMP JUMPDEST DUP2 EQ PUSH2 0xAF8 JUMPI PUSH1 0x0 DUP1 REVERT JUMPDEST POP JUMP INVALID LOG2 PUSH5 0x6970667358 0x22 SLT KECCAK256 PUSH27 0x8ADEE8E4B6EF072B5063E628394AED52A8CC873B0001E91630C61E 0x4B ADDRESS 0x4F PUSH6 0x64736F6C6343 STOP ADDMOD SMOD STOP CALLER "
				},
				"gasEstimates": {
					"creation": {
						"codeDepositCost": "573000",
						"executionCost": "infinite",
						"totalCost": "infinite"
					},
					"external": {
						"depositNFT(uint256,uint256,uint256,address)": "infinite",
						"loans(address,uint256)": "infinite",
						"nftContract()": "2666",
						"owner()": "2511",
						"withdrawNFT(uint256,address)": "infinite"
					}
				},
				"methodIdentifiers": {
					"depositNFT(uint256,uint256,uint256,address)": "2000109e",
					"loans(address,uint256)": "98c61c37",
					"nftContract()": "d56d229d",
					"owner()": "8da5cb5b",
					"withdrawNFT(uint256,address)": "c1d2d00d"
				}
			},
			"storageLayout": {
				"storage": [
					{
						"astId": 118,
						"contract": "meta-mall/nft-loan.sol:NFTLoan",
						"label": "owner",
						"offset": 0,
						"slot": "0",
						"type": "t_address"
					},
					{
						"astId": 125,
						"contract": "meta-mall/nft-loan.sol:NFTLoan",
						"label": "interestRate",
						"offset": 0,
						"slot": "1",
						"type": "t_uint256"
					},
					{
						"astId": 128,
						"contract": "meta-mall/nft-loan.sol:NFTLoan",
						"label": "nftContract",
						"offset": 0,
						"slot": "2",
						"type": "t_contract(IERC721)113"
					},
					{
						"astId": 135,
						"contract": "meta-mall/nft-loan.sol:NFTLoan",
						"label": "loans",
						"offset": 0,
						"slot": "3",
						"type": "t_mapping(t_address,t_mapping(t_uint256,t_struct(NftLoasInfo)123_storage))"
					}
				],
				"types": {
					"t_address": {
						"encoding": "inplace",
						"label": "address",
						"numberOfBytes": "20"
					},
					"t_contract(IERC721)113": {
						"encoding": "inplace",
						"label": "contract IERC721",
						"numberOfBytes": "20"
					},
					"t_mapping(t_address,t_mapping(t_uint256,t_struct(NftLoasInfo)123_storage))": {
						"encoding": "mapping",
						"key": "t_address",
						"label": "mapping(address => mapping(uint256 => struct NFTLoan.NftLoasInfo))",
						"numberOfBytes": "32",
						"value": "t_mapping(t_uint256,t_struct(NftLoasInfo)123_storage)"
					},
					"t_mapping(t_uint256,t_struct(NftLoasInfo)123_storage)": {
						"encoding": "mapping",
						"key": "t_uint256",
						"label": "mapping(uint256 => struct NFTLoan.NftLoasInfo)",
						"numberOfBytes": "32",
						"value": "t_struct(NftLoasInfo)123_storage"
					},
					"t_struct(NftLoasInfo)123_storage": {
						"encoding": "inplace",
						"label": "struct NFTLoan.NftLoasInfo",
						"members": [
							{
								"astId": 120,
								"contract": "meta-mall/nft-loan.sol:NFTLoan",
								"label": "loanAmount",
								"offset": 0,
								"slot": "0",
								"type": "t_uint256"
							},
							{
								"astId": 122,
								"contract": "meta-mall/nft-loan.sol:NFTLoan",
								"label": "loanDeadLine",
								"offset": 0,
								"slot": "1",
								"type": "t_uint256"
							}
						],
						"numberOfBytes": "64"
					},
					"t_uint256": {
						"encoding": "inplace",
						"label": "uint256",
						"numberOfBytes": "32"
					}
				}
			},
			"userdoc": {
				"kind": "user",
				"methods": {},
				"version": 1
			}
		}
	}
}