{
	"meta-mall/contracts/nft-loan.sol": {
		"ngt": {
			"abi": [
				{
					"anonymous": false,
					"inputs": [
						{
							"indexed": false,
							"internalType": "address",
							"name": "owner",
							"type": "address"
						},
						{
							"indexed": false,
							"internalType": "address",
							"name": "spender",
							"type": "address"
						},
						{
							"indexed": false,
							"internalType": "uint256",
							"name": "value",
							"type": "uint256"
						}
					],
					"name": "Approval",
					"type": "event"
				},
				{
					"anonymous": false,
					"inputs": [
						{
							"indexed": false,
							"internalType": "uint8",
							"name": "status",
							"type": "uint8"
						}
					],
					"name": "ChangeMarketStatusEvent",
					"type": "event"
				},
				{
					"anonymous": false,
					"inputs": [
						{
							"indexed": false,
							"internalType": "address",
							"name": "owner",
							"type": "address"
						},
						{
							"indexed": false,
							"internalType": "address",
							"name": "spender",
							"type": "address"
						},
						{
							"indexed": false,
							"internalType": "uint256",
							"name": "value",
							"type": "uint256"
						}
					],
					"name": "Transfer",
					"type": "event"
				},
				{
					"inputs": [
						{
							"internalType": "address",
							"name": "_owner",
							"type": "address"
						},
						{
							"internalType": "address",
							"name": "_spender",
							"type": "address"
						}
					],
					"name": "allowance",
					"outputs": [
						{
							"internalType": "uint256",
							"name": "remaining",
							"type": "uint256"
						}
					],
					"stateMutability": "view",
					"type": "function"
				},
				{
					"inputs": [
						{
							"internalType": "address",
							"name": "_spender",
							"type": "address"
						},
						{
							"internalType": "uint256",
							"name": "_value",
							"type": "uint256"
						}
					],
					"name": "approve",
					"outputs": [
						{
							"internalType": "bool",
							"name": "success",
							"type": "bool"
						}
					],
					"stateMutability": "nonpayable",
					"type": "function"
				},
				{
					"inputs": [
						{
							"internalType": "address",
							"name": "_owner",
							"type": "address"
						}
					],
					"name": "balanceOf",
					"outputs": [
						{
							"internalType": "uint256",
							"name": "balance",
							"type": "uint256"
						}
					],
					"stateMutability": "view",
					"type": "function"
				},
				{
					"inputs": [],
					"name": "decimals",
					"outputs": [
						{
							"internalType": "uint8",
							"name": "",
							"type": "uint8"
						}
					],
					"stateMutability": "view",
					"type": "function"
				},
				{
					"inputs": [],
					"name": "name",
					"outputs": [
						{
							"internalType": "string",
							"name": "",
							"type": "string"
						}
					],
					"stateMutability": "view",
					"type": "function"
				},
				{
					"inputs": [],
					"name": "symbol",
					"outputs": [
						{
							"internalType": "string",
							"name": "",
							"type": "string"
						}
					],
					"stateMutability": "view",
					"type": "function"
				},
				{
					"inputs": [],
					"name": "totalSupply",
					"outputs": [
						{
							"internalType": "uint256",
							"name": "",
							"type": "uint256"
						}
					],
					"stateMutability": "view",
					"type": "function"
				},
				{
					"inputs": [],
					"name": "viewtotalSupply",
					"outputs": [
						{
							"internalType": "uint256",
							"name": "",
							"type": "uint256"
						}
					],
					"stateMutability": "view",
					"type": "function"
				}
			],
			"devdoc": {
				"kind": "dev",
				"methods": {},
				"version": 1
			},
			"evm": {
				"assembly": "    /* \"meta-mall/contracts/nft-loan.sol\":170:1307  contract ngt{... */\n  mstore(0x40, 0x80)\n    /* \"meta-mall/contracts/nft-loan.sol\":264:265  4 */\n  0x04\n    /* \"meta-mall/contracts/nft-loan.sol\":239:265  uint8  public decimals = 4 */\n  0x02\n  exp(0x0100, 0x00)\n  dup2\n  sload\n  dup2\n  0xff\n  mul\n  not\n  and\n  swap1\n  dup4\n  0xff\n  and\n  mul\n  or\n  swap1\n  sstore\n  pop\n    /* \"meta-mall/contracts/nft-loan.sol\":301:312  10000000000 */\n  0x02540be400\n    /* \"meta-mall/contracts/nft-loan.sol\":271:312  uint256 public  totalSupply = 10000000000 */\n  0x03\n  sstore\n    /* \"meta-mall/contracts/nft-loan.sol\":170:1307  contract ngt{... */\n  callvalue\n  dup1\n  iszero\n  tag_1\n  jumpi\n  0x00\n  dup1\n  revert\ntag_1:\n  pop\n  dataSize(sub_0)\n  dup1\n  dataOffset(sub_0)\n  0x00\n  codecopy\n  0x00\n  return\nstop\n\nsub_0: assembly {\n        /* \"meta-mall/contracts/nft-loan.sol\":170:1307  contract ngt{... */\n      mstore(0x40, 0x80)\n      callvalue\n      dup1\n      iszero\n      tag_1\n      jumpi\n      0x00\n      dup1\n      revert\n    tag_1:\n      pop\n      jumpi(tag_2, lt(calldatasize, 0x04))\n      shr(0xe0, calldataload(0x00))\n      dup1\n      0x70a08231\n      gt\n      tag_11\n      jumpi\n      dup1\n      0x70a08231\n      eq\n      tag_7\n      jumpi\n      dup1\n      0x8951cf59\n      eq\n      tag_8\n      jumpi\n      dup1\n      0x95d89b41\n      eq\n      tag_9\n      jumpi\n      dup1\n      0xdd62ed3e\n      eq\n      tag_10\n      jumpi\n      jump(tag_2)\n    tag_11:\n      dup1\n      0x06fdde03\n      eq\n      tag_3\n      jumpi\n      dup1\n      0x095ea7b3\n      eq\n      tag_4\n      jumpi\n      dup1\n      0x18160ddd\n      eq\n      tag_5\n      jumpi\n      dup1\n      0x313ce567\n      eq\n      tag_6\n      jumpi\n    tag_2:\n      0x00\n      dup1\n      revert\n        /* \"meta-mall/contracts/nft-loan.sol\":188:207  string public  name */\n    tag_3:\n      tag_12\n      tag_13\n      jump\t// in\n    tag_12:\n      mload(0x40)\n      tag_14\n      swap2\n      swap1\n      tag_15\n      jump\t// in\n    tag_14:\n      mload(0x40)\n      dup1\n      swap2\n      sub\n      swap1\n      return\n        /* \"meta-mall/contracts/nft-loan.sol\":727:1017  function approve(address _spender, uint256 _value) public returns (bool success)   ... */\n    tag_4:\n      tag_16\n      0x04\n      dup1\n      calldatasize\n      sub\n      dup2\n      add\n      swap1\n      tag_17\n      swap2\n      swap1\n      tag_18\n      jump\t// in\n    tag_17:\n      tag_19\n      jump\t// in\n    tag_16:\n      mload(0x40)\n      tag_20\n      swap2\n      swap1\n      tag_21\n      jump\t// in\n    tag_20:\n      mload(0x40)\n      dup1\n      swap2\n      sub\n      swap1\n      return\n        /* \"meta-mall/contracts/nft-loan.sol\":271:312  uint256 public  totalSupply = 10000000000 */\n    tag_5:\n      tag_22\n      tag_23\n      jump\t// in\n    tag_22:\n      mload(0x40)\n      tag_24\n      swap2\n      swap1\n      tag_25\n      jump\t// in\n    tag_24:\n      mload(0x40)\n      dup1\n      swap2\n      sub\n      swap1\n      return\n        /* \"meta-mall/contracts/nft-loan.sol\":239:265  uint8  public decimals = 4 */\n    tag_6:\n      tag_26\n      tag_27\n      jump\t// in\n    tag_26:\n      mload(0x40)\n      tag_28\n      swap2\n      swap1\n      tag_29\n      jump\t// in\n    tag_28:\n      mload(0x40)\n      dup1\n      swap2\n      sub\n      swap1\n      return\n        /* \"meta-mall/contracts/nft-loan.sol\":609:722  function balanceOf(address _owner) public view returns (uint256 balance) {... */\n    tag_7:\n      tag_30\n      0x04\n      dup1\n      calldatasize\n      sub\n      dup2\n      add\n      swap1\n      tag_31\n      swap2\n      swap1\n      tag_32\n      jump\t// in\n    tag_31:\n      tag_33\n      jump\t// in\n    tag_30:\n      mload(0x40)\n      tag_34\n      swap2\n      swap1\n      tag_25\n      jump\t// in\n    tag_34:\n      mload(0x40)\n      dup1\n      swap2\n      sub\n      swap1\n      return\n        /* \"meta-mall/contracts/nft-loan.sol\":1214:1305  function viewtotalSupply() public view returns (uint256){... */\n    tag_8:\n      tag_35\n      tag_36\n      jump\t// in\n    tag_35:\n      mload(0x40)\n      tag_37\n      swap2\n      swap1\n      tag_25\n      jump\t// in\n    tag_37:\n      mload(0x40)\n      dup1\n      swap2\n      sub\n      swap1\n      return\n        /* \"meta-mall/contracts/nft-loan.sol\":213:233  string public symbol */\n    tag_9:\n      tag_38\n      tag_39\n      jump\t// in\n    tag_38:\n      mload(0x40)\n      tag_40\n      swap2\n      swap1\n      tag_15\n      jump\t// in\n    tag_40:\n      mload(0x40)\n      dup1\n      swap2\n      sub\n      swap1\n      return\n        /* \"meta-mall/contracts/nft-loan.sol\":1022:1209  function allowance(address _owner, address _spender) public view returns (uint256 remaining) {... */\n    tag_10:\n      tag_41\n      0x04\n      dup1\n      calldatasize\n      sub\n      dup2\n      add\n      swap1\n      tag_42\n      swap2\n      swap1\n      tag_43\n      jump\t// in\n    tag_42:\n      tag_44\n      jump\t// in\n    tag_41:\n      mload(0x40)\n      tag_45\n      swap2\n      swap1\n      tag_25\n      jump\t// in\n    tag_45:\n      mload(0x40)\n      dup1\n      swap2\n      sub\n      swap1\n      return\n        /* \"meta-mall/contracts/nft-loan.sol\":188:207  string public  name */\n    tag_13:\n      0x00\n      dup1\n      sload\n      tag_46\n      swap1\n      tag_47\n      jump\t// in\n    tag_46:\n      dup1\n      0x1f\n      add\n      0x20\n      dup1\n      swap2\n      div\n      mul\n      0x20\n      add\n      mload(0x40)\n      swap1\n      dup2\n      add\n      0x40\n      mstore\n      dup1\n      swap3\n      swap2\n      swap1\n      dup2\n      dup2\n      mstore\n      0x20\n      add\n      dup3\n      dup1\n      sload\n      tag_48\n      swap1\n      tag_47\n      jump\t// in\n    tag_48:\n      dup1\n      iszero\n      tag_49\n      jumpi\n      dup1\n      0x1f\n      lt\n      tag_50\n      jumpi\n      0x0100\n      dup1\n      dup4\n      sload\n      div\n      mul\n      dup4\n      mstore\n      swap2\n      0x20\n      add\n      swap2\n      jump(tag_49)\n    tag_50:\n      dup3\n      add\n      swap2\n      swap1\n      0x00\n      mstore\n      keccak256(0x00, 0x20)\n      swap1\n    tag_51:\n      dup2\n      sload\n      dup2\n      mstore\n      swap1\n      0x01\n      add\n      swap1\n      0x20\n      add\n      dup1\n      dup4\n      gt\n      tag_51\n      jumpi\n      dup3\n      swap1\n      sub\n      0x1f\n      and\n      dup3\n      add\n      swap2\n    tag_49:\n      pop\n      pop\n      pop\n      pop\n      pop\n      dup2\n      jump\t// out\n        /* \"meta-mall/contracts/nft-loan.sol\":727:1017  function approve(address _spender, uint256 _value) public returns (bool success)   ... */\n    tag_19:\n        /* \"meta-mall/contracts/nft-loan.sol\":794:806  bool success */\n      0x00\n        /* \"meta-mall/contracts/nft-loan.sol\":846:847  0 */\n      dup1\n        /* \"meta-mall/contracts/nft-loan.sol\":836:842  _value */\n      dup3\n        /* \"meta-mall/contracts/nft-loan.sol\":836:847  _value == 0 */\n      eq\n        /* \"meta-mall/contracts/nft-loan.sol\":835:888  (_value == 0) || (allowed[msg.sender][_spender] == 0) */\n      dup1\n      tag_53\n      jumpi\n      pop\n        /* \"meta-mall/contracts/nft-loan.sol\":886:887  0 */\n      0x00\n        /* \"meta-mall/contracts/nft-loan.sol\":853:860  allowed */\n      0x05\n        /* \"meta-mall/contracts/nft-loan.sol\":853:872  allowed[msg.sender] */\n      0x00\n        /* \"meta-mall/contracts/nft-loan.sol\":861:871  msg.sender */\n      caller\n        /* \"meta-mall/contracts/nft-loan.sol\":853:872  allowed[msg.sender] */\n      0xffffffffffffffffffffffffffffffffffffffff\n      and\n      0xffffffffffffffffffffffffffffffffffffffff\n      and\n      dup2\n      mstore\n      0x20\n      add\n      swap1\n      dup2\n      mstore\n      0x20\n      add\n      0x00\n      keccak256\n        /* \"meta-mall/contracts/nft-loan.sol\":853:882  allowed[msg.sender][_spender] */\n      0x00\n        /* \"meta-mall/contracts/nft-loan.sol\":873:881  _spender */\n      dup6\n        /* \"meta-mall/contracts/nft-loan.sol\":853:882  allowed[msg.sender][_spender] */\n      0xffffffffffffffffffffffffffffffffffffffff\n      and\n      0xffffffffffffffffffffffffffffffffffffffff\n      and\n      dup2\n      mstore\n      0x20\n      add\n      swap1\n      dup2\n      mstore\n      0x20\n      add\n      0x00\n      keccak256\n      sload\n        /* \"meta-mall/contracts/nft-loan.sol\":853:887  allowed[msg.sender][_spender] == 0 */\n      eq\n        /* \"meta-mall/contracts/nft-loan.sol\":835:888  (_value == 0) || (allowed[msg.sender][_spender] == 0) */\n    tag_53:\n        /* \"meta-mall/contracts/nft-loan.sol\":827:889  require((_value == 0) || (allowed[msg.sender][_spender] == 0)) */\n      tag_54\n      jumpi\n      0x00\n      dup1\n      revert\n    tag_54:\n        /* \"meta-mall/contracts/nft-loan.sol\":931:937  _value */\n      dup2\n        /* \"meta-mall/contracts/nft-loan.sol\":899:906  allowed */\n      0x05\n        /* \"meta-mall/contracts/nft-loan.sol\":899:918  allowed[msg.sender] */\n      0x00\n        /* \"meta-mall/contracts/nft-loan.sol\":907:917  msg.sender */\n      caller\n        /* \"meta-mall/contracts/nft-loan.sol\":899:918  allowed[msg.sender] */\n      0xffffffffffffffffffffffffffffffffffffffff\n      and\n      0xffffffffffffffffffffffffffffffffffffffff\n      and\n      dup2\n      mstore\n      0x20\n      add\n      swap1\n      dup2\n      mstore\n      0x20\n      add\n      0x00\n      keccak256\n        /* \"meta-mall/contracts/nft-loan.sol\":899:928  allowed[msg.sender][_spender] */\n      0x00\n        /* \"meta-mall/contracts/nft-loan.sol\":919:927  _spender */\n      dup6\n        /* \"meta-mall/contracts/nft-loan.sol\":899:928  allowed[msg.sender][_spender] */\n      0xffffffffffffffffffffffffffffffffffffffff\n      and\n      0xffffffffffffffffffffffffffffffffffffffff\n      and\n      dup2\n      mstore\n      0x20\n      add\n      swap1\n      dup2\n      mstore\n      0x20\n      add\n      0x00\n      keccak256\n        /* \"meta-mall/contracts/nft-loan.sol\":899:937  allowed[msg.sender][_spender] = _value */\n      dup2\n      swap1\n      sstore\n      pop\n        /* \"meta-mall/contracts/nft-loan.sol\":951:989  Approval(msg.sender, _spender, _value) */\n      0x8c5be1e5ebec7d5bd14f71427d1e84f3dd0314c0f7b2291e5b200ac8c7c3b925\n        /* \"meta-mall/contracts/nft-loan.sol\":960:970  msg.sender */\n      caller\n        /* \"meta-mall/contracts/nft-loan.sol\":972:980  _spender */\n      dup5\n        /* \"meta-mall/contracts/nft-loan.sol\":982:988  _value */\n      dup5\n        /* \"meta-mall/contracts/nft-loan.sol\":951:989  Approval(msg.sender, _spender, _value) */\n      mload(0x40)\n      tag_55\n      swap4\n      swap3\n      swap2\n      swap1\n      tag_56\n      jump\t// in\n    tag_55:\n      mload(0x40)\n      dup1\n      swap2\n      sub\n      swap1\n      log1\n        /* \"meta-mall/contracts/nft-loan.sol\":1006:1010  true */\n      0x01\n        /* \"meta-mall/contracts/nft-loan.sol\":999:1010  return true */\n      swap1\n      pop\n        /* \"meta-mall/contracts/nft-loan.sol\":727:1017  function approve(address _spender, uint256 _value) public returns (bool success)   ... */\n      swap3\n      swap2\n      pop\n      pop\n      jump\t// out\n        /* \"meta-mall/contracts/nft-loan.sol\":271:312  uint256 public  totalSupply = 10000000000 */\n    tag_23:\n      sload(0x03)\n      dup2\n      jump\t// out\n        /* \"meta-mall/contracts/nft-loan.sol\":239:265  uint8  public decimals = 4 */\n    tag_27:\n      0x02\n      0x00\n      swap1\n      sload\n      swap1\n      0x0100\n      exp\n      swap1\n      div\n      0xff\n      and\n      dup2\n      jump\t// out\n        /* \"meta-mall/contracts/nft-loan.sol\":609:722  function balanceOf(address _owner) public view returns (uint256 balance) {... */\n    tag_33:\n        /* \"meta-mall/contracts/nft-loan.sol\":665:680  uint256 balance */\n      0x00\n        /* \"meta-mall/contracts/nft-loan.sol\":699:707  balances */\n      0x04\n        /* \"meta-mall/contracts/nft-loan.sol\":699:715  balances[_owner] */\n      0x00\n        /* \"meta-mall/contracts/nft-loan.sol\":708:714  _owner */\n      dup4\n        /* \"meta-mall/contracts/nft-loan.sol\":699:715  balances[_owner] */\n      0xffffffffffffffffffffffffffffffffffffffff\n      and\n      0xffffffffffffffffffffffffffffffffffffffff\n      and\n      dup2\n      mstore\n      0x20\n      add\n      swap1\n      dup2\n      mstore\n      0x20\n      add\n      0x00\n      keccak256\n      sload\n        /* \"meta-mall/contracts/nft-loan.sol\":692:715  return balances[_owner] */\n      swap1\n      pop\n        /* \"meta-mall/contracts/nft-loan.sol\":609:722  function balanceOf(address _owner) public view returns (uint256 balance) {... */\n      swap2\n      swap1\n      pop\n      jump\t// out\n        /* \"meta-mall/contracts/nft-loan.sol\":1214:1305  function viewtotalSupply() public view returns (uint256){... */\n    tag_36:\n        /* \"meta-mall/contracts/nft-loan.sol\":1262:1269  uint256 */\n      0x00\n        /* \"meta-mall/contracts/nft-loan.sol\":1287:1298  totalSupply */\n      sload(0x03)\n        /* \"meta-mall/contracts/nft-loan.sol\":1280:1298  return totalSupply */\n      swap1\n      pop\n        /* \"meta-mall/contracts/nft-loan.sol\":1214:1305  function viewtotalSupply() public view returns (uint256){... */\n      swap1\n      jump\t// out\n        /* \"meta-mall/contracts/nft-loan.sol\":213:233  string public symbol */\n    tag_39:\n      0x01\n      dup1\n      sload\n      tag_59\n      swap1\n      tag_47\n      jump\t// in\n    tag_59:\n      dup1\n      0x1f\n      add\n      0x20\n      dup1\n      swap2\n      div\n      mul\n      0x20\n      add\n      mload(0x40)\n      swap1\n      dup2\n      add\n      0x40\n      mstore\n      dup1\n      swap3\n      swap2\n      swap1\n      dup2\n      dup2\n      mstore\n      0x20\n      add\n      dup3\n      dup1\n      sload\n      tag_60\n      swap1\n      tag_47\n      jump\t// in\n    tag_60:\n      dup1\n      iszero\n      tag_61\n      jumpi\n      dup1\n      0x1f\n      lt\n      tag_62\n      jumpi\n      0x0100\n      dup1\n      dup4\n      sload\n      div\n      mul\n      dup4\n      mstore\n      swap2\n      0x20\n      add\n      swap2\n      jump(tag_61)\n    tag_62:\n      dup3\n      add\n      swap2\n      swap1\n      0x00\n      mstore\n      keccak256(0x00, 0x20)\n      swap1\n    tag_63:\n      dup2\n      sload\n      dup2\n      mstore\n      swap1\n      0x01\n      add\n      swap1\n      0x20\n      add\n      dup1\n      dup4\n      gt\n      tag_63\n      jumpi\n      dup3\n      swap1\n      sub\n      0x1f\n      and\n      dup3\n      add\n      swap2\n    tag_61:\n      pop\n      pop\n      pop\n      pop\n      pop\n      dup2\n      jump\t// out\n        /* \"meta-mall/contracts/nft-loan.sol\":1022:1209  function allowance(address _owner, address _spender) public view returns (uint256 remaining) {... */\n    tag_44:\n        /* \"meta-mall/contracts/nft-loan.sol\":1096:1113  uint256 remaining */\n      0x00\n        /* \"meta-mall/contracts/nft-loan.sol\":1132:1139  allowed */\n      0x05\n        /* \"meta-mall/contracts/nft-loan.sol\":1132:1147  allowed[_owner] */\n      0x00\n        /* \"meta-mall/contracts/nft-loan.sol\":1140:1146  _owner */\n      dup5\n        /* \"meta-mall/contracts/nft-loan.sol\":1132:1147  allowed[_owner] */\n      0xffffffffffffffffffffffffffffffffffffffff\n      and\n      0xffffffffffffffffffffffffffffffffffffffff\n      and\n      dup2\n      mstore\n      0x20\n      add\n      swap1\n      dup2\n      mstore\n      0x20\n      add\n      0x00\n      keccak256\n        /* \"meta-mall/contracts/nft-loan.sol\":1132:1157  allowed[_owner][_spender] */\n      0x00\n        /* \"meta-mall/contracts/nft-loan.sol\":1148:1156  _spender */\n      dup4\n        /* \"meta-mall/contracts/nft-loan.sol\":1132:1157  allowed[_owner][_spender] */\n      0xffffffffffffffffffffffffffffffffffffffff\n      and\n      0xffffffffffffffffffffffffffffffffffffffff\n      and\n      dup2\n      mstore\n      0x20\n      add\n      swap1\n      dup2\n      mstore\n      0x20\n      add\n      0x00\n      keccak256\n      sload\n        /* \"meta-mall/contracts/nft-loan.sol\":1125:1157  return allowed[_owner][_spender] */\n      swap1\n      pop\n        /* \"meta-mall/contracts/nft-loan.sol\":1022:1209  function allowance(address _owner, address _spender) public view returns (uint256 remaining) {... */\n      swap3\n      swap2\n      pop\n      pop\n      jump\t// out\n        /* \"#utility.yul\":7:146   */\n    tag_66:\n        /* \"#utility.yul\":53:58   */\n      0x00\n        /* \"#utility.yul\":91:97   */\n      dup2\n        /* \"#utility.yul\":78:98   */\n      calldataload\n        /* \"#utility.yul\":69:98   */\n      swap1\n      pop\n        /* \"#utility.yul\":107:140   */\n      tag_68\n        /* \"#utility.yul\":134:139   */\n      dup2\n        /* \"#utility.yul\":107:140   */\n      tag_69\n      jump\t// in\n    tag_68:\n        /* \"#utility.yul\":7:146   */\n      swap3\n      swap2\n      pop\n      pop\n      jump\t// out\n        /* \"#utility.yul\":152:291   */\n    tag_70:\n        /* \"#utility.yul\":198:203   */\n      0x00\n        /* \"#utility.yul\":236:242   */\n      dup2\n        /* \"#utility.yul\":223:243   */\n      calldataload\n        /* \"#utility.yul\":214:243   */\n      swap1\n      pop\n        /* \"#utility.yul\":252:285   */\n      tag_72\n        /* \"#utility.yul\":279:284   */\n      dup2\n        /* \"#utility.yul\":252:285   */\n      tag_73\n      jump\t// in\n    tag_72:\n        /* \"#utility.yul\":152:291   */\n      swap3\n      swap2\n      pop\n      pop\n      jump\t// out\n        /* \"#utility.yul\":297:626   */\n    tag_32:\n        /* \"#utility.yul\":356:362   */\n      0x00\n        /* \"#utility.yul\":405:407   */\n      0x20\n        /* \"#utility.yul\":393:402   */\n      dup3\n        /* \"#utility.yul\":384:391   */\n      dup5\n        /* \"#utility.yul\":380:403   */\n      sub\n        /* \"#utility.yul\":376:408   */\n      slt\n        /* \"#utility.yul\":373:492   */\n      iszero\n      tag_75\n      jumpi\n        /* \"#utility.yul\":411:490   */\n      tag_76\n      tag_77\n      jump\t// in\n    tag_76:\n        /* \"#utility.yul\":373:492   */\n    tag_75:\n        /* \"#utility.yul\":531:532   */\n      0x00\n        /* \"#utility.yul\":556:609   */\n      tag_78\n        /* \"#utility.yul\":601:608   */\n      dup5\n        /* \"#utility.yul\":592:598   */\n      dup3\n        /* \"#utility.yul\":581:590   */\n      dup6\n        /* \"#utility.yul\":577:599   */\n      add\n        /* \"#utility.yul\":556:609   */\n      tag_66\n      jump\t// in\n    tag_78:\n        /* \"#utility.yul\":546:609   */\n      swap2\n      pop\n        /* \"#utility.yul\":502:619   */\n      pop\n        /* \"#utility.yul\":297:626   */\n      swap3\n      swap2\n      pop\n      pop\n      jump\t// out\n        /* \"#utility.yul\":632:1106   */\n    tag_43:\n        /* \"#utility.yul\":700:706   */\n      0x00\n        /* \"#utility.yul\":708:714   */\n      dup1\n        /* \"#utility.yul\":757:759   */\n      0x40\n        /* \"#utility.yul\":745:754   */\n      dup4\n        /* \"#utility.yul\":736:743   */\n      dup6\n        /* \"#utility.yul\":732:755   */\n      sub\n        /* \"#utility.yul\":728:760   */\n      slt\n        /* \"#utility.yul\":725:844   */\n      iszero\n      tag_80\n      jumpi\n        /* \"#utility.yul\":763:842   */\n      tag_81\n      tag_77\n      jump\t// in\n    tag_81:\n        /* \"#utility.yul\":725:844   */\n    tag_80:\n        /* \"#utility.yul\":883:884   */\n      0x00\n        /* \"#utility.yul\":908:961   */\n      tag_82\n        /* \"#utility.yul\":953:960   */\n      dup6\n        /* \"#utility.yul\":944:950   */\n      dup3\n        /* \"#utility.yul\":933:942   */\n      dup7\n        /* \"#utility.yul\":929:951   */\n      add\n        /* \"#utility.yul\":908:961   */\n      tag_66\n      jump\t// in\n    tag_82:\n        /* \"#utility.yul\":898:961   */\n      swap3\n      pop\n        /* \"#utility.yul\":854:971   */\n      pop\n        /* \"#utility.yul\":1010:1012   */\n      0x20\n        /* \"#utility.yul\":1036:1089   */\n      tag_83\n        /* \"#utility.yul\":1081:1088   */\n      dup6\n        /* \"#utility.yul\":1072:1078   */\n      dup3\n        /* \"#utility.yul\":1061:1070   */\n      dup7\n        /* \"#utility.yul\":1057:1079   */\n      add\n        /* \"#utility.yul\":1036:1089   */\n      tag_66\n      jump\t// in\n    tag_83:\n        /* \"#utility.yul\":1026:1089   */\n      swap2\n      pop\n        /* \"#utility.yul\":981:1099   */\n      pop\n        /* \"#utility.yul\":632:1106   */\n      swap3\n      pop\n      swap3\n      swap1\n      pop\n      jump\t// out\n        /* \"#utility.yul\":1112:1586   */\n    tag_18:\n        /* \"#utility.yul\":1180:1186   */\n      0x00\n        /* \"#utility.yul\":1188:1194   */\n      dup1\n        /* \"#utility.yul\":1237:1239   */\n      0x40\n        /* \"#utility.yul\":1225:1234   */\n      dup4\n        /* \"#utility.yul\":1216:1223   */\n      dup6\n        /* \"#utility.yul\":1212:1235   */\n      sub\n        /* \"#utility.yul\":1208:1240   */\n      slt\n        /* \"#utility.yul\":1205:1324   */\n      iszero\n      tag_85\n      jumpi\n        /* \"#utility.yul\":1243:1322   */\n      tag_86\n      tag_77\n      jump\t// in\n    tag_86:\n        /* \"#utility.yul\":1205:1324   */\n    tag_85:\n        /* \"#utility.yul\":1363:1364   */\n      0x00\n        /* \"#utility.yul\":1388:1441   */\n      tag_87\n        /* \"#utility.yul\":1433:1440   */\n      dup6\n        /* \"#utility.yul\":1424:1430   */\n      dup3\n        /* \"#utility.yul\":1413:1422   */\n      dup7\n        /* \"#utility.yul\":1409:1431   */\n      add\n        /* \"#utility.yul\":1388:1441   */\n      tag_66\n      jump\t// in\n    tag_87:\n        /* \"#utility.yul\":1378:1441   */\n      swap3\n      pop\n        /* \"#utility.yul\":1334:1451   */\n      pop\n        /* \"#utility.yul\":1490:1492   */\n      0x20\n        /* \"#utility.yul\":1516:1569   */\n      tag_88\n        /* \"#utility.yul\":1561:1568   */\n      dup6\n        /* \"#utility.yul\":1552:1558   */\n      dup3\n        /* \"#utility.yul\":1541:1550   */\n      dup7\n        /* \"#utility.yul\":1537:1559   */\n      add\n        /* \"#utility.yul\":1516:1569   */\n      tag_70\n      jump\t// in\n    tag_88:\n        /* \"#utility.yul\":1506:1569   */\n      swap2\n      pop\n        /* \"#utility.yul\":1461:1579   */\n      pop\n        /* \"#utility.yul\":1112:1586   */\n      swap3\n      pop\n      swap3\n      swap1\n      pop\n      jump\t// out\n        /* \"#utility.yul\":1592:1710   */\n    tag_89:\n        /* \"#utility.yul\":1679:1703   */\n      tag_91\n        /* \"#utility.yul\":1697:1702   */\n      dup2\n        /* \"#utility.yul\":1679:1703   */\n      tag_92\n      jump\t// in\n    tag_91:\n        /* \"#utility.yul\":1674:1677   */\n      dup3\n        /* \"#utility.yul\":1667:1704   */\n      mstore\n        /* \"#utility.yul\":1592:1710   */\n      pop\n      pop\n      jump\t// out\n        /* \"#utility.yul\":1716:1825   */\n    tag_93:\n        /* \"#utility.yul\":1797:1818   */\n      tag_95\n        /* \"#utility.yul\":1812:1817   */\n      dup2\n        /* \"#utility.yul\":1797:1818   */\n      tag_96\n      jump\t// in\n    tag_95:\n        /* \"#utility.yul\":1792:1795   */\n      dup3\n        /* \"#utility.yul\":1785:1819   */\n      mstore\n        /* \"#utility.yul\":1716:1825   */\n      pop\n      pop\n      jump\t// out\n        /* \"#utility.yul\":1831:2195   */\n    tag_97:\n        /* \"#utility.yul\":1919:1922   */\n      0x00\n        /* \"#utility.yul\":1947:1986   */\n      tag_99\n        /* \"#utility.yul\":1980:1985   */\n      dup3\n        /* \"#utility.yul\":1947:1986   */\n      tag_100\n      jump\t// in\n    tag_99:\n        /* \"#utility.yul\":2002:2073   */\n      tag_101\n        /* \"#utility.yul\":2066:2072   */\n      dup2\n        /* \"#utility.yul\":2061:2064   */\n      dup6\n        /* \"#utility.yul\":2002:2073   */\n      tag_102\n      jump\t// in\n    tag_101:\n        /* \"#utility.yul\":1995:2073   */\n      swap4\n      pop\n        /* \"#utility.yul\":2082:2134   */\n      tag_103\n        /* \"#utility.yul\":2127:2133   */\n      dup2\n        /* \"#utility.yul\":2122:2125   */\n      dup6\n        /* \"#utility.yul\":2115:2119   */\n      0x20\n        /* \"#utility.yul\":2108:2113   */\n      dup7\n        /* \"#utility.yul\":2104:2120   */\n      add\n        /* \"#utility.yul\":2082:2134   */\n      tag_104\n      jump\t// in\n    tag_103:\n        /* \"#utility.yul\":2159:2188   */\n      tag_105\n        /* \"#utility.yul\":2181:2187   */\n      dup2\n        /* \"#utility.yul\":2159:2188   */\n      tag_106\n      jump\t// in\n    tag_105:\n        /* \"#utility.yul\":2154:2157   */\n      dup5\n        /* \"#utility.yul\":2150:2189   */\n      add\n        /* \"#utility.yul\":2143:2189   */\n      swap2\n      pop\n        /* \"#utility.yul\":1923:2195   */\n      pop\n        /* \"#utility.yul\":1831:2195   */\n      swap3\n      swap2\n      pop\n      pop\n      jump\t// out\n        /* \"#utility.yul\":2201:2319   */\n    tag_107:\n        /* \"#utility.yul\":2288:2312   */\n      tag_109\n        /* \"#utility.yul\":2306:2311   */\n      dup2\n        /* \"#utility.yul\":2288:2312   */\n      tag_110\n      jump\t// in\n    tag_109:\n        /* \"#utility.yul\":2283:2286   */\n      dup3\n        /* \"#utility.yul\":2276:2313   */\n      mstore\n        /* \"#utility.yul\":2201:2319   */\n      pop\n      pop\n      jump\t// out\n        /* \"#utility.yul\":2325:2437   */\n    tag_111:\n        /* \"#utility.yul\":2408:2430   */\n      tag_113\n        /* \"#utility.yul\":2424:2429   */\n      dup2\n        /* \"#utility.yul\":2408:2430   */\n      tag_114\n      jump\t// in\n    tag_113:\n        /* \"#utility.yul\":2403:2406   */\n      dup3\n        /* \"#utility.yul\":2396:2431   */\n      mstore\n        /* \"#utility.yul\":2325:2437   */\n      pop\n      pop\n      jump\t// out\n        /* \"#utility.yul\":2443:2885   */\n    tag_56:\n        /* \"#utility.yul\":2592:2596   */\n      0x00\n        /* \"#utility.yul\":2630:2632   */\n      0x60\n        /* \"#utility.yul\":2619:2628   */\n      dup3\n        /* \"#utility.yul\":2615:2633   */\n      add\n        /* \"#utility.yul\":2607:2633   */\n      swap1\n      pop\n        /* \"#utility.yul\":2643:2714   */\n      tag_116\n        /* \"#utility.yul\":2711:2712   */\n      0x00\n        /* \"#utility.yul\":2700:2709   */\n      dup4\n        /* \"#utility.yul\":2696:2713   */\n      add\n        /* \"#utility.yul\":2687:2693   */\n      dup7\n        /* \"#utility.yul\":2643:2714   */\n      tag_89\n      jump\t// in\n    tag_116:\n        /* \"#utility.yul\":2724:2796   */\n      tag_117\n        /* \"#utility.yul\":2792:2794   */\n      0x20\n        /* \"#utility.yul\":2781:2790   */\n      dup4\n        /* \"#utility.yul\":2777:2795   */\n      add\n        /* \"#utility.yul\":2768:2774   */\n      dup6\n        /* \"#utility.yul\":2724:2796   */\n      tag_89\n      jump\t// in\n    tag_117:\n        /* \"#utility.yul\":2806:2878   */\n      tag_118\n        /* \"#utility.yul\":2874:2876   */\n      0x40\n        /* \"#utility.yul\":2863:2872   */\n      dup4\n        /* \"#utility.yul\":2859:2877   */\n      add\n        /* \"#utility.yul\":2850:2856   */\n      dup5\n        /* \"#utility.yul\":2806:2878   */\n      tag_107\n      jump\t// in\n    tag_118:\n        /* \"#utility.yul\":2443:2885   */\n      swap5\n      swap4\n      pop\n      pop\n      pop\n      pop\n      jump\t// out\n        /* \"#utility.yul\":2891:3101   */\n    tag_21:\n        /* \"#utility.yul\":2978:2982   */\n      0x00\n        /* \"#utility.yul\":3016:3018   */\n      0x20\n        /* \"#utility.yul\":3005:3014   */\n      dup3\n        /* \"#utility.yul\":3001:3019   */\n      add\n        /* \"#utility.yul\":2993:3019   */\n      swap1\n      pop\n        /* \"#utility.yul\":3029:3094   */\n      tag_120\n        /* \"#utility.yul\":3091:3092   */\n      0x00\n        /* \"#utility.yul\":3080:3089   */\n      dup4\n        /* \"#utility.yul\":3076:3093   */\n      add\n        /* \"#utility.yul\":3067:3073   */\n      dup5\n        /* \"#utility.yul\":3029:3094   */\n      tag_93\n      jump\t// in\n    tag_120:\n        /* \"#utility.yul\":2891:3101   */\n      swap3\n      swap2\n      pop\n      pop\n      jump\t// out\n        /* \"#utility.yul\":3107:3420   */\n    tag_15:\n        /* \"#utility.yul\":3220:3224   */\n      0x00\n        /* \"#utility.yul\":3258:3260   */\n      0x20\n        /* \"#utility.yul\":3247:3256   */\n      dup3\n        /* \"#utility.yul\":3243:3261   */\n      add\n        /* \"#utility.yul\":3235:3261   */\n      swap1\n      pop\n        /* \"#utility.yul\":3307:3316   */\n      dup2\n        /* \"#utility.yul\":3301:3305   */\n      dup2\n        /* \"#utility.yul\":3297:3317   */\n      sub\n        /* \"#utility.yul\":3293:3294   */\n      0x00\n        /* \"#utility.yul\":3282:3291   */\n      dup4\n        /* \"#utility.yul\":3278:3295   */\n      add\n        /* \"#utility.yul\":3271:3318   */\n      mstore\n        /* \"#utility.yul\":3335:3413   */\n      tag_122\n        /* \"#utility.yul\":3408:3412   */\n      dup2\n        /* \"#utility.yul\":3399:3405   */\n      dup5\n        /* \"#utility.yul\":3335:3413   */\n      tag_97\n      jump\t// in\n    tag_122:\n        /* \"#utility.yul\":3327:3413   */\n      swap1\n      pop\n        /* \"#utility.yul\":3107:3420   */\n      swap3\n      swap2\n      pop\n      pop\n      jump\t// out\n        /* \"#utility.yul\":3426:3648   */\n    tag_25:\n        /* \"#utility.yul\":3519:3523   */\n      0x00\n        /* \"#utility.yul\":3557:3559   */\n      0x20\n        /* \"#utility.yul\":3546:3555   */\n      dup3\n        /* \"#utility.yul\":3542:3560   */\n      add\n        /* \"#utility.yul\":3534:3560   */\n      swap1\n      pop\n        /* \"#utility.yul\":3570:3641   */\n      tag_124\n        /* \"#utility.yul\":3638:3639   */\n      0x00\n        /* \"#utility.yul\":3627:3636   */\n      dup4\n        /* \"#utility.yul\":3623:3640   */\n      add\n        /* \"#utility.yul\":3614:3620   */\n      dup5\n        /* \"#utility.yul\":3570:3641   */\n      tag_107\n      jump\t// in\n    tag_124:\n        /* \"#utility.yul\":3426:3648   */\n      swap3\n      swap2\n      pop\n      pop\n      jump\t// out\n        /* \"#utility.yul\":3654:3868   */\n    tag_29:\n        /* \"#utility.yul\":3743:3747   */\n      0x00\n        /* \"#utility.yul\":3781:3783   */\n      0x20\n        /* \"#utility.yul\":3770:3779   */\n      dup3\n        /* \"#utility.yul\":3766:3784   */\n      add\n        /* \"#utility.yul\":3758:3784   */\n      swap1\n      pop\n        /* \"#utility.yul\":3794:3861   */\n      tag_126\n        /* \"#utility.yul\":3858:3859   */\n      0x00\n        /* \"#utility.yul\":3847:3856   */\n      dup4\n        /* \"#utility.yul\":3843:3860   */\n      add\n        /* \"#utility.yul\":3834:3840   */\n      dup5\n        /* \"#utility.yul\":3794:3861   */\n      tag_111\n      jump\t// in\n    tag_126:\n        /* \"#utility.yul\":3654:3868   */\n      swap3\n      swap2\n      pop\n      pop\n      jump\t// out\n        /* \"#utility.yul\":3955:4054   */\n    tag_100:\n        /* \"#utility.yul\":4007:4013   */\n      0x00\n        /* \"#utility.yul\":4041:4046   */\n      dup2\n        /* \"#utility.yul\":4035:4047   */\n      mload\n        /* \"#utility.yul\":4025:4047   */\n      swap1\n      pop\n        /* \"#utility.yul\":3955:4054   */\n      swap2\n      swap1\n      pop\n      jump\t// out\n        /* \"#utility.yul\":4060:4229   */\n    tag_102:\n        /* \"#utility.yul\":4144:4155   */\n      0x00\n        /* \"#utility.yul\":4178:4184   */\n      dup3\n        /* \"#utility.yul\":4173:4176   */\n      dup3\n        /* \"#utility.yul\":4166:4185   */\n      mstore\n        /* \"#utility.yul\":4218:4222   */\n      0x20\n        /* \"#utility.yul\":4213:4216   */\n      dup3\n        /* \"#utility.yul\":4209:4223   */\n      add\n        /* \"#utility.yul\":4194:4223   */\n      swap1\n      pop\n        /* \"#utility.yul\":4060:4229   */\n      swap3\n      swap2\n      pop\n      pop\n      jump\t// out\n        /* \"#utility.yul\":4235:4331   */\n    tag_92:\n        /* \"#utility.yul\":4272:4279   */\n      0x00\n        /* \"#utility.yul\":4301:4325   */\n      tag_132\n        /* \"#utility.yul\":4319:4324   */\n      dup3\n        /* \"#utility.yul\":4301:4325   */\n      tag_133\n      jump\t// in\n    tag_132:\n        /* \"#utility.yul\":4290:4325   */\n      swap1\n      pop\n        /* \"#utility.yul\":4235:4331   */\n      swap2\n      swap1\n      pop\n      jump\t// out\n        /* \"#utility.yul\":4337:4427   */\n    tag_96:\n        /* \"#utility.yul\":4371:4378   */\n      0x00\n        /* \"#utility.yul\":4414:4419   */\n      dup2\n        /* \"#utility.yul\":4407:4420   */\n      iszero\n        /* \"#utility.yul\":4400:4421   */\n      iszero\n        /* \"#utility.yul\":4389:4421   */\n      swap1\n      pop\n        /* \"#utility.yul\":4337:4427   */\n      swap2\n      swap1\n      pop\n      jump\t// out\n        /* \"#utility.yul\":4433:4559   */\n    tag_133:\n        /* \"#utility.yul\":4470:4477   */\n      0x00\n        /* \"#utility.yul\":4510:4552   */\n      0xffffffffffffffffffffffffffffffffffffffff\n        /* \"#utility.yul\":4503:4508   */\n      dup3\n        /* \"#utility.yul\":4499:4553   */\n      and\n        /* \"#utility.yul\":4488:4553   */\n      swap1\n      pop\n        /* \"#utility.yul\":4433:4559   */\n      swap2\n      swap1\n      pop\n      jump\t// out\n        /* \"#utility.yul\":4565:4642   */\n    tag_110:\n        /* \"#utility.yul\":4602:4609   */\n      0x00\n        /* \"#utility.yul\":4631:4636   */\n      dup2\n        /* \"#utility.yul\":4620:4636   */\n      swap1\n      pop\n        /* \"#utility.yul\":4565:4642   */\n      swap2\n      swap1\n      pop\n      jump\t// out\n        /* \"#utility.yul\":4648:4734   */\n    tag_114:\n        /* \"#utility.yul\":4683:4690   */\n      0x00\n        /* \"#utility.yul\":4723:4727   */\n      0xff\n        /* \"#utility.yul\":4716:4721   */\n      dup3\n        /* \"#utility.yul\":4712:4728   */\n      and\n        /* \"#utility.yul\":4701:4728   */\n      swap1\n      pop\n        /* \"#utility.yul\":4648:4734   */\n      swap2\n      swap1\n      pop\n      jump\t// out\n        /* \"#utility.yul\":4740:5047   */\n    tag_104:\n        /* \"#utility.yul\":4808:4809   */\n      0x00\n        /* \"#utility.yul\":4818:4931   */\n    tag_139:\n        /* \"#utility.yul\":4832:4838   */\n      dup4\n        /* \"#utility.yul\":4829:4830   */\n      dup2\n        /* \"#utility.yul\":4826:4839   */\n      lt\n        /* \"#utility.yul\":4818:4931   */\n      iszero\n      tag_141\n      jumpi\n        /* \"#utility.yul\":4917:4918   */\n      dup1\n        /* \"#utility.yul\":4912:4915   */\n      dup3\n        /* \"#utility.yul\":4908:4919   */\n      add\n        /* \"#utility.yul\":4902:4920   */\n      mload\n        /* \"#utility.yul\":4898:4899   */\n      dup2\n        /* \"#utility.yul\":4893:4896   */\n      dup5\n        /* \"#utility.yul\":4889:4900   */\n      add\n        /* \"#utility.yul\":4882:4921   */\n      mstore\n        /* \"#utility.yul\":4854:4856   */\n      0x20\n        /* \"#utility.yul\":4851:4852   */\n      dup2\n        /* \"#utility.yul\":4847:4857   */\n      add\n        /* \"#utility.yul\":4842:4857   */\n      swap1\n      pop\n        /* \"#utility.yul\":4818:4931   */\n      jump(tag_139)\n    tag_141:\n        /* \"#utility.yul\":4949:4955   */\n      dup4\n        /* \"#utility.yul\":4946:4947   */\n      dup2\n        /* \"#utility.yul\":4943:4956   */\n      gt\n        /* \"#utility.yul\":4940:5041   */\n      iszero\n      tag_142\n      jumpi\n        /* \"#utility.yul\":5029:5030   */\n      0x00\n        /* \"#utility.yul\":5020:5026   */\n      dup5\n        /* \"#utility.yul\":5015:5018   */\n      dup5\n        /* \"#utility.yul\":5011:5027   */\n      add\n        /* \"#utility.yul\":5004:5031   */\n      mstore\n        /* \"#utility.yul\":4940:5041   */\n    tag_142:\n        /* \"#utility.yul\":4789:5047   */\n      pop\n        /* \"#utility.yul\":4740:5047   */\n      pop\n      pop\n      pop\n      jump\t// out\n        /* \"#utility.yul\":5053:5373   */\n    tag_47:\n        /* \"#utility.yul\":5097:5103   */\n      0x00\n        /* \"#utility.yul\":5134:5135   */\n      0x02\n        /* \"#utility.yul\":5128:5132   */\n      dup3\n        /* \"#utility.yul\":5124:5136   */\n      div\n        /* \"#utility.yul\":5114:5136   */\n      swap1\n      pop\n        /* \"#utility.yul\":5181:5182   */\n      0x01\n        /* \"#utility.yul\":5175:5179   */\n      dup3\n        /* \"#utility.yul\":5171:5183   */\n      and\n        /* \"#utility.yul\":5202:5220   */\n      dup1\n        /* \"#utility.yul\":5192:5273   */\n      tag_144\n      jumpi\n        /* \"#utility.yul\":5258:5262   */\n      0x7f\n        /* \"#utility.yul\":5250:5256   */\n      dup3\n        /* \"#utility.yul\":5246:5263   */\n      and\n        /* \"#utility.yul\":5236:5263   */\n      swap2\n      pop\n        /* \"#utility.yul\":5192:5273   */\n    tag_144:\n        /* \"#utility.yul\":5320:5322   */\n      0x20\n        /* \"#utility.yul\":5312:5318   */\n      dup3\n        /* \"#utility.yul\":5309:5323   */\n      lt\n        /* \"#utility.yul\":5289:5307   */\n      dup2\n        /* \"#utility.yul\":5286:5324   */\n      eq\n        /* \"#utility.yul\":5283:5367   */\n      iszero\n      tag_145\n      jumpi\n        /* \"#utility.yul\":5339:5357   */\n      tag_146\n      tag_147\n      jump\t// in\n    tag_146:\n        /* \"#utility.yul\":5283:5367   */\n    tag_145:\n        /* \"#utility.yul\":5104:5373   */\n      pop\n        /* \"#utility.yul\":5053:5373   */\n      swap2\n      swap1\n      pop\n      jump\t// out\n        /* \"#utility.yul\":5379:5559   */\n    tag_147:\n        /* \"#utility.yul\":5427:5504   */\n      0x4e487b7100000000000000000000000000000000000000000000000000000000\n        /* \"#utility.yul\":5424:5425   */\n      0x00\n        /* \"#utility.yul\":5417:5505   */\n      mstore\n        /* \"#utility.yul\":5524:5528   */\n      0x22\n        /* \"#utility.yul\":5521:5522   */\n      0x04\n        /* \"#utility.yul\":5514:5529   */\n      mstore\n        /* \"#utility.yul\":5548:5552   */\n      0x24\n        /* \"#utility.yul\":5545:5546   */\n      0x00\n        /* \"#utility.yul\":5538:5553   */\n      revert\n        /* \"#utility.yul\":5688:5805   */\n    tag_77:\n        /* \"#utility.yul\":5797:5798   */\n      0x00\n        /* \"#utility.yul\":5794:5795   */\n      dup1\n        /* \"#utility.yul\":5787:5799   */\n      revert\n        /* \"#utility.yul\":5811:5913   */\n    tag_106:\n        /* \"#utility.yul\":5852:5858   */\n      0x00\n        /* \"#utility.yul\":5903:5905   */\n      0x1f\n        /* \"#utility.yul\":5899:5906   */\n      not\n        /* \"#utility.yul\":5894:5896   */\n      0x1f\n        /* \"#utility.yul\":5887:5892   */\n      dup4\n        /* \"#utility.yul\":5883:5897   */\n      add\n        /* \"#utility.yul\":5879:5907   */\n      and\n        /* \"#utility.yul\":5869:5907   */\n      swap1\n      pop\n        /* \"#utility.yul\":5811:5913   */\n      swap2\n      swap1\n      pop\n      jump\t// out\n        /* \"#utility.yul\":5919:6041   */\n    tag_69:\n        /* \"#utility.yul\":5992:6016   */\n      tag_154\n        /* \"#utility.yul\":6010:6015   */\n      dup2\n        /* \"#utility.yul\":5992:6016   */\n      tag_92\n      jump\t// in\n    tag_154:\n        /* \"#utility.yul\":5985:5990   */\n      dup2\n        /* \"#utility.yul\":5982:6017   */\n      eq\n        /* \"#utility.yul\":5972:6035   */\n      tag_155\n      jumpi\n        /* \"#utility.yul\":6031:6032   */\n      0x00\n        /* \"#utility.yul\":6028:6029   */\n      dup1\n        /* \"#utility.yul\":6021:6033   */\n      revert\n        /* \"#utility.yul\":5972:6035   */\n    tag_155:\n        /* \"#utility.yul\":5919:6041   */\n      pop\n      jump\t// out\n        /* \"#utility.yul\":6047:6169   */\n    tag_73:\n        /* \"#utility.yul\":6120:6144   */\n      tag_157\n        /* \"#utility.yul\":6138:6143   */\n      dup2\n        /* \"#utility.yul\":6120:6144   */\n      tag_110\n      jump\t// in\n    tag_157:\n        /* \"#utility.yul\":6113:6118   */\n      dup2\n        /* \"#utility.yul\":6110:6145   */\n      eq\n        /* \"#utility.yul\":6100:6163   */\n      tag_158\n      jumpi\n        /* \"#utility.yul\":6159:6160   */\n      0x00\n        /* \"#utility.yul\":6156:6157   */\n      dup1\n        /* \"#utility.yul\":6149:6161   */\n      revert\n        /* \"#utility.yul\":6100:6163   */\n    tag_158:\n        /* \"#utility.yul\":6047:6169   */\n      pop\n      jump\t// out\n\n    auxdata: 0xa26469706673582212207d2a6c16924a2eb84d8bd1661c3ce2c5574ffa566dfd5b7f1df4706aa1773e3264736f6c63430008070033\n}\n",
				"bytecode": {
					"linkReferences": {},
					"object": "60806040526004600260006101000a81548160ff021916908360ff1602179055506402540be40060035534801561003557600080fd5b50610892806100456000396000f3fe608060405234801561001057600080fd5b50600436106100885760003560e01c806370a082311161005b57806370a08231146101175780638951cf591461014757806395d89b4114610165578063dd62ed3e1461018357610088565b806306fdde031461008d578063095ea7b3146100ab57806318160ddd146100db578063313ce567146100f9575b600080fd5b6100956101b3565b6040516100a291906106bb565b60405180910390f35b6100c560048036038101906100c091906105b4565b610241565b6040516100d291906106a0565b60405180910390f35b6100e361039c565b6040516100f091906106dd565b60405180910390f35b6101016103a2565b60405161010e91906106f8565b60405180910390f35b610131600480360381019061012c9190610547565b6103b5565b60405161013e91906106dd565b60405180910390f35b61014f6103fe565b60405161015c91906106dd565b60405180910390f35b61016d610408565b60405161017a91906106bb565b60405180910390f35b61019d60048036038101906101989190610574565b610496565b6040516101aa91906106dd565b60405180910390f35b600080546101c0906107b7565b80601f01602080910402602001604051908101604052809291908181526020018280546101ec906107b7565b80156102395780601f1061020e57610100808354040283529160200191610239565b820191906000526020600020905b81548152906001019060200180831161021c57829003601f168201915b505050505081565b6000808214806102cd57506000600560003373ffffffffffffffffffffffffffffffffffffffff1673ffffffffffffffffffffffffffffffffffffffff16815260200190815260200160002060008573ffffffffffffffffffffffffffffffffffffffff1673ffffffffffffffffffffffffffffffffffffffff16815260200190815260200160002054145b6102d657600080fd5b81600560003373ffffffffffffffffffffffffffffffffffffffff1673ffffffffffffffffffffffffffffffffffffffff16815260200190815260200160002060008573ffffffffffffffffffffffffffffffffffffffff1673ffffffffffffffffffffffffffffffffffffffff168152602001908152602001600020819055507f8c5be1e5ebec7d5bd14f71427d1e84f3dd0314c0f7b2291e5b200ac8c7c3b92533848460405161038a93929190610669565b60405180910390a16001905092915050565b60035481565b600260009054906101000a900460ff1681565b6000600460008373ffffffffffffffffffffffffffffffffffffffff1673ffffffffffffffffffffffffffffffffffffffff168152602001908152602001600020549050919050565b6000600354905090565b60018054610415906107b7565b80601f0160208091040260200160405190810160405280929190818152602001828054610441906107b7565b801561048e5780601f106104635761010080835404028352916020019161048e565b820191906000526020600020905b81548152906001019060200180831161047157829003601f168201915b505050505081565b6000600560008473ffffffffffffffffffffffffffffffffffffffff1673ffffffffffffffffffffffffffffffffffffffff16815260200190815260200160002060008373ffffffffffffffffffffffffffffffffffffffff1673ffffffffffffffffffffffffffffffffffffffff16815260200190815260200160002054905092915050565b60008135905061052c8161082e565b92915050565b60008135905061054181610845565b92915050565b60006020828403121561055d5761055c610818565b5b600061056b8482850161051d565b91505092915050565b6000806040838503121561058b5761058a610818565b5b60006105998582860161051d565b92505060206105aa8582860161051d565b9150509250929050565b600080604083850312156105cb576105ca610818565b5b60006105d98582860161051d565b92505060206105ea85828601610532565b9150509250929050565b6105fd8161072f565b82525050565b61060c81610741565b82525050565b600061061d82610713565b610627818561071e565b9350610637818560208601610784565b6106408161081d565b840191505092915050565b6106548161076d565b82525050565b61066381610777565b82525050565b600060608201905061067e60008301866105f4565b61068b60208301856105f4565b610698604083018461064b565b949350505050565b60006020820190506106b56000830184610603565b92915050565b600060208201905081810360008301526106d58184610612565b905092915050565b60006020820190506106f2600083018461064b565b92915050565b600060208201905061070d600083018461065a565b92915050565b600081519050919050565b600082825260208201905092915050565b600061073a8261074d565b9050919050565b60008115159050919050565b600073ffffffffffffffffffffffffffffffffffffffff82169050919050565b6000819050919050565b600060ff82169050919050565b60005b838110156107a2578082015181840152602081019050610787565b838111156107b1576000848401525b50505050565b600060028204905060018216806107cf57607f821691505b602082108114156107e3576107e26107e9565b5b50919050565b7f4e487b7100000000000000000000000000000000000000000000000000000000600052602260045260246000fd5b600080fd5b6000601f19601f8301169050919050565b6108378161072f565b811461084257600080fd5b50565b61084e8161076d565b811461085957600080fd5b5056fea26469706673582212207d2a6c16924a2eb84d8bd1661c3ce2c5574ffa566dfd5b7f1df4706aa1773e3264736f6c63430008070033",
					"opcodes": "PUSH1 0x80 PUSH1 0x40 MSTORE PUSH1 0x4 PUSH1 0x2 PUSH1 0x0 PUSH2 0x100 EXP DUP2 SLOAD DUP2 PUSH1 0xFF MUL NOT AND SWAP1 DUP4 PUSH1 0xFF AND MUL OR SWAP1 SSTORE POP PUSH5 0x2540BE400 PUSH1 0x3 SSTORE CALLVALUE DUP1 ISZERO PUSH2 0x35 JUMPI PUSH1 0x0 DUP1 REVERT JUMPDEST POP PUSH2 0x892 DUP1 PUSH2 0x45 PUSH1 0x0 CODECOPY PUSH1 0x0 RETURN INVALID PUSH1 0x80 PUSH1 0x40 MSTORE CALLVALUE DUP1 ISZERO PUSH2 0x10 JUMPI PUSH1 0x0 DUP1 REVERT JUMPDEST POP PUSH1 0x4 CALLDATASIZE LT PUSH2 0x88 JUMPI PUSH1 0x0 CALLDATALOAD PUSH1 0xE0 SHR DUP1 PUSH4 0x70A08231 GT PUSH2 0x5B JUMPI DUP1 PUSH4 0x70A08231 EQ PUSH2 0x117 JUMPI DUP1 PUSH4 0x8951CF59 EQ PUSH2 0x147 JUMPI DUP1 PUSH4 0x95D89B41 EQ PUSH2 0x165 JUMPI DUP1 PUSH4 0xDD62ED3E EQ PUSH2 0x183 JUMPI PUSH2 0x88 JUMP JUMPDEST DUP1 PUSH4 0x6FDDE03 EQ PUSH2 0x8D JUMPI DUP1 PUSH4 0x95EA7B3 EQ PUSH2 0xAB JUMPI DUP1 PUSH4 0x18160DDD EQ PUSH2 0xDB JUMPI DUP1 PUSH4 0x313CE567 EQ PUSH2 0xF9 JUMPI JUMPDEST PUSH1 0x0 DUP1 REVERT JUMPDEST PUSH2 0x95 PUSH2 0x1B3 JUMP JUMPDEST PUSH1 0x40 MLOAD PUSH2 0xA2 SWAP2 SWAP1 PUSH2 0x6BB JUMP JUMPDEST PUSH1 0x40 MLOAD DUP1 SWAP2 SUB SWAP1 RETURN JUMPDEST PUSH2 0xC5 PUSH1 0x4 DUP1 CALLDATASIZE SUB DUP2 ADD SWAP1 PUSH2 0xC0 SWAP2 SWAP1 PUSH2 0x5B4 JUMP JUMPDEST PUSH2 0x241 JUMP JUMPDEST PUSH1 0x40 MLOAD PUSH2 0xD2 SWAP2 SWAP1 PUSH2 0x6A0 JUMP JUMPDEST PUSH1 0x40 MLOAD DUP1 SWAP2 SUB SWAP1 RETURN JUMPDEST PUSH2 0xE3 PUSH2 0x39C JUMP JUMPDEST PUSH1 0x40 MLOAD PUSH2 0xF0 SWAP2 SWAP1 PUSH2 0x6DD JUMP JUMPDEST PUSH1 0x40 MLOAD DUP1 SWAP2 SUB SWAP1 RETURN JUMPDEST PUSH2 0x101 PUSH2 0x3A2 JUMP JUMPDEST PUSH1 0x40 MLOAD PUSH2 0x10E SWAP2 SWAP1 PUSH2 0x6F8 JUMP JUMPDEST PUSH1 0x40 MLOAD DUP1 SWAP2 SUB SWAP1 RETURN JUMPDEST PUSH2 0x131 PUSH1 0x4 DUP1 CALLDATASIZE SUB DUP2 ADD SWAP1 PUSH2 0x12C SWAP2 SWAP1 PUSH2 0x547 JUMP JUMPDEST PUSH2 0x3B5 JUMP JUMPDEST PUSH1 0x40 MLOAD PUSH2 0x13E SWAP2 SWAP1 PUSH2 0x6DD JUMP JUMPDEST PUSH1 0x40 MLOAD DUP1 SWAP2 SUB SWAP1 RETURN JUMPDEST PUSH2 0x14F PUSH2 0x3FE JUMP JUMPDEST PUSH1 0x40 MLOAD PUSH2 0x15C SWAP2 SWAP1 PUSH2 0x6DD JUMP JUMPDEST PUSH1 0x40 MLOAD DUP1 SWAP2 SUB SWAP1 RETURN JUMPDEST PUSH2 0x16D PUSH2 0x408 JUMP JUMPDEST PUSH1 0x40 MLOAD PUSH2 0x17A SWAP2 SWAP1 PUSH2 0x6BB JUMP JUMPDEST PUSH1 0x40 MLOAD DUP1 SWAP2 SUB SWAP1 RETURN JUMPDEST PUSH2 0x19D PUSH1 0x4 DUP1 CALLDATASIZE SUB DUP2 ADD SWAP1 PUSH2 0x198 SWAP2 SWAP1 PUSH2 0x574 JUMP JUMPDEST PUSH2 0x496 JUMP JUMPDEST PUSH1 0x40 MLOAD PUSH2 0x1AA SWAP2 SWAP1 PUSH2 0x6DD JUMP JUMPDEST PUSH1 0x40 MLOAD DUP1 SWAP2 SUB SWAP1 RETURN JUMPDEST PUSH1 0x0 DUP1 SLOAD PUSH2 0x1C0 SWAP1 PUSH2 0x7B7 JUMP JUMPDEST DUP1 PUSH1 0x1F ADD PUSH1 0x20 DUP1 SWAP2 DIV MUL PUSH1 0x20 ADD PUSH1 0x40 MLOAD SWAP1 DUP2 ADD PUSH1 0x40 MSTORE DUP1 SWAP3 SWAP2 SWAP1 DUP2 DUP2 MSTORE PUSH1 0x20 ADD DUP3 DUP1 SLOAD PUSH2 0x1EC SWAP1 PUSH2 0x7B7 JUMP JUMPDEST DUP1 ISZERO PUSH2 0x239 JUMPI DUP1 PUSH1 0x1F LT PUSH2 0x20E JUMPI PUSH2 0x100 DUP1 DUP4 SLOAD DIV MUL DUP4 MSTORE SWAP2 PUSH1 0x20 ADD SWAP2 PUSH2 0x239 JUMP JUMPDEST DUP3 ADD SWAP2 SWAP1 PUSH1 0x0 MSTORE PUSH1 0x20 PUSH1 0x0 KECCAK256 SWAP1 JUMPDEST DUP2 SLOAD DUP2 MSTORE SWAP1 PUSH1 0x1 ADD SWAP1 PUSH1 0x20 ADD DUP1 DUP4 GT PUSH2 0x21C JUMPI DUP3 SWAP1 SUB PUSH1 0x1F AND DUP3 ADD SWAP2 JUMPDEST POP POP POP POP POP DUP2 JUMP JUMPDEST PUSH1 0x0 DUP1 DUP3 EQ DUP1 PUSH2 0x2CD JUMPI POP PUSH1 0x0 PUSH1 0x5 PUSH1 0x0 CALLER PUSH20 0xFFFFFFFFFFFFFFFFFFFFFFFFFFFFFFFFFFFFFFFF AND PUSH20 0xFFFFFFFFFFFFFFFFFFFFFFFFFFFFFFFFFFFFFFFF AND DUP2 MSTORE PUSH1 0x20 ADD SWAP1 DUP2 MSTORE PUSH1 0x20 ADD PUSH1 0x0 KECCAK256 PUSH1 0x0 DUP6 PUSH20 0xFFFFFFFFFFFFFFFFFFFFFFFFFFFFFFFFFFFFFFFF AND PUSH20 0xFFFFFFFFFFFFFFFFFFFFFFFFFFFFFFFFFFFFFFFF AND DUP2 MSTORE PUSH1 0x20 ADD SWAP1 DUP2 MSTORE PUSH1 0x20 ADD PUSH1 0x0 KECCAK256 SLOAD EQ JUMPDEST PUSH2 0x2D6 JUMPI PUSH1 0x0 DUP1 REVERT JUMPDEST DUP2 PUSH1 0x5 PUSH1 0x0 CALLER PUSH20 0xFFFFFFFFFFFFFFFFFFFFFFFFFFFFFFFFFFFFFFFF AND PUSH20 0xFFFFFFFFFFFFFFFFFFFFFFFFFFFFFFFFFFFFFFFF AND DUP2 MSTORE PUSH1 0x20 ADD SWAP1 DUP2 MSTORE PUSH1 0x20 ADD PUSH1 0x0 KECCAK256 PUSH1 0x0 DUP6 PUSH20 0xFFFFFFFFFFFFFFFFFFFFFFFFFFFFFFFFFFFFFFFF AND PUSH20 0xFFFFFFFFFFFFFFFFFFFFFFFFFFFFFFFFFFFFFFFF AND DUP2 MSTORE PUSH1 0x20 ADD SWAP1 DUP2 MSTORE PUSH1 0x20 ADD PUSH1 0x0 KECCAK256 DUP2 SWAP1 SSTORE POP PUSH32 0x8C5BE1E5EBEC7D5BD14F71427D1E84F3DD0314C0F7B2291E5B200AC8C7C3B925 CALLER DUP5 DUP5 PUSH1 0x40 MLOAD PUSH2 0x38A SWAP4 SWAP3 SWAP2 SWAP1 PUSH2 0x669 JUMP JUMPDEST PUSH1 0x40 MLOAD DUP1 SWAP2 SUB SWAP1 LOG1 PUSH1 0x1 SWAP1 POP SWAP3 SWAP2 POP POP JUMP JUMPDEST PUSH1 0x3 SLOAD DUP2 JUMP JUMPDEST PUSH1 0x2 PUSH1 0x0 SWAP1 SLOAD SWAP1 PUSH2 0x100 EXP SWAP1 DIV PUSH1 0xFF AND DUP2 JUMP JUMPDEST PUSH1 0x0 PUSH1 0x4 PUSH1 0x0 DUP4 PUSH20 0xFFFFFFFFFFFFFFFFFFFFFFFFFFFFFFFFFFFFFFFF AND PUSH20 0xFFFFFFFFFFFFFFFFFFFFFFFFFFFFFFFFFFFFFFFF AND DUP2 MSTORE PUSH1 0x20 ADD SWAP1 DUP2 MSTORE PUSH1 0x20 ADD PUSH1 0x0 KECCAK256 SLOAD SWAP1 POP SWAP2 SWAP1 POP JUMP JUMPDEST PUSH1 0x0 PUSH1 0x3 SLOAD SWAP1 POP SWAP1 JUMP JUMPDEST PUSH1 0x1 DUP1 SLOAD PUSH2 0x415 SWAP1 PUSH2 0x7B7 JUMP JUMPDEST DUP1 PUSH1 0x1F ADD PUSH1 0x20 DUP1 SWAP2 DIV MUL PUSH1 0x20 ADD PUSH1 0x40 MLOAD SWAP1 DUP2 ADD PUSH1 0x40 MSTORE DUP1 SWAP3 SWAP2 SWAP1 DUP2 DUP2 MSTORE PUSH1 0x20 ADD DUP3 DUP1 SLOAD PUSH2 0x441 SWAP1 PUSH2 0x7B7 JUMP JUMPDEST DUP1 ISZERO PUSH2 0x48E JUMPI DUP1 PUSH1 0x1F LT PUSH2 0x463 JUMPI PUSH2 0x100 DUP1 DUP4 SLOAD DIV MUL DUP4 MSTORE SWAP2 PUSH1 0x20 ADD SWAP2 PUSH2 0x48E JUMP JUMPDEST DUP3 ADD SWAP2 SWAP1 PUSH1 0x0 MSTORE PUSH1 0x20 PUSH1 0x0 KECCAK256 SWAP1 JUMPDEST DUP2 SLOAD DUP2 MSTORE SWAP1 PUSH1 0x1 ADD SWAP1 PUSH1 0x20 ADD DUP1 DUP4 GT PUSH2 0x471 JUMPI DUP3 SWAP1 SUB PUSH1 0x1F AND DUP3 ADD SWAP2 JUMPDEST POP POP POP POP POP DUP2 JUMP JUMPDEST PUSH1 0x0 PUSH1 0x5 PUSH1 0x0 DUP5 PUSH20 0xFFFFFFFFFFFFFFFFFFFFFFFFFFFFFFFFFFFFFFFF AND PUSH20 0xFFFFFFFFFFFFFFFFFFFFFFFFFFFFFFFFFFFFFFFF AND DUP2 MSTORE PUSH1 0x20 ADD SWAP1 DUP2 MSTORE PUSH1 0x20 ADD PUSH1 0x0 KECCAK256 PUSH1 0x0 DUP4 PUSH20 0xFFFFFFFFFFFFFFFFFFFFFFFFFFFFFFFFFFFFFFFF AND PUSH20 0xFFFFFFFFFFFFFFFFFFFFFFFFFFFFFFFFFFFFFFFF AND DUP2 MSTORE PUSH1 0x20 ADD SWAP1 DUP2 MSTORE PUSH1 0x20 ADD PUSH1 0x0 KECCAK256 SLOAD SWAP1 POP SWAP3 SWAP2 POP POP JUMP JUMPDEST PUSH1 0x0 DUP2 CALLDATALOAD SWAP1 POP PUSH2 0x52C DUP2 PUSH2 0x82E JUMP JUMPDEST SWAP3 SWAP2 POP POP JUMP JUMPDEST PUSH1 0x0 DUP2 CALLDATALOAD SWAP1 POP PUSH2 0x541 DUP2 PUSH2 0x845 JUMP JUMPDEST SWAP3 SWAP2 POP POP JUMP JUMPDEST PUSH1 0x0 PUSH1 0x20 DUP3 DUP5 SUB SLT ISZERO PUSH2 0x55D JUMPI PUSH2 0x55C PUSH2 0x818 JUMP JUMPDEST JUMPDEST PUSH1 0x0 PUSH2 0x56B DUP5 DUP3 DUP6 ADD PUSH2 0x51D JUMP JUMPDEST SWAP2 POP POP SWAP3 SWAP2 POP POP JUMP JUMPDEST PUSH1 0x0 DUP1 PUSH1 0x40 DUP4 DUP6 SUB SLT ISZERO PUSH2 0x58B JUMPI PUSH2 0x58A PUSH2 0x818 JUMP JUMPDEST JUMPDEST PUSH1 0x0 PUSH2 0x599 DUP6 DUP3 DUP7 ADD PUSH2 0x51D JUMP JUMPDEST SWAP3 POP POP PUSH1 0x20 PUSH2 0x5AA DUP6 DUP3 DUP7 ADD PUSH2 0x51D JUMP JUMPDEST SWAP2 POP POP SWAP3 POP SWAP3 SWAP1 POP JUMP JUMPDEST PUSH1 0x0 DUP1 PUSH1 0x40 DUP4 DUP6 SUB SLT ISZERO PUSH2 0x5CB JUMPI PUSH2 0x5CA PUSH2 0x818 JUMP JUMPDEST JUMPDEST PUSH1 0x0 PUSH2 0x5D9 DUP6 DUP3 DUP7 ADD PUSH2 0x51D JUMP JUMPDEST SWAP3 POP POP PUSH1 0x20 PUSH2 0x5EA DUP6 DUP3 DUP7 ADD PUSH2 0x532 JUMP JUMPDEST SWAP2 POP POP SWAP3 POP SWAP3 SWAP1 POP JUMP JUMPDEST PUSH2 0x5FD DUP2 PUSH2 0x72F JUMP JUMPDEST DUP3 MSTORE POP POP JUMP JUMPDEST PUSH2 0x60C DUP2 PUSH2 0x741 JUMP JUMPDEST DUP3 MSTORE POP POP JUMP JUMPDEST PUSH1 0x0 PUSH2 0x61D DUP3 PUSH2 0x713 JUMP JUMPDEST PUSH2 0x627 DUP2 DUP6 PUSH2 0x71E JUMP JUMPDEST SWAP4 POP PUSH2 0x637 DUP2 DUP6 PUSH1 0x20 DUP7 ADD PUSH2 0x784 JUMP JUMPDEST PUSH2 0x640 DUP2 PUSH2 0x81D JUMP JUMPDEST DUP5 ADD SWAP2 POP POP SWAP3 SWAP2 POP POP JUMP JUMPDEST PUSH2 0x654 DUP2 PUSH2 0x76D JUMP JUMPDEST DUP3 MSTORE POP POP JUMP JUMPDEST PUSH2 0x663 DUP2 PUSH2 0x777 JUMP JUMPDEST DUP3 MSTORE POP POP JUMP JUMPDEST PUSH1 0x0 PUSH1 0x60 DUP3 ADD SWAP1 POP PUSH2 0x67E PUSH1 0x0 DUP4 ADD DUP7 PUSH2 0x5F4 JUMP JUMPDEST PUSH2 0x68B PUSH1 0x20 DUP4 ADD DUP6 PUSH2 0x5F4 JUMP JUMPDEST PUSH2 0x698 PUSH1 0x40 DUP4 ADD DUP5 PUSH2 0x64B JUMP JUMPDEST SWAP5 SWAP4 POP POP POP POP JUMP JUMPDEST PUSH1 0x0 PUSH1 0x20 DUP3 ADD SWAP1 POP PUSH2 0x6B5 PUSH1 0x0 DUP4 ADD DUP5 PUSH2 0x603 JUMP JUMPDEST SWAP3 SWAP2 POP POP JUMP JUMPDEST PUSH1 0x0 PUSH1 0x20 DUP3 ADD SWAP1 POP DUP2 DUP2 SUB PUSH1 0x0 DUP4 ADD MSTORE PUSH2 0x6D5 DUP2 DUP5 PUSH2 0x612 JUMP JUMPDEST SWAP1 POP SWAP3 SWAP2 POP POP JUMP JUMPDEST PUSH1 0x0 PUSH1 0x20 DUP3 ADD SWAP1 POP PUSH2 0x6F2 PUSH1 0x0 DUP4 ADD DUP5 PUSH2 0x64B JUMP JUMPDEST SWAP3 SWAP2 POP POP JUMP JUMPDEST PUSH1 0x0 PUSH1 0x20 DUP3 ADD SWAP1 POP PUSH2 0x70D PUSH1 0x0 DUP4 ADD DUP5 PUSH2 0x65A JUMP JUMPDEST SWAP3 SWAP2 POP POP JUMP JUMPDEST PUSH1 0x0 DUP2 MLOAD SWAP1 POP SWAP2 SWAP1 POP JUMP JUMPDEST PUSH1 0x0 DUP3 DUP3 MSTORE PUSH1 0x20 DUP3 ADD SWAP1 POP SWAP3 SWAP2 POP POP JUMP JUMPDEST PUSH1 0x0 PUSH2 0x73A DUP3 PUSH2 0x74D JUMP JUMPDEST SWAP1 POP SWAP2 SWAP1 POP JUMP JUMPDEST PUSH1 0x0 DUP2 ISZERO ISZERO SWAP1 POP SWAP2 SWAP1 POP JUMP JUMPDEST PUSH1 0x0 PUSH20 0xFFFFFFFFFFFFFFFFFFFFFFFFFFFFFFFFFFFFFFFF DUP3 AND SWAP1 POP SWAP2 SWAP1 POP JUMP JUMPDEST PUSH1 0x0 DUP2 SWAP1 POP SWAP2 SWAP1 POP JUMP JUMPDEST PUSH1 0x0 PUSH1 0xFF DUP3 AND SWAP1 POP SWAP2 SWAP1 POP JUMP JUMPDEST PUSH1 0x0 JUMPDEST DUP4 DUP2 LT ISZERO PUSH2 0x7A2 JUMPI DUP1 DUP3 ADD MLOAD DUP2 DUP5 ADD MSTORE PUSH1 0x20 DUP2 ADD SWAP1 POP PUSH2 0x787 JUMP JUMPDEST DUP4 DUP2 GT ISZERO PUSH2 0x7B1 JUMPI PUSH1 0x0 DUP5 DUP5 ADD MSTORE JUMPDEST POP POP POP POP JUMP JUMPDEST PUSH1 0x0 PUSH1 0x2 DUP3 DIV SWAP1 POP PUSH1 0x1 DUP3 AND DUP1 PUSH2 0x7CF JUMPI PUSH1 0x7F DUP3 AND SWAP2 POP JUMPDEST PUSH1 0x20 DUP3 LT DUP2 EQ ISZERO PUSH2 0x7E3 JUMPI PUSH2 0x7E2 PUSH2 0x7E9 JUMP JUMPDEST JUMPDEST POP SWAP2 SWAP1 POP JUMP JUMPDEST PUSH32 0x4E487B7100000000000000000000000000000000000000000000000000000000 PUSH1 0x0 MSTORE PUSH1 0x22 PUSH1 0x4 MSTORE PUSH1 0x24 PUSH1 0x0 REVERT JUMPDEST PUSH1 0x0 DUP1 REVERT JUMPDEST PUSH1 0x0 PUSH1 0x1F NOT PUSH1 0x1F DUP4 ADD AND SWAP1 POP SWAP2 SWAP1 POP JUMP JUMPDEST PUSH2 0x837 DUP2 PUSH2 0x72F JUMP JUMPDEST DUP2 EQ PUSH2 0x842 JUMPI PUSH1 0x0 DUP1 REVERT JUMPDEST POP JUMP JUMPDEST PUSH2 0x84E DUP2 PUSH2 0x76D JUMP JUMPDEST DUP2 EQ PUSH2 0x859 JUMPI PUSH1 0x0 DUP1 REVERT JUMPDEST POP JUMP INVALID LOG2 PUSH5 0x6970667358 0x22 SLT KECCAK256 PUSH30 0x2A6C16924A2EB84D8BD1661C3CE2C5574FFA566DFD5B7F1DF4706AA1773E ORIGIN PUSH5 0x736F6C6343 STOP ADDMOD SMOD STOP CALLER "
				},
				"gasEstimates": {
					"creation": {
						"codeDepositCost": "438800",
						"executionCost": "46847",
						"totalCost": "485647"
					},
					"external": {
						"allowance(address,address)": "infinite",
						"approve(address,uint256)": "infinite",
						"balanceOf(address)": "2841",
						"decimals()": "2538",
						"name()": "infinite",
						"symbol()": "infinite",
						"totalSupply()": "2474",
						"viewtotalSupply()": "2459"
					}
				},
				"methodIdentifiers": {
					"allowance(address,address)": "dd62ed3e",
					"approve(address,uint256)": "095ea7b3",
					"balanceOf(address)": "70a08231",
					"decimals()": "313ce567",
					"name()": "06fdde03",
					"symbol()": "95d89b41",
					"totalSupply()": "18160ddd",
					"viewtotalSupply()": "8951cf59"
				}
			},
			"storageLayout": {
				"storage": [
					{
						"astId": 207,
						"contract": "meta-mall/contracts/nft-loan.sol:ngt",
						"label": "name",
						"offset": 0,
						"slot": "0",
						"type": "t_string_storage"
					},
					{
						"astId": 209,
						"contract": "meta-mall/contracts/nft-loan.sol:ngt",
						"label": "symbol",
						"offset": 0,
						"slot": "1",
						"type": "t_string_storage"
					},
					{
						"astId": 212,
						"contract": "meta-mall/contracts/nft-loan.sol:ngt",
						"label": "decimals",
						"offset": 0,
						"slot": "2",
						"type": "t_uint8"
					},
					{
						"astId": 215,
						"contract": "meta-mall/contracts/nft-loan.sol:ngt",
						"label": "totalSupply",
						"offset": 0,
						"slot": "3",
						"type": "t_uint256"
					},
					{
						"astId": 219,
						"contract": "meta-mall/contracts/nft-loan.sol:ngt",
						"label": "balances",
						"offset": 0,
						"slot": "4",
						"type": "t_mapping(t_address,t_uint256)"
					},
					{
						"astId": 225,
						"contract": "meta-mall/contracts/nft-loan.sol:ngt",
						"label": "allowed",
						"offset": 0,
						"slot": "5",
						"type": "t_mapping(t_address,t_mapping(t_address,t_uint256))"
					}
				],
				"types": {
					"t_address": {
						"encoding": "inplace",
						"label": "address",
						"numberOfBytes": "20"
					},
					"t_mapping(t_address,t_mapping(t_address,t_uint256))": {
						"encoding": "mapping",
						"key": "t_address",
						"label": "mapping(address => mapping(address => uint256))",
						"numberOfBytes": "32",
						"value": "t_mapping(t_address,t_uint256)"
					},
					"t_mapping(t_address,t_uint256)": {
						"encoding": "mapping",
						"key": "t_address",
						"label": "mapping(address => uint256)",
						"numberOfBytes": "32",
						"value": "t_uint256"
					},
					"t_string_storage": {
						"encoding": "bytes",
						"label": "string",
						"numberOfBytes": "32"
					},
					"t_uint256": {
						"encoding": "inplace",
						"label": "uint256",
						"numberOfBytes": "32"
					},
					"t_uint8": {
						"encoding": "inplace",
						"label": "uint8",
						"numberOfBytes": "1"
					}
				}
			},
			"userdoc": {
				"kind": "user",
				"methods": {},
				"version": 1
			}
		}
	}
}