{
	"meta-mall/contracts/nft-loan.sol": {
		"NGT": {
			"abi": [
				{
					"inputs": [
						{
							"internalType": "address",
							"name": "_owner",
							"type": "address"
						},
						{
							"internalType": "address",
							"name": "_nftContract",
							"type": "address"
						}
					],
					"stateMutability": "nonpayable",
					"type": "constructor"
				},
				{
					"anonymous": false,
					"inputs": [
						{
							"indexed": false,
							"internalType": "address",
							"name": "owner",
							"type": "address"
						},
						{
							"indexed": false,
							"internalType": "address",
							"name": "spender",
							"type": "address"
						},
						{
							"indexed": false,
							"internalType": "uint256",
							"name": "value",
							"type": "uint256"
						}
					],
					"name": "Approval",
					"type": "event"
				},
				{
					"anonymous": false,
					"inputs": [
						{
							"indexed": false,
							"internalType": "uint8",
							"name": "status",
							"type": "uint8"
						}
					],
					"name": "ChangeMarketStatusEvent",
					"type": "event"
				},
				{
					"anonymous": false,
					"inputs": [
						{
							"indexed": true,
							"internalType": "address",
							"name": "from",
							"type": "address"
						},
						{
							"indexed": true,
							"internalType": "uint256",
							"name": "tokenId",
							"type": "uint256"
						},
						{
							"indexed": false,
							"internalType": "uint256",
							"name": "receivedTime",
							"type": "uint256"
						}
					],
					"name": "TokenReceived",
					"type": "event"
				},
				{
					"anonymous": false,
					"inputs": [
						{
							"indexed": false,
							"internalType": "address",
							"name": "owner",
							"type": "address"
						},
						{
							"indexed": false,
							"internalType": "address",
							"name": "spender",
							"type": "address"
						},
						{
							"indexed": false,
							"internalType": "uint256",
							"name": "value",
							"type": "uint256"
						}
					],
					"name": "Transfer",
					"type": "event"
				},
				{
					"inputs": [
						{
							"internalType": "address",
							"name": "_owner",
							"type": "address"
						},
						{
							"internalType": "address",
							"name": "_spender",
							"type": "address"
						}
					],
					"name": "allowance",
					"outputs": [
						{
							"internalType": "uint256",
							"name": "remaining",
							"type": "uint256"
						}
					],
					"stateMutability": "view",
					"type": "function"
				},
				{
					"inputs": [
						{
							"internalType": "address",
							"name": "_spender",
							"type": "address"
						},
						{
							"internalType": "uint256",
							"name": "_value",
							"type": "uint256"
						}
					],
					"name": "approve",
					"outputs": [
						{
							"internalType": "bool",
							"name": "success",
							"type": "bool"
						}
					],
					"stateMutability": "nonpayable",
					"type": "function"
				},
				{
					"inputs": [
						{
							"internalType": "address",
							"name": "_owner",
							"type": "address"
						}
					],
					"name": "balanceOf",
					"outputs": [
						{
							"internalType": "uint256",
							"name": "balance",
							"type": "uint256"
						}
					],
					"stateMutability": "view",
					"type": "function"
				},
				{
					"inputs": [],
					"name": "decimals",
					"outputs": [
						{
							"internalType": "uint8",
							"name": "",
							"type": "uint8"
						}
					],
					"stateMutability": "view",
					"type": "function"
				},
				{
					"inputs": [
						{
							"internalType": "address",
							"name": "user",
							"type": "address"
						}
					],
					"name": "loansCount",
					"outputs": [
						{
							"internalType": "uint256",
							"name": "",
							"type": "uint256"
						}
					],
					"stateMutability": "view",
					"type": "function"
				},
				{
					"inputs": [
						{
							"internalType": "address",
							"name": "user",
							"type": "address"
						}
					],
					"name": "loansList",
					"outputs": [
						{
							"components": [
								{
									"internalType": "uint256",
									"name": "tokenId",
									"type": "uint256"
								},
								{
									"internalType": "uint256",
									"name": "receivedTime",
									"type": "uint256"
								},
								{
									"internalType": "uint256",
									"name": "flag",
									"type": "uint256"
								}
							],
							"internalType": "struct NGT.TokenData[]",
							"name": "",
							"type": "tuple[]"
						}
					],
					"stateMutability": "view",
					"type": "function"
				},
				{
					"inputs": [],
					"name": "name",
					"outputs": [
						{
							"internalType": "string",
							"name": "",
							"type": "string"
						}
					],
					"stateMutability": "view",
					"type": "function"
				},
				{
					"inputs": [],
					"name": "nftContract",
					"outputs": [
						{
							"internalType": "contract IERC721",
							"name": "",
							"type": "address"
						}
					],
					"stateMutability": "view",
					"type": "function"
				},
				{
					"inputs": [
						{
							"internalType": "address",
							"name": "operator",
							"type": "address"
						},
						{
							"internalType": "address",
							"name": "from",
							"type": "address"
						},
						{
							"internalType": "uint256",
							"name": "tokenId",
							"type": "uint256"
						},
						{
							"internalType": "bytes",
							"name": "data",
							"type": "bytes"
						}
					],
					"name": "onERC721Received",
					"outputs": [
						{
							"internalType": "bytes4",
							"name": "",
							"type": "bytes4"
						}
					],
					"stateMutability": "nonpayable",
					"type": "function"
				},
				{
					"inputs": [
						{
							"internalType": "uint256",
							"name": "_tokenId",
							"type": "uint256"
						}
					],
					"name": "ownerOf",
					"outputs": [
						{
							"internalType": "address",
							"name": "",
							"type": "address"
						}
					],
					"stateMutability": "nonpayable",
					"type": "function"
				},
				{
					"inputs": [
						{
							"internalType": "address",
							"name": "",
							"type": "address"
						},
						{
							"internalType": "uint256",
							"name": "",
							"type": "uint256"
						}
					],
					"name": "receivedTokens",
					"outputs": [
						{
							"internalType": "uint256",
							"name": "tokenId",
							"type": "uint256"
						},
						{
							"internalType": "uint256",
							"name": "receivedTime",
							"type": "uint256"
						},
						{
							"internalType": "uint256",
							"name": "flag",
							"type": "uint256"
						}
					],
					"stateMutability": "view",
					"type": "function"
				},
				{
					"inputs": [],
					"name": "symbol",
					"outputs": [
						{
							"internalType": "string",
							"name": "",
							"type": "string"
						}
					],
					"stateMutability": "view",
					"type": "function"
				},
				{
					"inputs": [],
					"name": "totalSupply",
					"outputs": [
						{
							"internalType": "uint256",
							"name": "",
							"type": "uint256"
						}
					],
					"stateMutability": "view",
					"type": "function"
				},
				{
					"inputs": [
						{
							"internalType": "address",
							"name": "_to",
							"type": "address"
						},
						{
							"internalType": "uint256",
							"name": "_value",
							"type": "uint256"
						}
					],
					"name": "transfer",
					"outputs": [
						{
							"internalType": "bool",
							"name": "success",
							"type": "bool"
						}
					],
					"stateMutability": "payable",
					"type": "function"
				},
				{
					"inputs": [
						{
							"internalType": "address",
							"name": "_from",
							"type": "address"
						},
						{
							"internalType": "address",
							"name": "_to",
							"type": "address"
						},
						{
							"internalType": "uint256",
							"name": "_value",
							"type": "uint256"
						}
					],
					"name": "transferFrom",
					"outputs": [
						{
							"internalType": "bool",
							"name": "success",
							"type": "bool"
						}
					],
					"stateMutability": "payable",
					"type": "function"
				},
				{
					"inputs": [],
					"name": "viewtotalSupply",
					"outputs": [
						{
							"internalType": "uint256",
							"name": "",
							"type": "uint256"
						}
					],
					"stateMutability": "view",
					"type": "function"
				},
				{
					"inputs": [
						{
							"internalType": "address",
							"name": "to",
							"type": "address"
						},
						{
							"internalType": "uint256",
							"name": "_tokenId",
							"type": "uint256"
						}
					],
					"name": "withdrawNFT",
					"outputs": [],
					"stateMutability": "payable",
					"type": "function"
				}
			],
			"devdoc": {
				"kind": "dev",
				"methods": {
					"onERC721Received(address,address,uint256,bytes)": {
						"details": "Whenever an {IERC721} `tokenId` token is transferred to this contract via {IERC721-safeTransferFrom} by `operator` from `from`, this function is called. It must return its Solidity selector to confirm the token transfer. If any other value is returned or the interface is not implemented by the recipient, the transfer will be reverted. The selector can be obtained in Solidity with `IERC721Receiver.onERC721Received.selector`."
					}
				},
				"version": 1
			},
			"evm": {
				"assembly": "    /* \"meta-mall/contracts/nft-loan.sol\":1331:5835  contract NGT is ngt,IERC721Receiver{... */\n  mstore(0x40, 0x80)\n    /* \"meta-mall/contracts/nft-loan.sol\":264:265  4 */\n  0x04\n    /* \"meta-mall/contracts/nft-loan.sol\":239:265  uint8  public decimals = 4 */\n  0x02\n  exp(0x0100, 0x00)\n  dup2\n  sload\n  dup2\n  0xff\n  mul\n  not\n  and\n  swap1\n  dup4\n  0xff\n  and\n  mul\n  or\n  swap1\n  sstore\n  pop\n    /* \"meta-mall/contracts/nft-loan.sol\":301:312  10000000000 */\n  0x02540be400\n    /* \"meta-mall/contracts/nft-loan.sol\":271:312  uint256 public  totalSupply = 10000000000 */\n  0x03\n  sstore\n    /* \"meta-mall/contracts/nft-loan.sol\":1863:2333  constructor(... */\n  callvalue\n  dup1\n  iszero\n  tag_1\n  jumpi\n  0x00\n  dup1\n  revert\ntag_1:\n  pop\n  mload(0x40)\n  sub(codesize, bytecodeSize)\n  dup1\n  bytecodeSize\n  dup4\n  codecopy\n  dup2\n  dup2\n  add\n  0x40\n  mstore\n  dup2\n  add\n  swap1\n  tag_2\n  swap2\n  swap1\n  tag_3\n  jump\t// in\ntag_2:\n    /* \"meta-mall/contracts/nft-loan.sol\":1939:1958  uint256 totalSupply */\n  0x00\n    /* \"meta-mall/contracts/nft-loan.sol\":1989:1997  decimals */\n  0x02\n  0x00\n  swap1\n  sload\n  swap1\n  0x0100\n  exp\n  swap1\n  div\n  0xff\n  and\n    /* \"meta-mall/contracts/nft-loan.sol\":1981:1998  uint256(decimals) */\n  0xff\n  and\n    /* \"meta-mall/contracts/nft-loan.sol\":1975:1977  10 */\n  0x0a\n    /* \"meta-mall/contracts/nft-loan.sol\":1975:1998  10 ** uint256(decimals) */\n  tag_6\n  swap2\n  swap1\n  tag_7\n  jump\t// in\ntag_6:\n    /* \"meta-mall/contracts/nft-loan.sol\":1961:1972  totalSupply */\n  sload(0x03)\n    /* \"meta-mall/contracts/nft-loan.sol\":1961:1998  totalSupply * 10 ** uint256(decimals) */\n  tag_8\n  swap2\n  swap1\n  tag_9\n  jump\t// in\ntag_8:\n    /* \"meta-mall/contracts/nft-loan.sol\":1939:1998  uint256 totalSupply = totalSupply * 10 ** uint256(decimals) */\n  swap1\n  pop\n    /* \"meta-mall/contracts/nft-loan.sol\":2051:2062  totalSupply */\n  dup1\n    /* \"meta-mall/contracts/nft-loan.sol\":2031:2039  balances */\n  0x04\n    /* \"meta-mall/contracts/nft-loan.sol\":2031:2047  balances[_owner] */\n  0x00\n    /* \"meta-mall/contracts/nft-loan.sol\":2040:2046  _owner */\n  dup6\n    /* \"meta-mall/contracts/nft-loan.sol\":2031:2047  balances[_owner] */\n  0xffffffffffffffffffffffffffffffffffffffff\n  and\n  0xffffffffffffffffffffffffffffffffffffffff\n  and\n  dup2\n  mstore\n  0x20\n  add\n  swap1\n  dup2\n  mstore\n  0x20\n  add\n  0x00\n  keccak256\n  0x00\n    /* \"meta-mall/contracts/nft-loan.sol\":2031:2062  balances[_owner] += totalSupply */\n  dup3\n  dup3\n  sload\n  tag_10\n  swap2\n  swap1\n  tag_11\n  jump\t// in\ntag_10:\n  swap3\n  pop\n  pop\n  dup2\n  swap1\n  sstore\n  pop\n    /* \"meta-mall/contracts/nft-loan.sol\":2074:2086  name = \"NGT\" */\n  mload(0x40)\n  dup1\n  0x40\n  add\n  0x40\n  mstore\n  dup1\n  0x03\n  dup2\n  mstore\n  0x20\n  add\n  0x4e47540000000000000000000000000000000000000000000000000000000000\n  dup2\n  mstore\n  pop\n    /* \"meta-mall/contracts/nft-loan.sol\":2074:2078  name */\n  0x00\n    /* \"meta-mall/contracts/nft-loan.sol\":2074:2086  name = \"NGT\" */\n  swap1\n  dup1\n  mload\n  swap1\n  0x20\n  add\n  swap1\n  tag_12\n  swap3\n  swap2\n  swap1\n  tag_13\n  jump\t// in\ntag_12:\n  pop\n    /* \"meta-mall/contracts/nft-loan.sol\":2170:2184  symbol = \"NGT\" */\n  mload(0x40)\n  dup1\n  0x40\n  add\n  0x40\n  mstore\n  dup1\n  0x03\n  dup2\n  mstore\n  0x20\n  add\n  0x4e47540000000000000000000000000000000000000000000000000000000000\n  dup2\n  mstore\n  pop\n    /* \"meta-mall/contracts/nft-loan.sol\":2170:2176  symbol */\n  0x01\n    /* \"meta-mall/contracts/nft-loan.sol\":2170:2184  symbol = \"NGT\" */\n  swap1\n  dup1\n  mload\n  swap1\n  0x20\n  add\n  swap1\n  tag_14\n  swap3\n  swap2\n  swap1\n  tag_13\n  jump\t// in\ntag_14:\n  pop\n    /* \"meta-mall/contracts/nft-loan.sol\":2204:2210  _owner */\n  dup3\n    /* \"meta-mall/contracts/nft-loan.sol\":2196:2201  owner */\n  0x06\n  0x00\n    /* \"meta-mall/contracts/nft-loan.sol\":2196:2210  owner = _owner */\n  0x0100\n  exp\n  dup2\n  sload\n  dup2\n  0xffffffffffffffffffffffffffffffffffffffff\n  mul\n  not\n  and\n  swap1\n  dup4\n  0xffffffffffffffffffffffffffffffffffffffff\n  and\n  mul\n  or\n  swap1\n  sstore\n  pop\n    /* \"meta-mall/contracts/nft-loan.sol\":2242:2254  _nftContract */\n  dup2\n    /* \"meta-mall/contracts/nft-loan.sol\":2220:2231  nftContract */\n  0x08\n  0x00\n    /* \"meta-mall/contracts/nft-loan.sol\":2220:2255  nftContract = IERC721(_nftContract) */\n  0x0100\n  exp\n  dup2\n  sload\n  dup2\n  0xffffffffffffffffffffffffffffffffffffffff\n  mul\n  not\n  and\n  swap1\n  dup4\n  0xffffffffffffffffffffffffffffffffffffffff\n  and\n  mul\n  or\n  swap1\n  sstore\n  pop\n    /* \"meta-mall/contracts/nft-loan.sol\":1929:2333  {... */\n  pop\n    /* \"meta-mall/contracts/nft-loan.sol\":1863:2333  constructor(... */\n  pop\n  pop\n    /* \"meta-mall/contracts/nft-loan.sol\":1331:5835  contract NGT is ngt,IERC721Receiver{... */\n  jump(tag_15)\ntag_13:\n  dup3\n  dup1\n  sload\n  tag_16\n  swap1\n  tag_17\n  jump\t// in\ntag_16:\n  swap1\n  0x00\n  mstore\n  keccak256(0x00, 0x20)\n  swap1\n  0x1f\n  add\n  0x20\n  swap1\n  div\n  dup2\n  add\n  swap3\n  dup3\n  tag_19\n  jumpi\n  0x00\n  dup6\n  sstore\n  jump(tag_18)\ntag_19:\n  dup3\n  0x1f\n  lt\n  tag_20\n  jumpi\n  dup1\n  mload\n  not(0xff)\n  and\n  dup4\n  dup1\n  add\n  or\n  dup6\n  sstore\n  jump(tag_18)\ntag_20:\n  dup3\n  dup1\n  add\n  0x01\n  add\n  dup6\n  sstore\n  dup3\n  iszero\n  tag_18\n  jumpi\n  swap2\n  dup3\n  add\ntag_21:\n  dup3\n  dup2\n  gt\n  iszero\n  tag_22\n  jumpi\n  dup3\n  mload\n  dup3\n  sstore\n  swap2\n  0x20\n  add\n  swap2\n  swap1\n  0x01\n  add\n  swap1\n  jump(tag_21)\ntag_22:\ntag_18:\n  pop\n  swap1\n  pop\n  tag_23\n  swap2\n  swap1\n  tag_24\n  jump\t// in\ntag_23:\n  pop\n  swap1\n  jump\t// out\ntag_24:\ntag_25:\n  dup1\n  dup3\n  gt\n  iszero\n  tag_26\n  jumpi\n  0x00\n  dup2\n  0x00\n  swap1\n  sstore\n  pop\n  0x01\n  add\n  jump(tag_25)\ntag_26:\n  pop\n  swap1\n  jump\t// out\n    /* \"#utility.yul\":7:150   */\ntag_28:\n    /* \"#utility.yul\":64:69   */\n  0x00\n    /* \"#utility.yul\":95:101   */\n  dup2\n    /* \"#utility.yul\":89:102   */\n  mload\n    /* \"#utility.yul\":80:102   */\n  swap1\n  pop\n    /* \"#utility.yul\":111:144   */\n  tag_30\n    /* \"#utility.yul\":138:143   */\n  dup2\n    /* \"#utility.yul\":111:144   */\n  tag_31\n  jump\t// in\ntag_30:\n    /* \"#utility.yul\":7:150   */\n  swap3\n  swap2\n  pop\n  pop\n  jump\t// out\n    /* \"#utility.yul\":156:663   */\ntag_3:\n    /* \"#utility.yul\":235:241   */\n  0x00\n    /* \"#utility.yul\":243:249   */\n  dup1\n    /* \"#utility.yul\":292:294   */\n  0x40\n    /* \"#utility.yul\":280:289   */\n  dup4\n    /* \"#utility.yul\":271:278   */\n  dup6\n    /* \"#utility.yul\":267:290   */\n  sub\n    /* \"#utility.yul\":263:295   */\n  slt\n    /* \"#utility.yul\":260:379   */\n  iszero\n  tag_33\n  jumpi\n    /* \"#utility.yul\":298:377   */\n  tag_34\n  tag_35\n  jump\t// in\ntag_34:\n    /* \"#utility.yul\":260:379   */\ntag_33:\n    /* \"#utility.yul\":418:419   */\n  0x00\n    /* \"#utility.yul\":443:507   */\n  tag_36\n    /* \"#utility.yul\":499:506   */\n  dup6\n    /* \"#utility.yul\":490:496   */\n  dup3\n    /* \"#utility.yul\":479:488   */\n  dup7\n    /* \"#utility.yul\":475:497   */\n  add\n    /* \"#utility.yul\":443:507   */\n  tag_28\n  jump\t// in\ntag_36:\n    /* \"#utility.yul\":433:507   */\n  swap3\n  pop\n    /* \"#utility.yul\":389:517   */\n  pop\n    /* \"#utility.yul\":556:558   */\n  0x20\n    /* \"#utility.yul\":582:646   */\n  tag_37\n    /* \"#utility.yul\":638:645   */\n  dup6\n    /* \"#utility.yul\":629:635   */\n  dup3\n    /* \"#utility.yul\":618:627   */\n  dup7\n    /* \"#utility.yul\":614:636   */\n  add\n    /* \"#utility.yul\":582:646   */\n  tag_28\n  jump\t// in\ntag_37:\n    /* \"#utility.yul\":572:646   */\n  swap2\n  pop\n    /* \"#utility.yul\":527:656   */\n  pop\n    /* \"#utility.yul\":156:663   */\n  swap3\n  pop\n  swap3\n  swap1\n  pop\n  jump\t// out\n    /* \"#utility.yul\":750:1055   */\ntag_11:\n    /* \"#utility.yul\":790:793   */\n  0x00\n    /* \"#utility.yul\":809:829   */\n  tag_41\n    /* \"#utility.yul\":827:828   */\n  dup3\n    /* \"#utility.yul\":809:829   */\n  tag_42\n  jump\t// in\ntag_41:\n    /* \"#utility.yul\":804:829   */\n  swap2\n  pop\n    /* \"#utility.yul\":843:863   */\n  tag_43\n    /* \"#utility.yul\":861:862   */\n  dup4\n    /* \"#utility.yul\":843:863   */\n  tag_42\n  jump\t// in\ntag_43:\n    /* \"#utility.yul\":838:863   */\n  swap3\n  pop\n    /* \"#utility.yul\":997:998   */\n  dup3\n    /* \"#utility.yul\":929:995   */\n  0xffffffffffffffffffffffffffffffffffffffffffffffffffffffffffffffff\n    /* \"#utility.yul\":925:999   */\n  sub\n    /* \"#utility.yul\":922:923   */\n  dup3\n    /* \"#utility.yul\":919:1000   */\n  gt\n    /* \"#utility.yul\":916:1023   */\n  iszero\n  tag_44\n  jumpi\n    /* \"#utility.yul\":1003:1021   */\n  tag_45\n  tag_46\n  jump\t// in\ntag_45:\n    /* \"#utility.yul\":916:1023   */\ntag_44:\n    /* \"#utility.yul\":1047:1048   */\n  dup3\n    /* \"#utility.yul\":1044:1045   */\n  dup3\n    /* \"#utility.yul\":1040:1049   */\n  add\n    /* \"#utility.yul\":1033:1049   */\n  swap1\n  pop\n    /* \"#utility.yul\":750:1055   */\n  swap3\n  swap2\n  pop\n  pop\n  jump\t// out\n    /* \"#utility.yul\":1061:1909   */\ntag_47:\n    /* \"#utility.yul\":1122:1127   */\n  0x00\n    /* \"#utility.yul\":1129:1133   */\n  dup1\n    /* \"#utility.yul\":1153:1159   */\n  dup3\n    /* \"#utility.yul\":1144:1159   */\n  swap2\n  pop\n    /* \"#utility.yul\":1177:1182   */\n  dup4\n    /* \"#utility.yul\":1168:1182   */\n  swap1\n  pop\n    /* \"#utility.yul\":1191:1903   */\ntag_49:\n    /* \"#utility.yul\":1212:1213   */\n  0x01\n    /* \"#utility.yul\":1202:1210   */\n  dup6\n    /* \"#utility.yul\":1199:1214   */\n  gt\n    /* \"#utility.yul\":1191:1903   */\n  iszero\n  tag_51\n  jumpi\n    /* \"#utility.yul\":1307:1311   */\n  dup1\n    /* \"#utility.yul\":1302:1305   */\n  dup7\n    /* \"#utility.yul\":1298:1312   */\n  div\n    /* \"#utility.yul\":1292:1296   */\n  dup2\n    /* \"#utility.yul\":1289:1313   */\n  gt\n    /* \"#utility.yul\":1286:1336   */\n  iszero\n  tag_52\n  jumpi\n    /* \"#utility.yul\":1316:1334   */\n  tag_53\n  tag_46\n  jump\t// in\ntag_53:\n    /* \"#utility.yul\":1286:1336   */\ntag_52:\n    /* \"#utility.yul\":1366:1367   */\n  0x01\n    /* \"#utility.yul\":1356:1364   */\n  dup6\n    /* \"#utility.yul\":1352:1368   */\n  and\n    /* \"#utility.yul\":1349:1800   */\n  iszero\n  tag_54\n  jumpi\n    /* \"#utility.yul\":1781:1785   */\n  dup1\n    /* \"#utility.yul\":1774:1779   */\n  dup3\n    /* \"#utility.yul\":1770:1786   */\n  mul\n    /* \"#utility.yul\":1761:1786   */\n  swap2\n  pop\n    /* \"#utility.yul\":1349:1800   */\ntag_54:\n    /* \"#utility.yul\":1831:1835   */\n  dup1\n    /* \"#utility.yul\":1825:1829   */\n  dup2\n    /* \"#utility.yul\":1821:1836   */\n  mul\n    /* \"#utility.yul\":1813:1836   */\n  swap1\n  pop\n    /* \"#utility.yul\":1861:1893   */\n  tag_55\n    /* \"#utility.yul\":1884:1892   */\n  dup6\n    /* \"#utility.yul\":1861:1893   */\n  tag_56\n  jump\t// in\ntag_55:\n    /* \"#utility.yul\":1849:1893   */\n  swap5\n  pop\n    /* \"#utility.yul\":1191:1903   */\n  jump(tag_49)\ntag_51:\n    /* \"#utility.yul\":1061:1909   */\n  swap5\n  pop\n  swap5\n  swap3\n  pop\n  pop\n  pop\n  jump\t// out\n    /* \"#utility.yul\":1915:2200   */\ntag_7:\n    /* \"#utility.yul\":1975:1980   */\n  0x00\n    /* \"#utility.yul\":1999:2022   */\n  tag_58\n    /* \"#utility.yul\":2017:2021   */\n  dup3\n    /* \"#utility.yul\":1999:2022   */\n  tag_42\n  jump\t// in\ntag_58:\n    /* \"#utility.yul\":1991:2022   */\n  swap2\n  pop\n    /* \"#utility.yul\":2043:2070   */\n  tag_59\n    /* \"#utility.yul\":2061:2069   */\n  dup4\n    /* \"#utility.yul\":2043:2070   */\n  tag_42\n  jump\t// in\ntag_59:\n    /* \"#utility.yul\":2031:2070   */\n  swap3\n  pop\n    /* \"#utility.yul\":2089:2193   */\n  tag_60\n    /* \"#utility.yul\":2126:2192   */\n  0xffffffffffffffffffffffffffffffffffffffffffffffffffffffffffffffff\n    /* \"#utility.yul\":2116:2124   */\n  dup5\n    /* \"#utility.yul\":2110:2114   */\n  dup5\n    /* \"#utility.yul\":2089:2193   */\n  tag_61\n  jump\t// in\ntag_60:\n    /* \"#utility.yul\":2080:2193   */\n  swap1\n  pop\n    /* \"#utility.yul\":1915:2200   */\n  swap3\n  swap2\n  pop\n  pop\n  jump\t// out\n    /* \"#utility.yul\":2206:3279   */\ntag_61:\n    /* \"#utility.yul\":2260:2265   */\n  0x00\n    /* \"#utility.yul\":2451:2459   */\n  dup3\n    /* \"#utility.yul\":2441:2481   */\n  tag_63\n  jumpi\n    /* \"#utility.yul\":2472:2473   */\n  0x01\n    /* \"#utility.yul\":2463:2473   */\n  swap1\n  pop\n    /* \"#utility.yul\":2474:2479   */\n  jump(tag_62)\n    /* \"#utility.yul\":2441:2481   */\ntag_63:\n    /* \"#utility.yul\":2500:2504   */\n  dup2\n    /* \"#utility.yul\":2490:2526   */\n  tag_64\n  jumpi\n    /* \"#utility.yul\":2517:2518   */\n  0x00\n    /* \"#utility.yul\":2508:2518   */\n  swap1\n  pop\n    /* \"#utility.yul\":2519:2524   */\n  jump(tag_62)\n    /* \"#utility.yul\":2490:2526   */\ntag_64:\n    /* \"#utility.yul\":2586:2590   */\n  dup2\n    /* \"#utility.yul\":2634:2635   */\n  0x01\n    /* \"#utility.yul\":2629:2656   */\n  dup2\n  eq\n  tag_66\n  jumpi\n    /* \"#utility.yul\":2670:2671   */\n  0x02\n    /* \"#utility.yul\":2665:2856   */\n  dup2\n  eq\n  tag_67\n  jumpi\n    /* \"#utility.yul\":2579:2856   */\n  jump(tag_65)\n    /* \"#utility.yul\":2629:2656   */\ntag_66:\n    /* \"#utility.yul\":2647:2648   */\n  0x01\n    /* \"#utility.yul\":2638:2648   */\n  swap2\n  pop\n    /* \"#utility.yul\":2649:2654   */\n  pop\n  jump(tag_62)\n    /* \"#utility.yul\":2665:2856   */\ntag_67:\n    /* \"#utility.yul\":2710:2713   */\n  0xff\n    /* \"#utility.yul\":2700:2708   */\n  dup5\n    /* \"#utility.yul\":2697:2714   */\n  gt\n    /* \"#utility.yul\":2694:2737   */\n  iszero\n  tag_68\n  jumpi\n    /* \"#utility.yul\":2717:2735   */\n  tag_69\n  tag_46\n  jump\t// in\ntag_69:\n    /* \"#utility.yul\":2694:2737   */\ntag_68:\n    /* \"#utility.yul\":2766:2774   */\n  dup4\n    /* \"#utility.yul\":2763:2764   */\n  0x02\n    /* \"#utility.yul\":2759:2775   */\n  exp\n    /* \"#utility.yul\":2750:2775   */\n  swap2\n  pop\n    /* \"#utility.yul\":2801:2804   */\n  dup5\n    /* \"#utility.yul\":2794:2799   */\n  dup3\n    /* \"#utility.yul\":2791:2805   */\n  gt\n    /* \"#utility.yul\":2788:2828   */\n  iszero\n  tag_70\n  jumpi\n    /* \"#utility.yul\":2808:2826   */\n  tag_71\n  tag_46\n  jump\t// in\ntag_71:\n    /* \"#utility.yul\":2788:2828   */\ntag_70:\n    /* \"#utility.yul\":2841:2846   */\n  pop\n  jump(tag_62)\n    /* \"#utility.yul\":2579:2856   */\ntag_65:\n  pop\n    /* \"#utility.yul\":2965:2967   */\n  0x20\n    /* \"#utility.yul\":2955:2963   */\n  dup4\n    /* \"#utility.yul\":2952:2968   */\n  lt\n    /* \"#utility.yul\":2946:2949   */\n  0x0133\n    /* \"#utility.yul\":2940:2944   */\n  dup4\n    /* \"#utility.yul\":2937:2950   */\n  lt\n    /* \"#utility.yul\":2933:2969   */\n  and\n    /* \"#utility.yul\":2915:2917   */\n  0x4e\n    /* \"#utility.yul\":2905:2913   */\n  dup5\n    /* \"#utility.yul\":2902:2918   */\n  lt\n    /* \"#utility.yul\":2897:2899   */\n  0x0b\n    /* \"#utility.yul\":2891:2895   */\n  dup5\n    /* \"#utility.yul\":2888:2900   */\n  lt\n    /* \"#utility.yul\":2884:2919   */\n  and\n    /* \"#utility.yul\":2868:2979   */\n  or\n    /* \"#utility.yul\":2865:3111   */\n  iszero\n  tag_72\n  jumpi\n    /* \"#utility.yul\":3021:3029   */\n  dup3\n    /* \"#utility.yul\":3015:3019   */\n  dup3\n    /* \"#utility.yul\":3011:3030   */\n  exp\n    /* \"#utility.yul\":3002:3030   */\n  swap1\n  pop\n    /* \"#utility.yul\":3056:3059   */\n  dup4\n    /* \"#utility.yul\":3049:3054   */\n  dup2\n    /* \"#utility.yul\":3046:3060   */\n  gt\n    /* \"#utility.yul\":3043:3083   */\n  iszero\n  tag_73\n  jumpi\n    /* \"#utility.yul\":3063:3081   */\n  tag_74\n  tag_46\n  jump\t// in\ntag_74:\n    /* \"#utility.yul\":3043:3083   */\ntag_73:\n    /* \"#utility.yul\":3096:3101   */\n  jump(tag_62)\n    /* \"#utility.yul\":2865:3111   */\ntag_72:\n    /* \"#utility.yul\":3136:3178   */\n  tag_75\n    /* \"#utility.yul\":3174:3177   */\n  dup5\n    /* \"#utility.yul\":3164:3172   */\n  dup5\n    /* \"#utility.yul\":3158:3162   */\n  dup5\n    /* \"#utility.yul\":3155:3156   */\n  0x01\n    /* \"#utility.yul\":3136:3178   */\n  tag_47\n  jump\t// in\ntag_75:\n    /* \"#utility.yul\":3121:3178   */\n  swap3\n  pop\n  swap1\n  pop\n    /* \"#utility.yul\":3210:3214   */\n  dup2\n    /* \"#utility.yul\":3205:3208   */\n  dup5\n    /* \"#utility.yul\":3201:3215   */\n  div\n    /* \"#utility.yul\":3194:3199   */\n  dup2\n    /* \"#utility.yul\":3191:3216   */\n  gt\n    /* \"#utility.yul\":3188:3239   */\n  iszero\n  tag_76\n  jumpi\n    /* \"#utility.yul\":3219:3237   */\n  tag_77\n  tag_46\n  jump\t// in\ntag_77:\n    /* \"#utility.yul\":3188:3239   */\ntag_76:\n    /* \"#utility.yul\":3268:3272   */\n  dup2\n    /* \"#utility.yul\":3261:3266   */\n  dup2\n    /* \"#utility.yul\":3257:3273   */\n  mul\n    /* \"#utility.yul\":3248:3273   */\n  swap1\n  pop\n    /* \"#utility.yul\":2206:3279   */\ntag_62:\n  swap4\n  swap3\n  pop\n  pop\n  pop\n  jump\t// out\n    /* \"#utility.yul\":3285:3633   */\ntag_9:\n    /* \"#utility.yul\":3325:3332   */\n  0x00\n    /* \"#utility.yul\":3348:3368   */\n  tag_79\n    /* \"#utility.yul\":3366:3367   */\n  dup3\n    /* \"#utility.yul\":3348:3368   */\n  tag_42\n  jump\t// in\ntag_79:\n    /* \"#utility.yul\":3343:3368   */\n  swap2\n  pop\n    /* \"#utility.yul\":3382:3402   */\n  tag_80\n    /* \"#utility.yul\":3400:3401   */\n  dup4\n    /* \"#utility.yul\":3382:3402   */\n  tag_42\n  jump\t// in\ntag_80:\n    /* \"#utility.yul\":3377:3402   */\n  swap3\n  pop\n    /* \"#utility.yul\":3570:3571   */\n  dup2\n    /* \"#utility.yul\":3502:3568   */\n  0xffffffffffffffffffffffffffffffffffffffffffffffffffffffffffffffff\n    /* \"#utility.yul\":3498:3572   */\n  div\n    /* \"#utility.yul\":3495:3496   */\n  dup4\n    /* \"#utility.yul\":3492:3573   */\n  gt\n    /* \"#utility.yul\":3487:3488   */\n  dup3\n    /* \"#utility.yul\":3480:3489   */\n  iszero\n    /* \"#utility.yul\":3473:3490   */\n  iszero\n    /* \"#utility.yul\":3469:3574   */\n  and\n    /* \"#utility.yul\":3466:3597   */\n  iszero\n  tag_81\n  jumpi\n    /* \"#utility.yul\":3577:3595   */\n  tag_82\n  tag_46\n  jump\t// in\ntag_82:\n    /* \"#utility.yul\":3466:3597   */\ntag_81:\n    /* \"#utility.yul\":3625:3626   */\n  dup3\n    /* \"#utility.yul\":3622:3623   */\n  dup3\n    /* \"#utility.yul\":3618:3627   */\n  mul\n    /* \"#utility.yul\":3607:3627   */\n  swap1\n  pop\n    /* \"#utility.yul\":3285:3633   */\n  swap3\n  swap2\n  pop\n  pop\n  jump\t// out\n    /* \"#utility.yul\":3639:3735   */\ntag_83:\n    /* \"#utility.yul\":3676:3683   */\n  0x00\n    /* \"#utility.yul\":3705:3729   */\n  tag_85\n    /* \"#utility.yul\":3723:3728   */\n  dup3\n    /* \"#utility.yul\":3705:3729   */\n  tag_86\n  jump\t// in\ntag_85:\n    /* \"#utility.yul\":3694:3729   */\n  swap1\n  pop\n    /* \"#utility.yul\":3639:3735   */\n  swap2\n  swap1\n  pop\n  jump\t// out\n    /* \"#utility.yul\":3741:3867   */\ntag_86:\n    /* \"#utility.yul\":3778:3785   */\n  0x00\n    /* \"#utility.yul\":3818:3860   */\n  0xffffffffffffffffffffffffffffffffffffffff\n    /* \"#utility.yul\":3811:3816   */\n  dup3\n    /* \"#utility.yul\":3807:3861   */\n  and\n    /* \"#utility.yul\":3796:3861   */\n  swap1\n  pop\n    /* \"#utility.yul\":3741:3867   */\n  swap2\n  swap1\n  pop\n  jump\t// out\n    /* \"#utility.yul\":3873:3950   */\ntag_42:\n    /* \"#utility.yul\":3910:3917   */\n  0x00\n    /* \"#utility.yul\":3939:3944   */\n  dup2\n    /* \"#utility.yul\":3928:3944   */\n  swap1\n  pop\n    /* \"#utility.yul\":3873:3950   */\n  swap2\n  swap1\n  pop\n  jump\t// out\n    /* \"#utility.yul\":3956:4276   */\ntag_17:\n    /* \"#utility.yul\":4000:4006   */\n  0x00\n    /* \"#utility.yul\":4037:4038   */\n  0x02\n    /* \"#utility.yul\":4031:4035   */\n  dup3\n    /* \"#utility.yul\":4027:4039   */\n  div\n    /* \"#utility.yul\":4017:4039   */\n  swap1\n  pop\n    /* \"#utility.yul\":4084:4085   */\n  0x01\n    /* \"#utility.yul\":4078:4082   */\n  dup3\n    /* \"#utility.yul\":4074:4086   */\n  and\n    /* \"#utility.yul\":4105:4123   */\n  dup1\n    /* \"#utility.yul\":4095:4176   */\n  tag_90\n  jumpi\n    /* \"#utility.yul\":4161:4165   */\n  0x7f\n    /* \"#utility.yul\":4153:4159   */\n  dup3\n    /* \"#utility.yul\":4149:4166   */\n  and\n    /* \"#utility.yul\":4139:4166   */\n  swap2\n  pop\n    /* \"#utility.yul\":4095:4176   */\ntag_90:\n    /* \"#utility.yul\":4223:4225   */\n  0x20\n    /* \"#utility.yul\":4215:4221   */\n  dup3\n    /* \"#utility.yul\":4212:4226   */\n  lt\n    /* \"#utility.yul\":4192:4210   */\n  dup2\n    /* \"#utility.yul\":4189:4227   */\n  eq\n    /* \"#utility.yul\":4186:4270   */\n  iszero\n  tag_91\n  jumpi\n    /* \"#utility.yul\":4242:4260   */\n  tag_92\n  tag_93\n  jump\t// in\ntag_92:\n    /* \"#utility.yul\":4186:4270   */\ntag_91:\n    /* \"#utility.yul\":4007:4276   */\n  pop\n    /* \"#utility.yul\":3956:4276   */\n  swap2\n  swap1\n  pop\n  jump\t// out\n    /* \"#utility.yul\":4282:4462   */\ntag_46:\n    /* \"#utility.yul\":4330:4407   */\n  0x4e487b7100000000000000000000000000000000000000000000000000000000\n    /* \"#utility.yul\":4327:4328   */\n  0x00\n    /* \"#utility.yul\":4320:4408   */\n  mstore\n    /* \"#utility.yul\":4427:4431   */\n  0x11\n    /* \"#utility.yul\":4424:4425   */\n  0x04\n    /* \"#utility.yul\":4417:4432   */\n  mstore\n    /* \"#utility.yul\":4451:4455   */\n  0x24\n    /* \"#utility.yul\":4448:4449   */\n  0x00\n    /* \"#utility.yul\":4441:4456   */\n  revert\n    /* \"#utility.yul\":4468:4648   */\ntag_93:\n    /* \"#utility.yul\":4516:4593   */\n  0x4e487b7100000000000000000000000000000000000000000000000000000000\n    /* \"#utility.yul\":4513:4514   */\n  0x00\n    /* \"#utility.yul\":4506:4594   */\n  mstore\n    /* \"#utility.yul\":4613:4617   */\n  0x22\n    /* \"#utility.yul\":4610:4611   */\n  0x04\n    /* \"#utility.yul\":4603:4618   */\n  mstore\n    /* \"#utility.yul\":4637:4641   */\n  0x24\n    /* \"#utility.yul\":4634:4635   */\n  0x00\n    /* \"#utility.yul\":4627:4642   */\n  revert\n    /* \"#utility.yul\":4777:4894   */\ntag_35:\n    /* \"#utility.yul\":4886:4887   */\n  0x00\n    /* \"#utility.yul\":4883:4884   */\n  dup1\n    /* \"#utility.yul\":4876:4888   */\n  revert\n    /* \"#utility.yul\":4900:5002   */\ntag_56:\n    /* \"#utility.yul\":4942:4950   */\n  0x00\n    /* \"#utility.yul\":4989:4994   */\n  dup2\n    /* \"#utility.yul\":4986:4987   */\n  0x01\n    /* \"#utility.yul\":4982:4995   */\n  shr\n    /* \"#utility.yul\":4961:4995   */\n  swap1\n  pop\n    /* \"#utility.yul\":4900:5002   */\n  swap2\n  swap1\n  pop\n  jump\t// out\n    /* \"#utility.yul\":5008:5130   */\ntag_31:\n    /* \"#utility.yul\":5081:5105   */\n  tag_101\n    /* \"#utility.yul\":5099:5104   */\n  dup2\n    /* \"#utility.yul\":5081:5105   */\n  tag_83\n  jump\t// in\ntag_101:\n    /* \"#utility.yul\":5074:5079   */\n  dup2\n    /* \"#utility.yul\":5071:5106   */\n  eq\n    /* \"#utility.yul\":5061:5124   */\n  tag_102\n  jumpi\n    /* \"#utility.yul\":5120:5121   */\n  0x00\n    /* \"#utility.yul\":5117:5118   */\n  dup1\n    /* \"#utility.yul\":5110:5122   */\n  revert\n    /* \"#utility.yul\":5061:5124   */\ntag_102:\n    /* \"#utility.yul\":5008:5130   */\n  pop\n  jump\t// out\n    /* \"meta-mall/contracts/nft-loan.sol\":1331:5835  contract NGT is ngt,IERC721Receiver{... */\ntag_15:\n  dataSize(sub_0)\n  dup1\n  dataOffset(sub_0)\n  0x00\n  codecopy\n  0x00\n  return\nstop\n\nsub_0: assembly {\n        /* \"meta-mall/contracts/nft-loan.sol\":1331:5835  contract NGT is ngt,IERC721Receiver{... */\n      mstore(0x40, 0x80)\n      jumpi(tag_1, lt(calldatasize, 0x04))\n      shr(0xe0, calldataload(0x00))\n      dup1\n      0x6352211e\n      gt\n      tag_19\n      jumpi\n      dup1\n      0xa9059cbb\n      gt\n      tag_20\n      jumpi\n      dup1\n      0xa9059cbb\n      eq\n      tag_14\n      jumpi\n      dup1\n      0xd56d229d\n      eq\n      tag_15\n      jumpi\n      dup1\n      0xdd62ed3e\n      eq\n      tag_16\n      jumpi\n      dup1\n      0xf8fe54fa\n      eq\n      tag_17\n      jumpi\n      dup1\n      0xffc49f38\n      eq\n      tag_18\n      jumpi\n      jump(tag_1)\n    tag_20:\n      dup1\n      0x6352211e\n      eq\n      tag_10\n      jumpi\n      dup1\n      0x70a08231\n      eq\n      tag_11\n      jumpi\n      dup1\n      0x8951cf59\n      eq\n      tag_12\n      jumpi\n      dup1\n      0x95d89b41\n      eq\n      tag_13\n      jumpi\n      jump(tag_1)\n    tag_19:\n      dup1\n      0x23b872dd\n      gt\n      tag_21\n      jumpi\n      dup1\n      0x23b872dd\n      eq\n      tag_6\n      jumpi\n      dup1\n      0x27d88a78\n      eq\n      tag_7\n      jumpi\n      dup1\n      0x313ce567\n      eq\n      tag_8\n      jumpi\n      dup1\n      0x6088e93a\n      eq\n      tag_9\n      jumpi\n      jump(tag_1)\n    tag_21:\n      dup1\n      0x06fdde03\n      eq\n      tag_2\n      jumpi\n      dup1\n      0x095ea7b3\n      eq\n      tag_3\n      jumpi\n      dup1\n      0x150b7a02\n      eq\n      tag_4\n      jumpi\n      dup1\n      0x18160ddd\n      eq\n      tag_5\n      jumpi\n    tag_1:\n      0x00\n      dup1\n      revert\n        /* \"meta-mall/contracts/nft-loan.sol\":188:207  string public  name */\n    tag_2:\n      callvalue\n      dup1\n      iszero\n      tag_22\n      jumpi\n      0x00\n      dup1\n      revert\n    tag_22:\n      pop\n      tag_23\n      tag_24\n      jump\t// in\n    tag_23:\n      mload(0x40)\n      tag_25\n      swap2\n      swap1\n      tag_26\n      jump\t// in\n    tag_25:\n      mload(0x40)\n      dup1\n      swap2\n      sub\n      swap1\n      return\n        /* \"meta-mall/contracts/nft-loan.sol\":727:1017  function approve(address _spender, uint256 _value) public returns (bool success)   ... */\n    tag_3:\n      callvalue\n      dup1\n      iszero\n      tag_27\n      jumpi\n      0x00\n      dup1\n      revert\n    tag_27:\n      pop\n      tag_28\n      0x04\n      dup1\n      calldatasize\n      sub\n      dup2\n      add\n      swap1\n      tag_29\n      swap2\n      swap1\n      tag_30\n      jump\t// in\n    tag_29:\n      tag_31\n      jump\t// in\n    tag_28:\n      mload(0x40)\n      tag_32\n      swap2\n      swap1\n      tag_33\n      jump\t// in\n    tag_32:\n      mload(0x40)\n      dup1\n      swap2\n      sub\n      swap1\n      return\n        /* \"meta-mall/contracts/nft-loan.sol\":3925:4617  function onERC721Received(address operator, address from, uint256 tokenId, bytes calldata data) external override returns(bytes4) {... */\n    tag_4:\n      callvalue\n      dup1\n      iszero\n      tag_34\n      jumpi\n      0x00\n      dup1\n      revert\n    tag_34:\n      pop\n      tag_35\n      0x04\n      dup1\n      calldatasize\n      sub\n      dup2\n      add\n      swap1\n      tag_36\n      swap2\n      swap1\n      tag_37\n      jump\t// in\n    tag_36:\n      tag_38\n      jump\t// in\n    tag_35:\n      mload(0x40)\n      tag_39\n      swap2\n      swap1\n      tag_40\n      jump\t// in\n    tag_39:\n      mload(0x40)\n      dup1\n      swap2\n      sub\n      swap1\n      return\n        /* \"meta-mall/contracts/nft-loan.sol\":271:312  uint256 public  totalSupply = 10000000000 */\n    tag_5:\n      callvalue\n      dup1\n      iszero\n      tag_41\n      jumpi\n      0x00\n      dup1\n      revert\n    tag_41:\n      pop\n      tag_42\n      tag_43\n      jump\t// in\n    tag_42:\n      mload(0x40)\n      tag_44\n      swap2\n      swap1\n      tag_45\n      jump\t// in\n    tag_44:\n      mload(0x40)\n      dup1\n      swap2\n      sub\n      swap1\n      return\n        /* \"meta-mall/contracts/nft-loan.sol\":2475:2635  function transferFrom(address _from, address _to, uint256 _value) public payable  returns (bool success){... */\n    tag_6:\n      tag_46\n      0x04\n      dup1\n      calldatasize\n      sub\n      dup2\n      add\n      swap1\n      tag_47\n      swap2\n      swap1\n      tag_48\n      jump\t// in\n    tag_47:\n      tag_49\n      jump\t// in\n    tag_46:\n      mload(0x40)\n      tag_50\n      swap2\n      swap1\n      tag_33\n      jump\t// in\n    tag_50:\n      mload(0x40)\n      dup1\n      swap2\n      sub\n      swap1\n      return\n        /* \"meta-mall/contracts/nft-loan.sol\":5231:5345  function loansList(address user) public view returns (TokenData[] memory){... */\n    tag_7:\n      callvalue\n      dup1\n      iszero\n      tag_51\n      jumpi\n      0x00\n      dup1\n      revert\n    tag_51:\n      pop\n      tag_52\n      0x04\n      dup1\n      calldatasize\n      sub\n      dup2\n      add\n      swap1\n      tag_53\n      swap2\n      swap1\n      tag_54\n      jump\t// in\n    tag_53:\n      tag_55\n      jump\t// in\n    tag_52:\n      mload(0x40)\n      tag_56\n      swap2\n      swap1\n      tag_57\n      jump\t// in\n    tag_56:\n      mload(0x40)\n      dup1\n      swap2\n      sub\n      swap1\n      return\n        /* \"meta-mall/contracts/nft-loan.sol\":239:265  uint8  public decimals = 4 */\n    tag_8:\n      callvalue\n      dup1\n      iszero\n      tag_58\n      jumpi\n      0x00\n      dup1\n      revert\n    tag_58:\n      pop\n      tag_59\n      tag_60\n      jump\t// in\n    tag_59:\n      mload(0x40)\n      tag_61\n      swap2\n      swap1\n      tag_62\n      jump\t// in\n    tag_61:\n      mload(0x40)\n      dup1\n      swap2\n      sub\n      swap1\n      return\n        /* \"meta-mall/contracts/nft-loan.sol\":4631:5092  function withdrawNFT(address to,uint256 _tokenId) onlyManager external payable {... */\n    tag_9:\n      tag_63\n      0x04\n      dup1\n      calldatasize\n      sub\n      dup2\n      add\n      swap1\n      tag_64\n      swap2\n      swap1\n      tag_30\n      jump\t// in\n    tag_64:\n      tag_65\n      jump\t// in\n    tag_63:\n      stop\n        /* \"meta-mall/contracts/nft-loan.sol\":5093:5230  function ownerOf(uint256  _tokenId) public returns (address){... */\n    tag_10:\n      callvalue\n      dup1\n      iszero\n      tag_66\n      jumpi\n      0x00\n      dup1\n      revert\n    tag_66:\n      pop\n      tag_67\n      0x04\n      dup1\n      calldatasize\n      sub\n      dup2\n      add\n      swap1\n      tag_68\n      swap2\n      swap1\n      tag_69\n      jump\t// in\n    tag_68:\n      tag_70\n      jump\t// in\n    tag_67:\n      mload(0x40)\n      tag_71\n      swap2\n      swap1\n      tag_72\n      jump\t// in\n    tag_71:\n      mload(0x40)\n      dup1\n      swap2\n      sub\n      swap1\n      return\n        /* \"meta-mall/contracts/nft-loan.sol\":609:722  function balanceOf(address _owner) public view returns (uint256 balance) {... */\n    tag_11:\n      callvalue\n      dup1\n      iszero\n      tag_73\n      jumpi\n      0x00\n      dup1\n      revert\n    tag_73:\n      pop\n      tag_74\n      0x04\n      dup1\n      calldatasize\n      sub\n      dup2\n      add\n      swap1\n      tag_75\n      swap2\n      swap1\n      tag_54\n      jump\t// in\n    tag_75:\n      tag_76\n      jump\t// in\n    tag_74:\n      mload(0x40)\n      tag_77\n      swap2\n      swap1\n      tag_45\n      jump\t// in\n    tag_77:\n      mload(0x40)\n      dup1\n      swap2\n      sub\n      swap1\n      return\n        /* \"meta-mall/contracts/nft-loan.sol\":1214:1305  function viewtotalSupply() public view returns (uint256){... */\n    tag_12:\n      callvalue\n      dup1\n      iszero\n      tag_78\n      jumpi\n      0x00\n      dup1\n      revert\n    tag_78:\n      pop\n      tag_79\n      tag_80\n      jump\t// in\n    tag_79:\n      mload(0x40)\n      tag_81\n      swap2\n      swap1\n      tag_45\n      jump\t// in\n    tag_81:\n      mload(0x40)\n      dup1\n      swap2\n      sub\n      swap1\n      return\n        /* \"meta-mall/contracts/nft-loan.sol\":213:233  string public symbol */\n    tag_13:\n      callvalue\n      dup1\n      iszero\n      tag_82\n      jumpi\n      0x00\n      dup1\n      revert\n    tag_82:\n      pop\n      tag_83\n      tag_84\n      jump\t// in\n    tag_83:\n      mload(0x40)\n      tag_85\n      swap2\n      swap1\n      tag_26\n      jump\t// in\n    tag_85:\n      mload(0x40)\n      dup1\n      swap2\n      sub\n      swap1\n      return\n        /* \"meta-mall/contracts/nft-loan.sol\":2338:2470  function transfer(address _to, uint256 _value) public payable  returns (bool success){... */\n    tag_14:\n      tag_86\n      0x04\n      dup1\n      calldatasize\n      sub\n      dup2\n      add\n      swap1\n      tag_87\n      swap2\n      swap1\n      tag_30\n      jump\t// in\n    tag_87:\n      tag_88\n      jump\t// in\n    tag_86:\n      mload(0x40)\n      tag_89\n      swap2\n      swap1\n      tag_33\n      jump\t// in\n    tag_89:\n      mload(0x40)\n      dup1\n      swap2\n      sub\n      swap1\n      return\n        /* \"meta-mall/contracts/nft-loan.sol\":1691:1717  IERC721 public nftContract */\n    tag_15:\n      callvalue\n      dup1\n      iszero\n      tag_90\n      jumpi\n      0x00\n      dup1\n      revert\n    tag_90:\n      pop\n      tag_91\n      tag_92\n      jump\t// in\n    tag_91:\n      mload(0x40)\n      tag_93\n      swap2\n      swap1\n      tag_94\n      jump\t// in\n    tag_93:\n      mload(0x40)\n      dup1\n      swap2\n      sub\n      swap1\n      return\n        /* \"meta-mall/contracts/nft-loan.sol\":1022:1209  function allowance(address _owner, address _spender) public view returns (uint256 remaining) {... */\n    tag_16:\n      callvalue\n      dup1\n      iszero\n      tag_95\n      jumpi\n      0x00\n      dup1\n      revert\n    tag_95:\n      pop\n      tag_96\n      0x04\n      dup1\n      calldatasize\n      sub\n      dup2\n      add\n      swap1\n      tag_97\n      swap2\n      swap1\n      tag_98\n      jump\t// in\n    tag_97:\n      tag_99\n      jump\t// in\n    tag_96:\n      mload(0x40)\n      tag_100\n      swap2\n      swap1\n      tag_45\n      jump\t// in\n    tag_100:\n      mload(0x40)\n      dup1\n      swap2\n      sub\n      swap1\n      return\n        /* \"meta-mall/contracts/nft-loan.sol\":1536:1589  mapping(address => TokenData[]) public receivedTokens */\n    tag_17:\n      callvalue\n      dup1\n      iszero\n      tag_101\n      jumpi\n      0x00\n      dup1\n      revert\n    tag_101:\n      pop\n      tag_102\n      0x04\n      dup1\n      calldatasize\n      sub\n      dup2\n      add\n      swap1\n      tag_103\n      swap2\n      swap1\n      tag_30\n      jump\t// in\n    tag_103:\n      tag_104\n      jump\t// in\n    tag_102:\n      mload(0x40)\n      tag_105\n      swap4\n      swap3\n      swap2\n      swap1\n      tag_106\n      jump\t// in\n    tag_105:\n      mload(0x40)\n      dup1\n      swap2\n      sub\n      swap1\n      return\n        /* \"meta-mall/contracts/nft-loan.sol\":5346:5680  function loansCount(address user) public view returns (uint256){... */\n    tag_18:\n      callvalue\n      dup1\n      iszero\n      tag_107\n      jumpi\n      0x00\n      dup1\n      revert\n    tag_107:\n      pop\n      tag_108\n      0x04\n      dup1\n      calldatasize\n      sub\n      dup2\n      add\n      swap1\n      tag_109\n      swap2\n      swap1\n      tag_54\n      jump\t// in\n    tag_109:\n      tag_110\n      jump\t// in\n    tag_108:\n      mload(0x40)\n      tag_111\n      swap2\n      swap1\n      tag_45\n      jump\t// in\n    tag_111:\n      mload(0x40)\n      dup1\n      swap2\n      sub\n      swap1\n      return\n        /* \"meta-mall/contracts/nft-loan.sol\":188:207  string public  name */\n    tag_24:\n      0x00\n      dup1\n      sload\n      tag_112\n      swap1\n      tag_113\n      jump\t// in\n    tag_112:\n      dup1\n      0x1f\n      add\n      0x20\n      dup1\n      swap2\n      div\n      mul\n      0x20\n      add\n      mload(0x40)\n      swap1\n      dup2\n      add\n      0x40\n      mstore\n      dup1\n      swap3\n      swap2\n      swap1\n      dup2\n      dup2\n      mstore\n      0x20\n      add\n      dup3\n      dup1\n      sload\n      tag_114\n      swap1\n      tag_113\n      jump\t// in\n    tag_114:\n      dup1\n      iszero\n      tag_115\n      jumpi\n      dup1\n      0x1f\n      lt\n      tag_116\n      jumpi\n      0x0100\n      dup1\n      dup4\n      sload\n      div\n      mul\n      dup4\n      mstore\n      swap2\n      0x20\n      add\n      swap2\n      jump(tag_115)\n    tag_116:\n      dup3\n      add\n      swap2\n      swap1\n      0x00\n      mstore\n      keccak256(0x00, 0x20)\n      swap1\n    tag_117:\n      dup2\n      sload\n      dup2\n      mstore\n      swap1\n      0x01\n      add\n      swap1\n      0x20\n      add\n      dup1\n      dup4\n      gt\n      tag_117\n      jumpi\n      dup3\n      swap1\n      sub\n      0x1f\n      and\n      dup3\n      add\n      swap2\n    tag_115:\n      pop\n      pop\n      pop\n      pop\n      pop\n      dup2\n      jump\t// out\n        /* \"meta-mall/contracts/nft-loan.sol\":727:1017  function approve(address _spender, uint256 _value) public returns (bool success)   ... */\n    tag_31:\n        /* \"meta-mall/contracts/nft-loan.sol\":794:806  bool success */\n      0x00\n        /* \"meta-mall/contracts/nft-loan.sol\":846:847  0 */\n      dup1\n        /* \"meta-mall/contracts/nft-loan.sol\":836:842  _value */\n      dup3\n        /* \"meta-mall/contracts/nft-loan.sol\":836:847  _value == 0 */\n      eq\n        /* \"meta-mall/contracts/nft-loan.sol\":835:888  (_value == 0) || (allowed[msg.sender][_spender] == 0) */\n      dup1\n      tag_119\n      jumpi\n      pop\n        /* \"meta-mall/contracts/nft-loan.sol\":886:887  0 */\n      0x00\n        /* \"meta-mall/contracts/nft-loan.sol\":853:860  allowed */\n      0x05\n        /* \"meta-mall/contracts/nft-loan.sol\":853:872  allowed[msg.sender] */\n      0x00\n        /* \"meta-mall/contracts/nft-loan.sol\":861:871  msg.sender */\n      caller\n        /* \"meta-mall/contracts/nft-loan.sol\":853:872  allowed[msg.sender] */\n      0xffffffffffffffffffffffffffffffffffffffff\n      and\n      0xffffffffffffffffffffffffffffffffffffffff\n      and\n      dup2\n      mstore\n      0x20\n      add\n      swap1\n      dup2\n      mstore\n      0x20\n      add\n      0x00\n      keccak256\n        /* \"meta-mall/contracts/nft-loan.sol\":853:882  allowed[msg.sender][_spender] */\n      0x00\n        /* \"meta-mall/contracts/nft-loan.sol\":873:881  _spender */\n      dup6\n        /* \"meta-mall/contracts/nft-loan.sol\":853:882  allowed[msg.sender][_spender] */\n      0xffffffffffffffffffffffffffffffffffffffff\n      and\n      0xffffffffffffffffffffffffffffffffffffffff\n      and\n      dup2\n      mstore\n      0x20\n      add\n      swap1\n      dup2\n      mstore\n      0x20\n      add\n      0x00\n      keccak256\n      sload\n        /* \"meta-mall/contracts/nft-loan.sol\":853:887  allowed[msg.sender][_spender] == 0 */\n      eq\n        /* \"meta-mall/contracts/nft-loan.sol\":835:888  (_value == 0) || (allowed[msg.sender][_spender] == 0) */\n    tag_119:\n        /* \"meta-mall/contracts/nft-loan.sol\":827:889  require((_value == 0) || (allowed[msg.sender][_spender] == 0)) */\n      tag_120\n      jumpi\n      0x00\n      dup1\n      revert\n    tag_120:\n        /* \"meta-mall/contracts/nft-loan.sol\":931:937  _value */\n      dup2\n        /* \"meta-mall/contracts/nft-loan.sol\":899:906  allowed */\n      0x05\n        /* \"meta-mall/contracts/nft-loan.sol\":899:918  allowed[msg.sender] */\n      0x00\n        /* \"meta-mall/contracts/nft-loan.sol\":907:917  msg.sender */\n      caller\n        /* \"meta-mall/contracts/nft-loan.sol\":899:918  allowed[msg.sender] */\n      0xffffffffffffffffffffffffffffffffffffffff\n      and\n      0xffffffffffffffffffffffffffffffffffffffff\n      and\n      dup2\n      mstore\n      0x20\n      add\n      swap1\n      dup2\n      mstore\n      0x20\n      add\n      0x00\n      keccak256\n        /* \"meta-mall/contracts/nft-loan.sol\":899:928  allowed[msg.sender][_spender] */\n      0x00\n        /* \"meta-mall/contracts/nft-loan.sol\":919:927  _spender */\n      dup6\n        /* \"meta-mall/contracts/nft-loan.sol\":899:928  allowed[msg.sender][_spender] */\n      0xffffffffffffffffffffffffffffffffffffffff\n      and\n      0xffffffffffffffffffffffffffffffffffffffff\n      and\n      dup2\n      mstore\n      0x20\n      add\n      swap1\n      dup2\n      mstore\n      0x20\n      add\n      0x00\n      keccak256\n        /* \"meta-mall/contracts/nft-loan.sol\":899:937  allowed[msg.sender][_spender] = _value */\n      dup2\n      swap1\n      sstore\n      pop\n        /* \"meta-mall/contracts/nft-loan.sol\":951:989  Approval(msg.sender, _spender, _value) */\n      0x8c5be1e5ebec7d5bd14f71427d1e84f3dd0314c0f7b2291e5b200ac8c7c3b925\n        /* \"meta-mall/contracts/nft-loan.sol\":960:970  msg.sender */\n      caller\n        /* \"meta-mall/contracts/nft-loan.sol\":972:980  _spender */\n      dup5\n        /* \"meta-mall/contracts/nft-loan.sol\":982:988  _value */\n      dup5\n        /* \"meta-mall/contracts/nft-loan.sol\":951:989  Approval(msg.sender, _spender, _value) */\n      mload(0x40)\n      tag_121\n      swap4\n      swap3\n      swap2\n      swap1\n      tag_122\n      jump\t// in\n    tag_121:\n      mload(0x40)\n      dup1\n      swap2\n      sub\n      swap1\n      log1\n        /* \"meta-mall/contracts/nft-loan.sol\":1006:1010  true */\n      0x01\n        /* \"meta-mall/contracts/nft-loan.sol\":999:1010  return true */\n      swap1\n      pop\n        /* \"meta-mall/contracts/nft-loan.sol\":727:1017  function approve(address _spender, uint256 _value) public returns (bool success)   ... */\n      swap3\n      swap2\n      pop\n      pop\n      jump\t// out\n        /* \"meta-mall/contracts/nft-loan.sol\":3925:4617  function onERC721Received(address operator, address from, uint256 tokenId, bytes calldata data) external override returns(bytes4) {... */\n    tag_38:\n        /* \"meta-mall/contracts/nft-loan.sol\":4047:4053  bytes4 */\n      0x00\n        /* \"meta-mall/contracts/nft-loan.sol\":4443:4457  receivedTokens */\n      0x07\n        /* \"meta-mall/contracts/nft-loan.sol\":4443:4463  receivedTokens[from] */\n      0x00\n        /* \"meta-mall/contracts/nft-loan.sol\":4458:4462  from */\n      dup7\n        /* \"meta-mall/contracts/nft-loan.sol\":4443:4463  receivedTokens[from] */\n      0xffffffffffffffffffffffffffffffffffffffff\n      and\n      0xffffffffffffffffffffffffffffffffffffffff\n      and\n      dup2\n      mstore\n      0x20\n      add\n      swap1\n      dup2\n      mstore\n      0x20\n      add\n      0x00\n      keccak256\n        /* \"meta-mall/contracts/nft-loan.sol\":4469:4506  TokenData(tokenId, block.timestamp,1) */\n      mload(0x40)\n      dup1\n      0x60\n      add\n      0x40\n      mstore\n      dup1\n        /* \"meta-mall/contracts/nft-loan.sol\":4479:4486  tokenId */\n      dup7\n        /* \"meta-mall/contracts/nft-loan.sol\":4469:4506  TokenData(tokenId, block.timestamp,1) */\n      dup2\n      mstore\n      0x20\n      add\n        /* \"meta-mall/contracts/nft-loan.sol\":4488:4503  block.timestamp */\n      timestamp\n        /* \"meta-mall/contracts/nft-loan.sol\":4469:4506  TokenData(tokenId, block.timestamp,1) */\n      dup2\n      mstore\n      0x20\n      add\n        /* \"meta-mall/contracts/nft-loan.sol\":4504:4505  1 */\n      0x01\n        /* \"meta-mall/contracts/nft-loan.sol\":4469:4506  TokenData(tokenId, block.timestamp,1) */\n      dup2\n      mstore\n      pop\n        /* \"meta-mall/contracts/nft-loan.sol\":4443:4507  receivedTokens[from].push(TokenData(tokenId, block.timestamp,1)) */\n      swap1\n      dup1\n      0x01\n      dup2\n      sload\n      add\n      dup1\n      dup3\n      sstore\n      dup1\n      swap2\n      pop\n      pop\n      0x01\n      swap1\n      sub\n      swap1\n      0x00\n      mstore\n      keccak256(0x00, 0x20)\n      swap1\n      0x03\n      mul\n      add\n      0x00\n      swap1\n      swap2\n      swap1\n      swap2\n      swap1\n      swap2\n      pop\n      0x00\n      dup3\n      add\n      mload\n      dup2\n      0x00\n      add\n      sstore\n      0x20\n      dup3\n      add\n      mload\n      dup2\n      0x01\n      add\n      sstore\n      0x40\n      dup3\n      add\n      mload\n      dup2\n      0x02\n      add\n      sstore\n      pop\n      pop\n        /* \"meta-mall/contracts/nft-loan.sol\":4542:4549  tokenId */\n      dup4\n        /* \"meta-mall/contracts/nft-loan.sol\":4536:4540  from */\n      dup6\n        /* \"meta-mall/contracts/nft-loan.sol\":4522:4567  TokenReceived(from, tokenId, block.timestamp) */\n      0xffffffffffffffffffffffffffffffffffffffff\n      and\n      0xcbd44b327242a19152f06fd696fc88ca79d777e3de08a110708838867427bd51\n        /* \"meta-mall/contracts/nft-loan.sol\":4551:4566  block.timestamp */\n      timestamp\n        /* \"meta-mall/contracts/nft-loan.sol\":4522:4567  TokenReceived(from, tokenId, block.timestamp) */\n      mload(0x40)\n      tag_125\n      swap2\n      swap1\n      tag_45\n      jump\t// in\n    tag_125:\n      mload(0x40)\n      dup1\n      swap2\n      sub\n      swap1\n      log3\n        /* \"meta-mall/contracts/nft-loan.sol\":4584:4614  this.onERC721Received.selector */\n      shl(0xe0, 0x150b7a02)\n        /* \"meta-mall/contracts/nft-loan.sol\":4577:4614  return this.onERC721Received.selector */\n      swap1\n      pop\n        /* \"meta-mall/contracts/nft-loan.sol\":3925:4617  function onERC721Received(address operator, address from, uint256 tokenId, bytes calldata data) external override returns(bytes4) {... */\n      swap6\n      swap5\n      pop\n      pop\n      pop\n      pop\n      pop\n      jump\t// out\n        /* \"meta-mall/contracts/nft-loan.sol\":271:312  uint256 public  totalSupply = 10000000000 */\n    tag_43:\n      sload(0x03)\n      dup2\n      jump\t// out\n        /* \"meta-mall/contracts/nft-loan.sol\":2475:2635  function transferFrom(address _from, address _to, uint256 _value) public payable  returns (bool success){... */\n    tag_49:\n        /* \"meta-mall/contracts/nft-loan.sol\":2566:2578  bool success */\n      0x00\n        /* \"meta-mall/contracts/nft-loan.sol\":2597:2628  _transferFrom(_from,_to,_value) */\n      tag_127\n        /* \"meta-mall/contracts/nft-loan.sol\":2611:2616  _from */\n      dup5\n        /* \"meta-mall/contracts/nft-loan.sol\":2617:2620  _to */\n      dup5\n        /* \"meta-mall/contracts/nft-loan.sol\":2621:2627  _value */\n      dup5\n        /* \"meta-mall/contracts/nft-loan.sol\":2597:2610  _transferFrom */\n      tag_128\n        /* \"meta-mall/contracts/nft-loan.sol\":2597:2628  _transferFrom(_from,_to,_value) */\n      jump\t// in\n    tag_127:\n        /* \"meta-mall/contracts/nft-loan.sol\":2590:2628  return _transferFrom(_from,_to,_value) */\n      swap1\n      pop\n        /* \"meta-mall/contracts/nft-loan.sol\":2475:2635  function transferFrom(address _from, address _to, uint256 _value) public payable  returns (bool success){... */\n      swap4\n      swap3\n      pop\n      pop\n      pop\n      jump\t// out\n        /* \"meta-mall/contracts/nft-loan.sol\":5231:5345  function loansList(address user) public view returns (TokenData[] memory){... */\n    tag_55:\n        /* \"meta-mall/contracts/nft-loan.sol\":5285:5303  TokenData[] memory */\n      0x60\n        /* \"meta-mall/contracts/nft-loan.sol\":5322:5336  receivedTokens */\n      0x07\n        /* \"meta-mall/contracts/nft-loan.sol\":5322:5342  receivedTokens[user] */\n      0x00\n        /* \"meta-mall/contracts/nft-loan.sol\":5337:5341  user */\n      dup4\n        /* \"meta-mall/contracts/nft-loan.sol\":5322:5342  receivedTokens[user] */\n      0xffffffffffffffffffffffffffffffffffffffff\n      and\n      0xffffffffffffffffffffffffffffffffffffffff\n      and\n      dup2\n      mstore\n      0x20\n      add\n      swap1\n      dup2\n      mstore\n      0x20\n      add\n      0x00\n      keccak256\n        /* \"meta-mall/contracts/nft-loan.sol\":5315:5342  return receivedTokens[user] */\n      dup1\n      sload\n      dup1\n      0x20\n      mul\n      0x20\n      add\n      mload(0x40)\n      swap1\n      dup2\n      add\n      0x40\n      mstore\n      dup1\n      swap3\n      swap2\n      swap1\n      dup2\n      dup2\n      mstore\n      0x20\n      add\n      0x00\n      swap1\n    tag_130:\n      dup3\n      dup3\n      lt\n      iszero\n      tag_131\n      jumpi\n      dup4\n      dup3\n      swap1\n      0x00\n      mstore\n      keccak256(0x00, 0x20)\n      swap1\n      0x03\n      mul\n      add\n      mload(0x40)\n      dup1\n      0x60\n      add\n      0x40\n      mstore\n      swap1\n      dup2\n      0x00\n      dup3\n      add\n      sload\n      dup2\n      mstore\n      0x20\n      add\n      0x01\n      dup3\n      add\n      sload\n      dup2\n      mstore\n      0x20\n      add\n      0x02\n      dup3\n      add\n      sload\n      dup2\n      mstore\n      pop\n      pop\n      dup2\n      mstore\n      0x20\n      add\n      swap1\n      0x01\n      add\n      swap1\n      jump(tag_130)\n    tag_131:\n      pop\n      pop\n      pop\n      pop\n      swap1\n      pop\n        /* \"meta-mall/contracts/nft-loan.sol\":5231:5345  function loansList(address user) public view returns (TokenData[] memory){... */\n      swap2\n      swap1\n      pop\n      jump\t// out\n        /* \"meta-mall/contracts/nft-loan.sol\":239:265  uint8  public decimals = 4 */\n    tag_60:\n      0x02\n      0x00\n      swap1\n      sload\n      swap1\n      0x0100\n      exp\n      swap1\n      div\n      0xff\n      and\n      dup2\n      jump\t// out\n        /* \"meta-mall/contracts/nft-loan.sol\":4631:5092  function withdrawNFT(address to,uint256 _tokenId) onlyManager external payable {... */\n    tag_65:\n        /* \"meta-mall/contracts/nft-loan.sol\":5754:5759  owner */\n      0x06\n      0x00\n      swap1\n      sload\n      swap1\n      0x0100\n      exp\n      swap1\n      div\n      0xffffffffffffffffffffffffffffffffffffffff\n      and\n        /* \"meta-mall/contracts/nft-loan.sol\":5740:5759  msg.sender == owner */\n      0xffffffffffffffffffffffffffffffffffffffff\n      and\n        /* \"meta-mall/contracts/nft-loan.sol\":5740:5750  msg.sender */\n      caller\n        /* \"meta-mall/contracts/nft-loan.sol\":5740:5759  msg.sender == owner */\n      0xffffffffffffffffffffffffffffffffffffffff\n      and\n      eq\n        /* \"meta-mall/contracts/nft-loan.sol\":5719:5810  require(... */\n      tag_134\n      jumpi\n      mload(0x40)\n      0x08c379a000000000000000000000000000000000000000000000000000000000\n      dup2\n      mstore\n      0x04\n      add\n      tag_135\n      swap1\n      tag_136\n      jump\t// in\n    tag_135:\n      mload(0x40)\n      dup1\n      swap2\n      sub\n      swap1\n      revert\n    tag_134:\n        /* \"meta-mall/contracts/nft-loan.sol\":4721:4727  uint i */\n      0x00\n        /* \"meta-mall/contracts/nft-loan.sol\":4716:5081  for (uint i = 0; i < receivedTokens[to].length; ++i ) {... */\n    tag_138:\n        /* \"meta-mall/contracts/nft-loan.sol\":4737:4751  receivedTokens */\n      0x07\n        /* \"meta-mall/contracts/nft-loan.sol\":4737:4755  receivedTokens[to] */\n      0x00\n        /* \"meta-mall/contracts/nft-loan.sol\":4752:4754  to */\n      dup5\n        /* \"meta-mall/contracts/nft-loan.sol\":4737:4755  receivedTokens[to] */\n      0xffffffffffffffffffffffffffffffffffffffff\n      and\n      0xffffffffffffffffffffffffffffffffffffffff\n      and\n      dup2\n      mstore\n      0x20\n      add\n      swap1\n      dup2\n      mstore\n      0x20\n      add\n      0x00\n      keccak256\n        /* \"meta-mall/contracts/nft-loan.sol\":4737:4762  receivedTokens[to].length */\n      dup1\n      sload\n      swap1\n      pop\n        /* \"meta-mall/contracts/nft-loan.sol\":4733:4734  i */\n      dup2\n        /* \"meta-mall/contracts/nft-loan.sol\":4733:4762  i < receivedTokens[to].length */\n      lt\n        /* \"meta-mall/contracts/nft-loan.sol\":4716:5081  for (uint i = 0; i < receivedTokens[to].length; ++i ) {... */\n      iszero\n      tag_139\n      jumpi\n        /* \"meta-mall/contracts/nft-loan.sol\":4817:4825  _tokenId */\n      dup2\n        /* \"meta-mall/contracts/nft-loan.sol\":4784:4798  receivedTokens */\n      0x07\n        /* \"meta-mall/contracts/nft-loan.sol\":4784:4802  receivedTokens[to] */\n      0x00\n        /* \"meta-mall/contracts/nft-loan.sol\":4799:4801  to */\n      dup6\n        /* \"meta-mall/contracts/nft-loan.sol\":4784:4802  receivedTokens[to] */\n      0xffffffffffffffffffffffffffffffffffffffff\n      and\n      0xffffffffffffffffffffffffffffffffffffffff\n      and\n      dup2\n      mstore\n      0x20\n      add\n      swap1\n      dup2\n      mstore\n      0x20\n      add\n      0x00\n      keccak256\n        /* \"meta-mall/contracts/nft-loan.sol\":4803:4804  i */\n      dup3\n        /* \"meta-mall/contracts/nft-loan.sol\":4784:4805  receivedTokens[to][i] */\n      dup2\n      sload\n      dup2\n      lt\n      tag_141\n      jumpi\n      tag_142\n      tag_143\n      jump\t// in\n    tag_142:\n    tag_141:\n      swap1\n      0x00\n      mstore\n      keccak256(0x00, 0x20)\n      swap1\n      0x03\n      mul\n      add\n        /* \"meta-mall/contracts/nft-loan.sol\":4784:4813  receivedTokens[to][i].tokenId */\n      0x00\n      add\n      sload\n        /* \"meta-mall/contracts/nft-loan.sol\":4784:4825  receivedTokens[to][i].tokenId == _tokenId */\n      eq\n        /* \"meta-mall/contracts/nft-loan.sol\":4780:5075  if (receivedTokens[to][i].tokenId == _tokenId) {... */\n      iszero\n      tag_145\n      jumpi\n        /* \"meta-mall/contracts/nft-loan.sol\":4879:4880  1 */\n      0x01\n        /* \"meta-mall/contracts/nft-loan.sol\":4849:4863  receivedTokens */\n      0x07\n        /* \"meta-mall/contracts/nft-loan.sol\":4849:4867  receivedTokens[to] */\n      0x00\n        /* \"meta-mall/contracts/nft-loan.sol\":4864:4866  to */\n      dup6\n        /* \"meta-mall/contracts/nft-loan.sol\":4849:4867  receivedTokens[to] */\n      0xffffffffffffffffffffffffffffffffffffffff\n      and\n      0xffffffffffffffffffffffffffffffffffffffff\n      and\n      dup2\n      mstore\n      0x20\n      add\n      swap1\n      dup2\n      mstore\n      0x20\n      add\n      0x00\n      keccak256\n        /* \"meta-mall/contracts/nft-loan.sol\":4868:4869  i */\n      dup3\n        /* \"meta-mall/contracts/nft-loan.sol\":4849:4870  receivedTokens[to][i] */\n      dup2\n      sload\n      dup2\n      lt\n      tag_146\n      jumpi\n      tag_147\n      tag_143\n      jump\t// in\n    tag_147:\n    tag_146:\n      swap1\n      0x00\n      mstore\n      keccak256(0x00, 0x20)\n      swap1\n      0x03\n      mul\n      add\n        /* \"meta-mall/contracts/nft-loan.sol\":4849:4875  receivedTokens[to][i].flag */\n      0x02\n      add\n      sload\n        /* \"meta-mall/contracts/nft-loan.sol\":4849:4880  receivedTokens[to][i].flag == 1 */\n      eq\n        /* \"meta-mall/contracts/nft-loan.sol\":4841:4910  require(receivedTokens[to][i].flag == 1, \"You already have withdraw\") */\n      tag_149\n      jumpi\n      mload(0x40)\n      0x08c379a000000000000000000000000000000000000000000000000000000000\n      dup2\n      mstore\n      0x04\n      add\n      tag_150\n      swap1\n      tag_151\n      jump\t// in\n    tag_150:\n      mload(0x40)\n      dup1\n      swap2\n      sub\n      swap1\n      revert\n    tag_149:\n        /* \"meta-mall/contracts/nft-loan.sol\":4927:4947  TokenData storage td */\n      0x00\n        /* \"meta-mall/contracts/nft-loan.sol\":4950:4964  receivedTokens */\n      0x07\n        /* \"meta-mall/contracts/nft-loan.sol\":4950:4968  receivedTokens[to] */\n      0x00\n        /* \"meta-mall/contracts/nft-loan.sol\":4965:4967  to */\n      dup6\n        /* \"meta-mall/contracts/nft-loan.sol\":4950:4968  receivedTokens[to] */\n      0xffffffffffffffffffffffffffffffffffffffff\n      and\n      0xffffffffffffffffffffffffffffffffffffffff\n      and\n      dup2\n      mstore\n      0x20\n      add\n      swap1\n      dup2\n      mstore\n      0x20\n      add\n      0x00\n      keccak256\n        /* \"meta-mall/contracts/nft-loan.sol\":4969:4970  i */\n      dup3\n        /* \"meta-mall/contracts/nft-loan.sol\":4950:4971  receivedTokens[to][i] */\n      dup2\n      sload\n      dup2\n      lt\n      tag_152\n      jumpi\n      tag_153\n      tag_143\n      jump\t// in\n    tag_153:\n    tag_152:\n      swap1\n      0x00\n      mstore\n      keccak256(0x00, 0x20)\n      swap1\n      0x03\n      mul\n      add\n        /* \"meta-mall/contracts/nft-loan.sol\":4927:4971  TokenData storage td = receivedTokens[to][i] */\n      swap1\n      pop\n        /* \"meta-mall/contracts/nft-loan.sol\":4997:4998  0 */\n      0x00\n        /* \"meta-mall/contracts/nft-loan.sol\":4986:4988  td */\n      dup2\n        /* \"meta-mall/contracts/nft-loan.sol\":4986:4993  td.flag */\n      0x02\n      add\n        /* \"meta-mall/contracts/nft-loan.sol\":4986:4998  td.flag  = 0 */\n      dup2\n      swap1\n      sstore\n      pop\n        /* \"meta-mall/contracts/nft-loan.sol\":5013:5024  nftContract */\n      0x08\n      0x00\n      swap1\n      sload\n      swap1\n      0x0100\n      exp\n      swap1\n      div\n      0xffffffffffffffffffffffffffffffffffffffff\n      and\n        /* \"meta-mall/contracts/nft-loan.sol\":5013:5037  nftContract.transferFrom */\n      0xffffffffffffffffffffffffffffffffffffffff\n      and\n      0x23b872dd\n        /* \"meta-mall/contracts/nft-loan.sol\":5046:5050  this */\n      address\n        /* \"meta-mall/contracts/nft-loan.sol\":5052:5054  to */\n      dup7\n        /* \"meta-mall/contracts/nft-loan.sol\":5055:5063  _tokenId */\n      dup7\n        /* \"meta-mall/contracts/nft-loan.sol\":5013:5064  nftContract.transferFrom(address(this),to,_tokenId) */\n      mload(0x40)\n      dup5\n      0xffffffff\n      and\n      0xe0\n      shl\n      dup2\n      mstore\n      0x04\n      add\n      tag_155\n      swap4\n      swap3\n      swap2\n      swap1\n      tag_122\n      jump\t// in\n    tag_155:\n      0x00\n      mload(0x40)\n      dup1\n      dup4\n      sub\n      dup2\n      0x00\n      dup8\n      dup1\n      extcodesize\n      iszero\n      dup1\n      iszero\n      tag_156\n      jumpi\n      0x00\n      dup1\n      revert\n    tag_156:\n      pop\n      gas\n      call\n      iszero\n      dup1\n      iszero\n      tag_158\n      jumpi\n      returndatasize\n      0x00\n      dup1\n      returndatacopy\n      revert(0x00, returndatasize)\n    tag_158:\n      pop\n      pop\n      pop\n      pop\n        /* \"meta-mall/contracts/nft-loan.sol\":4827:5075  {... */\n      pop\n        /* \"meta-mall/contracts/nft-loan.sol\":4780:5075  if (receivedTokens[to][i].tokenId == _tokenId) {... */\n    tag_145:\n        /* \"meta-mall/contracts/nft-loan.sol\":4764:4767  ++i */\n      dup1\n      tag_159\n      swap1\n      tag_160\n      jump\t// in\n    tag_159:\n      swap1\n      pop\n        /* \"meta-mall/contracts/nft-loan.sol\":4716:5081  for (uint i = 0; i < receivedTokens[to].length; ++i ) {... */\n      jump(tag_138)\n    tag_139:\n      pop\n        /* \"meta-mall/contracts/nft-loan.sol\":4631:5092  function withdrawNFT(address to,uint256 _tokenId) onlyManager external payable {... */\n      pop\n      pop\n      jump\t// out\n        /* \"meta-mall/contracts/nft-loan.sol\":5093:5230  function ownerOf(uint256  _tokenId) public returns (address){... */\n    tag_70:\n        /* \"meta-mall/contracts/nft-loan.sol\":5145:5152  address */\n      0x00\n        /* \"meta-mall/contracts/nft-loan.sol\":5191:5202  nftContract */\n      0x08\n      0x00\n      swap1\n      sload\n      swap1\n      0x0100\n      exp\n      swap1\n      div\n      0xffffffffffffffffffffffffffffffffffffffff\n      and\n        /* \"meta-mall/contracts/nft-loan.sol\":5191:5210  nftContract.ownerOf */\n      0xffffffffffffffffffffffffffffffffffffffff\n      and\n      0x6352211e\n        /* \"meta-mall/contracts/nft-loan.sol\":5211:5219  _tokenId */\n      dup4\n        /* \"meta-mall/contracts/nft-loan.sol\":5191:5220  nftContract.ownerOf(_tokenId) */\n      mload(0x40)\n      dup3\n      0xffffffff\n      and\n      0xe0\n      shl\n      dup2\n      mstore\n      0x04\n      add\n      tag_162\n      swap2\n      swap1\n      tag_45\n      jump\t// in\n    tag_162:\n      0x20\n      mload(0x40)\n      dup1\n      dup4\n      sub\n      dup2\n      dup7\n      dup1\n      extcodesize\n      iszero\n      dup1\n      iszero\n      tag_163\n      jumpi\n      0x00\n      dup1\n      revert\n    tag_163:\n      pop\n      gas\n      staticcall\n      iszero\n      dup1\n      iszero\n      tag_165\n      jumpi\n      returndatasize\n      0x00\n      dup1\n      returndatacopy\n      revert(0x00, returndatasize)\n    tag_165:\n      pop\n      pop\n      pop\n      pop\n      mload(0x40)\n      returndatasize\n      not(0x1f)\n      0x1f\n      dup3\n      add\n      and\n      dup3\n      add\n      dup1\n      0x40\n      mstore\n      pop\n      dup2\n      add\n      swap1\n      tag_166\n      swap2\n      swap1\n      tag_167\n      jump\t// in\n    tag_166:\n        /* \"meta-mall/contracts/nft-loan.sol\":5184:5220  return nftContract.ownerOf(_tokenId) */\n      swap1\n      pop\n        /* \"meta-mall/contracts/nft-loan.sol\":5093:5230  function ownerOf(uint256  _tokenId) public returns (address){... */\n      swap2\n      swap1\n      pop\n      jump\t// out\n        /* \"meta-mall/contracts/nft-loan.sol\":609:722  function balanceOf(address _owner) public view returns (uint256 balance) {... */\n    tag_76:\n        /* \"meta-mall/contracts/nft-loan.sol\":665:680  uint256 balance */\n      0x00\n        /* \"meta-mall/contracts/nft-loan.sol\":699:707  balances */\n      0x04\n        /* \"meta-mall/contracts/nft-loan.sol\":699:715  balances[_owner] */\n      0x00\n        /* \"meta-mall/contracts/nft-loan.sol\":708:714  _owner */\n      dup4\n        /* \"meta-mall/contracts/nft-loan.sol\":699:715  balances[_owner] */\n      0xffffffffffffffffffffffffffffffffffffffff\n      and\n      0xffffffffffffffffffffffffffffffffffffffff\n      and\n      dup2\n      mstore\n      0x20\n      add\n      swap1\n      dup2\n      mstore\n      0x20\n      add\n      0x00\n      keccak256\n      sload\n        /* \"meta-mall/contracts/nft-loan.sol\":692:715  return balances[_owner] */\n      swap1\n      pop\n        /* \"meta-mall/contracts/nft-loan.sol\":609:722  function balanceOf(address _owner) public view returns (uint256 balance) {... */\n      swap2\n      swap1\n      pop\n      jump\t// out\n        /* \"meta-mall/contracts/nft-loan.sol\":1214:1305  function viewtotalSupply() public view returns (uint256){... */\n    tag_80:\n        /* \"meta-mall/contracts/nft-loan.sol\":1262:1269  uint256 */\n      0x00\n        /* \"meta-mall/contracts/nft-loan.sol\":1287:1298  totalSupply */\n      sload(0x03)\n        /* \"meta-mall/contracts/nft-loan.sol\":1280:1298  return totalSupply */\n      swap1\n      pop\n        /* \"meta-mall/contracts/nft-loan.sol\":1214:1305  function viewtotalSupply() public view returns (uint256){... */\n      swap1\n      jump\t// out\n        /* \"meta-mall/contracts/nft-loan.sol\":213:233  string public symbol */\n    tag_84:\n      0x01\n      dup1\n      sload\n      tag_170\n      swap1\n      tag_113\n      jump\t// in\n    tag_170:\n      dup1\n      0x1f\n      add\n      0x20\n      dup1\n      swap2\n      div\n      mul\n      0x20\n      add\n      mload(0x40)\n      swap1\n      dup2\n      add\n      0x40\n      mstore\n      dup1\n      swap3\n      swap2\n      swap1\n      dup2\n      dup2\n      mstore\n      0x20\n      add\n      dup3\n      dup1\n      sload\n      tag_171\n      swap1\n      tag_113\n      jump\t// in\n    tag_171:\n      dup1\n      iszero\n      tag_172\n      jumpi\n      dup1\n      0x1f\n      lt\n      tag_173\n      jumpi\n      0x0100\n      dup1\n      dup4\n      sload\n      div\n      mul\n      dup4\n      mstore\n      swap2\n      0x20\n      add\n      swap2\n      jump(tag_172)\n    tag_173:\n      dup3\n      add\n      swap2\n      swap1\n      0x00\n      mstore\n      keccak256(0x00, 0x20)\n      swap1\n    tag_174:\n      dup2\n      sload\n      dup2\n      mstore\n      swap1\n      0x01\n      add\n      swap1\n      0x20\n      add\n      dup1\n      dup4\n      gt\n      tag_174\n      jumpi\n      dup3\n      swap1\n      sub\n      0x1f\n      and\n      dup3\n      add\n      swap2\n    tag_172:\n      pop\n      pop\n      pop\n      pop\n      pop\n      dup2\n      jump\t// out\n        /* \"meta-mall/contracts/nft-loan.sol\":2338:2470  function transfer(address _to, uint256 _value) public payable  returns (bool success){... */\n    tag_88:\n        /* \"meta-mall/contracts/nft-loan.sol\":2410:2422  bool success */\n      0x00\n        /* \"meta-mall/contracts/nft-loan.sol\":2441:2462  _transfer(_to,_value) */\n      tag_176\n        /* \"meta-mall/contracts/nft-loan.sol\":2451:2454  _to */\n      dup4\n        /* \"meta-mall/contracts/nft-loan.sol\":2455:2461  _value */\n      dup4\n        /* \"meta-mall/contracts/nft-loan.sol\":2441:2450  _transfer */\n      tag_177\n        /* \"meta-mall/contracts/nft-loan.sol\":2441:2462  _transfer(_to,_value) */\n      jump\t// in\n    tag_176:\n        /* \"meta-mall/contracts/nft-loan.sol\":2434:2462  return _transfer(_to,_value) */\n      swap1\n      pop\n        /* \"meta-mall/contracts/nft-loan.sol\":2338:2470  function transfer(address _to, uint256 _value) public payable  returns (bool success){... */\n      swap3\n      swap2\n      pop\n      pop\n      jump\t// out\n        /* \"meta-mall/contracts/nft-loan.sol\":1691:1717  IERC721 public nftContract */\n    tag_92:\n      0x08\n      0x00\n      swap1\n      sload\n      swap1\n      0x0100\n      exp\n      swap1\n      div\n      0xffffffffffffffffffffffffffffffffffffffff\n      and\n      dup2\n      jump\t// out\n        /* \"meta-mall/contracts/nft-loan.sol\":1022:1209  function allowance(address _owner, address _spender) public view returns (uint256 remaining) {... */\n    tag_99:\n        /* \"meta-mall/contracts/nft-loan.sol\":1096:1113  uint256 remaining */\n      0x00\n        /* \"meta-mall/contracts/nft-loan.sol\":1132:1139  allowed */\n      0x05\n        /* \"meta-mall/contracts/nft-loan.sol\":1132:1147  allowed[_owner] */\n      0x00\n        /* \"meta-mall/contracts/nft-loan.sol\":1140:1146  _owner */\n      dup5\n        /* \"meta-mall/contracts/nft-loan.sol\":1132:1147  allowed[_owner] */\n      0xffffffffffffffffffffffffffffffffffffffff\n      and\n      0xffffffffffffffffffffffffffffffffffffffff\n      and\n      dup2\n      mstore\n      0x20\n      add\n      swap1\n      dup2\n      mstore\n      0x20\n      add\n      0x00\n      keccak256\n        /* \"meta-mall/contracts/nft-loan.sol\":1132:1157  allowed[_owner][_spender] */\n      0x00\n        /* \"meta-mall/contracts/nft-loan.sol\":1148:1156  _spender */\n      dup4\n        /* \"meta-mall/contracts/nft-loan.sol\":1132:1157  allowed[_owner][_spender] */\n      0xffffffffffffffffffffffffffffffffffffffff\n      and\n      0xffffffffffffffffffffffffffffffffffffffff\n      and\n      dup2\n      mstore\n      0x20\n      add\n      swap1\n      dup2\n      mstore\n      0x20\n      add\n      0x00\n      keccak256\n      sload\n        /* \"meta-mall/contracts/nft-loan.sol\":1125:1157  return allowed[_owner][_spender] */\n      swap1\n      pop\n        /* \"meta-mall/contracts/nft-loan.sol\":1022:1209  function allowance(address _owner, address _spender) public view returns (uint256 remaining) {... */\n      swap3\n      swap2\n      pop\n      pop\n      jump\t// out\n        /* \"meta-mall/contracts/nft-loan.sol\":1536:1589  mapping(address => TokenData[]) public receivedTokens */\n    tag_104:\n      mstore(0x20, 0x07)\n      dup2\n      0x00\n      mstore\n      keccak256(0x00, 0x40)\n      dup2\n      dup2\n      sload\n      dup2\n      lt\n      tag_179\n      jumpi\n      0x00\n      dup1\n      revert\n    tag_179:\n      swap1\n      0x00\n      mstore\n      keccak256(0x00, 0x20)\n      swap1\n      0x03\n      mul\n      add\n      0x00\n      swap2\n      pop\n      swap2\n      pop\n      pop\n      dup1\n      0x00\n      add\n      sload\n      swap1\n      dup1\n      0x01\n      add\n      sload\n      swap1\n      dup1\n      0x02\n      add\n      sload\n      swap1\n      pop\n      dup4\n      jump\t// out\n        /* \"meta-mall/contracts/nft-loan.sol\":5346:5680  function loansCount(address user) public view returns (uint256){... */\n    tag_110:\n        /* \"meta-mall/contracts/nft-loan.sol\":5401:5408  uint256 */\n      0x00\n        /* \"meta-mall/contracts/nft-loan.sol\":5415:5431  uint256 nowNumer */\n      dup1\n        /* \"meta-mall/contracts/nft-loan.sol\":5434:5448  receivedTokens */\n      0x07\n        /* \"meta-mall/contracts/nft-loan.sol\":5434:5454  receivedTokens[user] */\n      0x00\n        /* \"meta-mall/contracts/nft-loan.sol\":5449:5453  user */\n      dup5\n        /* \"meta-mall/contracts/nft-loan.sol\":5434:5454  receivedTokens[user] */\n      0xffffffffffffffffffffffffffffffffffffffff\n      and\n      0xffffffffffffffffffffffffffffffffffffffff\n      and\n      dup2\n      mstore\n      0x20\n      add\n      swap1\n      dup2\n      mstore\n      0x20\n      add\n      0x00\n      keccak256\n        /* \"meta-mall/contracts/nft-loan.sol\":5434:5461  receivedTokens[user].length */\n      dup1\n      sload\n      swap1\n      pop\n        /* \"meta-mall/contracts/nft-loan.sol\":5415:5461  uint256 nowNumer = receivedTokens[user].length */\n      swap1\n      pop\n        /* \"meta-mall/contracts/nft-loan.sol\":5472:5478  uint i */\n      0x00\n        /* \"meta-mall/contracts/nft-loan.sol\":5467:5657  for (uint i = 0; i < receivedTokens[user].length; ++i ) {... */\n    tag_182:\n        /* \"meta-mall/contracts/nft-loan.sol\":5488:5502  receivedTokens */\n      0x07\n        /* \"meta-mall/contracts/nft-loan.sol\":5488:5508  receivedTokens[user] */\n      0x00\n        /* \"meta-mall/contracts/nft-loan.sol\":5503:5507  user */\n      dup6\n        /* \"meta-mall/contracts/nft-loan.sol\":5488:5508  receivedTokens[user] */\n      0xffffffffffffffffffffffffffffffffffffffff\n      and\n      0xffffffffffffffffffffffffffffffffffffffff\n      and\n      dup2\n      mstore\n      0x20\n      add\n      swap1\n      dup2\n      mstore\n      0x20\n      add\n      0x00\n      keccak256\n        /* \"meta-mall/contracts/nft-loan.sol\":5488:5515  receivedTokens[user].length */\n      dup1\n      sload\n      swap1\n      pop\n        /* \"meta-mall/contracts/nft-loan.sol\":5484:5485  i */\n      dup2\n        /* \"meta-mall/contracts/nft-loan.sol\":5484:5515  i < receivedTokens[user].length */\n      lt\n        /* \"meta-mall/contracts/nft-loan.sol\":5467:5657  for (uint i = 0; i < receivedTokens[user].length; ++i ) {... */\n      iszero\n      tag_183\n      jumpi\n        /* \"meta-mall/contracts/nft-loan.sol\":5572:5573  0 */\n      0x00\n        /* \"meta-mall/contracts/nft-loan.sol\":5540:5554  receivedTokens */\n      0x07\n        /* \"meta-mall/contracts/nft-loan.sol\":5540:5560  receivedTokens[user] */\n      0x00\n        /* \"meta-mall/contracts/nft-loan.sol\":5555:5559  user */\n      dup7\n        /* \"meta-mall/contracts/nft-loan.sol\":5540:5560  receivedTokens[user] */\n      0xffffffffffffffffffffffffffffffffffffffff\n      and\n      0xffffffffffffffffffffffffffffffffffffffff\n      and\n      dup2\n      mstore\n      0x20\n      add\n      swap1\n      dup2\n      mstore\n      0x20\n      add\n      0x00\n      keccak256\n        /* \"meta-mall/contracts/nft-loan.sol\":5561:5562  i */\n      dup3\n        /* \"meta-mall/contracts/nft-loan.sol\":5540:5563  receivedTokens[user][i] */\n      dup2\n      sload\n      dup2\n      lt\n      tag_185\n      jumpi\n      tag_186\n      tag_143\n      jump\t// in\n    tag_186:\n    tag_185:\n      swap1\n      0x00\n      mstore\n      keccak256(0x00, 0x20)\n      swap1\n      0x03\n      mul\n      add\n        /* \"meta-mall/contracts/nft-loan.sol\":5540:5568  receivedTokens[user][i].flag */\n      0x02\n      add\n      sload\n        /* \"meta-mall/contracts/nft-loan.sol\":5540:5573  receivedTokens[user][i].flag == 0 */\n      eq\n        /* \"meta-mall/contracts/nft-loan.sol\":5537:5621  if(receivedTokens[user][i].flag == 0){... */\n      iszero\n      tag_188\n      jumpi\n        /* \"meta-mall/contracts/nft-loan.sol\":5592:5602  nowNumer-- */\n      dup2\n      dup1\n      tag_189\n      swap1\n      tag_190\n      jump\t// in\n    tag_189:\n      swap3\n      pop\n      pop\n        /* \"meta-mall/contracts/nft-loan.sol\":5537:5621  if(receivedTokens[user][i].flag == 0){... */\n    tag_188:\n        /* \"meta-mall/contracts/nft-loan.sol\":5517:5520  ++i */\n      dup1\n      tag_191\n      swap1\n      tag_160\n      jump\t// in\n    tag_191:\n      swap1\n      pop\n        /* \"meta-mall/contracts/nft-loan.sol\":5467:5657  for (uint i = 0; i < receivedTokens[user].length; ++i ) {... */\n      jump(tag_182)\n    tag_183:\n      pop\n        /* \"meta-mall/contracts/nft-loan.sol\":5669:5677  nowNumer */\n      dup1\n        /* \"meta-mall/contracts/nft-loan.sol\":5662:5677  return nowNumer */\n      swap2\n      pop\n      pop\n        /* \"meta-mall/contracts/nft-loan.sol\":5346:5680  function loansCount(address user) public view returns (uint256){... */\n      swap2\n      swap1\n      pop\n      jump\t// out\n        /* \"meta-mall/contracts/nft-loan.sol\":3143:3735  function _transferFrom(address _from, address _to, uint256 _value) internal returns ... */\n    tag_128:\n        /* \"meta-mall/contracts/nft-loan.sol\":3233:3245  bool success */\n      0x00\n        /* \"meta-mall/contracts/nft-loan.sol\":3284:3290  _value */\n      dup2\n        /* \"meta-mall/contracts/nft-loan.sol\":3265:3273  balances */\n      0x04\n        /* \"meta-mall/contracts/nft-loan.sol\":3265:3280  balances[_from] */\n      0x00\n        /* \"meta-mall/contracts/nft-loan.sol\":3274:3279  _from */\n      dup7\n        /* \"meta-mall/contracts/nft-loan.sol\":3265:3280  balances[_from] */\n      0xffffffffffffffffffffffffffffffffffffffff\n      and\n      0xffffffffffffffffffffffffffffffffffffffff\n      and\n      dup2\n      mstore\n      0x20\n      add\n      swap1\n      dup2\n      mstore\n      0x20\n      add\n      0x00\n      keccak256\n      sload\n        /* \"meta-mall/contracts/nft-loan.sol\":3265:3290  balances[_from] >= _value */\n      lt\n      iszero\n        /* \"meta-mall/contracts/nft-loan.sol\":3265:3330  balances[_from] >= _value && allowed[_from][msg.sender] >= _value */\n      dup1\n      iszero\n      tag_193\n      jumpi\n      pop\n        /* \"meta-mall/contracts/nft-loan.sol\":3324:3330  _value */\n      dup2\n        /* \"meta-mall/contracts/nft-loan.sol\":3294:3301  allowed */\n      0x05\n        /* \"meta-mall/contracts/nft-loan.sol\":3294:3308  allowed[_from] */\n      0x00\n        /* \"meta-mall/contracts/nft-loan.sol\":3302:3307  _from */\n      dup7\n        /* \"meta-mall/contracts/nft-loan.sol\":3294:3308  allowed[_from] */\n      0xffffffffffffffffffffffffffffffffffffffff\n      and\n      0xffffffffffffffffffffffffffffffffffffffff\n      and\n      dup2\n      mstore\n      0x20\n      add\n      swap1\n      dup2\n      mstore\n      0x20\n      add\n      0x00\n      keccak256\n        /* \"meta-mall/contracts/nft-loan.sol\":3294:3320  allowed[_from][msg.sender] */\n      0x00\n        /* \"meta-mall/contracts/nft-loan.sol\":3309:3319  msg.sender */\n      caller\n        /* \"meta-mall/contracts/nft-loan.sol\":3294:3320  allowed[_from][msg.sender] */\n      0xffffffffffffffffffffffffffffffffffffffff\n      and\n      0xffffffffffffffffffffffffffffffffffffffff\n      and\n      dup2\n      mstore\n      0x20\n      add\n      swap1\n      dup2\n      mstore\n      0x20\n      add\n      0x00\n      keccak256\n      sload\n        /* \"meta-mall/contracts/nft-loan.sol\":3294:3330  allowed[_from][msg.sender] >= _value */\n      lt\n      iszero\n        /* \"meta-mall/contracts/nft-loan.sol\":3265:3330  balances[_from] >= _value && allowed[_from][msg.sender] >= _value */\n    tag_193:\n        /* \"meta-mall/contracts/nft-loan.sol\":3257:3352  require(balances[_from] >= _value && allowed[_from][msg.sender] >= _value,\"Insufficient funds\") */\n      tag_194\n      jumpi\n      mload(0x40)\n      0x08c379a000000000000000000000000000000000000000000000000000000000\n      dup2\n      mstore\n      0x04\n      add\n      tag_195\n      swap1\n      tag_196\n      jump\t// in\n    tag_195:\n      mload(0x40)\n      dup1\n      swap2\n      sub\n      swap1\n      revert\n    tag_194:\n        /* \"meta-mall/contracts/nft-loan.sol\":3389:3395  _value */\n      dup2\n        /* \"meta-mall/contracts/nft-loan.sol\":3370:3378  balances */\n      0x04\n        /* \"meta-mall/contracts/nft-loan.sol\":3370:3385  balances[_from] */\n      0x00\n        /* \"meta-mall/contracts/nft-loan.sol\":3379:3384  _from */\n      dup7\n        /* \"meta-mall/contracts/nft-loan.sol\":3370:3385  balances[_from] */\n      0xffffffffffffffffffffffffffffffffffffffff\n      and\n      0xffffffffffffffffffffffffffffffffffffffff\n      and\n      dup2\n      mstore\n      0x20\n      add\n      swap1\n      dup2\n      mstore\n      0x20\n      add\n      0x00\n      keccak256\n      0x00\n        /* \"meta-mall/contracts/nft-loan.sol\":3370:3395  balances[_from] -= _value */\n      dup3\n      dup3\n      sload\n      tag_197\n      swap2\n      swap1\n      tag_198\n      jump\t// in\n    tag_197:\n      swap3\n      pop\n      pop\n      dup2\n      swap1\n      sstore\n      pop\n        /* \"meta-mall/contracts/nft-loan.sol\":3474:3480  _value */\n      dup2\n        /* \"meta-mall/contracts/nft-loan.sol\":3457:3465  balances */\n      0x04\n        /* \"meta-mall/contracts/nft-loan.sol\":3457:3470  balances[_to] */\n      0x00\n        /* \"meta-mall/contracts/nft-loan.sol\":3466:3469  _to */\n      dup6\n        /* \"meta-mall/contracts/nft-loan.sol\":3457:3470  balances[_to] */\n      0xffffffffffffffffffffffffffffffffffffffff\n      and\n      0xffffffffffffffffffffffffffffffffffffffff\n      and\n      dup2\n      mstore\n      0x20\n      add\n      swap1\n      dup2\n      mstore\n      0x20\n      add\n      0x00\n      keccak256\n      0x00\n        /* \"meta-mall/contracts/nft-loan.sol\":3457:3480  balances[_to] += _value */\n      dup3\n      dup3\n      sload\n      tag_199\n      swap2\n      swap1\n      tag_200\n      jump\t// in\n    tag_199:\n      swap3\n      pop\n      pop\n      dup2\n      swap1\n      sstore\n      pop\n        /* \"meta-mall/contracts/nft-loan.sol\":3565:3571  _value */\n      dup2\n        /* \"meta-mall/contracts/nft-loan.sol\":3535:3542  allowed */\n      0x05\n        /* \"meta-mall/contracts/nft-loan.sol\":3535:3549  allowed[_from] */\n      0x00\n        /* \"meta-mall/contracts/nft-loan.sol\":3543:3548  _from */\n      dup7\n        /* \"meta-mall/contracts/nft-loan.sol\":3535:3549  allowed[_from] */\n      0xffffffffffffffffffffffffffffffffffffffff\n      and\n      0xffffffffffffffffffffffffffffffffffffffff\n      and\n      dup2\n      mstore\n      0x20\n      add\n      swap1\n      dup2\n      mstore\n      0x20\n      add\n      0x00\n      keccak256\n        /* \"meta-mall/contracts/nft-loan.sol\":3535:3561  allowed[_from][msg.sender] */\n      0x00\n        /* \"meta-mall/contracts/nft-loan.sol\":3550:3560  msg.sender */\n      caller\n        /* \"meta-mall/contracts/nft-loan.sol\":3535:3561  allowed[_from][msg.sender] */\n      0xffffffffffffffffffffffffffffffffffffffff\n      and\n      0xffffffffffffffffffffffffffffffffffffffff\n      and\n      dup2\n      mstore\n      0x20\n      add\n      swap1\n      dup2\n      mstore\n      0x20\n      add\n      0x00\n      keccak256\n      0x00\n        /* \"meta-mall/contracts/nft-loan.sol\":3535:3571  allowed[_from][msg.sender] -= _value */\n      dup3\n      dup3\n      sload\n      tag_201\n      swap2\n      swap1\n      tag_198\n      jump\t// in\n    tag_201:\n      swap3\n      pop\n      pop\n      dup2\n      swap1\n      sstore\n      pop\n        /* \"meta-mall/contracts/nft-loan.sol\":3653:3681  Transfer(_from, _to, _value) */\n      0xddf252ad1be2c89b69c2b068fc378daa952ba7f163c4a11628f55a4df523b3ef\n        /* \"meta-mall/contracts/nft-loan.sol\":3662:3667  _from */\n      dup5\n        /* \"meta-mall/contracts/nft-loan.sol\":3669:3672  _to */\n      dup5\n        /* \"meta-mall/contracts/nft-loan.sol\":3674:3680  _value */\n      dup5\n        /* \"meta-mall/contracts/nft-loan.sol\":3653:3681  Transfer(_from, _to, _value) */\n      mload(0x40)\n      tag_202\n      swap4\n      swap3\n      swap2\n      swap1\n      tag_122\n      jump\t// in\n    tag_202:\n      mload(0x40)\n      dup1\n      swap2\n      sub\n      swap1\n      log1\n        /* \"meta-mall/contracts/nft-loan.sol\":3724:3728  true */\n      0x01\n        /* \"meta-mall/contracts/nft-loan.sol\":3717:3728  return true */\n      swap1\n      pop\n        /* \"meta-mall/contracts/nft-loan.sol\":3143:3735  function _transferFrom(address _from, address _to, uint256 _value) internal returns ... */\n      swap4\n      swap3\n      pop\n      pop\n      pop\n      jump\t// out\n        /* \"meta-mall/contracts/nft-loan.sol\":2640:3138  function _transfer(address _to, uint256 _value) internal returns (bool success){... */\n    tag_177:\n        /* \"meta-mall/contracts/nft-loan.sol\":2706:2718  bool success */\n      0x00\n        /* \"meta-mall/contracts/nft-loan.sol\":2761:2767  _value */\n      dup2\n        /* \"meta-mall/contracts/nft-loan.sol\":2737:2745  balances */\n      0x04\n        /* \"meta-mall/contracts/nft-loan.sol\":2737:2757  balances[msg.sender] */\n      0x00\n        /* \"meta-mall/contracts/nft-loan.sol\":2746:2756  msg.sender */\n      caller\n        /* \"meta-mall/contracts/nft-loan.sol\":2737:2757  balances[msg.sender] */\n      0xffffffffffffffffffffffffffffffffffffffff\n      and\n      0xffffffffffffffffffffffffffffffffffffffff\n      and\n      dup2\n      mstore\n      0x20\n      add\n      swap1\n      dup2\n      mstore\n      0x20\n      add\n      0x00\n      keccak256\n      sload\n        /* \"meta-mall/contracts/nft-loan.sol\":2737:2767  balances[msg.sender] >= _value */\n      lt\n      iszero\n        /* \"meta-mall/contracts/nft-loan.sol\":2737:2809  balances[msg.sender] >= _value && balances[_to] + _value > balances[_to] */\n      dup1\n      iszero\n      tag_204\n      jumpi\n      pop\n        /* \"meta-mall/contracts/nft-loan.sol\":2796:2804  balances */\n      0x04\n        /* \"meta-mall/contracts/nft-loan.sol\":2796:2809  balances[_to] */\n      0x00\n        /* \"meta-mall/contracts/nft-loan.sol\":2805:2808  _to */\n      dup5\n        /* \"meta-mall/contracts/nft-loan.sol\":2796:2809  balances[_to] */\n      0xffffffffffffffffffffffffffffffffffffffff\n      and\n      0xffffffffffffffffffffffffffffffffffffffff\n      and\n      dup2\n      mstore\n      0x20\n      add\n      swap1\n      dup2\n      mstore\n      0x20\n      add\n      0x00\n      keccak256\n      sload\n        /* \"meta-mall/contracts/nft-loan.sol\":2787:2793  _value */\n      dup3\n        /* \"meta-mall/contracts/nft-loan.sol\":2771:2779  balances */\n      0x04\n        /* \"meta-mall/contracts/nft-loan.sol\":2771:2784  balances[_to] */\n      0x00\n        /* \"meta-mall/contracts/nft-loan.sol\":2780:2783  _to */\n      dup7\n        /* \"meta-mall/contracts/nft-loan.sol\":2771:2784  balances[_to] */\n      0xffffffffffffffffffffffffffffffffffffffff\n      and\n      0xffffffffffffffffffffffffffffffffffffffff\n      and\n      dup2\n      mstore\n      0x20\n      add\n      swap1\n      dup2\n      mstore\n      0x20\n      add\n      0x00\n      keccak256\n      sload\n        /* \"meta-mall/contracts/nft-loan.sol\":2771:2793  balances[_to] + _value */\n      tag_205\n      swap2\n      swap1\n      tag_200\n      jump\t// in\n    tag_205:\n        /* \"meta-mall/contracts/nft-loan.sol\":2771:2809  balances[_to] + _value > balances[_to] */\n      gt\n        /* \"meta-mall/contracts/nft-loan.sol\":2737:2809  balances[msg.sender] >= _value && balances[_to] + _value > balances[_to] */\n    tag_204:\n        /* \"meta-mall/contracts/nft-loan.sol\":2729:2831  require(balances[msg.sender] >= _value && balances[_to] + _value > balances[_to],\"Insufficient funds\") */\n      tag_206\n      jumpi\n      mload(0x40)\n      0x08c379a000000000000000000000000000000000000000000000000000000000\n      dup2\n      mstore\n      0x04\n      add\n      tag_207\n      swap1\n      tag_196\n      jump\t// in\n    tag_207:\n      mload(0x40)\n      dup1\n      swap2\n      sub\n      swap1\n      revert\n    tag_206:\n        /* \"meta-mall/contracts/nft-loan.sol\":2874:2880  _value */\n      dup2\n        /* \"meta-mall/contracts/nft-loan.sol\":2850:2858  balances */\n      0x04\n        /* \"meta-mall/contracts/nft-loan.sol\":2850:2870  balances[msg.sender] */\n      0x00\n        /* \"meta-mall/contracts/nft-loan.sol\":2859:2869  msg.sender */\n      caller\n        /* \"meta-mall/contracts/nft-loan.sol\":2850:2870  balances[msg.sender] */\n      0xffffffffffffffffffffffffffffffffffffffff\n      and\n      0xffffffffffffffffffffffffffffffffffffffff\n      and\n      dup2\n      mstore\n      0x20\n      add\n      swap1\n      dup2\n      mstore\n      0x20\n      add\n      0x00\n      keccak256\n      0x00\n        /* \"meta-mall/contracts/nft-loan.sol\":2850:2880  balances[msg.sender] -= _value */\n      dup3\n      dup3\n      sload\n      tag_208\n      swap2\n      swap1\n      tag_198\n      jump\t// in\n    tag_208:\n      swap3\n      pop\n      pop\n      dup2\n      swap1\n      sstore\n      pop\n        /* \"meta-mall/contracts/nft-loan.sol\":2974:2980  _value */\n      dup2\n        /* \"meta-mall/contracts/nft-loan.sol\":2957:2965  balances */\n      0x04\n        /* \"meta-mall/contracts/nft-loan.sol\":2957:2970  balances[_to] */\n      0x00\n        /* \"meta-mall/contracts/nft-loan.sol\":2966:2969  _to */\n      dup6\n        /* \"meta-mall/contracts/nft-loan.sol\":2957:2970  balances[_to] */\n      0xffffffffffffffffffffffffffffffffffffffff\n      and\n      0xffffffffffffffffffffffffffffffffffffffff\n      and\n      dup2\n      mstore\n      0x20\n      add\n      swap1\n      dup2\n      mstore\n      0x20\n      add\n      0x00\n      keccak256\n      0x00\n        /* \"meta-mall/contracts/nft-loan.sol\":2957:2980  balances[_to] += _value */\n      dup3\n      dup3\n      sload\n      tag_209\n      swap2\n      swap1\n      tag_200\n      jump\t// in\n    tag_209:\n      swap3\n      pop\n      pop\n      dup2\n      swap1\n      sstore\n      pop\n        /* \"meta-mall/contracts/nft-loan.sol\":3043:3076  Transfer(msg.sender, _to, _value) */\n      0xddf252ad1be2c89b69c2b068fc378daa952ba7f163c4a11628f55a4df523b3ef\n        /* \"meta-mall/contracts/nft-loan.sol\":3052:3062  msg.sender */\n      caller\n        /* \"meta-mall/contracts/nft-loan.sol\":3064:3067  _to */\n      dup5\n        /* \"meta-mall/contracts/nft-loan.sol\":3069:3075  _value */\n      dup5\n        /* \"meta-mall/contracts/nft-loan.sol\":3043:3076  Transfer(msg.sender, _to, _value) */\n      mload(0x40)\n      tag_210\n      swap4\n      swap3\n      swap2\n      swap1\n      tag_122\n      jump\t// in\n    tag_210:\n      mload(0x40)\n      dup1\n      swap2\n      sub\n      swap1\n      log1\n        /* \"meta-mall/contracts/nft-loan.sol\":3127:3131  true */\n      0x01\n        /* \"meta-mall/contracts/nft-loan.sol\":3120:3131  return true */\n      swap1\n      pop\n        /* \"meta-mall/contracts/nft-loan.sol\":2640:3138  function _transfer(address _to, uint256 _value) internal returns (bool success){... */\n      swap3\n      swap2\n      pop\n      pop\n      jump\t// out\n        /* \"#utility.yul\":7:146   */\n    tag_212:\n        /* \"#utility.yul\":53:58   */\n      0x00\n        /* \"#utility.yul\":91:97   */\n      dup2\n        /* \"#utility.yul\":78:98   */\n      calldataload\n        /* \"#utility.yul\":69:98   */\n      swap1\n      pop\n        /* \"#utility.yul\":107:140   */\n      tag_214\n        /* \"#utility.yul\":134:139   */\n      dup2\n        /* \"#utility.yul\":107:140   */\n      tag_215\n      jump\t// in\n    tag_214:\n        /* \"#utility.yul\":7:146   */\n      swap3\n      swap2\n      pop\n      pop\n      jump\t// out\n        /* \"#utility.yul\":152:295   */\n    tag_216:\n        /* \"#utility.yul\":209:214   */\n      0x00\n        /* \"#utility.yul\":240:246   */\n      dup2\n        /* \"#utility.yul\":234:247   */\n      mload\n        /* \"#utility.yul\":225:247   */\n      swap1\n      pop\n        /* \"#utility.yul\":256:289   */\n      tag_218\n        /* \"#utility.yul\":283:288   */\n      dup2\n        /* \"#utility.yul\":256:289   */\n      tag_215\n      jump\t// in\n    tag_218:\n        /* \"#utility.yul\":152:295   */\n      swap3\n      swap2\n      pop\n      pop\n      jump\t// out\n        /* \"#utility.yul\":314:866   */\n    tag_219:\n        /* \"#utility.yul\":371:379   */\n      0x00\n        /* \"#utility.yul\":381:387   */\n      dup1\n        /* \"#utility.yul\":431:434   */\n      dup4\n        /* \"#utility.yul\":424:428   */\n      0x1f\n        /* \"#utility.yul\":416:422   */\n      dup5\n        /* \"#utility.yul\":412:429   */\n      add\n        /* \"#utility.yul\":408:435   */\n      slt\n        /* \"#utility.yul\":398:520   */\n      tag_221\n      jumpi\n        /* \"#utility.yul\":439:518   */\n      tag_222\n      tag_223\n      jump\t// in\n    tag_222:\n        /* \"#utility.yul\":398:520   */\n    tag_221:\n        /* \"#utility.yul\":552:558   */\n      dup3\n        /* \"#utility.yul\":539:559   */\n      calldataload\n        /* \"#utility.yul\":529:559   */\n      swap1\n      pop\n        /* \"#utility.yul\":582:600   */\n      0xffffffffffffffff\n        /* \"#utility.yul\":574:580   */\n      dup2\n        /* \"#utility.yul\":571:601   */\n      gt\n        /* \"#utility.yul\":568:685   */\n      iszero\n      tag_224\n      jumpi\n        /* \"#utility.yul\":604:683   */\n      tag_225\n      tag_226\n      jump\t// in\n    tag_225:\n        /* \"#utility.yul\":568:685   */\n    tag_224:\n        /* \"#utility.yul\":718:722   */\n      0x20\n        /* \"#utility.yul\":710:716   */\n      dup4\n        /* \"#utility.yul\":706:723   */\n      add\n        /* \"#utility.yul\":694:723   */\n      swap2\n      pop\n        /* \"#utility.yul\":772:775   */\n      dup4\n        /* \"#utility.yul\":764:768   */\n      0x01\n        /* \"#utility.yul\":756:762   */\n      dup3\n        /* \"#utility.yul\":752:769   */\n      mul\n        /* \"#utility.yul\":742:750   */\n      dup4\n        /* \"#utility.yul\":738:770   */\n      add\n        /* \"#utility.yul\":735:776   */\n      gt\n        /* \"#utility.yul\":732:860   */\n      iszero\n      tag_227\n      jumpi\n        /* \"#utility.yul\":779:858   */\n      tag_228\n      tag_229\n      jump\t// in\n    tag_228:\n        /* \"#utility.yul\":732:860   */\n    tag_227:\n        /* \"#utility.yul\":314:866   */\n      swap3\n      pop\n      swap3\n      swap1\n      pop\n      jump\t// out\n        /* \"#utility.yul\":872:1011   */\n    tag_230:\n        /* \"#utility.yul\":918:923   */\n      0x00\n        /* \"#utility.yul\":956:962   */\n      dup2\n        /* \"#utility.yul\":943:963   */\n      calldataload\n        /* \"#utility.yul\":934:963   */\n      swap1\n      pop\n        /* \"#utility.yul\":972:1005   */\n      tag_232\n        /* \"#utility.yul\":999:1004   */\n      dup2\n        /* \"#utility.yul\":972:1005   */\n      tag_233\n      jump\t// in\n    tag_232:\n        /* \"#utility.yul\":872:1011   */\n      swap3\n      swap2\n      pop\n      pop\n      jump\t// out\n        /* \"#utility.yul\":1017:1346   */\n    tag_54:\n        /* \"#utility.yul\":1076:1082   */\n      0x00\n        /* \"#utility.yul\":1125:1127   */\n      0x20\n        /* \"#utility.yul\":1113:1122   */\n      dup3\n        /* \"#utility.yul\":1104:1111   */\n      dup5\n        /* \"#utility.yul\":1100:1123   */\n      sub\n        /* \"#utility.yul\":1096:1128   */\n      slt\n        /* \"#utility.yul\":1093:1212   */\n      iszero\n      tag_235\n      jumpi\n        /* \"#utility.yul\":1131:1210   */\n      tag_236\n      tag_237\n      jump\t// in\n    tag_236:\n        /* \"#utility.yul\":1093:1212   */\n    tag_235:\n        /* \"#utility.yul\":1251:1252   */\n      0x00\n        /* \"#utility.yul\":1276:1329   */\n      tag_238\n        /* \"#utility.yul\":1321:1328   */\n      dup5\n        /* \"#utility.yul\":1312:1318   */\n      dup3\n        /* \"#utility.yul\":1301:1310   */\n      dup6\n        /* \"#utility.yul\":1297:1319   */\n      add\n        /* \"#utility.yul\":1276:1329   */\n      tag_212\n      jump\t// in\n    tag_238:\n        /* \"#utility.yul\":1266:1329   */\n      swap2\n      pop\n        /* \"#utility.yul\":1222:1339   */\n      pop\n        /* \"#utility.yul\":1017:1346   */\n      swap3\n      swap2\n      pop\n      pop\n      jump\t// out\n        /* \"#utility.yul\":1352:1703   */\n    tag_167:\n        /* \"#utility.yul\":1422:1428   */\n      0x00\n        /* \"#utility.yul\":1471:1473   */\n      0x20\n        /* \"#utility.yul\":1459:1468   */\n      dup3\n        /* \"#utility.yul\":1450:1457   */\n      dup5\n        /* \"#utility.yul\":1446:1469   */\n      sub\n        /* \"#utility.yul\":1442:1474   */\n      slt\n        /* \"#utility.yul\":1439:1558   */\n      iszero\n      tag_240\n      jumpi\n        /* \"#utility.yul\":1477:1556   */\n      tag_241\n      tag_237\n      jump\t// in\n    tag_241:\n        /* \"#utility.yul\":1439:1558   */\n    tag_240:\n        /* \"#utility.yul\":1597:1598   */\n      0x00\n        /* \"#utility.yul\":1622:1686   */\n      tag_242\n        /* \"#utility.yul\":1678:1685   */\n      dup5\n        /* \"#utility.yul\":1669:1675   */\n      dup3\n        /* \"#utility.yul\":1658:1667   */\n      dup6\n        /* \"#utility.yul\":1654:1676   */\n      add\n        /* \"#utility.yul\":1622:1686   */\n      tag_216\n      jump\t// in\n    tag_242:\n        /* \"#utility.yul\":1612:1686   */\n      swap2\n      pop\n        /* \"#utility.yul\":1568:1696   */\n      pop\n        /* \"#utility.yul\":1352:1703   */\n      swap3\n      swap2\n      pop\n      pop\n      jump\t// out\n        /* \"#utility.yul\":1709:2183   */\n    tag_98:\n        /* \"#utility.yul\":1777:1783   */\n      0x00\n        /* \"#utility.yul\":1785:1791   */\n      dup1\n        /* \"#utility.yul\":1834:1836   */\n      0x40\n        /* \"#utility.yul\":1822:1831   */\n      dup4\n        /* \"#utility.yul\":1813:1820   */\n      dup6\n        /* \"#utility.yul\":1809:1832   */\n      sub\n        /* \"#utility.yul\":1805:1837   */\n      slt\n        /* \"#utility.yul\":1802:1921   */\n      iszero\n      tag_244\n      jumpi\n        /* \"#utility.yul\":1840:1919   */\n      tag_245\n      tag_237\n      jump\t// in\n    tag_245:\n        /* \"#utility.yul\":1802:1921   */\n    tag_244:\n        /* \"#utility.yul\":1960:1961   */\n      0x00\n        /* \"#utility.yul\":1985:2038   */\n      tag_246\n        /* \"#utility.yul\":2030:2037   */\n      dup6\n        /* \"#utility.yul\":2021:2027   */\n      dup3\n        /* \"#utility.yul\":2010:2019   */\n      dup7\n        /* \"#utility.yul\":2006:2028   */\n      add\n        /* \"#utility.yul\":1985:2038   */\n      tag_212\n      jump\t// in\n    tag_246:\n        /* \"#utility.yul\":1975:2038   */\n      swap3\n      pop\n        /* \"#utility.yul\":1931:2048   */\n      pop\n        /* \"#utility.yul\":2087:2089   */\n      0x20\n        /* \"#utility.yul\":2113:2166   */\n      tag_247\n        /* \"#utility.yul\":2158:2165   */\n      dup6\n        /* \"#utility.yul\":2149:2155   */\n      dup3\n        /* \"#utility.yul\":2138:2147   */\n      dup7\n        /* \"#utility.yul\":2134:2156   */\n      add\n        /* \"#utility.yul\":2113:2166   */\n      tag_212\n      jump\t// in\n    tag_247:\n        /* \"#utility.yul\":2103:2166   */\n      swap2\n      pop\n        /* \"#utility.yul\":2058:2176   */\n      pop\n        /* \"#utility.yul\":1709:2183   */\n      swap3\n      pop\n      swap3\n      swap1\n      pop\n      jump\t// out\n        /* \"#utility.yul\":2189:2808   */\n    tag_48:\n        /* \"#utility.yul\":2266:2272   */\n      0x00\n        /* \"#utility.yul\":2274:2280   */\n      dup1\n        /* \"#utility.yul\":2282:2288   */\n      0x00\n        /* \"#utility.yul\":2331:2333   */\n      0x60\n        /* \"#utility.yul\":2319:2328   */\n      dup5\n        /* \"#utility.yul\":2310:2317   */\n      dup7\n        /* \"#utility.yul\":2306:2329   */\n      sub\n        /* \"#utility.yul\":2302:2334   */\n      slt\n        /* \"#utility.yul\":2299:2418   */\n      iszero\n      tag_249\n      jumpi\n        /* \"#utility.yul\":2337:2416   */\n      tag_250\n      tag_237\n      jump\t// in\n    tag_250:\n        /* \"#utility.yul\":2299:2418   */\n    tag_249:\n        /* \"#utility.yul\":2457:2458   */\n      0x00\n        /* \"#utility.yul\":2482:2535   */\n      tag_251\n        /* \"#utility.yul\":2527:2534   */\n      dup7\n        /* \"#utility.yul\":2518:2524   */\n      dup3\n        /* \"#utility.yul\":2507:2516   */\n      dup8\n        /* \"#utility.yul\":2503:2525   */\n      add\n        /* \"#utility.yul\":2482:2535   */\n      tag_212\n      jump\t// in\n    tag_251:\n        /* \"#utility.yul\":2472:2535   */\n      swap4\n      pop\n        /* \"#utility.yul\":2428:2545   */\n      pop\n        /* \"#utility.yul\":2584:2586   */\n      0x20\n        /* \"#utility.yul\":2610:2663   */\n      tag_252\n        /* \"#utility.yul\":2655:2662   */\n      dup7\n        /* \"#utility.yul\":2646:2652   */\n      dup3\n        /* \"#utility.yul\":2635:2644   */\n      dup8\n        /* \"#utility.yul\":2631:2653   */\n      add\n        /* \"#utility.yul\":2610:2663   */\n      tag_212\n      jump\t// in\n    tag_252:\n        /* \"#utility.yul\":2600:2663   */\n      swap3\n      pop\n        /* \"#utility.yul\":2555:2673   */\n      pop\n        /* \"#utility.yul\":2712:2714   */\n      0x40\n        /* \"#utility.yul\":2738:2791   */\n      tag_253\n        /* \"#utility.yul\":2783:2790   */\n      dup7\n        /* \"#utility.yul\":2774:2780   */\n      dup3\n        /* \"#utility.yul\":2763:2772   */\n      dup8\n        /* \"#utility.yul\":2759:2781   */\n      add\n        /* \"#utility.yul\":2738:2791   */\n      tag_230\n      jump\t// in\n    tag_253:\n        /* \"#utility.yul\":2728:2791   */\n      swap2\n      pop\n        /* \"#utility.yul\":2683:2801   */\n      pop\n        /* \"#utility.yul\":2189:2808   */\n      swap3\n      pop\n      swap3\n      pop\n      swap3\n      jump\t// out\n        /* \"#utility.yul\":2814:3777   */\n    tag_37:\n        /* \"#utility.yul\":2911:2917   */\n      0x00\n        /* \"#utility.yul\":2919:2925   */\n      dup1\n        /* \"#utility.yul\":2927:2933   */\n      0x00\n        /* \"#utility.yul\":2935:2941   */\n      dup1\n        /* \"#utility.yul\":2943:2949   */\n      0x00\n        /* \"#utility.yul\":2992:2995   */\n      0x80\n        /* \"#utility.yul\":2980:2989   */\n      dup7\n        /* \"#utility.yul\":2971:2978   */\n      dup9\n        /* \"#utility.yul\":2967:2990   */\n      sub\n        /* \"#utility.yul\":2963:2996   */\n      slt\n        /* \"#utility.yul\":2960:3080   */\n      iszero\n      tag_255\n      jumpi\n        /* \"#utility.yul\":2999:3078   */\n      tag_256\n      tag_237\n      jump\t// in\n    tag_256:\n        /* \"#utility.yul\":2960:3080   */\n    tag_255:\n        /* \"#utility.yul\":3119:3120   */\n      0x00\n        /* \"#utility.yul\":3144:3197   */\n      tag_257\n        /* \"#utility.yul\":3189:3196   */\n      dup9\n        /* \"#utility.yul\":3180:3186   */\n      dup3\n        /* \"#utility.yul\":3169:3178   */\n      dup10\n        /* \"#utility.yul\":3165:3187   */\n      add\n        /* \"#utility.yul\":3144:3197   */\n      tag_212\n      jump\t// in\n    tag_257:\n        /* \"#utility.yul\":3134:3197   */\n      swap6\n      pop\n        /* \"#utility.yul\":3090:3207   */\n      pop\n        /* \"#utility.yul\":3246:3248   */\n      0x20\n        /* \"#utility.yul\":3272:3325   */\n      tag_258\n        /* \"#utility.yul\":3317:3324   */\n      dup9\n        /* \"#utility.yul\":3308:3314   */\n      dup3\n        /* \"#utility.yul\":3297:3306   */\n      dup10\n        /* \"#utility.yul\":3293:3315   */\n      add\n        /* \"#utility.yul\":3272:3325   */\n      tag_212\n      jump\t// in\n    tag_258:\n        /* \"#utility.yul\":3262:3325   */\n      swap5\n      pop\n        /* \"#utility.yul\":3217:3335   */\n      pop\n        /* \"#utility.yul\":3374:3376   */\n      0x40\n        /* \"#utility.yul\":3400:3453   */\n      tag_259\n        /* \"#utility.yul\":3445:3452   */\n      dup9\n        /* \"#utility.yul\":3436:3442   */\n      dup3\n        /* \"#utility.yul\":3425:3434   */\n      dup10\n        /* \"#utility.yul\":3421:3443   */\n      add\n        /* \"#utility.yul\":3400:3453   */\n      tag_230\n      jump\t// in\n    tag_259:\n        /* \"#utility.yul\":3390:3453   */\n      swap4\n      pop\n        /* \"#utility.yul\":3345:3463   */\n      pop\n        /* \"#utility.yul\":3530:3532   */\n      0x60\n        /* \"#utility.yul\":3519:3528   */\n      dup7\n        /* \"#utility.yul\":3515:3533   */\n      add\n        /* \"#utility.yul\":3502:3534   */\n      calldataload\n        /* \"#utility.yul\":3561:3579   */\n      0xffffffffffffffff\n        /* \"#utility.yul\":3553:3559   */\n      dup2\n        /* \"#utility.yul\":3550:3580   */\n      gt\n        /* \"#utility.yul\":3547:3664   */\n      iszero\n      tag_260\n      jumpi\n        /* \"#utility.yul\":3583:3662   */\n      tag_261\n      tag_262\n      jump\t// in\n    tag_261:\n        /* \"#utility.yul\":3547:3664   */\n    tag_260:\n        /* \"#utility.yul\":3696:3760   */\n      tag_263\n        /* \"#utility.yul\":3752:3759   */\n      dup9\n        /* \"#utility.yul\":3743:3749   */\n      dup3\n        /* \"#utility.yul\":3732:3741   */\n      dup10\n        /* \"#utility.yul\":3728:3750   */\n      add\n        /* \"#utility.yul\":3696:3760   */\n      tag_219\n      jump\t// in\n    tag_263:\n        /* \"#utility.yul\":3678:3760   */\n      swap3\n      pop\n      swap3\n      pop\n        /* \"#utility.yul\":3473:3770   */\n      pop\n        /* \"#utility.yul\":2814:3777   */\n      swap3\n      swap6\n      pop\n      swap3\n      swap6\n      swap1\n      swap4\n      pop\n      jump\t// out\n        /* \"#utility.yul\":3783:4257   */\n    tag_30:\n        /* \"#utility.yul\":3851:3857   */\n      0x00\n        /* \"#utility.yul\":3859:3865   */\n      dup1\n        /* \"#utility.yul\":3908:3910   */\n      0x40\n        /* \"#utility.yul\":3896:3905   */\n      dup4\n        /* \"#utility.yul\":3887:3894   */\n      dup6\n        /* \"#utility.yul\":3883:3906   */\n      sub\n        /* \"#utility.yul\":3879:3911   */\n      slt\n        /* \"#utility.yul\":3876:3995   */\n      iszero\n      tag_265\n      jumpi\n        /* \"#utility.yul\":3914:3993   */\n      tag_266\n      tag_237\n      jump\t// in\n    tag_266:\n        /* \"#utility.yul\":3876:3995   */\n    tag_265:\n        /* \"#utility.yul\":4034:4035   */\n      0x00\n        /* \"#utility.yul\":4059:4112   */\n      tag_267\n        /* \"#utility.yul\":4104:4111   */\n      dup6\n        /* \"#utility.yul\":4095:4101   */\n      dup3\n        /* \"#utility.yul\":4084:4093   */\n      dup7\n        /* \"#utility.yul\":4080:4102   */\n      add\n        /* \"#utility.yul\":4059:4112   */\n      tag_212\n      jump\t// in\n    tag_267:\n        /* \"#utility.yul\":4049:4112   */\n      swap3\n      pop\n        /* \"#utility.yul\":4005:4122   */\n      pop\n        /* \"#utility.yul\":4161:4163   */\n      0x20\n        /* \"#utility.yul\":4187:4240   */\n      tag_268\n        /* \"#utility.yul\":4232:4239   */\n      dup6\n        /* \"#utility.yul\":4223:4229   */\n      dup3\n        /* \"#utility.yul\":4212:4221   */\n      dup7\n        /* \"#utility.yul\":4208:4230   */\n      add\n        /* \"#utility.yul\":4187:4240   */\n      tag_230\n      jump\t// in\n    tag_268:\n        /* \"#utility.yul\":4177:4240   */\n      swap2\n      pop\n        /* \"#utility.yul\":4132:4250   */\n      pop\n        /* \"#utility.yul\":3783:4257   */\n      swap3\n      pop\n      swap3\n      swap1\n      pop\n      jump\t// out\n        /* \"#utility.yul\":4263:4592   */\n    tag_69:\n        /* \"#utility.yul\":4322:4328   */\n      0x00\n        /* \"#utility.yul\":4371:4373   */\n      0x20\n        /* \"#utility.yul\":4359:4368   */\n      dup3\n        /* \"#utility.yul\":4350:4357   */\n      dup5\n        /* \"#utility.yul\":4346:4369   */\n      sub\n        /* \"#utility.yul\":4342:4374   */\n      slt\n        /* \"#utility.yul\":4339:4458   */\n      iszero\n      tag_270\n      jumpi\n        /* \"#utility.yul\":4377:4456   */\n      tag_271\n      tag_237\n      jump\t// in\n    tag_271:\n        /* \"#utility.yul\":4339:4458   */\n    tag_270:\n        /* \"#utility.yul\":4497:4498   */\n      0x00\n        /* \"#utility.yul\":4522:4575   */\n      tag_272\n        /* \"#utility.yul\":4567:4574   */\n      dup5\n        /* \"#utility.yul\":4558:4564   */\n      dup3\n        /* \"#utility.yul\":4547:4556   */\n      dup6\n        /* \"#utility.yul\":4543:4565   */\n      add\n        /* \"#utility.yul\":4522:4575   */\n      tag_230\n      jump\t// in\n    tag_272:\n        /* \"#utility.yul\":4512:4575   */\n      swap2\n      pop\n        /* \"#utility.yul\":4468:4585   */\n      pop\n        /* \"#utility.yul\":4263:4592   */\n      swap3\n      swap2\n      pop\n      pop\n      jump\t// out\n        /* \"#utility.yul\":4598:4881   */\n    tag_273:\n        /* \"#utility.yul\":4719:4729   */\n      0x00\n        /* \"#utility.yul\":4740:4838   */\n      tag_275\n        /* \"#utility.yul\":4834:4837   */\n      dup4\n        /* \"#utility.yul\":4826:4832   */\n      dup4\n        /* \"#utility.yul\":4740:4838   */\n      tag_276\n      jump\t// in\n    tag_275:\n        /* \"#utility.yul\":4870:4874   */\n      0x60\n        /* \"#utility.yul\":4865:4868   */\n      dup4\n        /* \"#utility.yul\":4861:4875   */\n      add\n        /* \"#utility.yul\":4847:4875   */\n      swap1\n      pop\n        /* \"#utility.yul\":4598:4881   */\n      swap3\n      swap2\n      pop\n      pop\n      jump\t// out\n        /* \"#utility.yul\":4887:5005   */\n    tag_277:\n        /* \"#utility.yul\":4974:4998   */\n      tag_279\n        /* \"#utility.yul\":4992:4997   */\n      dup2\n        /* \"#utility.yul\":4974:4998   */\n      tag_280\n      jump\t// in\n    tag_279:\n        /* \"#utility.yul\":4969:4972   */\n      dup3\n        /* \"#utility.yul\":4962:4999   */\n      mstore\n        /* \"#utility.yul\":4887:5005   */\n      pop\n      pop\n      jump\t// out\n        /* \"#utility.yul\":5067:6007   */\n    tag_281:\n        /* \"#utility.yul\":5238:5241   */\n      0x00\n        /* \"#utility.yul\":5267:5347   */\n      tag_283\n        /* \"#utility.yul\":5341:5346   */\n      dup3\n        /* \"#utility.yul\":5267:5347   */\n      tag_284\n      jump\t// in\n    tag_283:\n        /* \"#utility.yul\":5363:5475   */\n      tag_285\n        /* \"#utility.yul\":5468:5474   */\n      dup2\n        /* \"#utility.yul\":5463:5466   */\n      dup6\n        /* \"#utility.yul\":5363:5475   */\n      tag_286\n      jump\t// in\n    tag_285:\n        /* \"#utility.yul\":5356:5475   */\n      swap4\n      pop\n        /* \"#utility.yul\":5499:5581   */\n      tag_287\n        /* \"#utility.yul\":5575:5580   */\n      dup4\n        /* \"#utility.yul\":5499:5581   */\n      tag_288\n      jump\t// in\n    tag_287:\n        /* \"#utility.yul\":5604:5611   */\n      dup1\n        /* \"#utility.yul\":5635:5636   */\n      0x00\n        /* \"#utility.yul\":5620:5982   */\n    tag_289:\n        /* \"#utility.yul\":5645:5651   */\n      dup4\n        /* \"#utility.yul\":5642:5643   */\n      dup2\n        /* \"#utility.yul\":5639:5652   */\n      lt\n        /* \"#utility.yul\":5620:5982   */\n      iszero\n      tag_291\n      jumpi\n        /* \"#utility.yul\":5721:5727   */\n      dup2\n        /* \"#utility.yul\":5715:5728   */\n      mload\n        /* \"#utility.yul\":5748:5863   */\n      tag_292\n        /* \"#utility.yul\":5859:5862   */\n      dup9\n        /* \"#utility.yul\":5844:5857   */\n      dup3\n        /* \"#utility.yul\":5748:5863   */\n      tag_273\n      jump\t// in\n    tag_292:\n        /* \"#utility.yul\":5741:5863   */\n      swap8\n      pop\n        /* \"#utility.yul\":5886:5972   */\n      tag_293\n        /* \"#utility.yul\":5965:5971   */\n      dup4\n        /* \"#utility.yul\":5886:5972   */\n      tag_294\n      jump\t// in\n    tag_293:\n        /* \"#utility.yul\":5876:5972   */\n      swap3\n      pop\n        /* \"#utility.yul\":5680:5982   */\n      pop\n        /* \"#utility.yul\":5667:5668   */\n      0x01\n        /* \"#utility.yul\":5664:5665   */\n      dup2\n        /* \"#utility.yul\":5660:5669   */\n      add\n        /* \"#utility.yul\":5655:5669   */\n      swap1\n      pop\n        /* \"#utility.yul\":5620:5982   */\n      jump(tag_289)\n    tag_291:\n        /* \"#utility.yul\":5624:5638   */\n      pop\n        /* \"#utility.yul\":5998:6001   */\n      dup6\n        /* \"#utility.yul\":5991:6001   */\n      swap4\n      pop\n        /* \"#utility.yul\":5243:6007   */\n      pop\n      pop\n      pop\n        /* \"#utility.yul\":5067:6007   */\n      swap3\n      swap2\n      pop\n      pop\n      jump\t// out\n        /* \"#utility.yul\":6013:6122   */\n    tag_295:\n        /* \"#utility.yul\":6094:6115   */\n      tag_297\n        /* \"#utility.yul\":6109:6114   */\n      dup2\n        /* \"#utility.yul\":6094:6115   */\n      tag_298\n      jump\t// in\n    tag_297:\n        /* \"#utility.yul\":6089:6092   */\n      dup3\n        /* \"#utility.yul\":6082:6116   */\n      mstore\n        /* \"#utility.yul\":6013:6122   */\n      pop\n      pop\n      jump\t// out\n        /* \"#utility.yul\":6128:6243   */\n    tag_299:\n        /* \"#utility.yul\":6213:6236   */\n      tag_301\n        /* \"#utility.yul\":6230:6235   */\n      dup2\n        /* \"#utility.yul\":6213:6236   */\n      tag_302\n      jump\t// in\n    tag_301:\n        /* \"#utility.yul\":6208:6211   */\n      dup3\n        /* \"#utility.yul\":6201:6237   */\n      mstore\n        /* \"#utility.yul\":6128:6243   */\n      pop\n      pop\n      jump\t// out\n        /* \"#utility.yul\":6249:6410   */\n    tag_303:\n        /* \"#utility.yul\":6351:6403   */\n      tag_305\n        /* \"#utility.yul\":6397:6402   */\n      dup2\n        /* \"#utility.yul\":6351:6403   */\n      tag_306\n      jump\t// in\n    tag_305:\n        /* \"#utility.yul\":6346:6349   */\n      dup3\n        /* \"#utility.yul\":6339:6404   */\n      mstore\n        /* \"#utility.yul\":6249:6410   */\n      pop\n      pop\n      jump\t// out\n        /* \"#utility.yul\":6416:6780   */\n    tag_307:\n        /* \"#utility.yul\":6504:6507   */\n      0x00\n        /* \"#utility.yul\":6532:6571   */\n      tag_309\n        /* \"#utility.yul\":6565:6570   */\n      dup3\n        /* \"#utility.yul\":6532:6571   */\n      tag_310\n      jump\t// in\n    tag_309:\n        /* \"#utility.yul\":6587:6658   */\n      tag_311\n        /* \"#utility.yul\":6651:6657   */\n      dup2\n        /* \"#utility.yul\":6646:6649   */\n      dup6\n        /* \"#utility.yul\":6587:6658   */\n      tag_312\n      jump\t// in\n    tag_311:\n        /* \"#utility.yul\":6580:6658   */\n      swap4\n      pop\n        /* \"#utility.yul\":6667:6719   */\n      tag_313\n        /* \"#utility.yul\":6712:6718   */\n      dup2\n        /* \"#utility.yul\":6707:6710   */\n      dup6\n        /* \"#utility.yul\":6700:6704   */\n      0x20\n        /* \"#utility.yul\":6693:6698   */\n      dup7\n        /* \"#utility.yul\":6689:6705   */\n      add\n        /* \"#utility.yul\":6667:6719   */\n      tag_314\n      jump\t// in\n    tag_313:\n        /* \"#utility.yul\":6744:6773   */\n      tag_315\n        /* \"#utility.yul\":6766:6772   */\n      dup2\n        /* \"#utility.yul\":6744:6773   */\n      tag_316\n      jump\t// in\n    tag_315:\n        /* \"#utility.yul\":6739:6742   */\n      dup5\n        /* \"#utility.yul\":6735:6774   */\n      add\n        /* \"#utility.yul\":6728:6774   */\n      swap2\n      pop\n        /* \"#utility.yul\":6508:6780   */\n      pop\n        /* \"#utility.yul\":6416:6780   */\n      swap3\n      swap2\n      pop\n      pop\n      jump\t// out\n        /* \"#utility.yul\":6786:7152   */\n    tag_317:\n        /* \"#utility.yul\":6928:6931   */\n      0x00\n        /* \"#utility.yul\":6949:7016   */\n      tag_319\n        /* \"#utility.yul\":7013:7015   */\n      0x19\n        /* \"#utility.yul\":7008:7011   */\n      dup4\n        /* \"#utility.yul\":6949:7016   */\n      tag_312\n      jump\t// in\n    tag_319:\n        /* \"#utility.yul\":6942:7016   */\n      swap2\n      pop\n        /* \"#utility.yul\":7025:7118   */\n      tag_320\n        /* \"#utility.yul\":7114:7117   */\n      dup3\n        /* \"#utility.yul\":7025:7118   */\n      tag_321\n      jump\t// in\n    tag_320:\n        /* \"#utility.yul\":7143:7145   */\n      0x20\n        /* \"#utility.yul\":7138:7141   */\n      dup3\n        /* \"#utility.yul\":7134:7146   */\n      add\n        /* \"#utility.yul\":7127:7146   */\n      swap1\n      pop\n        /* \"#utility.yul\":6786:7152   */\n      swap2\n      swap1\n      pop\n      jump\t// out\n        /* \"#utility.yul\":7158:7524   */\n    tag_322:\n        /* \"#utility.yul\":7300:7303   */\n      0x00\n        /* \"#utility.yul\":7321:7388   */\n      tag_324\n        /* \"#utility.yul\":7385:7387   */\n      0x12\n        /* \"#utility.yul\":7380:7383   */\n      dup4\n        /* \"#utility.yul\":7321:7388   */\n      tag_312\n      jump\t// in\n    tag_324:\n        /* \"#utility.yul\":7314:7388   */\n      swap2\n      pop\n        /* \"#utility.yul\":7397:7490   */\n      tag_325\n        /* \"#utility.yul\":7486:7489   */\n      dup3\n        /* \"#utility.yul\":7397:7490   */\n      tag_326\n      jump\t// in\n    tag_325:\n        /* \"#utility.yul\":7515:7517   */\n      0x20\n        /* \"#utility.yul\":7510:7513   */\n      dup3\n        /* \"#utility.yul\":7506:7518   */\n      add\n        /* \"#utility.yul\":7499:7518   */\n      swap1\n      pop\n        /* \"#utility.yul\":7158:7524   */\n      swap2\n      swap1\n      pop\n      jump\t// out\n        /* \"#utility.yul\":7530:7896   */\n    tag_327:\n        /* \"#utility.yul\":7672:7675   */\n      0x00\n        /* \"#utility.yul\":7693:7760   */\n      tag_329\n        /* \"#utility.yul\":7757:7759   */\n      0x19\n        /* \"#utility.yul\":7752:7755   */\n      dup4\n        /* \"#utility.yul\":7693:7760   */\n      tag_312\n      jump\t// in\n    tag_329:\n        /* \"#utility.yul\":7686:7760   */\n      swap2\n      pop\n        /* \"#utility.yul\":7769:7862   */\n      tag_330\n        /* \"#utility.yul\":7858:7861   */\n      dup3\n        /* \"#utility.yul\":7769:7862   */\n      tag_331\n      jump\t// in\n    tag_330:\n        /* \"#utility.yul\":7887:7889   */\n      0x20\n        /* \"#utility.yul\":7882:7885   */\n      dup3\n        /* \"#utility.yul\":7878:7890   */\n      add\n        /* \"#utility.yul\":7871:7890   */\n      swap1\n      pop\n        /* \"#utility.yul\":7530:7896   */\n      swap2\n      swap1\n      pop\n      jump\t// out\n        /* \"#utility.yul\":7954:8638   */\n    tag_276:\n        /* \"#utility.yul\":8093:8097   */\n      0x60\n        /* \"#utility.yul\":8088:8091   */\n      dup3\n        /* \"#utility.yul\":8084:8098   */\n      add\n        /* \"#utility.yul\":8183:8187   */\n      0x00\n        /* \"#utility.yul\":8176:8181   */\n      dup3\n        /* \"#utility.yul\":8172:8188   */\n      add\n        /* \"#utility.yul\":8166:8189   */\n      mload\n        /* \"#utility.yul\":8202:8265   */\n      tag_333\n        /* \"#utility.yul\":8259:8263   */\n      0x00\n        /* \"#utility.yul\":8254:8257   */\n      dup6\n        /* \"#utility.yul\":8250:8264   */\n      add\n        /* \"#utility.yul\":8236:8248   */\n      dup3\n        /* \"#utility.yul\":8202:8265   */\n      tag_334\n      jump\t// in\n    tag_333:\n        /* \"#utility.yul\":8108:8275   */\n      pop\n        /* \"#utility.yul\":8365:8369   */\n      0x20\n        /* \"#utility.yul\":8358:8363   */\n      dup3\n        /* \"#utility.yul\":8354:8370   */\n      add\n        /* \"#utility.yul\":8348:8371   */\n      mload\n        /* \"#utility.yul\":8384:8447   */\n      tag_335\n        /* \"#utility.yul\":8441:8445   */\n      0x20\n        /* \"#utility.yul\":8436:8439   */\n      dup6\n        /* \"#utility.yul\":8432:8446   */\n      add\n        /* \"#utility.yul\":8418:8430   */\n      dup3\n        /* \"#utility.yul\":8384:8447   */\n      tag_334\n      jump\t// in\n    tag_335:\n        /* \"#utility.yul\":8285:8457   */\n      pop\n        /* \"#utility.yul\":8539:8543   */\n      0x40\n        /* \"#utility.yul\":8532:8537   */\n      dup3\n        /* \"#utility.yul\":8528:8544   */\n      add\n        /* \"#utility.yul\":8522:8545   */\n      mload\n        /* \"#utility.yul\":8558:8621   */\n      tag_336\n        /* \"#utility.yul\":8615:8619   */\n      0x40\n        /* \"#utility.yul\":8610:8613   */\n      dup6\n        /* \"#utility.yul\":8606:8620   */\n      add\n        /* \"#utility.yul\":8592:8604   */\n      dup3\n        /* \"#utility.yul\":8558:8621   */\n      tag_334\n      jump\t// in\n    tag_336:\n        /* \"#utility.yul\":8467:8631   */\n      pop\n        /* \"#utility.yul\":8062:8638   */\n      pop\n        /* \"#utility.yul\":7954:8638   */\n      pop\n      pop\n      jump\t// out\n        /* \"#utility.yul\":8644:8752   */\n    tag_334:\n        /* \"#utility.yul\":8721:8745   */\n      tag_338\n        /* \"#utility.yul\":8739:8744   */\n      dup2\n        /* \"#utility.yul\":8721:8745   */\n      tag_339\n      jump\t// in\n    tag_338:\n        /* \"#utility.yul\":8716:8719   */\n      dup3\n        /* \"#utility.yul\":8709:8746   */\n      mstore\n        /* \"#utility.yul\":8644:8752   */\n      pop\n      pop\n      jump\t// out\n        /* \"#utility.yul\":8758:8876   */\n    tag_340:\n        /* \"#utility.yul\":8845:8869   */\n      tag_342\n        /* \"#utility.yul\":8863:8868   */\n      dup2\n        /* \"#utility.yul\":8845:8869   */\n      tag_339\n      jump\t// in\n    tag_342:\n        /* \"#utility.yul\":8840:8843   */\n      dup3\n        /* \"#utility.yul\":8833:8870   */\n      mstore\n        /* \"#utility.yul\":8758:8876   */\n      pop\n      pop\n      jump\t// out\n        /* \"#utility.yul\":8882:8994   */\n    tag_343:\n        /* \"#utility.yul\":8965:8987   */\n      tag_345\n        /* \"#utility.yul\":8981:8986   */\n      dup2\n        /* \"#utility.yul\":8965:8987   */\n      tag_346\n      jump\t// in\n    tag_345:\n        /* \"#utility.yul\":8960:8963   */\n      dup3\n        /* \"#utility.yul\":8953:8988   */\n      mstore\n        /* \"#utility.yul\":8882:8994   */\n      pop\n      pop\n      jump\t// out\n        /* \"#utility.yul\":9000:9222   */\n    tag_72:\n        /* \"#utility.yul\":9093:9097   */\n      0x00\n        /* \"#utility.yul\":9131:9133   */\n      0x20\n        /* \"#utility.yul\":9120:9129   */\n      dup3\n        /* \"#utility.yul\":9116:9134   */\n      add\n        /* \"#utility.yul\":9108:9134   */\n      swap1\n      pop\n        /* \"#utility.yul\":9144:9215   */\n      tag_348\n        /* \"#utility.yul\":9212:9213   */\n      0x00\n        /* \"#utility.yul\":9201:9210   */\n      dup4\n        /* \"#utility.yul\":9197:9214   */\n      add\n        /* \"#utility.yul\":9188:9194   */\n      dup5\n        /* \"#utility.yul\":9144:9215   */\n      tag_277\n      jump\t// in\n    tag_348:\n        /* \"#utility.yul\":9000:9222   */\n      swap3\n      swap2\n      pop\n      pop\n      jump\t// out\n        /* \"#utility.yul\":9228:9670   */\n    tag_122:\n        /* \"#utility.yul\":9377:9381   */\n      0x00\n        /* \"#utility.yul\":9415:9417   */\n      0x60\n        /* \"#utility.yul\":9404:9413   */\n      dup3\n        /* \"#utility.yul\":9400:9418   */\n      add\n        /* \"#utility.yul\":9392:9418   */\n      swap1\n      pop\n        /* \"#utility.yul\":9428:9499   */\n      tag_350\n        /* \"#utility.yul\":9496:9497   */\n      0x00\n        /* \"#utility.yul\":9485:9494   */\n      dup4\n        /* \"#utility.yul\":9481:9498   */\n      add\n        /* \"#utility.yul\":9472:9478   */\n      dup7\n        /* \"#utility.yul\":9428:9499   */\n      tag_277\n      jump\t// in\n    tag_350:\n        /* \"#utility.yul\":9509:9581   */\n      tag_351\n        /* \"#utility.yul\":9577:9579   */\n      0x20\n        /* \"#utility.yul\":9566:9575   */\n      dup4\n        /* \"#utility.yul\":9562:9580   */\n      add\n        /* \"#utility.yul\":9553:9559   */\n      dup6\n        /* \"#utility.yul\":9509:9581   */\n      tag_277\n      jump\t// in\n    tag_351:\n        /* \"#utility.yul\":9591:9663   */\n      tag_352\n        /* \"#utility.yul\":9659:9661   */\n      0x40\n        /* \"#utility.yul\":9648:9657   */\n      dup4\n        /* \"#utility.yul\":9644:9662   */\n      add\n        /* \"#utility.yul\":9635:9641   */\n      dup5\n        /* \"#utility.yul\":9591:9663   */\n      tag_340\n      jump\t// in\n    tag_352:\n        /* \"#utility.yul\":9228:9670   */\n      swap5\n      swap4\n      pop\n      pop\n      pop\n      pop\n      jump\t// out\n        /* \"#utility.yul\":9676:10153   */\n    tag_57:\n        /* \"#utility.yul\":9871:9875   */\n      0x00\n        /* \"#utility.yul\":9909:9911   */\n      0x20\n        /* \"#utility.yul\":9898:9907   */\n      dup3\n        /* \"#utility.yul\":9894:9912   */\n      add\n        /* \"#utility.yul\":9886:9912   */\n      swap1\n      pop\n        /* \"#utility.yul\":9958:9967   */\n      dup2\n        /* \"#utility.yul\":9952:9956   */\n      dup2\n        /* \"#utility.yul\":9948:9968   */\n      sub\n        /* \"#utility.yul\":9944:9945   */\n      0x00\n        /* \"#utility.yul\":9933:9942   */\n      dup4\n        /* \"#utility.yul\":9929:9946   */\n      add\n        /* \"#utility.yul\":9922:9969   */\n      mstore\n        /* \"#utility.yul\":9986:10146   */\n      tag_354\n        /* \"#utility.yul\":10141:10145   */\n      dup2\n        /* \"#utility.yul\":10132:10138   */\n      dup5\n        /* \"#utility.yul\":9986:10146   */\n      tag_281\n      jump\t// in\n    tag_354:\n        /* \"#utility.yul\":9978:10146   */\n      swap1\n      pop\n        /* \"#utility.yul\":9676:10153   */\n      swap3\n      swap2\n      pop\n      pop\n      jump\t// out\n        /* \"#utility.yul\":10159:10369   */\n    tag_33:\n        /* \"#utility.yul\":10246:10250   */\n      0x00\n        /* \"#utility.yul\":10284:10286   */\n      0x20\n        /* \"#utility.yul\":10273:10282   */\n      dup3\n        /* \"#utility.yul\":10269:10287   */\n      add\n        /* \"#utility.yul\":10261:10287   */\n      swap1\n      pop\n        /* \"#utility.yul\":10297:10362   */\n      tag_356\n        /* \"#utility.yul\":10359:10360   */\n      0x00\n        /* \"#utility.yul\":10348:10357   */\n      dup4\n        /* \"#utility.yul\":10344:10361   */\n      add\n        /* \"#utility.yul\":10335:10341   */\n      dup5\n        /* \"#utility.yul\":10297:10362   */\n      tag_295\n      jump\t// in\n    tag_356:\n        /* \"#utility.yul\":10159:10369   */\n      swap3\n      swap2\n      pop\n      pop\n      jump\t// out\n        /* \"#utility.yul\":10375:10593   */\n    tag_40:\n        /* \"#utility.yul\":10466:10470   */\n      0x00\n        /* \"#utility.yul\":10504:10506   */\n      0x20\n        /* \"#utility.yul\":10493:10502   */\n      dup3\n        /* \"#utility.yul\":10489:10507   */\n      add\n        /* \"#utility.yul\":10481:10507   */\n      swap1\n      pop\n        /* \"#utility.yul\":10517:10586   */\n      tag_358\n        /* \"#utility.yul\":10583:10584   */\n      0x00\n        /* \"#utility.yul\":10572:10581   */\n      dup4\n        /* \"#utility.yul\":10568:10585   */\n      add\n        /* \"#utility.yul\":10559:10565   */\n      dup5\n        /* \"#utility.yul\":10517:10586   */\n      tag_299\n      jump\t// in\n    tag_358:\n        /* \"#utility.yul\":10375:10593   */\n      swap3\n      swap2\n      pop\n      pop\n      jump\t// out\n        /* \"#utility.yul\":10599:10851   */\n    tag_94:\n        /* \"#utility.yul\":10707:10711   */\n      0x00\n        /* \"#utility.yul\":10745:10747   */\n      0x20\n        /* \"#utility.yul\":10734:10743   */\n      dup3\n        /* \"#utility.yul\":10730:10748   */\n      add\n        /* \"#utility.yul\":10722:10748   */\n      swap1\n      pop\n        /* \"#utility.yul\":10758:10844   */\n      tag_360\n        /* \"#utility.yul\":10841:10842   */\n      0x00\n        /* \"#utility.yul\":10830:10839   */\n      dup4\n        /* \"#utility.yul\":10826:10843   */\n      add\n        /* \"#utility.yul\":10817:10823   */\n      dup5\n        /* \"#utility.yul\":10758:10844   */\n      tag_303\n      jump\t// in\n    tag_360:\n        /* \"#utility.yul\":10599:10851   */\n      swap3\n      swap2\n      pop\n      pop\n      jump\t// out\n        /* \"#utility.yul\":10857:11170   */\n    tag_26:\n        /* \"#utility.yul\":10970:10974   */\n      0x00\n        /* \"#utility.yul\":11008:11010   */\n      0x20\n        /* \"#utility.yul\":10997:11006   */\n      dup3\n        /* \"#utility.yul\":10993:11011   */\n      add\n        /* \"#utility.yul\":10985:11011   */\n      swap1\n      pop\n        /* \"#utility.yul\":11057:11066   */\n      dup2\n        /* \"#utility.yul\":11051:11055   */\n      dup2\n        /* \"#utility.yul\":11047:11067   */\n      sub\n        /* \"#utility.yul\":11043:11044   */\n      0x00\n        /* \"#utility.yul\":11032:11041   */\n      dup4\n        /* \"#utility.yul\":11028:11045   */\n      add\n        /* \"#utility.yul\":11021:11068   */\n      mstore\n        /* \"#utility.yul\":11085:11163   */\n      tag_362\n        /* \"#utility.yul\":11158:11162   */\n      dup2\n        /* \"#utility.yul\":11149:11155   */\n      dup5\n        /* \"#utility.yul\":11085:11163   */\n      tag_307\n      jump\t// in\n    tag_362:\n        /* \"#utility.yul\":11077:11163   */\n      swap1\n      pop\n        /* \"#utility.yul\":10857:11170   */\n      swap3\n      swap2\n      pop\n      pop\n      jump\t// out\n        /* \"#utility.yul\":11176:11595   */\n    tag_136:\n        /* \"#utility.yul\":11342:11346   */\n      0x00\n        /* \"#utility.yul\":11380:11382   */\n      0x20\n        /* \"#utility.yul\":11369:11378   */\n      dup3\n        /* \"#utility.yul\":11365:11383   */\n      add\n        /* \"#utility.yul\":11357:11383   */\n      swap1\n      pop\n        /* \"#utility.yul\":11429:11438   */\n      dup2\n        /* \"#utility.yul\":11423:11427   */\n      dup2\n        /* \"#utility.yul\":11419:11439   */\n      sub\n        /* \"#utility.yul\":11415:11416   */\n      0x00\n        /* \"#utility.yul\":11404:11413   */\n      dup4\n        /* \"#utility.yul\":11400:11417   */\n      add\n        /* \"#utility.yul\":11393:11440   */\n      mstore\n        /* \"#utility.yul\":11457:11588   */\n      tag_364\n        /* \"#utility.yul\":11583:11587   */\n      dup2\n        /* \"#utility.yul\":11457:11588   */\n      tag_317\n      jump\t// in\n    tag_364:\n        /* \"#utility.yul\":11449:11588   */\n      swap1\n      pop\n        /* \"#utility.yul\":11176:11595   */\n      swap2\n      swap1\n      pop\n      jump\t// out\n        /* \"#utility.yul\":11601:12020   */\n    tag_196:\n        /* \"#utility.yul\":11767:11771   */\n      0x00\n        /* \"#utility.yul\":11805:11807   */\n      0x20\n        /* \"#utility.yul\":11794:11803   */\n      dup3\n        /* \"#utility.yul\":11790:11808   */\n      add\n        /* \"#utility.yul\":11782:11808   */\n      swap1\n      pop\n        /* \"#utility.yul\":11854:11863   */\n      dup2\n        /* \"#utility.yul\":11848:11852   */\n      dup2\n        /* \"#utility.yul\":11844:11864   */\n      sub\n        /* \"#utility.yul\":11840:11841   */\n      0x00\n        /* \"#utility.yul\":11829:11838   */\n      dup4\n        /* \"#utility.yul\":11825:11842   */\n      add\n        /* \"#utility.yul\":11818:11865   */\n      mstore\n        /* \"#utility.yul\":11882:12013   */\n      tag_366\n        /* \"#utility.yul\":12008:12012   */\n      dup2\n        /* \"#utility.yul\":11882:12013   */\n      tag_322\n      jump\t// in\n    tag_366:\n        /* \"#utility.yul\":11874:12013   */\n      swap1\n      pop\n        /* \"#utility.yul\":11601:12020   */\n      swap2\n      swap1\n      pop\n      jump\t// out\n        /* \"#utility.yul\":12026:12445   */\n    tag_151:\n        /* \"#utility.yul\":12192:12196   */\n      0x00\n        /* \"#utility.yul\":12230:12232   */\n      0x20\n        /* \"#utility.yul\":12219:12228   */\n      dup3\n        /* \"#utility.yul\":12215:12233   */\n      add\n        /* \"#utility.yul\":12207:12233   */\n      swap1\n      pop\n        /* \"#utility.yul\":12279:12288   */\n      dup2\n        /* \"#utility.yul\":12273:12277   */\n      dup2\n        /* \"#utility.yul\":12269:12289   */\n      sub\n        /* \"#utility.yul\":12265:12266   */\n      0x00\n        /* \"#utility.yul\":12254:12263   */\n      dup4\n        /* \"#utility.yul\":12250:12267   */\n      add\n        /* \"#utility.yul\":12243:12290   */\n      mstore\n        /* \"#utility.yul\":12307:12438   */\n      tag_368\n        /* \"#utility.yul\":12433:12437   */\n      dup2\n        /* \"#utility.yul\":12307:12438   */\n      tag_327\n      jump\t// in\n    tag_368:\n        /* \"#utility.yul\":12299:12438   */\n      swap1\n      pop\n        /* \"#utility.yul\":12026:12445   */\n      swap2\n      swap1\n      pop\n      jump\t// out\n        /* \"#utility.yul\":12451:12673   */\n    tag_45:\n        /* \"#utility.yul\":12544:12548   */\n      0x00\n        /* \"#utility.yul\":12582:12584   */\n      0x20\n        /* \"#utility.yul\":12571:12580   */\n      dup3\n        /* \"#utility.yul\":12567:12585   */\n      add\n        /* \"#utility.yul\":12559:12585   */\n      swap1\n      pop\n        /* \"#utility.yul\":12595:12666   */\n      tag_370\n        /* \"#utility.yul\":12663:12664   */\n      0x00\n        /* \"#utility.yul\":12652:12661   */\n      dup4\n        /* \"#utility.yul\":12648:12665   */\n      add\n        /* \"#utility.yul\":12639:12645   */\n      dup5\n        /* \"#utility.yul\":12595:12666   */\n      tag_340\n      jump\t// in\n    tag_370:\n        /* \"#utility.yul\":12451:12673   */\n      swap3\n      swap2\n      pop\n      pop\n      jump\t// out\n        /* \"#utility.yul\":12679:13121   */\n    tag_106:\n        /* \"#utility.yul\":12828:12832   */\n      0x00\n        /* \"#utility.yul\":12866:12868   */\n      0x60\n        /* \"#utility.yul\":12855:12864   */\n      dup3\n        /* \"#utility.yul\":12851:12869   */\n      add\n        /* \"#utility.yul\":12843:12869   */\n      swap1\n      pop\n        /* \"#utility.yul\":12879:12950   */\n      tag_372\n        /* \"#utility.yul\":12947:12948   */\n      0x00\n        /* \"#utility.yul\":12936:12945   */\n      dup4\n        /* \"#utility.yul\":12932:12949   */\n      add\n        /* \"#utility.yul\":12923:12929   */\n      dup7\n        /* \"#utility.yul\":12879:12950   */\n      tag_340\n      jump\t// in\n    tag_372:\n        /* \"#utility.yul\":12960:13032   */\n      tag_373\n        /* \"#utility.yul\":13028:13030   */\n      0x20\n        /* \"#utility.yul\":13017:13026   */\n      dup4\n        /* \"#utility.yul\":13013:13031   */\n      add\n        /* \"#utility.yul\":13004:13010   */\n      dup6\n        /* \"#utility.yul\":12960:13032   */\n      tag_340\n      jump\t// in\n    tag_373:\n        /* \"#utility.yul\":13042:13114   */\n      tag_374\n        /* \"#utility.yul\":13110:13112   */\n      0x40\n        /* \"#utility.yul\":13099:13108   */\n      dup4\n        /* \"#utility.yul\":13095:13113   */\n      add\n        /* \"#utility.yul\":13086:13092   */\n      dup5\n        /* \"#utility.yul\":13042:13114   */\n      tag_340\n      jump\t// in\n    tag_374:\n        /* \"#utility.yul\":12679:13121   */\n      swap5\n      swap4\n      pop\n      pop\n      pop\n      pop\n      jump\t// out\n        /* \"#utility.yul\":13127:13341   */\n    tag_62:\n        /* \"#utility.yul\":13216:13220   */\n      0x00\n        /* \"#utility.yul\":13254:13256   */\n      0x20\n        /* \"#utility.yul\":13243:13252   */\n      dup3\n        /* \"#utility.yul\":13239:13257   */\n      add\n        /* \"#utility.yul\":13231:13257   */\n      swap1\n      pop\n        /* \"#utility.yul\":13267:13334   */\n      tag_376\n        /* \"#utility.yul\":13331:13332   */\n      0x00\n        /* \"#utility.yul\":13320:13329   */\n      dup4\n        /* \"#utility.yul\":13316:13333   */\n      add\n        /* \"#utility.yul\":13307:13313   */\n      dup5\n        /* \"#utility.yul\":13267:13334   */\n      tag_343\n      jump\t// in\n    tag_376:\n        /* \"#utility.yul\":13127:13341   */\n      swap3\n      swap2\n      pop\n      pop\n      jump\t// out\n        /* \"#utility.yul\":13428:13586   */\n    tag_288:\n        /* \"#utility.yul\":13521:13525   */\n      0x00\n        /* \"#utility.yul\":13544:13547   */\n      dup2\n        /* \"#utility.yul\":13536:13547   */\n      swap1\n      pop\n        /* \"#utility.yul\":13574:13578   */\n      0x20\n        /* \"#utility.yul\":13569:13572   */\n      dup3\n        /* \"#utility.yul\":13565:13579   */\n      add\n        /* \"#utility.yul\":13557:13579   */\n      swap1\n      pop\n        /* \"#utility.yul\":13428:13586   */\n      swap2\n      swap1\n      pop\n      jump\t// out\n        /* \"#utility.yul\":13592:13732   */\n    tag_284:\n        /* \"#utility.yul\":13685:13691   */\n      0x00\n        /* \"#utility.yul\":13719:13724   */\n      dup2\n        /* \"#utility.yul\":13713:13725   */\n      mload\n        /* \"#utility.yul\":13703:13725   */\n      swap1\n      pop\n        /* \"#utility.yul\":13592:13732   */\n      swap2\n      swap1\n      pop\n      jump\t// out\n        /* \"#utility.yul\":13738:13837   */\n    tag_310:\n        /* \"#utility.yul\":13790:13796   */\n      0x00\n        /* \"#utility.yul\":13824:13829   */\n      dup2\n        /* \"#utility.yul\":13818:13830   */\n      mload\n        /* \"#utility.yul\":13808:13830   */\n      swap1\n      pop\n        /* \"#utility.yul\":13738:13837   */\n      swap2\n      swap1\n      pop\n      jump\t// out\n        /* \"#utility.yul\":13843:13982   */\n    tag_294:\n        /* \"#utility.yul\":13939:13943   */\n      0x00\n        /* \"#utility.yul\":13971:13975   */\n      0x20\n        /* \"#utility.yul\":13966:13969   */\n      dup3\n        /* \"#utility.yul\":13962:13976   */\n      add\n        /* \"#utility.yul\":13954:13976   */\n      swap1\n      pop\n        /* \"#utility.yul\":13843:13982   */\n      swap2\n      swap1\n      pop\n      jump\t// out\n        /* \"#utility.yul\":13988:14198   */\n    tag_286:\n        /* \"#utility.yul\":14113:14124   */\n      0x00\n        /* \"#utility.yul\":14147:14153   */\n      dup3\n        /* \"#utility.yul\":14142:14145   */\n      dup3\n        /* \"#utility.yul\":14135:14154   */\n      mstore\n        /* \"#utility.yul\":14187:14191   */\n      0x20\n        /* \"#utility.yul\":14182:14185   */\n      dup3\n        /* \"#utility.yul\":14178:14192   */\n      add\n        /* \"#utility.yul\":14163:14192   */\n      swap1\n      pop\n        /* \"#utility.yul\":13988:14198   */\n      swap3\n      swap2\n      pop\n      pop\n      jump\t// out\n        /* \"#utility.yul\":14204:14373   */\n    tag_312:\n        /* \"#utility.yul\":14288:14299   */\n      0x00\n        /* \"#utility.yul\":14322:14328   */\n      dup3\n        /* \"#utility.yul\":14317:14320   */\n      dup3\n        /* \"#utility.yul\":14310:14329   */\n      mstore\n        /* \"#utility.yul\":14362:14366   */\n      0x20\n        /* \"#utility.yul\":14357:14360   */\n      dup3\n        /* \"#utility.yul\":14353:14367   */\n      add\n        /* \"#utility.yul\":14338:14367   */\n      swap1\n      pop\n        /* \"#utility.yul\":14204:14373   */\n      swap3\n      swap2\n      pop\n      pop\n      jump\t// out\n        /* \"#utility.yul\":14379:14684   */\n    tag_200:\n        /* \"#utility.yul\":14419:14422   */\n      0x00\n        /* \"#utility.yul\":14438:14458   */\n      tag_386\n        /* \"#utility.yul\":14456:14457   */\n      dup3\n        /* \"#utility.yul\":14438:14458   */\n      tag_339\n      jump\t// in\n    tag_386:\n        /* \"#utility.yul\":14433:14458   */\n      swap2\n      pop\n        /* \"#utility.yul\":14472:14492   */\n      tag_387\n        /* \"#utility.yul\":14490:14491   */\n      dup4\n        /* \"#utility.yul\":14472:14492   */\n      tag_339\n      jump\t// in\n    tag_387:\n        /* \"#utility.yul\":14467:14492   */\n      swap3\n      pop\n        /* \"#utility.yul\":14626:14627   */\n      dup3\n        /* \"#utility.yul\":14558:14624   */\n      0xffffffffffffffffffffffffffffffffffffffffffffffffffffffffffffffff\n        /* \"#utility.yul\":14554:14628   */\n      sub\n        /* \"#utility.yul\":14551:14552   */\n      dup3\n        /* \"#utility.yul\":14548:14629   */\n      gt\n        /* \"#utility.yul\":14545:14652   */\n      iszero\n      tag_388\n      jumpi\n        /* \"#utility.yul\":14632:14650   */\n      tag_389\n      tag_390\n      jump\t// in\n    tag_389:\n        /* \"#utility.yul\":14545:14652   */\n    tag_388:\n        /* \"#utility.yul\":14676:14677   */\n      dup3\n        /* \"#utility.yul\":14673:14674   */\n      dup3\n        /* \"#utility.yul\":14669:14678   */\n      add\n        /* \"#utility.yul\":14662:14678   */\n      swap1\n      pop\n        /* \"#utility.yul\":14379:14684   */\n      swap3\n      swap2\n      pop\n      pop\n      jump\t// out\n        /* \"#utility.yul\":14690:14881   */\n    tag_198:\n        /* \"#utility.yul\":14730:14734   */\n      0x00\n        /* \"#utility.yul\":14750:14770   */\n      tag_392\n        /* \"#utility.yul\":14768:14769   */\n      dup3\n        /* \"#utility.yul\":14750:14770   */\n      tag_339\n      jump\t// in\n    tag_392:\n        /* \"#utility.yul\":14745:14770   */\n      swap2\n      pop\n        /* \"#utility.yul\":14784:14804   */\n      tag_393\n        /* \"#utility.yul\":14802:14803   */\n      dup4\n        /* \"#utility.yul\":14784:14804   */\n      tag_339\n      jump\t// in\n    tag_393:\n        /* \"#utility.yul\":14779:14804   */\n      swap3\n      pop\n        /* \"#utility.yul\":14823:14824   */\n      dup3\n        /* \"#utility.yul\":14820:14821   */\n      dup3\n        /* \"#utility.yul\":14817:14825   */\n      lt\n        /* \"#utility.yul\":14814:14848   */\n      iszero\n      tag_394\n      jumpi\n        /* \"#utility.yul\":14828:14846   */\n      tag_395\n      tag_390\n      jump\t// in\n    tag_395:\n        /* \"#utility.yul\":14814:14848   */\n    tag_394:\n        /* \"#utility.yul\":14873:14874   */\n      dup3\n        /* \"#utility.yul\":14870:14871   */\n      dup3\n        /* \"#utility.yul\":14866:14875   */\n      sub\n        /* \"#utility.yul\":14858:14875   */\n      swap1\n      pop\n        /* \"#utility.yul\":14690:14881   */\n      swap3\n      swap2\n      pop\n      pop\n      jump\t// out\n        /* \"#utility.yul\":14887:14983   */\n    tag_280:\n        /* \"#utility.yul\":14924:14931   */\n      0x00\n        /* \"#utility.yul\":14953:14977   */\n      tag_397\n        /* \"#utility.yul\":14971:14976   */\n      dup3\n        /* \"#utility.yul\":14953:14977   */\n      tag_398\n      jump\t// in\n    tag_397:\n        /* \"#utility.yul\":14942:14977   */\n      swap1\n      pop\n        /* \"#utility.yul\":14887:14983   */\n      swap2\n      swap1\n      pop\n      jump\t// out\n        /* \"#utility.yul\":14989:15079   */\n    tag_298:\n        /* \"#utility.yul\":15023:15030   */\n      0x00\n        /* \"#utility.yul\":15066:15071   */\n      dup2\n        /* \"#utility.yul\":15059:15072   */\n      iszero\n        /* \"#utility.yul\":15052:15073   */\n      iszero\n        /* \"#utility.yul\":15041:15073   */\n      swap1\n      pop\n        /* \"#utility.yul\":14989:15079   */\n      swap2\n      swap1\n      pop\n      jump\t// out\n        /* \"#utility.yul\":15085:15234   */\n    tag_302:\n        /* \"#utility.yul\":15121:15128   */\n      0x00\n        /* \"#utility.yul\":15161:15227   */\n      0xffffffff00000000000000000000000000000000000000000000000000000000\n        /* \"#utility.yul\":15154:15159   */\n      dup3\n        /* \"#utility.yul\":15150:15228   */\n      and\n        /* \"#utility.yul\":15139:15228   */\n      swap1\n      pop\n        /* \"#utility.yul\":15085:15234   */\n      swap2\n      swap1\n      pop\n      jump\t// out\n        /* \"#utility.yul\":15240:15366   */\n    tag_398:\n        /* \"#utility.yul\":15277:15284   */\n      0x00\n        /* \"#utility.yul\":15317:15359   */\n      0xffffffffffffffffffffffffffffffffffffffff\n        /* \"#utility.yul\":15310:15315   */\n      dup3\n        /* \"#utility.yul\":15306:15360   */\n      and\n        /* \"#utility.yul\":15295:15360   */\n      swap1\n      pop\n        /* \"#utility.yul\":15240:15366   */\n      swap2\n      swap1\n      pop\n      jump\t// out\n        /* \"#utility.yul\":15372:15449   */\n    tag_339:\n        /* \"#utility.yul\":15409:15416   */\n      0x00\n        /* \"#utility.yul\":15438:15443   */\n      dup2\n        /* \"#utility.yul\":15427:15443   */\n      swap1\n      pop\n        /* \"#utility.yul\":15372:15449   */\n      swap2\n      swap1\n      pop\n      jump\t// out\n        /* \"#utility.yul\":15455:15541   */\n    tag_346:\n        /* \"#utility.yul\":15490:15497   */\n      0x00\n        /* \"#utility.yul\":15530:15534   */\n      0xff\n        /* \"#utility.yul\":15523:15528   */\n      dup3\n        /* \"#utility.yul\":15519:15535   */\n      and\n        /* \"#utility.yul\":15508:15535   */\n      swap1\n      pop\n        /* \"#utility.yul\":15455:15541   */\n      swap2\n      swap1\n      pop\n      jump\t// out\n        /* \"#utility.yul\":15547:15688   */\n    tag_306:\n        /* \"#utility.yul\":15612:15621   */\n      0x00\n        /* \"#utility.yul\":15645:15682   */\n      tag_405\n        /* \"#utility.yul\":15676:15681   */\n      dup3\n        /* \"#utility.yul\":15645:15682   */\n      tag_406\n      jump\t// in\n    tag_405:\n        /* \"#utility.yul\":15632:15682   */\n      swap1\n      pop\n        /* \"#utility.yul\":15547:15688   */\n      swap2\n      swap1\n      pop\n      jump\t// out\n        /* \"#utility.yul\":15694:15820   */\n    tag_406:\n        /* \"#utility.yul\":15744:15753   */\n      0x00\n        /* \"#utility.yul\":15777:15814   */\n      tag_408\n        /* \"#utility.yul\":15808:15813   */\n      dup3\n        /* \"#utility.yul\":15777:15814   */\n      tag_409\n      jump\t// in\n    tag_408:\n        /* \"#utility.yul\":15764:15814   */\n      swap1\n      pop\n        /* \"#utility.yul\":15694:15820   */\n      swap2\n      swap1\n      pop\n      jump\t// out\n        /* \"#utility.yul\":15826:15939   */\n    tag_409:\n        /* \"#utility.yul\":15876:15885   */\n      0x00\n        /* \"#utility.yul\":15909:15933   */\n      tag_411\n        /* \"#utility.yul\":15927:15932   */\n      dup3\n        /* \"#utility.yul\":15909:15933   */\n      tag_398\n      jump\t// in\n    tag_411:\n        /* \"#utility.yul\":15896:15933   */\n      swap1\n      pop\n        /* \"#utility.yul\":15826:15939   */\n      swap2\n      swap1\n      pop\n      jump\t// out\n        /* \"#utility.yul\":15945:16252   */\n    tag_314:\n        /* \"#utility.yul\":16013:16014   */\n      0x00\n        /* \"#utility.yul\":16023:16136   */\n    tag_413:\n        /* \"#utility.yul\":16037:16043   */\n      dup4\n        /* \"#utility.yul\":16034:16035   */\n      dup2\n        /* \"#utility.yul\":16031:16044   */\n      lt\n        /* \"#utility.yul\":16023:16136   */\n      iszero\n      tag_415\n      jumpi\n        /* \"#utility.yul\":16122:16123   */\n      dup1\n        /* \"#utility.yul\":16117:16120   */\n      dup3\n        /* \"#utility.yul\":16113:16124   */\n      add\n        /* \"#utility.yul\":16107:16125   */\n      mload\n        /* \"#utility.yul\":16103:16104   */\n      dup2\n        /* \"#utility.yul\":16098:16101   */\n      dup5\n        /* \"#utility.yul\":16094:16105   */\n      add\n        /* \"#utility.yul\":16087:16126   */\n      mstore\n        /* \"#utility.yul\":16059:16061   */\n      0x20\n        /* \"#utility.yul\":16056:16057   */\n      dup2\n        /* \"#utility.yul\":16052:16062   */\n      add\n        /* \"#utility.yul\":16047:16062   */\n      swap1\n      pop\n        /* \"#utility.yul\":16023:16136   */\n      jump(tag_413)\n    tag_415:\n        /* \"#utility.yul\":16154:16160   */\n      dup4\n        /* \"#utility.yul\":16151:16152   */\n      dup2\n        /* \"#utility.yul\":16148:16161   */\n      gt\n        /* \"#utility.yul\":16145:16246   */\n      iszero\n      tag_416\n      jumpi\n        /* \"#utility.yul\":16234:16235   */\n      0x00\n        /* \"#utility.yul\":16225:16231   */\n      dup5\n        /* \"#utility.yul\":16220:16223   */\n      dup5\n        /* \"#utility.yul\":16216:16232   */\n      add\n        /* \"#utility.yul\":16209:16236   */\n      mstore\n        /* \"#utility.yul\":16145:16246   */\n    tag_416:\n        /* \"#utility.yul\":15994:16252   */\n      pop\n        /* \"#utility.yul\":15945:16252   */\n      pop\n      pop\n      pop\n      jump\t// out\n        /* \"#utility.yul\":16258:16429   */\n    tag_190:\n        /* \"#utility.yul\":16297:16300   */\n      0x00\n        /* \"#utility.yul\":16320:16344   */\n      tag_418\n        /* \"#utility.yul\":16338:16343   */\n      dup3\n        /* \"#utility.yul\":16320:16344   */\n      tag_339\n      jump\t// in\n    tag_418:\n        /* \"#utility.yul\":16311:16344   */\n      swap2\n      pop\n        /* \"#utility.yul\":16366:16370   */\n      0x00\n        /* \"#utility.yul\":16359:16364   */\n      dup3\n        /* \"#utility.yul\":16356:16371   */\n      eq\n        /* \"#utility.yul\":16353:16394   */\n      iszero\n      tag_419\n      jumpi\n        /* \"#utility.yul\":16374:16392   */\n      tag_420\n      tag_390\n      jump\t// in\n    tag_420:\n        /* \"#utility.yul\":16353:16394   */\n    tag_419:\n        /* \"#utility.yul\":16421:16422   */\n      0x01\n        /* \"#utility.yul\":16414:16419   */\n      dup3\n        /* \"#utility.yul\":16410:16423   */\n      sub\n        /* \"#utility.yul\":16403:16423   */\n      swap1\n      pop\n        /* \"#utility.yul\":16258:16429   */\n      swap2\n      swap1\n      pop\n      jump\t// out\n        /* \"#utility.yul\":16435:16755   */\n    tag_113:\n        /* \"#utility.yul\":16479:16485   */\n      0x00\n        /* \"#utility.yul\":16516:16517   */\n      0x02\n        /* \"#utility.yul\":16510:16514   */\n      dup3\n        /* \"#utility.yul\":16506:16518   */\n      div\n        /* \"#utility.yul\":16496:16518   */\n      swap1\n      pop\n        /* \"#utility.yul\":16563:16564   */\n      0x01\n        /* \"#utility.yul\":16557:16561   */\n      dup3\n        /* \"#utility.yul\":16553:16565   */\n      and\n        /* \"#utility.yul\":16584:16602   */\n      dup1\n        /* \"#utility.yul\":16574:16655   */\n      tag_422\n      jumpi\n        /* \"#utility.yul\":16640:16644   */\n      0x7f\n        /* \"#utility.yul\":16632:16638   */\n      dup3\n        /* \"#utility.yul\":16628:16645   */\n      and\n        /* \"#utility.yul\":16618:16645   */\n      swap2\n      pop\n        /* \"#utility.yul\":16574:16655   */\n    tag_422:\n        /* \"#utility.yul\":16702:16704   */\n      0x20\n        /* \"#utility.yul\":16694:16700   */\n      dup3\n        /* \"#utility.yul\":16691:16705   */\n      lt\n        /* \"#utility.yul\":16671:16689   */\n      dup2\n        /* \"#utility.yul\":16668:16706   */\n      eq\n        /* \"#utility.yul\":16665:16749   */\n      iszero\n      tag_423\n      jumpi\n        /* \"#utility.yul\":16721:16739   */\n      tag_424\n      tag_425\n      jump\t// in\n    tag_424:\n        /* \"#utility.yul\":16665:16749   */\n    tag_423:\n        /* \"#utility.yul\":16486:16755   */\n      pop\n        /* \"#utility.yul\":16435:16755   */\n      swap2\n      swap1\n      pop\n      jump\t// out\n        /* \"#utility.yul\":16761:16994   */\n    tag_160:\n        /* \"#utility.yul\":16800:16803   */\n      0x00\n        /* \"#utility.yul\":16823:16847   */\n      tag_427\n        /* \"#utility.yul\":16841:16846   */\n      dup3\n        /* \"#utility.yul\":16823:16847   */\n      tag_339\n      jump\t// in\n    tag_427:\n        /* \"#utility.yul\":16814:16847   */\n      swap2\n      pop\n        /* \"#utility.yul\":16869:16935   */\n      0xffffffffffffffffffffffffffffffffffffffffffffffffffffffffffffffff\n        /* \"#utility.yul\":16862:16867   */\n      dup3\n        /* \"#utility.yul\":16859:16936   */\n      eq\n        /* \"#utility.yul\":16856:16959   */\n      iszero\n      tag_428\n      jumpi\n        /* \"#utility.yul\":16939:16957   */\n      tag_429\n      tag_390\n      jump\t// in\n    tag_429:\n        /* \"#utility.yul\":16856:16959   */\n    tag_428:\n        /* \"#utility.yul\":16986:16987   */\n      0x01\n        /* \"#utility.yul\":16979:16984   */\n      dup3\n        /* \"#utility.yul\":16975:16988   */\n      add\n        /* \"#utility.yul\":16968:16988   */\n      swap1\n      pop\n        /* \"#utility.yul\":16761:16994   */\n      swap2\n      swap1\n      pop\n      jump\t// out\n        /* \"#utility.yul\":17000:17180   */\n    tag_390:\n        /* \"#utility.yul\":17048:17125   */\n      0x4e487b7100000000000000000000000000000000000000000000000000000000\n        /* \"#utility.yul\":17045:17046   */\n      0x00\n        /* \"#utility.yul\":17038:17126   */\n      mstore\n        /* \"#utility.yul\":17145:17149   */\n      0x11\n        /* \"#utility.yul\":17142:17143   */\n      0x04\n        /* \"#utility.yul\":17135:17150   */\n      mstore\n        /* \"#utility.yul\":17169:17173   */\n      0x24\n        /* \"#utility.yul\":17166:17167   */\n      0x00\n        /* \"#utility.yul\":17159:17174   */\n      revert\n        /* \"#utility.yul\":17186:17366   */\n    tag_425:\n        /* \"#utility.yul\":17234:17311   */\n      0x4e487b7100000000000000000000000000000000000000000000000000000000\n        /* \"#utility.yul\":17231:17232   */\n      0x00\n        /* \"#utility.yul\":17224:17312   */\n      mstore\n        /* \"#utility.yul\":17331:17335   */\n      0x22\n        /* \"#utility.yul\":17328:17329   */\n      0x04\n        /* \"#utility.yul\":17321:17336   */\n      mstore\n        /* \"#utility.yul\":17355:17359   */\n      0x24\n        /* \"#utility.yul\":17352:17353   */\n      0x00\n        /* \"#utility.yul\":17345:17360   */\n      revert\n        /* \"#utility.yul\":17372:17552   */\n    tag_143:\n        /* \"#utility.yul\":17420:17497   */\n      0x4e487b7100000000000000000000000000000000000000000000000000000000\n        /* \"#utility.yul\":17417:17418   */\n      0x00\n        /* \"#utility.yul\":17410:17498   */\n      mstore\n        /* \"#utility.yul\":17517:17521   */\n      0x32\n        /* \"#utility.yul\":17514:17515   */\n      0x04\n        /* \"#utility.yul\":17507:17522   */\n      mstore\n        /* \"#utility.yul\":17541:17545   */\n      0x24\n        /* \"#utility.yul\":17538:17539   */\n      0x00\n        /* \"#utility.yul\":17531:17546   */\n      revert\n        /* \"#utility.yul\":17558:17675   */\n    tag_226:\n        /* \"#utility.yul\":17667:17668   */\n      0x00\n        /* \"#utility.yul\":17664:17665   */\n      dup1\n        /* \"#utility.yul\":17657:17669   */\n      revert\n        /* \"#utility.yul\":17681:17798   */\n    tag_223:\n        /* \"#utility.yul\":17790:17791   */\n      0x00\n        /* \"#utility.yul\":17787:17788   */\n      dup1\n        /* \"#utility.yul\":17780:17792   */\n      revert\n        /* \"#utility.yul\":17804:17921   */\n    tag_229:\n        /* \"#utility.yul\":17913:17914   */\n      0x00\n        /* \"#utility.yul\":17910:17911   */\n      dup1\n        /* \"#utility.yul\":17903:17915   */\n      revert\n        /* \"#utility.yul\":17927:18044   */\n    tag_262:\n        /* \"#utility.yul\":18036:18037   */\n      0x00\n        /* \"#utility.yul\":18033:18034   */\n      dup1\n        /* \"#utility.yul\":18026:18038   */\n      revert\n        /* \"#utility.yul\":18050:18167   */\n    tag_237:\n        /* \"#utility.yul\":18159:18160   */\n      0x00\n        /* \"#utility.yul\":18156:18157   */\n      dup1\n        /* \"#utility.yul\":18149:18161   */\n      revert\n        /* \"#utility.yul\":18173:18275   */\n    tag_316:\n        /* \"#utility.yul\":18214:18220   */\n      0x00\n        /* \"#utility.yul\":18265:18267   */\n      0x1f\n        /* \"#utility.yul\":18261:18268   */\n      not\n        /* \"#utility.yul\":18256:18258   */\n      0x1f\n        /* \"#utility.yul\":18249:18254   */\n      dup4\n        /* \"#utility.yul\":18245:18259   */\n      add\n        /* \"#utility.yul\":18241:18269   */\n      and\n        /* \"#utility.yul\":18231:18269   */\n      swap1\n      pop\n        /* \"#utility.yul\":18173:18275   */\n      swap2\n      swap1\n      pop\n      jump\t// out\n        /* \"#utility.yul\":18281:18456   */\n    tag_321:\n        /* \"#utility.yul\":18421:18448   */\n      0x4f6e6c79206f776e65722063616e2063616c6c20746869732e00000000000000\n        /* \"#utility.yul\":18417:18418   */\n      0x00\n        /* \"#utility.yul\":18409:18415   */\n      dup3\n        /* \"#utility.yul\":18405:18419   */\n      add\n        /* \"#utility.yul\":18398:18449   */\n      mstore\n        /* \"#utility.yul\":18281:18456   */\n      pop\n      jump\t// out\n        /* \"#utility.yul\":18462:18630   */\n    tag_326:\n        /* \"#utility.yul\":18602:18622   */\n      0x496e73756666696369656e742066756e64730000000000000000000000000000\n        /* \"#utility.yul\":18598:18599   */\n      0x00\n        /* \"#utility.yul\":18590:18596   */\n      dup3\n        /* \"#utility.yul\":18586:18600   */\n      add\n        /* \"#utility.yul\":18579:18623   */\n      mstore\n        /* \"#utility.yul\":18462:18630   */\n      pop\n      jump\t// out\n        /* \"#utility.yul\":18636:18811   */\n    tag_331:\n        /* \"#utility.yul\":18776:18803   */\n      0x596f7520616c7265616479206861766520776974686472617700000000000000\n        /* \"#utility.yul\":18772:18773   */\n      0x00\n        /* \"#utility.yul\":18764:18770   */\n      dup3\n        /* \"#utility.yul\":18760:18774   */\n      add\n        /* \"#utility.yul\":18753:18804   */\n      mstore\n        /* \"#utility.yul\":18636:18811   */\n      pop\n      jump\t// out\n        /* \"#utility.yul\":18817:18939   */\n    tag_215:\n        /* \"#utility.yul\":18890:18914   */\n      tag_443\n        /* \"#utility.yul\":18908:18913   */\n      dup2\n        /* \"#utility.yul\":18890:18914   */\n      tag_280\n      jump\t// in\n    tag_443:\n        /* \"#utility.yul\":18883:18888   */\n      dup2\n        /* \"#utility.yul\":18880:18915   */\n      eq\n        /* \"#utility.yul\":18870:18933   */\n      tag_444\n      jumpi\n        /* \"#utility.yul\":18929:18930   */\n      0x00\n        /* \"#utility.yul\":18926:18927   */\n      dup1\n        /* \"#utility.yul\":18919:18931   */\n      revert\n        /* \"#utility.yul\":18870:18933   */\n    tag_444:\n        /* \"#utility.yul\":18817:18939   */\n      pop\n      jump\t// out\n        /* \"#utility.yul\":18945:19067   */\n    tag_233:\n        /* \"#utility.yul\":19018:19042   */\n      tag_446\n        /* \"#utility.yul\":19036:19041   */\n      dup2\n        /* \"#utility.yul\":19018:19042   */\n      tag_339\n      jump\t// in\n    tag_446:\n        /* \"#utility.yul\":19011:19016   */\n      dup2\n        /* \"#utility.yul\":19008:19043   */\n      eq\n        /* \"#utility.yul\":18998:19061   */\n      tag_447\n      jumpi\n        /* \"#utility.yul\":19057:19058   */\n      0x00\n        /* \"#utility.yul\":19054:19055   */\n      dup1\n        /* \"#utility.yul\":19047:19059   */\n      revert\n        /* \"#utility.yul\":18998:19061   */\n    tag_447:\n        /* \"#utility.yul\":18945:19067   */\n      pop\n      jump\t// out\n\n    auxdata: 0xa26469706673582212203d40d18dd804afae41ad64e22db8b8adfb49f1e3aca320538720c7fbb852cf0a64736f6c63430008070033\n}\n",
				"bytecode": {
					"linkReferences": {},
					"object": "60806040526004600260006101000a81548160ff021916908360ff1602179055506402540be4006003553480156200003657600080fd5b506040516200241d3803806200241d83398181016040528101906200005c9190620002d6565b6000600260009054906101000a900460ff1660ff16600a6200007f9190620003d5565b6003546200008e919062000512565b905080600460008573ffffffffffffffffffffffffffffffffffffffff1673ffffffffffffffffffffffffffffffffffffffff1681526020019081526020016000206000828254620000e191906200031d565b925050819055506040518060400160405280600381526020017f4e4754000000000000000000000000000000000000000000000000000000000081525060009080519060200190620001359291906200020f565b506040518060400160405280600381526020017f4e4754000000000000000000000000000000000000000000000000000000000081525060019080519060200190620001839291906200020f565b5082600660006101000a81548173ffffffffffffffffffffffffffffffffffffffff021916908373ffffffffffffffffffffffffffffffffffffffff16021790555081600860006101000a81548173ffffffffffffffffffffffffffffffffffffffff021916908373ffffffffffffffffffffffffffffffffffffffff16021790555050505062000671565b8280546200021d90620005b1565b90600052602060002090601f0160209004810192826200024157600085556200028d565b82601f106200025c57805160ff19168380011785556200028d565b828001600101855582156200028d579182015b828111156200028c5782518255916020019190600101906200026f565b5b5090506200029c9190620002a0565b5090565b5b80821115620002bb576000816000905550600101620002a1565b5090565b600081519050620002d08162000657565b92915050565b60008060408385031215620002f057620002ef62000645565b5b60006200030085828601620002bf565b92505060206200031385828601620002bf565b9150509250929050565b60006200032a82620005a7565b91506200033783620005a7565b9250827fffffffffffffffffffffffffffffffffffffffffffffffffffffffffffffffff038211156200036f576200036e620005e7565b5b828201905092915050565b6000808291508390505b6001851115620003cc57808604811115620003a457620003a3620005e7565b5b6001851615620003b45780820291505b8081029050620003c4856200064a565b945062000384565b94509492505050565b6000620003e282620005a7565b9150620003ef83620005a7565b92506200041e7fffffffffffffffffffffffffffffffffffffffffffffffffffffffffffffffff848462000426565b905092915050565b6000826200043857600190506200050b565b816200044857600090506200050b565b81600181146200046157600281146200046c57620004a2565b60019150506200050b565b60ff841115620004815762000480620005e7565b5b8360020a9150848211156200049b576200049a620005e7565b5b506200050b565b5060208310610133831016604e8410600b8410161715620004dc5782820a905083811115620004d657620004d5620005e7565b5b6200050b565b620004eb84848460016200037a565b92509050818404811115620005055762000504620005e7565b5b81810290505b9392505050565b60006200051f82620005a7565b91506200052c83620005a7565b9250817fffffffffffffffffffffffffffffffffffffffffffffffffffffffffffffffff0483118215151615620005685762000567620005e7565b5b828202905092915050565b6000620005808262000587565b9050919050565b600073ffffffffffffffffffffffffffffffffffffffff82169050919050565b6000819050919050565b60006002820490506001821680620005ca57607f821691505b60208210811415620005e157620005e062000616565b5b50919050565b7f4e487b7100000000000000000000000000000000000000000000000000000000600052601160045260246000fd5b7f4e487b7100000000000000000000000000000000000000000000000000000000600052602260045260246000fd5b600080fd5b60008160011c9050919050565b620006628162000573565b81146200066e57600080fd5b50565b611d9c80620006816000396000f3fe6080604052600436106100fe5760003560e01c80636352211e11610095578063a9059cbb11610064578063a9059cbb14610357578063d56d229d14610387578063dd62ed3e146103b2578063f8fe54fa146103ef578063ffc49f381461042e576100fe565b80636352211e1461028757806370a08231146102c45780638951cf591461030157806395d89b411461032c576100fe565b806323b872dd116100d157806323b872dd146101d357806327d88a7814610203578063313ce567146102405780636088e93a1461026b576100fe565b806306fdde0314610103578063095ea7b31461012e578063150b7a021461016b57806318160ddd146101a8575b600080fd5b34801561010f57600080fd5b5061011861046b565b60405161012591906118a9565b60405180910390f35b34801561013a57600080fd5b50610155600480360381019061015091906115b4565b6104f9565b6040516101629190611858565b60405180910390f35b34801561017757600080fd5b50610192600480360381019061018d919061152c565b610654565b60405161019f9190611873565b60405180910390f35b3480156101b457600080fd5b506101bd61075c565b6040516101ca919061192b565b60405180910390f35b6101ed60048036038101906101e891906114d9565b610762565b6040516101fa9190611858565b60405180910390f35b34801561020f57600080fd5b5061022a6004803603810190610225919061143f565b610778565b6040516102379190611836565b60405180910390f35b34801561024c57600080fd5b50610255610834565b604051610262919061197d565b60405180910390f35b610285600480360381019061028091906115b4565b610847565b005b34801561029357600080fd5b506102ae60048036038101906102a991906115f4565b610b49565b6040516102bb91906117e4565b60405180910390f35b3480156102d057600080fd5b506102eb60048036038101906102e6919061143f565b610bfd565b6040516102f8919061192b565b60405180910390f35b34801561030d57600080fd5b50610316610c46565b604051610323919061192b565b60405180910390f35b34801561033857600080fd5b50610341610c50565b60405161034e91906118a9565b60405180910390f35b610371600480360381019061036c91906115b4565b610cde565b60405161037e9190611858565b60405180910390f35b34801561039357600080fd5b5061039c610cf2565b6040516103a9919061188e565b60405180910390f35b3480156103be57600080fd5b506103d960048036038101906103d49190611499565b610d18565b6040516103e6919061192b565b60405180910390f35b3480156103fb57600080fd5b50610416600480360381019061041191906115b4565b610d9f565b60405161042593929190611946565b60405180910390f35b34801561043a57600080fd5b506104556004803603810190610450919061143f565b610de6565b604051610462919061192b565b60405180910390f35b6000805461047890611b8b565b80601f01602080910402602001604051908101604052809291908181526020018280546104a490611b8b565b80156104f15780601f106104c6576101008083540402835291602001916104f1565b820191906000526020600020905b8154815290600101906020018083116104d457829003601f168201915b505050505081565b60008082148061058557506000600560003373ffffffffffffffffffffffffffffffffffffffff1673ffffffffffffffffffffffffffffffffffffffff16815260200190815260200160002060008573ffffffffffffffffffffffffffffffffffffffff1673ffffffffffffffffffffffffffffffffffffffff16815260200190815260200160002054145b61058e57600080fd5b81600560003373ffffffffffffffffffffffffffffffffffffffff1673ffffffffffffffffffffffffffffffffffffffff16815260200190815260200160002060008573ffffffffffffffffffffffffffffffffffffffff1673ffffffffffffffffffffffffffffffffffffffff168152602001908152602001600020819055507f8c5be1e5ebec7d5bd14f71427d1e84f3dd0314c0f7b2291e5b200ac8c7c3b925338484604051610642939291906117ff565b60405180910390a16001905092915050565b6000600760008673ffffffffffffffffffffffffffffffffffffffff1673ffffffffffffffffffffffffffffffffffffffff1681526020019081526020016000206040518060600160405280868152602001428152602001600181525090806001815401808255809150506001900390600052602060002090600302016000909190919091506000820151816000015560208201518160010155604082015181600201555050838573ffffffffffffffffffffffffffffffffffffffff167fcbd44b327242a19152f06fd696fc88ca79d777e3de08a110708838867427bd5142604051610741919061192b565b60405180910390a363150b7a0260e01b905095945050505050565b60035481565b600061076f848484610f10565b90509392505050565b6060600760008373ffffffffffffffffffffffffffffffffffffffff1673ffffffffffffffffffffffffffffffffffffffff168152602001908152602001600020805480602002602001604051908101604052809291908181526020016000905b8282101561082957838290600052602060002090600302016040518060600160405290816000820154815260200160018201548152602001600282015481525050815260200190600101906107d9565b505050509050919050565b600260009054906101000a900460ff1681565b600660009054906101000a900473ffffffffffffffffffffffffffffffffffffffff1673ffffffffffffffffffffffffffffffffffffffff163373ffffffffffffffffffffffffffffffffffffffff16146108d7576040517f08c379a00000000000000000000000000000000000000000000000000000000081526004016108ce906118cb565b60405180910390fd5b60005b600760008473ffffffffffffffffffffffffffffffffffffffff1673ffffffffffffffffffffffffffffffffffffffff16815260200190815260200160002080549050811015610b445781600760008573ffffffffffffffffffffffffffffffffffffffff1673ffffffffffffffffffffffffffffffffffffffff168152602001908152602001600020828154811061097657610975611c64565b5b9060005260206000209060030201600001541415610b33576001600760008573ffffffffffffffffffffffffffffffffffffffff1673ffffffffffffffffffffffffffffffffffffffff16815260200190815260200160002082815481106109e1576109e0611c64565b5b90600052602060002090600302016002015414610a33576040517f08c379a0000000000000000000000000000000000000000000000000000000008152600401610a2a9061190b565b60405180910390fd5b6000600760008573ffffffffffffffffffffffffffffffffffffffff1673ffffffffffffffffffffffffffffffffffffffff1681526020019081526020016000208281548110610a8657610a85611c64565b5b9060005260206000209060030201905060008160020181905550600860009054906101000a900473ffffffffffffffffffffffffffffffffffffffff1673ffffffffffffffffffffffffffffffffffffffff166323b872dd3086866040518463ffffffff1660e01b8152600401610aff939291906117ff565b600060405180830381600087803b158015610b1957600080fd5b505af1158015610b2d573d6000803e3d6000fd5b50505050505b80610b3d90611bbd565b90506108da565b505050565b6000600860009054906101000a900473ffffffffffffffffffffffffffffffffffffffff1673ffffffffffffffffffffffffffffffffffffffff16636352211e836040518263ffffffff1660e01b8152600401610ba6919061192b565b60206040518083038186803b158015610bbe57600080fd5b505afa158015610bd2573d6000803e3d6000fd5b505050506040513d601f19601f82011682018060405250810190610bf6919061146c565b9050919050565b6000600460008373ffffffffffffffffffffffffffffffffffffffff1673ffffffffffffffffffffffffffffffffffffffff168152602001908152602001600020549050919050565b6000600354905090565b60018054610c5d90611b8b565b80601f0160208091040260200160405190810160405280929190818152602001828054610c8990611b8b565b8015610cd65780601f10610cab57610100808354040283529160200191610cd6565b820191906000526020600020905b815481529060010190602001808311610cb957829003601f168201915b505050505081565b6000610cea83836111a1565b905092915050565b600860009054906101000a900473ffffffffffffffffffffffffffffffffffffffff1681565b6000600560008473ffffffffffffffffffffffffffffffffffffffff1673ffffffffffffffffffffffffffffffffffffffff16815260200190815260200160002060008373ffffffffffffffffffffffffffffffffffffffff1673ffffffffffffffffffffffffffffffffffffffff16815260200190815260200160002054905092915050565b60076020528160005260406000208181548110610dbb57600080fd5b9060005260206000209060030201600091509150508060000154908060010154908060020154905083565b600080600760008473ffffffffffffffffffffffffffffffffffffffff1673ffffffffffffffffffffffffffffffffffffffff16815260200190815260200160002080549050905060005b600760008573ffffffffffffffffffffffffffffffffffffffff1673ffffffffffffffffffffffffffffffffffffffff16815260200190815260200160002080549050811015610f06576000600760008673ffffffffffffffffffffffffffffffffffffffff1673ffffffffffffffffffffffffffffffffffffffff1681526020019081526020016000208281548110610ece57610ecd611c64565b5b9060005260206000209060030201600201541415610ef5578180610ef190611b61565b9250505b80610eff90611bbd565b9050610e31565b5080915050919050565b600081600460008673ffffffffffffffffffffffffffffffffffffffff1673ffffffffffffffffffffffffffffffffffffffff1681526020019081526020016000205410158015610fdd575081600560008673ffffffffffffffffffffffffffffffffffffffff1673ffffffffffffffffffffffffffffffffffffffff16815260200190815260200160002060003373ffffffffffffffffffffffffffffffffffffffff1673ffffffffffffffffffffffffffffffffffffffff1681526020019081526020016000205410155b61101c576040517f08c379a0000000000000000000000000000000000000000000000000000000008152600401611013906118eb565b60405180910390fd5b81600460008673ffffffffffffffffffffffffffffffffffffffff1673ffffffffffffffffffffffffffffffffffffffff168152602001908152602001600020600082825461106b9190611a43565b9250508190555081600460008573ffffffffffffffffffffffffffffffffffffffff1673ffffffffffffffffffffffffffffffffffffffff16815260200190815260200160002060008282546110c191906119ed565b9250508190555081600560008673ffffffffffffffffffffffffffffffffffffffff1673ffffffffffffffffffffffffffffffffffffffff16815260200190815260200160002060003373ffffffffffffffffffffffffffffffffffffffff1673ffffffffffffffffffffffffffffffffffffffff16815260200190815260200160002060008282546111549190611a43565b925050819055507fddf252ad1be2c89b69c2b068fc378daa952ba7f163c4a11628f55a4df523b3ef84848460405161118e939291906117ff565b60405180910390a1600190509392505050565b600081600460003373ffffffffffffffffffffffffffffffffffffffff1673ffffffffffffffffffffffffffffffffffffffff168152602001908152602001600020541015801561127a5750600460008473ffffffffffffffffffffffffffffffffffffffff1673ffffffffffffffffffffffffffffffffffffffff1681526020019081526020016000205482600460008673ffffffffffffffffffffffffffffffffffffffff1673ffffffffffffffffffffffffffffffffffffffff1681526020019081526020016000205461127891906119ed565b115b6112b9576040517f08c379a00000000000000000000000000000000000000000000000000000000081526004016112b0906118eb565b60405180910390fd5b81600460003373ffffffffffffffffffffffffffffffffffffffff1673ffffffffffffffffffffffffffffffffffffffff16815260200190815260200160002060008282546113089190611a43565b9250508190555081600460008573ffffffffffffffffffffffffffffffffffffffff1673ffffffffffffffffffffffffffffffffffffffff168152602001908152602001600020600082825461135e91906119ed565b925050819055507fddf252ad1be2c89b69c2b068fc378daa952ba7f163c4a11628f55a4df523b3ef338484604051611398939291906117ff565b60405180910390a16001905092915050565b6000813590506113b981611d38565b92915050565b6000815190506113ce81611d38565b92915050565b60008083601f8401126113ea576113e9611c98565b5b8235905067ffffffffffffffff81111561140757611406611c93565b5b60208301915083600182028301111561142357611422611c9d565b5b9250929050565b60008135905061143981611d4f565b92915050565b60006020828403121561145557611454611ca7565b5b6000611463848285016113aa565b91505092915050565b60006020828403121561148257611481611ca7565b5b6000611490848285016113bf565b91505092915050565b600080604083850312156114b0576114af611ca7565b5b60006114be858286016113aa565b92505060206114cf858286016113aa565b9150509250929050565b6000806000606084860312156114f2576114f1611ca7565b5b6000611500868287016113aa565b9350506020611511868287016113aa565b92505060406115228682870161142a565b9150509250925092565b60008060008060006080868803121561154857611547611ca7565b5b6000611556888289016113aa565b9550506020611567888289016113aa565b94505060406115788882890161142a565b935050606086013567ffffffffffffffff81111561159957611598611ca2565b5b6115a5888289016113d4565b92509250509295509295909350565b600080604083850312156115cb576115ca611ca7565b5b60006115d9858286016113aa565b92505060206115ea8582860161142a565b9150509250929050565b60006020828403121561160a57611609611ca7565b5b60006116188482850161142a565b91505092915050565b600061162d8383611775565b60608301905092915050565b61164281611a77565b82525050565b6000611653826119a8565b61165d81856119cb565b935061166883611998565b8060005b838110156116995781516116808882611621565b975061168b836119be565b92505060018101905061166c565b5085935050505092915050565b6116af81611a89565b82525050565b6116be81611a95565b82525050565b6116cd81611af8565b82525050565b60006116de826119b3565b6116e881856119dc565b93506116f8818560208601611b2e565b61170181611cac565b840191505092915050565b60006117196019836119dc565b915061172482611cbd565b602082019050919050565b600061173c6012836119dc565b915061174782611ce6565b602082019050919050565b600061175f6019836119dc565b915061176a82611d0f565b602082019050919050565b60608201600082015161178b60008501826117b7565b50602082015161179e60208501826117b7565b5060408201516117b160408501826117b7565b50505050565b6117c081611ae1565b82525050565b6117cf81611ae1565b82525050565b6117de81611aeb565b82525050565b60006020820190506117f96000830184611639565b92915050565b60006060820190506118146000830186611639565b6118216020830185611639565b61182e60408301846117c6565b949350505050565b600060208201905081810360008301526118508184611648565b905092915050565b600060208201905061186d60008301846116a6565b92915050565b600060208201905061188860008301846116b5565b92915050565b60006020820190506118a360008301846116c4565b92915050565b600060208201905081810360008301526118c381846116d3565b905092915050565b600060208201905081810360008301526118e48161170c565b9050919050565b600060208201905081810360008301526119048161172f565b9050919050565b6000602082019050818103600083015261192481611752565b9050919050565b600060208201905061194060008301846117c6565b92915050565b600060608201905061195b60008301866117c6565b61196860208301856117c6565b61197560408301846117c6565b949350505050565b600060208201905061199260008301846117d5565b92915050565b6000819050602082019050919050565b600081519050919050565b600081519050919050565b6000602082019050919050565b600082825260208201905092915050565b600082825260208201905092915050565b60006119f882611ae1565b9150611a0383611ae1565b9250827fffffffffffffffffffffffffffffffffffffffffffffffffffffffffffffffff03821115611a3857611a37611c06565b5b828201905092915050565b6000611a4e82611ae1565b9150611a5983611ae1565b925082821015611a6c57611a6b611c06565b5b828203905092915050565b6000611a8282611ac1565b9050919050565b60008115159050919050565b60007fffffffff0000000000000000000000000000000000000000000000000000000082169050919050565b600073ffffffffffffffffffffffffffffffffffffffff82169050919050565b6000819050919050565b600060ff82169050919050565b6000611b0382611b0a565b9050919050565b6000611b1582611b1c565b9050919050565b6000611b2782611ac1565b9050919050565b60005b83811015611b4c578082015181840152602081019050611b31565b83811115611b5b576000848401525b50505050565b6000611b6c82611ae1565b91506000821415611b8057611b7f611c06565b5b600182039050919050565b60006002820490506001821680611ba357607f821691505b60208210811415611bb757611bb6611c35565b5b50919050565b6000611bc882611ae1565b91507fffffffffffffffffffffffffffffffffffffffffffffffffffffffffffffffff821415611bfb57611bfa611c06565b5b600182019050919050565b7f4e487b7100000000000000000000000000000000000000000000000000000000600052601160045260246000fd5b7f4e487b7100000000000000000000000000000000000000000000000000000000600052602260045260246000fd5b7f4e487b7100000000000000000000000000000000000000000000000000000000600052603260045260246000fd5b600080fd5b600080fd5b600080fd5b600080fd5b600080fd5b6000601f19601f8301169050919050565b7f4f6e6c79206f776e65722063616e2063616c6c20746869732e00000000000000600082015250565b7f496e73756666696369656e742066756e64730000000000000000000000000000600082015250565b7f596f7520616c7265616479206861766520776974686472617700000000000000600082015250565b611d4181611a77565b8114611d4c57600080fd5b50565b611d5881611ae1565b8114611d6357600080fd5b5056fea26469706673582212203d40d18dd804afae41ad64e22db8b8adfb49f1e3aca320538720c7fbb852cf0a64736f6c63430008070033",
					"opcodes": "PUSH1 0x80 PUSH1 0x40 MSTORE PUSH1 0x4 PUSH1 0x2 PUSH1 0x0 PUSH2 0x100 EXP DUP2 SLOAD DUP2 PUSH1 0xFF MUL NOT AND SWAP1 DUP4 PUSH1 0xFF AND MUL OR SWAP1 SSTORE POP PUSH5 0x2540BE400 PUSH1 0x3 SSTORE CALLVALUE DUP1 ISZERO PUSH3 0x36 JUMPI PUSH1 0x0 DUP1 REVERT JUMPDEST POP PUSH1 0x40 MLOAD PUSH3 0x241D CODESIZE SUB DUP1 PUSH3 0x241D DUP4 CODECOPY DUP2 DUP2 ADD PUSH1 0x40 MSTORE DUP2 ADD SWAP1 PUSH3 0x5C SWAP2 SWAP1 PUSH3 0x2D6 JUMP JUMPDEST PUSH1 0x0 PUSH1 0x2 PUSH1 0x0 SWAP1 SLOAD SWAP1 PUSH2 0x100 EXP SWAP1 DIV PUSH1 0xFF AND PUSH1 0xFF AND PUSH1 0xA PUSH3 0x7F SWAP2 SWAP1 PUSH3 0x3D5 JUMP JUMPDEST PUSH1 0x3 SLOAD PUSH3 0x8E SWAP2 SWAP1 PUSH3 0x512 JUMP JUMPDEST SWAP1 POP DUP1 PUSH1 0x4 PUSH1 0x0 DUP6 PUSH20 0xFFFFFFFFFFFFFFFFFFFFFFFFFFFFFFFFFFFFFFFF AND PUSH20 0xFFFFFFFFFFFFFFFFFFFFFFFFFFFFFFFFFFFFFFFF AND DUP2 MSTORE PUSH1 0x20 ADD SWAP1 DUP2 MSTORE PUSH1 0x20 ADD PUSH1 0x0 KECCAK256 PUSH1 0x0 DUP3 DUP3 SLOAD PUSH3 0xE1 SWAP2 SWAP1 PUSH3 0x31D JUMP JUMPDEST SWAP3 POP POP DUP2 SWAP1 SSTORE POP PUSH1 0x40 MLOAD DUP1 PUSH1 0x40 ADD PUSH1 0x40 MSTORE DUP1 PUSH1 0x3 DUP2 MSTORE PUSH1 0x20 ADD PUSH32 0x4E47540000000000000000000000000000000000000000000000000000000000 DUP2 MSTORE POP PUSH1 0x0 SWAP1 DUP1 MLOAD SWAP1 PUSH1 0x20 ADD SWAP1 PUSH3 0x135 SWAP3 SWAP2 SWAP1 PUSH3 0x20F JUMP JUMPDEST POP PUSH1 0x40 MLOAD DUP1 PUSH1 0x40 ADD PUSH1 0x40 MSTORE DUP1 PUSH1 0x3 DUP2 MSTORE PUSH1 0x20 ADD PUSH32 0x4E47540000000000000000000000000000000000000000000000000000000000 DUP2 MSTORE POP PUSH1 0x1 SWAP1 DUP1 MLOAD SWAP1 PUSH1 0x20 ADD SWAP1 PUSH3 0x183 SWAP3 SWAP2 SWAP1 PUSH3 0x20F JUMP JUMPDEST POP DUP3 PUSH1 0x6 PUSH1 0x0 PUSH2 0x100 EXP DUP2 SLOAD DUP2 PUSH20 0xFFFFFFFFFFFFFFFFFFFFFFFFFFFFFFFFFFFFFFFF MUL NOT AND SWAP1 DUP4 PUSH20 0xFFFFFFFFFFFFFFFFFFFFFFFFFFFFFFFFFFFFFFFF AND MUL OR SWAP1 SSTORE POP DUP2 PUSH1 0x8 PUSH1 0x0 PUSH2 0x100 EXP DUP2 SLOAD DUP2 PUSH20 0xFFFFFFFFFFFFFFFFFFFFFFFFFFFFFFFFFFFFFFFF MUL NOT AND SWAP1 DUP4 PUSH20 0xFFFFFFFFFFFFFFFFFFFFFFFFFFFFFFFFFFFFFFFF AND MUL OR SWAP1 SSTORE POP POP POP POP PUSH3 0x671 JUMP JUMPDEST DUP3 DUP1 SLOAD PUSH3 0x21D SWAP1 PUSH3 0x5B1 JUMP JUMPDEST SWAP1 PUSH1 0x0 MSTORE PUSH1 0x20 PUSH1 0x0 KECCAK256 SWAP1 PUSH1 0x1F ADD PUSH1 0x20 SWAP1 DIV DUP2 ADD SWAP3 DUP3 PUSH3 0x241 JUMPI PUSH1 0x0 DUP6 SSTORE PUSH3 0x28D JUMP JUMPDEST DUP3 PUSH1 0x1F LT PUSH3 0x25C JUMPI DUP1 MLOAD PUSH1 0xFF NOT AND DUP4 DUP1 ADD OR DUP6 SSTORE PUSH3 0x28D JUMP JUMPDEST DUP3 DUP1 ADD PUSH1 0x1 ADD DUP6 SSTORE DUP3 ISZERO PUSH3 0x28D JUMPI SWAP2 DUP3 ADD JUMPDEST DUP3 DUP2 GT ISZERO PUSH3 0x28C JUMPI DUP3 MLOAD DUP3 SSTORE SWAP2 PUSH1 0x20 ADD SWAP2 SWAP1 PUSH1 0x1 ADD SWAP1 PUSH3 0x26F JUMP JUMPDEST JUMPDEST POP SWAP1 POP PUSH3 0x29C SWAP2 SWAP1 PUSH3 0x2A0 JUMP JUMPDEST POP SWAP1 JUMP JUMPDEST JUMPDEST DUP1 DUP3 GT ISZERO PUSH3 0x2BB JUMPI PUSH1 0x0 DUP2 PUSH1 0x0 SWAP1 SSTORE POP PUSH1 0x1 ADD PUSH3 0x2A1 JUMP JUMPDEST POP SWAP1 JUMP JUMPDEST PUSH1 0x0 DUP2 MLOAD SWAP1 POP PUSH3 0x2D0 DUP2 PUSH3 0x657 JUMP JUMPDEST SWAP3 SWAP2 POP POP JUMP JUMPDEST PUSH1 0x0 DUP1 PUSH1 0x40 DUP4 DUP6 SUB SLT ISZERO PUSH3 0x2F0 JUMPI PUSH3 0x2EF PUSH3 0x645 JUMP JUMPDEST JUMPDEST PUSH1 0x0 PUSH3 0x300 DUP6 DUP3 DUP7 ADD PUSH3 0x2BF JUMP JUMPDEST SWAP3 POP POP PUSH1 0x20 PUSH3 0x313 DUP6 DUP3 DUP7 ADD PUSH3 0x2BF JUMP JUMPDEST SWAP2 POP POP SWAP3 POP SWAP3 SWAP1 POP JUMP JUMPDEST PUSH1 0x0 PUSH3 0x32A DUP3 PUSH3 0x5A7 JUMP JUMPDEST SWAP2 POP PUSH3 0x337 DUP4 PUSH3 0x5A7 JUMP JUMPDEST SWAP3 POP DUP3 PUSH32 0xFFFFFFFFFFFFFFFFFFFFFFFFFFFFFFFFFFFFFFFFFFFFFFFFFFFFFFFFFFFFFFFF SUB DUP3 GT ISZERO PUSH3 0x36F JUMPI PUSH3 0x36E PUSH3 0x5E7 JUMP JUMPDEST JUMPDEST DUP3 DUP3 ADD SWAP1 POP SWAP3 SWAP2 POP POP JUMP JUMPDEST PUSH1 0x0 DUP1 DUP3 SWAP2 POP DUP4 SWAP1 POP JUMPDEST PUSH1 0x1 DUP6 GT ISZERO PUSH3 0x3CC JUMPI DUP1 DUP7 DIV DUP2 GT ISZERO PUSH3 0x3A4 JUMPI PUSH3 0x3A3 PUSH3 0x5E7 JUMP JUMPDEST JUMPDEST PUSH1 0x1 DUP6 AND ISZERO PUSH3 0x3B4 JUMPI DUP1 DUP3 MUL SWAP2 POP JUMPDEST DUP1 DUP2 MUL SWAP1 POP PUSH3 0x3C4 DUP6 PUSH3 0x64A JUMP JUMPDEST SWAP5 POP PUSH3 0x384 JUMP JUMPDEST SWAP5 POP SWAP5 SWAP3 POP POP POP JUMP JUMPDEST PUSH1 0x0 PUSH3 0x3E2 DUP3 PUSH3 0x5A7 JUMP JUMPDEST SWAP2 POP PUSH3 0x3EF DUP4 PUSH3 0x5A7 JUMP JUMPDEST SWAP3 POP PUSH3 0x41E PUSH32 0xFFFFFFFFFFFFFFFFFFFFFFFFFFFFFFFFFFFFFFFFFFFFFFFFFFFFFFFFFFFFFFFF DUP5 DUP5 PUSH3 0x426 JUMP JUMPDEST SWAP1 POP SWAP3 SWAP2 POP POP JUMP JUMPDEST PUSH1 0x0 DUP3 PUSH3 0x438 JUMPI PUSH1 0x1 SWAP1 POP PUSH3 0x50B JUMP JUMPDEST DUP2 PUSH3 0x448 JUMPI PUSH1 0x0 SWAP1 POP PUSH3 0x50B JUMP JUMPDEST DUP2 PUSH1 0x1 DUP2 EQ PUSH3 0x461 JUMPI PUSH1 0x2 DUP2 EQ PUSH3 0x46C JUMPI PUSH3 0x4A2 JUMP JUMPDEST PUSH1 0x1 SWAP2 POP POP PUSH3 0x50B JUMP JUMPDEST PUSH1 0xFF DUP5 GT ISZERO PUSH3 0x481 JUMPI PUSH3 0x480 PUSH3 0x5E7 JUMP JUMPDEST JUMPDEST DUP4 PUSH1 0x2 EXP SWAP2 POP DUP5 DUP3 GT ISZERO PUSH3 0x49B JUMPI PUSH3 0x49A PUSH3 0x5E7 JUMP JUMPDEST JUMPDEST POP PUSH3 0x50B JUMP JUMPDEST POP PUSH1 0x20 DUP4 LT PUSH2 0x133 DUP4 LT AND PUSH1 0x4E DUP5 LT PUSH1 0xB DUP5 LT AND OR ISZERO PUSH3 0x4DC JUMPI DUP3 DUP3 EXP SWAP1 POP DUP4 DUP2 GT ISZERO PUSH3 0x4D6 JUMPI PUSH3 0x4D5 PUSH3 0x5E7 JUMP JUMPDEST JUMPDEST PUSH3 0x50B JUMP JUMPDEST PUSH3 0x4EB DUP5 DUP5 DUP5 PUSH1 0x1 PUSH3 0x37A JUMP JUMPDEST SWAP3 POP SWAP1 POP DUP2 DUP5 DIV DUP2 GT ISZERO PUSH3 0x505 JUMPI PUSH3 0x504 PUSH3 0x5E7 JUMP JUMPDEST JUMPDEST DUP2 DUP2 MUL SWAP1 POP JUMPDEST SWAP4 SWAP3 POP POP POP JUMP JUMPDEST PUSH1 0x0 PUSH3 0x51F DUP3 PUSH3 0x5A7 JUMP JUMPDEST SWAP2 POP PUSH3 0x52C DUP4 PUSH3 0x5A7 JUMP JUMPDEST SWAP3 POP DUP2 PUSH32 0xFFFFFFFFFFFFFFFFFFFFFFFFFFFFFFFFFFFFFFFFFFFFFFFFFFFFFFFFFFFFFFFF DIV DUP4 GT DUP3 ISZERO ISZERO AND ISZERO PUSH3 0x568 JUMPI PUSH3 0x567 PUSH3 0x5E7 JUMP JUMPDEST JUMPDEST DUP3 DUP3 MUL SWAP1 POP SWAP3 SWAP2 POP POP JUMP JUMPDEST PUSH1 0x0 PUSH3 0x580 DUP3 PUSH3 0x587 JUMP JUMPDEST SWAP1 POP SWAP2 SWAP1 POP JUMP JUMPDEST PUSH1 0x0 PUSH20 0xFFFFFFFFFFFFFFFFFFFFFFFFFFFFFFFFFFFFFFFF DUP3 AND SWAP1 POP SWAP2 SWAP1 POP JUMP JUMPDEST PUSH1 0x0 DUP2 SWAP1 POP SWAP2 SWAP1 POP JUMP JUMPDEST PUSH1 0x0 PUSH1 0x2 DUP3 DIV SWAP1 POP PUSH1 0x1 DUP3 AND DUP1 PUSH3 0x5CA JUMPI PUSH1 0x7F DUP3 AND SWAP2 POP JUMPDEST PUSH1 0x20 DUP3 LT DUP2 EQ ISZERO PUSH3 0x5E1 JUMPI PUSH3 0x5E0 PUSH3 0x616 JUMP JUMPDEST JUMPDEST POP SWAP2 SWAP1 POP JUMP JUMPDEST PUSH32 0x4E487B7100000000000000000000000000000000000000000000000000000000 PUSH1 0x0 MSTORE PUSH1 0x11 PUSH1 0x4 MSTORE PUSH1 0x24 PUSH1 0x0 REVERT JUMPDEST PUSH32 0x4E487B7100000000000000000000000000000000000000000000000000000000 PUSH1 0x0 MSTORE PUSH1 0x22 PUSH1 0x4 MSTORE PUSH1 0x24 PUSH1 0x0 REVERT JUMPDEST PUSH1 0x0 DUP1 REVERT JUMPDEST PUSH1 0x0 DUP2 PUSH1 0x1 SHR SWAP1 POP SWAP2 SWAP1 POP JUMP JUMPDEST PUSH3 0x662 DUP2 PUSH3 0x573 JUMP JUMPDEST DUP2 EQ PUSH3 0x66E JUMPI PUSH1 0x0 DUP1 REVERT JUMPDEST POP JUMP JUMPDEST PUSH2 0x1D9C DUP1 PUSH3 0x681 PUSH1 0x0 CODECOPY PUSH1 0x0 RETURN INVALID PUSH1 0x80 PUSH1 0x40 MSTORE PUSH1 0x4 CALLDATASIZE LT PUSH2 0xFE JUMPI PUSH1 0x0 CALLDATALOAD PUSH1 0xE0 SHR DUP1 PUSH4 0x6352211E GT PUSH2 0x95 JUMPI DUP1 PUSH4 0xA9059CBB GT PUSH2 0x64 JUMPI DUP1 PUSH4 0xA9059CBB EQ PUSH2 0x357 JUMPI DUP1 PUSH4 0xD56D229D EQ PUSH2 0x387 JUMPI DUP1 PUSH4 0xDD62ED3E EQ PUSH2 0x3B2 JUMPI DUP1 PUSH4 0xF8FE54FA EQ PUSH2 0x3EF JUMPI DUP1 PUSH4 0xFFC49F38 EQ PUSH2 0x42E JUMPI PUSH2 0xFE JUMP JUMPDEST DUP1 PUSH4 0x6352211E EQ PUSH2 0x287 JUMPI DUP1 PUSH4 0x70A08231 EQ PUSH2 0x2C4 JUMPI DUP1 PUSH4 0x8951CF59 EQ PUSH2 0x301 JUMPI DUP1 PUSH4 0x95D89B41 EQ PUSH2 0x32C JUMPI PUSH2 0xFE JUMP JUMPDEST DUP1 PUSH4 0x23B872DD GT PUSH2 0xD1 JUMPI DUP1 PUSH4 0x23B872DD EQ PUSH2 0x1D3 JUMPI DUP1 PUSH4 0x27D88A78 EQ PUSH2 0x203 JUMPI DUP1 PUSH4 0x313CE567 EQ PUSH2 0x240 JUMPI DUP1 PUSH4 0x6088E93A EQ PUSH2 0x26B JUMPI PUSH2 0xFE JUMP JUMPDEST DUP1 PUSH4 0x6FDDE03 EQ PUSH2 0x103 JUMPI DUP1 PUSH4 0x95EA7B3 EQ PUSH2 0x12E JUMPI DUP1 PUSH4 0x150B7A02 EQ PUSH2 0x16B JUMPI DUP1 PUSH4 0x18160DDD EQ PUSH2 0x1A8 JUMPI JUMPDEST PUSH1 0x0 DUP1 REVERT JUMPDEST CALLVALUE DUP1 ISZERO PUSH2 0x10F JUMPI PUSH1 0x0 DUP1 REVERT JUMPDEST POP PUSH2 0x118 PUSH2 0x46B JUMP JUMPDEST PUSH1 0x40 MLOAD PUSH2 0x125 SWAP2 SWAP1 PUSH2 0x18A9 JUMP JUMPDEST PUSH1 0x40 MLOAD DUP1 SWAP2 SUB SWAP1 RETURN JUMPDEST CALLVALUE DUP1 ISZERO PUSH2 0x13A JUMPI PUSH1 0x0 DUP1 REVERT JUMPDEST POP PUSH2 0x155 PUSH1 0x4 DUP1 CALLDATASIZE SUB DUP2 ADD SWAP1 PUSH2 0x150 SWAP2 SWAP1 PUSH2 0x15B4 JUMP JUMPDEST PUSH2 0x4F9 JUMP JUMPDEST PUSH1 0x40 MLOAD PUSH2 0x162 SWAP2 SWAP1 PUSH2 0x1858 JUMP JUMPDEST PUSH1 0x40 MLOAD DUP1 SWAP2 SUB SWAP1 RETURN JUMPDEST CALLVALUE DUP1 ISZERO PUSH2 0x177 JUMPI PUSH1 0x0 DUP1 REVERT JUMPDEST POP PUSH2 0x192 PUSH1 0x4 DUP1 CALLDATASIZE SUB DUP2 ADD SWAP1 PUSH2 0x18D SWAP2 SWAP1 PUSH2 0x152C JUMP JUMPDEST PUSH2 0x654 JUMP JUMPDEST PUSH1 0x40 MLOAD PUSH2 0x19F SWAP2 SWAP1 PUSH2 0x1873 JUMP JUMPDEST PUSH1 0x40 MLOAD DUP1 SWAP2 SUB SWAP1 RETURN JUMPDEST CALLVALUE DUP1 ISZERO PUSH2 0x1B4 JUMPI PUSH1 0x0 DUP1 REVERT JUMPDEST POP PUSH2 0x1BD PUSH2 0x75C JUMP JUMPDEST PUSH1 0x40 MLOAD PUSH2 0x1CA SWAP2 SWAP1 PUSH2 0x192B JUMP JUMPDEST PUSH1 0x40 MLOAD DUP1 SWAP2 SUB SWAP1 RETURN JUMPDEST PUSH2 0x1ED PUSH1 0x4 DUP1 CALLDATASIZE SUB DUP2 ADD SWAP1 PUSH2 0x1E8 SWAP2 SWAP1 PUSH2 0x14D9 JUMP JUMPDEST PUSH2 0x762 JUMP JUMPDEST PUSH1 0x40 MLOAD PUSH2 0x1FA SWAP2 SWAP1 PUSH2 0x1858 JUMP JUMPDEST PUSH1 0x40 MLOAD DUP1 SWAP2 SUB SWAP1 RETURN JUMPDEST CALLVALUE DUP1 ISZERO PUSH2 0x20F JUMPI PUSH1 0x0 DUP1 REVERT JUMPDEST POP PUSH2 0x22A PUSH1 0x4 DUP1 CALLDATASIZE SUB DUP2 ADD SWAP1 PUSH2 0x225 SWAP2 SWAP1 PUSH2 0x143F JUMP JUMPDEST PUSH2 0x778 JUMP JUMPDEST PUSH1 0x40 MLOAD PUSH2 0x237 SWAP2 SWAP1 PUSH2 0x1836 JUMP JUMPDEST PUSH1 0x40 MLOAD DUP1 SWAP2 SUB SWAP1 RETURN JUMPDEST CALLVALUE DUP1 ISZERO PUSH2 0x24C JUMPI PUSH1 0x0 DUP1 REVERT JUMPDEST POP PUSH2 0x255 PUSH2 0x834 JUMP JUMPDEST PUSH1 0x40 MLOAD PUSH2 0x262 SWAP2 SWAP1 PUSH2 0x197D JUMP JUMPDEST PUSH1 0x40 MLOAD DUP1 SWAP2 SUB SWAP1 RETURN JUMPDEST PUSH2 0x285 PUSH1 0x4 DUP1 CALLDATASIZE SUB DUP2 ADD SWAP1 PUSH2 0x280 SWAP2 SWAP1 PUSH2 0x15B4 JUMP JUMPDEST PUSH2 0x847 JUMP JUMPDEST STOP JUMPDEST CALLVALUE DUP1 ISZERO PUSH2 0x293 JUMPI PUSH1 0x0 DUP1 REVERT JUMPDEST POP PUSH2 0x2AE PUSH1 0x4 DUP1 CALLDATASIZE SUB DUP2 ADD SWAP1 PUSH2 0x2A9 SWAP2 SWAP1 PUSH2 0x15F4 JUMP JUMPDEST PUSH2 0xB49 JUMP JUMPDEST PUSH1 0x40 MLOAD PUSH2 0x2BB SWAP2 SWAP1 PUSH2 0x17E4 JUMP JUMPDEST PUSH1 0x40 MLOAD DUP1 SWAP2 SUB SWAP1 RETURN JUMPDEST CALLVALUE DUP1 ISZERO PUSH2 0x2D0 JUMPI PUSH1 0x0 DUP1 REVERT JUMPDEST POP PUSH2 0x2EB PUSH1 0x4 DUP1 CALLDATASIZE SUB DUP2 ADD SWAP1 PUSH2 0x2E6 SWAP2 SWAP1 PUSH2 0x143F JUMP JUMPDEST PUSH2 0xBFD JUMP JUMPDEST PUSH1 0x40 MLOAD PUSH2 0x2F8 SWAP2 SWAP1 PUSH2 0x192B JUMP JUMPDEST PUSH1 0x40 MLOAD DUP1 SWAP2 SUB SWAP1 RETURN JUMPDEST CALLVALUE DUP1 ISZERO PUSH2 0x30D JUMPI PUSH1 0x0 DUP1 REVERT JUMPDEST POP PUSH2 0x316 PUSH2 0xC46 JUMP JUMPDEST PUSH1 0x40 MLOAD PUSH2 0x323 SWAP2 SWAP1 PUSH2 0x192B JUMP JUMPDEST PUSH1 0x40 MLOAD DUP1 SWAP2 SUB SWAP1 RETURN JUMPDEST CALLVALUE DUP1 ISZERO PUSH2 0x338 JUMPI PUSH1 0x0 DUP1 REVERT JUMPDEST POP PUSH2 0x341 PUSH2 0xC50 JUMP JUMPDEST PUSH1 0x40 MLOAD PUSH2 0x34E SWAP2 SWAP1 PUSH2 0x18A9 JUMP JUMPDEST PUSH1 0x40 MLOAD DUP1 SWAP2 SUB SWAP1 RETURN JUMPDEST PUSH2 0x371 PUSH1 0x4 DUP1 CALLDATASIZE SUB DUP2 ADD SWAP1 PUSH2 0x36C SWAP2 SWAP1 PUSH2 0x15B4 JUMP JUMPDEST PUSH2 0xCDE JUMP JUMPDEST PUSH1 0x40 MLOAD PUSH2 0x37E SWAP2 SWAP1 PUSH2 0x1858 JUMP JUMPDEST PUSH1 0x40 MLOAD DUP1 SWAP2 SUB SWAP1 RETURN JUMPDEST CALLVALUE DUP1 ISZERO PUSH2 0x393 JUMPI PUSH1 0x0 DUP1 REVERT JUMPDEST POP PUSH2 0x39C PUSH2 0xCF2 JUMP JUMPDEST PUSH1 0x40 MLOAD PUSH2 0x3A9 SWAP2 SWAP1 PUSH2 0x188E JUMP JUMPDEST PUSH1 0x40 MLOAD DUP1 SWAP2 SUB SWAP1 RETURN JUMPDEST CALLVALUE DUP1 ISZERO PUSH2 0x3BE JUMPI PUSH1 0x0 DUP1 REVERT JUMPDEST POP PUSH2 0x3D9 PUSH1 0x4 DUP1 CALLDATASIZE SUB DUP2 ADD SWAP1 PUSH2 0x3D4 SWAP2 SWAP1 PUSH2 0x1499 JUMP JUMPDEST PUSH2 0xD18 JUMP JUMPDEST PUSH1 0x40 MLOAD PUSH2 0x3E6 SWAP2 SWAP1 PUSH2 0x192B JUMP JUMPDEST PUSH1 0x40 MLOAD DUP1 SWAP2 SUB SWAP1 RETURN JUMPDEST CALLVALUE DUP1 ISZERO PUSH2 0x3FB JUMPI PUSH1 0x0 DUP1 REVERT JUMPDEST POP PUSH2 0x416 PUSH1 0x4 DUP1 CALLDATASIZE SUB DUP2 ADD SWAP1 PUSH2 0x411 SWAP2 SWAP1 PUSH2 0x15B4 JUMP JUMPDEST PUSH2 0xD9F JUMP JUMPDEST PUSH1 0x40 MLOAD PUSH2 0x425 SWAP4 SWAP3 SWAP2 SWAP1 PUSH2 0x1946 JUMP JUMPDEST PUSH1 0x40 MLOAD DUP1 SWAP2 SUB SWAP1 RETURN JUMPDEST CALLVALUE DUP1 ISZERO PUSH2 0x43A JUMPI PUSH1 0x0 DUP1 REVERT JUMPDEST POP PUSH2 0x455 PUSH1 0x4 DUP1 CALLDATASIZE SUB DUP2 ADD SWAP1 PUSH2 0x450 SWAP2 SWAP1 PUSH2 0x143F JUMP JUMPDEST PUSH2 0xDE6 JUMP JUMPDEST PUSH1 0x40 MLOAD PUSH2 0x462 SWAP2 SWAP1 PUSH2 0x192B JUMP JUMPDEST PUSH1 0x40 MLOAD DUP1 SWAP2 SUB SWAP1 RETURN JUMPDEST PUSH1 0x0 DUP1 SLOAD PUSH2 0x478 SWAP1 PUSH2 0x1B8B JUMP JUMPDEST DUP1 PUSH1 0x1F ADD PUSH1 0x20 DUP1 SWAP2 DIV MUL PUSH1 0x20 ADD PUSH1 0x40 MLOAD SWAP1 DUP2 ADD PUSH1 0x40 MSTORE DUP1 SWAP3 SWAP2 SWAP1 DUP2 DUP2 MSTORE PUSH1 0x20 ADD DUP3 DUP1 SLOAD PUSH2 0x4A4 SWAP1 PUSH2 0x1B8B JUMP JUMPDEST DUP1 ISZERO PUSH2 0x4F1 JUMPI DUP1 PUSH1 0x1F LT PUSH2 0x4C6 JUMPI PUSH2 0x100 DUP1 DUP4 SLOAD DIV MUL DUP4 MSTORE SWAP2 PUSH1 0x20 ADD SWAP2 PUSH2 0x4F1 JUMP JUMPDEST DUP3 ADD SWAP2 SWAP1 PUSH1 0x0 MSTORE PUSH1 0x20 PUSH1 0x0 KECCAK256 SWAP1 JUMPDEST DUP2 SLOAD DUP2 MSTORE SWAP1 PUSH1 0x1 ADD SWAP1 PUSH1 0x20 ADD DUP1 DUP4 GT PUSH2 0x4D4 JUMPI DUP3 SWAP1 SUB PUSH1 0x1F AND DUP3 ADD SWAP2 JUMPDEST POP POP POP POP POP DUP2 JUMP JUMPDEST PUSH1 0x0 DUP1 DUP3 EQ DUP1 PUSH2 0x585 JUMPI POP PUSH1 0x0 PUSH1 0x5 PUSH1 0x0 CALLER PUSH20 0xFFFFFFFFFFFFFFFFFFFFFFFFFFFFFFFFFFFFFFFF AND PUSH20 0xFFFFFFFFFFFFFFFFFFFFFFFFFFFFFFFFFFFFFFFF AND DUP2 MSTORE PUSH1 0x20 ADD SWAP1 DUP2 MSTORE PUSH1 0x20 ADD PUSH1 0x0 KECCAK256 PUSH1 0x0 DUP6 PUSH20 0xFFFFFFFFFFFFFFFFFFFFFFFFFFFFFFFFFFFFFFFF AND PUSH20 0xFFFFFFFFFFFFFFFFFFFFFFFFFFFFFFFFFFFFFFFF AND DUP2 MSTORE PUSH1 0x20 ADD SWAP1 DUP2 MSTORE PUSH1 0x20 ADD PUSH1 0x0 KECCAK256 SLOAD EQ JUMPDEST PUSH2 0x58E JUMPI PUSH1 0x0 DUP1 REVERT JUMPDEST DUP2 PUSH1 0x5 PUSH1 0x0 CALLER PUSH20 0xFFFFFFFFFFFFFFFFFFFFFFFFFFFFFFFFFFFFFFFF AND PUSH20 0xFFFFFFFFFFFFFFFFFFFFFFFFFFFFFFFFFFFFFFFF AND DUP2 MSTORE PUSH1 0x20 ADD SWAP1 DUP2 MSTORE PUSH1 0x20 ADD PUSH1 0x0 KECCAK256 PUSH1 0x0 DUP6 PUSH20 0xFFFFFFFFFFFFFFFFFFFFFFFFFFFFFFFFFFFFFFFF AND PUSH20 0xFFFFFFFFFFFFFFFFFFFFFFFFFFFFFFFFFFFFFFFF AND DUP2 MSTORE PUSH1 0x20 ADD SWAP1 DUP2 MSTORE PUSH1 0x20 ADD PUSH1 0x0 KECCAK256 DUP2 SWAP1 SSTORE POP PUSH32 0x8C5BE1E5EBEC7D5BD14F71427D1E84F3DD0314C0F7B2291E5B200AC8C7C3B925 CALLER DUP5 DUP5 PUSH1 0x40 MLOAD PUSH2 0x642 SWAP4 SWAP3 SWAP2 SWAP1 PUSH2 0x17FF JUMP JUMPDEST PUSH1 0x40 MLOAD DUP1 SWAP2 SUB SWAP1 LOG1 PUSH1 0x1 SWAP1 POP SWAP3 SWAP2 POP POP JUMP JUMPDEST PUSH1 0x0 PUSH1 0x7 PUSH1 0x0 DUP7 PUSH20 0xFFFFFFFFFFFFFFFFFFFFFFFFFFFFFFFFFFFFFFFF AND PUSH20 0xFFFFFFFFFFFFFFFFFFFFFFFFFFFFFFFFFFFFFFFF AND DUP2 MSTORE PUSH1 0x20 ADD SWAP1 DUP2 MSTORE PUSH1 0x20 ADD PUSH1 0x0 KECCAK256 PUSH1 0x40 MLOAD DUP1 PUSH1 0x60 ADD PUSH1 0x40 MSTORE DUP1 DUP7 DUP2 MSTORE PUSH1 0x20 ADD TIMESTAMP DUP2 MSTORE PUSH1 0x20 ADD PUSH1 0x1 DUP2 MSTORE POP SWAP1 DUP1 PUSH1 0x1 DUP2 SLOAD ADD DUP1 DUP3 SSTORE DUP1 SWAP2 POP POP PUSH1 0x1 SWAP1 SUB SWAP1 PUSH1 0x0 MSTORE PUSH1 0x20 PUSH1 0x0 KECCAK256 SWAP1 PUSH1 0x3 MUL ADD PUSH1 0x0 SWAP1 SWAP2 SWAP1 SWAP2 SWAP1 SWAP2 POP PUSH1 0x0 DUP3 ADD MLOAD DUP2 PUSH1 0x0 ADD SSTORE PUSH1 0x20 DUP3 ADD MLOAD DUP2 PUSH1 0x1 ADD SSTORE PUSH1 0x40 DUP3 ADD MLOAD DUP2 PUSH1 0x2 ADD SSTORE POP POP DUP4 DUP6 PUSH20 0xFFFFFFFFFFFFFFFFFFFFFFFFFFFFFFFFFFFFFFFF AND PUSH32 0xCBD44B327242A19152F06FD696FC88CA79D777E3DE08A110708838867427BD51 TIMESTAMP PUSH1 0x40 MLOAD PUSH2 0x741 SWAP2 SWAP1 PUSH2 0x192B JUMP JUMPDEST PUSH1 0x40 MLOAD DUP1 SWAP2 SUB SWAP1 LOG3 PUSH4 0x150B7A02 PUSH1 0xE0 SHL SWAP1 POP SWAP6 SWAP5 POP POP POP POP POP JUMP JUMPDEST PUSH1 0x3 SLOAD DUP2 JUMP JUMPDEST PUSH1 0x0 PUSH2 0x76F DUP5 DUP5 DUP5 PUSH2 0xF10 JUMP JUMPDEST SWAP1 POP SWAP4 SWAP3 POP POP POP JUMP JUMPDEST PUSH1 0x60 PUSH1 0x7 PUSH1 0x0 DUP4 PUSH20 0xFFFFFFFFFFFFFFFFFFFFFFFFFFFFFFFFFFFFFFFF AND PUSH20 0xFFFFFFFFFFFFFFFFFFFFFFFFFFFFFFFFFFFFFFFF AND DUP2 MSTORE PUSH1 0x20 ADD SWAP1 DUP2 MSTORE PUSH1 0x20 ADD PUSH1 0x0 KECCAK256 DUP1 SLOAD DUP1 PUSH1 0x20 MUL PUSH1 0x20 ADD PUSH1 0x40 MLOAD SWAP1 DUP2 ADD PUSH1 0x40 MSTORE DUP1 SWAP3 SWAP2 SWAP1 DUP2 DUP2 MSTORE PUSH1 0x20 ADD PUSH1 0x0 SWAP1 JUMPDEST DUP3 DUP3 LT ISZERO PUSH2 0x829 JUMPI DUP4 DUP3 SWAP1 PUSH1 0x0 MSTORE PUSH1 0x20 PUSH1 0x0 KECCAK256 SWAP1 PUSH1 0x3 MUL ADD PUSH1 0x40 MLOAD DUP1 PUSH1 0x60 ADD PUSH1 0x40 MSTORE SWAP1 DUP2 PUSH1 0x0 DUP3 ADD SLOAD DUP2 MSTORE PUSH1 0x20 ADD PUSH1 0x1 DUP3 ADD SLOAD DUP2 MSTORE PUSH1 0x20 ADD PUSH1 0x2 DUP3 ADD SLOAD DUP2 MSTORE POP POP DUP2 MSTORE PUSH1 0x20 ADD SWAP1 PUSH1 0x1 ADD SWAP1 PUSH2 0x7D9 JUMP JUMPDEST POP POP POP POP SWAP1 POP SWAP2 SWAP1 POP JUMP JUMPDEST PUSH1 0x2 PUSH1 0x0 SWAP1 SLOAD SWAP1 PUSH2 0x100 EXP SWAP1 DIV PUSH1 0xFF AND DUP2 JUMP JUMPDEST PUSH1 0x6 PUSH1 0x0 SWAP1 SLOAD SWAP1 PUSH2 0x100 EXP SWAP1 DIV PUSH20 0xFFFFFFFFFFFFFFFFFFFFFFFFFFFFFFFFFFFFFFFF AND PUSH20 0xFFFFFFFFFFFFFFFFFFFFFFFFFFFFFFFFFFFFFFFF AND CALLER PUSH20 0xFFFFFFFFFFFFFFFFFFFFFFFFFFFFFFFFFFFFFFFF AND EQ PUSH2 0x8D7 JUMPI PUSH1 0x40 MLOAD PUSH32 0x8C379A000000000000000000000000000000000000000000000000000000000 DUP2 MSTORE PUSH1 0x4 ADD PUSH2 0x8CE SWAP1 PUSH2 0x18CB JUMP JUMPDEST PUSH1 0x40 MLOAD DUP1 SWAP2 SUB SWAP1 REVERT JUMPDEST PUSH1 0x0 JUMPDEST PUSH1 0x7 PUSH1 0x0 DUP5 PUSH20 0xFFFFFFFFFFFFFFFFFFFFFFFFFFFFFFFFFFFFFFFF AND PUSH20 0xFFFFFFFFFFFFFFFFFFFFFFFFFFFFFFFFFFFFFFFF AND DUP2 MSTORE PUSH1 0x20 ADD SWAP1 DUP2 MSTORE PUSH1 0x20 ADD PUSH1 0x0 KECCAK256 DUP1 SLOAD SWAP1 POP DUP2 LT ISZERO PUSH2 0xB44 JUMPI DUP2 PUSH1 0x7 PUSH1 0x0 DUP6 PUSH20 0xFFFFFFFFFFFFFFFFFFFFFFFFFFFFFFFFFFFFFFFF AND PUSH20 0xFFFFFFFFFFFFFFFFFFFFFFFFFFFFFFFFFFFFFFFF AND DUP2 MSTORE PUSH1 0x20 ADD SWAP1 DUP2 MSTORE PUSH1 0x20 ADD PUSH1 0x0 KECCAK256 DUP3 DUP2 SLOAD DUP2 LT PUSH2 0x976 JUMPI PUSH2 0x975 PUSH2 0x1C64 JUMP JUMPDEST JUMPDEST SWAP1 PUSH1 0x0 MSTORE PUSH1 0x20 PUSH1 0x0 KECCAK256 SWAP1 PUSH1 0x3 MUL ADD PUSH1 0x0 ADD SLOAD EQ ISZERO PUSH2 0xB33 JUMPI PUSH1 0x1 PUSH1 0x7 PUSH1 0x0 DUP6 PUSH20 0xFFFFFFFFFFFFFFFFFFFFFFFFFFFFFFFFFFFFFFFF AND PUSH20 0xFFFFFFFFFFFFFFFFFFFFFFFFFFFFFFFFFFFFFFFF AND DUP2 MSTORE PUSH1 0x20 ADD SWAP1 DUP2 MSTORE PUSH1 0x20 ADD PUSH1 0x0 KECCAK256 DUP3 DUP2 SLOAD DUP2 LT PUSH2 0x9E1 JUMPI PUSH2 0x9E0 PUSH2 0x1C64 JUMP JUMPDEST JUMPDEST SWAP1 PUSH1 0x0 MSTORE PUSH1 0x20 PUSH1 0x0 KECCAK256 SWAP1 PUSH1 0x3 MUL ADD PUSH1 0x2 ADD SLOAD EQ PUSH2 0xA33 JUMPI PUSH1 0x40 MLOAD PUSH32 0x8C379A000000000000000000000000000000000000000000000000000000000 DUP2 MSTORE PUSH1 0x4 ADD PUSH2 0xA2A SWAP1 PUSH2 0x190B JUMP JUMPDEST PUSH1 0x40 MLOAD DUP1 SWAP2 SUB SWAP1 REVERT JUMPDEST PUSH1 0x0 PUSH1 0x7 PUSH1 0x0 DUP6 PUSH20 0xFFFFFFFFFFFFFFFFFFFFFFFFFFFFFFFFFFFFFFFF AND PUSH20 0xFFFFFFFFFFFFFFFFFFFFFFFFFFFFFFFFFFFFFFFF AND DUP2 MSTORE PUSH1 0x20 ADD SWAP1 DUP2 MSTORE PUSH1 0x20 ADD PUSH1 0x0 KECCAK256 DUP3 DUP2 SLOAD DUP2 LT PUSH2 0xA86 JUMPI PUSH2 0xA85 PUSH2 0x1C64 JUMP JUMPDEST JUMPDEST SWAP1 PUSH1 0x0 MSTORE PUSH1 0x20 PUSH1 0x0 KECCAK256 SWAP1 PUSH1 0x3 MUL ADD SWAP1 POP PUSH1 0x0 DUP2 PUSH1 0x2 ADD DUP2 SWAP1 SSTORE POP PUSH1 0x8 PUSH1 0x0 SWAP1 SLOAD SWAP1 PUSH2 0x100 EXP SWAP1 DIV PUSH20 0xFFFFFFFFFFFFFFFFFFFFFFFFFFFFFFFFFFFFFFFF AND PUSH20 0xFFFFFFFFFFFFFFFFFFFFFFFFFFFFFFFFFFFFFFFF AND PUSH4 0x23B872DD ADDRESS DUP7 DUP7 PUSH1 0x40 MLOAD DUP5 PUSH4 0xFFFFFFFF AND PUSH1 0xE0 SHL DUP2 MSTORE PUSH1 0x4 ADD PUSH2 0xAFF SWAP4 SWAP3 SWAP2 SWAP1 PUSH2 0x17FF JUMP JUMPDEST PUSH1 0x0 PUSH1 0x40 MLOAD DUP1 DUP4 SUB DUP2 PUSH1 0x0 DUP8 DUP1 EXTCODESIZE ISZERO DUP1 ISZERO PUSH2 0xB19 JUMPI PUSH1 0x0 DUP1 REVERT JUMPDEST POP GAS CALL ISZERO DUP1 ISZERO PUSH2 0xB2D JUMPI RETURNDATASIZE PUSH1 0x0 DUP1 RETURNDATACOPY RETURNDATASIZE PUSH1 0x0 REVERT JUMPDEST POP POP POP POP POP JUMPDEST DUP1 PUSH2 0xB3D SWAP1 PUSH2 0x1BBD JUMP JUMPDEST SWAP1 POP PUSH2 0x8DA JUMP JUMPDEST POP POP POP JUMP JUMPDEST PUSH1 0x0 PUSH1 0x8 PUSH1 0x0 SWAP1 SLOAD SWAP1 PUSH2 0x100 EXP SWAP1 DIV PUSH20 0xFFFFFFFFFFFFFFFFFFFFFFFFFFFFFFFFFFFFFFFF AND PUSH20 0xFFFFFFFFFFFFFFFFFFFFFFFFFFFFFFFFFFFFFFFF AND PUSH4 0x6352211E DUP4 PUSH1 0x40 MLOAD DUP3 PUSH4 0xFFFFFFFF AND PUSH1 0xE0 SHL DUP2 MSTORE PUSH1 0x4 ADD PUSH2 0xBA6 SWAP2 SWAP1 PUSH2 0x192B JUMP JUMPDEST PUSH1 0x20 PUSH1 0x40 MLOAD DUP1 DUP4 SUB DUP2 DUP7 DUP1 EXTCODESIZE ISZERO DUP1 ISZERO PUSH2 0xBBE JUMPI PUSH1 0x0 DUP1 REVERT JUMPDEST POP GAS STATICCALL ISZERO DUP1 ISZERO PUSH2 0xBD2 JUMPI RETURNDATASIZE PUSH1 0x0 DUP1 RETURNDATACOPY RETURNDATASIZE PUSH1 0x0 REVERT JUMPDEST POP POP POP POP PUSH1 0x40 MLOAD RETURNDATASIZE PUSH1 0x1F NOT PUSH1 0x1F DUP3 ADD AND DUP3 ADD DUP1 PUSH1 0x40 MSTORE POP DUP2 ADD SWAP1 PUSH2 0xBF6 SWAP2 SWAP1 PUSH2 0x146C JUMP JUMPDEST SWAP1 POP SWAP2 SWAP1 POP JUMP JUMPDEST PUSH1 0x0 PUSH1 0x4 PUSH1 0x0 DUP4 PUSH20 0xFFFFFFFFFFFFFFFFFFFFFFFFFFFFFFFFFFFFFFFF AND PUSH20 0xFFFFFFFFFFFFFFFFFFFFFFFFFFFFFFFFFFFFFFFF AND DUP2 MSTORE PUSH1 0x20 ADD SWAP1 DUP2 MSTORE PUSH1 0x20 ADD PUSH1 0x0 KECCAK256 SLOAD SWAP1 POP SWAP2 SWAP1 POP JUMP JUMPDEST PUSH1 0x0 PUSH1 0x3 SLOAD SWAP1 POP SWAP1 JUMP JUMPDEST PUSH1 0x1 DUP1 SLOAD PUSH2 0xC5D SWAP1 PUSH2 0x1B8B JUMP JUMPDEST DUP1 PUSH1 0x1F ADD PUSH1 0x20 DUP1 SWAP2 DIV MUL PUSH1 0x20 ADD PUSH1 0x40 MLOAD SWAP1 DUP2 ADD PUSH1 0x40 MSTORE DUP1 SWAP3 SWAP2 SWAP1 DUP2 DUP2 MSTORE PUSH1 0x20 ADD DUP3 DUP1 SLOAD PUSH2 0xC89 SWAP1 PUSH2 0x1B8B JUMP JUMPDEST DUP1 ISZERO PUSH2 0xCD6 JUMPI DUP1 PUSH1 0x1F LT PUSH2 0xCAB JUMPI PUSH2 0x100 DUP1 DUP4 SLOAD DIV MUL DUP4 MSTORE SWAP2 PUSH1 0x20 ADD SWAP2 PUSH2 0xCD6 JUMP JUMPDEST DUP3 ADD SWAP2 SWAP1 PUSH1 0x0 MSTORE PUSH1 0x20 PUSH1 0x0 KECCAK256 SWAP1 JUMPDEST DUP2 SLOAD DUP2 MSTORE SWAP1 PUSH1 0x1 ADD SWAP1 PUSH1 0x20 ADD DUP1 DUP4 GT PUSH2 0xCB9 JUMPI DUP3 SWAP1 SUB PUSH1 0x1F AND DUP3 ADD SWAP2 JUMPDEST POP POP POP POP POP DUP2 JUMP JUMPDEST PUSH1 0x0 PUSH2 0xCEA DUP4 DUP4 PUSH2 0x11A1 JUMP JUMPDEST SWAP1 POP SWAP3 SWAP2 POP POP JUMP JUMPDEST PUSH1 0x8 PUSH1 0x0 SWAP1 SLOAD SWAP1 PUSH2 0x100 EXP SWAP1 DIV PUSH20 0xFFFFFFFFFFFFFFFFFFFFFFFFFFFFFFFFFFFFFFFF AND DUP2 JUMP JUMPDEST PUSH1 0x0 PUSH1 0x5 PUSH1 0x0 DUP5 PUSH20 0xFFFFFFFFFFFFFFFFFFFFFFFFFFFFFFFFFFFFFFFF AND PUSH20 0xFFFFFFFFFFFFFFFFFFFFFFFFFFFFFFFFFFFFFFFF AND DUP2 MSTORE PUSH1 0x20 ADD SWAP1 DUP2 MSTORE PUSH1 0x20 ADD PUSH1 0x0 KECCAK256 PUSH1 0x0 DUP4 PUSH20 0xFFFFFFFFFFFFFFFFFFFFFFFFFFFFFFFFFFFFFFFF AND PUSH20 0xFFFFFFFFFFFFFFFFFFFFFFFFFFFFFFFFFFFFFFFF AND DUP2 MSTORE PUSH1 0x20 ADD SWAP1 DUP2 MSTORE PUSH1 0x20 ADD PUSH1 0x0 KECCAK256 SLOAD SWAP1 POP SWAP3 SWAP2 POP POP JUMP JUMPDEST PUSH1 0x7 PUSH1 0x20 MSTORE DUP2 PUSH1 0x0 MSTORE PUSH1 0x40 PUSH1 0x0 KECCAK256 DUP2 DUP2 SLOAD DUP2 LT PUSH2 0xDBB JUMPI PUSH1 0x0 DUP1 REVERT JUMPDEST SWAP1 PUSH1 0x0 MSTORE PUSH1 0x20 PUSH1 0x0 KECCAK256 SWAP1 PUSH1 0x3 MUL ADD PUSH1 0x0 SWAP2 POP SWAP2 POP POP DUP1 PUSH1 0x0 ADD SLOAD SWAP1 DUP1 PUSH1 0x1 ADD SLOAD SWAP1 DUP1 PUSH1 0x2 ADD SLOAD SWAP1 POP DUP4 JUMP JUMPDEST PUSH1 0x0 DUP1 PUSH1 0x7 PUSH1 0x0 DUP5 PUSH20 0xFFFFFFFFFFFFFFFFFFFFFFFFFFFFFFFFFFFFFFFF AND PUSH20 0xFFFFFFFFFFFFFFFFFFFFFFFFFFFFFFFFFFFFFFFF AND DUP2 MSTORE PUSH1 0x20 ADD SWAP1 DUP2 MSTORE PUSH1 0x20 ADD PUSH1 0x0 KECCAK256 DUP1 SLOAD SWAP1 POP SWAP1 POP PUSH1 0x0 JUMPDEST PUSH1 0x7 PUSH1 0x0 DUP6 PUSH20 0xFFFFFFFFFFFFFFFFFFFFFFFFFFFFFFFFFFFFFFFF AND PUSH20 0xFFFFFFFFFFFFFFFFFFFFFFFFFFFFFFFFFFFFFFFF AND DUP2 MSTORE PUSH1 0x20 ADD SWAP1 DUP2 MSTORE PUSH1 0x20 ADD PUSH1 0x0 KECCAK256 DUP1 SLOAD SWAP1 POP DUP2 LT ISZERO PUSH2 0xF06 JUMPI PUSH1 0x0 PUSH1 0x7 PUSH1 0x0 DUP7 PUSH20 0xFFFFFFFFFFFFFFFFFFFFFFFFFFFFFFFFFFFFFFFF AND PUSH20 0xFFFFFFFFFFFFFFFFFFFFFFFFFFFFFFFFFFFFFFFF AND DUP2 MSTORE PUSH1 0x20 ADD SWAP1 DUP2 MSTORE PUSH1 0x20 ADD PUSH1 0x0 KECCAK256 DUP3 DUP2 SLOAD DUP2 LT PUSH2 0xECE JUMPI PUSH2 0xECD PUSH2 0x1C64 JUMP JUMPDEST JUMPDEST SWAP1 PUSH1 0x0 MSTORE PUSH1 0x20 PUSH1 0x0 KECCAK256 SWAP1 PUSH1 0x3 MUL ADD PUSH1 0x2 ADD SLOAD EQ ISZERO PUSH2 0xEF5 JUMPI DUP2 DUP1 PUSH2 0xEF1 SWAP1 PUSH2 0x1B61 JUMP JUMPDEST SWAP3 POP POP JUMPDEST DUP1 PUSH2 0xEFF SWAP1 PUSH2 0x1BBD JUMP JUMPDEST SWAP1 POP PUSH2 0xE31 JUMP JUMPDEST POP DUP1 SWAP2 POP POP SWAP2 SWAP1 POP JUMP JUMPDEST PUSH1 0x0 DUP2 PUSH1 0x4 PUSH1 0x0 DUP7 PUSH20 0xFFFFFFFFFFFFFFFFFFFFFFFFFFFFFFFFFFFFFFFF AND PUSH20 0xFFFFFFFFFFFFFFFFFFFFFFFFFFFFFFFFFFFFFFFF AND DUP2 MSTORE PUSH1 0x20 ADD SWAP1 DUP2 MSTORE PUSH1 0x20 ADD PUSH1 0x0 KECCAK256 SLOAD LT ISZERO DUP1 ISZERO PUSH2 0xFDD JUMPI POP DUP2 PUSH1 0x5 PUSH1 0x0 DUP7 PUSH20 0xFFFFFFFFFFFFFFFFFFFFFFFFFFFFFFFFFFFFFFFF AND PUSH20 0xFFFFFFFFFFFFFFFFFFFFFFFFFFFFFFFFFFFFFFFF AND DUP2 MSTORE PUSH1 0x20 ADD SWAP1 DUP2 MSTORE PUSH1 0x20 ADD PUSH1 0x0 KECCAK256 PUSH1 0x0 CALLER PUSH20 0xFFFFFFFFFFFFFFFFFFFFFFFFFFFFFFFFFFFFFFFF AND PUSH20 0xFFFFFFFFFFFFFFFFFFFFFFFFFFFFFFFFFFFFFFFF AND DUP2 MSTORE PUSH1 0x20 ADD SWAP1 DUP2 MSTORE PUSH1 0x20 ADD PUSH1 0x0 KECCAK256 SLOAD LT ISZERO JUMPDEST PUSH2 0x101C JUMPI PUSH1 0x40 MLOAD PUSH32 0x8C379A000000000000000000000000000000000000000000000000000000000 DUP2 MSTORE PUSH1 0x4 ADD PUSH2 0x1013 SWAP1 PUSH2 0x18EB JUMP JUMPDEST PUSH1 0x40 MLOAD DUP1 SWAP2 SUB SWAP1 REVERT JUMPDEST DUP2 PUSH1 0x4 PUSH1 0x0 DUP7 PUSH20 0xFFFFFFFFFFFFFFFFFFFFFFFFFFFFFFFFFFFFFFFF AND PUSH20 0xFFFFFFFFFFFFFFFFFFFFFFFFFFFFFFFFFFFFFFFF AND DUP2 MSTORE PUSH1 0x20 ADD SWAP1 DUP2 MSTORE PUSH1 0x20 ADD PUSH1 0x0 KECCAK256 PUSH1 0x0 DUP3 DUP3 SLOAD PUSH2 0x106B SWAP2 SWAP1 PUSH2 0x1A43 JUMP JUMPDEST SWAP3 POP POP DUP2 SWAP1 SSTORE POP DUP2 PUSH1 0x4 PUSH1 0x0 DUP6 PUSH20 0xFFFFFFFFFFFFFFFFFFFFFFFFFFFFFFFFFFFFFFFF AND PUSH20 0xFFFFFFFFFFFFFFFFFFFFFFFFFFFFFFFFFFFFFFFF AND DUP2 MSTORE PUSH1 0x20 ADD SWAP1 DUP2 MSTORE PUSH1 0x20 ADD PUSH1 0x0 KECCAK256 PUSH1 0x0 DUP3 DUP3 SLOAD PUSH2 0x10C1 SWAP2 SWAP1 PUSH2 0x19ED JUMP JUMPDEST SWAP3 POP POP DUP2 SWAP1 SSTORE POP DUP2 PUSH1 0x5 PUSH1 0x0 DUP7 PUSH20 0xFFFFFFFFFFFFFFFFFFFFFFFFFFFFFFFFFFFFFFFF AND PUSH20 0xFFFFFFFFFFFFFFFFFFFFFFFFFFFFFFFFFFFFFFFF AND DUP2 MSTORE PUSH1 0x20 ADD SWAP1 DUP2 MSTORE PUSH1 0x20 ADD PUSH1 0x0 KECCAK256 PUSH1 0x0 CALLER PUSH20 0xFFFFFFFFFFFFFFFFFFFFFFFFFFFFFFFFFFFFFFFF AND PUSH20 0xFFFFFFFFFFFFFFFFFFFFFFFFFFFFFFFFFFFFFFFF AND DUP2 MSTORE PUSH1 0x20 ADD SWAP1 DUP2 MSTORE PUSH1 0x20 ADD PUSH1 0x0 KECCAK256 PUSH1 0x0 DUP3 DUP3 SLOAD PUSH2 0x1154 SWAP2 SWAP1 PUSH2 0x1A43 JUMP JUMPDEST SWAP3 POP POP DUP2 SWAP1 SSTORE POP PUSH32 0xDDF252AD1BE2C89B69C2B068FC378DAA952BA7F163C4A11628F55A4DF523B3EF DUP5 DUP5 DUP5 PUSH1 0x40 MLOAD PUSH2 0x118E SWAP4 SWAP3 SWAP2 SWAP1 PUSH2 0x17FF JUMP JUMPDEST PUSH1 0x40 MLOAD DUP1 SWAP2 SUB SWAP1 LOG1 PUSH1 0x1 SWAP1 POP SWAP4 SWAP3 POP POP POP JUMP JUMPDEST PUSH1 0x0 DUP2 PUSH1 0x4 PUSH1 0x0 CALLER PUSH20 0xFFFFFFFFFFFFFFFFFFFFFFFFFFFFFFFFFFFFFFFF AND PUSH20 0xFFFFFFFFFFFFFFFFFFFFFFFFFFFFFFFFFFFFFFFF AND DUP2 MSTORE PUSH1 0x20 ADD SWAP1 DUP2 MSTORE PUSH1 0x20 ADD PUSH1 0x0 KECCAK256 SLOAD LT ISZERO DUP1 ISZERO PUSH2 0x127A JUMPI POP PUSH1 0x4 PUSH1 0x0 DUP5 PUSH20 0xFFFFFFFFFFFFFFFFFFFFFFFFFFFFFFFFFFFFFFFF AND PUSH20 0xFFFFFFFFFFFFFFFFFFFFFFFFFFFFFFFFFFFFFFFF AND DUP2 MSTORE PUSH1 0x20 ADD SWAP1 DUP2 MSTORE PUSH1 0x20 ADD PUSH1 0x0 KECCAK256 SLOAD DUP3 PUSH1 0x4 PUSH1 0x0 DUP7 PUSH20 0xFFFFFFFFFFFFFFFFFFFFFFFFFFFFFFFFFFFFFFFF AND PUSH20 0xFFFFFFFFFFFFFFFFFFFFFFFFFFFFFFFFFFFFFFFF AND DUP2 MSTORE PUSH1 0x20 ADD SWAP1 DUP2 MSTORE PUSH1 0x20 ADD PUSH1 0x0 KECCAK256 SLOAD PUSH2 0x1278 SWAP2 SWAP1 PUSH2 0x19ED JUMP JUMPDEST GT JUMPDEST PUSH2 0x12B9 JUMPI PUSH1 0x40 MLOAD PUSH32 0x8C379A000000000000000000000000000000000000000000000000000000000 DUP2 MSTORE PUSH1 0x4 ADD PUSH2 0x12B0 SWAP1 PUSH2 0x18EB JUMP JUMPDEST PUSH1 0x40 MLOAD DUP1 SWAP2 SUB SWAP1 REVERT JUMPDEST DUP2 PUSH1 0x4 PUSH1 0x0 CALLER PUSH20 0xFFFFFFFFFFFFFFFFFFFFFFFFFFFFFFFFFFFFFFFF AND PUSH20 0xFFFFFFFFFFFFFFFFFFFFFFFFFFFFFFFFFFFFFFFF AND DUP2 MSTORE PUSH1 0x20 ADD SWAP1 DUP2 MSTORE PUSH1 0x20 ADD PUSH1 0x0 KECCAK256 PUSH1 0x0 DUP3 DUP3 SLOAD PUSH2 0x1308 SWAP2 SWAP1 PUSH2 0x1A43 JUMP JUMPDEST SWAP3 POP POP DUP2 SWAP1 SSTORE POP DUP2 PUSH1 0x4 PUSH1 0x0 DUP6 PUSH20 0xFFFFFFFFFFFFFFFFFFFFFFFFFFFFFFFFFFFFFFFF AND PUSH20 0xFFFFFFFFFFFFFFFFFFFFFFFFFFFFFFFFFFFFFFFF AND DUP2 MSTORE PUSH1 0x20 ADD SWAP1 DUP2 MSTORE PUSH1 0x20 ADD PUSH1 0x0 KECCAK256 PUSH1 0x0 DUP3 DUP3 SLOAD PUSH2 0x135E SWAP2 SWAP1 PUSH2 0x19ED JUMP JUMPDEST SWAP3 POP POP DUP2 SWAP1 SSTORE POP PUSH32 0xDDF252AD1BE2C89B69C2B068FC378DAA952BA7F163C4A11628F55A4DF523B3EF CALLER DUP5 DUP5 PUSH1 0x40 MLOAD PUSH2 0x1398 SWAP4 SWAP3 SWAP2 SWAP1 PUSH2 0x17FF JUMP JUMPDEST PUSH1 0x40 MLOAD DUP1 SWAP2 SUB SWAP1 LOG1 PUSH1 0x1 SWAP1 POP SWAP3 SWAP2 POP POP JUMP JUMPDEST PUSH1 0x0 DUP2 CALLDATALOAD SWAP1 POP PUSH2 0x13B9 DUP2 PUSH2 0x1D38 JUMP JUMPDEST SWAP3 SWAP2 POP POP JUMP JUMPDEST PUSH1 0x0 DUP2 MLOAD SWAP1 POP PUSH2 0x13CE DUP2 PUSH2 0x1D38 JUMP JUMPDEST SWAP3 SWAP2 POP POP JUMP JUMPDEST PUSH1 0x0 DUP1 DUP4 PUSH1 0x1F DUP5 ADD SLT PUSH2 0x13EA JUMPI PUSH2 0x13E9 PUSH2 0x1C98 JUMP JUMPDEST JUMPDEST DUP3 CALLDATALOAD SWAP1 POP PUSH8 0xFFFFFFFFFFFFFFFF DUP2 GT ISZERO PUSH2 0x1407 JUMPI PUSH2 0x1406 PUSH2 0x1C93 JUMP JUMPDEST JUMPDEST PUSH1 0x20 DUP4 ADD SWAP2 POP DUP4 PUSH1 0x1 DUP3 MUL DUP4 ADD GT ISZERO PUSH2 0x1423 JUMPI PUSH2 0x1422 PUSH2 0x1C9D JUMP JUMPDEST JUMPDEST SWAP3 POP SWAP3 SWAP1 POP JUMP JUMPDEST PUSH1 0x0 DUP2 CALLDATALOAD SWAP1 POP PUSH2 0x1439 DUP2 PUSH2 0x1D4F JUMP JUMPDEST SWAP3 SWAP2 POP POP JUMP JUMPDEST PUSH1 0x0 PUSH1 0x20 DUP3 DUP5 SUB SLT ISZERO PUSH2 0x1455 JUMPI PUSH2 0x1454 PUSH2 0x1CA7 JUMP JUMPDEST JUMPDEST PUSH1 0x0 PUSH2 0x1463 DUP5 DUP3 DUP6 ADD PUSH2 0x13AA JUMP JUMPDEST SWAP2 POP POP SWAP3 SWAP2 POP POP JUMP JUMPDEST PUSH1 0x0 PUSH1 0x20 DUP3 DUP5 SUB SLT ISZERO PUSH2 0x1482 JUMPI PUSH2 0x1481 PUSH2 0x1CA7 JUMP JUMPDEST JUMPDEST PUSH1 0x0 PUSH2 0x1490 DUP5 DUP3 DUP6 ADD PUSH2 0x13BF JUMP JUMPDEST SWAP2 POP POP SWAP3 SWAP2 POP POP JUMP JUMPDEST PUSH1 0x0 DUP1 PUSH1 0x40 DUP4 DUP6 SUB SLT ISZERO PUSH2 0x14B0 JUMPI PUSH2 0x14AF PUSH2 0x1CA7 JUMP JUMPDEST JUMPDEST PUSH1 0x0 PUSH2 0x14BE DUP6 DUP3 DUP7 ADD PUSH2 0x13AA JUMP JUMPDEST SWAP3 POP POP PUSH1 0x20 PUSH2 0x14CF DUP6 DUP3 DUP7 ADD PUSH2 0x13AA JUMP JUMPDEST SWAP2 POP POP SWAP3 POP SWAP3 SWAP1 POP JUMP JUMPDEST PUSH1 0x0 DUP1 PUSH1 0x0 PUSH1 0x60 DUP5 DUP7 SUB SLT ISZERO PUSH2 0x14F2 JUMPI PUSH2 0x14F1 PUSH2 0x1CA7 JUMP JUMPDEST JUMPDEST PUSH1 0x0 PUSH2 0x1500 DUP7 DUP3 DUP8 ADD PUSH2 0x13AA JUMP JUMPDEST SWAP4 POP POP PUSH1 0x20 PUSH2 0x1511 DUP7 DUP3 DUP8 ADD PUSH2 0x13AA JUMP JUMPDEST SWAP3 POP POP PUSH1 0x40 PUSH2 0x1522 DUP7 DUP3 DUP8 ADD PUSH2 0x142A JUMP JUMPDEST SWAP2 POP POP SWAP3 POP SWAP3 POP SWAP3 JUMP JUMPDEST PUSH1 0x0 DUP1 PUSH1 0x0 DUP1 PUSH1 0x0 PUSH1 0x80 DUP7 DUP9 SUB SLT ISZERO PUSH2 0x1548 JUMPI PUSH2 0x1547 PUSH2 0x1CA7 JUMP JUMPDEST JUMPDEST PUSH1 0x0 PUSH2 0x1556 DUP9 DUP3 DUP10 ADD PUSH2 0x13AA JUMP JUMPDEST SWAP6 POP POP PUSH1 0x20 PUSH2 0x1567 DUP9 DUP3 DUP10 ADD PUSH2 0x13AA JUMP JUMPDEST SWAP5 POP POP PUSH1 0x40 PUSH2 0x1578 DUP9 DUP3 DUP10 ADD PUSH2 0x142A JUMP JUMPDEST SWAP4 POP POP PUSH1 0x60 DUP7 ADD CALLDATALOAD PUSH8 0xFFFFFFFFFFFFFFFF DUP2 GT ISZERO PUSH2 0x1599 JUMPI PUSH2 0x1598 PUSH2 0x1CA2 JUMP JUMPDEST JUMPDEST PUSH2 0x15A5 DUP9 DUP3 DUP10 ADD PUSH2 0x13D4 JUMP JUMPDEST SWAP3 POP SWAP3 POP POP SWAP3 SWAP6 POP SWAP3 SWAP6 SWAP1 SWAP4 POP JUMP JUMPDEST PUSH1 0x0 DUP1 PUSH1 0x40 DUP4 DUP6 SUB SLT ISZERO PUSH2 0x15CB JUMPI PUSH2 0x15CA PUSH2 0x1CA7 JUMP JUMPDEST JUMPDEST PUSH1 0x0 PUSH2 0x15D9 DUP6 DUP3 DUP7 ADD PUSH2 0x13AA JUMP JUMPDEST SWAP3 POP POP PUSH1 0x20 PUSH2 0x15EA DUP6 DUP3 DUP7 ADD PUSH2 0x142A JUMP JUMPDEST SWAP2 POP POP SWAP3 POP SWAP3 SWAP1 POP JUMP JUMPDEST PUSH1 0x0 PUSH1 0x20 DUP3 DUP5 SUB SLT ISZERO PUSH2 0x160A JUMPI PUSH2 0x1609 PUSH2 0x1CA7 JUMP JUMPDEST JUMPDEST PUSH1 0x0 PUSH2 0x1618 DUP5 DUP3 DUP6 ADD PUSH2 0x142A JUMP JUMPDEST SWAP2 POP POP SWAP3 SWAP2 POP POP JUMP JUMPDEST PUSH1 0x0 PUSH2 0x162D DUP4 DUP4 PUSH2 0x1775 JUMP JUMPDEST PUSH1 0x60 DUP4 ADD SWAP1 POP SWAP3 SWAP2 POP POP JUMP JUMPDEST PUSH2 0x1642 DUP2 PUSH2 0x1A77 JUMP JUMPDEST DUP3 MSTORE POP POP JUMP JUMPDEST PUSH1 0x0 PUSH2 0x1653 DUP3 PUSH2 0x19A8 JUMP JUMPDEST PUSH2 0x165D DUP2 DUP6 PUSH2 0x19CB JUMP JUMPDEST SWAP4 POP PUSH2 0x1668 DUP4 PUSH2 0x1998 JUMP JUMPDEST DUP1 PUSH1 0x0 JUMPDEST DUP4 DUP2 LT ISZERO PUSH2 0x1699 JUMPI DUP2 MLOAD PUSH2 0x1680 DUP9 DUP3 PUSH2 0x1621 JUMP JUMPDEST SWAP8 POP PUSH2 0x168B DUP4 PUSH2 0x19BE JUMP JUMPDEST SWAP3 POP POP PUSH1 0x1 DUP2 ADD SWAP1 POP PUSH2 0x166C JUMP JUMPDEST POP DUP6 SWAP4 POP POP POP POP SWAP3 SWAP2 POP POP JUMP JUMPDEST PUSH2 0x16AF DUP2 PUSH2 0x1A89 JUMP JUMPDEST DUP3 MSTORE POP POP JUMP JUMPDEST PUSH2 0x16BE DUP2 PUSH2 0x1A95 JUMP JUMPDEST DUP3 MSTORE POP POP JUMP JUMPDEST PUSH2 0x16CD DUP2 PUSH2 0x1AF8 JUMP JUMPDEST DUP3 MSTORE POP POP JUMP JUMPDEST PUSH1 0x0 PUSH2 0x16DE DUP3 PUSH2 0x19B3 JUMP JUMPDEST PUSH2 0x16E8 DUP2 DUP6 PUSH2 0x19DC JUMP JUMPDEST SWAP4 POP PUSH2 0x16F8 DUP2 DUP6 PUSH1 0x20 DUP7 ADD PUSH2 0x1B2E JUMP JUMPDEST PUSH2 0x1701 DUP2 PUSH2 0x1CAC JUMP JUMPDEST DUP5 ADD SWAP2 POP POP SWAP3 SWAP2 POP POP JUMP JUMPDEST PUSH1 0x0 PUSH2 0x1719 PUSH1 0x19 DUP4 PUSH2 0x19DC JUMP JUMPDEST SWAP2 POP PUSH2 0x1724 DUP3 PUSH2 0x1CBD JUMP JUMPDEST PUSH1 0x20 DUP3 ADD SWAP1 POP SWAP2 SWAP1 POP JUMP JUMPDEST PUSH1 0x0 PUSH2 0x173C PUSH1 0x12 DUP4 PUSH2 0x19DC JUMP JUMPDEST SWAP2 POP PUSH2 0x1747 DUP3 PUSH2 0x1CE6 JUMP JUMPDEST PUSH1 0x20 DUP3 ADD SWAP1 POP SWAP2 SWAP1 POP JUMP JUMPDEST PUSH1 0x0 PUSH2 0x175F PUSH1 0x19 DUP4 PUSH2 0x19DC JUMP JUMPDEST SWAP2 POP PUSH2 0x176A DUP3 PUSH2 0x1D0F JUMP JUMPDEST PUSH1 0x20 DUP3 ADD SWAP1 POP SWAP2 SWAP1 POP JUMP JUMPDEST PUSH1 0x60 DUP3 ADD PUSH1 0x0 DUP3 ADD MLOAD PUSH2 0x178B PUSH1 0x0 DUP6 ADD DUP3 PUSH2 0x17B7 JUMP JUMPDEST POP PUSH1 0x20 DUP3 ADD MLOAD PUSH2 0x179E PUSH1 0x20 DUP6 ADD DUP3 PUSH2 0x17B7 JUMP JUMPDEST POP PUSH1 0x40 DUP3 ADD MLOAD PUSH2 0x17B1 PUSH1 0x40 DUP6 ADD DUP3 PUSH2 0x17B7 JUMP JUMPDEST POP POP POP POP JUMP JUMPDEST PUSH2 0x17C0 DUP2 PUSH2 0x1AE1 JUMP JUMPDEST DUP3 MSTORE POP POP JUMP JUMPDEST PUSH2 0x17CF DUP2 PUSH2 0x1AE1 JUMP JUMPDEST DUP3 MSTORE POP POP JUMP JUMPDEST PUSH2 0x17DE DUP2 PUSH2 0x1AEB JUMP JUMPDEST DUP3 MSTORE POP POP JUMP JUMPDEST PUSH1 0x0 PUSH1 0x20 DUP3 ADD SWAP1 POP PUSH2 0x17F9 PUSH1 0x0 DUP4 ADD DUP5 PUSH2 0x1639 JUMP JUMPDEST SWAP3 SWAP2 POP POP JUMP JUMPDEST PUSH1 0x0 PUSH1 0x60 DUP3 ADD SWAP1 POP PUSH2 0x1814 PUSH1 0x0 DUP4 ADD DUP7 PUSH2 0x1639 JUMP JUMPDEST PUSH2 0x1821 PUSH1 0x20 DUP4 ADD DUP6 PUSH2 0x1639 JUMP JUMPDEST PUSH2 0x182E PUSH1 0x40 DUP4 ADD DUP5 PUSH2 0x17C6 JUMP JUMPDEST SWAP5 SWAP4 POP POP POP POP JUMP JUMPDEST PUSH1 0x0 PUSH1 0x20 DUP3 ADD SWAP1 POP DUP2 DUP2 SUB PUSH1 0x0 DUP4 ADD MSTORE PUSH2 0x1850 DUP2 DUP5 PUSH2 0x1648 JUMP JUMPDEST SWAP1 POP SWAP3 SWAP2 POP POP JUMP JUMPDEST PUSH1 0x0 PUSH1 0x20 DUP3 ADD SWAP1 POP PUSH2 0x186D PUSH1 0x0 DUP4 ADD DUP5 PUSH2 0x16A6 JUMP JUMPDEST SWAP3 SWAP2 POP POP JUMP JUMPDEST PUSH1 0x0 PUSH1 0x20 DUP3 ADD SWAP1 POP PUSH2 0x1888 PUSH1 0x0 DUP4 ADD DUP5 PUSH2 0x16B5 JUMP JUMPDEST SWAP3 SWAP2 POP POP JUMP JUMPDEST PUSH1 0x0 PUSH1 0x20 DUP3 ADD SWAP1 POP PUSH2 0x18A3 PUSH1 0x0 DUP4 ADD DUP5 PUSH2 0x16C4 JUMP JUMPDEST SWAP3 SWAP2 POP POP JUMP JUMPDEST PUSH1 0x0 PUSH1 0x20 DUP3 ADD SWAP1 POP DUP2 DUP2 SUB PUSH1 0x0 DUP4 ADD MSTORE PUSH2 0x18C3 DUP2 DUP5 PUSH2 0x16D3 JUMP JUMPDEST SWAP1 POP SWAP3 SWAP2 POP POP JUMP JUMPDEST PUSH1 0x0 PUSH1 0x20 DUP3 ADD SWAP1 POP DUP2 DUP2 SUB PUSH1 0x0 DUP4 ADD MSTORE PUSH2 0x18E4 DUP2 PUSH2 0x170C JUMP JUMPDEST SWAP1 POP SWAP2 SWAP1 POP JUMP JUMPDEST PUSH1 0x0 PUSH1 0x20 DUP3 ADD SWAP1 POP DUP2 DUP2 SUB PUSH1 0x0 DUP4 ADD MSTORE PUSH2 0x1904 DUP2 PUSH2 0x172F JUMP JUMPDEST SWAP1 POP SWAP2 SWAP1 POP JUMP JUMPDEST PUSH1 0x0 PUSH1 0x20 DUP3 ADD SWAP1 POP DUP2 DUP2 SUB PUSH1 0x0 DUP4 ADD MSTORE PUSH2 0x1924 DUP2 PUSH2 0x1752 JUMP JUMPDEST SWAP1 POP SWAP2 SWAP1 POP JUMP JUMPDEST PUSH1 0x0 PUSH1 0x20 DUP3 ADD SWAP1 POP PUSH2 0x1940 PUSH1 0x0 DUP4 ADD DUP5 PUSH2 0x17C6 JUMP JUMPDEST SWAP3 SWAP2 POP POP JUMP JUMPDEST PUSH1 0x0 PUSH1 0x60 DUP3 ADD SWAP1 POP PUSH2 0x195B PUSH1 0x0 DUP4 ADD DUP7 PUSH2 0x17C6 JUMP JUMPDEST PUSH2 0x1968 PUSH1 0x20 DUP4 ADD DUP6 PUSH2 0x17C6 JUMP JUMPDEST PUSH2 0x1975 PUSH1 0x40 DUP4 ADD DUP5 PUSH2 0x17C6 JUMP JUMPDEST SWAP5 SWAP4 POP POP POP POP JUMP JUMPDEST PUSH1 0x0 PUSH1 0x20 DUP3 ADD SWAP1 POP PUSH2 0x1992 PUSH1 0x0 DUP4 ADD DUP5 PUSH2 0x17D5 JUMP JUMPDEST SWAP3 SWAP2 POP POP JUMP JUMPDEST PUSH1 0x0 DUP2 SWAP1 POP PUSH1 0x20 DUP3 ADD SWAP1 POP SWAP2 SWAP1 POP JUMP JUMPDEST PUSH1 0x0 DUP2 MLOAD SWAP1 POP SWAP2 SWAP1 POP JUMP JUMPDEST PUSH1 0x0 DUP2 MLOAD SWAP1 POP SWAP2 SWAP1 POP JUMP JUMPDEST PUSH1 0x0 PUSH1 0x20 DUP3 ADD SWAP1 POP SWAP2 SWAP1 POP JUMP JUMPDEST PUSH1 0x0 DUP3 DUP3 MSTORE PUSH1 0x20 DUP3 ADD SWAP1 POP SWAP3 SWAP2 POP POP JUMP JUMPDEST PUSH1 0x0 DUP3 DUP3 MSTORE PUSH1 0x20 DUP3 ADD SWAP1 POP SWAP3 SWAP2 POP POP JUMP JUMPDEST PUSH1 0x0 PUSH2 0x19F8 DUP3 PUSH2 0x1AE1 JUMP JUMPDEST SWAP2 POP PUSH2 0x1A03 DUP4 PUSH2 0x1AE1 JUMP JUMPDEST SWAP3 POP DUP3 PUSH32 0xFFFFFFFFFFFFFFFFFFFFFFFFFFFFFFFFFFFFFFFFFFFFFFFFFFFFFFFFFFFFFFFF SUB DUP3 GT ISZERO PUSH2 0x1A38 JUMPI PUSH2 0x1A37 PUSH2 0x1C06 JUMP JUMPDEST JUMPDEST DUP3 DUP3 ADD SWAP1 POP SWAP3 SWAP2 POP POP JUMP JUMPDEST PUSH1 0x0 PUSH2 0x1A4E DUP3 PUSH2 0x1AE1 JUMP JUMPDEST SWAP2 POP PUSH2 0x1A59 DUP4 PUSH2 0x1AE1 JUMP JUMPDEST SWAP3 POP DUP3 DUP3 LT ISZERO PUSH2 0x1A6C JUMPI PUSH2 0x1A6B PUSH2 0x1C06 JUMP JUMPDEST JUMPDEST DUP3 DUP3 SUB SWAP1 POP SWAP3 SWAP2 POP POP JUMP JUMPDEST PUSH1 0x0 PUSH2 0x1A82 DUP3 PUSH2 0x1AC1 JUMP JUMPDEST SWAP1 POP SWAP2 SWAP1 POP JUMP JUMPDEST PUSH1 0x0 DUP2 ISZERO ISZERO SWAP1 POP SWAP2 SWAP1 POP JUMP JUMPDEST PUSH1 0x0 PUSH32 0xFFFFFFFF00000000000000000000000000000000000000000000000000000000 DUP3 AND SWAP1 POP SWAP2 SWAP1 POP JUMP JUMPDEST PUSH1 0x0 PUSH20 0xFFFFFFFFFFFFFFFFFFFFFFFFFFFFFFFFFFFFFFFF DUP3 AND SWAP1 POP SWAP2 SWAP1 POP JUMP JUMPDEST PUSH1 0x0 DUP2 SWAP1 POP SWAP2 SWAP1 POP JUMP JUMPDEST PUSH1 0x0 PUSH1 0xFF DUP3 AND SWAP1 POP SWAP2 SWAP1 POP JUMP JUMPDEST PUSH1 0x0 PUSH2 0x1B03 DUP3 PUSH2 0x1B0A JUMP JUMPDEST SWAP1 POP SWAP2 SWAP1 POP JUMP JUMPDEST PUSH1 0x0 PUSH2 0x1B15 DUP3 PUSH2 0x1B1C JUMP JUMPDEST SWAP1 POP SWAP2 SWAP1 POP JUMP JUMPDEST PUSH1 0x0 PUSH2 0x1B27 DUP3 PUSH2 0x1AC1 JUMP JUMPDEST SWAP1 POP SWAP2 SWAP1 POP JUMP JUMPDEST PUSH1 0x0 JUMPDEST DUP4 DUP2 LT ISZERO PUSH2 0x1B4C JUMPI DUP1 DUP3 ADD MLOAD DUP2 DUP5 ADD MSTORE PUSH1 0x20 DUP2 ADD SWAP1 POP PUSH2 0x1B31 JUMP JUMPDEST DUP4 DUP2 GT ISZERO PUSH2 0x1B5B JUMPI PUSH1 0x0 DUP5 DUP5 ADD MSTORE JUMPDEST POP POP POP POP JUMP JUMPDEST PUSH1 0x0 PUSH2 0x1B6C DUP3 PUSH2 0x1AE1 JUMP JUMPDEST SWAP2 POP PUSH1 0x0 DUP3 EQ ISZERO PUSH2 0x1B80 JUMPI PUSH2 0x1B7F PUSH2 0x1C06 JUMP JUMPDEST JUMPDEST PUSH1 0x1 DUP3 SUB SWAP1 POP SWAP2 SWAP1 POP JUMP JUMPDEST PUSH1 0x0 PUSH1 0x2 DUP3 DIV SWAP1 POP PUSH1 0x1 DUP3 AND DUP1 PUSH2 0x1BA3 JUMPI PUSH1 0x7F DUP3 AND SWAP2 POP JUMPDEST PUSH1 0x20 DUP3 LT DUP2 EQ ISZERO PUSH2 0x1BB7 JUMPI PUSH2 0x1BB6 PUSH2 0x1C35 JUMP JUMPDEST JUMPDEST POP SWAP2 SWAP1 POP JUMP JUMPDEST PUSH1 0x0 PUSH2 0x1BC8 DUP3 PUSH2 0x1AE1 JUMP JUMPDEST SWAP2 POP PUSH32 0xFFFFFFFFFFFFFFFFFFFFFFFFFFFFFFFFFFFFFFFFFFFFFFFFFFFFFFFFFFFFFFFF DUP3 EQ ISZERO PUSH2 0x1BFB JUMPI PUSH2 0x1BFA PUSH2 0x1C06 JUMP JUMPDEST JUMPDEST PUSH1 0x1 DUP3 ADD SWAP1 POP SWAP2 SWAP1 POP JUMP JUMPDEST PUSH32 0x4E487B7100000000000000000000000000000000000000000000000000000000 PUSH1 0x0 MSTORE PUSH1 0x11 PUSH1 0x4 MSTORE PUSH1 0x24 PUSH1 0x0 REVERT JUMPDEST PUSH32 0x4E487B7100000000000000000000000000000000000000000000000000000000 PUSH1 0x0 MSTORE PUSH1 0x22 PUSH1 0x4 MSTORE PUSH1 0x24 PUSH1 0x0 REVERT JUMPDEST PUSH32 0x4E487B7100000000000000000000000000000000000000000000000000000000 PUSH1 0x0 MSTORE PUSH1 0x32 PUSH1 0x4 MSTORE PUSH1 0x24 PUSH1 0x0 REVERT JUMPDEST PUSH1 0x0 DUP1 REVERT JUMPDEST PUSH1 0x0 DUP1 REVERT JUMPDEST PUSH1 0x0 DUP1 REVERT JUMPDEST PUSH1 0x0 DUP1 REVERT JUMPDEST PUSH1 0x0 DUP1 REVERT JUMPDEST PUSH1 0x0 PUSH1 0x1F NOT PUSH1 0x1F DUP4 ADD AND SWAP1 POP SWAP2 SWAP1 POP JUMP JUMPDEST PUSH32 0x4F6E6C79206F776E65722063616E2063616C6C20746869732E00000000000000 PUSH1 0x0 DUP3 ADD MSTORE POP JUMP JUMPDEST PUSH32 0x496E73756666696369656E742066756E64730000000000000000000000000000 PUSH1 0x0 DUP3 ADD MSTORE POP JUMP JUMPDEST PUSH32 0x596F7520616C7265616479206861766520776974686472617700000000000000 PUSH1 0x0 DUP3 ADD MSTORE POP JUMP JUMPDEST PUSH2 0x1D41 DUP2 PUSH2 0x1A77 JUMP JUMPDEST DUP2 EQ PUSH2 0x1D4C JUMPI PUSH1 0x0 DUP1 REVERT JUMPDEST POP JUMP JUMPDEST PUSH2 0x1D58 DUP2 PUSH2 0x1AE1 JUMP JUMPDEST DUP2 EQ PUSH2 0x1D63 JUMPI PUSH1 0x0 DUP1 REVERT JUMPDEST POP JUMP INVALID LOG2 PUSH5 0x6970667358 0x22 SLT KECCAK256 RETURNDATASIZE BLOCKHASH 0xD1 DUP14 0xD8 DIV 0xAF 0xAE COINBASE 0xAD PUSH5 0xE22DB8B8AD 0xFB 0x49 CALL 0xE3 0xAC LOG3 KECCAK256 MSTORE8 DUP8 KECCAK256 0xC7 0xFB 0xB8 MSTORE 0xCF EXP PUSH5 0x736F6C6343 STOP ADDMOD SMOD STOP CALLER "
				},
				"gasEstimates": {
					"creation": {
						"codeDepositCost": "1516000",
						"executionCost": "infinite",
						"totalCost": "infinite"
					},
					"external": {
						"allowance(address,address)": "infinite",
						"approve(address,uint256)": "infinite",
						"balanceOf(address)": "2886",
						"decimals()": "2538",
						"loansCount(address)": "infinite",
						"loansList(address)": "infinite",
						"name()": "infinite",
						"nftContract()": "2644",
						"onERC721Received(address,address,uint256,bytes)": "infinite",
						"ownerOf(uint256)": "infinite",
						"receivedTokens(address,uint256)": "infinite",
						"symbol()": "infinite",
						"totalSupply()": "2519",
						"transfer(address,uint256)": "infinite",
						"transferFrom(address,address,uint256)": "infinite",
						"viewtotalSupply()": "2504",
						"withdrawNFT(address,uint256)": "infinite"
					},
					"internal": {
						"_burn(uint256)": "infinite",
						"_transfer(address,uint256)": "infinite",
						"_transferFrom(address,address,uint256)": "infinite"
					}
				},
				"methodIdentifiers": {
					"allowance(address,address)": "dd62ed3e",
					"approve(address,uint256)": "095ea7b3",
					"balanceOf(address)": "70a08231",
					"decimals()": "313ce567",
					"loansCount(address)": "ffc49f38",
					"loansList(address)": "27d88a78",
					"name()": "06fdde03",
					"nftContract()": "d56d229d",
					"onERC721Received(address,address,uint256,bytes)": "150b7a02",
					"ownerOf(uint256)": "6352211e",
					"receivedTokens(address,uint256)": "f8fe54fa",
					"symbol()": "95d89b41",
					"totalSupply()": "18160ddd",
					"transfer(address,uint256)": "a9059cbb",
					"transferFrom(address,address,uint256)": "23b872dd",
					"viewtotalSupply()": "8951cf59",
					"withdrawNFT(address,uint256)": "6088e93a"
				}
			},
			"storageLayout": {
				"storage": [
					{
						"astId": 207,
						"contract": "meta-mall/contracts/nft-loan.sol:NGT",
						"label": "name",
						"offset": 0,
						"slot": "0",
						"type": "t_string_storage"
					},
					{
						"astId": 209,
						"contract": "meta-mall/contracts/nft-loan.sol:NGT",
						"label": "symbol",
						"offset": 0,
						"slot": "1",
						"type": "t_string_storage"
					},
					{
						"astId": 212,
						"contract": "meta-mall/contracts/nft-loan.sol:NGT",
						"label": "decimals",
						"offset": 0,
						"slot": "2",
						"type": "t_uint8"
					},
					{
						"astId": 215,
						"contract": "meta-mall/contracts/nft-loan.sol:NGT",
						"label": "totalSupply",
						"offset": 0,
						"slot": "3",
						"type": "t_uint256"
					},
					{
						"astId": 219,
						"contract": "meta-mall/contracts/nft-loan.sol:NGT",
						"label": "balances",
						"offset": 0,
						"slot": "4",
						"type": "t_mapping(t_address,t_uint256)"
					},
					{
						"astId": 225,
						"contract": "meta-mall/contracts/nft-loan.sol:NGT",
						"label": "allowed",
						"offset": 0,
						"slot": "5",
						"type": "t_mapping(t_address,t_mapping(t_address,t_uint256))"
					},
					{
						"astId": 336,
						"contract": "meta-mall/contracts/nft-loan.sol:NGT",
						"label": "owner",
						"offset": 0,
						"slot": "6",
						"type": "t_address"
					},
					{
						"astId": 349,
						"contract": "meta-mall/contracts/nft-loan.sol:NGT",
						"label": "receivedTokens",
						"offset": 0,
						"slot": "7",
						"type": "t_mapping(t_address,t_array(t_struct(TokenData)343_storage)dyn_storage)"
					},
					{
						"astId": 360,
						"contract": "meta-mall/contracts/nft-loan.sol:NGT",
						"label": "nftContract",
						"offset": 0,
						"slot": "8",
						"type": "t_contract(IERC721)200"
					}
				],
				"types": {
					"t_address": {
						"encoding": "inplace",
						"label": "address",
						"numberOfBytes": "20"
					},
					"t_array(t_struct(TokenData)343_storage)dyn_storage": {
						"base": "t_struct(TokenData)343_storage",
						"encoding": "dynamic_array",
						"label": "struct NGT.TokenData[]",
						"numberOfBytes": "32"
					},
					"t_contract(IERC721)200": {
						"encoding": "inplace",
						"label": "contract IERC721",
						"numberOfBytes": "20"
					},
					"t_mapping(t_address,t_array(t_struct(TokenData)343_storage)dyn_storage)": {
						"encoding": "mapping",
						"key": "t_address",
						"label": "mapping(address => struct NGT.TokenData[])",
						"numberOfBytes": "32",
						"value": "t_array(t_struct(TokenData)343_storage)dyn_storage"
					},
					"t_mapping(t_address,t_mapping(t_address,t_uint256))": {
						"encoding": "mapping",
						"key": "t_address",
						"label": "mapping(address => mapping(address => uint256))",
						"numberOfBytes": "32",
						"value": "t_mapping(t_address,t_uint256)"
					},
					"t_mapping(t_address,t_uint256)": {
						"encoding": "mapping",
						"key": "t_address",
						"label": "mapping(address => uint256)",
						"numberOfBytes": "32",
						"value": "t_uint256"
					},
					"t_string_storage": {
						"encoding": "bytes",
						"label": "string",
						"numberOfBytes": "32"
					},
					"t_struct(TokenData)343_storage": {
						"encoding": "inplace",
						"label": "struct NGT.TokenData",
						"members": [
							{
								"astId": 338,
								"contract": "meta-mall/contracts/nft-loan.sol:NGT",
								"label": "tokenId",
								"offset": 0,
								"slot": "0",
								"type": "t_uint256"
							},
							{
								"astId": 340,
								"contract": "meta-mall/contracts/nft-loan.sol:NGT",
								"label": "receivedTime",
								"offset": 0,
								"slot": "1",
								"type": "t_uint256"
							},
							{
								"astId": 342,
								"contract": "meta-mall/contracts/nft-loan.sol:NGT",
								"label": "flag",
								"offset": 0,
								"slot": "2",
								"type": "t_uint256"
							}
						],
						"numberOfBytes": "96"
					},
					"t_uint256": {
						"encoding": "inplace",
						"label": "uint256",
						"numberOfBytes": "32"
					},
					"t_uint8": {
						"encoding": "inplace",
						"label": "uint8",
						"numberOfBytes": "1"
					}
				}
			},
			"userdoc": {
				"kind": "user",
				"methods": {},
				"version": 1
			}
		}
	}
}