{
	"meta-mall/contracts/test.sol": {
		"NGT": {
			"abi": [
				{
					"inputs": [
						{
							"internalType": "address",
							"name": "_owner",
							"type": "address"
						},
						{
							"internalType": "address",
							"name": "_nftContract",
							"type": "address"
						},
						{
							"internalType": "address",
							"name": "_fund",
							"type": "address"
						}
					],
					"stateMutability": "nonpayable",
					"type": "constructor"
				},
				{
					"anonymous": false,
					"inputs": [
						{
							"indexed": false,
							"internalType": "address",
							"name": "owner",
							"type": "address"
						},
						{
							"indexed": false,
							"internalType": "address",
							"name": "spender",
							"type": "address"
						},
						{
							"indexed": false,
							"internalType": "uint256",
							"name": "value",
							"type": "uint256"
						}
					],
					"name": "Approval",
					"type": "event"
				},
				{
					"anonymous": false,
					"inputs": [
						{
							"indexed": false,
							"internalType": "uint8",
							"name": "status",
							"type": "uint8"
						}
					],
					"name": "ChangeMarketStatusEvent",
					"type": "event"
				},
				{
					"anonymous": false,
					"inputs": [
						{
							"indexed": false,
							"internalType": "address",
							"name": "owner",
							"type": "address"
						},
						{
							"indexed": false,
							"internalType": "address",
							"name": "spender",
							"type": "address"
						},
						{
							"indexed": false,
							"internalType": "uint256",
							"name": "value",
							"type": "uint256"
						}
					],
					"name": "Transfer",
					"type": "event"
				},
				{
					"inputs": [
						{
							"internalType": "address",
							"name": "_owner",
							"type": "address"
						},
						{
							"internalType": "address",
							"name": "_spender",
							"type": "address"
						}
					],
					"name": "allowance",
					"outputs": [
						{
							"internalType": "uint256",
							"name": "remaining",
							"type": "uint256"
						}
					],
					"stateMutability": "view",
					"type": "function"
				},
				{
					"inputs": [
						{
							"internalType": "address",
							"name": "_spender",
							"type": "address"
						},
						{
							"internalType": "uint256",
							"name": "_value",
							"type": "uint256"
						}
					],
					"name": "approve",
					"outputs": [
						{
							"internalType": "bool",
							"name": "success",
							"type": "bool"
						}
					],
					"stateMutability": "nonpayable",
					"type": "function"
				},
				{
					"inputs": [
						{
							"internalType": "address",
							"name": "_owner",
							"type": "address"
						}
					],
					"name": "balanceOf",
					"outputs": [
						{
							"internalType": "uint256",
							"name": "balance",
							"type": "uint256"
						}
					],
					"stateMutability": "view",
					"type": "function"
				},
				{
					"inputs": [
						{
							"internalType": "address",
							"name": "_recommender",
							"type": "address"
						}
					],
					"name": "bindRecommender",
					"outputs": [
						{
							"internalType": "bool",
							"name": "",
							"type": "bool"
						}
					],
					"stateMutability": "nonpayable",
					"type": "function"
				},
				{
					"inputs": [],
					"name": "decimals",
					"outputs": [
						{
							"internalType": "uint8",
							"name": "",
							"type": "uint8"
						}
					],
					"stateMutability": "view",
					"type": "function"
				},
				{
					"inputs": [
						{
							"internalType": "uint256",
							"name": "_tokenId",
							"type": "uint256"
						}
					],
					"name": "depositNFT",
					"outputs": [],
					"stateMutability": "payable",
					"type": "function"
				},
				{
					"inputs": [
						{
							"internalType": "address",
							"name": "",
							"type": "address"
						},
						{
							"internalType": "uint256",
							"name": "",
							"type": "uint256"
						}
					],
					"name": "loans",
					"outputs": [
						{
							"internalType": "uint256",
							"name": "tokenId",
							"type": "uint256"
						},
						{
							"internalType": "uint256",
							"name": "loanTime",
							"type": "uint256"
						},
						{
							"internalType": "uint256",
							"name": "flag",
							"type": "uint256"
						}
					],
					"stateMutability": "view",
					"type": "function"
				},
				{
					"inputs": [
						{
							"internalType": "address",
							"name": "user",
							"type": "address"
						}
					],
					"name": "loansCount",
					"outputs": [
						{
							"internalType": "uint256",
							"name": "",
							"type": "uint256"
						}
					],
					"stateMutability": "view",
					"type": "function"
				},
				{
					"inputs": [
						{
							"internalType": "address",
							"name": "user",
							"type": "address"
						}
					],
					"name": "loansList",
					"outputs": [
						{
							"components": [
								{
									"internalType": "uint256",
									"name": "tokenId",
									"type": "uint256"
								},
								{
									"internalType": "uint256",
									"name": "loanTime",
									"type": "uint256"
								},
								{
									"internalType": "uint256",
									"name": "flag",
									"type": "uint256"
								}
							],
							"internalType": "struct NGT.NftLoasInfo[]",
							"name": "",
							"type": "tuple[]"
						}
					],
					"stateMutability": "view",
					"type": "function"
				},
				{
					"inputs": [
						{
							"internalType": "address",
							"name": "",
							"type": "address"
						}
					],
					"name": "loansNumber",
					"outputs": [
						{
							"internalType": "uint256",
							"name": "",
							"type": "uint256"
						}
					],
					"stateMutability": "view",
					"type": "function"
				},
				{
					"inputs": [],
					"name": "name",
					"outputs": [
						{
							"internalType": "string",
							"name": "",
							"type": "string"
						}
					],
					"stateMutability": "view",
					"type": "function"
				},
				{
					"inputs": [],
					"name": "nftContract",
					"outputs": [
						{
							"internalType": "contract IERC721",
							"name": "",
							"type": "address"
						}
					],
					"stateMutability": "view",
					"type": "function"
				},
				{
					"inputs": [
						{
							"internalType": "address",
							"name": "operator",
							"type": "address"
						},
						{
							"internalType": "address",
							"name": "from",
							"type": "address"
						},
						{
							"internalType": "uint256",
							"name": "tokenId",
							"type": "uint256"
						},
						{
							"internalType": "bytes",
							"name": "data",
							"type": "bytes"
						}
					],
					"name": "onERC721Received",
					"outputs": [
						{
							"internalType": "bytes4",
							"name": "",
							"type": "bytes4"
						}
					],
					"stateMutability": "nonpayable",
					"type": "function"
				},
				{
					"inputs": [
						{
							"internalType": "uint256",
							"name": "_tokenId",
							"type": "uint256"
						}
					],
					"name": "ownerOf",
					"outputs": [
						{
							"internalType": "address",
							"name": "",
							"type": "address"
						}
					],
					"stateMutability": "nonpayable",
					"type": "function"
				},
				{
					"inputs": [],
					"name": "symbol",
					"outputs": [
						{
							"internalType": "string",
							"name": "",
							"type": "string"
						}
					],
					"stateMutability": "view",
					"type": "function"
				},
				{
					"inputs": [
						{
							"internalType": "uint256",
							"name": "_tokenId",
							"type": "uint256"
						}
					],
					"name": "testAddLoans",
					"outputs": [],
					"stateMutability": "payable",
					"type": "function"
				},
				{
					"inputs": [],
					"name": "totalSupply",
					"outputs": [
						{
							"internalType": "uint256",
							"name": "",
							"type": "uint256"
						}
					],
					"stateMutability": "view",
					"type": "function"
				},
				{
					"inputs": [
						{
							"internalType": "address",
							"name": "_to",
							"type": "address"
						},
						{
							"internalType": "uint256",
							"name": "_value",
							"type": "uint256"
						}
					],
					"name": "transfer",
					"outputs": [
						{
							"internalType": "bool",
							"name": "success",
							"type": "bool"
						}
					],
					"stateMutability": "payable",
					"type": "function"
				},
				{
					"inputs": [
						{
							"internalType": "address",
							"name": "_from",
							"type": "address"
						},
						{
							"internalType": "address",
							"name": "_to",
							"type": "address"
						},
						{
							"internalType": "uint256",
							"name": "_value",
							"type": "uint256"
						}
					],
					"name": "transferFrom",
					"outputs": [
						{
							"internalType": "bool",
							"name": "success",
							"type": "bool"
						}
					],
					"stateMutability": "payable",
					"type": "function"
				},
				{
					"inputs": [],
					"name": "viewtotalSupply",
					"outputs": [
						{
							"internalType": "uint256",
							"name": "",
							"type": "uint256"
						}
					],
					"stateMutability": "view",
					"type": "function"
				},
				{
					"inputs": [
						{
							"internalType": "uint256",
							"name": "_tokenId",
							"type": "uint256"
						}
					],
					"name": "withdrawNFT",
					"outputs": [],
					"stateMutability": "payable",
					"type": "function"
				}
			],
			"devdoc": {
				"kind": "dev",
				"methods": {
					"onERC721Received(address,address,uint256,bytes)": {
						"details": "Whenever an {IERC721} `tokenId` token is transferred to this contract via {IERC721-safeTransferFrom} by `operator` from `from`, this function is called. It must return its Solidity selector to confirm the token transfer. If any other value is returned or the interface is not implemented by the recipient, the transfer will be reverted. The selector can be obtained in Solidity with `IERC721Receiver.onERC721Received.selector`."
					}
				},
				"version": 1
			},
			"evm": {
				"assembly": "    /* \"meta-mall/contracts/test.sol\":1331:8384  contract NGT is ngt , IERC721Receiver {... */\n  mstore(0x40, 0x80)\n    /* \"meta-mall/contracts/test.sol\":264:265  4 */\n  0x04\n    /* \"meta-mall/contracts/test.sol\":239:265  uint8  public decimals = 4 */\n  0x02\n  exp(0x0100, 0x00)\n  dup2\n  sload\n  dup2\n  0xff\n  mul\n  not\n  and\n  swap1\n  dup4\n  0xff\n  and\n  mul\n  or\n  swap1\n  sstore\n  pop\n    /* \"meta-mall/contracts/test.sol\":301:312  10000000000 */\n  0x02540be400\n    /* \"meta-mall/contracts/test.sol\":271:312  uint256 public  totalSupply = 10000000000 */\n  0x03\n  sstore\n    /* \"meta-mall/contracts/test.sol\":2247:2803  constructor(... */\n  callvalue\n  dup1\n  iszero\n  tag_1\n  jumpi\n  0x00\n  dup1\n  revert\ntag_1:\n  pop\n  mload(0x40)\n  sub(codesize, bytecodeSize)\n  dup1\n  bytecodeSize\n  dup4\n  codecopy\n  dup2\n  dup2\n  add\n  0x40\n  mstore\n  dup2\n  add\n  swap1\n  tag_2\n  swap2\n  swap1\n  tag_3\n  jump\t// in\ntag_2:\n    /* \"meta-mall/contracts/test.sol\":2337:2356  uint256 totalSupply */\n  0x00\n    /* \"meta-mall/contracts/test.sol\":2387:2395  decimals */\n  0x02\n  0x00\n  swap1\n  sload\n  swap1\n  0x0100\n  exp\n  swap1\n  div\n  0xff\n  and\n    /* \"meta-mall/contracts/test.sol\":2379:2396  uint256(decimals) */\n  0xff\n  and\n    /* \"meta-mall/contracts/test.sol\":2373:2375  10 */\n  0x0a\n    /* \"meta-mall/contracts/test.sol\":2373:2396  10 ** uint256(decimals) */\n  tag_6\n  swap2\n  swap1\n  tag_7\n  jump\t// in\ntag_6:\n    /* \"meta-mall/contracts/test.sol\":2359:2370  totalSupply */\n  sload(0x03)\n    /* \"meta-mall/contracts/test.sol\":2359:2396  totalSupply * 10 ** uint256(decimals) */\n  tag_8\n  swap2\n  swap1\n  tag_9\n  jump\t// in\ntag_8:\n    /* \"meta-mall/contracts/test.sol\":2337:2396  uint256 totalSupply = totalSupply * 10 ** uint256(decimals) */\n  swap1\n  pop\n    /* \"meta-mall/contracts/test.sol\":2449:2460  totalSupply */\n  dup1\n    /* \"meta-mall/contracts/test.sol\":2429:2437  balances */\n  0x04\n    /* \"meta-mall/contracts/test.sol\":2429:2445  balances[_owner] */\n  0x00\n    /* \"meta-mall/contracts/test.sol\":2438:2444  _owner */\n  dup7\n    /* \"meta-mall/contracts/test.sol\":2429:2445  balances[_owner] */\n  0xffffffffffffffffffffffffffffffffffffffff\n  and\n  0xffffffffffffffffffffffffffffffffffffffff\n  and\n  dup2\n  mstore\n  0x20\n  add\n  swap1\n  dup2\n  mstore\n  0x20\n  add\n  0x00\n  keccak256\n  0x00\n    /* \"meta-mall/contracts/test.sol\":2429:2460  balances[_owner] += totalSupply */\n  dup3\n  dup3\n  sload\n  tag_10\n  swap2\n  swap1\n  tag_11\n  jump\t// in\ntag_10:\n  swap3\n  pop\n  pop\n  dup2\n  swap1\n  sstore\n  pop\n    /* \"meta-mall/contracts/test.sol\":2485:2490  _fund */\n  dup2\n    /* \"meta-mall/contracts/test.sol\":2472:2482  foundation */\n  0x07\n  0x00\n    /* \"meta-mall/contracts/test.sol\":2472:2490  foundation = _fund */\n  0x0100\n  exp\n  dup2\n  sload\n  dup2\n  0xffffffffffffffffffffffffffffffffffffffff\n  mul\n  not\n  and\n  swap1\n  dup4\n  0xffffffffffffffffffffffffffffffffffffffff\n  and\n  mul\n  or\n  swap1\n  sstore\n  pop\n    /* \"meta-mall/contracts/test.sol\":2559:2572  name = \"ONEE\" */\n  mload(0x40)\n  dup1\n  0x40\n  add\n  0x40\n  mstore\n  dup1\n  0x04\n  dup2\n  mstore\n  0x20\n  add\n  0x4f4e454500000000000000000000000000000000000000000000000000000000\n  dup2\n  mstore\n  pop\n    /* \"meta-mall/contracts/test.sol\":2559:2563  name */\n  0x00\n    /* \"meta-mall/contracts/test.sol\":2559:2572  name = \"ONEE\" */\n  swap1\n  dup1\n  mload\n  swap1\n  0x20\n  add\n  swap1\n  tag_12\n  swap3\n  swap2\n  swap1\n  tag_13\n  jump\t// in\ntag_12:\n  pop\n    /* \"meta-mall/contracts/test.sol\":2656:2671  symbol = \"ONEE\" */\n  mload(0x40)\n  dup1\n  0x40\n  add\n  0x40\n  mstore\n  dup1\n  0x04\n  dup2\n  mstore\n  0x20\n  add\n  0x4f4e454500000000000000000000000000000000000000000000000000000000\n  dup2\n  mstore\n  pop\n    /* \"meta-mall/contracts/test.sol\":2656:2662  symbol */\n  0x01\n    /* \"meta-mall/contracts/test.sol\":2656:2671  symbol = \"ONEE\" */\n  swap1\n  dup1\n  mload\n  swap1\n  0x20\n  add\n  swap1\n  tag_14\n  swap3\n  swap2\n  swap1\n  tag_13\n  jump\t// in\ntag_14:\n  pop\n    /* \"meta-mall/contracts/test.sol\":2691:2697  _owner */\n  dup4\n    /* \"meta-mall/contracts/test.sol\":2683:2688  owner */\n  0x09\n  0x00\n    /* \"meta-mall/contracts/test.sol\":2683:2697  owner = _owner */\n  0x0100\n  exp\n  dup2\n  sload\n  dup2\n  0xffffffffffffffffffffffffffffffffffffffff\n  mul\n  not\n  and\n  swap1\n  dup4\n  0xffffffffffffffffffffffffffffffffffffffff\n  and\n  mul\n  or\n  swap1\n  sstore\n  pop\n    /* \"meta-mall/contracts/test.sol\":2713:2725  _nftContract */\n  dup3\n    /* \"meta-mall/contracts/test.sol\":2707:2710  nft */\n  0x0d\n  0x00\n    /* \"meta-mall/contracts/test.sol\":2707:2725  nft = _nftContract */\n  0x0100\n  exp\n  dup2\n  sload\n  dup2\n  0xffffffffffffffffffffffffffffffffffffffff\n  mul\n  not\n  and\n  swap1\n  dup4\n  0xffffffffffffffffffffffffffffffffffffffff\n  and\n  mul\n  or\n  swap1\n  sstore\n  pop\n    /* \"meta-mall/contracts/test.sol\":2327:2803  {... */\n  pop\n    /* \"meta-mall/contracts/test.sol\":2247:2803  constructor(... */\n  pop\n  pop\n  pop\n    /* \"meta-mall/contracts/test.sol\":1331:8384  contract NGT is ngt , IERC721Receiver {... */\n  jump(tag_15)\ntag_13:\n  dup3\n  dup1\n  sload\n  tag_16\n  swap1\n  tag_17\n  jump\t// in\ntag_16:\n  swap1\n  0x00\n  mstore\n  keccak256(0x00, 0x20)\n  swap1\n  0x1f\n  add\n  0x20\n  swap1\n  div\n  dup2\n  add\n  swap3\n  dup3\n  tag_19\n  jumpi\n  0x00\n  dup6\n  sstore\n  jump(tag_18)\ntag_19:\n  dup3\n  0x1f\n  lt\n  tag_20\n  jumpi\n  dup1\n  mload\n  not(0xff)\n  and\n  dup4\n  dup1\n  add\n  or\n  dup6\n  sstore\n  jump(tag_18)\ntag_20:\n  dup3\n  dup1\n  add\n  0x01\n  add\n  dup6\n  sstore\n  dup3\n  iszero\n  tag_18\n  jumpi\n  swap2\n  dup3\n  add\ntag_21:\n  dup3\n  dup2\n  gt\n  iszero\n  tag_22\n  jumpi\n  dup3\n  mload\n  dup3\n  sstore\n  swap2\n  0x20\n  add\n  swap2\n  swap1\n  0x01\n  add\n  swap1\n  jump(tag_21)\ntag_22:\ntag_18:\n  pop\n  swap1\n  pop\n  tag_23\n  swap2\n  swap1\n  tag_24\n  jump\t// in\ntag_23:\n  pop\n  swap1\n  jump\t// out\ntag_24:\ntag_25:\n  dup1\n  dup3\n  gt\n  iszero\n  tag_26\n  jumpi\n  0x00\n  dup2\n  0x00\n  swap1\n  sstore\n  pop\n  0x01\n  add\n  jump(tag_25)\ntag_26:\n  pop\n  swap1\n  jump\t// out\n    /* \"#utility.yul\":7:150   */\ntag_28:\n    /* \"#utility.yul\":64:69   */\n  0x00\n    /* \"#utility.yul\":95:101   */\n  dup2\n    /* \"#utility.yul\":89:102   */\n  mload\n    /* \"#utility.yul\":80:102   */\n  swap1\n  pop\n    /* \"#utility.yul\":111:144   */\n  tag_30\n    /* \"#utility.yul\":138:143   */\n  dup2\n    /* \"#utility.yul\":111:144   */\n  tag_31\n  jump\t// in\ntag_30:\n    /* \"#utility.yul\":7:150   */\n  swap3\n  swap2\n  pop\n  pop\n  jump\t// out\n    /* \"#utility.yul\":156:819   */\ntag_3:\n    /* \"#utility.yul\":244:250   */\n  0x00\n    /* \"#utility.yul\":252:258   */\n  dup1\n    /* \"#utility.yul\":260:266   */\n  0x00\n    /* \"#utility.yul\":309:311   */\n  0x60\n    /* \"#utility.yul\":297:306   */\n  dup5\n    /* \"#utility.yul\":288:295   */\n  dup7\n    /* \"#utility.yul\":284:307   */\n  sub\n    /* \"#utility.yul\":280:312   */\n  slt\n    /* \"#utility.yul\":277:396   */\n  iszero\n  tag_33\n  jumpi\n    /* \"#utility.yul\":315:394   */\n  tag_34\n  tag_35\n  jump\t// in\ntag_34:\n    /* \"#utility.yul\":277:396   */\ntag_33:\n    /* \"#utility.yul\":435:436   */\n  0x00\n    /* \"#utility.yul\":460:524   */\n  tag_36\n    /* \"#utility.yul\":516:523   */\n  dup7\n    /* \"#utility.yul\":507:513   */\n  dup3\n    /* \"#utility.yul\":496:505   */\n  dup8\n    /* \"#utility.yul\":492:514   */\n  add\n    /* \"#utility.yul\":460:524   */\n  tag_28\n  jump\t// in\ntag_36:\n    /* \"#utility.yul\":450:524   */\n  swap4\n  pop\n    /* \"#utility.yul\":406:534   */\n  pop\n    /* \"#utility.yul\":573:575   */\n  0x20\n    /* \"#utility.yul\":599:663   */\n  tag_37\n    /* \"#utility.yul\":655:662   */\n  dup7\n    /* \"#utility.yul\":646:652   */\n  dup3\n    /* \"#utility.yul\":635:644   */\n  dup8\n    /* \"#utility.yul\":631:653   */\n  add\n    /* \"#utility.yul\":599:663   */\n  tag_28\n  jump\t// in\ntag_37:\n    /* \"#utility.yul\":589:663   */\n  swap3\n  pop\n    /* \"#utility.yul\":544:673   */\n  pop\n    /* \"#utility.yul\":712:714   */\n  0x40\n    /* \"#utility.yul\":738:802   */\n  tag_38\n    /* \"#utility.yul\":794:801   */\n  dup7\n    /* \"#utility.yul\":785:791   */\n  dup3\n    /* \"#utility.yul\":774:783   */\n  dup8\n    /* \"#utility.yul\":770:792   */\n  add\n    /* \"#utility.yul\":738:802   */\n  tag_28\n  jump\t// in\ntag_38:\n    /* \"#utility.yul\":728:802   */\n  swap2\n  pop\n    /* \"#utility.yul\":683:812   */\n  pop\n    /* \"#utility.yul\":156:819   */\n  swap3\n  pop\n  swap3\n  pop\n  swap3\n  jump\t// out\n    /* \"#utility.yul\":906:1211   */\ntag_11:\n    /* \"#utility.yul\":946:949   */\n  0x00\n    /* \"#utility.yul\":965:985   */\n  tag_42\n    /* \"#utility.yul\":983:984   */\n  dup3\n    /* \"#utility.yul\":965:985   */\n  tag_43\n  jump\t// in\ntag_42:\n    /* \"#utility.yul\":960:985   */\n  swap2\n  pop\n    /* \"#utility.yul\":999:1019   */\n  tag_44\n    /* \"#utility.yul\":1017:1018   */\n  dup4\n    /* \"#utility.yul\":999:1019   */\n  tag_43\n  jump\t// in\ntag_44:\n    /* \"#utility.yul\":994:1019   */\n  swap3\n  pop\n    /* \"#utility.yul\":1153:1154   */\n  dup3\n    /* \"#utility.yul\":1085:1151   */\n  0xffffffffffffffffffffffffffffffffffffffffffffffffffffffffffffffff\n    /* \"#utility.yul\":1081:1155   */\n  sub\n    /* \"#utility.yul\":1078:1079   */\n  dup3\n    /* \"#utility.yul\":1075:1156   */\n  gt\n    /* \"#utility.yul\":1072:1179   */\n  iszero\n  tag_45\n  jumpi\n    /* \"#utility.yul\":1159:1177   */\n  tag_46\n  tag_47\n  jump\t// in\ntag_46:\n    /* \"#utility.yul\":1072:1179   */\ntag_45:\n    /* \"#utility.yul\":1203:1204   */\n  dup3\n    /* \"#utility.yul\":1200:1201   */\n  dup3\n    /* \"#utility.yul\":1196:1205   */\n  add\n    /* \"#utility.yul\":1189:1205   */\n  swap1\n  pop\n    /* \"#utility.yul\":906:1211   */\n  swap3\n  swap2\n  pop\n  pop\n  jump\t// out\n    /* \"#utility.yul\":1217:2065   */\ntag_48:\n    /* \"#utility.yul\":1278:1283   */\n  0x00\n    /* \"#utility.yul\":1285:1289   */\n  dup1\n    /* \"#utility.yul\":1309:1315   */\n  dup3\n    /* \"#utility.yul\":1300:1315   */\n  swap2\n  pop\n    /* \"#utility.yul\":1333:1338   */\n  dup4\n    /* \"#utility.yul\":1324:1338   */\n  swap1\n  pop\n    /* \"#utility.yul\":1347:2059   */\ntag_50:\n    /* \"#utility.yul\":1368:1369   */\n  0x01\n    /* \"#utility.yul\":1358:1366   */\n  dup6\n    /* \"#utility.yul\":1355:1370   */\n  gt\n    /* \"#utility.yul\":1347:2059   */\n  iszero\n  tag_52\n  jumpi\n    /* \"#utility.yul\":1463:1467   */\n  dup1\n    /* \"#utility.yul\":1458:1461   */\n  dup7\n    /* \"#utility.yul\":1454:1468   */\n  div\n    /* \"#utility.yul\":1448:1452   */\n  dup2\n    /* \"#utility.yul\":1445:1469   */\n  gt\n    /* \"#utility.yul\":1442:1492   */\n  iszero\n  tag_53\n  jumpi\n    /* \"#utility.yul\":1472:1490   */\n  tag_54\n  tag_47\n  jump\t// in\ntag_54:\n    /* \"#utility.yul\":1442:1492   */\ntag_53:\n    /* \"#utility.yul\":1522:1523   */\n  0x01\n    /* \"#utility.yul\":1512:1520   */\n  dup6\n    /* \"#utility.yul\":1508:1524   */\n  and\n    /* \"#utility.yul\":1505:1956   */\n  iszero\n  tag_55\n  jumpi\n    /* \"#utility.yul\":1937:1941   */\n  dup1\n    /* \"#utility.yul\":1930:1935   */\n  dup3\n    /* \"#utility.yul\":1926:1942   */\n  mul\n    /* \"#utility.yul\":1917:1942   */\n  swap2\n  pop\n    /* \"#utility.yul\":1505:1956   */\ntag_55:\n    /* \"#utility.yul\":1987:1991   */\n  dup1\n    /* \"#utility.yul\":1981:1985   */\n  dup2\n    /* \"#utility.yul\":1977:1992   */\n  mul\n    /* \"#utility.yul\":1969:1992   */\n  swap1\n  pop\n    /* \"#utility.yul\":2017:2049   */\n  tag_56\n    /* \"#utility.yul\":2040:2048   */\n  dup6\n    /* \"#utility.yul\":2017:2049   */\n  tag_57\n  jump\t// in\ntag_56:\n    /* \"#utility.yul\":2005:2049   */\n  swap5\n  pop\n    /* \"#utility.yul\":1347:2059   */\n  jump(tag_50)\ntag_52:\n    /* \"#utility.yul\":1217:2065   */\n  swap5\n  pop\n  swap5\n  swap3\n  pop\n  pop\n  pop\n  jump\t// out\n    /* \"#utility.yul\":2071:2356   */\ntag_7:\n    /* \"#utility.yul\":2131:2136   */\n  0x00\n    /* \"#utility.yul\":2155:2178   */\n  tag_59\n    /* \"#utility.yul\":2173:2177   */\n  dup3\n    /* \"#utility.yul\":2155:2178   */\n  tag_43\n  jump\t// in\ntag_59:\n    /* \"#utility.yul\":2147:2178   */\n  swap2\n  pop\n    /* \"#utility.yul\":2199:2226   */\n  tag_60\n    /* \"#utility.yul\":2217:2225   */\n  dup4\n    /* \"#utility.yul\":2199:2226   */\n  tag_43\n  jump\t// in\ntag_60:\n    /* \"#utility.yul\":2187:2226   */\n  swap3\n  pop\n    /* \"#utility.yul\":2245:2349   */\n  tag_61\n    /* \"#utility.yul\":2282:2348   */\n  0xffffffffffffffffffffffffffffffffffffffffffffffffffffffffffffffff\n    /* \"#utility.yul\":2272:2280   */\n  dup5\n    /* \"#utility.yul\":2266:2270   */\n  dup5\n    /* \"#utility.yul\":2245:2349   */\n  tag_62\n  jump\t// in\ntag_61:\n    /* \"#utility.yul\":2236:2349   */\n  swap1\n  pop\n    /* \"#utility.yul\":2071:2356   */\n  swap3\n  swap2\n  pop\n  pop\n  jump\t// out\n    /* \"#utility.yul\":2362:3435   */\ntag_62:\n    /* \"#utility.yul\":2416:2421   */\n  0x00\n    /* \"#utility.yul\":2607:2615   */\n  dup3\n    /* \"#utility.yul\":2597:2637   */\n  tag_64\n  jumpi\n    /* \"#utility.yul\":2628:2629   */\n  0x01\n    /* \"#utility.yul\":2619:2629   */\n  swap1\n  pop\n    /* \"#utility.yul\":2630:2635   */\n  jump(tag_63)\n    /* \"#utility.yul\":2597:2637   */\ntag_64:\n    /* \"#utility.yul\":2656:2660   */\n  dup2\n    /* \"#utility.yul\":2646:2682   */\n  tag_65\n  jumpi\n    /* \"#utility.yul\":2673:2674   */\n  0x00\n    /* \"#utility.yul\":2664:2674   */\n  swap1\n  pop\n    /* \"#utility.yul\":2675:2680   */\n  jump(tag_63)\n    /* \"#utility.yul\":2646:2682   */\ntag_65:\n    /* \"#utility.yul\":2742:2746   */\n  dup2\n    /* \"#utility.yul\":2790:2791   */\n  0x01\n    /* \"#utility.yul\":2785:2812   */\n  dup2\n  eq\n  tag_67\n  jumpi\n    /* \"#utility.yul\":2826:2827   */\n  0x02\n    /* \"#utility.yul\":2821:3012   */\n  dup2\n  eq\n  tag_68\n  jumpi\n    /* \"#utility.yul\":2735:3012   */\n  jump(tag_66)\n    /* \"#utility.yul\":2785:2812   */\ntag_67:\n    /* \"#utility.yul\":2803:2804   */\n  0x01\n    /* \"#utility.yul\":2794:2804   */\n  swap2\n  pop\n    /* \"#utility.yul\":2805:2810   */\n  pop\n  jump(tag_63)\n    /* \"#utility.yul\":2821:3012   */\ntag_68:\n    /* \"#utility.yul\":2866:2869   */\n  0xff\n    /* \"#utility.yul\":2856:2864   */\n  dup5\n    /* \"#utility.yul\":2853:2870   */\n  gt\n    /* \"#utility.yul\":2850:2893   */\n  iszero\n  tag_69\n  jumpi\n    /* \"#utility.yul\":2873:2891   */\n  tag_70\n  tag_47\n  jump\t// in\ntag_70:\n    /* \"#utility.yul\":2850:2893   */\ntag_69:\n    /* \"#utility.yul\":2922:2930   */\n  dup4\n    /* \"#utility.yul\":2919:2920   */\n  0x02\n    /* \"#utility.yul\":2915:2931   */\n  exp\n    /* \"#utility.yul\":2906:2931   */\n  swap2\n  pop\n    /* \"#utility.yul\":2957:2960   */\n  dup5\n    /* \"#utility.yul\":2950:2955   */\n  dup3\n    /* \"#utility.yul\":2947:2961   */\n  gt\n    /* \"#utility.yul\":2944:2984   */\n  iszero\n  tag_71\n  jumpi\n    /* \"#utility.yul\":2964:2982   */\n  tag_72\n  tag_47\n  jump\t// in\ntag_72:\n    /* \"#utility.yul\":2944:2984   */\ntag_71:\n    /* \"#utility.yul\":2997:3002   */\n  pop\n  jump(tag_63)\n    /* \"#utility.yul\":2735:3012   */\ntag_66:\n  pop\n    /* \"#utility.yul\":3121:3123   */\n  0x20\n    /* \"#utility.yul\":3111:3119   */\n  dup4\n    /* \"#utility.yul\":3108:3124   */\n  lt\n    /* \"#utility.yul\":3102:3105   */\n  0x0133\n    /* \"#utility.yul\":3096:3100   */\n  dup4\n    /* \"#utility.yul\":3093:3106   */\n  lt\n    /* \"#utility.yul\":3089:3125   */\n  and\n    /* \"#utility.yul\":3071:3073   */\n  0x4e\n    /* \"#utility.yul\":3061:3069   */\n  dup5\n    /* \"#utility.yul\":3058:3074   */\n  lt\n    /* \"#utility.yul\":3053:3055   */\n  0x0b\n    /* \"#utility.yul\":3047:3051   */\n  dup5\n    /* \"#utility.yul\":3044:3056   */\n  lt\n    /* \"#utility.yul\":3040:3075   */\n  and\n    /* \"#utility.yul\":3024:3135   */\n  or\n    /* \"#utility.yul\":3021:3267   */\n  iszero\n  tag_73\n  jumpi\n    /* \"#utility.yul\":3177:3185   */\n  dup3\n    /* \"#utility.yul\":3171:3175   */\n  dup3\n    /* \"#utility.yul\":3167:3186   */\n  exp\n    /* \"#utility.yul\":3158:3186   */\n  swap1\n  pop\n    /* \"#utility.yul\":3212:3215   */\n  dup4\n    /* \"#utility.yul\":3205:3210   */\n  dup2\n    /* \"#utility.yul\":3202:3216   */\n  gt\n    /* \"#utility.yul\":3199:3239   */\n  iszero\n  tag_74\n  jumpi\n    /* \"#utility.yul\":3219:3237   */\n  tag_75\n  tag_47\n  jump\t// in\ntag_75:\n    /* \"#utility.yul\":3199:3239   */\ntag_74:\n    /* \"#utility.yul\":3252:3257   */\n  jump(tag_63)\n    /* \"#utility.yul\":3021:3267   */\ntag_73:\n    /* \"#utility.yul\":3292:3334   */\n  tag_76\n    /* \"#utility.yul\":3330:3333   */\n  dup5\n    /* \"#utility.yul\":3320:3328   */\n  dup5\n    /* \"#utility.yul\":3314:3318   */\n  dup5\n    /* \"#utility.yul\":3311:3312   */\n  0x01\n    /* \"#utility.yul\":3292:3334   */\n  tag_48\n  jump\t// in\ntag_76:\n    /* \"#utility.yul\":3277:3334   */\n  swap3\n  pop\n  swap1\n  pop\n    /* \"#utility.yul\":3366:3370   */\n  dup2\n    /* \"#utility.yul\":3361:3364   */\n  dup5\n    /* \"#utility.yul\":3357:3371   */\n  div\n    /* \"#utility.yul\":3350:3355   */\n  dup2\n    /* \"#utility.yul\":3347:3372   */\n  gt\n    /* \"#utility.yul\":3344:3395   */\n  iszero\n  tag_77\n  jumpi\n    /* \"#utility.yul\":3375:3393   */\n  tag_78\n  tag_47\n  jump\t// in\ntag_78:\n    /* \"#utility.yul\":3344:3395   */\ntag_77:\n    /* \"#utility.yul\":3424:3428   */\n  dup2\n    /* \"#utility.yul\":3417:3422   */\n  dup2\n    /* \"#utility.yul\":3413:3429   */\n  mul\n    /* \"#utility.yul\":3404:3429   */\n  swap1\n  pop\n    /* \"#utility.yul\":2362:3435   */\ntag_63:\n  swap4\n  swap3\n  pop\n  pop\n  pop\n  jump\t// out\n    /* \"#utility.yul\":3441:3789   */\ntag_9:\n    /* \"#utility.yul\":3481:3488   */\n  0x00\n    /* \"#utility.yul\":3504:3524   */\n  tag_80\n    /* \"#utility.yul\":3522:3523   */\n  dup3\n    /* \"#utility.yul\":3504:3524   */\n  tag_43\n  jump\t// in\ntag_80:\n    /* \"#utility.yul\":3499:3524   */\n  swap2\n  pop\n    /* \"#utility.yul\":3538:3558   */\n  tag_81\n    /* \"#utility.yul\":3556:3557   */\n  dup4\n    /* \"#utility.yul\":3538:3558   */\n  tag_43\n  jump\t// in\ntag_81:\n    /* \"#utility.yul\":3533:3558   */\n  swap3\n  pop\n    /* \"#utility.yul\":3726:3727   */\n  dup2\n    /* \"#utility.yul\":3658:3724   */\n  0xffffffffffffffffffffffffffffffffffffffffffffffffffffffffffffffff\n    /* \"#utility.yul\":3654:3728   */\n  div\n    /* \"#utility.yul\":3651:3652   */\n  dup4\n    /* \"#utility.yul\":3648:3729   */\n  gt\n    /* \"#utility.yul\":3643:3644   */\n  dup3\n    /* \"#utility.yul\":3636:3645   */\n  iszero\n    /* \"#utility.yul\":3629:3646   */\n  iszero\n    /* \"#utility.yul\":3625:3730   */\n  and\n    /* \"#utility.yul\":3622:3753   */\n  iszero\n  tag_82\n  jumpi\n    /* \"#utility.yul\":3733:3751   */\n  tag_83\n  tag_47\n  jump\t// in\ntag_83:\n    /* \"#utility.yul\":3622:3753   */\ntag_82:\n    /* \"#utility.yul\":3781:3782   */\n  dup3\n    /* \"#utility.yul\":3778:3779   */\n  dup3\n    /* \"#utility.yul\":3774:3783   */\n  mul\n    /* \"#utility.yul\":3763:3783   */\n  swap1\n  pop\n    /* \"#utility.yul\":3441:3789   */\n  swap3\n  swap2\n  pop\n  pop\n  jump\t// out\n    /* \"#utility.yul\":3795:3891   */\ntag_84:\n    /* \"#utility.yul\":3832:3839   */\n  0x00\n    /* \"#utility.yul\":3861:3885   */\n  tag_86\n    /* \"#utility.yul\":3879:3884   */\n  dup3\n    /* \"#utility.yul\":3861:3885   */\n  tag_87\n  jump\t// in\ntag_86:\n    /* \"#utility.yul\":3850:3885   */\n  swap1\n  pop\n    /* \"#utility.yul\":3795:3891   */\n  swap2\n  swap1\n  pop\n  jump\t// out\n    /* \"#utility.yul\":3897:4023   */\ntag_87:\n    /* \"#utility.yul\":3934:3941   */\n  0x00\n    /* \"#utility.yul\":3974:4016   */\n  0xffffffffffffffffffffffffffffffffffffffff\n    /* \"#utility.yul\":3967:3972   */\n  dup3\n    /* \"#utility.yul\":3963:4017   */\n  and\n    /* \"#utility.yul\":3952:4017   */\n  swap1\n  pop\n    /* \"#utility.yul\":3897:4023   */\n  swap2\n  swap1\n  pop\n  jump\t// out\n    /* \"#utility.yul\":4029:4106   */\ntag_43:\n    /* \"#utility.yul\":4066:4073   */\n  0x00\n    /* \"#utility.yul\":4095:4100   */\n  dup2\n    /* \"#utility.yul\":4084:4100   */\n  swap1\n  pop\n    /* \"#utility.yul\":4029:4106   */\n  swap2\n  swap1\n  pop\n  jump\t// out\n    /* \"#utility.yul\":4112:4432   */\ntag_17:\n    /* \"#utility.yul\":4156:4162   */\n  0x00\n    /* \"#utility.yul\":4193:4194   */\n  0x02\n    /* \"#utility.yul\":4187:4191   */\n  dup3\n    /* \"#utility.yul\":4183:4195   */\n  div\n    /* \"#utility.yul\":4173:4195   */\n  swap1\n  pop\n    /* \"#utility.yul\":4240:4241   */\n  0x01\n    /* \"#utility.yul\":4234:4238   */\n  dup3\n    /* \"#utility.yul\":4230:4242   */\n  and\n    /* \"#utility.yul\":4261:4279   */\n  dup1\n    /* \"#utility.yul\":4251:4332   */\n  tag_91\n  jumpi\n    /* \"#utility.yul\":4317:4321   */\n  0x7f\n    /* \"#utility.yul\":4309:4315   */\n  dup3\n    /* \"#utility.yul\":4305:4322   */\n  and\n    /* \"#utility.yul\":4295:4322   */\n  swap2\n  pop\n    /* \"#utility.yul\":4251:4332   */\ntag_91:\n    /* \"#utility.yul\":4379:4381   */\n  0x20\n    /* \"#utility.yul\":4371:4377   */\n  dup3\n    /* \"#utility.yul\":4368:4382   */\n  lt\n    /* \"#utility.yul\":4348:4366   */\n  dup2\n    /* \"#utility.yul\":4345:4383   */\n  eq\n    /* \"#utility.yul\":4342:4426   */\n  iszero\n  tag_92\n  jumpi\n    /* \"#utility.yul\":4398:4416   */\n  tag_93\n  tag_94\n  jump\t// in\ntag_93:\n    /* \"#utility.yul\":4342:4426   */\ntag_92:\n    /* \"#utility.yul\":4163:4432   */\n  pop\n    /* \"#utility.yul\":4112:4432   */\n  swap2\n  swap1\n  pop\n  jump\t// out\n    /* \"#utility.yul\":4438:4618   */\ntag_47:\n    /* \"#utility.yul\":4486:4563   */\n  0x4e487b7100000000000000000000000000000000000000000000000000000000\n    /* \"#utility.yul\":4483:4484   */\n  0x00\n    /* \"#utility.yul\":4476:4564   */\n  mstore\n    /* \"#utility.yul\":4583:4587   */\n  0x11\n    /* \"#utility.yul\":4580:4581   */\n  0x04\n    /* \"#utility.yul\":4573:4588   */\n  mstore\n    /* \"#utility.yul\":4607:4611   */\n  0x24\n    /* \"#utility.yul\":4604:4605   */\n  0x00\n    /* \"#utility.yul\":4597:4612   */\n  revert\n    /* \"#utility.yul\":4624:4804   */\ntag_94:\n    /* \"#utility.yul\":4672:4749   */\n  0x4e487b7100000000000000000000000000000000000000000000000000000000\n    /* \"#utility.yul\":4669:4670   */\n  0x00\n    /* \"#utility.yul\":4662:4750   */\n  mstore\n    /* \"#utility.yul\":4769:4773   */\n  0x22\n    /* \"#utility.yul\":4766:4767   */\n  0x04\n    /* \"#utility.yul\":4759:4774   */\n  mstore\n    /* \"#utility.yul\":4793:4797   */\n  0x24\n    /* \"#utility.yul\":4790:4791   */\n  0x00\n    /* \"#utility.yul\":4783:4798   */\n  revert\n    /* \"#utility.yul\":4933:5050   */\ntag_35:\n    /* \"#utility.yul\":5042:5043   */\n  0x00\n    /* \"#utility.yul\":5039:5040   */\n  dup1\n    /* \"#utility.yul\":5032:5044   */\n  revert\n    /* \"#utility.yul\":5056:5158   */\ntag_57:\n    /* \"#utility.yul\":5098:5106   */\n  0x00\n    /* \"#utility.yul\":5145:5150   */\n  dup2\n    /* \"#utility.yul\":5142:5143   */\n  0x01\n    /* \"#utility.yul\":5138:5151   */\n  shr\n    /* \"#utility.yul\":5117:5151   */\n  swap1\n  pop\n    /* \"#utility.yul\":5056:5158   */\n  swap2\n  swap1\n  pop\n  jump\t// out\n    /* \"#utility.yul\":5164:5286   */\ntag_31:\n    /* \"#utility.yul\":5237:5261   */\n  tag_102\n    /* \"#utility.yul\":5255:5260   */\n  dup2\n    /* \"#utility.yul\":5237:5261   */\n  tag_84\n  jump\t// in\ntag_102:\n    /* \"#utility.yul\":5230:5235   */\n  dup2\n    /* \"#utility.yul\":5227:5262   */\n  eq\n    /* \"#utility.yul\":5217:5280   */\n  tag_103\n  jumpi\n    /* \"#utility.yul\":5276:5277   */\n  0x00\n    /* \"#utility.yul\":5273:5274   */\n  dup1\n    /* \"#utility.yul\":5266:5278   */\n  revert\n    /* \"#utility.yul\":5217:5280   */\ntag_103:\n    /* \"#utility.yul\":5164:5286   */\n  pop\n  jump\t// out\n    /* \"meta-mall/contracts/test.sol\":1331:8384  contract NGT is ngt , IERC721Receiver {... */\ntag_15:\n  dataSize(sub_0)\n  dup1\n  dataOffset(sub_0)\n  0x00\n  codecopy\n  0x00\n  return\nstop\n\nsub_0: assembly {\n        /* \"meta-mall/contracts/test.sol\":1331:8384  contract NGT is ngt , IERC721Receiver {... */\n      mstore(0x40, 0x80)\n      jumpi(tag_1, lt(calldatasize, 0x04))\n      shr(0xe0, calldataload(0x00))\n      dup1\n      0x70a08231\n      gt\n      tag_23\n      jumpi\n      dup1\n      0xb369ecd7\n      gt\n      tag_24\n      jumpi\n      dup1\n      0xb369ecd7\n      eq\n      tag_17\n      jumpi\n      dup1\n      0xce7ac47d\n      eq\n      tag_18\n      jumpi\n      dup1\n      0xd56d229d\n      eq\n      tag_19\n      jumpi\n      dup1\n      0xdd62ed3e\n      eq\n      tag_20\n      jumpi\n      dup1\n      0xe91a7ca6\n      eq\n      tag_21\n      jumpi\n      dup1\n      0xffc49f38\n      eq\n      tag_22\n      jumpi\n      jump(tag_1)\n    tag_24:\n      dup1\n      0x70a08231\n      eq\n      tag_12\n      jumpi\n      dup1\n      0x8951cf59\n      eq\n      tag_13\n      jumpi\n      dup1\n      0x95d89b41\n      eq\n      tag_14\n      jumpi\n      dup1\n      0x98c61c37\n      eq\n      tag_15\n      jumpi\n      dup1\n      0xa9059cbb\n      eq\n      tag_16\n      jumpi\n      jump(tag_1)\n    tag_23:\n      dup1\n      0x23b872dd\n      gt\n      tag_25\n      jumpi\n      dup1\n      0x23b872dd\n      eq\n      tag_7\n      jumpi\n      dup1\n      0x27d88a78\n      eq\n      tag_8\n      jumpi\n      dup1\n      0x313ce567\n      eq\n      tag_9\n      jumpi\n      dup1\n      0x48828ec0\n      eq\n      tag_10\n      jumpi\n      dup1\n      0x6352211e\n      eq\n      tag_11\n      jumpi\n      jump(tag_1)\n    tag_25:\n      dup1\n      0x023245d7\n      eq\n      tag_2\n      jumpi\n      dup1\n      0x06fdde03\n      eq\n      tag_3\n      jumpi\n      dup1\n      0x095ea7b3\n      eq\n      tag_4\n      jumpi\n      dup1\n      0x150b7a02\n      eq\n      tag_5\n      jumpi\n      dup1\n      0x18160ddd\n      eq\n      tag_6\n      jumpi\n    tag_1:\n      0x00\n      dup1\n      revert\n        /* \"meta-mall/contracts/test.sol\":7163:7619  function withdrawNFT(uint256 _tokenId) onlyManager external payable {... */\n    tag_2:\n      tag_26\n      0x04\n      dup1\n      calldatasize\n      sub\n      dup2\n      add\n      swap1\n      tag_27\n      swap2\n      swap1\n      tag_28\n      jump\t// in\n    tag_27:\n      tag_29\n      jump\t// in\n    tag_26:\n      stop\n        /* \"meta-mall/contracts/test.sol\":188:207  string public  name */\n    tag_3:\n      callvalue\n      dup1\n      iszero\n      tag_30\n      jumpi\n      0x00\n      dup1\n      revert\n    tag_30:\n      pop\n      tag_31\n      tag_32\n      jump\t// in\n    tag_31:\n      mload(0x40)\n      tag_33\n      swap2\n      swap1\n      tag_34\n      jump\t// in\n    tag_33:\n      mload(0x40)\n      dup1\n      swap2\n      sub\n      swap1\n      return\n        /* \"meta-mall/contracts/test.sol\":727:1017  function approve(address _spender, uint256 _value) public returns (bool success)   ... */\n    tag_4:\n      callvalue\n      dup1\n      iszero\n      tag_35\n      jumpi\n      0x00\n      dup1\n      revert\n    tag_35:\n      pop\n      tag_36\n      0x04\n      dup1\n      calldatasize\n      sub\n      dup2\n      add\n      swap1\n      tag_37\n      swap2\n      swap1\n      tag_38\n      jump\t// in\n    tag_37:\n      tag_39\n      jump\t// in\n    tag_36:\n      mload(0x40)\n      tag_40\n      swap2\n      swap1\n      tag_41\n      jump\t// in\n    tag_40:\n      mload(0x40)\n      dup1\n      swap2\n      sub\n      swap1\n      return\n        /* \"meta-mall/contracts/test.sol\":6413:7149  function onERC721Received(address operator, address from, uint256 tokenId, bytes calldata data) external override returns(bytes4) {... */\n    tag_5:\n      callvalue\n      dup1\n      iszero\n      tag_42\n      jumpi\n      0x00\n      dup1\n      revert\n    tag_42:\n      pop\n      tag_43\n      0x04\n      dup1\n      calldatasize\n      sub\n      dup2\n      add\n      swap1\n      tag_44\n      swap2\n      swap1\n      tag_45\n      jump\t// in\n    tag_44:\n      tag_46\n      jump\t// in\n    tag_43:\n      mload(0x40)\n      tag_47\n      swap2\n      swap1\n      tag_48\n      jump\t// in\n    tag_47:\n      mload(0x40)\n      dup1\n      swap2\n      sub\n      swap1\n      return\n        /* \"meta-mall/contracts/test.sol\":271:312  uint256 public  totalSupply = 10000000000 */\n    tag_6:\n      callvalue\n      dup1\n      iszero\n      tag_49\n      jumpi\n      0x00\n      dup1\n      revert\n    tag_49:\n      pop\n      tag_50\n      tag_51\n      jump\t// in\n    tag_50:\n      mload(0x40)\n      tag_52\n      swap2\n      swap1\n      tag_53\n      jump\t// in\n    tag_52:\n      mload(0x40)\n      dup1\n      swap2\n      sub\n      swap1\n      return\n        /* \"meta-mall/contracts/test.sol\":3354:3679  function transferFrom(address _from, address _to, uint256 _value) public payable  returns (bool success){... */\n    tag_7:\n      tag_54\n      0x04\n      dup1\n      calldatasize\n      sub\n      dup2\n      add\n      swap1\n      tag_55\n      swap2\n      swap1\n      tag_56\n      jump\t// in\n    tag_55:\n      tag_57\n      jump\t// in\n    tag_54:\n      mload(0x40)\n      tag_58\n      swap2\n      swap1\n      tag_41\n      jump\t// in\n    tag_58:\n      mload(0x40)\n      dup1\n      swap2\n      sub\n      swap1\n      return\n        /* \"meta-mall/contracts/test.sol\":7789:7932  function loansList(address user) public view  returns (NftLoasInfo[] memory){... */\n    tag_8:\n      callvalue\n      dup1\n      iszero\n      tag_59\n      jumpi\n      0x00\n      dup1\n      revert\n    tag_59:\n      pop\n      tag_60\n      0x04\n      dup1\n      calldatasize\n      sub\n      dup2\n      add\n      swap1\n      tag_61\n      swap2\n      swap1\n      tag_62\n      jump\t// in\n    tag_61:\n      tag_63\n      jump\t// in\n    tag_60:\n      mload(0x40)\n      tag_64\n      swap2\n      swap1\n      tag_65\n      jump\t// in\n    tag_64:\n      mload(0x40)\n      dup1\n      swap2\n      sub\n      swap1\n      return\n        /* \"meta-mall/contracts/test.sol\":239:265  uint8  public decimals = 4 */\n    tag_9:\n      callvalue\n      dup1\n      iszero\n      tag_66\n      jumpi\n      0x00\n      dup1\n      revert\n    tag_66:\n      pop\n      tag_67\n      tag_68\n      jump\t// in\n    tag_67:\n      mload(0x40)\n      tag_69\n      swap2\n      swap1\n      tag_70\n      jump\t// in\n    tag_69:\n      mload(0x40)\n      dup1\n      swap2\n      sub\n      swap1\n      return\n        /* \"meta-mall/contracts/test.sol\":5433:5656  function bindRecommender(address _recommender) external returns(bool){... */\n    tag_10:\n      callvalue\n      dup1\n      iszero\n      tag_71\n      jumpi\n      0x00\n      dup1\n      revert\n    tag_71:\n      pop\n      tag_72\n      0x04\n      dup1\n      calldatasize\n      sub\n      dup2\n      add\n      swap1\n      tag_73\n      swap2\n      swap1\n      tag_62\n      jump\t// in\n    tag_73:\n      tag_74\n      jump\t// in\n    tag_72:\n      mload(0x40)\n      tag_75\n      swap2\n      swap1\n      tag_41\n      jump\t// in\n    tag_75:\n      mload(0x40)\n      dup1\n      swap2\n      sub\n      swap1\n      return\n        /* \"meta-mall/contracts/test.sol\":7620:7788  function ownerOf(uint256  _tokenId) public returns (address){... */\n    tag_11:\n      callvalue\n      dup1\n      iszero\n      tag_76\n      jumpi\n      0x00\n      dup1\n      revert\n    tag_76:\n      pop\n      tag_77\n      0x04\n      dup1\n      calldatasize\n      sub\n      dup2\n      add\n      swap1\n      tag_78\n      swap2\n      swap1\n      tag_28\n      jump\t// in\n    tag_78:\n      tag_79\n      jump\t// in\n    tag_77:\n      mload(0x40)\n      tag_80\n      swap2\n      swap1\n      tag_81\n      jump\t// in\n    tag_80:\n      mload(0x40)\n      dup1\n      swap2\n      sub\n      swap1\n      return\n        /* \"meta-mall/contracts/test.sol\":609:722  function balanceOf(address _owner) public view returns (uint256 balance) {... */\n    tag_12:\n      callvalue\n      dup1\n      iszero\n      tag_82\n      jumpi\n      0x00\n      dup1\n      revert\n    tag_82:\n      pop\n      tag_83\n      0x04\n      dup1\n      calldatasize\n      sub\n      dup2\n      add\n      swap1\n      tag_84\n      swap2\n      swap1\n      tag_62\n      jump\t// in\n    tag_84:\n      tag_85\n      jump\t// in\n    tag_83:\n      mload(0x40)\n      tag_86\n      swap2\n      swap1\n      tag_53\n      jump\t// in\n    tag_86:\n      mload(0x40)\n      dup1\n      swap2\n      sub\n      swap1\n      return\n        /* \"meta-mall/contracts/test.sol\":1214:1305  function viewtotalSupply() public view returns (uint256){... */\n    tag_13:\n      callvalue\n      dup1\n      iszero\n      tag_87\n      jumpi\n      0x00\n      dup1\n      revert\n    tag_87:\n      pop\n      tag_88\n      tag_89\n      jump\t// in\n    tag_88:\n      mload(0x40)\n      tag_90\n      swap2\n      swap1\n      tag_53\n      jump\t// in\n    tag_90:\n      mload(0x40)\n      dup1\n      swap2\n      sub\n      swap1\n      return\n        /* \"meta-mall/contracts/test.sol\":213:233  string public symbol */\n    tag_14:\n      callvalue\n      dup1\n      iszero\n      tag_91\n      jumpi\n      0x00\n      dup1\n      revert\n    tag_91:\n      pop\n      tag_92\n      tag_93\n      jump\t// in\n    tag_92:\n      mload(0x40)\n      tag_94\n      swap2\n      swap1\n      tag_34\n      jump\t// in\n    tag_94:\n      mload(0x40)\n      dup1\n      swap2\n      sub\n      swap1\n      return\n        /* \"meta-mall/contracts/test.sol\":1985:2032  mapping (address => NftLoasInfo[]) public loans */\n    tag_15:\n      callvalue\n      dup1\n      iszero\n      tag_95\n      jumpi\n      0x00\n      dup1\n      revert\n    tag_95:\n      pop\n      tag_96\n      0x04\n      dup1\n      calldatasize\n      sub\n      dup2\n      add\n      swap1\n      tag_97\n      swap2\n      swap1\n      tag_38\n      jump\t// in\n    tag_97:\n      tag_98\n      jump\t// in\n    tag_96:\n      mload(0x40)\n      tag_99\n      swap4\n      swap3\n      swap2\n      swap1\n      tag_100\n      jump\t// in\n    tag_99:\n      mload(0x40)\n      dup1\n      swap2\n      sub\n      swap1\n      return\n        /* \"meta-mall/contracts/test.sol\":3062:3349  function transfer(address _to, uint256 _value) public payable  returns (bool success){... */\n    tag_16:\n      tag_101\n      0x04\n      dup1\n      calldatasize\n      sub\n      dup2\n      add\n      swap1\n      tag_102\n      swap2\n      swap1\n      tag_38\n      jump\t// in\n    tag_102:\n      tag_103\n      jump\t// in\n    tag_101:\n      mload(0x40)\n      tag_104\n      swap2\n      swap1\n      tag_41\n      jump\t// in\n    tag_104:\n      mload(0x40)\n      dup1\n      swap2\n      sub\n      swap1\n      return\n        /* \"meta-mall/contracts/test.sol\":2038:2085  mapping (address => uint256) public loansNumber */\n    tag_17:\n      callvalue\n      dup1\n      iszero\n      tag_105\n      jumpi\n      0x00\n      dup1\n      revert\n    tag_105:\n      pop\n      tag_106\n      0x04\n      dup1\n      calldatasize\n      sub\n      dup2\n      add\n      swap1\n      tag_107\n      swap2\n      swap1\n      tag_62\n      jump\t// in\n    tag_107:\n      tag_108\n      jump\t// in\n    tag_106:\n      mload(0x40)\n      tag_109\n      swap2\n      swap1\n      tag_53\n      jump\t// in\n    tag_109:\n      mload(0x40)\n      dup1\n      swap2\n      sub\n      swap1\n      return\n        /* \"meta-mall/contracts/test.sol\":2809:3056  function testAddLoans(uint256  _tokenId) external payable {... */\n    tag_18:\n      tag_110\n      0x04\n      dup1\n      calldatasize\n      sub\n      dup2\n      add\n      swap1\n      tag_111\n      swap2\n      swap1\n      tag_28\n      jump\t// in\n    tag_111:\n      tag_112\n      jump\t// in\n    tag_110:\n      stop\n        /* \"meta-mall/contracts/test.sol\":1953:1979  IERC721 public nftContract */\n    tag_19:\n      callvalue\n      dup1\n      iszero\n      tag_113\n      jumpi\n      0x00\n      dup1\n      revert\n    tag_113:\n      pop\n      tag_114\n      tag_115\n      jump\t// in\n    tag_114:\n      mload(0x40)\n      tag_116\n      swap2\n      swap1\n      tag_117\n      jump\t// in\n    tag_116:\n      mload(0x40)\n      dup1\n      swap2\n      sub\n      swap1\n      return\n        /* \"meta-mall/contracts/test.sol\":1022:1209  function allowance(address _owner, address _spender) public view returns (uint256 remaining) {... */\n    tag_20:\n      callvalue\n      dup1\n      iszero\n      tag_118\n      jumpi\n      0x00\n      dup1\n      revert\n    tag_118:\n      pop\n      tag_119\n      0x04\n      dup1\n      calldatasize\n      sub\n      dup2\n      add\n      swap1\n      tag_120\n      swap2\n      swap1\n      tag_121\n      jump\t// in\n    tag_120:\n      tag_122\n      jump\t// in\n    tag_119:\n      mload(0x40)\n      tag_123\n      swap2\n      swap1\n      tag_53\n      jump\t// in\n    tag_123:\n      mload(0x40)\n      dup1\n      swap2\n      sub\n      swap1\n      return\n        /* \"meta-mall/contracts/test.sol\":5802:6411  function depositNFT(uint256  _tokenId) external payable {... */\n    tag_21:\n      tag_124\n      0x04\n      dup1\n      calldatasize\n      sub\n      dup2\n      add\n      swap1\n      tag_125\n      swap2\n      swap1\n      tag_28\n      jump\t// in\n    tag_125:\n      tag_126\n      jump\t// in\n    tag_124:\n      stop\n        /* \"meta-mall/contracts/test.sol\":7933:8229  function loansCount(address user) public view returns (uint256){... */\n    tag_22:\n      callvalue\n      dup1\n      iszero\n      tag_127\n      jumpi\n      0x00\n      dup1\n      revert\n    tag_127:\n      pop\n      tag_128\n      0x04\n      dup1\n      calldatasize\n      sub\n      dup2\n      add\n      swap1\n      tag_129\n      swap2\n      swap1\n      tag_62\n      jump\t// in\n    tag_129:\n      tag_130\n      jump\t// in\n    tag_128:\n      mload(0x40)\n      tag_131\n      swap2\n      swap1\n      tag_53\n      jump\t// in\n    tag_131:\n      mload(0x40)\n      dup1\n      swap2\n      sub\n      swap1\n      return\n        /* \"meta-mall/contracts/test.sol\":7163:7619  function withdrawNFT(uint256 _tokenId) onlyManager external payable {... */\n    tag_29:\n        /* \"meta-mall/contracts/test.sol\":8303:8308  owner */\n      0x09\n      0x00\n      swap1\n      sload\n      swap1\n      0x0100\n      exp\n      swap1\n      div\n      0xffffffffffffffffffffffffffffffffffffffff\n      and\n        /* \"meta-mall/contracts/test.sol\":8289:8308  msg.sender == owner */\n      0xffffffffffffffffffffffffffffffffffffffff\n      and\n        /* \"meta-mall/contracts/test.sol\":8289:8299  msg.sender */\n      caller\n        /* \"meta-mall/contracts/test.sol\":8289:8308  msg.sender == owner */\n      0xffffffffffffffffffffffffffffffffffffffff\n      and\n      eq\n        /* \"meta-mall/contracts/test.sol\":8268:8359  require(... */\n      tag_133\n      jumpi\n      mload(0x40)\n      0x08c379a000000000000000000000000000000000000000000000000000000000\n      dup2\n      mstore\n      0x04\n      add\n      tag_134\n      swap1\n      tag_135\n      jump\t// in\n    tag_134:\n      mload(0x40)\n      dup1\n      swap2\n      sub\n      swap1\n      revert\n    tag_133:\n        /* \"meta-mall/contracts/test.sol\":7259:7262  nft */\n      0x0d\n      0x00\n      swap1\n      sload\n      swap1\n      0x0100\n      exp\n      swap1\n      div\n      0xffffffffffffffffffffffffffffffffffffffff\n      and\n        /* \"meta-mall/contracts/test.sol\":7237:7248  nftContract */\n      0x0a\n      0x00\n        /* \"meta-mall/contracts/test.sol\":7237:7263  nftContract = IERC721(nft) */\n      0x0100\n      exp\n      dup2\n      sload\n      dup2\n      0xffffffffffffffffffffffffffffffffffffffff\n      mul\n      not\n      and\n      swap1\n      dup4\n      0xffffffffffffffffffffffffffffffffffffffff\n      and\n      mul\n      or\n      swap1\n      sstore\n      pop\n        /* \"meta-mall/contracts/test.sol\":7269:7285  uint256 nowNumer */\n      0x00\n        /* \"meta-mall/contracts/test.sol\":7288:7299  loansNumber */\n      0x0c\n        /* \"meta-mall/contracts/test.sol\":7288:7311  loansNumber[msg.sender] */\n      0x00\n        /* \"meta-mall/contracts/test.sol\":7300:7310  msg.sender */\n      caller\n        /* \"meta-mall/contracts/test.sol\":7288:7311  loansNumber[msg.sender] */\n      0xffffffffffffffffffffffffffffffffffffffff\n      and\n      0xffffffffffffffffffffffffffffffffffffffff\n      and\n      dup2\n      mstore\n      0x20\n      add\n      swap1\n      dup2\n      mstore\n      0x20\n      add\n      0x00\n      keccak256\n      sload\n        /* \"meta-mall/contracts/test.sol\":7269:7311  uint256 nowNumer = loansNumber[msg.sender] */\n      swap1\n      pop\n        /* \"meta-mall/contracts/test.sol\":7322:7328  uint i */\n      0x00\n        /* \"meta-mall/contracts/test.sol\":7317:7613  for (uint i = 0; i < nowNumer; ++i ) {... */\n    tag_137:\n        /* \"meta-mall/contracts/test.sol\":7338:7346  nowNumer */\n      dup2\n        /* \"meta-mall/contracts/test.sol\":7334:7335  i */\n      dup2\n        /* \"meta-mall/contracts/test.sol\":7334:7346  i < nowNumer */\n      lt\n        /* \"meta-mall/contracts/test.sol\":7317:7613  for (uint i = 0; i < nowNumer; ++i ) {... */\n      iszero\n      tag_138\n      jumpi\n        /* \"meta-mall/contracts/test.sol\":7400:7408  _tokenId */\n      dup3\n        /* \"meta-mall/contracts/test.sol\":7368:7373  loans */\n      0x0b\n        /* \"meta-mall/contracts/test.sol\":7368:7385  loans[msg.sender] */\n      0x00\n        /* \"meta-mall/contracts/test.sol\":7374:7384  msg.sender */\n      caller\n        /* \"meta-mall/contracts/test.sol\":7368:7385  loans[msg.sender] */\n      0xffffffffffffffffffffffffffffffffffffffff\n      and\n      0xffffffffffffffffffffffffffffffffffffffff\n      and\n      dup2\n      mstore\n      0x20\n      add\n      swap1\n      dup2\n      mstore\n      0x20\n      add\n      0x00\n      keccak256\n        /* \"meta-mall/contracts/test.sol\":7386:7387  i */\n      dup3\n        /* \"meta-mall/contracts/test.sol\":7368:7388  loans[msg.sender][i] */\n      dup2\n      sload\n      dup2\n      lt\n      tag_140\n      jumpi\n      tag_141\n      tag_142\n      jump\t// in\n    tag_141:\n    tag_140:\n      swap1\n      0x00\n      mstore\n      keccak256(0x00, 0x20)\n      swap1\n      0x03\n      mul\n      add\n        /* \"meta-mall/contracts/test.sol\":7368:7396  loans[msg.sender][i].tokenId */\n      0x00\n      add\n      sload\n        /* \"meta-mall/contracts/test.sol\":7368:7408  loans[msg.sender][i].tokenId == _tokenId */\n      eq\n        /* \"meta-mall/contracts/test.sol\":7364:7607  if (loans[msg.sender][i].tokenId == _tokenId) {... */\n      iszero\n      tag_144\n      jumpi\n        /* \"meta-mall/contracts/test.sol\":7461:7462  1 */\n      0x01\n        /* \"meta-mall/contracts/test.sol\":7432:7437  loans */\n      0x0b\n        /* \"meta-mall/contracts/test.sol\":7432:7449  loans[msg.sender] */\n      0x00\n        /* \"meta-mall/contracts/test.sol\":7438:7448  msg.sender */\n      caller\n        /* \"meta-mall/contracts/test.sol\":7432:7449  loans[msg.sender] */\n      0xffffffffffffffffffffffffffffffffffffffff\n      and\n      0xffffffffffffffffffffffffffffffffffffffff\n      and\n      dup2\n      mstore\n      0x20\n      add\n      swap1\n      dup2\n      mstore\n      0x20\n      add\n      0x00\n      keccak256\n        /* \"meta-mall/contracts/test.sol\":7450:7451  i */\n      dup3\n        /* \"meta-mall/contracts/test.sol\":7432:7452  loans[msg.sender][i] */\n      dup2\n      sload\n      dup2\n      lt\n      tag_145\n      jumpi\n      tag_146\n      tag_142\n      jump\t// in\n    tag_146:\n    tag_145:\n      swap1\n      0x00\n      mstore\n      keccak256(0x00, 0x20)\n      swap1\n      0x03\n      mul\n      add\n        /* \"meta-mall/contracts/test.sol\":7432:7457  loans[msg.sender][i].flag */\n      0x02\n      add\n      sload\n        /* \"meta-mall/contracts/test.sol\":7432:7462  loans[msg.sender][i].flag == 1 */\n      eq\n        /* \"meta-mall/contracts/test.sol\":7424:7492  require(loans[msg.sender][i].flag == 1, \"You already have withdraw\") */\n      tag_148\n      jumpi\n      mload(0x40)\n      0x08c379a000000000000000000000000000000000000000000000000000000000\n      dup2\n      mstore\n      0x04\n      add\n      tag_149\n      swap1\n      tag_150\n      jump\t// in\n    tag_149:\n      mload(0x40)\n      dup1\n      swap2\n      sub\n      swap1\n      revert\n    tag_148:\n        /* \"meta-mall/contracts/test.sol\":7539:7540  0 */\n      0x00\n        /* \"meta-mall/contracts/test.sol\":7510:7515  loans */\n      0x0b\n        /* \"meta-mall/contracts/test.sol\":7510:7527  loans[msg.sender] */\n      0x00\n        /* \"meta-mall/contracts/test.sol\":7516:7526  msg.sender */\n      caller\n        /* \"meta-mall/contracts/test.sol\":7510:7527  loans[msg.sender] */\n      0xffffffffffffffffffffffffffffffffffffffff\n      and\n      0xffffffffffffffffffffffffffffffffffffffff\n      and\n      dup2\n      mstore\n      0x20\n      add\n      swap1\n      dup2\n      mstore\n      0x20\n      add\n      0x00\n      keccak256\n        /* \"meta-mall/contracts/test.sol\":7528:7529  i */\n      dup3\n        /* \"meta-mall/contracts/test.sol\":7510:7530  loans[msg.sender][i] */\n      dup2\n      sload\n      dup2\n      lt\n      tag_151\n      jumpi\n      tag_152\n      tag_142\n      jump\t// in\n    tag_152:\n    tag_151:\n      swap1\n      0x00\n      mstore\n      keccak256(0x00, 0x20)\n      swap1\n      0x03\n      mul\n      add\n        /* \"meta-mall/contracts/test.sol\":7510:7535  loans[msg.sender][i].flag */\n      0x02\n      add\n        /* \"meta-mall/contracts/test.sol\":7510:7540  loans[msg.sender][i].flag  = 0 */\n      dup2\n      swap1\n      sstore\n      pop\n        /* \"meta-mall/contracts/test.sol\":7555:7566  nftContract */\n      0x0a\n      0x00\n      swap1\n      sload\n      swap1\n      0x0100\n      exp\n      swap1\n      div\n      0xffffffffffffffffffffffffffffffffffffffff\n      and\n        /* \"meta-mall/contracts/test.sol\":7555:7574  nftContract.approve */\n      0xffffffffffffffffffffffffffffffffffffffff\n      and\n      0x095ea7b3\n        /* \"meta-mall/contracts/test.sol\":7575:7585  msg.sender */\n      caller\n        /* \"meta-mall/contracts/test.sol\":7587:7595  _tokenId */\n      dup6\n        /* \"meta-mall/contracts/test.sol\":7555:7596  nftContract.approve(msg.sender, _tokenId) */\n      mload(0x40)\n      dup4\n      0xffffffff\n      and\n      0xe0\n      shl\n      dup2\n      mstore\n      0x04\n      add\n      tag_154\n      swap3\n      swap2\n      swap1\n      tag_155\n      jump\t// in\n    tag_154:\n      0x00\n      mload(0x40)\n      dup1\n      dup4\n      sub\n      dup2\n      0x00\n      dup8\n      dup1\n      extcodesize\n      iszero\n      dup1\n      iszero\n      tag_156\n      jumpi\n      0x00\n      dup1\n      revert\n    tag_156:\n      pop\n      gas\n      call\n      iszero\n      dup1\n      iszero\n      tag_158\n      jumpi\n      returndatasize\n      0x00\n      dup1\n      returndatacopy\n      revert(0x00, returndatasize)\n    tag_158:\n      pop\n      pop\n      pop\n      pop\n        /* \"meta-mall/contracts/test.sol\":7364:7607  if (loans[msg.sender][i].tokenId == _tokenId) {... */\n    tag_144:\n        /* \"meta-mall/contracts/test.sol\":7348:7351  ++i */\n      dup1\n      tag_159\n      swap1\n      tag_160\n      jump\t// in\n    tag_159:\n      swap1\n      pop\n        /* \"meta-mall/contracts/test.sol\":7317:7613  for (uint i = 0; i < nowNumer; ++i ) {... */\n      jump(tag_137)\n    tag_138:\n      pop\n        /* \"meta-mall/contracts/test.sol\":7231:7619  {... */\n      pop\n        /* \"meta-mall/contracts/test.sol\":7163:7619  function withdrawNFT(uint256 _tokenId) onlyManager external payable {... */\n      pop\n      jump\t// out\n        /* \"meta-mall/contracts/test.sol\":188:207  string public  name */\n    tag_32:\n      0x00\n      dup1\n      sload\n      tag_161\n      swap1\n      tag_162\n      jump\t// in\n    tag_161:\n      dup1\n      0x1f\n      add\n      0x20\n      dup1\n      swap2\n      div\n      mul\n      0x20\n      add\n      mload(0x40)\n      swap1\n      dup2\n      add\n      0x40\n      mstore\n      dup1\n      swap3\n      swap2\n      swap1\n      dup2\n      dup2\n      mstore\n      0x20\n      add\n      dup3\n      dup1\n      sload\n      tag_163\n      swap1\n      tag_162\n      jump\t// in\n    tag_163:\n      dup1\n      iszero\n      tag_164\n      jumpi\n      dup1\n      0x1f\n      lt\n      tag_165\n      jumpi\n      0x0100\n      dup1\n      dup4\n      sload\n      div\n      mul\n      dup4\n      mstore\n      swap2\n      0x20\n      add\n      swap2\n      jump(tag_164)\n    tag_165:\n      dup3\n      add\n      swap2\n      swap1\n      0x00\n      mstore\n      keccak256(0x00, 0x20)\n      swap1\n    tag_166:\n      dup2\n      sload\n      dup2\n      mstore\n      swap1\n      0x01\n      add\n      swap1\n      0x20\n      add\n      dup1\n      dup4\n      gt\n      tag_166\n      jumpi\n      dup3\n      swap1\n      sub\n      0x1f\n      and\n      dup3\n      add\n      swap2\n    tag_164:\n      pop\n      pop\n      pop\n      pop\n      pop\n      dup2\n      jump\t// out\n        /* \"meta-mall/contracts/test.sol\":727:1017  function approve(address _spender, uint256 _value) public returns (bool success)   ... */\n    tag_39:\n        /* \"meta-mall/contracts/test.sol\":794:806  bool success */\n      0x00\n        /* \"meta-mall/contracts/test.sol\":846:847  0 */\n      dup1\n        /* \"meta-mall/contracts/test.sol\":836:842  _value */\n      dup3\n        /* \"meta-mall/contracts/test.sol\":836:847  _value == 0 */\n      eq\n        /* \"meta-mall/contracts/test.sol\":835:888  (_value == 0) || (allowed[msg.sender][_spender] == 0) */\n      dup1\n      tag_168\n      jumpi\n      pop\n        /* \"meta-mall/contracts/test.sol\":886:887  0 */\n      0x00\n        /* \"meta-mall/contracts/test.sol\":853:860  allowed */\n      0x05\n        /* \"meta-mall/contracts/test.sol\":853:872  allowed[msg.sender] */\n      0x00\n        /* \"meta-mall/contracts/test.sol\":861:871  msg.sender */\n      caller\n        /* \"meta-mall/contracts/test.sol\":853:872  allowed[msg.sender] */\n      0xffffffffffffffffffffffffffffffffffffffff\n      and\n      0xffffffffffffffffffffffffffffffffffffffff\n      and\n      dup2\n      mstore\n      0x20\n      add\n      swap1\n      dup2\n      mstore\n      0x20\n      add\n      0x00\n      keccak256\n        /* \"meta-mall/contracts/test.sol\":853:882  allowed[msg.sender][_spender] */\n      0x00\n        /* \"meta-mall/contracts/test.sol\":873:881  _spender */\n      dup6\n        /* \"meta-mall/contracts/test.sol\":853:882  allowed[msg.sender][_spender] */\n      0xffffffffffffffffffffffffffffffffffffffff\n      and\n      0xffffffffffffffffffffffffffffffffffffffff\n      and\n      dup2\n      mstore\n      0x20\n      add\n      swap1\n      dup2\n      mstore\n      0x20\n      add\n      0x00\n      keccak256\n      sload\n        /* \"meta-mall/contracts/test.sol\":853:887  allowed[msg.sender][_spender] == 0 */\n      eq\n        /* \"meta-mall/contracts/test.sol\":835:888  (_value == 0) || (allowed[msg.sender][_spender] == 0) */\n    tag_168:\n        /* \"meta-mall/contracts/test.sol\":827:889  require((_value == 0) || (allowed[msg.sender][_spender] == 0)) */\n      tag_169\n      jumpi\n      0x00\n      dup1\n      revert\n    tag_169:\n        /* \"meta-mall/contracts/test.sol\":931:937  _value */\n      dup2\n        /* \"meta-mall/contracts/test.sol\":899:906  allowed */\n      0x05\n        /* \"meta-mall/contracts/test.sol\":899:918  allowed[msg.sender] */\n      0x00\n        /* \"meta-mall/contracts/test.sol\":907:917  msg.sender */\n      caller\n        /* \"meta-mall/contracts/test.sol\":899:918  allowed[msg.sender] */\n      0xffffffffffffffffffffffffffffffffffffffff\n      and\n      0xffffffffffffffffffffffffffffffffffffffff\n      and\n      dup2\n      mstore\n      0x20\n      add\n      swap1\n      dup2\n      mstore\n      0x20\n      add\n      0x00\n      keccak256\n        /* \"meta-mall/contracts/test.sol\":899:928  allowed[msg.sender][_spender] */\n      0x00\n        /* \"meta-mall/contracts/test.sol\":919:927  _spender */\n      dup6\n        /* \"meta-mall/contracts/test.sol\":899:928  allowed[msg.sender][_spender] */\n      0xffffffffffffffffffffffffffffffffffffffff\n      and\n      0xffffffffffffffffffffffffffffffffffffffff\n      and\n      dup2\n      mstore\n      0x20\n      add\n      swap1\n      dup2\n      mstore\n      0x20\n      add\n      0x00\n      keccak256\n        /* \"meta-mall/contracts/test.sol\":899:937  allowed[msg.sender][_spender] = _value */\n      dup2\n      swap1\n      sstore\n      pop\n        /* \"meta-mall/contracts/test.sol\":951:989  Approval(msg.sender, _spender, _value) */\n      0x8c5be1e5ebec7d5bd14f71427d1e84f3dd0314c0f7b2291e5b200ac8c7c3b925\n        /* \"meta-mall/contracts/test.sol\":960:970  msg.sender */\n      caller\n        /* \"meta-mall/contracts/test.sol\":972:980  _spender */\n      dup5\n        /* \"meta-mall/contracts/test.sol\":982:988  _value */\n      dup5\n        /* \"meta-mall/contracts/test.sol\":951:989  Approval(msg.sender, _spender, _value) */\n      mload(0x40)\n      tag_170\n      swap4\n      swap3\n      swap2\n      swap1\n      tag_171\n      jump\t// in\n    tag_170:\n      mload(0x40)\n      dup1\n      swap2\n      sub\n      swap1\n      log1\n        /* \"meta-mall/contracts/test.sol\":1006:1010  true */\n      0x01\n        /* \"meta-mall/contracts/test.sol\":999:1010  return true */\n      swap1\n      pop\n        /* \"meta-mall/contracts/test.sol\":727:1017  function approve(address _spender, uint256 _value) public returns (bool success)   ... */\n      swap3\n      swap2\n      pop\n      pop\n      jump\t// out\n        /* \"meta-mall/contracts/test.sol\":6413:7149  function onERC721Received(address operator, address from, uint256 tokenId, bytes calldata data) external override returns(bytes4) {... */\n    tag_46:\n        /* \"meta-mall/contracts/test.sol\":6535:6541  bytes4 */\n      0x00\n        /* \"meta-mall/contracts/test.sol\":6931:6954  NftLoasInfo memory info */\n      dup1\n        /* \"meta-mall/contracts/test.sol\":6957:7067  NftLoasInfo({... */\n      mload(0x40)\n      dup1\n      0x60\n      add\n      0x40\n      mstore\n      dup1\n        /* \"meta-mall/contracts/test.sol\":6991:6998  tokenId */\n      dup7\n        /* \"meta-mall/contracts/test.sol\":6957:7067  NftLoasInfo({... */\n      dup2\n      mstore\n      0x20\n      add\n        /* \"meta-mall/contracts/test.sol\":7021:7036  block.timestamp */\n      timestamp\n        /* \"meta-mall/contracts/test.sol\":6957:7067  NftLoasInfo({... */\n      dup2\n      mstore\n      0x20\n      add\n        /* \"meta-mall/contracts/test.sol\":7055:7056  0 */\n      0x00\n        /* \"meta-mall/contracts/test.sol\":6957:7067  NftLoasInfo({... */\n      dup2\n      mstore\n      pop\n        /* \"meta-mall/contracts/test.sol\":6931:7067  NftLoasInfo memory info = NftLoasInfo({... */\n      swap1\n      pop\n        /* \"meta-mall/contracts/test.sol\":7077:7082  loans */\n      0x0b\n        /* \"meta-mall/contracts/test.sol\":7077:7088  loans[from] */\n      0x00\n        /* \"meta-mall/contracts/test.sol\":7083:7087  from */\n      dup8\n        /* \"meta-mall/contracts/test.sol\":7077:7088  loans[from] */\n      0xffffffffffffffffffffffffffffffffffffffff\n      and\n      0xffffffffffffffffffffffffffffffffffffffff\n      and\n      dup2\n      mstore\n      0x20\n      add\n      swap1\n      dup2\n      mstore\n      0x20\n      add\n      0x00\n      keccak256\n        /* \"meta-mall/contracts/test.sol\":7094:7098  info */\n      dup2\n        /* \"meta-mall/contracts/test.sol\":7077:7099  loans[from].push(info) */\n      swap1\n      dup1\n      0x01\n      dup2\n      sload\n      add\n      dup1\n      dup3\n      sstore\n      dup1\n      swap2\n      pop\n      pop\n      0x01\n      swap1\n      sub\n      swap1\n      0x00\n      mstore\n      keccak256(0x00, 0x20)\n      swap1\n      0x03\n      mul\n      add\n      0x00\n      swap1\n      swap2\n      swap1\n      swap2\n      swap1\n      swap2\n      pop\n      0x00\n      dup3\n      add\n      mload\n      dup2\n      0x00\n      add\n      sstore\n      0x20\n      dup3\n      add\n      mload\n      dup2\n      0x01\n      add\n      sstore\n      0x40\n      dup3\n      add\n      mload\n      dup2\n      0x02\n      add\n      sstore\n      pop\n      pop\n        /* \"meta-mall/contracts/test.sol\":7116:7146  this.onERC721Received.selector */\n      shl(0xe0, 0x150b7a02)\n        /* \"meta-mall/contracts/test.sol\":7109:7146  return this.onERC721Received.selector */\n      swap2\n      pop\n      pop\n        /* \"meta-mall/contracts/test.sol\":6413:7149  function onERC721Received(address operator, address from, uint256 tokenId, bytes calldata data) external override returns(bytes4) {... */\n      swap6\n      swap5\n      pop\n      pop\n      pop\n      pop\n      pop\n      jump\t// out\n        /* \"meta-mall/contracts/test.sol\":271:312  uint256 public  totalSupply = 10000000000 */\n    tag_51:\n      sload(0x03)\n      dup2\n      jump\t// out\n        /* \"meta-mall/contracts/test.sol\":3354:3679  function transferFrom(address _from, address _to, uint256 _value) public payable  returns (bool success){... */\n    tag_57:\n        /* \"meta-mall/contracts/test.sol\":3445:3457  bool success */\n      0x00\n        /* \"meta-mall/contracts/test.sol\":3469:3480  uint256 tax */\n      dup1\n        /* \"meta-mall/contracts/test.sol\":3483:3504  (_value * 0).div(100) */\n      tag_175\n        /* \"meta-mall/contracts/test.sol\":3500:3503  100 */\n      0x64\n        /* \"meta-mall/contracts/test.sol\":3493:3494  0 */\n      0x00\n        /* \"meta-mall/contracts/test.sol\":3484:3490  _value */\n      dup6\n        /* \"meta-mall/contracts/test.sol\":3484:3494  _value * 0 */\n      tag_176\n      swap2\n      swap1\n      tag_177\n      jump\t// in\n    tag_176:\n        /* \"meta-mall/contracts/test.sol\":3483:3499  (_value * 0).div */\n      tag_178\n      swap1\n        /* \"meta-mall/contracts/test.sol\":3483:3504  (_value * 0).div(100) */\n      swap2\n      swap1\n      0xffffffff\n      and\n      jump\t// in\n    tag_175:\n        /* \"meta-mall/contracts/test.sol\":3469:3504  uint256 tax = (_value * 0).div(100) */\n      swap1\n      pop\n        /* \"meta-mall/contracts/test.sol\":3515:3524  bool flag */\n      0x00\n        /* \"meta-mall/contracts/test.sol\":3527:3564  _transferFrom(_from,foundation,tax,0) */\n      tag_179\n        /* \"meta-mall/contracts/test.sol\":3541:3546  _from */\n      dup7\n        /* \"meta-mall/contracts/test.sol\":3547:3557  foundation */\n      0x07\n      0x00\n      swap1\n      sload\n      swap1\n      0x0100\n      exp\n      swap1\n      div\n      0xffffffffffffffffffffffffffffffffffffffff\n      and\n        /* \"meta-mall/contracts/test.sol\":3558:3561  tax */\n      dup5\n        /* \"meta-mall/contracts/test.sol\":3562:3563  0 */\n      0x00\n        /* \"meta-mall/contracts/test.sol\":3527:3540  _transferFrom */\n      tag_180\n        /* \"meta-mall/contracts/test.sol\":3527:3564  _transferFrom(_from,foundation,tax,0) */\n      jump\t// in\n    tag_179:\n        /* \"meta-mall/contracts/test.sol\":3515:3564  bool flag = _transferFrom(_from,foundation,tax,0) */\n      swap1\n      pop\n        /* \"meta-mall/contracts/test.sol\":3583:3587  flag */\n      dup1\n        /* \"meta-mall/contracts/test.sol\":3575:3619  require(flag,\"transfer to foundation flase\") */\n      tag_181\n      jumpi\n      mload(0x40)\n      0x08c379a000000000000000000000000000000000000000000000000000000000\n      dup2\n      mstore\n      0x04\n      add\n      tag_182\n      swap1\n      tag_183\n      jump\t// in\n    tag_182:\n      mload(0x40)\n      dup1\n      swap2\n      sub\n      swap1\n      revert\n    tag_181:\n        /* \"meta-mall/contracts/test.sol\":3637:3672  _transferFrom(_from,_to,_value,tax) */\n      tag_184\n        /* \"meta-mall/contracts/test.sol\":3651:3656  _from */\n      dup7\n        /* \"meta-mall/contracts/test.sol\":3657:3660  _to */\n      dup7\n        /* \"meta-mall/contracts/test.sol\":3661:3667  _value */\n      dup7\n        /* \"meta-mall/contracts/test.sol\":3668:3671  tax */\n      dup6\n        /* \"meta-mall/contracts/test.sol\":3637:3650  _transferFrom */\n      tag_180\n        /* \"meta-mall/contracts/test.sol\":3637:3672  _transferFrom(_from,_to,_value,tax) */\n      jump\t// in\n    tag_184:\n        /* \"meta-mall/contracts/test.sol\":3630:3672  return _transferFrom(_from,_to,_value,tax) */\n      swap3\n      pop\n      pop\n      pop\n        /* \"meta-mall/contracts/test.sol\":3354:3679  function transferFrom(address _from, address _to, uint256 _value) public payable  returns (bool success){... */\n      swap4\n      swap3\n      pop\n      pop\n      pop\n      jump\t// out\n        /* \"meta-mall/contracts/test.sol\":7789:7932  function loansList(address user) public view  returns (NftLoasInfo[] memory){... */\n    tag_63:\n        /* \"meta-mall/contracts/test.sol\":7844:7864  NftLoasInfo[] memory */\n      0x60\n        /* \"meta-mall/contracts/test.sol\":7918:7923  loans */\n      0x0b\n        /* \"meta-mall/contracts/test.sol\":7918:7929  loans[user] */\n      0x00\n        /* \"meta-mall/contracts/test.sol\":7924:7928  user */\n      dup4\n        /* \"meta-mall/contracts/test.sol\":7918:7929  loans[user] */\n      0xffffffffffffffffffffffffffffffffffffffff\n      and\n      0xffffffffffffffffffffffffffffffffffffffff\n      and\n      dup2\n      mstore\n      0x20\n      add\n      swap1\n      dup2\n      mstore\n      0x20\n      add\n      0x00\n      keccak256\n        /* \"meta-mall/contracts/test.sol\":7911:7929  return loans[user] */\n      dup1\n      sload\n      dup1\n      0x20\n      mul\n      0x20\n      add\n      mload(0x40)\n      swap1\n      dup2\n      add\n      0x40\n      mstore\n      dup1\n      swap3\n      swap2\n      swap1\n      dup2\n      dup2\n      mstore\n      0x20\n      add\n      0x00\n      swap1\n    tag_186:\n      dup3\n      dup3\n      lt\n      iszero\n      tag_187\n      jumpi\n      dup4\n      dup3\n      swap1\n      0x00\n      mstore\n      keccak256(0x00, 0x20)\n      swap1\n      0x03\n      mul\n      add\n      mload(0x40)\n      dup1\n      0x60\n      add\n      0x40\n      mstore\n      swap1\n      dup2\n      0x00\n      dup3\n      add\n      sload\n      dup2\n      mstore\n      0x20\n      add\n      0x01\n      dup3\n      add\n      sload\n      dup2\n      mstore\n      0x20\n      add\n      0x02\n      dup3\n      add\n      sload\n      dup2\n      mstore\n      pop\n      pop\n      dup2\n      mstore\n      0x20\n      add\n      swap1\n      0x01\n      add\n      swap1\n      jump(tag_186)\n    tag_187:\n      pop\n      pop\n      pop\n      pop\n      swap1\n      pop\n        /* \"meta-mall/contracts/test.sol\":7789:7932  function loansList(address user) public view  returns (NftLoasInfo[] memory){... */\n      swap2\n      swap1\n      pop\n      jump\t// out\n        /* \"meta-mall/contracts/test.sol\":239:265  uint8  public decimals = 4 */\n    tag_68:\n      0x02\n      0x00\n      swap1\n      sload\n      swap1\n      0x0100\n      exp\n      swap1\n      div\n      0xff\n      and\n      dup2\n      jump\t// out\n        /* \"meta-mall/contracts/test.sol\":5433:5656  function bindRecommender(address _recommender) external returns(bool){... */\n    tag_74:\n        /* \"meta-mall/contracts/test.sol\":5497:5501  bool */\n      0x00\n        /* \"meta-mall/contracts/test.sol\":5561:5562  0 */\n      dup1\n        /* \"meta-mall/contracts/test.sol\":5518:5563  details[msg.sender].recommender == address(0) */\n      0xffffffffffffffffffffffffffffffffffffffff\n      and\n        /* \"meta-mall/contracts/test.sol\":5518:5525  details */\n      0x08\n        /* \"meta-mall/contracts/test.sol\":5518:5537  details[msg.sender] */\n      0x00\n        /* \"meta-mall/contracts/test.sol\":5526:5536  msg.sender */\n      caller\n        /* \"meta-mall/contracts/test.sol\":5518:5537  details[msg.sender] */\n      0xffffffffffffffffffffffffffffffffffffffff\n      and\n      0xffffffffffffffffffffffffffffffffffffffff\n      and\n      dup2\n      mstore\n      0x20\n      add\n      swap1\n      dup2\n      mstore\n      0x20\n      add\n      0x00\n      keccak256\n        /* \"meta-mall/contracts/test.sol\":5518:5549  details[msg.sender].recommender */\n      0x02\n      add\n      0x00\n      swap1\n      sload\n      swap1\n      0x0100\n      exp\n      swap1\n      div\n      0xffffffffffffffffffffffffffffffffffffffff\n      and\n        /* \"meta-mall/contracts/test.sol\":5518:5563  details[msg.sender].recommender == address(0) */\n      0xffffffffffffffffffffffffffffffffffffffff\n      and\n      eq\n        /* \"meta-mall/contracts/test.sol\":5510:5594  require(details[msg.sender].recommender == address(0),\"this address has been bound\") */\n      tag_190\n      jumpi\n      mload(0x40)\n      0x08c379a000000000000000000000000000000000000000000000000000000000\n      dup2\n      mstore\n      0x04\n      add\n      tag_191\n      swap1\n      tag_192\n      jump\t// in\n    tag_191:\n      mload(0x40)\n      dup1\n      swap2\n      sub\n      swap1\n      revert\n    tag_190:\n        /* \"meta-mall/contracts/test.sol\":5602:5632  _bind(msg.sender,_recommender) */\n      tag_193\n        /* \"meta-mall/contracts/test.sol\":5608:5618  msg.sender */\n      caller\n        /* \"meta-mall/contracts/test.sol\":5619:5631  _recommender */\n      dup4\n        /* \"meta-mall/contracts/test.sol\":5602:5607  _bind */\n      tag_194\n        /* \"meta-mall/contracts/test.sol\":5602:5632  _bind(msg.sender,_recommender) */\n      jump\t// in\n    tag_193:\n        /* \"meta-mall/contracts/test.sol\":5647:5651  true */\n      0x01\n        /* \"meta-mall/contracts/test.sol\":5640:5651  return true */\n      swap1\n      pop\n        /* \"meta-mall/contracts/test.sol\":5433:5656  function bindRecommender(address _recommender) external returns(bool){... */\n      swap2\n      swap1\n      pop\n      jump\t// out\n        /* \"meta-mall/contracts/test.sol\":7620:7788  function ownerOf(uint256  _tokenId) public returns (address){... */\n    tag_79:\n        /* \"meta-mall/contracts/test.sol\":7672:7679  address */\n      0x00\n        /* \"meta-mall/contracts/test.sol\":7720:7723  nft */\n      0x0d\n      0x00\n      swap1\n      sload\n      swap1\n      0x0100\n      exp\n      swap1\n      div\n      0xffffffffffffffffffffffffffffffffffffffff\n      and\n        /* \"meta-mall/contracts/test.sol\":7698:7709  nftContract */\n      0x0a\n      0x00\n        /* \"meta-mall/contracts/test.sol\":7698:7724  nftContract = IERC721(nft) */\n      0x0100\n      exp\n      dup2\n      sload\n      dup2\n      0xffffffffffffffffffffffffffffffffffffffff\n      mul\n      not\n      and\n      swap1\n      dup4\n      0xffffffffffffffffffffffffffffffffffffffff\n      and\n      mul\n      or\n      swap1\n      sstore\n      pop\n        /* \"meta-mall/contracts/test.sol\":7749:7760  nftContract */\n      0x0a\n      0x00\n      swap1\n      sload\n      swap1\n      0x0100\n      exp\n      swap1\n      div\n      0xffffffffffffffffffffffffffffffffffffffff\n      and\n        /* \"meta-mall/contracts/test.sol\":7749:7768  nftContract.ownerOf */\n      0xffffffffffffffffffffffffffffffffffffffff\n      and\n      0x6352211e\n        /* \"meta-mall/contracts/test.sol\":7769:7777  _tokenId */\n      dup4\n        /* \"meta-mall/contracts/test.sol\":7749:7778  nftContract.ownerOf(_tokenId) */\n      mload(0x40)\n      dup3\n      0xffffffff\n      and\n      0xe0\n      shl\n      dup2\n      mstore\n      0x04\n      add\n      tag_196\n      swap2\n      swap1\n      tag_53\n      jump\t// in\n    tag_196:\n      0x20\n      mload(0x40)\n      dup1\n      dup4\n      sub\n      dup2\n      dup7\n      dup1\n      extcodesize\n      iszero\n      dup1\n      iszero\n      tag_197\n      jumpi\n      0x00\n      dup1\n      revert\n    tag_197:\n      pop\n      gas\n      staticcall\n      iszero\n      dup1\n      iszero\n      tag_199\n      jumpi\n      returndatasize\n      0x00\n      dup1\n      returndatacopy\n      revert(0x00, returndatasize)\n    tag_199:\n      pop\n      pop\n      pop\n      pop\n      mload(0x40)\n      returndatasize\n      not(0x1f)\n      0x1f\n      dup3\n      add\n      and\n      dup3\n      add\n      dup1\n      0x40\n      mstore\n      pop\n      dup2\n      add\n      swap1\n      tag_200\n      swap2\n      swap1\n      tag_201\n      jump\t// in\n    tag_200:\n        /* \"meta-mall/contracts/test.sol\":7742:7778  return nftContract.ownerOf(_tokenId) */\n      swap1\n      pop\n        /* \"meta-mall/contracts/test.sol\":7620:7788  function ownerOf(uint256  _tokenId) public returns (address){... */\n      swap2\n      swap1\n      pop\n      jump\t// out\n        /* \"meta-mall/contracts/test.sol\":609:722  function balanceOf(address _owner) public view returns (uint256 balance) {... */\n    tag_85:\n        /* \"meta-mall/contracts/test.sol\":665:680  uint256 balance */\n      0x00\n        /* \"meta-mall/contracts/test.sol\":699:707  balances */\n      0x04\n        /* \"meta-mall/contracts/test.sol\":699:715  balances[_owner] */\n      0x00\n        /* \"meta-mall/contracts/test.sol\":708:714  _owner */\n      dup4\n        /* \"meta-mall/contracts/test.sol\":699:715  balances[_owner] */\n      0xffffffffffffffffffffffffffffffffffffffff\n      and\n      0xffffffffffffffffffffffffffffffffffffffff\n      and\n      dup2\n      mstore\n      0x20\n      add\n      swap1\n      dup2\n      mstore\n      0x20\n      add\n      0x00\n      keccak256\n      sload\n        /* \"meta-mall/contracts/test.sol\":692:715  return balances[_owner] */\n      swap1\n      pop\n        /* \"meta-mall/contracts/test.sol\":609:722  function balanceOf(address _owner) public view returns (uint256 balance) {... */\n      swap2\n      swap1\n      pop\n      jump\t// out\n        /* \"meta-mall/contracts/test.sol\":1214:1305  function viewtotalSupply() public view returns (uint256){... */\n    tag_89:\n        /* \"meta-mall/contracts/test.sol\":1262:1269  uint256 */\n      0x00\n        /* \"meta-mall/contracts/test.sol\":1287:1298  totalSupply */\n      sload(0x03)\n        /* \"meta-mall/contracts/test.sol\":1280:1298  return totalSupply */\n      swap1\n      pop\n        /* \"meta-mall/contracts/test.sol\":1214:1305  function viewtotalSupply() public view returns (uint256){... */\n      swap1\n      jump\t// out\n        /* \"meta-mall/contracts/test.sol\":213:233  string public symbol */\n    tag_93:\n      0x01\n      dup1\n      sload\n      tag_204\n      swap1\n      tag_162\n      jump\t// in\n    tag_204:\n      dup1\n      0x1f\n      add\n      0x20\n      dup1\n      swap2\n      div\n      mul\n      0x20\n      add\n      mload(0x40)\n      swap1\n      dup2\n      add\n      0x40\n      mstore\n      dup1\n      swap3\n      swap2\n      swap1\n      dup2\n      dup2\n      mstore\n      0x20\n      add\n      dup3\n      dup1\n      sload\n      tag_205\n      swap1\n      tag_162\n      jump\t// in\n    tag_205:\n      dup1\n      iszero\n      tag_206\n      jumpi\n      dup1\n      0x1f\n      lt\n      tag_207\n      jumpi\n      0x0100\n      dup1\n      dup4\n      sload\n      div\n      mul\n      dup4\n      mstore\n      swap2\n      0x20\n      add\n      swap2\n      jump(tag_206)\n    tag_207:\n      dup3\n      add\n      swap2\n      swap1\n      0x00\n      mstore\n      keccak256(0x00, 0x20)\n      swap1\n    tag_208:\n      dup2\n      sload\n      dup2\n      mstore\n      swap1\n      0x01\n      add\n      swap1\n      0x20\n      add\n      dup1\n      dup4\n      gt\n      tag_208\n      jumpi\n      dup3\n      swap1\n      sub\n      0x1f\n      and\n      dup3\n      add\n      swap2\n    tag_206:\n      pop\n      pop\n      pop\n      pop\n      pop\n      dup2\n      jump\t// out\n        /* \"meta-mall/contracts/test.sol\":1985:2032  mapping (address => NftLoasInfo[]) public loans */\n    tag_98:\n      mstore(0x20, 0x0b)\n      dup2\n      0x00\n      mstore\n      keccak256(0x00, 0x40)\n      dup2\n      dup2\n      sload\n      dup2\n      lt\n      tag_209\n      jumpi\n      0x00\n      dup1\n      revert\n    tag_209:\n      swap1\n      0x00\n      mstore\n      keccak256(0x00, 0x20)\n      swap1\n      0x03\n      mul\n      add\n      0x00\n      swap2\n      pop\n      swap2\n      pop\n      pop\n      dup1\n      0x00\n      add\n      sload\n      swap1\n      dup1\n      0x01\n      add\n      sload\n      swap1\n      dup1\n      0x02\n      add\n      sload\n      swap1\n      pop\n      dup4\n      jump\t// out\n        /* \"meta-mall/contracts/test.sol\":3062:3349  function transfer(address _to, uint256 _value) public payable  returns (bool success){... */\n    tag_103:\n        /* \"meta-mall/contracts/test.sol\":3134:3146  bool success */\n      0x00\n        /* \"meta-mall/contracts/test.sol\":3158:3169  uint256 tax */\n      dup1\n        /* \"meta-mall/contracts/test.sol\":3172:3193  (_value * 0).div(100) */\n      tag_212\n        /* \"meta-mall/contracts/test.sol\":3189:3192  100 */\n      0x64\n        /* \"meta-mall/contracts/test.sol\":3182:3183  0 */\n      0x00\n        /* \"meta-mall/contracts/test.sol\":3173:3179  _value */\n      dup6\n        /* \"meta-mall/contracts/test.sol\":3173:3183  _value * 0 */\n      tag_213\n      swap2\n      swap1\n      tag_177\n      jump\t// in\n    tag_213:\n        /* \"meta-mall/contracts/test.sol\":3172:3188  (_value * 0).div */\n      tag_178\n      swap1\n        /* \"meta-mall/contracts/test.sol\":3172:3193  (_value * 0).div(100) */\n      swap2\n      swap1\n      0xffffffff\n      and\n      jump\t// in\n    tag_212:\n        /* \"meta-mall/contracts/test.sol\":3158:3193  uint256 tax = (_value * 0).div(100) */\n      swap1\n      pop\n        /* \"meta-mall/contracts/test.sol\":3204:3213  bool flag */\n      0x00\n        /* \"meta-mall/contracts/test.sol\":3216:3243  _transfer(foundation,tax,0) */\n      tag_214\n        /* \"meta-mall/contracts/test.sol\":3226:3236  foundation */\n      0x07\n      0x00\n      swap1\n      sload\n      swap1\n      0x0100\n      exp\n      swap1\n      div\n      0xffffffffffffffffffffffffffffffffffffffff\n      and\n        /* \"meta-mall/contracts/test.sol\":3237:3240  tax */\n      dup4\n        /* \"meta-mall/contracts/test.sol\":3241:3242  0 */\n      0x00\n        /* \"meta-mall/contracts/test.sol\":3216:3225  _transfer */\n      tag_215\n        /* \"meta-mall/contracts/test.sol\":3216:3243  _transfer(foundation,tax,0) */\n      jump\t// in\n    tag_214:\n        /* \"meta-mall/contracts/test.sol\":3204:3243  bool flag = _transfer(foundation,tax,0) */\n      swap1\n      pop\n        /* \"meta-mall/contracts/test.sol\":3262:3266  flag */\n      dup1\n        /* \"meta-mall/contracts/test.sol\":3254:3298  require(flag,\"transfer to foundation flase\") */\n      tag_216\n      jumpi\n      mload(0x40)\n      0x08c379a000000000000000000000000000000000000000000000000000000000\n      dup2\n      mstore\n      0x04\n      add\n      tag_217\n      swap1\n      tag_183\n      jump\t// in\n    tag_217:\n      mload(0x40)\n      dup1\n      swap2\n      sub\n      swap1\n      revert\n    tag_216:\n        /* \"meta-mall/contracts/test.sol\":3316:3341  _transfer(_to,_value,tax) */\n      tag_218\n        /* \"meta-mall/contracts/test.sol\":3326:3329  _to */\n      dup6\n        /* \"meta-mall/contracts/test.sol\":3330:3336  _value */\n      dup6\n        /* \"meta-mall/contracts/test.sol\":3337:3340  tax */\n      dup5\n        /* \"meta-mall/contracts/test.sol\":3316:3325  _transfer */\n      tag_215\n        /* \"meta-mall/contracts/test.sol\":3316:3341  _transfer(_to,_value,tax) */\n      jump\t// in\n    tag_218:\n        /* \"meta-mall/contracts/test.sol\":3309:3341  return _transfer(_to,_value,tax) */\n      swap3\n      pop\n      pop\n      pop\n        /* \"meta-mall/contracts/test.sol\":3062:3349  function transfer(address _to, uint256 _value) public payable  returns (bool success){... */\n      swap3\n      swap2\n      pop\n      pop\n      jump\t// out\n        /* \"meta-mall/contracts/test.sol\":2038:2085  mapping (address => uint256) public loansNumber */\n    tag_108:\n      mstore(0x20, 0x0c)\n      dup1\n      0x00\n      mstore\n      keccak256(0x00, 0x40)\n      0x00\n      swap2\n      pop\n      swap1\n      pop\n      sload\n      dup2\n      jump\t// out\n        /* \"meta-mall/contracts/test.sol\":2809:3056  function testAddLoans(uint256  _tokenId) external payable {... */\n    tag_112:\n        /* \"meta-mall/contracts/test.sol\":2878:2901  NftLoasInfo memory info */\n      0x00\n        /* \"meta-mall/contracts/test.sol\":2904:3015  NftLoasInfo({... */\n      mload(0x40)\n      dup1\n      0x60\n      add\n      0x40\n      mstore\n      dup1\n        /* \"meta-mall/contracts/test.sol\":2938:2946  _tokenId */\n      dup4\n        /* \"meta-mall/contracts/test.sol\":2904:3015  NftLoasInfo({... */\n      dup2\n      mstore\n      0x20\n      add\n        /* \"meta-mall/contracts/test.sol\":2969:2984  block.timestamp */\n      timestamp\n        /* \"meta-mall/contracts/test.sol\":2904:3015  NftLoasInfo({... */\n      dup2\n      mstore\n      0x20\n      add\n        /* \"meta-mall/contracts/test.sol\":3003:3004  0 */\n      0x00\n        /* \"meta-mall/contracts/test.sol\":2904:3015  NftLoasInfo({... */\n      dup2\n      mstore\n      pop\n        /* \"meta-mall/contracts/test.sol\":2878:3015  NftLoasInfo memory info = NftLoasInfo({... */\n      swap1\n      pop\n        /* \"meta-mall/contracts/test.sol\":3025:3030  loans */\n      0x0b\n        /* \"meta-mall/contracts/test.sol\":3025:3042  loans[msg.sender] */\n      0x00\n        /* \"meta-mall/contracts/test.sol\":3031:3041  msg.sender */\n      caller\n        /* \"meta-mall/contracts/test.sol\":3025:3042  loans[msg.sender] */\n      0xffffffffffffffffffffffffffffffffffffffff\n      and\n      0xffffffffffffffffffffffffffffffffffffffff\n      and\n      dup2\n      mstore\n      0x20\n      add\n      swap1\n      dup2\n      mstore\n      0x20\n      add\n      0x00\n      keccak256\n        /* \"meta-mall/contracts/test.sol\":3048:3052  info */\n      dup2\n        /* \"meta-mall/contracts/test.sol\":3025:3053  loans[msg.sender].push(info) */\n      swap1\n      dup1\n      0x01\n      dup2\n      sload\n      add\n      dup1\n      dup3\n      sstore\n      dup1\n      swap2\n      pop\n      pop\n      0x01\n      swap1\n      sub\n      swap1\n      0x00\n      mstore\n      keccak256(0x00, 0x20)\n      swap1\n      0x03\n      mul\n      add\n      0x00\n      swap1\n      swap2\n      swap1\n      swap2\n      swap1\n      swap2\n      pop\n      0x00\n      dup3\n      add\n      mload\n      dup2\n      0x00\n      add\n      sstore\n      0x20\n      dup3\n      add\n      mload\n      dup2\n      0x01\n      add\n      sstore\n      0x40\n      dup3\n      add\n      mload\n      dup2\n      0x02\n      add\n      sstore\n      pop\n      pop\n        /* \"meta-mall/contracts/test.sol\":2867:3056  {... */\n      pop\n        /* \"meta-mall/contracts/test.sol\":2809:3056  function testAddLoans(uint256  _tokenId) external payable {... */\n      pop\n      jump\t// out\n        /* \"meta-mall/contracts/test.sol\":1953:1979  IERC721 public nftContract */\n    tag_115:\n      0x0a\n      0x00\n      swap1\n      sload\n      swap1\n      0x0100\n      exp\n      swap1\n      div\n      0xffffffffffffffffffffffffffffffffffffffff\n      and\n      dup2\n      jump\t// out\n        /* \"meta-mall/contracts/test.sol\":1022:1209  function allowance(address _owner, address _spender) public view returns (uint256 remaining) {... */\n    tag_122:\n        /* \"meta-mall/contracts/test.sol\":1096:1113  uint256 remaining */\n      0x00\n        /* \"meta-mall/contracts/test.sol\":1132:1139  allowed */\n      0x05\n        /* \"meta-mall/contracts/test.sol\":1132:1147  allowed[_owner] */\n      0x00\n        /* \"meta-mall/contracts/test.sol\":1140:1146  _owner */\n      dup5\n        /* \"meta-mall/contracts/test.sol\":1132:1147  allowed[_owner] */\n      0xffffffffffffffffffffffffffffffffffffffff\n      and\n      0xffffffffffffffffffffffffffffffffffffffff\n      and\n      dup2\n      mstore\n      0x20\n      add\n      swap1\n      dup2\n      mstore\n      0x20\n      add\n      0x00\n      keccak256\n        /* \"meta-mall/contracts/test.sol\":1132:1157  allowed[_owner][_spender] */\n      0x00\n        /* \"meta-mall/contracts/test.sol\":1148:1156  _spender */\n      dup4\n        /* \"meta-mall/contracts/test.sol\":1132:1157  allowed[_owner][_spender] */\n      0xffffffffffffffffffffffffffffffffffffffff\n      and\n      0xffffffffffffffffffffffffffffffffffffffff\n      and\n      dup2\n      mstore\n      0x20\n      add\n      swap1\n      dup2\n      mstore\n      0x20\n      add\n      0x00\n      keccak256\n      sload\n        /* \"meta-mall/contracts/test.sol\":1125:1157  return allowed[_owner][_spender] */\n      swap1\n      pop\n        /* \"meta-mall/contracts/test.sol\":1022:1209  function allowance(address _owner, address _spender) public view returns (uint256 remaining) {... */\n      swap3\n      swap2\n      pop\n      pop\n      jump\t// out\n        /* \"meta-mall/contracts/test.sol\":5802:6411  function depositNFT(uint256  _tokenId) external payable {... */\n    tag_126:\n        /* \"meta-mall/contracts/test.sol\":5899:5902  nft */\n      0x0d\n      0x00\n      swap1\n      sload\n      swap1\n      0x0100\n      exp\n      swap1\n      div\n      0xffffffffffffffffffffffffffffffffffffffff\n      and\n        /* \"meta-mall/contracts/test.sol\":5877:5888  nftContract */\n      0x0a\n      0x00\n        /* \"meta-mall/contracts/test.sol\":5877:5903  nftContract = IERC721(nft) */\n      0x0100\n      exp\n      dup2\n      sload\n      dup2\n      0xffffffffffffffffffffffffffffffffffffffff\n      mul\n      not\n      and\n      swap1\n      dup4\n      0xffffffffffffffffffffffffffffffffffffffff\n      and\n      mul\n      or\n      swap1\n      sstore\n      pop\n        /* \"meta-mall/contracts/test.sol\":5962:5972  msg.sender */\n      caller\n        /* \"meta-mall/contracts/test.sol\":5929:5972  nftContract.ownerOf(_tokenId) == msg.sender */\n      0xffffffffffffffffffffffffffffffffffffffff\n      and\n        /* \"meta-mall/contracts/test.sol\":5929:5940  nftContract */\n      0x0a\n      0x00\n      swap1\n      sload\n      swap1\n      0x0100\n      exp\n      swap1\n      div\n      0xffffffffffffffffffffffffffffffffffffffff\n      and\n        /* \"meta-mall/contracts/test.sol\":5929:5948  nftContract.ownerOf */\n      0xffffffffffffffffffffffffffffffffffffffff\n      and\n      0x6352211e\n        /* \"meta-mall/contracts/test.sol\":5949:5957  _tokenId */\n      dup4\n        /* \"meta-mall/contracts/test.sol\":5929:5958  nftContract.ownerOf(_tokenId) */\n      mload(0x40)\n      dup3\n      0xffffffff\n      and\n      0xe0\n      shl\n      dup2\n      mstore\n      0x04\n      add\n      tag_223\n      swap2\n      swap1\n      tag_53\n      jump\t// in\n    tag_223:\n      0x20\n      mload(0x40)\n      dup1\n      dup4\n      sub\n      dup2\n      dup7\n      dup1\n      extcodesize\n      iszero\n      dup1\n      iszero\n      tag_224\n      jumpi\n      0x00\n      dup1\n      revert\n    tag_224:\n      pop\n      gas\n      staticcall\n      iszero\n      dup1\n      iszero\n      tag_226\n      jumpi\n      returndatasize\n      0x00\n      dup1\n      returndatacopy\n      revert(0x00, returndatasize)\n    tag_226:\n      pop\n      pop\n      pop\n      pop\n      mload(0x40)\n      returndatasize\n      not(0x1f)\n      0x1f\n      dup3\n      add\n      and\n      dup3\n      add\n      dup1\n      0x40\n      mstore\n      pop\n      dup2\n      add\n      swap1\n      tag_227\n      swap2\n      swap1\n      tag_201\n      jump\t// in\n    tag_227:\n        /* \"meta-mall/contracts/test.sol\":5929:5972  nftContract.ownerOf(_tokenId) == msg.sender */\n      0xffffffffffffffffffffffffffffffffffffffff\n      and\n      eq\n        /* \"meta-mall/contracts/test.sol\":5921:5999  require(nftContract.ownerOf(_tokenId) == msg.sender, \"You don't own this NFT\") */\n      tag_228\n      jumpi\n      mload(0x40)\n      0x08c379a000000000000000000000000000000000000000000000000000000000\n      dup2\n      mstore\n      0x04\n      add\n      tag_229\n      swap1\n      tag_230\n      jump\t// in\n    tag_229:\n      mload(0x40)\n      dup1\n      swap2\n      sub\n      swap1\n      revert\n    tag_228:\n        /* \"meta-mall/contracts/test.sol\":6017:6044  NftLoasInfo memory newLoans */\n      tag_231\n      tag_232\n      jump\t// in\n    tag_231:\n        /* \"meta-mall/contracts/test.sol\":6062:6078  uint256 nowNumer */\n      0x00\n        /* \"meta-mall/contracts/test.sol\":6081:6092  loansNumber */\n      0x0c\n        /* \"meta-mall/contracts/test.sol\":6081:6104  loansNumber[msg.sender] */\n      0x00\n        /* \"meta-mall/contracts/test.sol\":6093:6103  msg.sender */\n      caller\n        /* \"meta-mall/contracts/test.sol\":6081:6104  loansNumber[msg.sender] */\n      0xffffffffffffffffffffffffffffffffffffffff\n      and\n      0xffffffffffffffffffffffffffffffffffffffff\n      and\n      dup2\n      mstore\n      0x20\n      add\n      swap1\n      dup2\n      mstore\n      0x20\n      add\n      0x00\n      keccak256\n      sload\n        /* \"meta-mall/contracts/test.sol\":6062:6104  uint256 nowNumer = loansNumber[msg.sender] */\n      swap1\n      pop\n        /* \"meta-mall/contracts/test.sol\":6141:6149  _tokenId */\n      dup3\n        /* \"meta-mall/contracts/test.sol\":6122:6130  newLoans */\n      dup3\n        /* \"meta-mall/contracts/test.sol\":6122:6138  newLoans.tokenId */\n      0x00\n      add\n        /* \"meta-mall/contracts/test.sol\":6122:6149  newLoans.tokenId = _tokenId */\n      dup2\n      dup2\n      mstore\n      pop\n      pop\n        /* \"meta-mall/contracts/test.sol\":6187:6202  block.timestamp */\n      timestamp\n        /* \"meta-mall/contracts/test.sol\":6167:6175  newLoans */\n      dup3\n        /* \"meta-mall/contracts/test.sol\":6167:6184  newLoans.loanTime */\n      0x20\n      add\n        /* \"meta-mall/contracts/test.sol\":6167:6202  newLoans.loanTime = block.timestamp */\n      dup2\n      dup2\n      mstore\n      pop\n      pop\n        /* \"meta-mall/contracts/test.sol\":6236:6237  1 */\n      0x01\n        /* \"meta-mall/contracts/test.sol\":6220:6228  newLoans */\n      dup3\n        /* \"meta-mall/contracts/test.sol\":6220:6233  newLoans.flag */\n      0x40\n      add\n        /* \"meta-mall/contracts/test.sol\":6220:6237  newLoans.flag = 1 */\n      dup2\n      dup2\n      mstore\n      pop\n      pop\n        /* \"meta-mall/contracts/test.sol\":6285:6293  newLoans */\n      dup2\n        /* \"meta-mall/contracts/test.sol\":6255:6260  loans */\n      0x0b\n        /* \"meta-mall/contracts/test.sol\":6255:6272  loans[msg.sender] */\n      0x00\n        /* \"meta-mall/contracts/test.sol\":6261:6271  msg.sender */\n      caller\n        /* \"meta-mall/contracts/test.sol\":6255:6272  loans[msg.sender] */\n      0xffffffffffffffffffffffffffffffffffffffff\n      and\n      0xffffffffffffffffffffffffffffffffffffffff\n      and\n      dup2\n      mstore\n      0x20\n      add\n      swap1\n      dup2\n      mstore\n      0x20\n      add\n      0x00\n      keccak256\n        /* \"meta-mall/contracts/test.sol\":6273:6281  nowNumer */\n      dup3\n        /* \"meta-mall/contracts/test.sol\":6255:6282  loans[msg.sender][nowNumer] */\n      dup2\n      sload\n      dup2\n      lt\n      tag_233\n      jumpi\n      tag_234\n      tag_142\n      jump\t// in\n    tag_234:\n    tag_233:\n      swap1\n      0x00\n      mstore\n      keccak256(0x00, 0x20)\n      swap1\n      0x03\n      mul\n      add\n        /* \"meta-mall/contracts/test.sol\":6255:6293  loans[msg.sender][nowNumer] = newLoans */\n      0x00\n      dup3\n      add\n      mload\n      dup2\n      0x00\n      add\n      sstore\n      0x20\n      dup3\n      add\n      mload\n      dup2\n      0x01\n      add\n      sstore\n      0x40\n      dup3\n      add\n      mload\n      dup2\n      0x02\n      add\n      sstore\n      swap1\n      pop\n      pop\n        /* \"meta-mall/contracts/test.sol\":6338:6339  1 */\n      0x01\n        /* \"meta-mall/contracts/test.sol\":6311:6322  loansNumber */\n      0x0c\n        /* \"meta-mall/contracts/test.sol\":6311:6334  loansNumber[msg.sender] */\n      0x00\n        /* \"meta-mall/contracts/test.sol\":6323:6333  msg.sender */\n      caller\n        /* \"meta-mall/contracts/test.sol\":6311:6334  loansNumber[msg.sender] */\n      0xffffffffffffffffffffffffffffffffffffffff\n      and\n      0xffffffffffffffffffffffffffffffffffffffff\n      and\n      dup2\n      mstore\n      0x20\n      add\n      swap1\n      dup2\n      mstore\n      0x20\n      add\n      0x00\n      keccak256\n      0x00\n        /* \"meta-mall/contracts/test.sol\":6311:6339  loansNumber[msg.sender] += 1 */\n      dup3\n      dup3\n      sload\n      tag_236\n      swap2\n      swap1\n      tag_237\n      jump\t// in\n    tag_236:\n      swap3\n      pop\n      pop\n      dup2\n      swap1\n      sstore\n      pop\n        /* \"meta-mall/contracts/test.sol\":6357:6368  nftContract */\n      0x0a\n      0x00\n      swap1\n      sload\n      swap1\n      0x0100\n      exp\n      swap1\n      div\n      0xffffffffffffffffffffffffffffffffffffffff\n      and\n        /* \"meta-mall/contracts/test.sol\":6357:6376  nftContract.approve */\n      0xffffffffffffffffffffffffffffffffffffffff\n      and\n      0x095ea7b3\n        /* \"meta-mall/contracts/test.sol\":6385:6389  this */\n      address\n        /* \"meta-mall/contracts/test.sol\":6392:6400  _tokenId */\n      dup6\n        /* \"meta-mall/contracts/test.sol\":6357:6401  nftContract.approve(address(this), _tokenId) */\n      mload(0x40)\n      dup4\n      0xffffffff\n      and\n      0xe0\n      shl\n      dup2\n      mstore\n      0x04\n      add\n      tag_238\n      swap3\n      swap2\n      swap1\n      tag_155\n      jump\t// in\n    tag_238:\n      0x00\n      mload(0x40)\n      dup1\n      dup4\n      sub\n      dup2\n      0x00\n      dup8\n      dup1\n      extcodesize\n      iszero\n      dup1\n      iszero\n      tag_239\n      jumpi\n      0x00\n      dup1\n      revert\n    tag_239:\n      pop\n      gas\n      call\n      iszero\n      dup1\n      iszero\n      tag_241\n      jumpi\n      returndatasize\n      0x00\n      dup1\n      returndatacopy\n      revert(0x00, returndatasize)\n    tag_241:\n      pop\n      pop\n      pop\n      pop\n        /* \"meta-mall/contracts/test.sol\":5858:6411  {... */\n      pop\n      pop\n        /* \"meta-mall/contracts/test.sol\":5802:6411  function depositNFT(uint256  _tokenId) external payable {... */\n      pop\n      jump\t// out\n        /* \"meta-mall/contracts/test.sol\":7933:8229  function loansCount(address user) public view returns (uint256){... */\n    tag_130:\n        /* \"meta-mall/contracts/test.sol\":7988:7995  uint256 */\n      0x00\n        /* \"meta-mall/contracts/test.sol\":8002:8018  uint256 nowNumer */\n      dup1\n        /* \"meta-mall/contracts/test.sol\":8021:8032  loansNumber */\n      0x0c\n        /* \"meta-mall/contracts/test.sol\":8021:8038  loansNumber[user] */\n      0x00\n        /* \"meta-mall/contracts/test.sol\":8033:8037  user */\n      dup5\n        /* \"meta-mall/contracts/test.sol\":8021:8038  loansNumber[user] */\n      0xffffffffffffffffffffffffffffffffffffffff\n      and\n      0xffffffffffffffffffffffffffffffffffffffff\n      and\n      dup2\n      mstore\n      0x20\n      add\n      swap1\n      dup2\n      mstore\n      0x20\n      add\n      0x00\n      keccak256\n      sload\n        /* \"meta-mall/contracts/test.sol\":8002:8038  uint256 nowNumer = loansNumber[user] */\n      swap1\n      pop\n        /* \"meta-mall/contracts/test.sol\":8049:8055  uint i */\n      0x00\n        /* \"meta-mall/contracts/test.sol\":8044:8206  for (uint i = 0; i < nowNumer; ++i ) {... */\n    tag_243:\n        /* \"meta-mall/contracts/test.sol\":8065:8073  nowNumer */\n      dup2\n        /* \"meta-mall/contracts/test.sol\":8061:8062  i */\n      dup2\n        /* \"meta-mall/contracts/test.sol\":8061:8073  i < nowNumer */\n      lt\n        /* \"meta-mall/contracts/test.sol\":8044:8206  for (uint i = 0; i < nowNumer; ++i ) {... */\n      iszero\n      tag_244\n      jumpi\n        /* \"meta-mall/contracts/test.sol\":8121:8122  0 */\n      0x00\n        /* \"meta-mall/contracts/test.sol\":8098:8103  loans */\n      0x0b\n        /* \"meta-mall/contracts/test.sol\":8098:8109  loans[user] */\n      0x00\n        /* \"meta-mall/contracts/test.sol\":8104:8108  user */\n      dup7\n        /* \"meta-mall/contracts/test.sol\":8098:8109  loans[user] */\n      0xffffffffffffffffffffffffffffffffffffffff\n      and\n      0xffffffffffffffffffffffffffffffffffffffff\n      and\n      dup2\n      mstore\n      0x20\n      add\n      swap1\n      dup2\n      mstore\n      0x20\n      add\n      0x00\n      keccak256\n        /* \"meta-mall/contracts/test.sol\":8110:8111  i */\n      dup3\n        /* \"meta-mall/contracts/test.sol\":8098:8112  loans[user][i] */\n      dup2\n      sload\n      dup2\n      lt\n      tag_246\n      jumpi\n      tag_247\n      tag_142\n      jump\t// in\n    tag_247:\n    tag_246:\n      swap1\n      0x00\n      mstore\n      keccak256(0x00, 0x20)\n      swap1\n      0x03\n      mul\n      add\n        /* \"meta-mall/contracts/test.sol\":8098:8117  loans[user][i].flag */\n      0x02\n      add\n      sload\n        /* \"meta-mall/contracts/test.sol\":8098:8122  loans[user][i].flag == 0 */\n      eq\n        /* \"meta-mall/contracts/test.sol\":8095:8170  if(loans[user][i].flag == 0){... */\n      iszero\n      tag_249\n      jumpi\n        /* \"meta-mall/contracts/test.sol\":8141:8151  nowNumer-- */\n      dup2\n      dup1\n      tag_250\n      swap1\n      tag_251\n      jump\t// in\n    tag_250:\n      swap3\n      pop\n      pop\n        /* \"meta-mall/contracts/test.sol\":8095:8170  if(loans[user][i].flag == 0){... */\n    tag_249:\n        /* \"meta-mall/contracts/test.sol\":8075:8078  ++i */\n      dup1\n      tag_252\n      swap1\n      tag_160\n      jump\t// in\n    tag_252:\n      swap1\n      pop\n        /* \"meta-mall/contracts/test.sol\":8044:8206  for (uint i = 0; i < nowNumer; ++i ) {... */\n      jump(tag_243)\n    tag_244:\n      pop\n        /* \"meta-mall/contracts/test.sol\":8218:8226  nowNumer */\n      dup1\n        /* \"meta-mall/contracts/test.sol\":8211:8226  return nowNumer */\n      swap2\n      pop\n      pop\n        /* \"meta-mall/contracts/test.sol\":7933:8229  function loansCount(address user) public view returns (uint256){... */\n      swap2\n      swap1\n      pop\n      jump\t// out\n        /* \"meta-mall/contracts/test.sol\":8707:8880  function div(uint256 a, uint256 b) internal pure returns (uint256) {... */\n    tag_178:\n        /* \"meta-mall/contracts/test.sol\":8765:8772  uint256 */\n      0x00\n        /* \"meta-mall/contracts/test.sol\":8796:8797  0 */\n      dup1\n        /* \"meta-mall/contracts/test.sol\":8792:8793  b */\n      dup3\n        /* \"meta-mall/contracts/test.sol\":8792:8797  b > 0 */\n      gt\n        /* \"meta-mall/contracts/test.sol\":8784:8828  require(b > 0, \"SafeMath:division overflow\") */\n      tag_254\n      jumpi\n      mload(0x40)\n      0x08c379a000000000000000000000000000000000000000000000000000000000\n      dup2\n      mstore\n      0x04\n      add\n      tag_255\n      swap1\n      tag_256\n      jump\t// in\n    tag_255:\n      mload(0x40)\n      dup1\n      swap2\n      sub\n      swap1\n      revert\n    tag_254:\n        /* \"meta-mall/contracts/test.sol\":8838:8847  uint256 c */\n      0x00\n        /* \"meta-mall/contracts/test.sol\":8854:8855  b */\n      dup3\n        /* \"meta-mall/contracts/test.sol\":8850:8851  a */\n      dup5\n        /* \"meta-mall/contracts/test.sol\":8850:8855  a / b */\n      tag_257\n      swap2\n      swap1\n      tag_258\n      jump\t// in\n    tag_257:\n        /* \"meta-mall/contracts/test.sol\":8838:8855  uint256 c = a / b */\n      swap1\n      pop\n        /* \"meta-mall/contracts/test.sol\":8872:8873  c */\n      dup1\n        /* \"meta-mall/contracts/test.sol\":8865:8873  return c */\n      swap2\n      pop\n      pop\n        /* \"meta-mall/contracts/test.sol\":8707:8880  function div(uint256 a, uint256 b) internal pure returns (uint256) {... */\n      swap3\n      swap2\n      pop\n      pop\n      jump\t// out\n        /* \"meta-mall/contracts/test.sol\":4385:5166  function _transferFrom(address _from, address _to, uint256 _value,uint256 tax) internal returns ... */\n    tag_180:\n        /* \"meta-mall/contracts/test.sol\":4487:4499  bool success */\n      0x00\n        /* \"meta-mall/contracts/test.sol\":4538:4544  _value */\n      dup3\n        /* \"meta-mall/contracts/test.sol\":4519:4527  balances */\n      0x04\n        /* \"meta-mall/contracts/test.sol\":4519:4534  balances[_from] */\n      0x00\n        /* \"meta-mall/contracts/test.sol\":4528:4533  _from */\n      dup8\n        /* \"meta-mall/contracts/test.sol\":4519:4534  balances[_from] */\n      0xffffffffffffffffffffffffffffffffffffffff\n      and\n      0xffffffffffffffffffffffffffffffffffffffff\n      and\n      dup2\n      mstore\n      0x20\n      add\n      swap1\n      dup2\n      mstore\n      0x20\n      add\n      0x00\n      keccak256\n      sload\n        /* \"meta-mall/contracts/test.sol\":4519:4544  balances[_from] >= _value */\n      lt\n      iszero\n        /* \"meta-mall/contracts/test.sol\":4519:4584  balances[_from] >= _value && allowed[_from][msg.sender] >= _value */\n      dup1\n      iszero\n      tag_260\n      jumpi\n      pop\n        /* \"meta-mall/contracts/test.sol\":4578:4584  _value */\n      dup3\n        /* \"meta-mall/contracts/test.sol\":4548:4555  allowed */\n      0x05\n        /* \"meta-mall/contracts/test.sol\":4548:4562  allowed[_from] */\n      0x00\n        /* \"meta-mall/contracts/test.sol\":4556:4561  _from */\n      dup8\n        /* \"meta-mall/contracts/test.sol\":4548:4562  allowed[_from] */\n      0xffffffffffffffffffffffffffffffffffffffff\n      and\n      0xffffffffffffffffffffffffffffffffffffffff\n      and\n      dup2\n      mstore\n      0x20\n      add\n      swap1\n      dup2\n      mstore\n      0x20\n      add\n      0x00\n      keccak256\n        /* \"meta-mall/contracts/test.sol\":4548:4574  allowed[_from][msg.sender] */\n      0x00\n        /* \"meta-mall/contracts/test.sol\":4563:4573  msg.sender */\n      caller\n        /* \"meta-mall/contracts/test.sol\":4548:4574  allowed[_from][msg.sender] */\n      0xffffffffffffffffffffffffffffffffffffffff\n      and\n      0xffffffffffffffffffffffffffffffffffffffff\n      and\n      dup2\n      mstore\n      0x20\n      add\n      swap1\n      dup2\n      mstore\n      0x20\n      add\n      0x00\n      keccak256\n      sload\n        /* \"meta-mall/contracts/test.sol\":4548:4584  allowed[_from][msg.sender] >= _value */\n      lt\n      iszero\n        /* \"meta-mall/contracts/test.sol\":4519:4584  balances[_from] >= _value && allowed[_from][msg.sender] >= _value */\n    tag_260:\n        /* \"meta-mall/contracts/test.sol\":4511:4606  require(balances[_from] >= _value && allowed[_from][msg.sender] >= _value,\"Insufficient funds\") */\n      tag_261\n      jumpi\n      mload(0x40)\n      0x08c379a000000000000000000000000000000000000000000000000000000000\n      dup2\n      mstore\n      0x04\n      add\n      tag_262\n      swap1\n      tag_263\n      jump\t// in\n    tag_262:\n      mload(0x40)\n      dup1\n      swap2\n      sub\n      swap1\n      revert\n    tag_261:\n        /* \"meta-mall/contracts/test.sol\":4660:4666  _value */\n      dup3\n        /* \"meta-mall/contracts/test.sol\":4624:4631  details */\n      0x08\n        /* \"meta-mall/contracts/test.sol\":4624:4638  details[_from] */\n      0x00\n        /* \"meta-mall/contracts/test.sol\":4632:4637  _from */\n      dup8\n        /* \"meta-mall/contracts/test.sol\":4624:4638  details[_from] */\n      0xffffffffffffffffffffffffffffffffffffffff\n      and\n      0xffffffffffffffffffffffffffffffffffffffff\n      and\n      dup2\n      mstore\n      0x20\n      add\n      swap1\n      dup2\n      mstore\n      0x20\n      add\n      0x00\n      keccak256\n        /* \"meta-mall/contracts/test.sol\":4624:4656  details[_from].avilable_balances */\n      0x01\n      add\n      sload\n        /* \"meta-mall/contracts/test.sol\":4624:4666  details[_from].avilable_balances >= _value */\n      lt\n      iszero\n        /* \"meta-mall/contracts/test.sol\":4616:4688  require(details[_from].avilable_balances >= _value,\"Insufficient funds\") */\n      tag_264\n      jumpi\n      mload(0x40)\n      0x08c379a000000000000000000000000000000000000000000000000000000000\n      dup2\n      mstore\n      0x04\n      add\n      tag_265\n      swap1\n      tag_263\n      jump\t// in\n    tag_265:\n      mload(0x40)\n      dup1\n      swap2\n      sub\n      swap1\n      revert\n    tag_264:\n        /* \"meta-mall/contracts/test.sol\":4717:4723  _value */\n      dup3\n        /* \"meta-mall/contracts/test.sol\":4698:4706  balances */\n      0x04\n        /* \"meta-mall/contracts/test.sol\":4698:4713  balances[_from] */\n      0x00\n        /* \"meta-mall/contracts/test.sol\":4707:4712  _from */\n      dup8\n        /* \"meta-mall/contracts/test.sol\":4698:4713  balances[_from] */\n      0xffffffffffffffffffffffffffffffffffffffff\n      and\n      0xffffffffffffffffffffffffffffffffffffffff\n      and\n      dup2\n      mstore\n      0x20\n      add\n      swap1\n      dup2\n      mstore\n      0x20\n      add\n      0x00\n      keccak256\n      0x00\n        /* \"meta-mall/contracts/test.sol\":4698:4723  balances[_from] -= _value */\n      dup3\n      dup3\n      sload\n      tag_266\n      swap2\n      swap1\n      tag_267\n      jump\t// in\n    tag_266:\n      swap3\n      pop\n      pop\n      dup2\n      swap1\n      sstore\n      pop\n        /* \"meta-mall/contracts/test.sol\":4812:4818  _value */\n      dup3\n        /* \"meta-mall/contracts/test.sol\":4776:4783  details */\n      0x08\n        /* \"meta-mall/contracts/test.sol\":4776:4790  details[_from] */\n      0x00\n        /* \"meta-mall/contracts/test.sol\":4784:4789  _from */\n      dup8\n        /* \"meta-mall/contracts/test.sol\":4776:4790  details[_from] */\n      0xffffffffffffffffffffffffffffffffffffffff\n      and\n      0xffffffffffffffffffffffffffffffffffffffff\n      and\n      dup2\n      mstore\n      0x20\n      add\n      swap1\n      dup2\n      mstore\n      0x20\n      add\n      0x00\n      keccak256\n        /* \"meta-mall/contracts/test.sol\":4776:4808  details[_from].avilable_balances */\n      0x01\n      add\n      0x00\n        /* \"meta-mall/contracts/test.sol\":4776:4818  details[_from].avilable_balances -= _value */\n      dup3\n      dup3\n      sload\n      tag_268\n      swap2\n      swap1\n      tag_267\n      jump\t// in\n    tag_268:\n      swap3\n      pop\n      pop\n      dup2\n      swap1\n      sstore\n      pop\n        /* \"meta-mall/contracts/test.sol\":4845:4860  _value.sub(tax) */\n      tag_269\n        /* \"meta-mall/contracts/test.sol\":4856:4859  tax */\n      dup3\n        /* \"meta-mall/contracts/test.sol\":4845:4851  _value */\n      dup5\n        /* \"meta-mall/contracts/test.sol\":4845:4855  _value.sub */\n      tag_270\n      swap1\n        /* \"meta-mall/contracts/test.sol\":4845:4860  _value.sub(tax) */\n      swap2\n      swap1\n      0xffffffff\n      and\n      jump\t// in\n    tag_269:\n        /* \"meta-mall/contracts/test.sol\":4828:4836  balances */\n      0x04\n        /* \"meta-mall/contracts/test.sol\":4828:4841  balances[_to] */\n      0x00\n        /* \"meta-mall/contracts/test.sol\":4837:4840  _to */\n      dup7\n        /* \"meta-mall/contracts/test.sol\":4828:4841  balances[_to] */\n      0xffffffffffffffffffffffffffffffffffffffff\n      and\n      0xffffffffffffffffffffffffffffffffffffffff\n      and\n      dup2\n      mstore\n      0x20\n      add\n      swap1\n      dup2\n      mstore\n      0x20\n      add\n      0x00\n      keccak256\n      0x00\n        /* \"meta-mall/contracts/test.sol\":4828:4860  balances[_to] += _value.sub(tax) */\n      dup3\n      dup3\n      sload\n      tag_271\n      swap2\n      swap1\n      tag_237\n      jump\t// in\n    tag_271:\n      swap3\n      pop\n      pop\n      dup2\n      swap1\n      sstore\n      pop\n        /* \"meta-mall/contracts/test.sol\":4941:4956  _value.sub(tax) */\n      tag_272\n        /* \"meta-mall/contracts/test.sol\":4952:4955  tax */\n      dup3\n        /* \"meta-mall/contracts/test.sol\":4941:4947  _value */\n      dup5\n        /* \"meta-mall/contracts/test.sol\":4941:4951  _value.sub */\n      tag_270\n      swap1\n        /* \"meta-mall/contracts/test.sol\":4941:4956  _value.sub(tax) */\n      swap2\n      swap1\n      0xffffffff\n      and\n      jump\t// in\n    tag_272:\n        /* \"meta-mall/contracts/test.sol\":4907:4914  details */\n      0x08\n        /* \"meta-mall/contracts/test.sol\":4907:4919  details[_to] */\n      0x00\n        /* \"meta-mall/contracts/test.sol\":4915:4918  _to */\n      dup7\n        /* \"meta-mall/contracts/test.sol\":4907:4919  details[_to] */\n      0xffffffffffffffffffffffffffffffffffffffff\n      and\n      0xffffffffffffffffffffffffffffffffffffffff\n      and\n      dup2\n      mstore\n      0x20\n      add\n      swap1\n      dup2\n      mstore\n      0x20\n      add\n      0x00\n      keccak256\n        /* \"meta-mall/contracts/test.sol\":4907:4937  details[_to].avilable_balances */\n      0x01\n      add\n      0x00\n        /* \"meta-mall/contracts/test.sol\":4907:4956  details[_to].avilable_balances += _value.sub(tax) */\n      dup3\n      dup3\n      sload\n      tag_273\n      swap2\n      swap1\n      tag_237\n      jump\t// in\n    tag_273:\n      swap3\n      pop\n      pop\n      dup2\n      swap1\n      sstore\n      pop\n        /* \"meta-mall/contracts/test.sol\":4996:5002  _value */\n      dup3\n        /* \"meta-mall/contracts/test.sol\":4966:4973  allowed */\n      0x05\n        /* \"meta-mall/contracts/test.sol\":4966:4980  allowed[_from] */\n      0x00\n        /* \"meta-mall/contracts/test.sol\":4974:4979  _from */\n      dup8\n        /* \"meta-mall/contracts/test.sol\":4966:4980  allowed[_from] */\n      0xffffffffffffffffffffffffffffffffffffffff\n      and\n      0xffffffffffffffffffffffffffffffffffffffff\n      and\n      dup2\n      mstore\n      0x20\n      add\n      swap1\n      dup2\n      mstore\n      0x20\n      add\n      0x00\n      keccak256\n        /* \"meta-mall/contracts/test.sol\":4966:4992  allowed[_from][msg.sender] */\n      0x00\n        /* \"meta-mall/contracts/test.sol\":4981:4991  msg.sender */\n      caller\n        /* \"meta-mall/contracts/test.sol\":4966:4992  allowed[_from][msg.sender] */\n      0xffffffffffffffffffffffffffffffffffffffff\n      and\n      0xffffffffffffffffffffffffffffffffffffffff\n      and\n      dup2\n      mstore\n      0x20\n      add\n      swap1\n      dup2\n      mstore\n      0x20\n      add\n      0x00\n      keccak256\n      0x00\n        /* \"meta-mall/contracts/test.sol\":4966:5002  allowed[_from][msg.sender] -= _value */\n      dup3\n      dup3\n      sload\n      tag_274\n      swap2\n      swap1\n      tag_267\n      jump\t// in\n    tag_274:\n      swap3\n      pop\n      pop\n      dup2\n      swap1\n      sstore\n      pop\n        /* \"meta-mall/contracts/test.sol\":5084:5112  Transfer(_from, _to, _value) */\n      0xddf252ad1be2c89b69c2b068fc378daa952ba7f163c4a11628f55a4df523b3ef\n        /* \"meta-mall/contracts/test.sol\":5093:5098  _from */\n      dup6\n        /* \"meta-mall/contracts/test.sol\":5100:5103  _to */\n      dup6\n        /* \"meta-mall/contracts/test.sol\":5105:5111  _value */\n      dup6\n        /* \"meta-mall/contracts/test.sol\":5084:5112  Transfer(_from, _to, _value) */\n      mload(0x40)\n      tag_275\n      swap4\n      swap3\n      swap2\n      swap1\n      tag_171\n      jump\t// in\n    tag_275:\n      mload(0x40)\n      dup1\n      swap2\n      sub\n      swap1\n      log1\n        /* \"meta-mall/contracts/test.sol\":5155:5159  true */\n      0x01\n        /* \"meta-mall/contracts/test.sol\":5148:5159  return true */\n      swap1\n      pop\n        /* \"meta-mall/contracts/test.sol\":4385:5166  function _transferFrom(address _from, address _to, uint256 _value,uint256 tax) internal returns ... */\n      swap5\n      swap4\n      pop\n      pop\n      pop\n      pop\n      jump\t// out\n        /* \"meta-mall/contracts/test.sol\":5694:5789  function _bind(address _self,address _to) internal{... */\n    tag_194:\n        /* \"meta-mall/contracts/test.sol\":5781:5784  _to */\n      dup1\n        /* \"meta-mall/contracts/test.sol\":5752:5759  details */\n      0x08\n        /* \"meta-mall/contracts/test.sol\":5752:5766  details[_self] */\n      0x00\n        /* \"meta-mall/contracts/test.sol\":5760:5765  _self */\n      dup5\n        /* \"meta-mall/contracts/test.sol\":5752:5766  details[_self] */\n      0xffffffffffffffffffffffffffffffffffffffff\n      and\n      0xffffffffffffffffffffffffffffffffffffffff\n      and\n      dup2\n      mstore\n      0x20\n      add\n      swap1\n      dup2\n      mstore\n      0x20\n      add\n      0x00\n      keccak256\n        /* \"meta-mall/contracts/test.sol\":5752:5778  details[_self].recommender */\n      0x02\n      add\n      0x00\n        /* \"meta-mall/contracts/test.sol\":5752:5784  details[_self].recommender = _to */\n      0x0100\n      exp\n      dup2\n      sload\n      dup2\n      0xffffffffffffffffffffffffffffffffffffffff\n      mul\n      not\n      and\n      swap1\n      dup4\n      0xffffffffffffffffffffffffffffffffffffffff\n      and\n      mul\n      or\n      swap1\n      sstore\n      pop\n        /* \"meta-mall/contracts/test.sol\":5694:5789  function _bind(address _self,address _to) internal{... */\n      pop\n      pop\n      jump\t// out\n        /* \"meta-mall/contracts/test.sol\":3684:4380  function _transfer(address _to, uint256 _value,uint256 tax) internal returns (bool success){... */\n    tag_215:\n        /* \"meta-mall/contracts/test.sol\":3762:3774  bool success */\n      0x00\n        /* \"meta-mall/contracts/test.sol\":3817:3823  _value */\n      dup3\n        /* \"meta-mall/contracts/test.sol\":3793:3801  balances */\n      0x04\n        /* \"meta-mall/contracts/test.sol\":3793:3813  balances[msg.sender] */\n      0x00\n        /* \"meta-mall/contracts/test.sol\":3802:3812  msg.sender */\n      caller\n        /* \"meta-mall/contracts/test.sol\":3793:3813  balances[msg.sender] */\n      0xffffffffffffffffffffffffffffffffffffffff\n      and\n      0xffffffffffffffffffffffffffffffffffffffff\n      and\n      dup2\n      mstore\n      0x20\n      add\n      swap1\n      dup2\n      mstore\n      0x20\n      add\n      0x00\n      keccak256\n      sload\n        /* \"meta-mall/contracts/test.sol\":3793:3823  balances[msg.sender] >= _value */\n      lt\n      iszero\n        /* \"meta-mall/contracts/test.sol\":3793:3865  balances[msg.sender] >= _value && balances[_to] + _value > balances[_to] */\n      dup1\n      iszero\n      tag_278\n      jumpi\n      pop\n        /* \"meta-mall/contracts/test.sol\":3852:3860  balances */\n      0x04\n        /* \"meta-mall/contracts/test.sol\":3852:3865  balances[_to] */\n      0x00\n        /* \"meta-mall/contracts/test.sol\":3861:3864  _to */\n      dup6\n        /* \"meta-mall/contracts/test.sol\":3852:3865  balances[_to] */\n      0xffffffffffffffffffffffffffffffffffffffff\n      and\n      0xffffffffffffffffffffffffffffffffffffffff\n      and\n      dup2\n      mstore\n      0x20\n      add\n      swap1\n      dup2\n      mstore\n      0x20\n      add\n      0x00\n      keccak256\n      sload\n        /* \"meta-mall/contracts/test.sol\":3843:3849  _value */\n      dup4\n        /* \"meta-mall/contracts/test.sol\":3827:3835  balances */\n      0x04\n        /* \"meta-mall/contracts/test.sol\":3827:3840  balances[_to] */\n      0x00\n        /* \"meta-mall/contracts/test.sol\":3836:3839  _to */\n      dup8\n        /* \"meta-mall/contracts/test.sol\":3827:3840  balances[_to] */\n      0xffffffffffffffffffffffffffffffffffffffff\n      and\n      0xffffffffffffffffffffffffffffffffffffffff\n      and\n      dup2\n      mstore\n      0x20\n      add\n      swap1\n      dup2\n      mstore\n      0x20\n      add\n      0x00\n      keccak256\n      sload\n        /* \"meta-mall/contracts/test.sol\":3827:3849  balances[_to] + _value */\n      tag_279\n      swap2\n      swap1\n      tag_237\n      jump\t// in\n    tag_279:\n        /* \"meta-mall/contracts/test.sol\":3827:3865  balances[_to] + _value > balances[_to] */\n      gt\n        /* \"meta-mall/contracts/test.sol\":3793:3865  balances[msg.sender] >= _value && balances[_to] + _value > balances[_to] */\n    tag_278:\n        /* \"meta-mall/contracts/test.sol\":3785:3887  require(balances[msg.sender] >= _value && balances[_to] + _value > balances[_to],\"Insufficient funds\") */\n      tag_280\n      jumpi\n      mload(0x40)\n      0x08c379a000000000000000000000000000000000000000000000000000000000\n      dup2\n      mstore\n      0x04\n      add\n      tag_281\n      swap1\n      tag_263\n      jump\t// in\n    tag_281:\n      mload(0x40)\n      dup1\n      swap2\n      sub\n      swap1\n      revert\n    tag_280:\n        /* \"meta-mall/contracts/test.sol\":3946:3952  _value */\n      dup3\n        /* \"meta-mall/contracts/test.sol\":3905:3912  details */\n      0x08\n        /* \"meta-mall/contracts/test.sol\":3905:3924  details[msg.sender] */\n      0x00\n        /* \"meta-mall/contracts/test.sol\":3913:3923  msg.sender */\n      caller\n        /* \"meta-mall/contracts/test.sol\":3905:3924  details[msg.sender] */\n      0xffffffffffffffffffffffffffffffffffffffff\n      and\n      0xffffffffffffffffffffffffffffffffffffffff\n      and\n      dup2\n      mstore\n      0x20\n      add\n      swap1\n      dup2\n      mstore\n      0x20\n      add\n      0x00\n      keccak256\n        /* \"meta-mall/contracts/test.sol\":3905:3942  details[msg.sender].avilable_balances */\n      0x01\n      add\n      sload\n        /* \"meta-mall/contracts/test.sol\":3905:3952  details[msg.sender].avilable_balances >= _value */\n      lt\n      iszero\n        /* \"meta-mall/contracts/test.sol\":3897:3974  require(details[msg.sender].avilable_balances >= _value,\"Insufficient funds\") */\n      tag_282\n      jumpi\n      mload(0x40)\n      0x08c379a000000000000000000000000000000000000000000000000000000000\n      dup2\n      mstore\n      0x04\n      add\n      tag_283\n      swap1\n      tag_263\n      jump\t// in\n    tag_283:\n      mload(0x40)\n      dup1\n      swap2\n      sub\n      swap1\n      revert\n    tag_282:\n        /* \"meta-mall/contracts/test.sol\":4008:4014  _value */\n      dup3\n        /* \"meta-mall/contracts/test.sol\":3984:3992  balances */\n      0x04\n        /* \"meta-mall/contracts/test.sol\":3984:4004  balances[msg.sender] */\n      0x00\n        /* \"meta-mall/contracts/test.sol\":3993:4003  msg.sender */\n      caller\n        /* \"meta-mall/contracts/test.sol\":3984:4004  balances[msg.sender] */\n      0xffffffffffffffffffffffffffffffffffffffff\n      and\n      0xffffffffffffffffffffffffffffffffffffffff\n      and\n      dup2\n      mstore\n      0x20\n      add\n      swap1\n      dup2\n      mstore\n      0x20\n      add\n      0x00\n      keccak256\n      0x00\n        /* \"meta-mall/contracts/test.sol\":3984:4014  balances[msg.sender] -= _value */\n      dup3\n      dup3\n      sload\n      tag_284\n      swap2\n      swap1\n      tag_267\n      jump\t// in\n    tag_284:\n      swap3\n      pop\n      pop\n      dup2\n      swap1\n      sstore\n      pop\n        /* \"meta-mall/contracts/test.sol\":4123:4129  _value */\n      dup3\n        /* \"meta-mall/contracts/test.sol\":4082:4089  details */\n      0x08\n        /* \"meta-mall/contracts/test.sol\":4082:4101  details[msg.sender] */\n      0x00\n        /* \"meta-mall/contracts/test.sol\":4090:4100  msg.sender */\n      caller\n        /* \"meta-mall/contracts/test.sol\":4082:4101  details[msg.sender] */\n      0xffffffffffffffffffffffffffffffffffffffff\n      and\n      0xffffffffffffffffffffffffffffffffffffffff\n      and\n      dup2\n      mstore\n      0x20\n      add\n      swap1\n      dup2\n      mstore\n      0x20\n      add\n      0x00\n      keccak256\n        /* \"meta-mall/contracts/test.sol\":4082:4119  details[msg.sender].avilable_balances */\n      0x01\n      add\n      0x00\n        /* \"meta-mall/contracts/test.sol\":4082:4129  details[msg.sender].avilable_balances -= _value */\n      dup3\n      dup3\n      sload\n      tag_285\n      swap2\n      swap1\n      tag_267\n      jump\t// in\n    tag_285:\n      swap3\n      pop\n      pop\n      dup2\n      swap1\n      sstore\n      pop\n        /* \"meta-mall/contracts/test.sol\":4156:4171  _value.sub(tax) */\n      tag_286\n        /* \"meta-mall/contracts/test.sol\":4167:4170  tax */\n      dup3\n        /* \"meta-mall/contracts/test.sol\":4156:4162  _value */\n      dup5\n        /* \"meta-mall/contracts/test.sol\":4156:4166  _value.sub */\n      tag_270\n      swap1\n        /* \"meta-mall/contracts/test.sol\":4156:4171  _value.sub(tax) */\n      swap2\n      swap1\n      0xffffffff\n      and\n      jump\t// in\n    tag_286:\n        /* \"meta-mall/contracts/test.sol\":4139:4147  balances */\n      0x04\n        /* \"meta-mall/contracts/test.sol\":4139:4152  balances[_to] */\n      0x00\n        /* \"meta-mall/contracts/test.sol\":4148:4151  _to */\n      dup7\n        /* \"meta-mall/contracts/test.sol\":4139:4152  balances[_to] */\n      0xffffffffffffffffffffffffffffffffffffffff\n      and\n      0xffffffffffffffffffffffffffffffffffffffff\n      and\n      dup2\n      mstore\n      0x20\n      add\n      swap1\n      dup2\n      mstore\n      0x20\n      add\n      0x00\n      keccak256\n      0x00\n        /* \"meta-mall/contracts/test.sol\":4139:4171  balances[_to] += _value.sub(tax) */\n      dup3\n      dup3\n      sload\n      tag_287\n      swap2\n      swap1\n      tag_237\n      jump\t// in\n    tag_287:\n      swap3\n      pop\n      pop\n      dup2\n      swap1\n      sstore\n      pop\n        /* \"meta-mall/contracts/test.sol\":4255:4270  _value.sub(tax) */\n      tag_288\n        /* \"meta-mall/contracts/test.sol\":4266:4269  tax */\n      dup3\n        /* \"meta-mall/contracts/test.sol\":4255:4261  _value */\n      dup5\n        /* \"meta-mall/contracts/test.sol\":4255:4265  _value.sub */\n      tag_270\n      swap1\n        /* \"meta-mall/contracts/test.sol\":4255:4270  _value.sub(tax) */\n      swap2\n      swap1\n      0xffffffff\n      and\n      jump\t// in\n    tag_288:\n        /* \"meta-mall/contracts/test.sol\":4221:4228  details */\n      0x08\n        /* \"meta-mall/contracts/test.sol\":4221:4233  details[_to] */\n      0x00\n        /* \"meta-mall/contracts/test.sol\":4229:4232  _to */\n      dup7\n        /* \"meta-mall/contracts/test.sol\":4221:4233  details[_to] */\n      0xffffffffffffffffffffffffffffffffffffffff\n      and\n      0xffffffffffffffffffffffffffffffffffffffff\n      and\n      dup2\n      mstore\n      0x20\n      add\n      swap1\n      dup2\n      mstore\n      0x20\n      add\n      0x00\n      keccak256\n        /* \"meta-mall/contracts/test.sol\":4221:4251  details[_to].avilable_balances */\n      0x01\n      add\n      0x00\n        /* \"meta-mall/contracts/test.sol\":4221:4270  details[_to].avilable_balances += _value.sub(tax) */\n      dup3\n      dup3\n      sload\n      tag_289\n      swap2\n      swap1\n      tag_237\n      jump\t// in\n    tag_289:\n      swap3\n      pop\n      pop\n      dup2\n      swap1\n      sstore\n      pop\n        /* \"meta-mall/contracts/test.sol\":4285:4318  Transfer(msg.sender, _to, _value) */\n      0xddf252ad1be2c89b69c2b068fc378daa952ba7f163c4a11628f55a4df523b3ef\n        /* \"meta-mall/contracts/test.sol\":4294:4304  msg.sender */\n      caller\n        /* \"meta-mall/contracts/test.sol\":4306:4309  _to */\n      dup6\n        /* \"meta-mall/contracts/test.sol\":4311:4317  _value */\n      dup6\n        /* \"meta-mall/contracts/test.sol\":4285:4318  Transfer(msg.sender, _to, _value) */\n      mload(0x40)\n      tag_290\n      swap4\n      swap3\n      swap2\n      swap1\n      tag_171\n      jump\t// in\n    tag_290:\n      mload(0x40)\n      dup1\n      swap2\n      sub\n      swap1\n      log1\n        /* \"meta-mall/contracts/test.sol\":4369:4373  true */\n      0x01\n        /* \"meta-mall/contracts/test.sol\":4362:4373  return true */\n      swap1\n      pop\n        /* \"meta-mall/contracts/test.sol\":3684:4380  function _transfer(address _to, uint256 _value,uint256 tax) internal returns (bool success){... */\n      swap4\n      swap3\n      pop\n      pop\n      pop\n      jump\t// out\n        /* \"meta-mall/contracts/test.sol\":8888:9068  function sub(uint256 a, uint256 b) internal pure returns (uint256) {... */\n    tag_270:\n        /* \"meta-mall/contracts/test.sol\":8946:8953  uint256 */\n      0x00\n        /* \"meta-mall/contracts/test.sol\":8978:8979  a */\n      dup3\n        /* \"meta-mall/contracts/test.sol\":8973:8974  b */\n      dup3\n        /* \"meta-mall/contracts/test.sol\":8973:8979  b <= a */\n      gt\n      iszero\n        /* \"meta-mall/contracts/test.sol\":8965:9014  require(b <= a, \"SafeMath: subtraction overflow\") */\n      tag_292\n      jumpi\n      mload(0x40)\n      0x08c379a000000000000000000000000000000000000000000000000000000000\n      dup2\n      mstore\n      0x04\n      add\n      tag_293\n      swap1\n      tag_294\n      jump\t// in\n    tag_293:\n      mload(0x40)\n      dup1\n      swap2\n      sub\n      swap1\n      revert\n    tag_292:\n        /* \"meta-mall/contracts/test.sol\":9024:9033  uint256 c */\n      0x00\n        /* \"meta-mall/contracts/test.sol\":9040:9041  b */\n      dup3\n        /* \"meta-mall/contracts/test.sol\":9036:9037  a */\n      dup5\n        /* \"meta-mall/contracts/test.sol\":9036:9041  a - b */\n      tag_295\n      swap2\n      swap1\n      tag_267\n      jump\t// in\n    tag_295:\n        /* \"meta-mall/contracts/test.sol\":9024:9041  uint256 c = a - b */\n      swap1\n      pop\n        /* \"meta-mall/contracts/test.sol\":9060:9061  c */\n      dup1\n        /* \"meta-mall/contracts/test.sol\":9053:9061  return c */\n      swap2\n      pop\n      pop\n        /* \"meta-mall/contracts/test.sol\":8888:9068  function sub(uint256 a, uint256 b) internal pure returns (uint256) {... */\n      swap3\n      swap2\n      pop\n      pop\n      jump\t// out\n    tag_232:\n      mload(0x40)\n      dup1\n      0x60\n      add\n      0x40\n      mstore\n      dup1\n      0x00\n      dup2\n      mstore\n      0x20\n      add\n      0x00\n      dup2\n      mstore\n      0x20\n      add\n      0x00\n      dup2\n      mstore\n      pop\n      swap1\n      jump\t// out\n        /* \"#utility.yul\":7:146   */\n    tag_297:\n        /* \"#utility.yul\":53:58   */\n      0x00\n        /* \"#utility.yul\":91:97   */\n      dup2\n        /* \"#utility.yul\":78:98   */\n      calldataload\n        /* \"#utility.yul\":69:98   */\n      swap1\n      pop\n        /* \"#utility.yul\":107:140   */\n      tag_299\n        /* \"#utility.yul\":134:139   */\n      dup2\n        /* \"#utility.yul\":107:140   */\n      tag_300\n      jump\t// in\n    tag_299:\n        /* \"#utility.yul\":7:146   */\n      swap3\n      swap2\n      pop\n      pop\n      jump\t// out\n        /* \"#utility.yul\":152:295   */\n    tag_301:\n        /* \"#utility.yul\":209:214   */\n      0x00\n        /* \"#utility.yul\":240:246   */\n      dup2\n        /* \"#utility.yul\":234:247   */\n      mload\n        /* \"#utility.yul\":225:247   */\n      swap1\n      pop\n        /* \"#utility.yul\":256:289   */\n      tag_303\n        /* \"#utility.yul\":283:288   */\n      dup2\n        /* \"#utility.yul\":256:289   */\n      tag_300\n      jump\t// in\n    tag_303:\n        /* \"#utility.yul\":152:295   */\n      swap3\n      swap2\n      pop\n      pop\n      jump\t// out\n        /* \"#utility.yul\":314:866   */\n    tag_304:\n        /* \"#utility.yul\":371:379   */\n      0x00\n        /* \"#utility.yul\":381:387   */\n      dup1\n        /* \"#utility.yul\":431:434   */\n      dup4\n        /* \"#utility.yul\":424:428   */\n      0x1f\n        /* \"#utility.yul\":416:422   */\n      dup5\n        /* \"#utility.yul\":412:429   */\n      add\n        /* \"#utility.yul\":408:435   */\n      slt\n        /* \"#utility.yul\":398:520   */\n      tag_306\n      jumpi\n        /* \"#utility.yul\":439:518   */\n      tag_307\n      tag_308\n      jump\t// in\n    tag_307:\n        /* \"#utility.yul\":398:520   */\n    tag_306:\n        /* \"#utility.yul\":552:558   */\n      dup3\n        /* \"#utility.yul\":539:559   */\n      calldataload\n        /* \"#utility.yul\":529:559   */\n      swap1\n      pop\n        /* \"#utility.yul\":582:600   */\n      0xffffffffffffffff\n        /* \"#utility.yul\":574:580   */\n      dup2\n        /* \"#utility.yul\":571:601   */\n      gt\n        /* \"#utility.yul\":568:685   */\n      iszero\n      tag_309\n      jumpi\n        /* \"#utility.yul\":604:683   */\n      tag_310\n      tag_311\n      jump\t// in\n    tag_310:\n        /* \"#utility.yul\":568:685   */\n    tag_309:\n        /* \"#utility.yul\":718:722   */\n      0x20\n        /* \"#utility.yul\":710:716   */\n      dup4\n        /* \"#utility.yul\":706:723   */\n      add\n        /* \"#utility.yul\":694:723   */\n      swap2\n      pop\n        /* \"#utility.yul\":772:775   */\n      dup4\n        /* \"#utility.yul\":764:768   */\n      0x01\n        /* \"#utility.yul\":756:762   */\n      dup3\n        /* \"#utility.yul\":752:769   */\n      mul\n        /* \"#utility.yul\":742:750   */\n      dup4\n        /* \"#utility.yul\":738:770   */\n      add\n        /* \"#utility.yul\":735:776   */\n      gt\n        /* \"#utility.yul\":732:860   */\n      iszero\n      tag_312\n      jumpi\n        /* \"#utility.yul\":779:858   */\n      tag_313\n      tag_314\n      jump\t// in\n    tag_313:\n        /* \"#utility.yul\":732:860   */\n    tag_312:\n        /* \"#utility.yul\":314:866   */\n      swap3\n      pop\n      swap3\n      swap1\n      pop\n      jump\t// out\n        /* \"#utility.yul\":872:1011   */\n    tag_315:\n        /* \"#utility.yul\":918:923   */\n      0x00\n        /* \"#utility.yul\":956:962   */\n      dup2\n        /* \"#utility.yul\":943:963   */\n      calldataload\n        /* \"#utility.yul\":934:963   */\n      swap1\n      pop\n        /* \"#utility.yul\":972:1005   */\n      tag_317\n        /* \"#utility.yul\":999:1004   */\n      dup2\n        /* \"#utility.yul\":972:1005   */\n      tag_318\n      jump\t// in\n    tag_317:\n        /* \"#utility.yul\":872:1011   */\n      swap3\n      swap2\n      pop\n      pop\n      jump\t// out\n        /* \"#utility.yul\":1017:1346   */\n    tag_62:\n        /* \"#utility.yul\":1076:1082   */\n      0x00\n        /* \"#utility.yul\":1125:1127   */\n      0x20\n        /* \"#utility.yul\":1113:1122   */\n      dup3\n        /* \"#utility.yul\":1104:1111   */\n      dup5\n        /* \"#utility.yul\":1100:1123   */\n      sub\n        /* \"#utility.yul\":1096:1128   */\n      slt\n        /* \"#utility.yul\":1093:1212   */\n      iszero\n      tag_320\n      jumpi\n        /* \"#utility.yul\":1131:1210   */\n      tag_321\n      tag_322\n      jump\t// in\n    tag_321:\n        /* \"#utility.yul\":1093:1212   */\n    tag_320:\n        /* \"#utility.yul\":1251:1252   */\n      0x00\n        /* \"#utility.yul\":1276:1329   */\n      tag_323\n        /* \"#utility.yul\":1321:1328   */\n      dup5\n        /* \"#utility.yul\":1312:1318   */\n      dup3\n        /* \"#utility.yul\":1301:1310   */\n      dup6\n        /* \"#utility.yul\":1297:1319   */\n      add\n        /* \"#utility.yul\":1276:1329   */\n      tag_297\n      jump\t// in\n    tag_323:\n        /* \"#utility.yul\":1266:1329   */\n      swap2\n      pop\n        /* \"#utility.yul\":1222:1339   */\n      pop\n        /* \"#utility.yul\":1017:1346   */\n      swap3\n      swap2\n      pop\n      pop\n      jump\t// out\n        /* \"#utility.yul\":1352:1703   */\n    tag_201:\n        /* \"#utility.yul\":1422:1428   */\n      0x00\n        /* \"#utility.yul\":1471:1473   */\n      0x20\n        /* \"#utility.yul\":1459:1468   */\n      dup3\n        /* \"#utility.yul\":1450:1457   */\n      dup5\n        /* \"#utility.yul\":1446:1469   */\n      sub\n        /* \"#utility.yul\":1442:1474   */\n      slt\n        /* \"#utility.yul\":1439:1558   */\n      iszero\n      tag_325\n      jumpi\n        /* \"#utility.yul\":1477:1556   */\n      tag_326\n      tag_322\n      jump\t// in\n    tag_326:\n        /* \"#utility.yul\":1439:1558   */\n    tag_325:\n        /* \"#utility.yul\":1597:1598   */\n      0x00\n        /* \"#utility.yul\":1622:1686   */\n      tag_327\n        /* \"#utility.yul\":1678:1685   */\n      dup5\n        /* \"#utility.yul\":1669:1675   */\n      dup3\n        /* \"#utility.yul\":1658:1667   */\n      dup6\n        /* \"#utility.yul\":1654:1676   */\n      add\n        /* \"#utility.yul\":1622:1686   */\n      tag_301\n      jump\t// in\n    tag_327:\n        /* \"#utility.yul\":1612:1686   */\n      swap2\n      pop\n        /* \"#utility.yul\":1568:1696   */\n      pop\n        /* \"#utility.yul\":1352:1703   */\n      swap3\n      swap2\n      pop\n      pop\n      jump\t// out\n        /* \"#utility.yul\":1709:2183   */\n    tag_121:\n        /* \"#utility.yul\":1777:1783   */\n      0x00\n        /* \"#utility.yul\":1785:1791   */\n      dup1\n        /* \"#utility.yul\":1834:1836   */\n      0x40\n        /* \"#utility.yul\":1822:1831   */\n      dup4\n        /* \"#utility.yul\":1813:1820   */\n      dup6\n        /* \"#utility.yul\":1809:1832   */\n      sub\n        /* \"#utility.yul\":1805:1837   */\n      slt\n        /* \"#utility.yul\":1802:1921   */\n      iszero\n      tag_329\n      jumpi\n        /* \"#utility.yul\":1840:1919   */\n      tag_330\n      tag_322\n      jump\t// in\n    tag_330:\n        /* \"#utility.yul\":1802:1921   */\n    tag_329:\n        /* \"#utility.yul\":1960:1961   */\n      0x00\n        /* \"#utility.yul\":1985:2038   */\n      tag_331\n        /* \"#utility.yul\":2030:2037   */\n      dup6\n        /* \"#utility.yul\":2021:2027   */\n      dup3\n        /* \"#utility.yul\":2010:2019   */\n      dup7\n        /* \"#utility.yul\":2006:2028   */\n      add\n        /* \"#utility.yul\":1985:2038   */\n      tag_297\n      jump\t// in\n    tag_331:\n        /* \"#utility.yul\":1975:2038   */\n      swap3\n      pop\n        /* \"#utility.yul\":1931:2048   */\n      pop\n        /* \"#utility.yul\":2087:2089   */\n      0x20\n        /* \"#utility.yul\":2113:2166   */\n      tag_332\n        /* \"#utility.yul\":2158:2165   */\n      dup6\n        /* \"#utility.yul\":2149:2155   */\n      dup3\n        /* \"#utility.yul\":2138:2147   */\n      dup7\n        /* \"#utility.yul\":2134:2156   */\n      add\n        /* \"#utility.yul\":2113:2166   */\n      tag_297\n      jump\t// in\n    tag_332:\n        /* \"#utility.yul\":2103:2166   */\n      swap2\n      pop\n        /* \"#utility.yul\":2058:2176   */\n      pop\n        /* \"#utility.yul\":1709:2183   */\n      swap3\n      pop\n      swap3\n      swap1\n      pop\n      jump\t// out\n        /* \"#utility.yul\":2189:2808   */\n    tag_56:\n        /* \"#utility.yul\":2266:2272   */\n      0x00\n        /* \"#utility.yul\":2274:2280   */\n      dup1\n        /* \"#utility.yul\":2282:2288   */\n      0x00\n        /* \"#utility.yul\":2331:2333   */\n      0x60\n        /* \"#utility.yul\":2319:2328   */\n      dup5\n        /* \"#utility.yul\":2310:2317   */\n      dup7\n        /* \"#utility.yul\":2306:2329   */\n      sub\n        /* \"#utility.yul\":2302:2334   */\n      slt\n        /* \"#utility.yul\":2299:2418   */\n      iszero\n      tag_334\n      jumpi\n        /* \"#utility.yul\":2337:2416   */\n      tag_335\n      tag_322\n      jump\t// in\n    tag_335:\n        /* \"#utility.yul\":2299:2418   */\n    tag_334:\n        /* \"#utility.yul\":2457:2458   */\n      0x00\n        /* \"#utility.yul\":2482:2535   */\n      tag_336\n        /* \"#utility.yul\":2527:2534   */\n      dup7\n        /* \"#utility.yul\":2518:2524   */\n      dup3\n        /* \"#utility.yul\":2507:2516   */\n      dup8\n        /* \"#utility.yul\":2503:2525   */\n      add\n        /* \"#utility.yul\":2482:2535   */\n      tag_297\n      jump\t// in\n    tag_336:\n        /* \"#utility.yul\":2472:2535   */\n      swap4\n      pop\n        /* \"#utility.yul\":2428:2545   */\n      pop\n        /* \"#utility.yul\":2584:2586   */\n      0x20\n        /* \"#utility.yul\":2610:2663   */\n      tag_337\n        /* \"#utility.yul\":2655:2662   */\n      dup7\n        /* \"#utility.yul\":2646:2652   */\n      dup3\n        /* \"#utility.yul\":2635:2644   */\n      dup8\n        /* \"#utility.yul\":2631:2653   */\n      add\n        /* \"#utility.yul\":2610:2663   */\n      tag_297\n      jump\t// in\n    tag_337:\n        /* \"#utility.yul\":2600:2663   */\n      swap3\n      pop\n        /* \"#utility.yul\":2555:2673   */\n      pop\n        /* \"#utility.yul\":2712:2714   */\n      0x40\n        /* \"#utility.yul\":2738:2791   */\n      tag_338\n        /* \"#utility.yul\":2783:2790   */\n      dup7\n        /* \"#utility.yul\":2774:2780   */\n      dup3\n        /* \"#utility.yul\":2763:2772   */\n      dup8\n        /* \"#utility.yul\":2759:2781   */\n      add\n        /* \"#utility.yul\":2738:2791   */\n      tag_315\n      jump\t// in\n    tag_338:\n        /* \"#utility.yul\":2728:2791   */\n      swap2\n      pop\n        /* \"#utility.yul\":2683:2801   */\n      pop\n        /* \"#utility.yul\":2189:2808   */\n      swap3\n      pop\n      swap3\n      pop\n      swap3\n      jump\t// out\n        /* \"#utility.yul\":2814:3777   */\n    tag_45:\n        /* \"#utility.yul\":2911:2917   */\n      0x00\n        /* \"#utility.yul\":2919:2925   */\n      dup1\n        /* \"#utility.yul\":2927:2933   */\n      0x00\n        /* \"#utility.yul\":2935:2941   */\n      dup1\n        /* \"#utility.yul\":2943:2949   */\n      0x00\n        /* \"#utility.yul\":2992:2995   */\n      0x80\n        /* \"#utility.yul\":2980:2989   */\n      dup7\n        /* \"#utility.yul\":2971:2978   */\n      dup9\n        /* \"#utility.yul\":2967:2990   */\n      sub\n        /* \"#utility.yul\":2963:2996   */\n      slt\n        /* \"#utility.yul\":2960:3080   */\n      iszero\n      tag_340\n      jumpi\n        /* \"#utility.yul\":2999:3078   */\n      tag_341\n      tag_322\n      jump\t// in\n    tag_341:\n        /* \"#utility.yul\":2960:3080   */\n    tag_340:\n        /* \"#utility.yul\":3119:3120   */\n      0x00\n        /* \"#utility.yul\":3144:3197   */\n      tag_342\n        /* \"#utility.yul\":3189:3196   */\n      dup9\n        /* \"#utility.yul\":3180:3186   */\n      dup3\n        /* \"#utility.yul\":3169:3178   */\n      dup10\n        /* \"#utility.yul\":3165:3187   */\n      add\n        /* \"#utility.yul\":3144:3197   */\n      tag_297\n      jump\t// in\n    tag_342:\n        /* \"#utility.yul\":3134:3197   */\n      swap6\n      pop\n        /* \"#utility.yul\":3090:3207   */\n      pop\n        /* \"#utility.yul\":3246:3248   */\n      0x20\n        /* \"#utility.yul\":3272:3325   */\n      tag_343\n        /* \"#utility.yul\":3317:3324   */\n      dup9\n        /* \"#utility.yul\":3308:3314   */\n      dup3\n        /* \"#utility.yul\":3297:3306   */\n      dup10\n        /* \"#utility.yul\":3293:3315   */\n      add\n        /* \"#utility.yul\":3272:3325   */\n      tag_297\n      jump\t// in\n    tag_343:\n        /* \"#utility.yul\":3262:3325   */\n      swap5\n      pop\n        /* \"#utility.yul\":3217:3335   */\n      pop\n        /* \"#utility.yul\":3374:3376   */\n      0x40\n        /* \"#utility.yul\":3400:3453   */\n      tag_344\n        /* \"#utility.yul\":3445:3452   */\n      dup9\n        /* \"#utility.yul\":3436:3442   */\n      dup3\n        /* \"#utility.yul\":3425:3434   */\n      dup10\n        /* \"#utility.yul\":3421:3443   */\n      add\n        /* \"#utility.yul\":3400:3453   */\n      tag_315\n      jump\t// in\n    tag_344:\n        /* \"#utility.yul\":3390:3453   */\n      swap4\n      pop\n        /* \"#utility.yul\":3345:3463   */\n      pop\n        /* \"#utility.yul\":3530:3532   */\n      0x60\n        /* \"#utility.yul\":3519:3528   */\n      dup7\n        /* \"#utility.yul\":3515:3533   */\n      add\n        /* \"#utility.yul\":3502:3534   */\n      calldataload\n        /* \"#utility.yul\":3561:3579   */\n      0xffffffffffffffff\n        /* \"#utility.yul\":3553:3559   */\n      dup2\n        /* \"#utility.yul\":3550:3580   */\n      gt\n        /* \"#utility.yul\":3547:3664   */\n      iszero\n      tag_345\n      jumpi\n        /* \"#utility.yul\":3583:3662   */\n      tag_346\n      tag_347\n      jump\t// in\n    tag_346:\n        /* \"#utility.yul\":3547:3664   */\n    tag_345:\n        /* \"#utility.yul\":3696:3760   */\n      tag_348\n        /* \"#utility.yul\":3752:3759   */\n      dup9\n        /* \"#utility.yul\":3743:3749   */\n      dup3\n        /* \"#utility.yul\":3732:3741   */\n      dup10\n        /* \"#utility.yul\":3728:3750   */\n      add\n        /* \"#utility.yul\":3696:3760   */\n      tag_304\n      jump\t// in\n    tag_348:\n        /* \"#utility.yul\":3678:3760   */\n      swap3\n      pop\n      swap3\n      pop\n        /* \"#utility.yul\":3473:3770   */\n      pop\n        /* \"#utility.yul\":2814:3777   */\n      swap3\n      swap6\n      pop\n      swap3\n      swap6\n      swap1\n      swap4\n      pop\n      jump\t// out\n        /* \"#utility.yul\":3783:4257   */\n    tag_38:\n        /* \"#utility.yul\":3851:3857   */\n      0x00\n        /* \"#utility.yul\":3859:3865   */\n      dup1\n        /* \"#utility.yul\":3908:3910   */\n      0x40\n        /* \"#utility.yul\":3896:3905   */\n      dup4\n        /* \"#utility.yul\":3887:3894   */\n      dup6\n        /* \"#utility.yul\":3883:3906   */\n      sub\n        /* \"#utility.yul\":3879:3911   */\n      slt\n        /* \"#utility.yul\":3876:3995   */\n      iszero\n      tag_350\n      jumpi\n        /* \"#utility.yul\":3914:3993   */\n      tag_351\n      tag_322\n      jump\t// in\n    tag_351:\n        /* \"#utility.yul\":3876:3995   */\n    tag_350:\n        /* \"#utility.yul\":4034:4035   */\n      0x00\n        /* \"#utility.yul\":4059:4112   */\n      tag_352\n        /* \"#utility.yul\":4104:4111   */\n      dup6\n        /* \"#utility.yul\":4095:4101   */\n      dup3\n        /* \"#utility.yul\":4084:4093   */\n      dup7\n        /* \"#utility.yul\":4080:4102   */\n      add\n        /* \"#utility.yul\":4059:4112   */\n      tag_297\n      jump\t// in\n    tag_352:\n        /* \"#utility.yul\":4049:4112   */\n      swap3\n      pop\n        /* \"#utility.yul\":4005:4122   */\n      pop\n        /* \"#utility.yul\":4161:4163   */\n      0x20\n        /* \"#utility.yul\":4187:4240   */\n      tag_353\n        /* \"#utility.yul\":4232:4239   */\n      dup6\n        /* \"#utility.yul\":4223:4229   */\n      dup3\n        /* \"#utility.yul\":4212:4221   */\n      dup7\n        /* \"#utility.yul\":4208:4230   */\n      add\n        /* \"#utility.yul\":4187:4240   */\n      tag_315\n      jump\t// in\n    tag_353:\n        /* \"#utility.yul\":4177:4240   */\n      swap2\n      pop\n        /* \"#utility.yul\":4132:4250   */\n      pop\n        /* \"#utility.yul\":3783:4257   */\n      swap3\n      pop\n      swap3\n      swap1\n      pop\n      jump\t// out\n        /* \"#utility.yul\":4263:4592   */\n    tag_28:\n        /* \"#utility.yul\":4322:4328   */\n      0x00\n        /* \"#utility.yul\":4371:4373   */\n      0x20\n        /* \"#utility.yul\":4359:4368   */\n      dup3\n        /* \"#utility.yul\":4350:4357   */\n      dup5\n        /* \"#utility.yul\":4346:4369   */\n      sub\n        /* \"#utility.yul\":4342:4374   */\n      slt\n        /* \"#utility.yul\":4339:4458   */\n      iszero\n      tag_355\n      jumpi\n        /* \"#utility.yul\":4377:4456   */\n      tag_356\n      tag_322\n      jump\t// in\n    tag_356:\n        /* \"#utility.yul\":4339:4458   */\n    tag_355:\n        /* \"#utility.yul\":4497:4498   */\n      0x00\n        /* \"#utility.yul\":4522:4575   */\n      tag_357\n        /* \"#utility.yul\":4567:4574   */\n      dup5\n        /* \"#utility.yul\":4558:4564   */\n      dup3\n        /* \"#utility.yul\":4547:4556   */\n      dup6\n        /* \"#utility.yul\":4543:4565   */\n      add\n        /* \"#utility.yul\":4522:4575   */\n      tag_315\n      jump\t// in\n    tag_357:\n        /* \"#utility.yul\":4512:4575   */\n      swap2\n      pop\n        /* \"#utility.yul\":4468:4585   */\n      pop\n        /* \"#utility.yul\":4263:4592   */\n      swap3\n      swap2\n      pop\n      pop\n      jump\t// out\n        /* \"#utility.yul\":4598:4889   */\n    tag_358:\n        /* \"#utility.yul\":4723:4733   */\n      0x00\n        /* \"#utility.yul\":4744:4846   */\n      tag_360\n        /* \"#utility.yul\":4842:4845   */\n      dup4\n        /* \"#utility.yul\":4834:4840   */\n      dup4\n        /* \"#utility.yul\":4744:4846   */\n      tag_361\n      jump\t// in\n    tag_360:\n        /* \"#utility.yul\":4878:4882   */\n      0x60\n        /* \"#utility.yul\":4873:4876   */\n      dup4\n        /* \"#utility.yul\":4869:4883   */\n      add\n        /* \"#utility.yul\":4855:4883   */\n      swap1\n      pop\n        /* \"#utility.yul\":4598:4889   */\n      swap3\n      swap2\n      pop\n      pop\n      jump\t// out\n        /* \"#utility.yul\":4895:5013   */\n    tag_362:\n        /* \"#utility.yul\":4982:5006   */\n      tag_364\n        /* \"#utility.yul\":5000:5005   */\n      dup2\n        /* \"#utility.yul\":4982:5006   */\n      tag_365\n      jump\t// in\n    tag_364:\n        /* \"#utility.yul\":4977:4980   */\n      dup3\n        /* \"#utility.yul\":4970:5007   */\n      mstore\n        /* \"#utility.yul\":4895:5013   */\n      pop\n      pop\n      jump\t// out\n        /* \"#utility.yul\":5079:6035   */\n    tag_366:\n        /* \"#utility.yul\":5254:5257   */\n      0x00\n        /* \"#utility.yul\":5283:5365   */\n      tag_368\n        /* \"#utility.yul\":5359:5364   */\n      dup3\n        /* \"#utility.yul\":5283:5365   */\n      tag_369\n      jump\t// in\n    tag_368:\n        /* \"#utility.yul\":5381:5495   */\n      tag_370\n        /* \"#utility.yul\":5488:5494   */\n      dup2\n        /* \"#utility.yul\":5483:5486   */\n      dup6\n        /* \"#utility.yul\":5381:5495   */\n      tag_371\n      jump\t// in\n    tag_370:\n        /* \"#utility.yul\":5374:5495   */\n      swap4\n      pop\n        /* \"#utility.yul\":5519:5603   */\n      tag_372\n        /* \"#utility.yul\":5597:5602   */\n      dup4\n        /* \"#utility.yul\":5519:5603   */\n      tag_373\n      jump\t// in\n    tag_372:\n        /* \"#utility.yul\":5626:5633   */\n      dup1\n        /* \"#utility.yul\":5657:5658   */\n      0x00\n        /* \"#utility.yul\":5642:6010   */\n    tag_374:\n        /* \"#utility.yul\":5667:5673   */\n      dup4\n        /* \"#utility.yul\":5664:5665   */\n      dup2\n        /* \"#utility.yul\":5661:5674   */\n      lt\n        /* \"#utility.yul\":5642:6010   */\n      iszero\n      tag_376\n      jumpi\n        /* \"#utility.yul\":5743:5749   */\n      dup2\n        /* \"#utility.yul\":5737:5750   */\n      mload\n        /* \"#utility.yul\":5770:5889   */\n      tag_377\n        /* \"#utility.yul\":5885:5888   */\n      dup9\n        /* \"#utility.yul\":5870:5883   */\n      dup3\n        /* \"#utility.yul\":5770:5889   */\n      tag_358\n      jump\t// in\n    tag_377:\n        /* \"#utility.yul\":5763:5889   */\n      swap8\n      pop\n        /* \"#utility.yul\":5912:6000   */\n      tag_378\n        /* \"#utility.yul\":5993:5999   */\n      dup4\n        /* \"#utility.yul\":5912:6000   */\n      tag_379\n      jump\t// in\n    tag_378:\n        /* \"#utility.yul\":5902:6000   */\n      swap3\n      pop\n        /* \"#utility.yul\":5702:6010   */\n      pop\n        /* \"#utility.yul\":5689:5690   */\n      0x01\n        /* \"#utility.yul\":5686:5687   */\n      dup2\n        /* \"#utility.yul\":5682:5691   */\n      add\n        /* \"#utility.yul\":5677:5691   */\n      swap1\n      pop\n        /* \"#utility.yul\":5642:6010   */\n      jump(tag_374)\n    tag_376:\n        /* \"#utility.yul\":5646:5660   */\n      pop\n        /* \"#utility.yul\":6026:6029   */\n      dup6\n        /* \"#utility.yul\":6019:6029   */\n      swap4\n      pop\n        /* \"#utility.yul\":5259:6035   */\n      pop\n      pop\n      pop\n        /* \"#utility.yul\":5079:6035   */\n      swap3\n      swap2\n      pop\n      pop\n      jump\t// out\n        /* \"#utility.yul\":6041:6150   */\n    tag_380:\n        /* \"#utility.yul\":6122:6143   */\n      tag_382\n        /* \"#utility.yul\":6137:6142   */\n      dup2\n        /* \"#utility.yul\":6122:6143   */\n      tag_383\n      jump\t// in\n    tag_382:\n        /* \"#utility.yul\":6117:6120   */\n      dup3\n        /* \"#utility.yul\":6110:6144   */\n      mstore\n        /* \"#utility.yul\":6041:6150   */\n      pop\n      pop\n      jump\t// out\n        /* \"#utility.yul\":6156:6271   */\n    tag_384:\n        /* \"#utility.yul\":6241:6264   */\n      tag_386\n        /* \"#utility.yul\":6258:6263   */\n      dup2\n        /* \"#utility.yul\":6241:6264   */\n      tag_387\n      jump\t// in\n    tag_386:\n        /* \"#utility.yul\":6236:6239   */\n      dup3\n        /* \"#utility.yul\":6229:6265   */\n      mstore\n        /* \"#utility.yul\":6156:6271   */\n      pop\n      pop\n      jump\t// out\n        /* \"#utility.yul\":6277:6438   */\n    tag_388:\n        /* \"#utility.yul\":6379:6431   */\n      tag_390\n        /* \"#utility.yul\":6425:6430   */\n      dup2\n        /* \"#utility.yul\":6379:6431   */\n      tag_391\n      jump\t// in\n    tag_390:\n        /* \"#utility.yul\":6374:6377   */\n      dup3\n        /* \"#utility.yul\":6367:6432   */\n      mstore\n        /* \"#utility.yul\":6277:6438   */\n      pop\n      pop\n      jump\t// out\n        /* \"#utility.yul\":6444:6808   */\n    tag_392:\n        /* \"#utility.yul\":6532:6535   */\n      0x00\n        /* \"#utility.yul\":6560:6599   */\n      tag_394\n        /* \"#utility.yul\":6593:6598   */\n      dup3\n        /* \"#utility.yul\":6560:6599   */\n      tag_395\n      jump\t// in\n    tag_394:\n        /* \"#utility.yul\":6615:6686   */\n      tag_396\n        /* \"#utility.yul\":6679:6685   */\n      dup2\n        /* \"#utility.yul\":6674:6677   */\n      dup6\n        /* \"#utility.yul\":6615:6686   */\n      tag_397\n      jump\t// in\n    tag_396:\n        /* \"#utility.yul\":6608:6686   */\n      swap4\n      pop\n        /* \"#utility.yul\":6695:6747   */\n      tag_398\n        /* \"#utility.yul\":6740:6746   */\n      dup2\n        /* \"#utility.yul\":6735:6738   */\n      dup6\n        /* \"#utility.yul\":6728:6732   */\n      0x20\n        /* \"#utility.yul\":6721:6726   */\n      dup7\n        /* \"#utility.yul\":6717:6733   */\n      add\n        /* \"#utility.yul\":6695:6747   */\n      tag_399\n      jump\t// in\n    tag_398:\n        /* \"#utility.yul\":6772:6801   */\n      tag_400\n        /* \"#utility.yul\":6794:6800   */\n      dup2\n        /* \"#utility.yul\":6772:6801   */\n      tag_401\n      jump\t// in\n    tag_400:\n        /* \"#utility.yul\":6767:6770   */\n      dup5\n        /* \"#utility.yul\":6763:6802   */\n      add\n        /* \"#utility.yul\":6756:6802   */\n      swap2\n      pop\n        /* \"#utility.yul\":6536:6808   */\n      pop\n        /* \"#utility.yul\":6444:6808   */\n      swap3\n      swap2\n      pop\n      pop\n      jump\t// out\n        /* \"#utility.yul\":6814:7180   */\n    tag_402:\n        /* \"#utility.yul\":6956:6959   */\n      0x00\n        /* \"#utility.yul\":6977:7044   */\n      tag_404\n        /* \"#utility.yul\":7041:7043   */\n      0x19\n        /* \"#utility.yul\":7036:7039   */\n      dup4\n        /* \"#utility.yul\":6977:7044   */\n      tag_397\n      jump\t// in\n    tag_404:\n        /* \"#utility.yul\":6970:7044   */\n      swap2\n      pop\n        /* \"#utility.yul\":7053:7146   */\n      tag_405\n        /* \"#utility.yul\":7142:7145   */\n      dup3\n        /* \"#utility.yul\":7053:7146   */\n      tag_406\n      jump\t// in\n    tag_405:\n        /* \"#utility.yul\":7171:7173   */\n      0x20\n        /* \"#utility.yul\":7166:7169   */\n      dup3\n        /* \"#utility.yul\":7162:7174   */\n      add\n        /* \"#utility.yul\":7155:7174   */\n      swap1\n      pop\n        /* \"#utility.yul\":6814:7180   */\n      swap2\n      swap1\n      pop\n      jump\t// out\n        /* \"#utility.yul\":7186:7552   */\n    tag_407:\n        /* \"#utility.yul\":7328:7331   */\n      0x00\n        /* \"#utility.yul\":7349:7416   */\n      tag_409\n        /* \"#utility.yul\":7413:7415   */\n      0x1c\n        /* \"#utility.yul\":7408:7411   */\n      dup4\n        /* \"#utility.yul\":7349:7416   */\n      tag_397\n      jump\t// in\n    tag_409:\n        /* \"#utility.yul\":7342:7416   */\n      swap2\n      pop\n        /* \"#utility.yul\":7425:7518   */\n      tag_410\n        /* \"#utility.yul\":7514:7517   */\n      dup3\n        /* \"#utility.yul\":7425:7518   */\n      tag_411\n      jump\t// in\n    tag_410:\n        /* \"#utility.yul\":7543:7545   */\n      0x20\n        /* \"#utility.yul\":7538:7541   */\n      dup3\n        /* \"#utility.yul\":7534:7546   */\n      add\n        /* \"#utility.yul\":7527:7546   */\n      swap1\n      pop\n        /* \"#utility.yul\":7186:7552   */\n      swap2\n      swap1\n      pop\n      jump\t// out\n        /* \"#utility.yul\":7558:7924   */\n    tag_412:\n        /* \"#utility.yul\":7700:7703   */\n      0x00\n        /* \"#utility.yul\":7721:7788   */\n      tag_414\n        /* \"#utility.yul\":7785:7787   */\n      0x1e\n        /* \"#utility.yul\":7780:7783   */\n      dup4\n        /* \"#utility.yul\":7721:7788   */\n      tag_397\n      jump\t// in\n    tag_414:\n        /* \"#utility.yul\":7714:7788   */\n      swap2\n      pop\n        /* \"#utility.yul\":7797:7890   */\n      tag_415\n        /* \"#utility.yul\":7886:7889   */\n      dup3\n        /* \"#utility.yul\":7797:7890   */\n      tag_416\n      jump\t// in\n    tag_415:\n        /* \"#utility.yul\":7915:7917   */\n      0x20\n        /* \"#utility.yul\":7910:7913   */\n      dup3\n        /* \"#utility.yul\":7906:7918   */\n      add\n        /* \"#utility.yul\":7899:7918   */\n      swap1\n      pop\n        /* \"#utility.yul\":7558:7924   */\n      swap2\n      swap1\n      pop\n      jump\t// out\n        /* \"#utility.yul\":7930:8296   */\n    tag_417:\n        /* \"#utility.yul\":8072:8075   */\n      0x00\n        /* \"#utility.yul\":8093:8160   */\n      tag_419\n        /* \"#utility.yul\":8157:8159   */\n      0x16\n        /* \"#utility.yul\":8152:8155   */\n      dup4\n        /* \"#utility.yul\":8093:8160   */\n      tag_397\n      jump\t// in\n    tag_419:\n        /* \"#utility.yul\":8086:8160   */\n      swap2\n      pop\n        /* \"#utility.yul\":8169:8262   */\n      tag_420\n        /* \"#utility.yul\":8258:8261   */\n      dup3\n        /* \"#utility.yul\":8169:8262   */\n      tag_421\n      jump\t// in\n    tag_420:\n        /* \"#utility.yul\":8287:8289   */\n      0x20\n        /* \"#utility.yul\":8282:8285   */\n      dup3\n        /* \"#utility.yul\":8278:8290   */\n      add\n        /* \"#utility.yul\":8271:8290   */\n      swap1\n      pop\n        /* \"#utility.yul\":7930:8296   */\n      swap2\n      swap1\n      pop\n      jump\t// out\n        /* \"#utility.yul\":8302:8668   */\n    tag_422:\n        /* \"#utility.yul\":8444:8447   */\n      0x00\n        /* \"#utility.yul\":8465:8532   */\n      tag_424\n        /* \"#utility.yul\":8529:8531   */\n      0x12\n        /* \"#utility.yul\":8524:8527   */\n      dup4\n        /* \"#utility.yul\":8465:8532   */\n      tag_397\n      jump\t// in\n    tag_424:\n        /* \"#utility.yul\":8458:8532   */\n      swap2\n      pop\n        /* \"#utility.yul\":8541:8634   */\n      tag_425\n        /* \"#utility.yul\":8630:8633   */\n      dup3\n        /* \"#utility.yul\":8541:8634   */\n      tag_426\n      jump\t// in\n    tag_425:\n        /* \"#utility.yul\":8659:8661   */\n      0x20\n        /* \"#utility.yul\":8654:8657   */\n      dup3\n        /* \"#utility.yul\":8650:8662   */\n      add\n        /* \"#utility.yul\":8643:8662   */\n      swap1\n      pop\n        /* \"#utility.yul\":8302:8668   */\n      swap2\n      swap1\n      pop\n      jump\t// out\n        /* \"#utility.yul\":8674:9040   */\n    tag_427:\n        /* \"#utility.yul\":8816:8819   */\n      0x00\n        /* \"#utility.yul\":8837:8904   */\n      tag_429\n        /* \"#utility.yul\":8901:8903   */\n      0x19\n        /* \"#utility.yul\":8896:8899   */\n      dup4\n        /* \"#utility.yul\":8837:8904   */\n      tag_397\n      jump\t// in\n    tag_429:\n        /* \"#utility.yul\":8830:8904   */\n      swap2\n      pop\n        /* \"#utility.yul\":8913:9006   */\n      tag_430\n        /* \"#utility.yul\":9002:9005   */\n      dup3\n        /* \"#utility.yul\":8913:9006   */\n      tag_431\n      jump\t// in\n    tag_430:\n        /* \"#utility.yul\":9031:9033   */\n      0x20\n        /* \"#utility.yul\":9026:9029   */\n      dup3\n        /* \"#utility.yul\":9022:9034   */\n      add\n        /* \"#utility.yul\":9015:9034   */\n      swap1\n      pop\n        /* \"#utility.yul\":8674:9040   */\n      swap2\n      swap1\n      pop\n      jump\t// out\n        /* \"#utility.yul\":9046:9412   */\n    tag_432:\n        /* \"#utility.yul\":9188:9191   */\n      0x00\n        /* \"#utility.yul\":9209:9276   */\n      tag_434\n        /* \"#utility.yul\":9273:9275   */\n      0x1b\n        /* \"#utility.yul\":9268:9271   */\n      dup4\n        /* \"#utility.yul\":9209:9276   */\n      tag_397\n      jump\t// in\n    tag_434:\n        /* \"#utility.yul\":9202:9276   */\n      swap2\n      pop\n        /* \"#utility.yul\":9285:9378   */\n      tag_435\n        /* \"#utility.yul\":9374:9377   */\n      dup3\n        /* \"#utility.yul\":9285:9378   */\n      tag_436\n      jump\t// in\n    tag_435:\n        /* \"#utility.yul\":9403:9405   */\n      0x20\n        /* \"#utility.yul\":9398:9401   */\n      dup3\n        /* \"#utility.yul\":9394:9406   */\n      add\n        /* \"#utility.yul\":9387:9406   */\n      swap1\n      pop\n        /* \"#utility.yul\":9046:9412   */\n      swap2\n      swap1\n      pop\n      jump\t// out\n        /* \"#utility.yul\":9418:9784   */\n    tag_437:\n        /* \"#utility.yul\":9560:9563   */\n      0x00\n        /* \"#utility.yul\":9581:9648   */\n      tag_439\n        /* \"#utility.yul\":9645:9647   */\n      0x1a\n        /* \"#utility.yul\":9640:9643   */\n      dup4\n        /* \"#utility.yul\":9581:9648   */\n      tag_397\n      jump\t// in\n    tag_439:\n        /* \"#utility.yul\":9574:9648   */\n      swap2\n      pop\n        /* \"#utility.yul\":9657:9750   */\n      tag_440\n        /* \"#utility.yul\":9746:9749   */\n      dup3\n        /* \"#utility.yul\":9657:9750   */\n      tag_441\n      jump\t// in\n    tag_440:\n        /* \"#utility.yul\":9775:9777   */\n      0x20\n        /* \"#utility.yul\":9770:9773   */\n      dup3\n        /* \"#utility.yul\":9766:9778   */\n      add\n        /* \"#utility.yul\":9759:9778   */\n      swap1\n      pop\n        /* \"#utility.yul\":9418:9784   */\n      swap2\n      swap1\n      pop\n      jump\t// out\n        /* \"#utility.yul\":9846:10530   */\n    tag_361:\n        /* \"#utility.yul\":9989:9993   */\n      0x60\n        /* \"#utility.yul\":9984:9987   */\n      dup3\n        /* \"#utility.yul\":9980:9994   */\n      add\n        /* \"#utility.yul\":10079:10083   */\n      0x00\n        /* \"#utility.yul\":10072:10077   */\n      dup3\n        /* \"#utility.yul\":10068:10084   */\n      add\n        /* \"#utility.yul\":10062:10085   */\n      mload\n        /* \"#utility.yul\":10098:10161   */\n      tag_443\n        /* \"#utility.yul\":10155:10159   */\n      0x00\n        /* \"#utility.yul\":10150:10153   */\n      dup6\n        /* \"#utility.yul\":10146:10160   */\n      add\n        /* \"#utility.yul\":10132:10144   */\n      dup3\n        /* \"#utility.yul\":10098:10161   */\n      tag_444\n      jump\t// in\n    tag_443:\n        /* \"#utility.yul\":10004:10171   */\n      pop\n        /* \"#utility.yul\":10257:10261   */\n      0x20\n        /* \"#utility.yul\":10250:10255   */\n      dup3\n        /* \"#utility.yul\":10246:10262   */\n      add\n        /* \"#utility.yul\":10240:10263   */\n      mload\n        /* \"#utility.yul\":10276:10339   */\n      tag_445\n        /* \"#utility.yul\":10333:10337   */\n      0x20\n        /* \"#utility.yul\":10328:10331   */\n      dup6\n        /* \"#utility.yul\":10324:10338   */\n      add\n        /* \"#utility.yul\":10310:10322   */\n      dup3\n        /* \"#utility.yul\":10276:10339   */\n      tag_444\n      jump\t// in\n    tag_445:\n        /* \"#utility.yul\":10181:10349   */\n      pop\n        /* \"#utility.yul\":10431:10435   */\n      0x40\n        /* \"#utility.yul\":10424:10429   */\n      dup3\n        /* \"#utility.yul\":10420:10436   */\n      add\n        /* \"#utility.yul\":10414:10437   */\n      mload\n        /* \"#utility.yul\":10450:10513   */\n      tag_446\n        /* \"#utility.yul\":10507:10511   */\n      0x40\n        /* \"#utility.yul\":10502:10505   */\n      dup6\n        /* \"#utility.yul\":10498:10512   */\n      add\n        /* \"#utility.yul\":10484:10496   */\n      dup3\n        /* \"#utility.yul\":10450:10513   */\n      tag_444\n      jump\t// in\n    tag_446:\n        /* \"#utility.yul\":10359:10523   */\n      pop\n        /* \"#utility.yul\":9958:10530   */\n      pop\n        /* \"#utility.yul\":9846:10530   */\n      pop\n      pop\n      jump\t// out\n        /* \"#utility.yul\":10536:10644   */\n    tag_444:\n        /* \"#utility.yul\":10613:10637   */\n      tag_448\n        /* \"#utility.yul\":10631:10636   */\n      dup2\n        /* \"#utility.yul\":10613:10637   */\n      tag_449\n      jump\t// in\n    tag_448:\n        /* \"#utility.yul\":10608:10611   */\n      dup3\n        /* \"#utility.yul\":10601:10638   */\n      mstore\n        /* \"#utility.yul\":10536:10644   */\n      pop\n      pop\n      jump\t// out\n        /* \"#utility.yul\":10650:10768   */\n    tag_450:\n        /* \"#utility.yul\":10737:10761   */\n      tag_452\n        /* \"#utility.yul\":10755:10760   */\n      dup2\n        /* \"#utility.yul\":10737:10761   */\n      tag_449\n      jump\t// in\n    tag_452:\n        /* \"#utility.yul\":10732:10735   */\n      dup3\n        /* \"#utility.yul\":10725:10762   */\n      mstore\n        /* \"#utility.yul\":10650:10768   */\n      pop\n      pop\n      jump\t// out\n        /* \"#utility.yul\":10774:10886   */\n    tag_453:\n        /* \"#utility.yul\":10857:10879   */\n      tag_455\n        /* \"#utility.yul\":10873:10878   */\n      dup2\n        /* \"#utility.yul\":10857:10879   */\n      tag_456\n      jump\t// in\n    tag_455:\n        /* \"#utility.yul\":10852:10855   */\n      dup3\n        /* \"#utility.yul\":10845:10880   */\n      mstore\n        /* \"#utility.yul\":10774:10886   */\n      pop\n      pop\n      jump\t// out\n        /* \"#utility.yul\":10892:11114   */\n    tag_81:\n        /* \"#utility.yul\":10985:10989   */\n      0x00\n        /* \"#utility.yul\":11023:11025   */\n      0x20\n        /* \"#utility.yul\":11012:11021   */\n      dup3\n        /* \"#utility.yul\":11008:11026   */\n      add\n        /* \"#utility.yul\":11000:11026   */\n      swap1\n      pop\n        /* \"#utility.yul\":11036:11107   */\n      tag_458\n        /* \"#utility.yul\":11104:11105   */\n      0x00\n        /* \"#utility.yul\":11093:11102   */\n      dup4\n        /* \"#utility.yul\":11089:11106   */\n      add\n        /* \"#utility.yul\":11080:11086   */\n      dup5\n        /* \"#utility.yul\":11036:11107   */\n      tag_362\n      jump\t// in\n    tag_458:\n        /* \"#utility.yul\":10892:11114   */\n      swap3\n      swap2\n      pop\n      pop\n      jump\t// out\n        /* \"#utility.yul\":11120:11562   */\n    tag_171:\n        /* \"#utility.yul\":11269:11273   */\n      0x00\n        /* \"#utility.yul\":11307:11309   */\n      0x60\n        /* \"#utility.yul\":11296:11305   */\n      dup3\n        /* \"#utility.yul\":11292:11310   */\n      add\n        /* \"#utility.yul\":11284:11310   */\n      swap1\n      pop\n        /* \"#utility.yul\":11320:11391   */\n      tag_460\n        /* \"#utility.yul\":11388:11389   */\n      0x00\n        /* \"#utility.yul\":11377:11386   */\n      dup4\n        /* \"#utility.yul\":11373:11390   */\n      add\n        /* \"#utility.yul\":11364:11370   */\n      dup7\n        /* \"#utility.yul\":11320:11391   */\n      tag_362\n      jump\t// in\n    tag_460:\n        /* \"#utility.yul\":11401:11473   */\n      tag_461\n        /* \"#utility.yul\":11469:11471   */\n      0x20\n        /* \"#utility.yul\":11458:11467   */\n      dup4\n        /* \"#utility.yul\":11454:11472   */\n      add\n        /* \"#utility.yul\":11445:11451   */\n      dup6\n        /* \"#utility.yul\":11401:11473   */\n      tag_362\n      jump\t// in\n    tag_461:\n        /* \"#utility.yul\":11483:11555   */\n      tag_462\n        /* \"#utility.yul\":11551:11553   */\n      0x40\n        /* \"#utility.yul\":11540:11549   */\n      dup4\n        /* \"#utility.yul\":11536:11554   */\n      add\n        /* \"#utility.yul\":11527:11533   */\n      dup5\n        /* \"#utility.yul\":11483:11555   */\n      tag_450\n      jump\t// in\n    tag_462:\n        /* \"#utility.yul\":11120:11562   */\n      swap5\n      swap4\n      pop\n      pop\n      pop\n      pop\n      jump\t// out\n        /* \"#utility.yul\":11568:11900   */\n    tag_155:\n        /* \"#utility.yul\":11689:11693   */\n      0x00\n        /* \"#utility.yul\":11727:11729   */\n      0x40\n        /* \"#utility.yul\":11716:11725   */\n      dup3\n        /* \"#utility.yul\":11712:11730   */\n      add\n        /* \"#utility.yul\":11704:11730   */\n      swap1\n      pop\n        /* \"#utility.yul\":11740:11811   */\n      tag_464\n        /* \"#utility.yul\":11808:11809   */\n      0x00\n        /* \"#utility.yul\":11797:11806   */\n      dup4\n        /* \"#utility.yul\":11793:11810   */\n      add\n        /* \"#utility.yul\":11784:11790   */\n      dup6\n        /* \"#utility.yul\":11740:11811   */\n      tag_362\n      jump\t// in\n    tag_464:\n        /* \"#utility.yul\":11821:11893   */\n      tag_465\n        /* \"#utility.yul\":11889:11891   */\n      0x20\n        /* \"#utility.yul\":11878:11887   */\n      dup4\n        /* \"#utility.yul\":11874:11892   */\n      add\n        /* \"#utility.yul\":11865:11871   */\n      dup5\n        /* \"#utility.yul\":11821:11893   */\n      tag_450\n      jump\t// in\n    tag_465:\n        /* \"#utility.yul\":11568:11900   */\n      swap4\n      swap3\n      pop\n      pop\n      pop\n      jump\t// out\n        /* \"#utility.yul\":11906:12391   */\n    tag_65:\n        /* \"#utility.yul\":12105:12109   */\n      0x00\n        /* \"#utility.yul\":12143:12145   */\n      0x20\n        /* \"#utility.yul\":12132:12141   */\n      dup3\n        /* \"#utility.yul\":12128:12146   */\n      add\n        /* \"#utility.yul\":12120:12146   */\n      swap1\n      pop\n        /* \"#utility.yul\":12192:12201   */\n      dup2\n        /* \"#utility.yul\":12186:12190   */\n      dup2\n        /* \"#utility.yul\":12182:12202   */\n      sub\n        /* \"#utility.yul\":12178:12179   */\n      0x00\n        /* \"#utility.yul\":12167:12176   */\n      dup4\n        /* \"#utility.yul\":12163:12180   */\n      add\n        /* \"#utility.yul\":12156:12203   */\n      mstore\n        /* \"#utility.yul\":12220:12384   */\n      tag_467\n        /* \"#utility.yul\":12379:12383   */\n      dup2\n        /* \"#utility.yul\":12370:12376   */\n      dup5\n        /* \"#utility.yul\":12220:12384   */\n      tag_366\n      jump\t// in\n    tag_467:\n        /* \"#utility.yul\":12212:12384   */\n      swap1\n      pop\n        /* \"#utility.yul\":11906:12391   */\n      swap3\n      swap2\n      pop\n      pop\n      jump\t// out\n        /* \"#utility.yul\":12397:12607   */\n    tag_41:\n        /* \"#utility.yul\":12484:12488   */\n      0x00\n        /* \"#utility.yul\":12522:12524   */\n      0x20\n        /* \"#utility.yul\":12511:12520   */\n      dup3\n        /* \"#utility.yul\":12507:12525   */\n      add\n        /* \"#utility.yul\":12499:12525   */\n      swap1\n      pop\n        /* \"#utility.yul\":12535:12600   */\n      tag_469\n        /* \"#utility.yul\":12597:12598   */\n      0x00\n        /* \"#utility.yul\":12586:12595   */\n      dup4\n        /* \"#utility.yul\":12582:12599   */\n      add\n        /* \"#utility.yul\":12573:12579   */\n      dup5\n        /* \"#utility.yul\":12535:12600   */\n      tag_380\n      jump\t// in\n    tag_469:\n        /* \"#utility.yul\":12397:12607   */\n      swap3\n      swap2\n      pop\n      pop\n      jump\t// out\n        /* \"#utility.yul\":12613:12831   */\n    tag_48:\n        /* \"#utility.yul\":12704:12708   */\n      0x00\n        /* \"#utility.yul\":12742:12744   */\n      0x20\n        /* \"#utility.yul\":12731:12740   */\n      dup3\n        /* \"#utility.yul\":12727:12745   */\n      add\n        /* \"#utility.yul\":12719:12745   */\n      swap1\n      pop\n        /* \"#utility.yul\":12755:12824   */\n      tag_471\n        /* \"#utility.yul\":12821:12822   */\n      0x00\n        /* \"#utility.yul\":12810:12819   */\n      dup4\n        /* \"#utility.yul\":12806:12823   */\n      add\n        /* \"#utility.yul\":12797:12803   */\n      dup5\n        /* \"#utility.yul\":12755:12824   */\n      tag_384\n      jump\t// in\n    tag_471:\n        /* \"#utility.yul\":12613:12831   */\n      swap3\n      swap2\n      pop\n      pop\n      jump\t// out\n        /* \"#utility.yul\":12837:13089   */\n    tag_117:\n        /* \"#utility.yul\":12945:12949   */\n      0x00\n        /* \"#utility.yul\":12983:12985   */\n      0x20\n        /* \"#utility.yul\":12972:12981   */\n      dup3\n        /* \"#utility.yul\":12968:12986   */\n      add\n        /* \"#utility.yul\":12960:12986   */\n      swap1\n      pop\n        /* \"#utility.yul\":12996:13082   */\n      tag_473\n        /* \"#utility.yul\":13079:13080   */\n      0x00\n        /* \"#utility.yul\":13068:13077   */\n      dup4\n        /* \"#utility.yul\":13064:13081   */\n      add\n        /* \"#utility.yul\":13055:13061   */\n      dup5\n        /* \"#utility.yul\":12996:13082   */\n      tag_388\n      jump\t// in\n    tag_473:\n        /* \"#utility.yul\":12837:13089   */\n      swap3\n      swap2\n      pop\n      pop\n      jump\t// out\n        /* \"#utility.yul\":13095:13408   */\n    tag_34:\n        /* \"#utility.yul\":13208:13212   */\n      0x00\n        /* \"#utility.yul\":13246:13248   */\n      0x20\n        /* \"#utility.yul\":13235:13244   */\n      dup3\n        /* \"#utility.yul\":13231:13249   */\n      add\n        /* \"#utility.yul\":13223:13249   */\n      swap1\n      pop\n        /* \"#utility.yul\":13295:13304   */\n      dup2\n        /* \"#utility.yul\":13289:13293   */\n      dup2\n        /* \"#utility.yul\":13285:13305   */\n      sub\n        /* \"#utility.yul\":13281:13282   */\n      0x00\n        /* \"#utility.yul\":13270:13279   */\n      dup4\n        /* \"#utility.yul\":13266:13283   */\n      add\n        /* \"#utility.yul\":13259:13306   */\n      mstore\n        /* \"#utility.yul\":13323:13401   */\n      tag_475\n        /* \"#utility.yul\":13396:13400   */\n      dup2\n        /* \"#utility.yul\":13387:13393   */\n      dup5\n        /* \"#utility.yul\":13323:13401   */\n      tag_392\n      jump\t// in\n    tag_475:\n        /* \"#utility.yul\":13315:13401   */\n      swap1\n      pop\n        /* \"#utility.yul\":13095:13408   */\n      swap3\n      swap2\n      pop\n      pop\n      jump\t// out\n        /* \"#utility.yul\":13414:13833   */\n    tag_135:\n        /* \"#utility.yul\":13580:13584   */\n      0x00\n        /* \"#utility.yul\":13618:13620   */\n      0x20\n        /* \"#utility.yul\":13607:13616   */\n      dup3\n        /* \"#utility.yul\":13603:13621   */\n      add\n        /* \"#utility.yul\":13595:13621   */\n      swap1\n      pop\n        /* \"#utility.yul\":13667:13676   */\n      dup2\n        /* \"#utility.yul\":13661:13665   */\n      dup2\n        /* \"#utility.yul\":13657:13677   */\n      sub\n        /* \"#utility.yul\":13653:13654   */\n      0x00\n        /* \"#utility.yul\":13642:13651   */\n      dup4\n        /* \"#utility.yul\":13638:13655   */\n      add\n        /* \"#utility.yul\":13631:13678   */\n      mstore\n        /* \"#utility.yul\":13695:13826   */\n      tag_477\n        /* \"#utility.yul\":13821:13825   */\n      dup2\n        /* \"#utility.yul\":13695:13826   */\n      tag_402\n      jump\t// in\n    tag_477:\n        /* \"#utility.yul\":13687:13826   */\n      swap1\n      pop\n        /* \"#utility.yul\":13414:13833   */\n      swap2\n      swap1\n      pop\n      jump\t// out\n        /* \"#utility.yul\":13839:14258   */\n    tag_183:\n        /* \"#utility.yul\":14005:14009   */\n      0x00\n        /* \"#utility.yul\":14043:14045   */\n      0x20\n        /* \"#utility.yul\":14032:14041   */\n      dup3\n        /* \"#utility.yul\":14028:14046   */\n      add\n        /* \"#utility.yul\":14020:14046   */\n      swap1\n      pop\n        /* \"#utility.yul\":14092:14101   */\n      dup2\n        /* \"#utility.yul\":14086:14090   */\n      dup2\n        /* \"#utility.yul\":14082:14102   */\n      sub\n        /* \"#utility.yul\":14078:14079   */\n      0x00\n        /* \"#utility.yul\":14067:14076   */\n      dup4\n        /* \"#utility.yul\":14063:14080   */\n      add\n        /* \"#utility.yul\":14056:14103   */\n      mstore\n        /* \"#utility.yul\":14120:14251   */\n      tag_479\n        /* \"#utility.yul\":14246:14250   */\n      dup2\n        /* \"#utility.yul\":14120:14251   */\n      tag_407\n      jump\t// in\n    tag_479:\n        /* \"#utility.yul\":14112:14251   */\n      swap1\n      pop\n        /* \"#utility.yul\":13839:14258   */\n      swap2\n      swap1\n      pop\n      jump\t// out\n        /* \"#utility.yul\":14264:14683   */\n    tag_294:\n        /* \"#utility.yul\":14430:14434   */\n      0x00\n        /* \"#utility.yul\":14468:14470   */\n      0x20\n        /* \"#utility.yul\":14457:14466   */\n      dup3\n        /* \"#utility.yul\":14453:14471   */\n      add\n        /* \"#utility.yul\":14445:14471   */\n      swap1\n      pop\n        /* \"#utility.yul\":14517:14526   */\n      dup2\n        /* \"#utility.yul\":14511:14515   */\n      dup2\n        /* \"#utility.yul\":14507:14527   */\n      sub\n        /* \"#utility.yul\":14503:14504   */\n      0x00\n        /* \"#utility.yul\":14492:14501   */\n      dup4\n        /* \"#utility.yul\":14488:14505   */\n      add\n        /* \"#utility.yul\":14481:14528   */\n      mstore\n        /* \"#utility.yul\":14545:14676   */\n      tag_481\n        /* \"#utility.yul\":14671:14675   */\n      dup2\n        /* \"#utility.yul\":14545:14676   */\n      tag_412\n      jump\t// in\n    tag_481:\n        /* \"#utility.yul\":14537:14676   */\n      swap1\n      pop\n        /* \"#utility.yul\":14264:14683   */\n      swap2\n      swap1\n      pop\n      jump\t// out\n        /* \"#utility.yul\":14689:15108   */\n    tag_230:\n        /* \"#utility.yul\":14855:14859   */\n      0x00\n        /* \"#utility.yul\":14893:14895   */\n      0x20\n        /* \"#utility.yul\":14882:14891   */\n      dup3\n        /* \"#utility.yul\":14878:14896   */\n      add\n        /* \"#utility.yul\":14870:14896   */\n      swap1\n      pop\n        /* \"#utility.yul\":14942:14951   */\n      dup2\n        /* \"#utility.yul\":14936:14940   */\n      dup2\n        /* \"#utility.yul\":14932:14952   */\n      sub\n        /* \"#utility.yul\":14928:14929   */\n      0x00\n        /* \"#utility.yul\":14917:14926   */\n      dup4\n        /* \"#utility.yul\":14913:14930   */\n      add\n        /* \"#utility.yul\":14906:14953   */\n      mstore\n        /* \"#utility.yul\":14970:15101   */\n      tag_483\n        /* \"#utility.yul\":15096:15100   */\n      dup2\n        /* \"#utility.yul\":14970:15101   */\n      tag_417\n      jump\t// in\n    tag_483:\n        /* \"#utility.yul\":14962:15101   */\n      swap1\n      pop\n        /* \"#utility.yul\":14689:15108   */\n      swap2\n      swap1\n      pop\n      jump\t// out\n        /* \"#utility.yul\":15114:15533   */\n    tag_263:\n        /* \"#utility.yul\":15280:15284   */\n      0x00\n        /* \"#utility.yul\":15318:15320   */\n      0x20\n        /* \"#utility.yul\":15307:15316   */\n      dup3\n        /* \"#utility.yul\":15303:15321   */\n      add\n        /* \"#utility.yul\":15295:15321   */\n      swap1\n      pop\n        /* \"#utility.yul\":15367:15376   */\n      dup2\n        /* \"#utility.yul\":15361:15365   */\n      dup2\n        /* \"#utility.yul\":15357:15377   */\n      sub\n        /* \"#utility.yul\":15353:15354   */\n      0x00\n        /* \"#utility.yul\":15342:15351   */\n      dup4\n        /* \"#utility.yul\":15338:15355   */\n      add\n        /* \"#utility.yul\":15331:15378   */\n      mstore\n        /* \"#utility.yul\":15395:15526   */\n      tag_485\n        /* \"#utility.yul\":15521:15525   */\n      dup2\n        /* \"#utility.yul\":15395:15526   */\n      tag_422\n      jump\t// in\n    tag_485:\n        /* \"#utility.yul\":15387:15526   */\n      swap1\n      pop\n        /* \"#utility.yul\":15114:15533   */\n      swap2\n      swap1\n      pop\n      jump\t// out\n        /* \"#utility.yul\":15539:15958   */\n    tag_150:\n        /* \"#utility.yul\":15705:15709   */\n      0x00\n        /* \"#utility.yul\":15743:15745   */\n      0x20\n        /* \"#utility.yul\":15732:15741   */\n      dup3\n        /* \"#utility.yul\":15728:15746   */\n      add\n        /* \"#utility.yul\":15720:15746   */\n      swap1\n      pop\n        /* \"#utility.yul\":15792:15801   */\n      dup2\n        /* \"#utility.yul\":15786:15790   */\n      dup2\n        /* \"#utility.yul\":15782:15802   */\n      sub\n        /* \"#utility.yul\":15778:15779   */\n      0x00\n        /* \"#utility.yul\":15767:15776   */\n      dup4\n        /* \"#utility.yul\":15763:15780   */\n      add\n        /* \"#utility.yul\":15756:15803   */\n      mstore\n        /* \"#utility.yul\":15820:15951   */\n      tag_487\n        /* \"#utility.yul\":15946:15950   */\n      dup2\n        /* \"#utility.yul\":15820:15951   */\n      tag_427\n      jump\t// in\n    tag_487:\n        /* \"#utility.yul\":15812:15951   */\n      swap1\n      pop\n        /* \"#utility.yul\":15539:15958   */\n      swap2\n      swap1\n      pop\n      jump\t// out\n        /* \"#utility.yul\":15964:16383   */\n    tag_192:\n        /* \"#utility.yul\":16130:16134   */\n      0x00\n        /* \"#utility.yul\":16168:16170   */\n      0x20\n        /* \"#utility.yul\":16157:16166   */\n      dup3\n        /* \"#utility.yul\":16153:16171   */\n      add\n        /* \"#utility.yul\":16145:16171   */\n      swap1\n      pop\n        /* \"#utility.yul\":16217:16226   */\n      dup2\n        /* \"#utility.yul\":16211:16215   */\n      dup2\n        /* \"#utility.yul\":16207:16227   */\n      sub\n        /* \"#utility.yul\":16203:16204   */\n      0x00\n        /* \"#utility.yul\":16192:16201   */\n      dup4\n        /* \"#utility.yul\":16188:16205   */\n      add\n        /* \"#utility.yul\":16181:16228   */\n      mstore\n        /* \"#utility.yul\":16245:16376   */\n      tag_489\n        /* \"#utility.yul\":16371:16375   */\n      dup2\n        /* \"#utility.yul\":16245:16376   */\n      tag_432\n      jump\t// in\n    tag_489:\n        /* \"#utility.yul\":16237:16376   */\n      swap1\n      pop\n        /* \"#utility.yul\":15964:16383   */\n      swap2\n      swap1\n      pop\n      jump\t// out\n        /* \"#utility.yul\":16389:16808   */\n    tag_256:\n        /* \"#utility.yul\":16555:16559   */\n      0x00\n        /* \"#utility.yul\":16593:16595   */\n      0x20\n        /* \"#utility.yul\":16582:16591   */\n      dup3\n        /* \"#utility.yul\":16578:16596   */\n      add\n        /* \"#utility.yul\":16570:16596   */\n      swap1\n      pop\n        /* \"#utility.yul\":16642:16651   */\n      dup2\n        /* \"#utility.yul\":16636:16640   */\n      dup2\n        /* \"#utility.yul\":16632:16652   */\n      sub\n        /* \"#utility.yul\":16628:16629   */\n      0x00\n        /* \"#utility.yul\":16617:16626   */\n      dup4\n        /* \"#utility.yul\":16613:16630   */\n      add\n        /* \"#utility.yul\":16606:16653   */\n      mstore\n        /* \"#utility.yul\":16670:16801   */\n      tag_491\n        /* \"#utility.yul\":16796:16800   */\n      dup2\n        /* \"#utility.yul\":16670:16801   */\n      tag_437\n      jump\t// in\n    tag_491:\n        /* \"#utility.yul\":16662:16801   */\n      swap1\n      pop\n        /* \"#utility.yul\":16389:16808   */\n      swap2\n      swap1\n      pop\n      jump\t// out\n        /* \"#utility.yul\":16814:17036   */\n    tag_53:\n        /* \"#utility.yul\":16907:16911   */\n      0x00\n        /* \"#utility.yul\":16945:16947   */\n      0x20\n        /* \"#utility.yul\":16934:16943   */\n      dup3\n        /* \"#utility.yul\":16930:16948   */\n      add\n        /* \"#utility.yul\":16922:16948   */\n      swap1\n      pop\n        /* \"#utility.yul\":16958:17029   */\n      tag_493\n        /* \"#utility.yul\":17026:17027   */\n      0x00\n        /* \"#utility.yul\":17015:17024   */\n      dup4\n        /* \"#utility.yul\":17011:17028   */\n      add\n        /* \"#utility.yul\":17002:17008   */\n      dup5\n        /* \"#utility.yul\":16958:17029   */\n      tag_450\n      jump\t// in\n    tag_493:\n        /* \"#utility.yul\":16814:17036   */\n      swap3\n      swap2\n      pop\n      pop\n      jump\t// out\n        /* \"#utility.yul\":17042:17484   */\n    tag_100:\n        /* \"#utility.yul\":17191:17195   */\n      0x00\n        /* \"#utility.yul\":17229:17231   */\n      0x60\n        /* \"#utility.yul\":17218:17227   */\n      dup3\n        /* \"#utility.yul\":17214:17232   */\n      add\n        /* \"#utility.yul\":17206:17232   */\n      swap1\n      pop\n        /* \"#utility.yul\":17242:17313   */\n      tag_495\n        /* \"#utility.yul\":17310:17311   */\n      0x00\n        /* \"#utility.yul\":17299:17308   */\n      dup4\n        /* \"#utility.yul\":17295:17312   */\n      add\n        /* \"#utility.yul\":17286:17292   */\n      dup7\n        /* \"#utility.yul\":17242:17313   */\n      tag_450\n      jump\t// in\n    tag_495:\n        /* \"#utility.yul\":17323:17395   */\n      tag_496\n        /* \"#utility.yul\":17391:17393   */\n      0x20\n        /* \"#utility.yul\":17380:17389   */\n      dup4\n        /* \"#utility.yul\":17376:17394   */\n      add\n        /* \"#utility.yul\":17367:17373   */\n      dup6\n        /* \"#utility.yul\":17323:17395   */\n      tag_450\n      jump\t// in\n    tag_496:\n        /* \"#utility.yul\":17405:17477   */\n      tag_497\n        /* \"#utility.yul\":17473:17475   */\n      0x40\n        /* \"#utility.yul\":17462:17471   */\n      dup4\n        /* \"#utility.yul\":17458:17476   */\n      add\n        /* \"#utility.yul\":17449:17455   */\n      dup5\n        /* \"#utility.yul\":17405:17477   */\n      tag_450\n      jump\t// in\n    tag_497:\n        /* \"#utility.yul\":17042:17484   */\n      swap5\n      swap4\n      pop\n      pop\n      pop\n      pop\n      jump\t// out\n        /* \"#utility.yul\":17490:17704   */\n    tag_70:\n        /* \"#utility.yul\":17579:17583   */\n      0x00\n        /* \"#utility.yul\":17617:17619   */\n      0x20\n        /* \"#utility.yul\":17606:17615   */\n      dup3\n        /* \"#utility.yul\":17602:17620   */\n      add\n        /* \"#utility.yul\":17594:17620   */\n      swap1\n      pop\n        /* \"#utility.yul\":17630:17697   */\n      tag_499\n        /* \"#utility.yul\":17694:17695   */\n      0x00\n        /* \"#utility.yul\":17683:17692   */\n      dup4\n        /* \"#utility.yul\":17679:17696   */\n      add\n        /* \"#utility.yul\":17670:17676   */\n      dup5\n        /* \"#utility.yul\":17630:17697   */\n      tag_453\n      jump\t// in\n    tag_499:\n        /* \"#utility.yul\":17490:17704   */\n      swap3\n      swap2\n      pop\n      pop\n      jump\t// out\n        /* \"#utility.yul\":17791:17951   */\n    tag_373:\n        /* \"#utility.yul\":17886:17890   */\n      0x00\n        /* \"#utility.yul\":17909:17912   */\n      dup2\n        /* \"#utility.yul\":17901:17912   */\n      swap1\n      pop\n        /* \"#utility.yul\":17939:17943   */\n      0x20\n        /* \"#utility.yul\":17934:17937   */\n      dup3\n        /* \"#utility.yul\":17930:17944   */\n      add\n        /* \"#utility.yul\":17922:17944   */\n      swap1\n      pop\n        /* \"#utility.yul\":17791:17951   */\n      swap2\n      swap1\n      pop\n      jump\t// out\n        /* \"#utility.yul\":17957:18099   */\n    tag_369:\n        /* \"#utility.yul\":18052:18058   */\n      0x00\n        /* \"#utility.yul\":18086:18091   */\n      dup2\n        /* \"#utility.yul\":18080:18092   */\n      mload\n        /* \"#utility.yul\":18070:18092   */\n      swap1\n      pop\n        /* \"#utility.yul\":17957:18099   */\n      swap2\n      swap1\n      pop\n      jump\t// out\n        /* \"#utility.yul\":18105:18204   */\n    tag_395:\n        /* \"#utility.yul\":18157:18163   */\n      0x00\n        /* \"#utility.yul\":18191:18196   */\n      dup2\n        /* \"#utility.yul\":18185:18197   */\n      mload\n        /* \"#utility.yul\":18175:18197   */\n      swap1\n      pop\n        /* \"#utility.yul\":18105:18204   */\n      swap2\n      swap1\n      pop\n      jump\t// out\n        /* \"#utility.yul\":18210:18351   */\n    tag_379:\n        /* \"#utility.yul\":18308:18312   */\n      0x00\n        /* \"#utility.yul\":18340:18344   */\n      0x20\n        /* \"#utility.yul\":18335:18338   */\n      dup3\n        /* \"#utility.yul\":18331:18345   */\n      add\n        /* \"#utility.yul\":18323:18345   */\n      swap1\n      pop\n        /* \"#utility.yul\":18210:18351   */\n      swap2\n      swap1\n      pop\n      jump\t// out\n        /* \"#utility.yul\":18357:18569   */\n    tag_371:\n        /* \"#utility.yul\":18484:18495   */\n      0x00\n        /* \"#utility.yul\":18518:18524   */\n      dup3\n        /* \"#utility.yul\":18513:18516   */\n      dup3\n        /* \"#utility.yul\":18506:18525   */\n      mstore\n        /* \"#utility.yul\":18558:18562   */\n      0x20\n        /* \"#utility.yul\":18553:18556   */\n      dup3\n        /* \"#utility.yul\":18549:18563   */\n      add\n        /* \"#utility.yul\":18534:18563   */\n      swap1\n      pop\n        /* \"#utility.yul\":18357:18569   */\n      swap3\n      swap2\n      pop\n      pop\n      jump\t// out\n        /* \"#utility.yul\":18575:18744   */\n    tag_397:\n        /* \"#utility.yul\":18659:18670   */\n      0x00\n        /* \"#utility.yul\":18693:18699   */\n      dup3\n        /* \"#utility.yul\":18688:18691   */\n      dup3\n        /* \"#utility.yul\":18681:18700   */\n      mstore\n        /* \"#utility.yul\":18733:18737   */\n      0x20\n        /* \"#utility.yul\":18728:18731   */\n      dup3\n        /* \"#utility.yul\":18724:18738   */\n      add\n        /* \"#utility.yul\":18709:18738   */\n      swap1\n      pop\n        /* \"#utility.yul\":18575:18744   */\n      swap3\n      swap2\n      pop\n      pop\n      jump\t// out\n        /* \"#utility.yul\":18750:19055   */\n    tag_237:\n        /* \"#utility.yul\":18790:18793   */\n      0x00\n        /* \"#utility.yul\":18809:18829   */\n      tag_509\n        /* \"#utility.yul\":18827:18828   */\n      dup3\n        /* \"#utility.yul\":18809:18829   */\n      tag_449\n      jump\t// in\n    tag_509:\n        /* \"#utility.yul\":18804:18829   */\n      swap2\n      pop\n        /* \"#utility.yul\":18843:18863   */\n      tag_510\n        /* \"#utility.yul\":18861:18862   */\n      dup4\n        /* \"#utility.yul\":18843:18863   */\n      tag_449\n      jump\t// in\n    tag_510:\n        /* \"#utility.yul\":18838:18863   */\n      swap3\n      pop\n        /* \"#utility.yul\":18997:18998   */\n      dup3\n        /* \"#utility.yul\":18929:18995   */\n      0xffffffffffffffffffffffffffffffffffffffffffffffffffffffffffffffff\n        /* \"#utility.yul\":18925:18999   */\n      sub\n        /* \"#utility.yul\":18922:18923   */\n      dup3\n        /* \"#utility.yul\":18919:19000   */\n      gt\n        /* \"#utility.yul\":18916:19023   */\n      iszero\n      tag_511\n      jumpi\n        /* \"#utility.yul\":19003:19021   */\n      tag_512\n      tag_513\n      jump\t// in\n    tag_512:\n        /* \"#utility.yul\":18916:19023   */\n    tag_511:\n        /* \"#utility.yul\":19047:19048   */\n      dup3\n        /* \"#utility.yul\":19044:19045   */\n      dup3\n        /* \"#utility.yul\":19040:19049   */\n      add\n        /* \"#utility.yul\":19033:19049   */\n      swap1\n      pop\n        /* \"#utility.yul\":18750:19055   */\n      swap3\n      swap2\n      pop\n      pop\n      jump\t// out\n        /* \"#utility.yul\":19061:19246   */\n    tag_258:\n        /* \"#utility.yul\":19101:19102   */\n      0x00\n        /* \"#utility.yul\":19118:19138   */\n      tag_515\n        /* \"#utility.yul\":19136:19137   */\n      dup3\n        /* \"#utility.yul\":19118:19138   */\n      tag_449\n      jump\t// in\n    tag_515:\n        /* \"#utility.yul\":19113:19138   */\n      swap2\n      pop\n        /* \"#utility.yul\":19152:19172   */\n      tag_516\n        /* \"#utility.yul\":19170:19171   */\n      dup4\n        /* \"#utility.yul\":19152:19172   */\n      tag_449\n      jump\t// in\n    tag_516:\n        /* \"#utility.yul\":19147:19172   */\n      swap3\n      pop\n        /* \"#utility.yul\":19191:19192   */\n      dup3\n        /* \"#utility.yul\":19181:19216   */\n      tag_517\n      jumpi\n        /* \"#utility.yul\":19196:19214   */\n      tag_518\n      tag_519\n      jump\t// in\n    tag_518:\n        /* \"#utility.yul\":19181:19216   */\n    tag_517:\n        /* \"#utility.yul\":19238:19239   */\n      dup3\n        /* \"#utility.yul\":19235:19236   */\n      dup3\n        /* \"#utility.yul\":19231:19240   */\n      div\n        /* \"#utility.yul\":19226:19240   */\n      swap1\n      pop\n        /* \"#utility.yul\":19061:19246   */\n      swap3\n      swap2\n      pop\n      pop\n      jump\t// out\n        /* \"#utility.yul\":19252:19600   */\n    tag_177:\n        /* \"#utility.yul\":19292:19299   */\n      0x00\n        /* \"#utility.yul\":19315:19335   */\n      tag_521\n        /* \"#utility.yul\":19333:19334   */\n      dup3\n        /* \"#utility.yul\":19315:19335   */\n      tag_449\n      jump\t// in\n    tag_521:\n        /* \"#utility.yul\":19310:19335   */\n      swap2\n      pop\n        /* \"#utility.yul\":19349:19369   */\n      tag_522\n        /* \"#utility.yul\":19367:19368   */\n      dup4\n        /* \"#utility.yul\":19349:19369   */\n      tag_449\n      jump\t// in\n    tag_522:\n        /* \"#utility.yul\":19344:19369   */\n      swap3\n      pop\n        /* \"#utility.yul\":19537:19538   */\n      dup2\n        /* \"#utility.yul\":19469:19535   */\n      0xffffffffffffffffffffffffffffffffffffffffffffffffffffffffffffffff\n        /* \"#utility.yul\":19465:19539   */\n      div\n        /* \"#utility.yul\":19462:19463   */\n      dup4\n        /* \"#utility.yul\":19459:19540   */\n      gt\n        /* \"#utility.yul\":19454:19455   */\n      dup3\n        /* \"#utility.yul\":19447:19456   */\n      iszero\n        /* \"#utility.yul\":19440:19457   */\n      iszero\n        /* \"#utility.yul\":19436:19541   */\n      and\n        /* \"#utility.yul\":19433:19564   */\n      iszero\n      tag_523\n      jumpi\n        /* \"#utility.yul\":19544:19562   */\n      tag_524\n      tag_513\n      jump\t// in\n    tag_524:\n        /* \"#utility.yul\":19433:19564   */\n    tag_523:\n        /* \"#utility.yul\":19592:19593   */\n      dup3\n        /* \"#utility.yul\":19589:19590   */\n      dup3\n        /* \"#utility.yul\":19585:19594   */\n      mul\n        /* \"#utility.yul\":19574:19594   */\n      swap1\n      pop\n        /* \"#utility.yul\":19252:19600   */\n      swap3\n      swap2\n      pop\n      pop\n      jump\t// out\n        /* \"#utility.yul\":19606:19797   */\n    tag_267:\n        /* \"#utility.yul\":19646:19650   */\n      0x00\n        /* \"#utility.yul\":19666:19686   */\n      tag_526\n        /* \"#utility.yul\":19684:19685   */\n      dup3\n        /* \"#utility.yul\":19666:19686   */\n      tag_449\n      jump\t// in\n    tag_526:\n        /* \"#utility.yul\":19661:19686   */\n      swap2\n      pop\n        /* \"#utility.yul\":19700:19720   */\n      tag_527\n        /* \"#utility.yul\":19718:19719   */\n      dup4\n        /* \"#utility.yul\":19700:19720   */\n      tag_449\n      jump\t// in\n    tag_527:\n        /* \"#utility.yul\":19695:19720   */\n      swap3\n      pop\n        /* \"#utility.yul\":19739:19740   */\n      dup3\n        /* \"#utility.yul\":19736:19737   */\n      dup3\n        /* \"#utility.yul\":19733:19741   */\n      lt\n        /* \"#utility.yul\":19730:19764   */\n      iszero\n      tag_528\n      jumpi\n        /* \"#utility.yul\":19744:19762   */\n      tag_529\n      tag_513\n      jump\t// in\n    tag_529:\n        /* \"#utility.yul\":19730:19764   */\n    tag_528:\n        /* \"#utility.yul\":19789:19790   */\n      dup3\n        /* \"#utility.yul\":19786:19787   */\n      dup3\n        /* \"#utility.yul\":19782:19791   */\n      sub\n        /* \"#utility.yul\":19774:19791   */\n      swap1\n      pop\n        /* \"#utility.yul\":19606:19797   */\n      swap3\n      swap2\n      pop\n      pop\n      jump\t// out\n        /* \"#utility.yul\":19803:19899   */\n    tag_365:\n        /* \"#utility.yul\":19840:19847   */\n      0x00\n        /* \"#utility.yul\":19869:19893   */\n      tag_531\n        /* \"#utility.yul\":19887:19892   */\n      dup3\n        /* \"#utility.yul\":19869:19893   */\n      tag_532\n      jump\t// in\n    tag_531:\n        /* \"#utility.yul\":19858:19893   */\n      swap1\n      pop\n        /* \"#utility.yul\":19803:19899   */\n      swap2\n      swap1\n      pop\n      jump\t// out\n        /* \"#utility.yul\":19905:19995   */\n    tag_383:\n        /* \"#utility.yul\":19939:19946   */\n      0x00\n        /* \"#utility.yul\":19982:19987   */\n      dup2\n        /* \"#utility.yul\":19975:19988   */\n      iszero\n        /* \"#utility.yul\":19968:19989   */\n      iszero\n        /* \"#utility.yul\":19957:19989   */\n      swap1\n      pop\n        /* \"#utility.yul\":19905:19995   */\n      swap2\n      swap1\n      pop\n      jump\t// out\n        /* \"#utility.yul\":20001:20150   */\n    tag_387:\n        /* \"#utility.yul\":20037:20044   */\n      0x00\n        /* \"#utility.yul\":20077:20143   */\n      0xffffffff00000000000000000000000000000000000000000000000000000000\n        /* \"#utility.yul\":20070:20075   */\n      dup3\n        /* \"#utility.yul\":20066:20144   */\n      and\n        /* \"#utility.yul\":20055:20144   */\n      swap1\n      pop\n        /* \"#utility.yul\":20001:20150   */\n      swap2\n      swap1\n      pop\n      jump\t// out\n        /* \"#utility.yul\":20156:20282   */\n    tag_532:\n        /* \"#utility.yul\":20193:20200   */\n      0x00\n        /* \"#utility.yul\":20233:20275   */\n      0xffffffffffffffffffffffffffffffffffffffff\n        /* \"#utility.yul\":20226:20231   */\n      dup3\n        /* \"#utility.yul\":20222:20276   */\n      and\n        /* \"#utility.yul\":20211:20276   */\n      swap1\n      pop\n        /* \"#utility.yul\":20156:20282   */\n      swap2\n      swap1\n      pop\n      jump\t// out\n        /* \"#utility.yul\":20288:20365   */\n    tag_449:\n        /* \"#utility.yul\":20325:20332   */\n      0x00\n        /* \"#utility.yul\":20354:20359   */\n      dup2\n        /* \"#utility.yul\":20343:20359   */\n      swap1\n      pop\n        /* \"#utility.yul\":20288:20365   */\n      swap2\n      swap1\n      pop\n      jump\t// out\n        /* \"#utility.yul\":20371:20457   */\n    tag_456:\n        /* \"#utility.yul\":20406:20413   */\n      0x00\n        /* \"#utility.yul\":20446:20450   */\n      0xff\n        /* \"#utility.yul\":20439:20444   */\n      dup3\n        /* \"#utility.yul\":20435:20451   */\n      and\n        /* \"#utility.yul\":20424:20451   */\n      swap1\n      pop\n        /* \"#utility.yul\":20371:20457   */\n      swap2\n      swap1\n      pop\n      jump\t// out\n        /* \"#utility.yul\":20463:20604   */\n    tag_391:\n        /* \"#utility.yul\":20528:20537   */\n      0x00\n        /* \"#utility.yul\":20561:20598   */\n      tag_539\n        /* \"#utility.yul\":20592:20597   */\n      dup3\n        /* \"#utility.yul\":20561:20598   */\n      tag_540\n      jump\t// in\n    tag_539:\n        /* \"#utility.yul\":20548:20598   */\n      swap1\n      pop\n        /* \"#utility.yul\":20463:20604   */\n      swap2\n      swap1\n      pop\n      jump\t// out\n        /* \"#utility.yul\":20610:20736   */\n    tag_540:\n        /* \"#utility.yul\":20660:20669   */\n      0x00\n        /* \"#utility.yul\":20693:20730   */\n      tag_542\n        /* \"#utility.yul\":20724:20729   */\n      dup3\n        /* \"#utility.yul\":20693:20730   */\n      tag_543\n      jump\t// in\n    tag_542:\n        /* \"#utility.yul\":20680:20730   */\n      swap1\n      pop\n        /* \"#utility.yul\":20610:20736   */\n      swap2\n      swap1\n      pop\n      jump\t// out\n        /* \"#utility.yul\":20742:20855   */\n    tag_543:\n        /* \"#utility.yul\":20792:20801   */\n      0x00\n        /* \"#utility.yul\":20825:20849   */\n      tag_545\n        /* \"#utility.yul\":20843:20848   */\n      dup3\n        /* \"#utility.yul\":20825:20849   */\n      tag_532\n      jump\t// in\n    tag_545:\n        /* \"#utility.yul\":20812:20849   */\n      swap1\n      pop\n        /* \"#utility.yul\":20742:20855   */\n      swap2\n      swap1\n      pop\n      jump\t// out\n        /* \"#utility.yul\":20861:21168   */\n    tag_399:\n        /* \"#utility.yul\":20929:20930   */\n      0x00\n        /* \"#utility.yul\":20939:21052   */\n    tag_547:\n        /* \"#utility.yul\":20953:20959   */\n      dup4\n        /* \"#utility.yul\":20950:20951   */\n      dup2\n        /* \"#utility.yul\":20947:20960   */\n      lt\n        /* \"#utility.yul\":20939:21052   */\n      iszero\n      tag_549\n      jumpi\n        /* \"#utility.yul\":21038:21039   */\n      dup1\n        /* \"#utility.yul\":21033:21036   */\n      dup3\n        /* \"#utility.yul\":21029:21040   */\n      add\n        /* \"#utility.yul\":21023:21041   */\n      mload\n        /* \"#utility.yul\":21019:21020   */\n      dup2\n        /* \"#utility.yul\":21014:21017   */\n      dup5\n        /* \"#utility.yul\":21010:21021   */\n      add\n        /* \"#utility.yul\":21003:21042   */\n      mstore\n        /* \"#utility.yul\":20975:20977   */\n      0x20\n        /* \"#utility.yul\":20972:20973   */\n      dup2\n        /* \"#utility.yul\":20968:20978   */\n      add\n        /* \"#utility.yul\":20963:20978   */\n      swap1\n      pop\n        /* \"#utility.yul\":20939:21052   */\n      jump(tag_547)\n    tag_549:\n        /* \"#utility.yul\":21070:21076   */\n      dup4\n        /* \"#utility.yul\":21067:21068   */\n      dup2\n        /* \"#utility.yul\":21064:21077   */\n      gt\n        /* \"#utility.yul\":21061:21162   */\n      iszero\n      tag_550\n      jumpi\n        /* \"#utility.yul\":21150:21151   */\n      0x00\n        /* \"#utility.yul\":21141:21147   */\n      dup5\n        /* \"#utility.yul\":21136:21139   */\n      dup5\n        /* \"#utility.yul\":21132:21148   */\n      add\n        /* \"#utility.yul\":21125:21152   */\n      mstore\n        /* \"#utility.yul\":21061:21162   */\n    tag_550:\n        /* \"#utility.yul\":20910:21168   */\n      pop\n        /* \"#utility.yul\":20861:21168   */\n      pop\n      pop\n      pop\n      jump\t// out\n        /* \"#utility.yul\":21174:21345   */\n    tag_251:\n        /* \"#utility.yul\":21213:21216   */\n      0x00\n        /* \"#utility.yul\":21236:21260   */\n      tag_552\n        /* \"#utility.yul\":21254:21259   */\n      dup3\n        /* \"#utility.yul\":21236:21260   */\n      tag_449\n      jump\t// in\n    tag_552:\n        /* \"#utility.yul\":21227:21260   */\n      swap2\n      pop\n        /* \"#utility.yul\":21282:21286   */\n      0x00\n        /* \"#utility.yul\":21275:21280   */\n      dup3\n        /* \"#utility.yul\":21272:21287   */\n      eq\n        /* \"#utility.yul\":21269:21310   */\n      iszero\n      tag_553\n      jumpi\n        /* \"#utility.yul\":21290:21308   */\n      tag_554\n      tag_513\n      jump\t// in\n    tag_554:\n        /* \"#utility.yul\":21269:21310   */\n    tag_553:\n        /* \"#utility.yul\":21337:21338   */\n      0x01\n        /* \"#utility.yul\":21330:21335   */\n      dup3\n        /* \"#utility.yul\":21326:21339   */\n      sub\n        /* \"#utility.yul\":21319:21339   */\n      swap1\n      pop\n        /* \"#utility.yul\":21174:21345   */\n      swap2\n      swap1\n      pop\n      jump\t// out\n        /* \"#utility.yul\":21351:21671   */\n    tag_162:\n        /* \"#utility.yul\":21395:21401   */\n      0x00\n        /* \"#utility.yul\":21432:21433   */\n      0x02\n        /* \"#utility.yul\":21426:21430   */\n      dup3\n        /* \"#utility.yul\":21422:21434   */\n      div\n        /* \"#utility.yul\":21412:21434   */\n      swap1\n      pop\n        /* \"#utility.yul\":21479:21480   */\n      0x01\n        /* \"#utility.yul\":21473:21477   */\n      dup3\n        /* \"#utility.yul\":21469:21481   */\n      and\n        /* \"#utility.yul\":21500:21518   */\n      dup1\n        /* \"#utility.yul\":21490:21571   */\n      tag_556\n      jumpi\n        /* \"#utility.yul\":21556:21560   */\n      0x7f\n        /* \"#utility.yul\":21548:21554   */\n      dup3\n        /* \"#utility.yul\":21544:21561   */\n      and\n        /* \"#utility.yul\":21534:21561   */\n      swap2\n      pop\n        /* \"#utility.yul\":21490:21571   */\n    tag_556:\n        /* \"#utility.yul\":21618:21620   */\n      0x20\n        /* \"#utility.yul\":21610:21616   */\n      dup3\n        /* \"#utility.yul\":21607:21621   */\n      lt\n        /* \"#utility.yul\":21587:21605   */\n      dup2\n        /* \"#utility.yul\":21584:21622   */\n      eq\n        /* \"#utility.yul\":21581:21665   */\n      iszero\n      tag_557\n      jumpi\n        /* \"#utility.yul\":21637:21655   */\n      tag_558\n      tag_559\n      jump\t// in\n    tag_558:\n        /* \"#utility.yul\":21581:21665   */\n    tag_557:\n        /* \"#utility.yul\":21402:21671   */\n      pop\n        /* \"#utility.yul\":21351:21671   */\n      swap2\n      swap1\n      pop\n      jump\t// out\n        /* \"#utility.yul\":21677:21910   */\n    tag_160:\n        /* \"#utility.yul\":21716:21719   */\n      0x00\n        /* \"#utility.yul\":21739:21763   */\n      tag_561\n        /* \"#utility.yul\":21757:21762   */\n      dup3\n        /* \"#utility.yul\":21739:21763   */\n      tag_449\n      jump\t// in\n    tag_561:\n        /* \"#utility.yul\":21730:21763   */\n      swap2\n      pop\n        /* \"#utility.yul\":21785:21851   */\n      0xffffffffffffffffffffffffffffffffffffffffffffffffffffffffffffffff\n        /* \"#utility.yul\":21778:21783   */\n      dup3\n        /* \"#utility.yul\":21775:21852   */\n      eq\n        /* \"#utility.yul\":21772:21875   */\n      iszero\n      tag_562\n      jumpi\n        /* \"#utility.yul\":21855:21873   */\n      tag_563\n      tag_513\n      jump\t// in\n    tag_563:\n        /* \"#utility.yul\":21772:21875   */\n    tag_562:\n        /* \"#utility.yul\":21902:21903   */\n      0x01\n        /* \"#utility.yul\":21895:21900   */\n      dup3\n        /* \"#utility.yul\":21891:21904   */\n      add\n        /* \"#utility.yul\":21884:21904   */\n      swap1\n      pop\n        /* \"#utility.yul\":21677:21910   */\n      swap2\n      swap1\n      pop\n      jump\t// out\n        /* \"#utility.yul\":21916:22096   */\n    tag_513:\n        /* \"#utility.yul\":21964:22041   */\n      0x4e487b7100000000000000000000000000000000000000000000000000000000\n        /* \"#utility.yul\":21961:21962   */\n      0x00\n        /* \"#utility.yul\":21954:22042   */\n      mstore\n        /* \"#utility.yul\":22061:22065   */\n      0x11\n        /* \"#utility.yul\":22058:22059   */\n      0x04\n        /* \"#utility.yul\":22051:22066   */\n      mstore\n        /* \"#utility.yul\":22085:22089   */\n      0x24\n        /* \"#utility.yul\":22082:22083   */\n      0x00\n        /* \"#utility.yul\":22075:22090   */\n      revert\n        /* \"#utility.yul\":22102:22282   */\n    tag_519:\n        /* \"#utility.yul\":22150:22227   */\n      0x4e487b7100000000000000000000000000000000000000000000000000000000\n        /* \"#utility.yul\":22147:22148   */\n      0x00\n        /* \"#utility.yul\":22140:22228   */\n      mstore\n        /* \"#utility.yul\":22247:22251   */\n      0x12\n        /* \"#utility.yul\":22244:22245   */\n      0x04\n        /* \"#utility.yul\":22237:22252   */\n      mstore\n        /* \"#utility.yul\":22271:22275   */\n      0x24\n        /* \"#utility.yul\":22268:22269   */\n      0x00\n        /* \"#utility.yul\":22261:22276   */\n      revert\n        /* \"#utility.yul\":22288:22468   */\n    tag_559:\n        /* \"#utility.yul\":22336:22413   */\n      0x4e487b7100000000000000000000000000000000000000000000000000000000\n        /* \"#utility.yul\":22333:22334   */\n      0x00\n        /* \"#utility.yul\":22326:22414   */\n      mstore\n        /* \"#utility.yul\":22433:22437   */\n      0x22\n        /* \"#utility.yul\":22430:22431   */\n      0x04\n        /* \"#utility.yul\":22423:22438   */\n      mstore\n        /* \"#utility.yul\":22457:22461   */\n      0x24\n        /* \"#utility.yul\":22454:22455   */\n      0x00\n        /* \"#utility.yul\":22447:22462   */\n      revert\n        /* \"#utility.yul\":22474:22654   */\n    tag_142:\n        /* \"#utility.yul\":22522:22599   */\n      0x4e487b7100000000000000000000000000000000000000000000000000000000\n        /* \"#utility.yul\":22519:22520   */\n      0x00\n        /* \"#utility.yul\":22512:22600   */\n      mstore\n        /* \"#utility.yul\":22619:22623   */\n      0x32\n        /* \"#utility.yul\":22616:22617   */\n      0x04\n        /* \"#utility.yul\":22609:22624   */\n      mstore\n        /* \"#utility.yul\":22643:22647   */\n      0x24\n        /* \"#utility.yul\":22640:22641   */\n      0x00\n        /* \"#utility.yul\":22633:22648   */\n      revert\n        /* \"#utility.yul\":22660:22777   */\n    tag_311:\n        /* \"#utility.yul\":22769:22770   */\n      0x00\n        /* \"#utility.yul\":22766:22767   */\n      dup1\n        /* \"#utility.yul\":22759:22771   */\n      revert\n        /* \"#utility.yul\":22783:22900   */\n    tag_308:\n        /* \"#utility.yul\":22892:22893   */\n      0x00\n        /* \"#utility.yul\":22889:22890   */\n      dup1\n        /* \"#utility.yul\":22882:22894   */\n      revert\n        /* \"#utility.yul\":22906:23023   */\n    tag_314:\n        /* \"#utility.yul\":23015:23016   */\n      0x00\n        /* \"#utility.yul\":23012:23013   */\n      dup1\n        /* \"#utility.yul\":23005:23017   */\n      revert\n        /* \"#utility.yul\":23029:23146   */\n    tag_347:\n        /* \"#utility.yul\":23138:23139   */\n      0x00\n        /* \"#utility.yul\":23135:23136   */\n      dup1\n        /* \"#utility.yul\":23128:23140   */\n      revert\n        /* \"#utility.yul\":23152:23269   */\n    tag_322:\n        /* \"#utility.yul\":23261:23262   */\n      0x00\n        /* \"#utility.yul\":23258:23259   */\n      dup1\n        /* \"#utility.yul\":23251:23263   */\n      revert\n        /* \"#utility.yul\":23275:23377   */\n    tag_401:\n        /* \"#utility.yul\":23316:23322   */\n      0x00\n        /* \"#utility.yul\":23367:23369   */\n      0x1f\n        /* \"#utility.yul\":23363:23370   */\n      not\n        /* \"#utility.yul\":23358:23360   */\n      0x1f\n        /* \"#utility.yul\":23351:23356   */\n      dup4\n        /* \"#utility.yul\":23347:23361   */\n      add\n        /* \"#utility.yul\":23343:23371   */\n      and\n        /* \"#utility.yul\":23333:23371   */\n      swap1\n      pop\n        /* \"#utility.yul\":23275:23377   */\n      swap2\n      swap1\n      pop\n      jump\t// out\n        /* \"#utility.yul\":23383:23558   */\n    tag_406:\n        /* \"#utility.yul\":23523:23550   */\n      0x4f6e6c79206f776e65722063616e2063616c6c20746869732e00000000000000\n        /* \"#utility.yul\":23519:23520   */\n      0x00\n        /* \"#utility.yul\":23511:23517   */\n      dup3\n        /* \"#utility.yul\":23507:23521   */\n      add\n        /* \"#utility.yul\":23500:23551   */\n      mstore\n        /* \"#utility.yul\":23383:23558   */\n      pop\n      jump\t// out\n        /* \"#utility.yul\":23564:23742   */\n    tag_411:\n        /* \"#utility.yul\":23704:23734   */\n      0x7472616e7366657220746f20666f756e646174696f6e20666c61736500000000\n        /* \"#utility.yul\":23700:23701   */\n      0x00\n        /* \"#utility.yul\":23692:23698   */\n      dup3\n        /* \"#utility.yul\":23688:23702   */\n      add\n        /* \"#utility.yul\":23681:23735   */\n      mstore\n        /* \"#utility.yul\":23564:23742   */\n      pop\n      jump\t// out\n        /* \"#utility.yul\":23748:23928   */\n    tag_416:\n        /* \"#utility.yul\":23888:23920   */\n      0x536166654d6174683a207375627472616374696f6e206f766572666c6f770000\n        /* \"#utility.yul\":23884:23885   */\n      0x00\n        /* \"#utility.yul\":23876:23882   */\n      dup3\n        /* \"#utility.yul\":23872:23886   */\n      add\n        /* \"#utility.yul\":23865:23921   */\n      mstore\n        /* \"#utility.yul\":23748:23928   */\n      pop\n      jump\t// out\n        /* \"#utility.yul\":23934:24106   */\n    tag_421:\n        /* \"#utility.yul\":24074:24098   */\n      0x596f7520646f6e2774206f776e2074686973204e465400000000000000000000\n        /* \"#utility.yul\":24070:24071   */\n      0x00\n        /* \"#utility.yul\":24062:24068   */\n      dup3\n        /* \"#utility.yul\":24058:24072   */\n      add\n        /* \"#utility.yul\":24051:24099   */\n      mstore\n        /* \"#utility.yul\":23934:24106   */\n      pop\n      jump\t// out\n        /* \"#utility.yul\":24112:24280   */\n    tag_426:\n        /* \"#utility.yul\":24252:24272   */\n      0x496e73756666696369656e742066756e64730000000000000000000000000000\n        /* \"#utility.yul\":24248:24249   */\n      0x00\n        /* \"#utility.yul\":24240:24246   */\n      dup3\n        /* \"#utility.yul\":24236:24250   */\n      add\n        /* \"#utility.yul\":24229:24273   */\n      mstore\n        /* \"#utility.yul\":24112:24280   */\n      pop\n      jump\t// out\n        /* \"#utility.yul\":24286:24461   */\n    tag_431:\n        /* \"#utility.yul\":24426:24453   */\n      0x596f7520616c7265616479206861766520776974686472617700000000000000\n        /* \"#utility.yul\":24422:24423   */\n      0x00\n        /* \"#utility.yul\":24414:24420   */\n      dup3\n        /* \"#utility.yul\":24410:24424   */\n      add\n        /* \"#utility.yul\":24403:24454   */\n      mstore\n        /* \"#utility.yul\":24286:24461   */\n      pop\n      jump\t// out\n        /* \"#utility.yul\":24467:24644   */\n    tag_436:\n        /* \"#utility.yul\":24607:24636   */\n      0x74686973206164647265737320686173206265656e20626f756e640000000000\n        /* \"#utility.yul\":24603:24604   */\n      0x00\n        /* \"#utility.yul\":24595:24601   */\n      dup3\n        /* \"#utility.yul\":24591:24605   */\n      add\n        /* \"#utility.yul\":24584:24637   */\n      mstore\n        /* \"#utility.yul\":24467:24644   */\n      pop\n      jump\t// out\n        /* \"#utility.yul\":24650:24826   */\n    tag_441:\n        /* \"#utility.yul\":24790:24818   */\n      0x536166654d6174683a6469766973696f6e206f766572666c6f77000000000000\n        /* \"#utility.yul\":24786:24787   */\n      0x00\n        /* \"#utility.yul\":24778:24784   */\n      dup3\n        /* \"#utility.yul\":24774:24788   */\n      add\n        /* \"#utility.yul\":24767:24819   */\n      mstore\n        /* \"#utility.yul\":24650:24826   */\n      pop\n      jump\t// out\n        /* \"#utility.yul\":24832:24954   */\n    tag_300:\n        /* \"#utility.yul\":24905:24929   */\n      tag_583\n        /* \"#utility.yul\":24923:24928   */\n      dup2\n        /* \"#utility.yul\":24905:24929   */\n      tag_365\n      jump\t// in\n    tag_583:\n        /* \"#utility.yul\":24898:24903   */\n      dup2\n        /* \"#utility.yul\":24895:24930   */\n      eq\n        /* \"#utility.yul\":24885:24948   */\n      tag_584\n      jumpi\n        /* \"#utility.yul\":24944:24945   */\n      0x00\n        /* \"#utility.yul\":24941:24942   */\n      dup1\n        /* \"#utility.yul\":24934:24946   */\n      revert\n        /* \"#utility.yul\":24885:24948   */\n    tag_584:\n        /* \"#utility.yul\":24832:24954   */\n      pop\n      jump\t// out\n        /* \"#utility.yul\":24960:25082   */\n    tag_318:\n        /* \"#utility.yul\":25033:25057   */\n      tag_586\n        /* \"#utility.yul\":25051:25056   */\n      dup2\n        /* \"#utility.yul\":25033:25057   */\n      tag_449\n      jump\t// in\n    tag_586:\n        /* \"#utility.yul\":25026:25031   */\n      dup2\n        /* \"#utility.yul\":25023:25058   */\n      eq\n        /* \"#utility.yul\":25013:25076   */\n      tag_587\n      jumpi\n        /* \"#utility.yul\":25072:25073   */\n      0x00\n        /* \"#utility.yul\":25069:25070   */\n      dup1\n        /* \"#utility.yul\":25062:25074   */\n      revert\n        /* \"#utility.yul\":25013:25076   */\n    tag_587:\n        /* \"#utility.yul\":24960:25082   */\n      pop\n      jump\t// out\n\n    auxdata: 0xa26469706673582212204ecb78f54bcd25e72218cc0ff8817b2ab5b8d5ee98b9f7c3136ae3f15ca48ffd64736f6c63430008070033\n}\n",
				"bytecode": {
					"linkReferences": {},
					"object": "60806040526004600260006101000a81548160ff021916908360ff1602179055506402540be4006003553480156200003657600080fd5b50604051620032ca380380620032ca83398181016040528101906200005c919062000318565b6000600260009054906101000a900460ff1660ff16600a6200007f91906200042c565b6003546200008e919062000569565b905080600460008673ffffffffffffffffffffffffffffffffffffffff1673ffffffffffffffffffffffffffffffffffffffff1681526020019081526020016000206000828254620000e1919062000374565b9250508190555081600760006101000a81548173ffffffffffffffffffffffffffffffffffffffff021916908373ffffffffffffffffffffffffffffffffffffffff1602179055506040518060400160405280600481526020017f4f4e454500000000000000000000000000000000000000000000000000000000815250600090805190602001906200017692919062000251565b506040518060400160405280600481526020017f4f4e45450000000000000000000000000000000000000000000000000000000081525060019080519060200190620001c492919062000251565b5083600960006101000a81548173ffffffffffffffffffffffffffffffffffffffff021916908373ffffffffffffffffffffffffffffffffffffffff16021790555082600d60006101000a81548173ffffffffffffffffffffffffffffffffffffffff021916908373ffffffffffffffffffffffffffffffffffffffff16021790555050505050620006c8565b8280546200025f9062000608565b90600052602060002090601f016020900481019282620002835760008555620002cf565b82601f106200029e57805160ff1916838001178555620002cf565b82800160010185558215620002cf579182015b82811115620002ce578251825591602001919060010190620002b1565b5b509050620002de9190620002e2565b5090565b5b80821115620002fd576000816000905550600101620002e3565b5090565b6000815190506200031281620006ae565b92915050565b6000806000606084860312156200033457620003336200069c565b5b6000620003448682870162000301565b9350506020620003578682870162000301565b92505060406200036a8682870162000301565b9150509250925092565b60006200038182620005fe565b91506200038e83620005fe565b9250827fffffffffffffffffffffffffffffffffffffffffffffffffffffffffffffffff03821115620003c657620003c56200063e565b5b828201905092915050565b6000808291508390505b60018511156200042357808604811115620003fb57620003fa6200063e565b5b60018516156200040b5780820291505b80810290506200041b85620006a1565b9450620003db565b94509492505050565b60006200043982620005fe565b91506200044683620005fe565b9250620004757fffffffffffffffffffffffffffffffffffffffffffffffffffffffffffffffff84846200047d565b905092915050565b6000826200048f576001905062000562565b816200049f576000905062000562565b8160018114620004b85760028114620004c357620004f9565b600191505062000562565b60ff841115620004d857620004d76200063e565b5b8360020a915084821115620004f257620004f16200063e565b5b5062000562565b5060208310610133831016604e8410600b8410161715620005335782820a9050838111156200052d576200052c6200063e565b5b62000562565b620005428484846001620003d1565b925090508184048111156200055c576200055b6200063e565b5b81810290505b9392505050565b60006200057682620005fe565b91506200058383620005fe565b9250817fffffffffffffffffffffffffffffffffffffffffffffffffffffffffffffffff0483118215151615620005bf57620005be6200063e565b5b828202905092915050565b6000620005d782620005de565b9050919050565b600073ffffffffffffffffffffffffffffffffffffffff82169050919050565b6000819050919050565b600060028204905060018216806200062157607f821691505b602082108114156200063857620006376200066d565b5b50919050565b7f4e487b7100000000000000000000000000000000000000000000000000000000600052601160045260246000fd5b7f4e487b7100000000000000000000000000000000000000000000000000000000600052602260045260246000fd5b600080fd5b60008160011c9050919050565b620006b981620005ca565b8114620006c557600080fd5b50565b612bf280620006d86000396000f3fe60806040526004361061012a5760003560e01c806370a08231116100ab578063b369ecd71161006f578063b369ecd71461042f578063ce7ac47d1461046c578063d56d229d14610488578063dd62ed3e146104b3578063e91a7ca6146104f0578063ffc49f381461050c5761012a565b806370a082311461032d5780638951cf591461036a57806395d89b411461039557806398c61c37146103c0578063a9059cbb146103ff5761012a565b806323b872dd116100f257806323b872dd1461021b57806327d88a781461024b578063313ce5671461028857806348828ec0146102b35780636352211e146102f05761012a565b8063023245d71461012f57806306fdde031461014b578063095ea7b314610176578063150b7a02146101b357806318160ddd146101f0575b600080fd5b6101496004803603810190610144919061214b565b610549565b005b34801561015757600080fd5b506101606108a8565b60405161016d91906124d8565b60405180910390f35b34801561018257600080fd5b5061019d6004803603810190610198919061210b565b610936565b6040516101aa9190612487565b60405180910390f35b3480156101bf57600080fd5b506101da60048036038101906101d59190612083565b610a91565b6040516101e791906124a2565b60405180910390f35b3480156101fc57600080fd5b50610205610b4f565b60405161021291906125fa565b60405180910390f35b61023560048036038101906102309190612030565b610b55565b6040516102429190612487565b60405180910390f35b34801561025757600080fd5b50610272600480360381019061026d9190611f96565b610c04565b60405161027f9190612465565b60405180910390f35b34801561029457600080fd5b5061029d610cc0565b6040516102aa919061264c565b60405180910390f35b3480156102bf57600080fd5b506102da60048036038101906102d59190611f96565b610cd3565b6040516102e79190612487565b60405180910390f35b3480156102fc57600080fd5b506103176004803603810190610312919061214b565b610db8565b60405161032491906123ea565b60405180910390f35b34801561033957600080fd5b50610354600480360381019061034f9190611f96565b610ecf565b60405161036191906125fa565b60405180910390f35b34801561037657600080fd5b5061037f610f18565b60405161038c91906125fa565b60405180910390f35b3480156103a157600080fd5b506103aa610f22565b6040516103b791906124d8565b60405180910390f35b3480156103cc57600080fd5b506103e760048036038101906103e2919061210b565b610fb0565b6040516103f693929190612615565b60405180910390f35b6104196004803603810190610414919061210b565b610ff7565b6040516104269190612487565b60405180910390f35b34801561043b57600080fd5b5061045660048036038101906104519190611f96565b6110a3565b60405161046391906125fa565b60405180910390f35b6104866004803603810190610481919061214b565b6110bb565b005b34801561049457600080fd5b5061049d611168565b6040516104aa91906124bd565b60405180910390f35b3480156104bf57600080fd5b506104da60048036038101906104d59190611ff0565b61118e565b6040516104e791906125fa565b60405180910390f35b61050a6004803603810190610505919061214b565b611215565b005b34801561051857600080fd5b50610533600480360381019061052e9190611f96565b611567565b60405161054091906125fa565b60405180910390f35b600960009054906101000a900473ffffffffffffffffffffffffffffffffffffffff1673ffffffffffffffffffffffffffffffffffffffff163373ffffffffffffffffffffffffffffffffffffffff16146105d9576040517f08c379a00000000000000000000000000000000000000000000000000000000081526004016105d0906124fa565b60405180910390fd5b600d60009054906101000a900473ffffffffffffffffffffffffffffffffffffffff16600a60006101000a81548173ffffffffffffffffffffffffffffffffffffffff021916908373ffffffffffffffffffffffffffffffffffffffff1602179055506000600c60003373ffffffffffffffffffffffffffffffffffffffff1673ffffffffffffffffffffffffffffffffffffffff16815260200190815260200160002054905060005b818110156108a35782600b60003373ffffffffffffffffffffffffffffffffffffffff1673ffffffffffffffffffffffffffffffffffffffff16815260200190815260200160002082815481106106dd576106dc6129ed565b5b9060005260206000209060030201600001541415610892576001600b60003373ffffffffffffffffffffffffffffffffffffffff1673ffffffffffffffffffffffffffffffffffffffff1681526020019081526020016000208281548110610748576107476129ed565b5b9060005260206000209060030201600201541461079a576040517f08c379a00000000000000000000000000000000000000000000000000000000081526004016107919061259a565b60405180910390fd5b6000600b60003373ffffffffffffffffffffffffffffffffffffffff1673ffffffffffffffffffffffffffffffffffffffff16815260200190815260200160002082815481106107ed576107ec6129ed565b5b906000526020600020906003020160020181905550600a60009054906101000a900473ffffffffffffffffffffffffffffffffffffffff1673ffffffffffffffffffffffffffffffffffffffff1663095ea7b333856040518363ffffffff1660e01b815260040161085f92919061243c565b600060405180830381600087803b15801561087957600080fd5b505af115801561088d573d6000803e3d6000fd5b505050505b8061089c90612917565b9050610683565b505050565b600080546108b5906128e5565b80601f01602080910402602001604051908101604052809291908181526020018280546108e1906128e5565b801561092e5780601f106109035761010080835404028352916020019161092e565b820191906000526020600020905b81548152906001019060200180831161091157829003601f168201915b505050505081565b6000808214806109c257506000600560003373ffffffffffffffffffffffffffffffffffffffff1673ffffffffffffffffffffffffffffffffffffffff16815260200190815260200160002060008573ffffffffffffffffffffffffffffffffffffffff1673ffffffffffffffffffffffffffffffffffffffff16815260200190815260200160002054145b6109cb57600080fd5b81600560003373ffffffffffffffffffffffffffffffffffffffff1673ffffffffffffffffffffffffffffffffffffffff16815260200190815260200160002060008573ffffffffffffffffffffffffffffffffffffffff1673ffffffffffffffffffffffffffffffffffffffff168152602001908152602001600020819055507f8c5be1e5ebec7d5bd14f71427d1e84f3dd0314c0f7b2291e5b200ac8c7c3b925338484604051610a7f93929190612405565b60405180910390a16001905092915050565b600080604051806060016040528086815260200142815260200160008152509050600b60008773ffffffffffffffffffffffffffffffffffffffff1673ffffffffffffffffffffffffffffffffffffffff168152602001908152602001600020819080600181540180825580915050600190039060005260206000209060030201600090919091909150600082015181600001556020820151816001015560408201518160020155505063150b7a0260e01b91505095945050505050565b60035481565b600080610b786064600085610b6a9190612743565b61164c90919063ffffffff16565b90506000610bab86600760009054906101000a900473ffffffffffffffffffffffffffffffffffffffff168460006116aa565b905080610bed576040517f08c379a0000000000000000000000000000000000000000000000000000000008152600401610be49061251a565b60405180910390fd5b610bf9868686856116aa565b925050509392505050565b6060600b60008373ffffffffffffffffffffffffffffffffffffffff1673ffffffffffffffffffffffffffffffffffffffff168152602001908152602001600020805480602002602001604051908101604052809291908181526020016000905b82821015610cb55783829060005260206000209060030201604051806060016040529081600082015481526020016001820154815260200160028201548152505081526020019060010190610c65565b505050509050919050565b600260009054906101000a900460ff1681565b60008073ffffffffffffffffffffffffffffffffffffffff16600860003373ffffffffffffffffffffffffffffffffffffffff1673ffffffffffffffffffffffffffffffffffffffff16815260200190815260200160002060020160009054906101000a900473ffffffffffffffffffffffffffffffffffffffff1673ffffffffffffffffffffffffffffffffffffffff1614610da5576040517f08c379a0000000000000000000000000000000000000000000000000000000008152600401610d9c906125ba565b60405180910390fd5b610daf3383611a97565b60019050919050565b6000600d60009054906101000a900473ffffffffffffffffffffffffffffffffffffffff16600a60006101000a81548173ffffffffffffffffffffffffffffffffffffffff021916908373ffffffffffffffffffffffffffffffffffffffff160217905550600a60009054906101000a900473ffffffffffffffffffffffffffffffffffffffff1673ffffffffffffffffffffffffffffffffffffffff16636352211e836040518263ffffffff1660e01b8152600401610e7891906125fa565b60206040518083038186803b158015610e9057600080fd5b505afa158015610ea4573d6000803e3d6000fd5b505050506040513d601f19601f82011682018060405250810190610ec89190611fc3565b9050919050565b6000600460008373ffffffffffffffffffffffffffffffffffffffff1673ffffffffffffffffffffffffffffffffffffffff168152602001908152602001600020549050919050565b6000600354905090565b60018054610f2f906128e5565b80601f0160208091040260200160405190810160405280929190818152602001828054610f5b906128e5565b8015610fa85780601f10610f7d57610100808354040283529160200191610fa8565b820191906000526020600020905b815481529060010190602001808311610f8b57829003601f168201915b505050505081565b600b6020528160005260406000208181548110610fcc57600080fd5b9060005260206000209060030201600091509150508060000154908060010154908060020154905083565b60008061101a606460008561100c9190612743565b61164c90919063ffffffff16565b9050600061104c600760009054906101000a900473ffffffffffffffffffffffffffffffffffffffff16836000611b1c565b90508061108e576040517f08c379a00000000000000000000000000000000000000000000000000000000081526004016110859061251a565b60405180910390fd5b611099858584611b1c565b9250505092915050565b600c6020528060005260406000206000915090505481565b6000604051806060016040528083815260200142815260200160008152509050600b60003373ffffffffffffffffffffffffffffffffffffffff1673ffffffffffffffffffffffffffffffffffffffff16815260200190815260200160002081908060018154018082558091505060019003906000526020600020906003020160009091909190915060008201518160000155602082015181600101556040820151816002015550505050565b600a60009054906101000a900473ffffffffffffffffffffffffffffffffffffffff1681565b6000600560008473ffffffffffffffffffffffffffffffffffffffff1673ffffffffffffffffffffffffffffffffffffffff16815260200190815260200160002060008373ffffffffffffffffffffffffffffffffffffffff1673ffffffffffffffffffffffffffffffffffffffff16815260200190815260200160002054905092915050565b600d60009054906101000a900473ffffffffffffffffffffffffffffffffffffffff16600a60006101000a81548173ffffffffffffffffffffffffffffffffffffffff021916908373ffffffffffffffffffffffffffffffffffffffff1602179055503373ffffffffffffffffffffffffffffffffffffffff16600a60009054906101000a900473ffffffffffffffffffffffffffffffffffffffff1673ffffffffffffffffffffffffffffffffffffffff16636352211e836040518263ffffffff1660e01b81526004016112ea91906125fa565b60206040518083038186803b15801561130257600080fd5b505afa158015611316573d6000803e3d6000fd5b505050506040513d601f19601f8201168201806040525081019061133a9190611fc3565b73ffffffffffffffffffffffffffffffffffffffff1614611390576040517f08c379a00000000000000000000000000000000000000000000000000000000081526004016113879061255a565b60405180910390fd5b611398611ee0565b6000600c60003373ffffffffffffffffffffffffffffffffffffffff1673ffffffffffffffffffffffffffffffffffffffff1681526020019081526020016000205490508282600001818152505042826020018181525050600182604001818152505081600b60003373ffffffffffffffffffffffffffffffffffffffff1673ffffffffffffffffffffffffffffffffffffffff168152602001908152602001600020828154811061144d5761144c6129ed565b5b90600052602060002090600302016000820151816000015560208201518160010155604082015181600201559050506001600c60003373ffffffffffffffffffffffffffffffffffffffff1673ffffffffffffffffffffffffffffffffffffffff16815260200190815260200160002060008282546114cc91906126bc565b92505081905550600a60009054906101000a900473ffffffffffffffffffffffffffffffffffffffff1673ffffffffffffffffffffffffffffffffffffffff1663095ea7b330856040518363ffffffff1660e01b815260040161153092919061243c565b600060405180830381600087803b15801561154a57600080fd5b505af115801561155e573d6000803e3d6000fd5b50505050505050565b600080600c60008473ffffffffffffffffffffffffffffffffffffffff1673ffffffffffffffffffffffffffffffffffffffff16815260200190815260200160002054905060005b81811015611642576000600b60008673ffffffffffffffffffffffffffffffffffffffff1673ffffffffffffffffffffffffffffffffffffffff168152602001908152602001600020828154811061160a576116096129ed565b5b906000526020600020906003020160020154141561163157818061162d906128bb565b9250505b8061163b90612917565b90506115af565b5080915050919050565b6000808211611690576040517f08c379a0000000000000000000000000000000000000000000000000000000008152600401611687906125da565b60405180910390fd5b6000828461169e9190612712565b90508091505092915050565b600082600460008773ffffffffffffffffffffffffffffffffffffffff1673ffffffffffffffffffffffffffffffffffffffff1681526020019081526020016000205410158015611777575082600560008773ffffffffffffffffffffffffffffffffffffffff1673ffffffffffffffffffffffffffffffffffffffff16815260200190815260200160002060003373ffffffffffffffffffffffffffffffffffffffff1673ffffffffffffffffffffffffffffffffffffffff1681526020019081526020016000205410155b6117b6576040517f08c379a00000000000000000000000000000000000000000000000000000000081526004016117ad9061257a565b60405180910390fd5b82600860008773ffffffffffffffffffffffffffffffffffffffff1673ffffffffffffffffffffffffffffffffffffffff16815260200190815260200160002060010154101561183b576040517f08c379a00000000000000000000000000000000000000000000000000000000081526004016118329061257a565b60405180910390fd5b82600460008773ffffffffffffffffffffffffffffffffffffffff1673ffffffffffffffffffffffffffffffffffffffff168152602001908152602001600020600082825461188a919061279d565b9250508190555082600860008773ffffffffffffffffffffffffffffffffffffffff1673ffffffffffffffffffffffffffffffffffffffff16815260200190815260200160002060010160008282546118e3919061279d565b925050819055506118fd8284611e8190919063ffffffff16565b600460008673ffffffffffffffffffffffffffffffffffffffff1673ffffffffffffffffffffffffffffffffffffffff168152602001908152602001600020600082825461194b91906126bc565b925050819055506119658284611e8190919063ffffffff16565b600860008673ffffffffffffffffffffffffffffffffffffffff1673ffffffffffffffffffffffffffffffffffffffff16815260200190815260200160002060010160008282546119b691906126bc565b9250508190555082600560008773ffffffffffffffffffffffffffffffffffffffff1673ffffffffffffffffffffffffffffffffffffffff16815260200190815260200160002060003373ffffffffffffffffffffffffffffffffffffffff1673ffffffffffffffffffffffffffffffffffffffff1681526020019081526020016000206000828254611a49919061279d565b925050819055507fddf252ad1be2c89b69c2b068fc378daa952ba7f163c4a11628f55a4df523b3ef858585604051611a8393929190612405565b60405180910390a160019050949350505050565b80600860008473ffffffffffffffffffffffffffffffffffffffff1673ffffffffffffffffffffffffffffffffffffffff16815260200190815260200160002060020160006101000a81548173ffffffffffffffffffffffffffffffffffffffff021916908373ffffffffffffffffffffffffffffffffffffffff1602179055505050565b600082600460003373ffffffffffffffffffffffffffffffffffffffff1673ffffffffffffffffffffffffffffffffffffffff1681526020019081526020016000205410158015611bf55750600460008573ffffffffffffffffffffffffffffffffffffffff1673ffffffffffffffffffffffffffffffffffffffff1681526020019081526020016000205483600460008773ffffffffffffffffffffffffffffffffffffffff1673ffffffffffffffffffffffffffffffffffffffff16815260200190815260200160002054611bf391906126bc565b115b611c34576040517f08c379a0000000000000000000000000000000000000000000000000000000008152600401611c2b9061257a565b60405180910390fd5b82600860003373ffffffffffffffffffffffffffffffffffffffff1673ffffffffffffffffffffffffffffffffffffffff168152602001908152602001600020600101541015611cb9576040517f08c379a0000000000000000000000000000000000000000000000000000000008152600401611cb09061257a565b60405180910390fd5b82600460003373ffffffffffffffffffffffffffffffffffffffff1673ffffffffffffffffffffffffffffffffffffffff1681526020019081526020016000206000828254611d08919061279d565b9250508190555082600860003373ffffffffffffffffffffffffffffffffffffffff1673ffffffffffffffffffffffffffffffffffffffff1681526020019081526020016000206001016000828254611d61919061279d565b92505081905550611d7b8284611e8190919063ffffffff16565b600460008673ffffffffffffffffffffffffffffffffffffffff1673ffffffffffffffffffffffffffffffffffffffff1681526020019081526020016000206000828254611dc991906126bc565b92505081905550611de38284611e8190919063ffffffff16565b600860008673ffffffffffffffffffffffffffffffffffffffff1673ffffffffffffffffffffffffffffffffffffffff1681526020019081526020016000206001016000828254611e3491906126bc565b925050819055507fddf252ad1be2c89b69c2b068fc378daa952ba7f163c4a11628f55a4df523b3ef338585604051611e6e93929190612405565b60405180910390a1600190509392505050565b600082821115611ec6576040517f08c379a0000000000000000000000000000000000000000000000000000000008152600401611ebd9061253a565b60405180910390fd5b60008284611ed4919061279d565b90508091505092915050565b60405180606001604052806000815260200160008152602001600081525090565b600081359050611f1081612b8e565b92915050565b600081519050611f2581612b8e565b92915050565b60008083601f840112611f4157611f40612a21565b5b8235905067ffffffffffffffff811115611f5e57611f5d612a1c565b5b602083019150836001820283011115611f7a57611f79612a26565b5b9250929050565b600081359050611f9081612ba5565b92915050565b600060208284031215611fac57611fab612a30565b5b6000611fba84828501611f01565b91505092915050565b600060208284031215611fd957611fd8612a30565b5b6000611fe784828501611f16565b91505092915050565b6000806040838503121561200757612006612a30565b5b600061201585828601611f01565b925050602061202685828601611f01565b9150509250929050565b60008060006060848603121561204957612048612a30565b5b600061205786828701611f01565b935050602061206886828701611f01565b925050604061207986828701611f81565b9150509250925092565b60008060008060006080868803121561209f5761209e612a30565b5b60006120ad88828901611f01565b95505060206120be88828901611f01565b94505060406120cf88828901611f81565b935050606086013567ffffffffffffffff8111156120f0576120ef612a2b565b5b6120fc88828901611f2b565b92509250509295509295909350565b6000806040838503121561212257612121612a30565b5b600061213085828601611f01565b925050602061214185828601611f81565b9150509250929050565b60006020828403121561216157612160612a30565b5b600061216f84828501611f81565b91505092915050565b6000612184838361237b565b60608301905092915050565b612199816127d1565b82525050565b60006121aa82612677565b6121b4818561269a565b93506121bf83612667565b8060005b838110156121f05781516121d78882612178565b97506121e28361268d565b9250506001810190506121c3565b5085935050505092915050565b612206816127e3565b82525050565b612215816127ef565b82525050565b61222481612852565b82525050565b600061223582612682565b61223f81856126ab565b935061224f818560208601612888565b61225881612a35565b840191505092915050565b60006122706019836126ab565b915061227b82612a46565b602082019050919050565b6000612293601c836126ab565b915061229e82612a6f565b602082019050919050565b60006122b6601e836126ab565b91506122c182612a98565b602082019050919050565b60006122d96016836126ab565b91506122e482612ac1565b602082019050919050565b60006122fc6012836126ab565b915061230782612aea565b602082019050919050565b600061231f6019836126ab565b915061232a82612b13565b602082019050919050565b6000612342601b836126ab565b915061234d82612b3c565b602082019050919050565b6000612365601a836126ab565b915061237082612b65565b602082019050919050565b60608201600082015161239160008501826123bd565b5060208201516123a460208501826123bd565b5060408201516123b760408501826123bd565b50505050565b6123c68161283b565b82525050565b6123d58161283b565b82525050565b6123e481612845565b82525050565b60006020820190506123ff6000830184612190565b92915050565b600060608201905061241a6000830186612190565b6124276020830185612190565b61243460408301846123cc565b949350505050565b60006040820190506124516000830185612190565b61245e60208301846123cc565b9392505050565b6000602082019050818103600083015261247f818461219f565b905092915050565b600060208201905061249c60008301846121fd565b92915050565b60006020820190506124b7600083018461220c565b92915050565b60006020820190506124d2600083018461221b565b92915050565b600060208201905081810360008301526124f2818461222a565b905092915050565b6000602082019050818103600083015261251381612263565b9050919050565b6000602082019050818103600083015261253381612286565b9050919050565b60006020820190508181036000830152612553816122a9565b9050919050565b60006020820190508181036000830152612573816122cc565b9050919050565b60006020820190508181036000830152612593816122ef565b9050919050565b600060208201905081810360008301526125b381612312565b9050919050565b600060208201905081810360008301526125d381612335565b9050919050565b600060208201905081810360008301526125f381612358565b9050919050565b600060208201905061260f60008301846123cc565b92915050565b600060608201905061262a60008301866123cc565b61263760208301856123cc565b61264460408301846123cc565b949350505050565b600060208201905061266160008301846123db565b92915050565b6000819050602082019050919050565b600081519050919050565b600081519050919050565b6000602082019050919050565b600082825260208201905092915050565b600082825260208201905092915050565b60006126c78261283b565b91506126d28361283b565b9250827fffffffffffffffffffffffffffffffffffffffffffffffffffffffffffffffff0382111561270757612706612960565b5b828201905092915050565b600061271d8261283b565b91506127288361283b565b9250826127385761273761298f565b5b828204905092915050565b600061274e8261283b565b91506127598361283b565b9250817fffffffffffffffffffffffffffffffffffffffffffffffffffffffffffffffff048311821515161561279257612791612960565b5b828202905092915050565b60006127a88261283b565b91506127b38361283b565b9250828210156127c6576127c5612960565b5b828203905092915050565b60006127dc8261281b565b9050919050565b60008115159050919050565b60007fffffffff0000000000000000000000000000000000000000000000000000000082169050919050565b600073ffffffffffffffffffffffffffffffffffffffff82169050919050565b6000819050919050565b600060ff82169050919050565b600061285d82612864565b9050919050565b600061286f82612876565b9050919050565b60006128818261281b565b9050919050565b60005b838110156128a657808201518184015260208101905061288b565b838111156128b5576000848401525b50505050565b60006128c68261283b565b915060008214156128da576128d9612960565b5b600182039050919050565b600060028204905060018216806128fd57607f821691505b60208210811415612911576129106129be565b5b50919050565b60006129228261283b565b91507fffffffffffffffffffffffffffffffffffffffffffffffffffffffffffffffff82141561295557612954612960565b5b600182019050919050565b7f4e487b7100000000000000000000000000000000000000000000000000000000600052601160045260246000fd5b7f4e487b7100000000000000000000000000000000000000000000000000000000600052601260045260246000fd5b7f4e487b7100000000000000000000000000000000000000000000000000000000600052602260045260246000fd5b7f4e487b7100000000000000000000000000000000000000000000000000000000600052603260045260246000fd5b600080fd5b600080fd5b600080fd5b600080fd5b600080fd5b6000601f19601f8301169050919050565b7f4f6e6c79206f776e65722063616e2063616c6c20746869732e00000000000000600082015250565b7f7472616e7366657220746f20666f756e646174696f6e20666c61736500000000600082015250565b7f536166654d6174683a207375627472616374696f6e206f766572666c6f770000600082015250565b7f596f7520646f6e2774206f776e2074686973204e465400000000000000000000600082015250565b7f496e73756666696369656e742066756e64730000000000000000000000000000600082015250565b7f596f7520616c7265616479206861766520776974686472617700000000000000600082015250565b7f74686973206164647265737320686173206265656e20626f756e640000000000600082015250565b7f536166654d6174683a6469766973696f6e206f766572666c6f77000000000000600082015250565b612b97816127d1565b8114612ba257600080fd5b50565b612bae8161283b565b8114612bb957600080fd5b5056fea26469706673582212204ecb78f54bcd25e72218cc0ff8817b2ab5b8d5ee98b9f7c3136ae3f15ca48ffd64736f6c63430008070033",
					"opcodes": "PUSH1 0x80 PUSH1 0x40 MSTORE PUSH1 0x4 PUSH1 0x2 PUSH1 0x0 PUSH2 0x100 EXP DUP2 SLOAD DUP2 PUSH1 0xFF MUL NOT AND SWAP1 DUP4 PUSH1 0xFF AND MUL OR SWAP1 SSTORE POP PUSH5 0x2540BE400 PUSH1 0x3 SSTORE CALLVALUE DUP1 ISZERO PUSH3 0x36 JUMPI PUSH1 0x0 DUP1 REVERT JUMPDEST POP PUSH1 0x40 MLOAD PUSH3 0x32CA CODESIZE SUB DUP1 PUSH3 0x32CA DUP4 CODECOPY DUP2 DUP2 ADD PUSH1 0x40 MSTORE DUP2 ADD SWAP1 PUSH3 0x5C SWAP2 SWAP1 PUSH3 0x318 JUMP JUMPDEST PUSH1 0x0 PUSH1 0x2 PUSH1 0x0 SWAP1 SLOAD SWAP1 PUSH2 0x100 EXP SWAP1 DIV PUSH1 0xFF AND PUSH1 0xFF AND PUSH1 0xA PUSH3 0x7F SWAP2 SWAP1 PUSH3 0x42C JUMP JUMPDEST PUSH1 0x3 SLOAD PUSH3 0x8E SWAP2 SWAP1 PUSH3 0x569 JUMP JUMPDEST SWAP1 POP DUP1 PUSH1 0x4 PUSH1 0x0 DUP7 PUSH20 0xFFFFFFFFFFFFFFFFFFFFFFFFFFFFFFFFFFFFFFFF AND PUSH20 0xFFFFFFFFFFFFFFFFFFFFFFFFFFFFFFFFFFFFFFFF AND DUP2 MSTORE PUSH1 0x20 ADD SWAP1 DUP2 MSTORE PUSH1 0x20 ADD PUSH1 0x0 KECCAK256 PUSH1 0x0 DUP3 DUP3 SLOAD PUSH3 0xE1 SWAP2 SWAP1 PUSH3 0x374 JUMP JUMPDEST SWAP3 POP POP DUP2 SWAP1 SSTORE POP DUP2 PUSH1 0x7 PUSH1 0x0 PUSH2 0x100 EXP DUP2 SLOAD DUP2 PUSH20 0xFFFFFFFFFFFFFFFFFFFFFFFFFFFFFFFFFFFFFFFF MUL NOT AND SWAP1 DUP4 PUSH20 0xFFFFFFFFFFFFFFFFFFFFFFFFFFFFFFFFFFFFFFFF AND MUL OR SWAP1 SSTORE POP PUSH1 0x40 MLOAD DUP1 PUSH1 0x40 ADD PUSH1 0x40 MSTORE DUP1 PUSH1 0x4 DUP2 MSTORE PUSH1 0x20 ADD PUSH32 0x4F4E454500000000000000000000000000000000000000000000000000000000 DUP2 MSTORE POP PUSH1 0x0 SWAP1 DUP1 MLOAD SWAP1 PUSH1 0x20 ADD SWAP1 PUSH3 0x176 SWAP3 SWAP2 SWAP1 PUSH3 0x251 JUMP JUMPDEST POP PUSH1 0x40 MLOAD DUP1 PUSH1 0x40 ADD PUSH1 0x40 MSTORE DUP1 PUSH1 0x4 DUP2 MSTORE PUSH1 0x20 ADD PUSH32 0x4F4E454500000000000000000000000000000000000000000000000000000000 DUP2 MSTORE POP PUSH1 0x1 SWAP1 DUP1 MLOAD SWAP1 PUSH1 0x20 ADD SWAP1 PUSH3 0x1C4 SWAP3 SWAP2 SWAP1 PUSH3 0x251 JUMP JUMPDEST POP DUP4 PUSH1 0x9 PUSH1 0x0 PUSH2 0x100 EXP DUP2 SLOAD DUP2 PUSH20 0xFFFFFFFFFFFFFFFFFFFFFFFFFFFFFFFFFFFFFFFF MUL NOT AND SWAP1 DUP4 PUSH20 0xFFFFFFFFFFFFFFFFFFFFFFFFFFFFFFFFFFFFFFFF AND MUL OR SWAP1 SSTORE POP DUP3 PUSH1 0xD PUSH1 0x0 PUSH2 0x100 EXP DUP2 SLOAD DUP2 PUSH20 0xFFFFFFFFFFFFFFFFFFFFFFFFFFFFFFFFFFFFFFFF MUL NOT AND SWAP1 DUP4 PUSH20 0xFFFFFFFFFFFFFFFFFFFFFFFFFFFFFFFFFFFFFFFF AND MUL OR SWAP1 SSTORE POP POP POP POP POP PUSH3 0x6C8 JUMP JUMPDEST DUP3 DUP1 SLOAD PUSH3 0x25F SWAP1 PUSH3 0x608 JUMP JUMPDEST SWAP1 PUSH1 0x0 MSTORE PUSH1 0x20 PUSH1 0x0 KECCAK256 SWAP1 PUSH1 0x1F ADD PUSH1 0x20 SWAP1 DIV DUP2 ADD SWAP3 DUP3 PUSH3 0x283 JUMPI PUSH1 0x0 DUP6 SSTORE PUSH3 0x2CF JUMP JUMPDEST DUP3 PUSH1 0x1F LT PUSH3 0x29E JUMPI DUP1 MLOAD PUSH1 0xFF NOT AND DUP4 DUP1 ADD OR DUP6 SSTORE PUSH3 0x2CF JUMP JUMPDEST DUP3 DUP1 ADD PUSH1 0x1 ADD DUP6 SSTORE DUP3 ISZERO PUSH3 0x2CF JUMPI SWAP2 DUP3 ADD JUMPDEST DUP3 DUP2 GT ISZERO PUSH3 0x2CE JUMPI DUP3 MLOAD DUP3 SSTORE SWAP2 PUSH1 0x20 ADD SWAP2 SWAP1 PUSH1 0x1 ADD SWAP1 PUSH3 0x2B1 JUMP JUMPDEST JUMPDEST POP SWAP1 POP PUSH3 0x2DE SWAP2 SWAP1 PUSH3 0x2E2 JUMP JUMPDEST POP SWAP1 JUMP JUMPDEST JUMPDEST DUP1 DUP3 GT ISZERO PUSH3 0x2FD JUMPI PUSH1 0x0 DUP2 PUSH1 0x0 SWAP1 SSTORE POP PUSH1 0x1 ADD PUSH3 0x2E3 JUMP JUMPDEST POP SWAP1 JUMP JUMPDEST PUSH1 0x0 DUP2 MLOAD SWAP1 POP PUSH3 0x312 DUP2 PUSH3 0x6AE JUMP JUMPDEST SWAP3 SWAP2 POP POP JUMP JUMPDEST PUSH1 0x0 DUP1 PUSH1 0x0 PUSH1 0x60 DUP5 DUP7 SUB SLT ISZERO PUSH3 0x334 JUMPI PUSH3 0x333 PUSH3 0x69C JUMP JUMPDEST JUMPDEST PUSH1 0x0 PUSH3 0x344 DUP7 DUP3 DUP8 ADD PUSH3 0x301 JUMP JUMPDEST SWAP4 POP POP PUSH1 0x20 PUSH3 0x357 DUP7 DUP3 DUP8 ADD PUSH3 0x301 JUMP JUMPDEST SWAP3 POP POP PUSH1 0x40 PUSH3 0x36A DUP7 DUP3 DUP8 ADD PUSH3 0x301 JUMP JUMPDEST SWAP2 POP POP SWAP3 POP SWAP3 POP SWAP3 JUMP JUMPDEST PUSH1 0x0 PUSH3 0x381 DUP3 PUSH3 0x5FE JUMP JUMPDEST SWAP2 POP PUSH3 0x38E DUP4 PUSH3 0x5FE JUMP JUMPDEST SWAP3 POP DUP3 PUSH32 0xFFFFFFFFFFFFFFFFFFFFFFFFFFFFFFFFFFFFFFFFFFFFFFFFFFFFFFFFFFFFFFFF SUB DUP3 GT ISZERO PUSH3 0x3C6 JUMPI PUSH3 0x3C5 PUSH3 0x63E JUMP JUMPDEST JUMPDEST DUP3 DUP3 ADD SWAP1 POP SWAP3 SWAP2 POP POP JUMP JUMPDEST PUSH1 0x0 DUP1 DUP3 SWAP2 POP DUP4 SWAP1 POP JUMPDEST PUSH1 0x1 DUP6 GT ISZERO PUSH3 0x423 JUMPI DUP1 DUP7 DIV DUP2 GT ISZERO PUSH3 0x3FB JUMPI PUSH3 0x3FA PUSH3 0x63E JUMP JUMPDEST JUMPDEST PUSH1 0x1 DUP6 AND ISZERO PUSH3 0x40B JUMPI DUP1 DUP3 MUL SWAP2 POP JUMPDEST DUP1 DUP2 MUL SWAP1 POP PUSH3 0x41B DUP6 PUSH3 0x6A1 JUMP JUMPDEST SWAP5 POP PUSH3 0x3DB JUMP JUMPDEST SWAP5 POP SWAP5 SWAP3 POP POP POP JUMP JUMPDEST PUSH1 0x0 PUSH3 0x439 DUP3 PUSH3 0x5FE JUMP JUMPDEST SWAP2 POP PUSH3 0x446 DUP4 PUSH3 0x5FE JUMP JUMPDEST SWAP3 POP PUSH3 0x475 PUSH32 0xFFFFFFFFFFFFFFFFFFFFFFFFFFFFFFFFFFFFFFFFFFFFFFFFFFFFFFFFFFFFFFFF DUP5 DUP5 PUSH3 0x47D JUMP JUMPDEST SWAP1 POP SWAP3 SWAP2 POP POP JUMP JUMPDEST PUSH1 0x0 DUP3 PUSH3 0x48F JUMPI PUSH1 0x1 SWAP1 POP PUSH3 0x562 JUMP JUMPDEST DUP2 PUSH3 0x49F JUMPI PUSH1 0x0 SWAP1 POP PUSH3 0x562 JUMP JUMPDEST DUP2 PUSH1 0x1 DUP2 EQ PUSH3 0x4B8 JUMPI PUSH1 0x2 DUP2 EQ PUSH3 0x4C3 JUMPI PUSH3 0x4F9 JUMP JUMPDEST PUSH1 0x1 SWAP2 POP POP PUSH3 0x562 JUMP JUMPDEST PUSH1 0xFF DUP5 GT ISZERO PUSH3 0x4D8 JUMPI PUSH3 0x4D7 PUSH3 0x63E JUMP JUMPDEST JUMPDEST DUP4 PUSH1 0x2 EXP SWAP2 POP DUP5 DUP3 GT ISZERO PUSH3 0x4F2 JUMPI PUSH3 0x4F1 PUSH3 0x63E JUMP JUMPDEST JUMPDEST POP PUSH3 0x562 JUMP JUMPDEST POP PUSH1 0x20 DUP4 LT PUSH2 0x133 DUP4 LT AND PUSH1 0x4E DUP5 LT PUSH1 0xB DUP5 LT AND OR ISZERO PUSH3 0x533 JUMPI DUP3 DUP3 EXP SWAP1 POP DUP4 DUP2 GT ISZERO PUSH3 0x52D JUMPI PUSH3 0x52C PUSH3 0x63E JUMP JUMPDEST JUMPDEST PUSH3 0x562 JUMP JUMPDEST PUSH3 0x542 DUP5 DUP5 DUP5 PUSH1 0x1 PUSH3 0x3D1 JUMP JUMPDEST SWAP3 POP SWAP1 POP DUP2 DUP5 DIV DUP2 GT ISZERO PUSH3 0x55C JUMPI PUSH3 0x55B PUSH3 0x63E JUMP JUMPDEST JUMPDEST DUP2 DUP2 MUL SWAP1 POP JUMPDEST SWAP4 SWAP3 POP POP POP JUMP JUMPDEST PUSH1 0x0 PUSH3 0x576 DUP3 PUSH3 0x5FE JUMP JUMPDEST SWAP2 POP PUSH3 0x583 DUP4 PUSH3 0x5FE JUMP JUMPDEST SWAP3 POP DUP2 PUSH32 0xFFFFFFFFFFFFFFFFFFFFFFFFFFFFFFFFFFFFFFFFFFFFFFFFFFFFFFFFFFFFFFFF DIV DUP4 GT DUP3 ISZERO ISZERO AND ISZERO PUSH3 0x5BF JUMPI PUSH3 0x5BE PUSH3 0x63E JUMP JUMPDEST JUMPDEST DUP3 DUP3 MUL SWAP1 POP SWAP3 SWAP2 POP POP JUMP JUMPDEST PUSH1 0x0 PUSH3 0x5D7 DUP3 PUSH3 0x5DE JUMP JUMPDEST SWAP1 POP SWAP2 SWAP1 POP JUMP JUMPDEST PUSH1 0x0 PUSH20 0xFFFFFFFFFFFFFFFFFFFFFFFFFFFFFFFFFFFFFFFF DUP3 AND SWAP1 POP SWAP2 SWAP1 POP JUMP JUMPDEST PUSH1 0x0 DUP2 SWAP1 POP SWAP2 SWAP1 POP JUMP JUMPDEST PUSH1 0x0 PUSH1 0x2 DUP3 DIV SWAP1 POP PUSH1 0x1 DUP3 AND DUP1 PUSH3 0x621 JUMPI PUSH1 0x7F DUP3 AND SWAP2 POP JUMPDEST PUSH1 0x20 DUP3 LT DUP2 EQ ISZERO PUSH3 0x638 JUMPI PUSH3 0x637 PUSH3 0x66D JUMP JUMPDEST JUMPDEST POP SWAP2 SWAP1 POP JUMP JUMPDEST PUSH32 0x4E487B7100000000000000000000000000000000000000000000000000000000 PUSH1 0x0 MSTORE PUSH1 0x11 PUSH1 0x4 MSTORE PUSH1 0x24 PUSH1 0x0 REVERT JUMPDEST PUSH32 0x4E487B7100000000000000000000000000000000000000000000000000000000 PUSH1 0x0 MSTORE PUSH1 0x22 PUSH1 0x4 MSTORE PUSH1 0x24 PUSH1 0x0 REVERT JUMPDEST PUSH1 0x0 DUP1 REVERT JUMPDEST PUSH1 0x0 DUP2 PUSH1 0x1 SHR SWAP1 POP SWAP2 SWAP1 POP JUMP JUMPDEST PUSH3 0x6B9 DUP2 PUSH3 0x5CA JUMP JUMPDEST DUP2 EQ PUSH3 0x6C5 JUMPI PUSH1 0x0 DUP1 REVERT JUMPDEST POP JUMP JUMPDEST PUSH2 0x2BF2 DUP1 PUSH3 0x6D8 PUSH1 0x0 CODECOPY PUSH1 0x0 RETURN INVALID PUSH1 0x80 PUSH1 0x40 MSTORE PUSH1 0x4 CALLDATASIZE LT PUSH2 0x12A JUMPI PUSH1 0x0 CALLDATALOAD PUSH1 0xE0 SHR DUP1 PUSH4 0x70A08231 GT PUSH2 0xAB JUMPI DUP1 PUSH4 0xB369ECD7 GT PUSH2 0x6F JUMPI DUP1 PUSH4 0xB369ECD7 EQ PUSH2 0x42F JUMPI DUP1 PUSH4 0xCE7AC47D EQ PUSH2 0x46C JUMPI DUP1 PUSH4 0xD56D229D EQ PUSH2 0x488 JUMPI DUP1 PUSH4 0xDD62ED3E EQ PUSH2 0x4B3 JUMPI DUP1 PUSH4 0xE91A7CA6 EQ PUSH2 0x4F0 JUMPI DUP1 PUSH4 0xFFC49F38 EQ PUSH2 0x50C JUMPI PUSH2 0x12A JUMP JUMPDEST DUP1 PUSH4 0x70A08231 EQ PUSH2 0x32D JUMPI DUP1 PUSH4 0x8951CF59 EQ PUSH2 0x36A JUMPI DUP1 PUSH4 0x95D89B41 EQ PUSH2 0x395 JUMPI DUP1 PUSH4 0x98C61C37 EQ PUSH2 0x3C0 JUMPI DUP1 PUSH4 0xA9059CBB EQ PUSH2 0x3FF JUMPI PUSH2 0x12A JUMP JUMPDEST DUP1 PUSH4 0x23B872DD GT PUSH2 0xF2 JUMPI DUP1 PUSH4 0x23B872DD EQ PUSH2 0x21B JUMPI DUP1 PUSH4 0x27D88A78 EQ PUSH2 0x24B JUMPI DUP1 PUSH4 0x313CE567 EQ PUSH2 0x288 JUMPI DUP1 PUSH4 0x48828EC0 EQ PUSH2 0x2B3 JUMPI DUP1 PUSH4 0x6352211E EQ PUSH2 0x2F0 JUMPI PUSH2 0x12A JUMP JUMPDEST DUP1 PUSH4 0x23245D7 EQ PUSH2 0x12F JUMPI DUP1 PUSH4 0x6FDDE03 EQ PUSH2 0x14B JUMPI DUP1 PUSH4 0x95EA7B3 EQ PUSH2 0x176 JUMPI DUP1 PUSH4 0x150B7A02 EQ PUSH2 0x1B3 JUMPI DUP1 PUSH4 0x18160DDD EQ PUSH2 0x1F0 JUMPI JUMPDEST PUSH1 0x0 DUP1 REVERT JUMPDEST PUSH2 0x149 PUSH1 0x4 DUP1 CALLDATASIZE SUB DUP2 ADD SWAP1 PUSH2 0x144 SWAP2 SWAP1 PUSH2 0x214B JUMP JUMPDEST PUSH2 0x549 JUMP JUMPDEST STOP JUMPDEST CALLVALUE DUP1 ISZERO PUSH2 0x157 JUMPI PUSH1 0x0 DUP1 REVERT JUMPDEST POP PUSH2 0x160 PUSH2 0x8A8 JUMP JUMPDEST PUSH1 0x40 MLOAD PUSH2 0x16D SWAP2 SWAP1 PUSH2 0x24D8 JUMP JUMPDEST PUSH1 0x40 MLOAD DUP1 SWAP2 SUB SWAP1 RETURN JUMPDEST CALLVALUE DUP1 ISZERO PUSH2 0x182 JUMPI PUSH1 0x0 DUP1 REVERT JUMPDEST POP PUSH2 0x19D PUSH1 0x4 DUP1 CALLDATASIZE SUB DUP2 ADD SWAP1 PUSH2 0x198 SWAP2 SWAP1 PUSH2 0x210B JUMP JUMPDEST PUSH2 0x936 JUMP JUMPDEST PUSH1 0x40 MLOAD PUSH2 0x1AA SWAP2 SWAP1 PUSH2 0x2487 JUMP JUMPDEST PUSH1 0x40 MLOAD DUP1 SWAP2 SUB SWAP1 RETURN JUMPDEST CALLVALUE DUP1 ISZERO PUSH2 0x1BF JUMPI PUSH1 0x0 DUP1 REVERT JUMPDEST POP PUSH2 0x1DA PUSH1 0x4 DUP1 CALLDATASIZE SUB DUP2 ADD SWAP1 PUSH2 0x1D5 SWAP2 SWAP1 PUSH2 0x2083 JUMP JUMPDEST PUSH2 0xA91 JUMP JUMPDEST PUSH1 0x40 MLOAD PUSH2 0x1E7 SWAP2 SWAP1 PUSH2 0x24A2 JUMP JUMPDEST PUSH1 0x40 MLOAD DUP1 SWAP2 SUB SWAP1 RETURN JUMPDEST CALLVALUE DUP1 ISZERO PUSH2 0x1FC JUMPI PUSH1 0x0 DUP1 REVERT JUMPDEST POP PUSH2 0x205 PUSH2 0xB4F JUMP JUMPDEST PUSH1 0x40 MLOAD PUSH2 0x212 SWAP2 SWAP1 PUSH2 0x25FA JUMP JUMPDEST PUSH1 0x40 MLOAD DUP1 SWAP2 SUB SWAP1 RETURN JUMPDEST PUSH2 0x235 PUSH1 0x4 DUP1 CALLDATASIZE SUB DUP2 ADD SWAP1 PUSH2 0x230 SWAP2 SWAP1 PUSH2 0x2030 JUMP JUMPDEST PUSH2 0xB55 JUMP JUMPDEST PUSH1 0x40 MLOAD PUSH2 0x242 SWAP2 SWAP1 PUSH2 0x2487 JUMP JUMPDEST PUSH1 0x40 MLOAD DUP1 SWAP2 SUB SWAP1 RETURN JUMPDEST CALLVALUE DUP1 ISZERO PUSH2 0x257 JUMPI PUSH1 0x0 DUP1 REVERT JUMPDEST POP PUSH2 0x272 PUSH1 0x4 DUP1 CALLDATASIZE SUB DUP2 ADD SWAP1 PUSH2 0x26D SWAP2 SWAP1 PUSH2 0x1F96 JUMP JUMPDEST PUSH2 0xC04 JUMP JUMPDEST PUSH1 0x40 MLOAD PUSH2 0x27F SWAP2 SWAP1 PUSH2 0x2465 JUMP JUMPDEST PUSH1 0x40 MLOAD DUP1 SWAP2 SUB SWAP1 RETURN JUMPDEST CALLVALUE DUP1 ISZERO PUSH2 0x294 JUMPI PUSH1 0x0 DUP1 REVERT JUMPDEST POP PUSH2 0x29D PUSH2 0xCC0 JUMP JUMPDEST PUSH1 0x40 MLOAD PUSH2 0x2AA SWAP2 SWAP1 PUSH2 0x264C JUMP JUMPDEST PUSH1 0x40 MLOAD DUP1 SWAP2 SUB SWAP1 RETURN JUMPDEST CALLVALUE DUP1 ISZERO PUSH2 0x2BF JUMPI PUSH1 0x0 DUP1 REVERT JUMPDEST POP PUSH2 0x2DA PUSH1 0x4 DUP1 CALLDATASIZE SUB DUP2 ADD SWAP1 PUSH2 0x2D5 SWAP2 SWAP1 PUSH2 0x1F96 JUMP JUMPDEST PUSH2 0xCD3 JUMP JUMPDEST PUSH1 0x40 MLOAD PUSH2 0x2E7 SWAP2 SWAP1 PUSH2 0x2487 JUMP JUMPDEST PUSH1 0x40 MLOAD DUP1 SWAP2 SUB SWAP1 RETURN JUMPDEST CALLVALUE DUP1 ISZERO PUSH2 0x2FC JUMPI PUSH1 0x0 DUP1 REVERT JUMPDEST POP PUSH2 0x317 PUSH1 0x4 DUP1 CALLDATASIZE SUB DUP2 ADD SWAP1 PUSH2 0x312 SWAP2 SWAP1 PUSH2 0x214B JUMP JUMPDEST PUSH2 0xDB8 JUMP JUMPDEST PUSH1 0x40 MLOAD PUSH2 0x324 SWAP2 SWAP1 PUSH2 0x23EA JUMP JUMPDEST PUSH1 0x40 MLOAD DUP1 SWAP2 SUB SWAP1 RETURN JUMPDEST CALLVALUE DUP1 ISZERO PUSH2 0x339 JUMPI PUSH1 0x0 DUP1 REVERT JUMPDEST POP PUSH2 0x354 PUSH1 0x4 DUP1 CALLDATASIZE SUB DUP2 ADD SWAP1 PUSH2 0x34F SWAP2 SWAP1 PUSH2 0x1F96 JUMP JUMPDEST PUSH2 0xECF JUMP JUMPDEST PUSH1 0x40 MLOAD PUSH2 0x361 SWAP2 SWAP1 PUSH2 0x25FA JUMP JUMPDEST PUSH1 0x40 MLOAD DUP1 SWAP2 SUB SWAP1 RETURN JUMPDEST CALLVALUE DUP1 ISZERO PUSH2 0x376 JUMPI PUSH1 0x0 DUP1 REVERT JUMPDEST POP PUSH2 0x37F PUSH2 0xF18 JUMP JUMPDEST PUSH1 0x40 MLOAD PUSH2 0x38C SWAP2 SWAP1 PUSH2 0x25FA JUMP JUMPDEST PUSH1 0x40 MLOAD DUP1 SWAP2 SUB SWAP1 RETURN JUMPDEST CALLVALUE DUP1 ISZERO PUSH2 0x3A1 JUMPI PUSH1 0x0 DUP1 REVERT JUMPDEST POP PUSH2 0x3AA PUSH2 0xF22 JUMP JUMPDEST PUSH1 0x40 MLOAD PUSH2 0x3B7 SWAP2 SWAP1 PUSH2 0x24D8 JUMP JUMPDEST PUSH1 0x40 MLOAD DUP1 SWAP2 SUB SWAP1 RETURN JUMPDEST CALLVALUE DUP1 ISZERO PUSH2 0x3CC JUMPI PUSH1 0x0 DUP1 REVERT JUMPDEST POP PUSH2 0x3E7 PUSH1 0x4 DUP1 CALLDATASIZE SUB DUP2 ADD SWAP1 PUSH2 0x3E2 SWAP2 SWAP1 PUSH2 0x210B JUMP JUMPDEST PUSH2 0xFB0 JUMP JUMPDEST PUSH1 0x40 MLOAD PUSH2 0x3F6 SWAP4 SWAP3 SWAP2 SWAP1 PUSH2 0x2615 JUMP JUMPDEST PUSH1 0x40 MLOAD DUP1 SWAP2 SUB SWAP1 RETURN JUMPDEST PUSH2 0x419 PUSH1 0x4 DUP1 CALLDATASIZE SUB DUP2 ADD SWAP1 PUSH2 0x414 SWAP2 SWAP1 PUSH2 0x210B JUMP JUMPDEST PUSH2 0xFF7 JUMP JUMPDEST PUSH1 0x40 MLOAD PUSH2 0x426 SWAP2 SWAP1 PUSH2 0x2487 JUMP JUMPDEST PUSH1 0x40 MLOAD DUP1 SWAP2 SUB SWAP1 RETURN JUMPDEST CALLVALUE DUP1 ISZERO PUSH2 0x43B JUMPI PUSH1 0x0 DUP1 REVERT JUMPDEST POP PUSH2 0x456 PUSH1 0x4 DUP1 CALLDATASIZE SUB DUP2 ADD SWAP1 PUSH2 0x451 SWAP2 SWAP1 PUSH2 0x1F96 JUMP JUMPDEST PUSH2 0x10A3 JUMP JUMPDEST PUSH1 0x40 MLOAD PUSH2 0x463 SWAP2 SWAP1 PUSH2 0x25FA JUMP JUMPDEST PUSH1 0x40 MLOAD DUP1 SWAP2 SUB SWAP1 RETURN JUMPDEST PUSH2 0x486 PUSH1 0x4 DUP1 CALLDATASIZE SUB DUP2 ADD SWAP1 PUSH2 0x481 SWAP2 SWAP1 PUSH2 0x214B JUMP JUMPDEST PUSH2 0x10BB JUMP JUMPDEST STOP JUMPDEST CALLVALUE DUP1 ISZERO PUSH2 0x494 JUMPI PUSH1 0x0 DUP1 REVERT JUMPDEST POP PUSH2 0x49D PUSH2 0x1168 JUMP JUMPDEST PUSH1 0x40 MLOAD PUSH2 0x4AA SWAP2 SWAP1 PUSH2 0x24BD JUMP JUMPDEST PUSH1 0x40 MLOAD DUP1 SWAP2 SUB SWAP1 RETURN JUMPDEST CALLVALUE DUP1 ISZERO PUSH2 0x4BF JUMPI PUSH1 0x0 DUP1 REVERT JUMPDEST POP PUSH2 0x4DA PUSH1 0x4 DUP1 CALLDATASIZE SUB DUP2 ADD SWAP1 PUSH2 0x4D5 SWAP2 SWAP1 PUSH2 0x1FF0 JUMP JUMPDEST PUSH2 0x118E JUMP JUMPDEST PUSH1 0x40 MLOAD PUSH2 0x4E7 SWAP2 SWAP1 PUSH2 0x25FA JUMP JUMPDEST PUSH1 0x40 MLOAD DUP1 SWAP2 SUB SWAP1 RETURN JUMPDEST PUSH2 0x50A PUSH1 0x4 DUP1 CALLDATASIZE SUB DUP2 ADD SWAP1 PUSH2 0x505 SWAP2 SWAP1 PUSH2 0x214B JUMP JUMPDEST PUSH2 0x1215 JUMP JUMPDEST STOP JUMPDEST CALLVALUE DUP1 ISZERO PUSH2 0x518 JUMPI PUSH1 0x0 DUP1 REVERT JUMPDEST POP PUSH2 0x533 PUSH1 0x4 DUP1 CALLDATASIZE SUB DUP2 ADD SWAP1 PUSH2 0x52E SWAP2 SWAP1 PUSH2 0x1F96 JUMP JUMPDEST PUSH2 0x1567 JUMP JUMPDEST PUSH1 0x40 MLOAD PUSH2 0x540 SWAP2 SWAP1 PUSH2 0x25FA JUMP JUMPDEST PUSH1 0x40 MLOAD DUP1 SWAP2 SUB SWAP1 RETURN JUMPDEST PUSH1 0x9 PUSH1 0x0 SWAP1 SLOAD SWAP1 PUSH2 0x100 EXP SWAP1 DIV PUSH20 0xFFFFFFFFFFFFFFFFFFFFFFFFFFFFFFFFFFFFFFFF AND PUSH20 0xFFFFFFFFFFFFFFFFFFFFFFFFFFFFFFFFFFFFFFFF AND CALLER PUSH20 0xFFFFFFFFFFFFFFFFFFFFFFFFFFFFFFFFFFFFFFFF AND EQ PUSH2 0x5D9 JUMPI PUSH1 0x40 MLOAD PUSH32 0x8C379A000000000000000000000000000000000000000000000000000000000 DUP2 MSTORE PUSH1 0x4 ADD PUSH2 0x5D0 SWAP1 PUSH2 0x24FA JUMP JUMPDEST PUSH1 0x40 MLOAD DUP1 SWAP2 SUB SWAP1 REVERT JUMPDEST PUSH1 0xD PUSH1 0x0 SWAP1 SLOAD SWAP1 PUSH2 0x100 EXP SWAP1 DIV PUSH20 0xFFFFFFFFFFFFFFFFFFFFFFFFFFFFFFFFFFFFFFFF AND PUSH1 0xA PUSH1 0x0 PUSH2 0x100 EXP DUP2 SLOAD DUP2 PUSH20 0xFFFFFFFFFFFFFFFFFFFFFFFFFFFFFFFFFFFFFFFF MUL NOT AND SWAP1 DUP4 PUSH20 0xFFFFFFFFFFFFFFFFFFFFFFFFFFFFFFFFFFFFFFFF AND MUL OR SWAP1 SSTORE POP PUSH1 0x0 PUSH1 0xC PUSH1 0x0 CALLER PUSH20 0xFFFFFFFFFFFFFFFFFFFFFFFFFFFFFFFFFFFFFFFF AND PUSH20 0xFFFFFFFFFFFFFFFFFFFFFFFFFFFFFFFFFFFFFFFF AND DUP2 MSTORE PUSH1 0x20 ADD SWAP1 DUP2 MSTORE PUSH1 0x20 ADD PUSH1 0x0 KECCAK256 SLOAD SWAP1 POP PUSH1 0x0 JUMPDEST DUP2 DUP2 LT ISZERO PUSH2 0x8A3 JUMPI DUP3 PUSH1 0xB PUSH1 0x0 CALLER PUSH20 0xFFFFFFFFFFFFFFFFFFFFFFFFFFFFFFFFFFFFFFFF AND PUSH20 0xFFFFFFFFFFFFFFFFFFFFFFFFFFFFFFFFFFFFFFFF AND DUP2 MSTORE PUSH1 0x20 ADD SWAP1 DUP2 MSTORE PUSH1 0x20 ADD PUSH1 0x0 KECCAK256 DUP3 DUP2 SLOAD DUP2 LT PUSH2 0x6DD JUMPI PUSH2 0x6DC PUSH2 0x29ED JUMP JUMPDEST JUMPDEST SWAP1 PUSH1 0x0 MSTORE PUSH1 0x20 PUSH1 0x0 KECCAK256 SWAP1 PUSH1 0x3 MUL ADD PUSH1 0x0 ADD SLOAD EQ ISZERO PUSH2 0x892 JUMPI PUSH1 0x1 PUSH1 0xB PUSH1 0x0 CALLER PUSH20 0xFFFFFFFFFFFFFFFFFFFFFFFFFFFFFFFFFFFFFFFF AND PUSH20 0xFFFFFFFFFFFFFFFFFFFFFFFFFFFFFFFFFFFFFFFF AND DUP2 MSTORE PUSH1 0x20 ADD SWAP1 DUP2 MSTORE PUSH1 0x20 ADD PUSH1 0x0 KECCAK256 DUP3 DUP2 SLOAD DUP2 LT PUSH2 0x748 JUMPI PUSH2 0x747 PUSH2 0x29ED JUMP JUMPDEST JUMPDEST SWAP1 PUSH1 0x0 MSTORE PUSH1 0x20 PUSH1 0x0 KECCAK256 SWAP1 PUSH1 0x3 MUL ADD PUSH1 0x2 ADD SLOAD EQ PUSH2 0x79A JUMPI PUSH1 0x40 MLOAD PUSH32 0x8C379A000000000000000000000000000000000000000000000000000000000 DUP2 MSTORE PUSH1 0x4 ADD PUSH2 0x791 SWAP1 PUSH2 0x259A JUMP JUMPDEST PUSH1 0x40 MLOAD DUP1 SWAP2 SUB SWAP1 REVERT JUMPDEST PUSH1 0x0 PUSH1 0xB PUSH1 0x0 CALLER PUSH20 0xFFFFFFFFFFFFFFFFFFFFFFFFFFFFFFFFFFFFFFFF AND PUSH20 0xFFFFFFFFFFFFFFFFFFFFFFFFFFFFFFFFFFFFFFFF AND DUP2 MSTORE PUSH1 0x20 ADD SWAP1 DUP2 MSTORE PUSH1 0x20 ADD PUSH1 0x0 KECCAK256 DUP3 DUP2 SLOAD DUP2 LT PUSH2 0x7ED JUMPI PUSH2 0x7EC PUSH2 0x29ED JUMP JUMPDEST JUMPDEST SWAP1 PUSH1 0x0 MSTORE PUSH1 0x20 PUSH1 0x0 KECCAK256 SWAP1 PUSH1 0x3 MUL ADD PUSH1 0x2 ADD DUP2 SWAP1 SSTORE POP PUSH1 0xA PUSH1 0x0 SWAP1 SLOAD SWAP1 PUSH2 0x100 EXP SWAP1 DIV PUSH20 0xFFFFFFFFFFFFFFFFFFFFFFFFFFFFFFFFFFFFFFFF AND PUSH20 0xFFFFFFFFFFFFFFFFFFFFFFFFFFFFFFFFFFFFFFFF AND PUSH4 0x95EA7B3 CALLER DUP6 PUSH1 0x40 MLOAD DUP4 PUSH4 0xFFFFFFFF AND PUSH1 0xE0 SHL DUP2 MSTORE PUSH1 0x4 ADD PUSH2 0x85F SWAP3 SWAP2 SWAP1 PUSH2 0x243C JUMP JUMPDEST PUSH1 0x0 PUSH1 0x40 MLOAD DUP1 DUP4 SUB DUP2 PUSH1 0x0 DUP8 DUP1 EXTCODESIZE ISZERO DUP1 ISZERO PUSH2 0x879 JUMPI PUSH1 0x0 DUP1 REVERT JUMPDEST POP GAS CALL ISZERO DUP1 ISZERO PUSH2 0x88D JUMPI RETURNDATASIZE PUSH1 0x0 DUP1 RETURNDATACOPY RETURNDATASIZE PUSH1 0x0 REVERT JUMPDEST POP POP POP POP JUMPDEST DUP1 PUSH2 0x89C SWAP1 PUSH2 0x2917 JUMP JUMPDEST SWAP1 POP PUSH2 0x683 JUMP JUMPDEST POP POP POP JUMP JUMPDEST PUSH1 0x0 DUP1 SLOAD PUSH2 0x8B5 SWAP1 PUSH2 0x28E5 JUMP JUMPDEST DUP1 PUSH1 0x1F ADD PUSH1 0x20 DUP1 SWAP2 DIV MUL PUSH1 0x20 ADD PUSH1 0x40 MLOAD SWAP1 DUP2 ADD PUSH1 0x40 MSTORE DUP1 SWAP3 SWAP2 SWAP1 DUP2 DUP2 MSTORE PUSH1 0x20 ADD DUP3 DUP1 SLOAD PUSH2 0x8E1 SWAP1 PUSH2 0x28E5 JUMP JUMPDEST DUP1 ISZERO PUSH2 0x92E JUMPI DUP1 PUSH1 0x1F LT PUSH2 0x903 JUMPI PUSH2 0x100 DUP1 DUP4 SLOAD DIV MUL DUP4 MSTORE SWAP2 PUSH1 0x20 ADD SWAP2 PUSH2 0x92E JUMP JUMPDEST DUP3 ADD SWAP2 SWAP1 PUSH1 0x0 MSTORE PUSH1 0x20 PUSH1 0x0 KECCAK256 SWAP1 JUMPDEST DUP2 SLOAD DUP2 MSTORE SWAP1 PUSH1 0x1 ADD SWAP1 PUSH1 0x20 ADD DUP1 DUP4 GT PUSH2 0x911 JUMPI DUP3 SWAP1 SUB PUSH1 0x1F AND DUP3 ADD SWAP2 JUMPDEST POP POP POP POP POP DUP2 JUMP JUMPDEST PUSH1 0x0 DUP1 DUP3 EQ DUP1 PUSH2 0x9C2 JUMPI POP PUSH1 0x0 PUSH1 0x5 PUSH1 0x0 CALLER PUSH20 0xFFFFFFFFFFFFFFFFFFFFFFFFFFFFFFFFFFFFFFFF AND PUSH20 0xFFFFFFFFFFFFFFFFFFFFFFFFFFFFFFFFFFFFFFFF AND DUP2 MSTORE PUSH1 0x20 ADD SWAP1 DUP2 MSTORE PUSH1 0x20 ADD PUSH1 0x0 KECCAK256 PUSH1 0x0 DUP6 PUSH20 0xFFFFFFFFFFFFFFFFFFFFFFFFFFFFFFFFFFFFFFFF AND PUSH20 0xFFFFFFFFFFFFFFFFFFFFFFFFFFFFFFFFFFFFFFFF AND DUP2 MSTORE PUSH1 0x20 ADD SWAP1 DUP2 MSTORE PUSH1 0x20 ADD PUSH1 0x0 KECCAK256 SLOAD EQ JUMPDEST PUSH2 0x9CB JUMPI PUSH1 0x0 DUP1 REVERT JUMPDEST DUP2 PUSH1 0x5 PUSH1 0x0 CALLER PUSH20 0xFFFFFFFFFFFFFFFFFFFFFFFFFFFFFFFFFFFFFFFF AND PUSH20 0xFFFFFFFFFFFFFFFFFFFFFFFFFFFFFFFFFFFFFFFF AND DUP2 MSTORE PUSH1 0x20 ADD SWAP1 DUP2 MSTORE PUSH1 0x20 ADD PUSH1 0x0 KECCAK256 PUSH1 0x0 DUP6 PUSH20 0xFFFFFFFFFFFFFFFFFFFFFFFFFFFFFFFFFFFFFFFF AND PUSH20 0xFFFFFFFFFFFFFFFFFFFFFFFFFFFFFFFFFFFFFFFF AND DUP2 MSTORE PUSH1 0x20 ADD SWAP1 DUP2 MSTORE PUSH1 0x20 ADD PUSH1 0x0 KECCAK256 DUP2 SWAP1 SSTORE POP PUSH32 0x8C5BE1E5EBEC7D5BD14F71427D1E84F3DD0314C0F7B2291E5B200AC8C7C3B925 CALLER DUP5 DUP5 PUSH1 0x40 MLOAD PUSH2 0xA7F SWAP4 SWAP3 SWAP2 SWAP1 PUSH2 0x2405 JUMP JUMPDEST PUSH1 0x40 MLOAD DUP1 SWAP2 SUB SWAP1 LOG1 PUSH1 0x1 SWAP1 POP SWAP3 SWAP2 POP POP JUMP JUMPDEST PUSH1 0x0 DUP1 PUSH1 0x40 MLOAD DUP1 PUSH1 0x60 ADD PUSH1 0x40 MSTORE DUP1 DUP7 DUP2 MSTORE PUSH1 0x20 ADD TIMESTAMP DUP2 MSTORE PUSH1 0x20 ADD PUSH1 0x0 DUP2 MSTORE POP SWAP1 POP PUSH1 0xB PUSH1 0x0 DUP8 PUSH20 0xFFFFFFFFFFFFFFFFFFFFFFFFFFFFFFFFFFFFFFFF AND PUSH20 0xFFFFFFFFFFFFFFFFFFFFFFFFFFFFFFFFFFFFFFFF AND DUP2 MSTORE PUSH1 0x20 ADD SWAP1 DUP2 MSTORE PUSH1 0x20 ADD PUSH1 0x0 KECCAK256 DUP2 SWAP1 DUP1 PUSH1 0x1 DUP2 SLOAD ADD DUP1 DUP3 SSTORE DUP1 SWAP2 POP POP PUSH1 0x1 SWAP1 SUB SWAP1 PUSH1 0x0 MSTORE PUSH1 0x20 PUSH1 0x0 KECCAK256 SWAP1 PUSH1 0x3 MUL ADD PUSH1 0x0 SWAP1 SWAP2 SWAP1 SWAP2 SWAP1 SWAP2 POP PUSH1 0x0 DUP3 ADD MLOAD DUP2 PUSH1 0x0 ADD SSTORE PUSH1 0x20 DUP3 ADD MLOAD DUP2 PUSH1 0x1 ADD SSTORE PUSH1 0x40 DUP3 ADD MLOAD DUP2 PUSH1 0x2 ADD SSTORE POP POP PUSH4 0x150B7A02 PUSH1 0xE0 SHL SWAP2 POP POP SWAP6 SWAP5 POP POP POP POP POP JUMP JUMPDEST PUSH1 0x3 SLOAD DUP2 JUMP JUMPDEST PUSH1 0x0 DUP1 PUSH2 0xB78 PUSH1 0x64 PUSH1 0x0 DUP6 PUSH2 0xB6A SWAP2 SWAP1 PUSH2 0x2743 JUMP JUMPDEST PUSH2 0x164C SWAP1 SWAP2 SWAP1 PUSH4 0xFFFFFFFF AND JUMP JUMPDEST SWAP1 POP PUSH1 0x0 PUSH2 0xBAB DUP7 PUSH1 0x7 PUSH1 0x0 SWAP1 SLOAD SWAP1 PUSH2 0x100 EXP SWAP1 DIV PUSH20 0xFFFFFFFFFFFFFFFFFFFFFFFFFFFFFFFFFFFFFFFF AND DUP5 PUSH1 0x0 PUSH2 0x16AA JUMP JUMPDEST SWAP1 POP DUP1 PUSH2 0xBED JUMPI PUSH1 0x40 MLOAD PUSH32 0x8C379A000000000000000000000000000000000000000000000000000000000 DUP2 MSTORE PUSH1 0x4 ADD PUSH2 0xBE4 SWAP1 PUSH2 0x251A JUMP JUMPDEST PUSH1 0x40 MLOAD DUP1 SWAP2 SUB SWAP1 REVERT JUMPDEST PUSH2 0xBF9 DUP7 DUP7 DUP7 DUP6 PUSH2 0x16AA JUMP JUMPDEST SWAP3 POP POP POP SWAP4 SWAP3 POP POP POP JUMP JUMPDEST PUSH1 0x60 PUSH1 0xB PUSH1 0x0 DUP4 PUSH20 0xFFFFFFFFFFFFFFFFFFFFFFFFFFFFFFFFFFFFFFFF AND PUSH20 0xFFFFFFFFFFFFFFFFFFFFFFFFFFFFFFFFFFFFFFFF AND DUP2 MSTORE PUSH1 0x20 ADD SWAP1 DUP2 MSTORE PUSH1 0x20 ADD PUSH1 0x0 KECCAK256 DUP1 SLOAD DUP1 PUSH1 0x20 MUL PUSH1 0x20 ADD PUSH1 0x40 MLOAD SWAP1 DUP2 ADD PUSH1 0x40 MSTORE DUP1 SWAP3 SWAP2 SWAP1 DUP2 DUP2 MSTORE PUSH1 0x20 ADD PUSH1 0x0 SWAP1 JUMPDEST DUP3 DUP3 LT ISZERO PUSH2 0xCB5 JUMPI DUP4 DUP3 SWAP1 PUSH1 0x0 MSTORE PUSH1 0x20 PUSH1 0x0 KECCAK256 SWAP1 PUSH1 0x3 MUL ADD PUSH1 0x40 MLOAD DUP1 PUSH1 0x60 ADD PUSH1 0x40 MSTORE SWAP1 DUP2 PUSH1 0x0 DUP3 ADD SLOAD DUP2 MSTORE PUSH1 0x20 ADD PUSH1 0x1 DUP3 ADD SLOAD DUP2 MSTORE PUSH1 0x20 ADD PUSH1 0x2 DUP3 ADD SLOAD DUP2 MSTORE POP POP DUP2 MSTORE PUSH1 0x20 ADD SWAP1 PUSH1 0x1 ADD SWAP1 PUSH2 0xC65 JUMP JUMPDEST POP POP POP POP SWAP1 POP SWAP2 SWAP1 POP JUMP JUMPDEST PUSH1 0x2 PUSH1 0x0 SWAP1 SLOAD SWAP1 PUSH2 0x100 EXP SWAP1 DIV PUSH1 0xFF AND DUP2 JUMP JUMPDEST PUSH1 0x0 DUP1 PUSH20 0xFFFFFFFFFFFFFFFFFFFFFFFFFFFFFFFFFFFFFFFF AND PUSH1 0x8 PUSH1 0x0 CALLER PUSH20 0xFFFFFFFFFFFFFFFFFFFFFFFFFFFFFFFFFFFFFFFF AND PUSH20 0xFFFFFFFFFFFFFFFFFFFFFFFFFFFFFFFFFFFFFFFF AND DUP2 MSTORE PUSH1 0x20 ADD SWAP1 DUP2 MSTORE PUSH1 0x20 ADD PUSH1 0x0 KECCAK256 PUSH1 0x2 ADD PUSH1 0x0 SWAP1 SLOAD SWAP1 PUSH2 0x100 EXP SWAP1 DIV PUSH20 0xFFFFFFFFFFFFFFFFFFFFFFFFFFFFFFFFFFFFFFFF AND PUSH20 0xFFFFFFFFFFFFFFFFFFFFFFFFFFFFFFFFFFFFFFFF AND EQ PUSH2 0xDA5 JUMPI PUSH1 0x40 MLOAD PUSH32 0x8C379A000000000000000000000000000000000000000000000000000000000 DUP2 MSTORE PUSH1 0x4 ADD PUSH2 0xD9C SWAP1 PUSH2 0x25BA JUMP JUMPDEST PUSH1 0x40 MLOAD DUP1 SWAP2 SUB SWAP1 REVERT JUMPDEST PUSH2 0xDAF CALLER DUP4 PUSH2 0x1A97 JUMP JUMPDEST PUSH1 0x1 SWAP1 POP SWAP2 SWAP1 POP JUMP JUMPDEST PUSH1 0x0 PUSH1 0xD PUSH1 0x0 SWAP1 SLOAD SWAP1 PUSH2 0x100 EXP SWAP1 DIV PUSH20 0xFFFFFFFFFFFFFFFFFFFFFFFFFFFFFFFFFFFFFFFF AND PUSH1 0xA PUSH1 0x0 PUSH2 0x100 EXP DUP2 SLOAD DUP2 PUSH20 0xFFFFFFFFFFFFFFFFFFFFFFFFFFFFFFFFFFFFFFFF MUL NOT AND SWAP1 DUP4 PUSH20 0xFFFFFFFFFFFFFFFFFFFFFFFFFFFFFFFFFFFFFFFF AND MUL OR SWAP1 SSTORE POP PUSH1 0xA PUSH1 0x0 SWAP1 SLOAD SWAP1 PUSH2 0x100 EXP SWAP1 DIV PUSH20 0xFFFFFFFFFFFFFFFFFFFFFFFFFFFFFFFFFFFFFFFF AND PUSH20 0xFFFFFFFFFFFFFFFFFFFFFFFFFFFFFFFFFFFFFFFF AND PUSH4 0x6352211E DUP4 PUSH1 0x40 MLOAD DUP3 PUSH4 0xFFFFFFFF AND PUSH1 0xE0 SHL DUP2 MSTORE PUSH1 0x4 ADD PUSH2 0xE78 SWAP2 SWAP1 PUSH2 0x25FA JUMP JUMPDEST PUSH1 0x20 PUSH1 0x40 MLOAD DUP1 DUP4 SUB DUP2 DUP7 DUP1 EXTCODESIZE ISZERO DUP1 ISZERO PUSH2 0xE90 JUMPI PUSH1 0x0 DUP1 REVERT JUMPDEST POP GAS STATICCALL ISZERO DUP1 ISZERO PUSH2 0xEA4 JUMPI RETURNDATASIZE PUSH1 0x0 DUP1 RETURNDATACOPY RETURNDATASIZE PUSH1 0x0 REVERT JUMPDEST POP POP POP POP PUSH1 0x40 MLOAD RETURNDATASIZE PUSH1 0x1F NOT PUSH1 0x1F DUP3 ADD AND DUP3 ADD DUP1 PUSH1 0x40 MSTORE POP DUP2 ADD SWAP1 PUSH2 0xEC8 SWAP2 SWAP1 PUSH2 0x1FC3 JUMP JUMPDEST SWAP1 POP SWAP2 SWAP1 POP JUMP JUMPDEST PUSH1 0x0 PUSH1 0x4 PUSH1 0x0 DUP4 PUSH20 0xFFFFFFFFFFFFFFFFFFFFFFFFFFFFFFFFFFFFFFFF AND PUSH20 0xFFFFFFFFFFFFFFFFFFFFFFFFFFFFFFFFFFFFFFFF AND DUP2 MSTORE PUSH1 0x20 ADD SWAP1 DUP2 MSTORE PUSH1 0x20 ADD PUSH1 0x0 KECCAK256 SLOAD SWAP1 POP SWAP2 SWAP1 POP JUMP JUMPDEST PUSH1 0x0 PUSH1 0x3 SLOAD SWAP1 POP SWAP1 JUMP JUMPDEST PUSH1 0x1 DUP1 SLOAD PUSH2 0xF2F SWAP1 PUSH2 0x28E5 JUMP JUMPDEST DUP1 PUSH1 0x1F ADD PUSH1 0x20 DUP1 SWAP2 DIV MUL PUSH1 0x20 ADD PUSH1 0x40 MLOAD SWAP1 DUP2 ADD PUSH1 0x40 MSTORE DUP1 SWAP3 SWAP2 SWAP1 DUP2 DUP2 MSTORE PUSH1 0x20 ADD DUP3 DUP1 SLOAD PUSH2 0xF5B SWAP1 PUSH2 0x28E5 JUMP JUMPDEST DUP1 ISZERO PUSH2 0xFA8 JUMPI DUP1 PUSH1 0x1F LT PUSH2 0xF7D JUMPI PUSH2 0x100 DUP1 DUP4 SLOAD DIV MUL DUP4 MSTORE SWAP2 PUSH1 0x20 ADD SWAP2 PUSH2 0xFA8 JUMP JUMPDEST DUP3 ADD SWAP2 SWAP1 PUSH1 0x0 MSTORE PUSH1 0x20 PUSH1 0x0 KECCAK256 SWAP1 JUMPDEST DUP2 SLOAD DUP2 MSTORE SWAP1 PUSH1 0x1 ADD SWAP1 PUSH1 0x20 ADD DUP1 DUP4 GT PUSH2 0xF8B JUMPI DUP3 SWAP1 SUB PUSH1 0x1F AND DUP3 ADD SWAP2 JUMPDEST POP POP POP POP POP DUP2 JUMP JUMPDEST PUSH1 0xB PUSH1 0x20 MSTORE DUP2 PUSH1 0x0 MSTORE PUSH1 0x40 PUSH1 0x0 KECCAK256 DUP2 DUP2 SLOAD DUP2 LT PUSH2 0xFCC JUMPI PUSH1 0x0 DUP1 REVERT JUMPDEST SWAP1 PUSH1 0x0 MSTORE PUSH1 0x20 PUSH1 0x0 KECCAK256 SWAP1 PUSH1 0x3 MUL ADD PUSH1 0x0 SWAP2 POP SWAP2 POP POP DUP1 PUSH1 0x0 ADD SLOAD SWAP1 DUP1 PUSH1 0x1 ADD SLOAD SWAP1 DUP1 PUSH1 0x2 ADD SLOAD SWAP1 POP DUP4 JUMP JUMPDEST PUSH1 0x0 DUP1 PUSH2 0x101A PUSH1 0x64 PUSH1 0x0 DUP6 PUSH2 0x100C SWAP2 SWAP1 PUSH2 0x2743 JUMP JUMPDEST PUSH2 0x164C SWAP1 SWAP2 SWAP1 PUSH4 0xFFFFFFFF AND JUMP JUMPDEST SWAP1 POP PUSH1 0x0 PUSH2 0x104C PUSH1 0x7 PUSH1 0x0 SWAP1 SLOAD SWAP1 PUSH2 0x100 EXP SWAP1 DIV PUSH20 0xFFFFFFFFFFFFFFFFFFFFFFFFFFFFFFFFFFFFFFFF AND DUP4 PUSH1 0x0 PUSH2 0x1B1C JUMP JUMPDEST SWAP1 POP DUP1 PUSH2 0x108E JUMPI PUSH1 0x40 MLOAD PUSH32 0x8C379A000000000000000000000000000000000000000000000000000000000 DUP2 MSTORE PUSH1 0x4 ADD PUSH2 0x1085 SWAP1 PUSH2 0x251A JUMP JUMPDEST PUSH1 0x40 MLOAD DUP1 SWAP2 SUB SWAP1 REVERT JUMPDEST PUSH2 0x1099 DUP6 DUP6 DUP5 PUSH2 0x1B1C JUMP JUMPDEST SWAP3 POP POP POP SWAP3 SWAP2 POP POP JUMP JUMPDEST PUSH1 0xC PUSH1 0x20 MSTORE DUP1 PUSH1 0x0 MSTORE PUSH1 0x40 PUSH1 0x0 KECCAK256 PUSH1 0x0 SWAP2 POP SWAP1 POP SLOAD DUP2 JUMP JUMPDEST PUSH1 0x0 PUSH1 0x40 MLOAD DUP1 PUSH1 0x60 ADD PUSH1 0x40 MSTORE DUP1 DUP4 DUP2 MSTORE PUSH1 0x20 ADD TIMESTAMP DUP2 MSTORE PUSH1 0x20 ADD PUSH1 0x0 DUP2 MSTORE POP SWAP1 POP PUSH1 0xB PUSH1 0x0 CALLER PUSH20 0xFFFFFFFFFFFFFFFFFFFFFFFFFFFFFFFFFFFFFFFF AND PUSH20 0xFFFFFFFFFFFFFFFFFFFFFFFFFFFFFFFFFFFFFFFF AND DUP2 MSTORE PUSH1 0x20 ADD SWAP1 DUP2 MSTORE PUSH1 0x20 ADD PUSH1 0x0 KECCAK256 DUP2 SWAP1 DUP1 PUSH1 0x1 DUP2 SLOAD ADD DUP1 DUP3 SSTORE DUP1 SWAP2 POP POP PUSH1 0x1 SWAP1 SUB SWAP1 PUSH1 0x0 MSTORE PUSH1 0x20 PUSH1 0x0 KECCAK256 SWAP1 PUSH1 0x3 MUL ADD PUSH1 0x0 SWAP1 SWAP2 SWAP1 SWAP2 SWAP1 SWAP2 POP PUSH1 0x0 DUP3 ADD MLOAD DUP2 PUSH1 0x0 ADD SSTORE PUSH1 0x20 DUP3 ADD MLOAD DUP2 PUSH1 0x1 ADD SSTORE PUSH1 0x40 DUP3 ADD MLOAD DUP2 PUSH1 0x2 ADD SSTORE POP POP POP POP JUMP JUMPDEST PUSH1 0xA PUSH1 0x0 SWAP1 SLOAD SWAP1 PUSH2 0x100 EXP SWAP1 DIV PUSH20 0xFFFFFFFFFFFFFFFFFFFFFFFFFFFFFFFFFFFFFFFF AND DUP2 JUMP JUMPDEST PUSH1 0x0 PUSH1 0x5 PUSH1 0x0 DUP5 PUSH20 0xFFFFFFFFFFFFFFFFFFFFFFFFFFFFFFFFFFFFFFFF AND PUSH20 0xFFFFFFFFFFFFFFFFFFFFFFFFFFFFFFFFFFFFFFFF AND DUP2 MSTORE PUSH1 0x20 ADD SWAP1 DUP2 MSTORE PUSH1 0x20 ADD PUSH1 0x0 KECCAK256 PUSH1 0x0 DUP4 PUSH20 0xFFFFFFFFFFFFFFFFFFFFFFFFFFFFFFFFFFFFFFFF AND PUSH20 0xFFFFFFFFFFFFFFFFFFFFFFFFFFFFFFFFFFFFFFFF AND DUP2 MSTORE PUSH1 0x20 ADD SWAP1 DUP2 MSTORE PUSH1 0x20 ADD PUSH1 0x0 KECCAK256 SLOAD SWAP1 POP SWAP3 SWAP2 POP POP JUMP JUMPDEST PUSH1 0xD PUSH1 0x0 SWAP1 SLOAD SWAP1 PUSH2 0x100 EXP SWAP1 DIV PUSH20 0xFFFFFFFFFFFFFFFFFFFFFFFFFFFFFFFFFFFFFFFF AND PUSH1 0xA PUSH1 0x0 PUSH2 0x100 EXP DUP2 SLOAD DUP2 PUSH20 0xFFFFFFFFFFFFFFFFFFFFFFFFFFFFFFFFFFFFFFFF MUL NOT AND SWAP1 DUP4 PUSH20 0xFFFFFFFFFFFFFFFFFFFFFFFFFFFFFFFFFFFFFFFF AND MUL OR SWAP1 SSTORE POP CALLER PUSH20 0xFFFFFFFFFFFFFFFFFFFFFFFFFFFFFFFFFFFFFFFF AND PUSH1 0xA PUSH1 0x0 SWAP1 SLOAD SWAP1 PUSH2 0x100 EXP SWAP1 DIV PUSH20 0xFFFFFFFFFFFFFFFFFFFFFFFFFFFFFFFFFFFFFFFF AND PUSH20 0xFFFFFFFFFFFFFFFFFFFFFFFFFFFFFFFFFFFFFFFF AND PUSH4 0x6352211E DUP4 PUSH1 0x40 MLOAD DUP3 PUSH4 0xFFFFFFFF AND PUSH1 0xE0 SHL DUP2 MSTORE PUSH1 0x4 ADD PUSH2 0x12EA SWAP2 SWAP1 PUSH2 0x25FA JUMP JUMPDEST PUSH1 0x20 PUSH1 0x40 MLOAD DUP1 DUP4 SUB DUP2 DUP7 DUP1 EXTCODESIZE ISZERO DUP1 ISZERO PUSH2 0x1302 JUMPI PUSH1 0x0 DUP1 REVERT JUMPDEST POP GAS STATICCALL ISZERO DUP1 ISZERO PUSH2 0x1316 JUMPI RETURNDATASIZE PUSH1 0x0 DUP1 RETURNDATACOPY RETURNDATASIZE PUSH1 0x0 REVERT JUMPDEST POP POP POP POP PUSH1 0x40 MLOAD RETURNDATASIZE PUSH1 0x1F NOT PUSH1 0x1F DUP3 ADD AND DUP3 ADD DUP1 PUSH1 0x40 MSTORE POP DUP2 ADD SWAP1 PUSH2 0x133A SWAP2 SWAP1 PUSH2 0x1FC3 JUMP JUMPDEST PUSH20 0xFFFFFFFFFFFFFFFFFFFFFFFFFFFFFFFFFFFFFFFF AND EQ PUSH2 0x1390 JUMPI PUSH1 0x40 MLOAD PUSH32 0x8C379A000000000000000000000000000000000000000000000000000000000 DUP2 MSTORE PUSH1 0x4 ADD PUSH2 0x1387 SWAP1 PUSH2 0x255A JUMP JUMPDEST PUSH1 0x40 MLOAD DUP1 SWAP2 SUB SWAP1 REVERT JUMPDEST PUSH2 0x1398 PUSH2 0x1EE0 JUMP JUMPDEST PUSH1 0x0 PUSH1 0xC PUSH1 0x0 CALLER PUSH20 0xFFFFFFFFFFFFFFFFFFFFFFFFFFFFFFFFFFFFFFFF AND PUSH20 0xFFFFFFFFFFFFFFFFFFFFFFFFFFFFFFFFFFFFFFFF AND DUP2 MSTORE PUSH1 0x20 ADD SWAP1 DUP2 MSTORE PUSH1 0x20 ADD PUSH1 0x0 KECCAK256 SLOAD SWAP1 POP DUP3 DUP3 PUSH1 0x0 ADD DUP2 DUP2 MSTORE POP POP TIMESTAMP DUP3 PUSH1 0x20 ADD DUP2 DUP2 MSTORE POP POP PUSH1 0x1 DUP3 PUSH1 0x40 ADD DUP2 DUP2 MSTORE POP POP DUP2 PUSH1 0xB PUSH1 0x0 CALLER PUSH20 0xFFFFFFFFFFFFFFFFFFFFFFFFFFFFFFFFFFFFFFFF AND PUSH20 0xFFFFFFFFFFFFFFFFFFFFFFFFFFFFFFFFFFFFFFFF AND DUP2 MSTORE PUSH1 0x20 ADD SWAP1 DUP2 MSTORE PUSH1 0x20 ADD PUSH1 0x0 KECCAK256 DUP3 DUP2 SLOAD DUP2 LT PUSH2 0x144D JUMPI PUSH2 0x144C PUSH2 0x29ED JUMP JUMPDEST JUMPDEST SWAP1 PUSH1 0x0 MSTORE PUSH1 0x20 PUSH1 0x0 KECCAK256 SWAP1 PUSH1 0x3 MUL ADD PUSH1 0x0 DUP3 ADD MLOAD DUP2 PUSH1 0x0 ADD SSTORE PUSH1 0x20 DUP3 ADD MLOAD DUP2 PUSH1 0x1 ADD SSTORE PUSH1 0x40 DUP3 ADD MLOAD DUP2 PUSH1 0x2 ADD SSTORE SWAP1 POP POP PUSH1 0x1 PUSH1 0xC PUSH1 0x0 CALLER PUSH20 0xFFFFFFFFFFFFFFFFFFFFFFFFFFFFFFFFFFFFFFFF AND PUSH20 0xFFFFFFFFFFFFFFFFFFFFFFFFFFFFFFFFFFFFFFFF AND DUP2 MSTORE PUSH1 0x20 ADD SWAP1 DUP2 MSTORE PUSH1 0x20 ADD PUSH1 0x0 KECCAK256 PUSH1 0x0 DUP3 DUP3 SLOAD PUSH2 0x14CC SWAP2 SWAP1 PUSH2 0x26BC JUMP JUMPDEST SWAP3 POP POP DUP2 SWAP1 SSTORE POP PUSH1 0xA PUSH1 0x0 SWAP1 SLOAD SWAP1 PUSH2 0x100 EXP SWAP1 DIV PUSH20 0xFFFFFFFFFFFFFFFFFFFFFFFFFFFFFFFFFFFFFFFF AND PUSH20 0xFFFFFFFFFFFFFFFFFFFFFFFFFFFFFFFFFFFFFFFF AND PUSH4 0x95EA7B3 ADDRESS DUP6 PUSH1 0x40 MLOAD DUP4 PUSH4 0xFFFFFFFF AND PUSH1 0xE0 SHL DUP2 MSTORE PUSH1 0x4 ADD PUSH2 0x1530 SWAP3 SWAP2 SWAP1 PUSH2 0x243C JUMP JUMPDEST PUSH1 0x0 PUSH1 0x40 MLOAD DUP1 DUP4 SUB DUP2 PUSH1 0x0 DUP8 DUP1 EXTCODESIZE ISZERO DUP1 ISZERO PUSH2 0x154A JUMPI PUSH1 0x0 DUP1 REVERT JUMPDEST POP GAS CALL ISZERO DUP1 ISZERO PUSH2 0x155E JUMPI RETURNDATASIZE PUSH1 0x0 DUP1 RETURNDATACOPY RETURNDATASIZE PUSH1 0x0 REVERT JUMPDEST POP POP POP POP POP POP POP JUMP JUMPDEST PUSH1 0x0 DUP1 PUSH1 0xC PUSH1 0x0 DUP5 PUSH20 0xFFFFFFFFFFFFFFFFFFFFFFFFFFFFFFFFFFFFFFFF AND PUSH20 0xFFFFFFFFFFFFFFFFFFFFFFFFFFFFFFFFFFFFFFFF AND DUP2 MSTORE PUSH1 0x20 ADD SWAP1 DUP2 MSTORE PUSH1 0x20 ADD PUSH1 0x0 KECCAK256 SLOAD SWAP1 POP PUSH1 0x0 JUMPDEST DUP2 DUP2 LT ISZERO PUSH2 0x1642 JUMPI PUSH1 0x0 PUSH1 0xB PUSH1 0x0 DUP7 PUSH20 0xFFFFFFFFFFFFFFFFFFFFFFFFFFFFFFFFFFFFFFFF AND PUSH20 0xFFFFFFFFFFFFFFFFFFFFFFFFFFFFFFFFFFFFFFFF AND DUP2 MSTORE PUSH1 0x20 ADD SWAP1 DUP2 MSTORE PUSH1 0x20 ADD PUSH1 0x0 KECCAK256 DUP3 DUP2 SLOAD DUP2 LT PUSH2 0x160A JUMPI PUSH2 0x1609 PUSH2 0x29ED JUMP JUMPDEST JUMPDEST SWAP1 PUSH1 0x0 MSTORE PUSH1 0x20 PUSH1 0x0 KECCAK256 SWAP1 PUSH1 0x3 MUL ADD PUSH1 0x2 ADD SLOAD EQ ISZERO PUSH2 0x1631 JUMPI DUP2 DUP1 PUSH2 0x162D SWAP1 PUSH2 0x28BB JUMP JUMPDEST SWAP3 POP POP JUMPDEST DUP1 PUSH2 0x163B SWAP1 PUSH2 0x2917 JUMP JUMPDEST SWAP1 POP PUSH2 0x15AF JUMP JUMPDEST POP DUP1 SWAP2 POP POP SWAP2 SWAP1 POP JUMP JUMPDEST PUSH1 0x0 DUP1 DUP3 GT PUSH2 0x1690 JUMPI PUSH1 0x40 MLOAD PUSH32 0x8C379A000000000000000000000000000000000000000000000000000000000 DUP2 MSTORE PUSH1 0x4 ADD PUSH2 0x1687 SWAP1 PUSH2 0x25DA JUMP JUMPDEST PUSH1 0x40 MLOAD DUP1 SWAP2 SUB SWAP1 REVERT JUMPDEST PUSH1 0x0 DUP3 DUP5 PUSH2 0x169E SWAP2 SWAP1 PUSH2 0x2712 JUMP JUMPDEST SWAP1 POP DUP1 SWAP2 POP POP SWAP3 SWAP2 POP POP JUMP JUMPDEST PUSH1 0x0 DUP3 PUSH1 0x4 PUSH1 0x0 DUP8 PUSH20 0xFFFFFFFFFFFFFFFFFFFFFFFFFFFFFFFFFFFFFFFF AND PUSH20 0xFFFFFFFFFFFFFFFFFFFFFFFFFFFFFFFFFFFFFFFF AND DUP2 MSTORE PUSH1 0x20 ADD SWAP1 DUP2 MSTORE PUSH1 0x20 ADD PUSH1 0x0 KECCAK256 SLOAD LT ISZERO DUP1 ISZERO PUSH2 0x1777 JUMPI POP DUP3 PUSH1 0x5 PUSH1 0x0 DUP8 PUSH20 0xFFFFFFFFFFFFFFFFFFFFFFFFFFFFFFFFFFFFFFFF AND PUSH20 0xFFFFFFFFFFFFFFFFFFFFFFFFFFFFFFFFFFFFFFFF AND DUP2 MSTORE PUSH1 0x20 ADD SWAP1 DUP2 MSTORE PUSH1 0x20 ADD PUSH1 0x0 KECCAK256 PUSH1 0x0 CALLER PUSH20 0xFFFFFFFFFFFFFFFFFFFFFFFFFFFFFFFFFFFFFFFF AND PUSH20 0xFFFFFFFFFFFFFFFFFFFFFFFFFFFFFFFFFFFFFFFF AND DUP2 MSTORE PUSH1 0x20 ADD SWAP1 DUP2 MSTORE PUSH1 0x20 ADD PUSH1 0x0 KECCAK256 SLOAD LT ISZERO JUMPDEST PUSH2 0x17B6 JUMPI PUSH1 0x40 MLOAD PUSH32 0x8C379A000000000000000000000000000000000000000000000000000000000 DUP2 MSTORE PUSH1 0x4 ADD PUSH2 0x17AD SWAP1 PUSH2 0x257A JUMP JUMPDEST PUSH1 0x40 MLOAD DUP1 SWAP2 SUB SWAP1 REVERT JUMPDEST DUP3 PUSH1 0x8 PUSH1 0x0 DUP8 PUSH20 0xFFFFFFFFFFFFFFFFFFFFFFFFFFFFFFFFFFFFFFFF AND PUSH20 0xFFFFFFFFFFFFFFFFFFFFFFFFFFFFFFFFFFFFFFFF AND DUP2 MSTORE PUSH1 0x20 ADD SWAP1 DUP2 MSTORE PUSH1 0x20 ADD PUSH1 0x0 KECCAK256 PUSH1 0x1 ADD SLOAD LT ISZERO PUSH2 0x183B JUMPI PUSH1 0x40 MLOAD PUSH32 0x8C379A000000000000000000000000000000000000000000000000000000000 DUP2 MSTORE PUSH1 0x4 ADD PUSH2 0x1832 SWAP1 PUSH2 0x257A JUMP JUMPDEST PUSH1 0x40 MLOAD DUP1 SWAP2 SUB SWAP1 REVERT JUMPDEST DUP3 PUSH1 0x4 PUSH1 0x0 DUP8 PUSH20 0xFFFFFFFFFFFFFFFFFFFFFFFFFFFFFFFFFFFFFFFF AND PUSH20 0xFFFFFFFFFFFFFFFFFFFFFFFFFFFFFFFFFFFFFFFF AND DUP2 MSTORE PUSH1 0x20 ADD SWAP1 DUP2 MSTORE PUSH1 0x20 ADD PUSH1 0x0 KECCAK256 PUSH1 0x0 DUP3 DUP3 SLOAD PUSH2 0x188A SWAP2 SWAP1 PUSH2 0x279D JUMP JUMPDEST SWAP3 POP POP DUP2 SWAP1 SSTORE POP DUP3 PUSH1 0x8 PUSH1 0x0 DUP8 PUSH20 0xFFFFFFFFFFFFFFFFFFFFFFFFFFFFFFFFFFFFFFFF AND PUSH20 0xFFFFFFFFFFFFFFFFFFFFFFFFFFFFFFFFFFFFFFFF AND DUP2 MSTORE PUSH1 0x20 ADD SWAP1 DUP2 MSTORE PUSH1 0x20 ADD PUSH1 0x0 KECCAK256 PUSH1 0x1 ADD PUSH1 0x0 DUP3 DUP3 SLOAD PUSH2 0x18E3 SWAP2 SWAP1 PUSH2 0x279D JUMP JUMPDEST SWAP3 POP POP DUP2 SWAP1 SSTORE POP PUSH2 0x18FD DUP3 DUP5 PUSH2 0x1E81 SWAP1 SWAP2 SWAP1 PUSH4 0xFFFFFFFF AND JUMP JUMPDEST PUSH1 0x4 PUSH1 0x0 DUP7 PUSH20 0xFFFFFFFFFFFFFFFFFFFFFFFFFFFFFFFFFFFFFFFF AND PUSH20 0xFFFFFFFFFFFFFFFFFFFFFFFFFFFFFFFFFFFFFFFF AND DUP2 MSTORE PUSH1 0x20 ADD SWAP1 DUP2 MSTORE PUSH1 0x20 ADD PUSH1 0x0 KECCAK256 PUSH1 0x0 DUP3 DUP3 SLOAD PUSH2 0x194B SWAP2 SWAP1 PUSH2 0x26BC JUMP JUMPDEST SWAP3 POP POP DUP2 SWAP1 SSTORE POP PUSH2 0x1965 DUP3 DUP5 PUSH2 0x1E81 SWAP1 SWAP2 SWAP1 PUSH4 0xFFFFFFFF AND JUMP JUMPDEST PUSH1 0x8 PUSH1 0x0 DUP7 PUSH20 0xFFFFFFFFFFFFFFFFFFFFFFFFFFFFFFFFFFFFFFFF AND PUSH20 0xFFFFFFFFFFFFFFFFFFFFFFFFFFFFFFFFFFFFFFFF AND DUP2 MSTORE PUSH1 0x20 ADD SWAP1 DUP2 MSTORE PUSH1 0x20 ADD PUSH1 0x0 KECCAK256 PUSH1 0x1 ADD PUSH1 0x0 DUP3 DUP3 SLOAD PUSH2 0x19B6 SWAP2 SWAP1 PUSH2 0x26BC JUMP JUMPDEST SWAP3 POP POP DUP2 SWAP1 SSTORE POP DUP3 PUSH1 0x5 PUSH1 0x0 DUP8 PUSH20 0xFFFFFFFFFFFFFFFFFFFFFFFFFFFFFFFFFFFFFFFF AND PUSH20 0xFFFFFFFFFFFFFFFFFFFFFFFFFFFFFFFFFFFFFFFF AND DUP2 MSTORE PUSH1 0x20 ADD SWAP1 DUP2 MSTORE PUSH1 0x20 ADD PUSH1 0x0 KECCAK256 PUSH1 0x0 CALLER PUSH20 0xFFFFFFFFFFFFFFFFFFFFFFFFFFFFFFFFFFFFFFFF AND PUSH20 0xFFFFFFFFFFFFFFFFFFFFFFFFFFFFFFFFFFFFFFFF AND DUP2 MSTORE PUSH1 0x20 ADD SWAP1 DUP2 MSTORE PUSH1 0x20 ADD PUSH1 0x0 KECCAK256 PUSH1 0x0 DUP3 DUP3 SLOAD PUSH2 0x1A49 SWAP2 SWAP1 PUSH2 0x279D JUMP JUMPDEST SWAP3 POP POP DUP2 SWAP1 SSTORE POP PUSH32 0xDDF252AD1BE2C89B69C2B068FC378DAA952BA7F163C4A11628F55A4DF523B3EF DUP6 DUP6 DUP6 PUSH1 0x40 MLOAD PUSH2 0x1A83 SWAP4 SWAP3 SWAP2 SWAP1 PUSH2 0x2405 JUMP JUMPDEST PUSH1 0x40 MLOAD DUP1 SWAP2 SUB SWAP1 LOG1 PUSH1 0x1 SWAP1 POP SWAP5 SWAP4 POP POP POP POP JUMP JUMPDEST DUP1 PUSH1 0x8 PUSH1 0x0 DUP5 PUSH20 0xFFFFFFFFFFFFFFFFFFFFFFFFFFFFFFFFFFFFFFFF AND PUSH20 0xFFFFFFFFFFFFFFFFFFFFFFFFFFFFFFFFFFFFFFFF AND DUP2 MSTORE PUSH1 0x20 ADD SWAP1 DUP2 MSTORE PUSH1 0x20 ADD PUSH1 0x0 KECCAK256 PUSH1 0x2 ADD PUSH1 0x0 PUSH2 0x100 EXP DUP2 SLOAD DUP2 PUSH20 0xFFFFFFFFFFFFFFFFFFFFFFFFFFFFFFFFFFFFFFFF MUL NOT AND SWAP1 DUP4 PUSH20 0xFFFFFFFFFFFFFFFFFFFFFFFFFFFFFFFFFFFFFFFF AND MUL OR SWAP1 SSTORE POP POP POP JUMP JUMPDEST PUSH1 0x0 DUP3 PUSH1 0x4 PUSH1 0x0 CALLER PUSH20 0xFFFFFFFFFFFFFFFFFFFFFFFFFFFFFFFFFFFFFFFF AND PUSH20 0xFFFFFFFFFFFFFFFFFFFFFFFFFFFFFFFFFFFFFFFF AND DUP2 MSTORE PUSH1 0x20 ADD SWAP1 DUP2 MSTORE PUSH1 0x20 ADD PUSH1 0x0 KECCAK256 SLOAD LT ISZERO DUP1 ISZERO PUSH2 0x1BF5 JUMPI POP PUSH1 0x4 PUSH1 0x0 DUP6 PUSH20 0xFFFFFFFFFFFFFFFFFFFFFFFFFFFFFFFFFFFFFFFF AND PUSH20 0xFFFFFFFFFFFFFFFFFFFFFFFFFFFFFFFFFFFFFFFF AND DUP2 MSTORE PUSH1 0x20 ADD SWAP1 DUP2 MSTORE PUSH1 0x20 ADD PUSH1 0x0 KECCAK256 SLOAD DUP4 PUSH1 0x4 PUSH1 0x0 DUP8 PUSH20 0xFFFFFFFFFFFFFFFFFFFFFFFFFFFFFFFFFFFFFFFF AND PUSH20 0xFFFFFFFFFFFFFFFFFFFFFFFFFFFFFFFFFFFFFFFF AND DUP2 MSTORE PUSH1 0x20 ADD SWAP1 DUP2 MSTORE PUSH1 0x20 ADD PUSH1 0x0 KECCAK256 SLOAD PUSH2 0x1BF3 SWAP2 SWAP1 PUSH2 0x26BC JUMP JUMPDEST GT JUMPDEST PUSH2 0x1C34 JUMPI PUSH1 0x40 MLOAD PUSH32 0x8C379A000000000000000000000000000000000000000000000000000000000 DUP2 MSTORE PUSH1 0x4 ADD PUSH2 0x1C2B SWAP1 PUSH2 0x257A JUMP JUMPDEST PUSH1 0x40 MLOAD DUP1 SWAP2 SUB SWAP1 REVERT JUMPDEST DUP3 PUSH1 0x8 PUSH1 0x0 CALLER PUSH20 0xFFFFFFFFFFFFFFFFFFFFFFFFFFFFFFFFFFFFFFFF AND PUSH20 0xFFFFFFFFFFFFFFFFFFFFFFFFFFFFFFFFFFFFFFFF AND DUP2 MSTORE PUSH1 0x20 ADD SWAP1 DUP2 MSTORE PUSH1 0x20 ADD PUSH1 0x0 KECCAK256 PUSH1 0x1 ADD SLOAD LT ISZERO PUSH2 0x1CB9 JUMPI PUSH1 0x40 MLOAD PUSH32 0x8C379A000000000000000000000000000000000000000000000000000000000 DUP2 MSTORE PUSH1 0x4 ADD PUSH2 0x1CB0 SWAP1 PUSH2 0x257A JUMP JUMPDEST PUSH1 0x40 MLOAD DUP1 SWAP2 SUB SWAP1 REVERT JUMPDEST DUP3 PUSH1 0x4 PUSH1 0x0 CALLER PUSH20 0xFFFFFFFFFFFFFFFFFFFFFFFFFFFFFFFFFFFFFFFF AND PUSH20 0xFFFFFFFFFFFFFFFFFFFFFFFFFFFFFFFFFFFFFFFF AND DUP2 MSTORE PUSH1 0x20 ADD SWAP1 DUP2 MSTORE PUSH1 0x20 ADD PUSH1 0x0 KECCAK256 PUSH1 0x0 DUP3 DUP3 SLOAD PUSH2 0x1D08 SWAP2 SWAP1 PUSH2 0x279D JUMP JUMPDEST SWAP3 POP POP DUP2 SWAP1 SSTORE POP DUP3 PUSH1 0x8 PUSH1 0x0 CALLER PUSH20 0xFFFFFFFFFFFFFFFFFFFFFFFFFFFFFFFFFFFFFFFF AND PUSH20 0xFFFFFFFFFFFFFFFFFFFFFFFFFFFFFFFFFFFFFFFF AND DUP2 MSTORE PUSH1 0x20 ADD SWAP1 DUP2 MSTORE PUSH1 0x20 ADD PUSH1 0x0 KECCAK256 PUSH1 0x1 ADD PUSH1 0x0 DUP3 DUP3 SLOAD PUSH2 0x1D61 SWAP2 SWAP1 PUSH2 0x279D JUMP JUMPDEST SWAP3 POP POP DUP2 SWAP1 SSTORE POP PUSH2 0x1D7B DUP3 DUP5 PUSH2 0x1E81 SWAP1 SWAP2 SWAP1 PUSH4 0xFFFFFFFF AND JUMP JUMPDEST PUSH1 0x4 PUSH1 0x0 DUP7 PUSH20 0xFFFFFFFFFFFFFFFFFFFFFFFFFFFFFFFFFFFFFFFF AND PUSH20 0xFFFFFFFFFFFFFFFFFFFFFFFFFFFFFFFFFFFFFFFF AND DUP2 MSTORE PUSH1 0x20 ADD SWAP1 DUP2 MSTORE PUSH1 0x20 ADD PUSH1 0x0 KECCAK256 PUSH1 0x0 DUP3 DUP3 SLOAD PUSH2 0x1DC9 SWAP2 SWAP1 PUSH2 0x26BC JUMP JUMPDEST SWAP3 POP POP DUP2 SWAP1 SSTORE POP PUSH2 0x1DE3 DUP3 DUP5 PUSH2 0x1E81 SWAP1 SWAP2 SWAP1 PUSH4 0xFFFFFFFF AND JUMP JUMPDEST PUSH1 0x8 PUSH1 0x0 DUP7 PUSH20 0xFFFFFFFFFFFFFFFFFFFFFFFFFFFFFFFFFFFFFFFF AND PUSH20 0xFFFFFFFFFFFFFFFFFFFFFFFFFFFFFFFFFFFFFFFF AND DUP2 MSTORE PUSH1 0x20 ADD SWAP1 DUP2 MSTORE PUSH1 0x20 ADD PUSH1 0x0 KECCAK256 PUSH1 0x1 ADD PUSH1 0x0 DUP3 DUP3 SLOAD PUSH2 0x1E34 SWAP2 SWAP1 PUSH2 0x26BC JUMP JUMPDEST SWAP3 POP POP DUP2 SWAP1 SSTORE POP PUSH32 0xDDF252AD1BE2C89B69C2B068FC378DAA952BA7F163C4A11628F55A4DF523B3EF CALLER DUP6 DUP6 PUSH1 0x40 MLOAD PUSH2 0x1E6E SWAP4 SWAP3 SWAP2 SWAP1 PUSH2 0x2405 JUMP JUMPDEST PUSH1 0x40 MLOAD DUP1 SWAP2 SUB SWAP1 LOG1 PUSH1 0x1 SWAP1 POP SWAP4 SWAP3 POP POP POP JUMP JUMPDEST PUSH1 0x0 DUP3 DUP3 GT ISZERO PUSH2 0x1EC6 JUMPI PUSH1 0x40 MLOAD PUSH32 0x8C379A000000000000000000000000000000000000000000000000000000000 DUP2 MSTORE PUSH1 0x4 ADD PUSH2 0x1EBD SWAP1 PUSH2 0x253A JUMP JUMPDEST PUSH1 0x40 MLOAD DUP1 SWAP2 SUB SWAP1 REVERT JUMPDEST PUSH1 0x0 DUP3 DUP5 PUSH2 0x1ED4 SWAP2 SWAP1 PUSH2 0x279D JUMP JUMPDEST SWAP1 POP DUP1 SWAP2 POP POP SWAP3 SWAP2 POP POP JUMP JUMPDEST PUSH1 0x40 MLOAD DUP1 PUSH1 0x60 ADD PUSH1 0x40 MSTORE DUP1 PUSH1 0x0 DUP2 MSTORE PUSH1 0x20 ADD PUSH1 0x0 DUP2 MSTORE PUSH1 0x20 ADD PUSH1 0x0 DUP2 MSTORE POP SWAP1 JUMP JUMPDEST PUSH1 0x0 DUP2 CALLDATALOAD SWAP1 POP PUSH2 0x1F10 DUP2 PUSH2 0x2B8E JUMP JUMPDEST SWAP3 SWAP2 POP POP JUMP JUMPDEST PUSH1 0x0 DUP2 MLOAD SWAP1 POP PUSH2 0x1F25 DUP2 PUSH2 0x2B8E JUMP JUMPDEST SWAP3 SWAP2 POP POP JUMP JUMPDEST PUSH1 0x0 DUP1 DUP4 PUSH1 0x1F DUP5 ADD SLT PUSH2 0x1F41 JUMPI PUSH2 0x1F40 PUSH2 0x2A21 JUMP JUMPDEST JUMPDEST DUP3 CALLDATALOAD SWAP1 POP PUSH8 0xFFFFFFFFFFFFFFFF DUP2 GT ISZERO PUSH2 0x1F5E JUMPI PUSH2 0x1F5D PUSH2 0x2A1C JUMP JUMPDEST JUMPDEST PUSH1 0x20 DUP4 ADD SWAP2 POP DUP4 PUSH1 0x1 DUP3 MUL DUP4 ADD GT ISZERO PUSH2 0x1F7A JUMPI PUSH2 0x1F79 PUSH2 0x2A26 JUMP JUMPDEST JUMPDEST SWAP3 POP SWAP3 SWAP1 POP JUMP JUMPDEST PUSH1 0x0 DUP2 CALLDATALOAD SWAP1 POP PUSH2 0x1F90 DUP2 PUSH2 0x2BA5 JUMP JUMPDEST SWAP3 SWAP2 POP POP JUMP JUMPDEST PUSH1 0x0 PUSH1 0x20 DUP3 DUP5 SUB SLT ISZERO PUSH2 0x1FAC JUMPI PUSH2 0x1FAB PUSH2 0x2A30 JUMP JUMPDEST JUMPDEST PUSH1 0x0 PUSH2 0x1FBA DUP5 DUP3 DUP6 ADD PUSH2 0x1F01 JUMP JUMPDEST SWAP2 POP POP SWAP3 SWAP2 POP POP JUMP JUMPDEST PUSH1 0x0 PUSH1 0x20 DUP3 DUP5 SUB SLT ISZERO PUSH2 0x1FD9 JUMPI PUSH2 0x1FD8 PUSH2 0x2A30 JUMP JUMPDEST JUMPDEST PUSH1 0x0 PUSH2 0x1FE7 DUP5 DUP3 DUP6 ADD PUSH2 0x1F16 JUMP JUMPDEST SWAP2 POP POP SWAP3 SWAP2 POP POP JUMP JUMPDEST PUSH1 0x0 DUP1 PUSH1 0x40 DUP4 DUP6 SUB SLT ISZERO PUSH2 0x2007 JUMPI PUSH2 0x2006 PUSH2 0x2A30 JUMP JUMPDEST JUMPDEST PUSH1 0x0 PUSH2 0x2015 DUP6 DUP3 DUP7 ADD PUSH2 0x1F01 JUMP JUMPDEST SWAP3 POP POP PUSH1 0x20 PUSH2 0x2026 DUP6 DUP3 DUP7 ADD PUSH2 0x1F01 JUMP JUMPDEST SWAP2 POP POP SWAP3 POP SWAP3 SWAP1 POP JUMP JUMPDEST PUSH1 0x0 DUP1 PUSH1 0x0 PUSH1 0x60 DUP5 DUP7 SUB SLT ISZERO PUSH2 0x2049 JUMPI PUSH2 0x2048 PUSH2 0x2A30 JUMP JUMPDEST JUMPDEST PUSH1 0x0 PUSH2 0x2057 DUP7 DUP3 DUP8 ADD PUSH2 0x1F01 JUMP JUMPDEST SWAP4 POP POP PUSH1 0x20 PUSH2 0x2068 DUP7 DUP3 DUP8 ADD PUSH2 0x1F01 JUMP JUMPDEST SWAP3 POP POP PUSH1 0x40 PUSH2 0x2079 DUP7 DUP3 DUP8 ADD PUSH2 0x1F81 JUMP JUMPDEST SWAP2 POP POP SWAP3 POP SWAP3 POP SWAP3 JUMP JUMPDEST PUSH1 0x0 DUP1 PUSH1 0x0 DUP1 PUSH1 0x0 PUSH1 0x80 DUP7 DUP9 SUB SLT ISZERO PUSH2 0x209F JUMPI PUSH2 0x209E PUSH2 0x2A30 JUMP JUMPDEST JUMPDEST PUSH1 0x0 PUSH2 0x20AD DUP9 DUP3 DUP10 ADD PUSH2 0x1F01 JUMP JUMPDEST SWAP6 POP POP PUSH1 0x20 PUSH2 0x20BE DUP9 DUP3 DUP10 ADD PUSH2 0x1F01 JUMP JUMPDEST SWAP5 POP POP PUSH1 0x40 PUSH2 0x20CF DUP9 DUP3 DUP10 ADD PUSH2 0x1F81 JUMP JUMPDEST SWAP4 POP POP PUSH1 0x60 DUP7 ADD CALLDATALOAD PUSH8 0xFFFFFFFFFFFFFFFF DUP2 GT ISZERO PUSH2 0x20F0 JUMPI PUSH2 0x20EF PUSH2 0x2A2B JUMP JUMPDEST JUMPDEST PUSH2 0x20FC DUP9 DUP3 DUP10 ADD PUSH2 0x1F2B JUMP JUMPDEST SWAP3 POP SWAP3 POP POP SWAP3 SWAP6 POP SWAP3 SWAP6 SWAP1 SWAP4 POP JUMP JUMPDEST PUSH1 0x0 DUP1 PUSH1 0x40 DUP4 DUP6 SUB SLT ISZERO PUSH2 0x2122 JUMPI PUSH2 0x2121 PUSH2 0x2A30 JUMP JUMPDEST JUMPDEST PUSH1 0x0 PUSH2 0x2130 DUP6 DUP3 DUP7 ADD PUSH2 0x1F01 JUMP JUMPDEST SWAP3 POP POP PUSH1 0x20 PUSH2 0x2141 DUP6 DUP3 DUP7 ADD PUSH2 0x1F81 JUMP JUMPDEST SWAP2 POP POP SWAP3 POP SWAP3 SWAP1 POP JUMP JUMPDEST PUSH1 0x0 PUSH1 0x20 DUP3 DUP5 SUB SLT ISZERO PUSH2 0x2161 JUMPI PUSH2 0x2160 PUSH2 0x2A30 JUMP JUMPDEST JUMPDEST PUSH1 0x0 PUSH2 0x216F DUP5 DUP3 DUP6 ADD PUSH2 0x1F81 JUMP JUMPDEST SWAP2 POP POP SWAP3 SWAP2 POP POP JUMP JUMPDEST PUSH1 0x0 PUSH2 0x2184 DUP4 DUP4 PUSH2 0x237B JUMP JUMPDEST PUSH1 0x60 DUP4 ADD SWAP1 POP SWAP3 SWAP2 POP POP JUMP JUMPDEST PUSH2 0x2199 DUP2 PUSH2 0x27D1 JUMP JUMPDEST DUP3 MSTORE POP POP JUMP JUMPDEST PUSH1 0x0 PUSH2 0x21AA DUP3 PUSH2 0x2677 JUMP JUMPDEST PUSH2 0x21B4 DUP2 DUP6 PUSH2 0x269A JUMP JUMPDEST SWAP4 POP PUSH2 0x21BF DUP4 PUSH2 0x2667 JUMP JUMPDEST DUP1 PUSH1 0x0 JUMPDEST DUP4 DUP2 LT ISZERO PUSH2 0x21F0 JUMPI DUP2 MLOAD PUSH2 0x21D7 DUP9 DUP3 PUSH2 0x2178 JUMP JUMPDEST SWAP8 POP PUSH2 0x21E2 DUP4 PUSH2 0x268D JUMP JUMPDEST SWAP3 POP POP PUSH1 0x1 DUP2 ADD SWAP1 POP PUSH2 0x21C3 JUMP JUMPDEST POP DUP6 SWAP4 POP POP POP POP SWAP3 SWAP2 POP POP JUMP JUMPDEST PUSH2 0x2206 DUP2 PUSH2 0x27E3 JUMP JUMPDEST DUP3 MSTORE POP POP JUMP JUMPDEST PUSH2 0x2215 DUP2 PUSH2 0x27EF JUMP JUMPDEST DUP3 MSTORE POP POP JUMP JUMPDEST PUSH2 0x2224 DUP2 PUSH2 0x2852 JUMP JUMPDEST DUP3 MSTORE POP POP JUMP JUMPDEST PUSH1 0x0 PUSH2 0x2235 DUP3 PUSH2 0x2682 JUMP JUMPDEST PUSH2 0x223F DUP2 DUP6 PUSH2 0x26AB JUMP JUMPDEST SWAP4 POP PUSH2 0x224F DUP2 DUP6 PUSH1 0x20 DUP7 ADD PUSH2 0x2888 JUMP JUMPDEST PUSH2 0x2258 DUP2 PUSH2 0x2A35 JUMP JUMPDEST DUP5 ADD SWAP2 POP POP SWAP3 SWAP2 POP POP JUMP JUMPDEST PUSH1 0x0 PUSH2 0x2270 PUSH1 0x19 DUP4 PUSH2 0x26AB JUMP JUMPDEST SWAP2 POP PUSH2 0x227B DUP3 PUSH2 0x2A46 JUMP JUMPDEST PUSH1 0x20 DUP3 ADD SWAP1 POP SWAP2 SWAP1 POP JUMP JUMPDEST PUSH1 0x0 PUSH2 0x2293 PUSH1 0x1C DUP4 PUSH2 0x26AB JUMP JUMPDEST SWAP2 POP PUSH2 0x229E DUP3 PUSH2 0x2A6F JUMP JUMPDEST PUSH1 0x20 DUP3 ADD SWAP1 POP SWAP2 SWAP1 POP JUMP JUMPDEST PUSH1 0x0 PUSH2 0x22B6 PUSH1 0x1E DUP4 PUSH2 0x26AB JUMP JUMPDEST SWAP2 POP PUSH2 0x22C1 DUP3 PUSH2 0x2A98 JUMP JUMPDEST PUSH1 0x20 DUP3 ADD SWAP1 POP SWAP2 SWAP1 POP JUMP JUMPDEST PUSH1 0x0 PUSH2 0x22D9 PUSH1 0x16 DUP4 PUSH2 0x26AB JUMP JUMPDEST SWAP2 POP PUSH2 0x22E4 DUP3 PUSH2 0x2AC1 JUMP JUMPDEST PUSH1 0x20 DUP3 ADD SWAP1 POP SWAP2 SWAP1 POP JUMP JUMPDEST PUSH1 0x0 PUSH2 0x22FC PUSH1 0x12 DUP4 PUSH2 0x26AB JUMP JUMPDEST SWAP2 POP PUSH2 0x2307 DUP3 PUSH2 0x2AEA JUMP JUMPDEST PUSH1 0x20 DUP3 ADD SWAP1 POP SWAP2 SWAP1 POP JUMP JUMPDEST PUSH1 0x0 PUSH2 0x231F PUSH1 0x19 DUP4 PUSH2 0x26AB JUMP JUMPDEST SWAP2 POP PUSH2 0x232A DUP3 PUSH2 0x2B13 JUMP JUMPDEST PUSH1 0x20 DUP3 ADD SWAP1 POP SWAP2 SWAP1 POP JUMP JUMPDEST PUSH1 0x0 PUSH2 0x2342 PUSH1 0x1B DUP4 PUSH2 0x26AB JUMP JUMPDEST SWAP2 POP PUSH2 0x234D DUP3 PUSH2 0x2B3C JUMP JUMPDEST PUSH1 0x20 DUP3 ADD SWAP1 POP SWAP2 SWAP1 POP JUMP JUMPDEST PUSH1 0x0 PUSH2 0x2365 PUSH1 0x1A DUP4 PUSH2 0x26AB JUMP JUMPDEST SWAP2 POP PUSH2 0x2370 DUP3 PUSH2 0x2B65 JUMP JUMPDEST PUSH1 0x20 DUP3 ADD SWAP1 POP SWAP2 SWAP1 POP JUMP JUMPDEST PUSH1 0x60 DUP3 ADD PUSH1 0x0 DUP3 ADD MLOAD PUSH2 0x2391 PUSH1 0x0 DUP6 ADD DUP3 PUSH2 0x23BD JUMP JUMPDEST POP PUSH1 0x20 DUP3 ADD MLOAD PUSH2 0x23A4 PUSH1 0x20 DUP6 ADD DUP3 PUSH2 0x23BD JUMP JUMPDEST POP PUSH1 0x40 DUP3 ADD MLOAD PUSH2 0x23B7 PUSH1 0x40 DUP6 ADD DUP3 PUSH2 0x23BD JUMP JUMPDEST POP POP POP POP JUMP JUMPDEST PUSH2 0x23C6 DUP2 PUSH2 0x283B JUMP JUMPDEST DUP3 MSTORE POP POP JUMP JUMPDEST PUSH2 0x23D5 DUP2 PUSH2 0x283B JUMP JUMPDEST DUP3 MSTORE POP POP JUMP JUMPDEST PUSH2 0x23E4 DUP2 PUSH2 0x2845 JUMP JUMPDEST DUP3 MSTORE POP POP JUMP JUMPDEST PUSH1 0x0 PUSH1 0x20 DUP3 ADD SWAP1 POP PUSH2 0x23FF PUSH1 0x0 DUP4 ADD DUP5 PUSH2 0x2190 JUMP JUMPDEST SWAP3 SWAP2 POP POP JUMP JUMPDEST PUSH1 0x0 PUSH1 0x60 DUP3 ADD SWAP1 POP PUSH2 0x241A PUSH1 0x0 DUP4 ADD DUP7 PUSH2 0x2190 JUMP JUMPDEST PUSH2 0x2427 PUSH1 0x20 DUP4 ADD DUP6 PUSH2 0x2190 JUMP JUMPDEST PUSH2 0x2434 PUSH1 0x40 DUP4 ADD DUP5 PUSH2 0x23CC JUMP JUMPDEST SWAP5 SWAP4 POP POP POP POP JUMP JUMPDEST PUSH1 0x0 PUSH1 0x40 DUP3 ADD SWAP1 POP PUSH2 0x2451 PUSH1 0x0 DUP4 ADD DUP6 PUSH2 0x2190 JUMP JUMPDEST PUSH2 0x245E PUSH1 0x20 DUP4 ADD DUP5 PUSH2 0x23CC JUMP JUMPDEST SWAP4 SWAP3 POP POP POP JUMP JUMPDEST PUSH1 0x0 PUSH1 0x20 DUP3 ADD SWAP1 POP DUP2 DUP2 SUB PUSH1 0x0 DUP4 ADD MSTORE PUSH2 0x247F DUP2 DUP5 PUSH2 0x219F JUMP JUMPDEST SWAP1 POP SWAP3 SWAP2 POP POP JUMP JUMPDEST PUSH1 0x0 PUSH1 0x20 DUP3 ADD SWAP1 POP PUSH2 0x249C PUSH1 0x0 DUP4 ADD DUP5 PUSH2 0x21FD JUMP JUMPDEST SWAP3 SWAP2 POP POP JUMP JUMPDEST PUSH1 0x0 PUSH1 0x20 DUP3 ADD SWAP1 POP PUSH2 0x24B7 PUSH1 0x0 DUP4 ADD DUP5 PUSH2 0x220C JUMP JUMPDEST SWAP3 SWAP2 POP POP JUMP JUMPDEST PUSH1 0x0 PUSH1 0x20 DUP3 ADD SWAP1 POP PUSH2 0x24D2 PUSH1 0x0 DUP4 ADD DUP5 PUSH2 0x221B JUMP JUMPDEST SWAP3 SWAP2 POP POP JUMP JUMPDEST PUSH1 0x0 PUSH1 0x20 DUP3 ADD SWAP1 POP DUP2 DUP2 SUB PUSH1 0x0 DUP4 ADD MSTORE PUSH2 0x24F2 DUP2 DUP5 PUSH2 0x222A JUMP JUMPDEST SWAP1 POP SWAP3 SWAP2 POP POP JUMP JUMPDEST PUSH1 0x0 PUSH1 0x20 DUP3 ADD SWAP1 POP DUP2 DUP2 SUB PUSH1 0x0 DUP4 ADD MSTORE PUSH2 0x2513 DUP2 PUSH2 0x2263 JUMP JUMPDEST SWAP1 POP SWAP2 SWAP1 POP JUMP JUMPDEST PUSH1 0x0 PUSH1 0x20 DUP3 ADD SWAP1 POP DUP2 DUP2 SUB PUSH1 0x0 DUP4 ADD MSTORE PUSH2 0x2533 DUP2 PUSH2 0x2286 JUMP JUMPDEST SWAP1 POP SWAP2 SWAP1 POP JUMP JUMPDEST PUSH1 0x0 PUSH1 0x20 DUP3 ADD SWAP1 POP DUP2 DUP2 SUB PUSH1 0x0 DUP4 ADD MSTORE PUSH2 0x2553 DUP2 PUSH2 0x22A9 JUMP JUMPDEST SWAP1 POP SWAP2 SWAP1 POP JUMP JUMPDEST PUSH1 0x0 PUSH1 0x20 DUP3 ADD SWAP1 POP DUP2 DUP2 SUB PUSH1 0x0 DUP4 ADD MSTORE PUSH2 0x2573 DUP2 PUSH2 0x22CC JUMP JUMPDEST SWAP1 POP SWAP2 SWAP1 POP JUMP JUMPDEST PUSH1 0x0 PUSH1 0x20 DUP3 ADD SWAP1 POP DUP2 DUP2 SUB PUSH1 0x0 DUP4 ADD MSTORE PUSH2 0x2593 DUP2 PUSH2 0x22EF JUMP JUMPDEST SWAP1 POP SWAP2 SWAP1 POP JUMP JUMPDEST PUSH1 0x0 PUSH1 0x20 DUP3 ADD SWAP1 POP DUP2 DUP2 SUB PUSH1 0x0 DUP4 ADD MSTORE PUSH2 0x25B3 DUP2 PUSH2 0x2312 JUMP JUMPDEST SWAP1 POP SWAP2 SWAP1 POP JUMP JUMPDEST PUSH1 0x0 PUSH1 0x20 DUP3 ADD SWAP1 POP DUP2 DUP2 SUB PUSH1 0x0 DUP4 ADD MSTORE PUSH2 0x25D3 DUP2 PUSH2 0x2335 JUMP JUMPDEST SWAP1 POP SWAP2 SWAP1 POP JUMP JUMPDEST PUSH1 0x0 PUSH1 0x20 DUP3 ADD SWAP1 POP DUP2 DUP2 SUB PUSH1 0x0 DUP4 ADD MSTORE PUSH2 0x25F3 DUP2 PUSH2 0x2358 JUMP JUMPDEST SWAP1 POP SWAP2 SWAP1 POP JUMP JUMPDEST PUSH1 0x0 PUSH1 0x20 DUP3 ADD SWAP1 POP PUSH2 0x260F PUSH1 0x0 DUP4 ADD DUP5 PUSH2 0x23CC JUMP JUMPDEST SWAP3 SWAP2 POP POP JUMP JUMPDEST PUSH1 0x0 PUSH1 0x60 DUP3 ADD SWAP1 POP PUSH2 0x262A PUSH1 0x0 DUP4 ADD DUP7 PUSH2 0x23CC JUMP JUMPDEST PUSH2 0x2637 PUSH1 0x20 DUP4 ADD DUP6 PUSH2 0x23CC JUMP JUMPDEST PUSH2 0x2644 PUSH1 0x40 DUP4 ADD DUP5 PUSH2 0x23CC JUMP JUMPDEST SWAP5 SWAP4 POP POP POP POP JUMP JUMPDEST PUSH1 0x0 PUSH1 0x20 DUP3 ADD SWAP1 POP PUSH2 0x2661 PUSH1 0x0 DUP4 ADD DUP5 PUSH2 0x23DB JUMP JUMPDEST SWAP3 SWAP2 POP POP JUMP JUMPDEST PUSH1 0x0 DUP2 SWAP1 POP PUSH1 0x20 DUP3 ADD SWAP1 POP SWAP2 SWAP1 POP JUMP JUMPDEST PUSH1 0x0 DUP2 MLOAD SWAP1 POP SWAP2 SWAP1 POP JUMP JUMPDEST PUSH1 0x0 DUP2 MLOAD SWAP1 POP SWAP2 SWAP1 POP JUMP JUMPDEST PUSH1 0x0 PUSH1 0x20 DUP3 ADD SWAP1 POP SWAP2 SWAP1 POP JUMP JUMPDEST PUSH1 0x0 DUP3 DUP3 MSTORE PUSH1 0x20 DUP3 ADD SWAP1 POP SWAP3 SWAP2 POP POP JUMP JUMPDEST PUSH1 0x0 DUP3 DUP3 MSTORE PUSH1 0x20 DUP3 ADD SWAP1 POP SWAP3 SWAP2 POP POP JUMP JUMPDEST PUSH1 0x0 PUSH2 0x26C7 DUP3 PUSH2 0x283B JUMP JUMPDEST SWAP2 POP PUSH2 0x26D2 DUP4 PUSH2 0x283B JUMP JUMPDEST SWAP3 POP DUP3 PUSH32 0xFFFFFFFFFFFFFFFFFFFFFFFFFFFFFFFFFFFFFFFFFFFFFFFFFFFFFFFFFFFFFFFF SUB DUP3 GT ISZERO PUSH2 0x2707 JUMPI PUSH2 0x2706 PUSH2 0x2960 JUMP JUMPDEST JUMPDEST DUP3 DUP3 ADD SWAP1 POP SWAP3 SWAP2 POP POP JUMP JUMPDEST PUSH1 0x0 PUSH2 0x271D DUP3 PUSH2 0x283B JUMP JUMPDEST SWAP2 POP PUSH2 0x2728 DUP4 PUSH2 0x283B JUMP JUMPDEST SWAP3 POP DUP3 PUSH2 0x2738 JUMPI PUSH2 0x2737 PUSH2 0x298F JUMP JUMPDEST JUMPDEST DUP3 DUP3 DIV SWAP1 POP SWAP3 SWAP2 POP POP JUMP JUMPDEST PUSH1 0x0 PUSH2 0x274E DUP3 PUSH2 0x283B JUMP JUMPDEST SWAP2 POP PUSH2 0x2759 DUP4 PUSH2 0x283B JUMP JUMPDEST SWAP3 POP DUP2 PUSH32 0xFFFFFFFFFFFFFFFFFFFFFFFFFFFFFFFFFFFFFFFFFFFFFFFFFFFFFFFFFFFFFFFF DIV DUP4 GT DUP3 ISZERO ISZERO AND ISZERO PUSH2 0x2792 JUMPI PUSH2 0x2791 PUSH2 0x2960 JUMP JUMPDEST JUMPDEST DUP3 DUP3 MUL SWAP1 POP SWAP3 SWAP2 POP POP JUMP JUMPDEST PUSH1 0x0 PUSH2 0x27A8 DUP3 PUSH2 0x283B JUMP JUMPDEST SWAP2 POP PUSH2 0x27B3 DUP4 PUSH2 0x283B JUMP JUMPDEST SWAP3 POP DUP3 DUP3 LT ISZERO PUSH2 0x27C6 JUMPI PUSH2 0x27C5 PUSH2 0x2960 JUMP JUMPDEST JUMPDEST DUP3 DUP3 SUB SWAP1 POP SWAP3 SWAP2 POP POP JUMP JUMPDEST PUSH1 0x0 PUSH2 0x27DC DUP3 PUSH2 0x281B JUMP JUMPDEST SWAP1 POP SWAP2 SWAP1 POP JUMP JUMPDEST PUSH1 0x0 DUP2 ISZERO ISZERO SWAP1 POP SWAP2 SWAP1 POP JUMP JUMPDEST PUSH1 0x0 PUSH32 0xFFFFFFFF00000000000000000000000000000000000000000000000000000000 DUP3 AND SWAP1 POP SWAP2 SWAP1 POP JUMP JUMPDEST PUSH1 0x0 PUSH20 0xFFFFFFFFFFFFFFFFFFFFFFFFFFFFFFFFFFFFFFFF DUP3 AND SWAP1 POP SWAP2 SWAP1 POP JUMP JUMPDEST PUSH1 0x0 DUP2 SWAP1 POP SWAP2 SWAP1 POP JUMP JUMPDEST PUSH1 0x0 PUSH1 0xFF DUP3 AND SWAP1 POP SWAP2 SWAP1 POP JUMP JUMPDEST PUSH1 0x0 PUSH2 0x285D DUP3 PUSH2 0x2864 JUMP JUMPDEST SWAP1 POP SWAP2 SWAP1 POP JUMP JUMPDEST PUSH1 0x0 PUSH2 0x286F DUP3 PUSH2 0x2876 JUMP JUMPDEST SWAP1 POP SWAP2 SWAP1 POP JUMP JUMPDEST PUSH1 0x0 PUSH2 0x2881 DUP3 PUSH2 0x281B JUMP JUMPDEST SWAP1 POP SWAP2 SWAP1 POP JUMP JUMPDEST PUSH1 0x0 JUMPDEST DUP4 DUP2 LT ISZERO PUSH2 0x28A6 JUMPI DUP1 DUP3 ADD MLOAD DUP2 DUP5 ADD MSTORE PUSH1 0x20 DUP2 ADD SWAP1 POP PUSH2 0x288B JUMP JUMPDEST DUP4 DUP2 GT ISZERO PUSH2 0x28B5 JUMPI PUSH1 0x0 DUP5 DUP5 ADD MSTORE JUMPDEST POP POP POP POP JUMP JUMPDEST PUSH1 0x0 PUSH2 0x28C6 DUP3 PUSH2 0x283B JUMP JUMPDEST SWAP2 POP PUSH1 0x0 DUP3 EQ ISZERO PUSH2 0x28DA JUMPI PUSH2 0x28D9 PUSH2 0x2960 JUMP JUMPDEST JUMPDEST PUSH1 0x1 DUP3 SUB SWAP1 POP SWAP2 SWAP1 POP JUMP JUMPDEST PUSH1 0x0 PUSH1 0x2 DUP3 DIV SWAP1 POP PUSH1 0x1 DUP3 AND DUP1 PUSH2 0x28FD JUMPI PUSH1 0x7F DUP3 AND SWAP2 POP JUMPDEST PUSH1 0x20 DUP3 LT DUP2 EQ ISZERO PUSH2 0x2911 JUMPI PUSH2 0x2910 PUSH2 0x29BE JUMP JUMPDEST JUMPDEST POP SWAP2 SWAP1 POP JUMP JUMPDEST PUSH1 0x0 PUSH2 0x2922 DUP3 PUSH2 0x283B JUMP JUMPDEST SWAP2 POP PUSH32 0xFFFFFFFFFFFFFFFFFFFFFFFFFFFFFFFFFFFFFFFFFFFFFFFFFFFFFFFFFFFFFFFF DUP3 EQ ISZERO PUSH2 0x2955 JUMPI PUSH2 0x2954 PUSH2 0x2960 JUMP JUMPDEST JUMPDEST PUSH1 0x1 DUP3 ADD SWAP1 POP SWAP2 SWAP1 POP JUMP JUMPDEST PUSH32 0x4E487B7100000000000000000000000000000000000000000000000000000000 PUSH1 0x0 MSTORE PUSH1 0x11 PUSH1 0x4 MSTORE PUSH1 0x24 PUSH1 0x0 REVERT JUMPDEST PUSH32 0x4E487B7100000000000000000000000000000000000000000000000000000000 PUSH1 0x0 MSTORE PUSH1 0x12 PUSH1 0x4 MSTORE PUSH1 0x24 PUSH1 0x0 REVERT JUMPDEST PUSH32 0x4E487B7100000000000000000000000000000000000000000000000000000000 PUSH1 0x0 MSTORE PUSH1 0x22 PUSH1 0x4 MSTORE PUSH1 0x24 PUSH1 0x0 REVERT JUMPDEST PUSH32 0x4E487B7100000000000000000000000000000000000000000000000000000000 PUSH1 0x0 MSTORE PUSH1 0x32 PUSH1 0x4 MSTORE PUSH1 0x24 PUSH1 0x0 REVERT JUMPDEST PUSH1 0x0 DUP1 REVERT JUMPDEST PUSH1 0x0 DUP1 REVERT JUMPDEST PUSH1 0x0 DUP1 REVERT JUMPDEST PUSH1 0x0 DUP1 REVERT JUMPDEST PUSH1 0x0 DUP1 REVERT JUMPDEST PUSH1 0x0 PUSH1 0x1F NOT PUSH1 0x1F DUP4 ADD AND SWAP1 POP SWAP2 SWAP1 POP JUMP JUMPDEST PUSH32 0x4F6E6C79206F776E65722063616E2063616C6C20746869732E00000000000000 PUSH1 0x0 DUP3 ADD MSTORE POP JUMP JUMPDEST PUSH32 0x7472616E7366657220746F20666F756E646174696F6E20666C61736500000000 PUSH1 0x0 DUP3 ADD MSTORE POP JUMP JUMPDEST PUSH32 0x536166654D6174683A207375627472616374696F6E206F766572666C6F770000 PUSH1 0x0 DUP3 ADD MSTORE POP JUMP JUMPDEST PUSH32 0x596F7520646F6E2774206F776E2074686973204E465400000000000000000000 PUSH1 0x0 DUP3 ADD MSTORE POP JUMP JUMPDEST PUSH32 0x496E73756666696369656E742066756E64730000000000000000000000000000 PUSH1 0x0 DUP3 ADD MSTORE POP JUMP JUMPDEST PUSH32 0x596F7520616C7265616479206861766520776974686472617700000000000000 PUSH1 0x0 DUP3 ADD MSTORE POP JUMP JUMPDEST PUSH32 0x74686973206164647265737320686173206265656E20626F756E640000000000 PUSH1 0x0 DUP3 ADD MSTORE POP JUMP JUMPDEST PUSH32 0x536166654D6174683A6469766973696F6E206F766572666C6F77000000000000 PUSH1 0x0 DUP3 ADD MSTORE POP JUMP JUMPDEST PUSH2 0x2B97 DUP2 PUSH2 0x27D1 JUMP JUMPDEST DUP2 EQ PUSH2 0x2BA2 JUMPI PUSH1 0x0 DUP1 REVERT JUMPDEST POP JUMP JUMPDEST PUSH2 0x2BAE DUP2 PUSH2 0x283B JUMP JUMPDEST DUP2 EQ PUSH2 0x2BB9 JUMPI PUSH1 0x0 DUP1 REVERT JUMPDEST POP JUMP INVALID LOG2 PUSH5 0x6970667358 0x22 SLT KECCAK256 0x4E 0xCB PUSH25 0xF54BCD25E72218CC0FF8817B2AB5B8D5EE98B9F7C3136AE3F1 0x5C LOG4 DUP16 REVERT PUSH5 0x736F6C6343 STOP ADDMOD SMOD STOP CALLER "
				},
				"gasEstimates": {
					"creation": {
						"codeDepositCost": "2250000",
						"executionCost": "infinite",
						"totalCost": "infinite"
					},
					"external": {
						"allowance(address,address)": "infinite",
						"approve(address,uint256)": "infinite",
						"balanceOf(address)": "2864",
						"bindRecommender(address)": "27408",
						"decimals()": "2538",
						"depositNFT(uint256)": "infinite",
						"loans(address,uint256)": "infinite",
						"loansCount(address)": "infinite",
						"loansList(address)": "infinite",
						"loansNumber(address)": "2836",
						"name()": "infinite",
						"nftContract()": "2666",
						"onERC721Received(address,address,uint256,bytes)": "infinite",
						"ownerOf(uint256)": "infinite",
						"symbol()": "infinite",
						"testAddLoans(uint256)": "74202",
						"totalSupply()": "2541",
						"transfer(address,uint256)": "infinite",
						"transferFrom(address,address,uint256)": "infinite",
						"viewtotalSupply()": "2482",
						"withdrawNFT(uint256)": "infinite"
					},
					"internal": {
						"_bind(address,address)": "24382",
						"_burn(uint256)": "infinite",
						"_transfer(address,uint256,uint256)": "infinite",
						"_transferFrom(address,address,uint256,uint256)": "infinite"
					}
				},
				"methodIdentifiers": {
					"allowance(address,address)": "dd62ed3e",
					"approve(address,uint256)": "095ea7b3",
					"balanceOf(address)": "70a08231",
					"bindRecommender(address)": "48828ec0",
					"decimals()": "313ce567",
					"depositNFT(uint256)": "e91a7ca6",
					"loans(address,uint256)": "98c61c37",
					"loansCount(address)": "ffc49f38",
					"loansList(address)": "27d88a78",
					"loansNumber(address)": "b369ecd7",
					"name()": "06fdde03",
					"nftContract()": "d56d229d",
					"onERC721Received(address,address,uint256,bytes)": "150b7a02",
					"ownerOf(uint256)": "6352211e",
					"symbol()": "95d89b41",
					"testAddLoans(uint256)": "ce7ac47d",
					"totalSupply()": "18160ddd",
					"transfer(address,uint256)": "a9059cbb",
					"transferFrom(address,address,uint256)": "23b872dd",
					"viewtotalSupply()": "8951cf59",
					"withdrawNFT(uint256)": "023245d7"
				}
			},
			"storageLayout": {
				"storage": [
					{
						"astId": 207,
						"contract": "meta-mall/contracts/test.sol:NGT",
						"label": "name",
						"offset": 0,
						"slot": "0",
						"type": "t_string_storage"
					},
					{
						"astId": 209,
						"contract": "meta-mall/contracts/test.sol:NGT",
						"label": "symbol",
						"offset": 0,
						"slot": "1",
						"type": "t_string_storage"
					},
					{
						"astId": 212,
						"contract": "meta-mall/contracts/test.sol:NGT",
						"label": "decimals",
						"offset": 0,
						"slot": "2",
						"type": "t_uint8"
					},
					{
						"astId": 215,
						"contract": "meta-mall/contracts/test.sol:NGT",
						"label": "totalSupply",
						"offset": 0,
						"slot": "3",
						"type": "t_uint256"
					},
					{
						"astId": 219,
						"contract": "meta-mall/contracts/test.sol:NGT",
						"label": "balances",
						"offset": 0,
						"slot": "4",
						"type": "t_mapping(t_address,t_uint256)"
					},
					{
						"astId": 225,
						"contract": "meta-mall/contracts/test.sol:NGT",
						"label": "allowed",
						"offset": 0,
						"slot": "5",
						"type": "t_mapping(t_address,t_mapping(t_address,t_uint256))"
					},
					{
						"astId": 342,
						"contract": "meta-mall/contracts/test.sol:NGT",
						"label": "tokens",
						"offset": 0,
						"slot": "6",
						"type": "t_mapping(t_uint8,t_struct(TokenInfo)356_storage)"
					},
					{
						"astId": 344,
						"contract": "meta-mall/contracts/test.sol:NGT",
						"label": "foundation",
						"offset": 0,
						"slot": "7",
						"type": "t_address"
					},
					{
						"astId": 349,
						"contract": "meta-mall/contracts/test.sol:NGT",
						"label": "details",
						"offset": 0,
						"slot": "8",
						"type": "t_mapping(t_address,t_struct(AddressStatus)363_storage)"
					},
					{
						"astId": 365,
						"contract": "meta-mall/contracts/test.sol:NGT",
						"label": "owner",
						"offset": 0,
						"slot": "9",
						"type": "t_address"
					},
					{
						"astId": 375,
						"contract": "meta-mall/contracts/test.sol:NGT",
						"label": "nftContract",
						"offset": 0,
						"slot": "10",
						"type": "t_contract(IERC721)200"
					},
					{
						"astId": 381,
						"contract": "meta-mall/contracts/test.sol:NGT",
						"label": "loans",
						"offset": 0,
						"slot": "11",
						"type": "t_mapping(t_address,t_array(t_struct(NftLoasInfo)372_storage)dyn_storage)"
					},
					{
						"astId": 385,
						"contract": "meta-mall/contracts/test.sol:NGT",
						"label": "loansNumber",
						"offset": 0,
						"slot": "12",
						"type": "t_mapping(t_address,t_uint256)"
					},
					{
						"astId": 387,
						"contract": "meta-mall/contracts/test.sol:NGT",
						"label": "nft",
						"offset": 0,
						"slot": "13",
						"type": "t_address"
					}
				],
				"types": {
					"t_address": {
						"encoding": "inplace",
						"label": "address",
						"numberOfBytes": "20"
					},
					"t_array(t_struct(NftLoasInfo)372_storage)dyn_storage": {
						"base": "t_struct(NftLoasInfo)372_storage",
						"encoding": "dynamic_array",
						"label": "struct NGT.NftLoasInfo[]",
						"numberOfBytes": "32"
					},
					"t_contract(IERC721)200": {
						"encoding": "inplace",
						"label": "contract IERC721",
						"numberOfBytes": "20"
					},
					"t_mapping(t_address,t_array(t_struct(NftLoasInfo)372_storage)dyn_storage)": {
						"encoding": "mapping",
						"key": "t_address",
						"label": "mapping(address => struct NGT.NftLoasInfo[])",
						"numberOfBytes": "32",
						"value": "t_array(t_struct(NftLoasInfo)372_storage)dyn_storage"
					},
					"t_mapping(t_address,t_mapping(t_address,t_uint256))": {
						"encoding": "mapping",
						"key": "t_address",
						"label": "mapping(address => mapping(address => uint256))",
						"numberOfBytes": "32",
						"value": "t_mapping(t_address,t_uint256)"
					},
					"t_mapping(t_address,t_struct(AddressStatus)363_storage)": {
						"encoding": "mapping",
						"key": "t_address",
						"label": "mapping(address => struct NGT.AddressStatus)",
						"numberOfBytes": "32",
						"value": "t_struct(AddressStatus)363_storage"
					},
					"t_mapping(t_address,t_uint256)": {
						"encoding": "mapping",
						"key": "t_address",
						"label": "mapping(address => uint256)",
						"numberOfBytes": "32",
						"value": "t_uint256"
					},
					"t_mapping(t_uint8,t_struct(TokenInfo)356_storage)": {
						"encoding": "mapping",
						"key": "t_uint8",
						"label": "mapping(uint8 => struct NGT.TokenInfo)",
						"numberOfBytes": "32",
						"value": "t_struct(TokenInfo)356_storage"
					},
					"t_string_storage": {
						"encoding": "bytes",
						"label": "string",
						"numberOfBytes": "32"
					},
					"t_struct(AddressStatus)363_storage": {
						"encoding": "inplace",
						"label": "struct NGT.AddressStatus",
						"members": [
							{
								"astId": 358,
								"contract": "meta-mall/contracts/test.sol:NGT",
								"label": "locked_balances",
								"offset": 0,
								"slot": "0",
								"type": "t_uint256"
							},
							{
								"astId": 360,
								"contract": "meta-mall/contracts/test.sol:NGT",
								"label": "avilable_balances",
								"offset": 0,
								"slot": "1",
								"type": "t_uint256"
							},
							{
								"astId": 362,
								"contract": "meta-mall/contracts/test.sol:NGT",
								"label": "recommender",
								"offset": 0,
								"slot": "2",
								"type": "t_address"
							}
						],
						"numberOfBytes": "96"
					},
					"t_struct(NftLoasInfo)372_storage": {
						"encoding": "inplace",
						"label": "struct NGT.NftLoasInfo",
						"members": [
							{
								"astId": 367,
								"contract": "meta-mall/contracts/test.sol:NGT",
								"label": "tokenId",
								"offset": 0,
								"slot": "0",
								"type": "t_uint256"
							},
							{
								"astId": 369,
								"contract": "meta-mall/contracts/test.sol:NGT",
								"label": "loanTime",
								"offset": 0,
								"slot": "1",
								"type": "t_uint256"
							},
							{
								"astId": 371,
								"contract": "meta-mall/contracts/test.sol:NGT",
								"label": "flag",
								"offset": 0,
								"slot": "2",
								"type": "t_uint256"
							}
						],
						"numberOfBytes": "96"
					},
					"t_struct(TokenInfo)356_storage": {
						"encoding": "inplace",
						"label": "struct NGT.TokenInfo",
						"members": [
							{
								"astId": 351,
								"contract": "meta-mall/contracts/test.sol:NGT",
								"label": "token_name",
								"offset": 0,
								"slot": "0",
								"type": "t_string_storage"
							},
							{
								"astId": 353,
								"contract": "meta-mall/contracts/test.sol:NGT",
								"label": "token_address",
								"offset": 0,
								"slot": "1",
								"type": "t_address"
							},
							{
								"astId": 355,
								"contract": "meta-mall/contracts/test.sol:NGT",
								"label": "exchange_rate",
								"offset": 0,
								"slot": "2",
								"type": "t_uint256"
							}
						],
						"numberOfBytes": "96"
					},
					"t_uint256": {
						"encoding": "inplace",
						"label": "uint256",
						"numberOfBytes": "32"
					},
					"t_uint8": {
						"encoding": "inplace",
						"label": "uint8",
						"numberOfBytes": "1"
					}
				}
			},
			"userdoc": {
				"kind": "user",
				"methods": {},
				"version": 1
			}
		}
	}
}